:1000000000000110E5000000510100005301000054
:1000100055010000570100005901000000000000D8
:100020000000000000000000000000005B01000074
:100030005D010000000000005F010000E119000008
:100040006301000063010000630100006301000020
:10005000630100006301000063010000F1E800009B
:100060006301000063010000630100006301000000
:1000700063010000630100006301000063010000F0
:1000800063010000630100006301000063010000E0
:1000900063010000630100006301000063010000D0
:1000A0008529000063010000DD9E0000630100005F
:1000B000F5350000630100006301000063010000EA
:1000C00063010000630100006301000063010000A0
:1000D0006301000063010000630100006301000090
:1000E000630100001149124A124B9A4205D0086878
:1000F0001060043104329A42F9D300200E490F4AAD
:10010000914204D0914202D208600431FAD30C48E3
:100110000C49884206D00268043003B4FE46974674
:1001200003BCF6E70848804708480047B063020070
:1001300000000010F0070010F007001068DA00104F
:100140009463020094630200E11800008D6A0000CD
:10015000FEE7FEE7FEE7FEE7FEE7FEE7FEE7FEE777
:10016000FEE7FEE72DE9F04390F847C083B0BCF10D
:10017000040F04460D4616461F469DF8288022D0DF
:1001800002294ED003292ED0012941D00025D4F8D0
:100190003890B9F1000F06D03B463246294620463A
:1001A000CDF80080C847D4F83CE0BEF1000F17D06E
:1001B0003B46324629462046F446CDF8288003B017
:1001C000BDE8F0436047D0F83490B9F1000FDED0BD
:1001D000CDF80080C847D4F83CE0BEF1000FE7D16D
:1001E00003B0BDE8F08302F0F003B02B63D031D848
:1001F000902B5AD0A02B25D1D0F81090B9F1000F38
:10020000C5D043463A46204606F00F01C847CAE724
:10021000F72A2FD9C36A002BB9D031462046984718
:10022000C1E702F0F003D02B28D0F02B2AD0C02B4E
:10023000ADD1C369002BAAD03A46204606F00F0183
:100240009847B0E7802BA2D1D0F80C90B9F1000FFD
:10025000D7D19CE7E02B22D0F02B98D1F22A96D16F
:10026000D0F81890B9F1000F91D043463A46314684
:10027000C84798E7F62A8AD1036BCCE7036A002BBC
:10028000DAD184E7F32A1CD0F12A80D1836A002BCB
:100290003FF47DAF3A4631462046984783E7D0F891
:1002A0001490B9F1000FACD171E7D0F80890B9F112
:1002B000000FA6D16BE7D0F80490B9F1000FA0D1E0
:1002C00065E7436A002BE5D161E700BF034A137D70
:1002D0005B06FCD5C3B21370704700BF00C000407E
:1002E0004FF0010CF0B4446803780CFA04F40029D0
:1002F00000F0B080052B40F2CE8000BF00BF00BFF1
:1003000000BF00BF00BF00BF00BF00BF00BF00BFF5
:1003100000BF00BF00BF00BF00BF00BF00BF00BFE5
:1003200000BF00BF00BF00BF00BF00BF00BF00BFD5
:1003300000BF00BF00BF00BF00BF00BF00BF00BFC5
:1003400000BF00BF00BF00BF00BF00BF00BF00BFB5
:1003500000BF00BF00BF00BF00BF00BF00BF00BFA5
:1003600000BF00BF00BF00BF00BF00BF00BF00BF95
:1003700000BF0378052B23D8D0E904750121C46898
:100380005B0103F1005301FA04F403F5182301FAA9
:1003900005F5B940D70702F002069C6168D599615E
:1003A000002E68D00124816956079D6104FA01F48A
:1003B00068D501219C61C469A140140769D5996180
:1003C00000BF00BF00BF00BF00BF00BF00BF00BF35
:1003D00000BF00BF00BF00BF00BF00BF00BF00BF25
:1003E00000BF00BF00BF00BF00BF00BF00BF00BF15
:1003F00000BF00BF00BF00BF00BF00BF00BF00BF05
:1004000000BF00BF00BF00BF00BF00BF00BF00BFF4
:1004100000BF00BF00BF00BF00BF00BF00BF00BFE4
:1004200000BF00BF00BF00BF00BF00BF00BF00BFD4
:1004300000BF00BF00BF00BF0378052B08D8012212
:10044000C1685B0103F1005303F518238A40DA61A8
:10045000F0BC7047052B3FF650AF5B0103F1005332
:1004600003F51823DC6101218468A140D96144E7C8
:10047000D961002E96D101248169DD61550704FA06
:1004800001F496D40121DC61C469120701FA04F178
:1004900095D4D96194E75B0103F1005303F5182368
:1004A0009C61E0E702780346052A2DE9F0412DD84A
:1004B000D3E90557D3E901E80120520102F10052C6
:1004C00002F51822D3F810C0146800FA0CFC24EAD4
:1004D0000C04DE69146000FA05FC156800FA07F7E1
:1004E00025EA0C051560156800FA06F625EA0705E9
:1004F0001560156800FA08F425EA060500FA0EF002
:100500001560002940F08581D061946100BF00BF73
:1005100000BF00BF00BF00BF00BF00BF00BF00BFE3
:1005200000BF00BF00BF00BF00BF00BF00BF00BFD3
:1005300000BF00BF00BF00BF00BF00BF00BF00BFC3
:1005400000BF00BF00BF00BF00BF00BF00BF00BFB3
:1005500000BF00BF00BF00BF00BF00BF00BF00BFA3
:1005600000BF00BF00BF00BF00BF00BF00BF00BF93
:1005700000BF00BF00BF00BF00BF00BF00BF00BF83
:1005800000BF00BF1A78052A08D80121D868520197
:1005900002F1005202F518228140916100BF00BFB4
:1005A00000BF00BF00BF00BF00BF00BF00BF00BF53
:1005B00000BF00BF00BF00BF00BF00BF00BF00BF43
:1005C00000BF00BF00BF00BF00BF00BF00BF00BF33
:1005D00000BF00BF00BF00BF00BF00BF00BF00BF23
:1005E00000BF00BF00BF00BF00BF00BF00BF00BF13
:1005F00000BF00BF00BF00BF00BF00BF00BF00BF03
:1006000000BF00BF00BF00BF00BF00BF00BF00BFF2
:1006100000BF00BF1978052900F2F9804A0102F1F4
:10062000005202F5182256690120D3E906755C696B
:10063000D3F810C000FA04F23240224100FA0CF460
:10064000344044FA0CF4520142EA041200FA07F46E
:1006500034403C4142EA841200FA05F434402C4113
:10066000052942EAC41207D8DC68490101F10051AA
:1006700001F51821A040C86100BF00BF00BF00BF46
:1006800000BF00BF00BF00BF00BF00BF00BF00BF72
:1006900000BF00BF00BF00BF00BF00BF00BF00BF62
:1006A00000BF00BF00BF00BF00BF00BF00BF00BF52
:1006B00000BF00BF00BF00BF00BF00BF00BF00BF42
:1006C00000BF00BF00BF00BF00BF00BF00BF00BF32
:1006D00000BF00BF00BF00BF00BF00BF00BF00BF22
:1006E00000BF00BF00BF00BF00BF00BF00BF00BF12
:1006F0001978052908D80120DC68490101F1005169
:1007000001F51821A040886100BF00BF00BF00BFF5
:1007100000BF00BF00BF00BF00BF00BF00BF00BFE1
:1007200000BF00BF00BF00BF00BF00BF00BF00BFD1
:1007300000BF00BF00BF00BF00BF00BF00BF00BFC1
:1007400000BF00BF00BF00BF00BF00BF00BF00BFB1
:1007500000BF00BF00BF00BF00BF00BF00BF00BFA1
:1007600000BF00BF00BF00BF00BF00BF00BF00BF91
:1007700000BF00BF00BF00BF00BF00BF00BF00BF81
:100780001978052941D8480100F1005000F51820DA
:1007900044694FF0010ED3E905871E69DD690EFA41
:1007A00006FC0CEA0400304110430EFA08F202EA9B
:1007B000040646FA08F640EA46000EFA07F606EA8C
:1007C000040848FA07F740EA87000EFA05F73C40AC
:1007D0002C41052940EAC40015D8DC684B0103F11F
:1007E000005303F518230EFA04F4DC6119684CEA8F
:1007F0000101196019680A431A601A6816431E60DD
:100800001A6817431F60BDE8F0810024C1E7002685
:100810000AE7906179E600BF704700BFF0B5037842
:1008200003F01F03012B05D0022B12D0002B46D062
:100830000020F0BD447812680A2C00F04C810B2C8B
:1008400000F04D81002CF3D1022314800B600120B5
:10085000F0BD43781468012B00F0F280032B00F008
:100860001581002BE4D130250379AF4A580000F000
:100870001E0040EAD310000440F4A063C2F80852FE
:10088000C2F81032D2F80032DE06FBD5102540F453
:100890000073A548C2F80852C2F81032D0F80032EE
:1008A0009D06FBD5202300250222C0F80832D0F88F
:1008B00014326570C3F3400323700A60C7E74378BE
:1008C0001468092BB4D801A555F823F0FF090000DE
:1008D0003108000031080000310800003108000034
:1008E000BF090000090A000031080000B309000038
:1008F000F50800008078002800F020818B4E3368D6
:100900001978002900F0F480FF252C4607E0022A20
:1009100000F0EC800B441978002900F0E9805A7847
:10092000042A00F0E180052AF1D18442F2D1002DA1
:10093000F0D1012293F802E07B490EFA02FC0CF0A0
:100940001E0CD1F844724CEADE1C02FA0CF2B3F829
:1009500004E03A43C1F84422C1F848C2C1F84CE26D
:10096000D1F80022D205FBD54FF48077C1F8087288
:1009700030274FEA0C4242F4800242F4A062C1F8F0
:100980000872C1F810226849D1F80022D706FBD5B9
:100990001022C1F808224FF48072C1F81022624977
:1009A000D1F80022D206FBD51022C1F8082219780E
:1009B000B0E701235D4A127922700B6047E73024CB
:1009C0008378594A5A48C2F8084243F08001C2F875
:1009D0001002D2F80032DF06FBD5102001FA00F336
:1009E00043F480735049C2F80802C2F81032D1F8BB
:1009F0000032DE06FBD51023C1F8083227E70022BB
:100A0000022322800B6022E7484B45881B682E0A90
:100A100018783446EDB200283FF40BAF4FF0000ECB
:100A200004E00344187800283FF403AF93F801C0B2
:100A3000A445F6D1AE4500F09E800EF1010EF0E720
:100A40004388002B7FF4F4AE30240179364A4B0002
:100A500003F01E0343EAD1131B0443F4800343F461
:100A6000A063C2F80842C2F81032D2F80032DC06A5
:100A7000FBD510204FF480732B49C2F80802C2F84E
:100A80001032D1F80032D806FBD5B4E74388002BEA
:100A90007FF4CEAE30240179234A4B0003F01E03CD
:100AA00043EAD1131B0443F4800343F4A063C2F868
:100AB0000842C2F81032D2F80032D906FBD5102015
:100AC0001C4B1949C2F80802C2F81032D1F80032A2
:100AD000DB06FBD58FE7002010700B60B7E643887C
:100AE000002B3FF4B3AEA3E6DD7813E75C7911E7A2
:100AF00030210D4A104BC2F80812C2F81032D2F859
:100B00000032DB06FBD510240A4B0749C2F8084225
:100B1000C2F81032D1F80032DF06FBD51023C1F83D
:100B20000832307193E600BF00C00820F0070010C3
:100B30000005D000000101000005D8003021114A55
:100B4000114BC2F80812C2F81032D2F80032DD069A
:100B5000FBD510244FF480730A49C2F80842C2F84A
:100B60001032D1F80032DC06FBD51023074EC1F855
:100B7000083230716BE61360022E0CBF5B881B7865
:100B80000B6064E600C008200005D800F0070010E4
:100B9000830030B44FEA400C374C03F03C030CF0B8
:100BA0001E0C43F001034CEAD01CC4F82832D4F8E0
:100BB00020020505FBD543055BD5C0F3090000B352
:100BC00000294BD0002A40DD00248242A8BF024603
:100BD0002346294D013913F0030F38D1D5F81842B7
:100BE0000133934201F8014F36DB984209D9224A7A
:100BF00013F0030F03F1010308BFD2F81812984253
:100C0000F6D8002430211C4A4FEA0C4C4CF4A06367
:100C1000C2F82842C2F80812C2F81032D2F80032E4
:100C2000D906FBD510253024144B1349C2F80852BD
:100C3000C2F80842C2F81032D1F80032DB06FBD508
:100C40001023C1F8083230BC70470023CFE70133CE
:100C5000934201F8014FC8DA240ABCE7064B11F0B1
:100C6000030F01F1010108BFD3F818228142F6D128
:100C7000C7E74FF0FF30E6E700C008200005F200AC
:100C8000F8B5404BD3F80042E10721D501223E4997
:100C90008968C3F80822D9B130203C4AC3F8080259
:100CA000C3F81022D3F80022D206FBD5102538480D
:100CB000344AC3F80852C3F81002D2F800329F0633
:100CC000FBD52023C2F80832D2F81402C0B28847FC
:100CD000260720D5082030212A4A2E4BC2F80802C8
:100CE000C2F80812C2F81032D2F80032DD06FBD585
:100CF0001020294B2349C2F80802C2F81032D1F85B
:100D000000329806FBD52023C1F80832D1F814022E
:100D100010F01A0F2DD162072AD50423194D002493
:100D20000127194EC5F8083202E00134202C1FD0EB
:100D3000D5F8302207FA04F31A42F6D0C5F8383253
:100D4000D5F800329B06FBD52022601006EB80030D
:100D50001B69C5F80822D5F81412002BE5D040EA2B
:100D6000C41001F01F01C0B201349847202CDFD11C
:100D7000F8BD054BDB68002BCDD000F0150098477F
:100D8000C9E700BF00C00820F00700100005F5000B
:100D90000002F5000005FE000002FE00204870B4CD
:100DA000D0E91445402C26464FF00202A8BF402649
:100DB0001C4BC3F82822C3F82462D3F828229207D8
:100DC00048BF2A4607D552F8041BC3F81C12D3F8B3
:100DD00028128907F7D40023124AC2F82832302398
:100DE000C2F80832104BC2F81032D2F80032D906DD
:100DF000FBD51023C2F808323023C2F808320B4B5F
:100E0000C2F81032074AD2F80032DB06FBD51023B5
:100E10003544A41BC0E9144570BCC2F808327047C1
:100E2000F007001000C00820000501000005FA00CE
:100E300038B500283ED14D07694C40D4256D002DB2
:100E400073DD2A46616DFFF7A3FE0028C0F2B08073
:100E5000636D2D1A0344C4E9145355BB94F85830FC
:100E6000C3F3411304EB83031A6E5B6F62653BB1FE
:100E700004F1540204F1700104F158009847D8B904
:100E80003021584A584BC2F80812C2F81032D2F832
:100E90000032DB06FBD51020544B5249C2F8080241
:100EA000C2F81032D1F80032DD06FBD51023C1F8AC
:100EB000083238BD8028FCD1BDE838406EE70822F2
:100EC00004F15801FFF764FE94F85810B4F85E205E
:100ED000C1F3411304EB8300006E9B00C4E91420AE
:100EE00022670AB1C909E4D023445B6F33B1404A99
:100EF00002F11C01101D984700284FD13021394ABA
:100F0000394BC2F80812C2F81032D2F80032DC06AF
:100F1000FBD51020354B3349C2F80802C2F8103215
:100F2000D1F80032D806FBD5C0E701232D4AC2F81C
:100F30002832D2F820321C05FBD55805B9D5C3F3A9
:100F4000090252B10023274913F0030F03F10103F3
:100F500008BFD1F818029342F6D1002030214FF497
:100F6000A063204AC2F82802C2F80812C2F8103260
:100F7000D2F80032D906FBD5102430201D4B194978
:100F8000C2F80842C2F80802C2F81032D1F80032A2
:100F9000DB06FBD51023C1F808328AE7B4F85E30CF
:100FA000226F9342A8BF13462365BDE83840F5E69B
:100FB00030210C4A0C4BC2F80812C2F81032D2F899
:100FC0000032D906FBD51020084B0649C2F80802AA
:100FD000C2F81032D1F80032DA06FBD566E700BF5E
:100FE000F007001000C008200005410000010100CA
:100FF000440800100005F2001D4B93F99020002AD0
:1010000002DBD3F88C30CBB930211A4A1A4BC2F824
:101010000812C2F81032D2F80032DB06FBD51020DD
:10102000164B1449C2F80802C2F81032D1F8003247
:10103000D806FBD51023C1F80832704730210D4A7D
:101040000F4BC2F80812C2F81032D2F80032D9069B
:10105000FBD51020094B0749C2F80802C2F810322C
:10106000D1F80032DB06FBD51023C1F808327047F7
:10107000F007001000C0082000054B00000101002F
:101080000005440070B58E465B4B86B006AC1EF082
:10109000020F84460FCB04E90F0001D006B070BDEB
:1010A000042260460DEB0201FFF772FD0428F5D122
:1010B0009DF8043003F00F0318336B4413F8100C41
:1010C0000028EBD04D4B9DF805C093F8C512EFF307
:1010D00012844FF0100E8EF3118893F8C6524A1CFA
:1010E000B2FBF5F605FB162293F8C452954275D073
:1010F000D3F8C82202F801C093F8C52293F8C612AB
:101100000132B2FBF1FC01FB1C2283F8C52284F3FF
:1011100011880128C2D09DF806C0EFF312848EF327
:101120001188551CB5FBF1F601FB165593F8C41256
:101130008D425AD0D3F8C81201F802C093F8C522E4
:1011400093F8C6120132B2FBF1FC01FB1C2283F8BA
:10115000C52284F311880228A0D09DF807C0EFF3C0
:1011600012848EF31188551CB5FBF1F601FB165560
:1011700093F8C4128D420ED0D3F8C81201F802C001
:1011800093F8C52293F8C6120132B2FBF1FC01FBC1
:101190001C2283F8C52284F31188032818BF032377
:1011A0003FF47CAFEFF31281102282F3118881F3B8
:1011B0001188591C88427FF671AFEFF3128182F3D8
:1011C000118881F31188023398427FF667AFEFF3FD
:1011D000128382F3118883F311885FE784F3118807
:1011E000012818BF0123DDD158E784F311880228B4
:1011F00018BF0223D6D151E7F0190200F007001002
:1012000083887BB910B444884CB94378FE2B13D043
:10121000FF2B01D1C3883BB1204610BC7047184654
:1012200010BC704700207047064A82F8E432C2F8CA
:10123000E832012010BC70470123126814700B6063
:10124000F7E700BFF0070010054B184490F8103185
:10125000027C1B0490F8100243EA022318437047F3
:10126000F019020040222D4B10B4DA6100BF00BF1C
:1012700000BF00BF00BF00BF2949CB68DC07FCD519
:101280004B23274A8B60D3685907FCD593682449C0
:10129000CB68DA07FCD50023214A8B60D3685B0753
:1012A000FCD593681E49CB68DC07FCD500231C4A9B
:1012B0008B60D3685907FCD593681949CB68DA0766
:1012C000FCD50023164A8B60D3685B07FCD5936876
:1012D0001349CB68DC07FCD50023114A8B60D36827
:1012E0005907FCD5002493680D4B411E0F30DA6876
:1012F000D207FCD59C60DA685207FCD59A6801F8E1
:10130000012F8142F3D100BF00BF00BF00BF00BF6B
:1013100000BF4022014B10BC9A6170470080092039
:101320000000034070B540F2E73405460E460DE07C
:1013300000BF00BF00BF00BF00BF00BF00BF00BFB5
:1013400000BF00BF00BF00BF013C11D000212846F4
:10135000FFF7A8F80306EBD4321100212846FEF768
:10136000BFFF06F00F020021BDE87040FEF7B8BFD6
:1013700033462046024A03490EF03AFCECE700BF30
:10138000001D02009808020003782DE9F041052BAA
:10139000044633D8D0E90276D4E906EC01225B0199
:1013A00003F1005303F518234168D3F8008002FAD3
:1013B00001F141EA0801D0E90450196002FA07F787
:1013C00002FA06F602FA05F502FA00F002FA0EF148
:1013D00002FA0CF2D3F800C047EA0C071F601F683E
:1013E0003E431E601E6835431D601D68284318601B
:1013F00018680143196019680A431A600021032222
:101400002046FEF76DFF41F2040100BF00BF00BFA0
:1014100000BF00BF00BF00BF00BF00BF00BF00BFD4
:1014200000BF00BF00BF00BF00BF00BF00BF00BFC4
:1014300000BF00BF00BF00BF00BF00BF00BF00BFB4
:1014400000BF00BF00BF00BF00BF00BF00BF00BFA4
:1014500000BF00BF00BF00BF00BF00BF00BF00BF94
:1014600000BF00BF00BF00BF00BF00BF00BF00BF84
:1014700000BF00BF00BF00BF00BF00BF00BF00BF74
:1014800000BF00BF00BF00BF00BF00BF00BF00BF64
:1014900000BF00BF00BF00BF00BF00BF00BF00BF54
:1014A00000BF00BF00BF00BF00BF00BF00BF00BF44
:1014B00000BF00BF00BF00BF00BF00BF00BF00BF34
:1014C00000BF00BF00BF00BF00BF00BF00BF00BF24
:1014D00000BF00BF00BF00BF00BF00BF00BF00BF14
:1014E00000BF00BF00BF00BF00BF00BF00BF00BF04
:1014F00000BF00BF00BF00BF00BF013985D103227C
:101500002046FEF7EDFE642100BF00BF00BF00BF14
:1015100000BF00BF00BF00BF00BF00BF00BF00BFD3
:1015200000BF00BF00BF00BF00BF00BF00BF00BFC3
:1015300000BF00BF00BF00BF00BF00BF00BF00BFB3
:1015400000BF00BF00BF00BF00BF00BF00BF00BFA3
:1015500000BF00BF00BF00BF00BF00BF00BF00BF93
:1015600000BF00BF00BF00BF00BF00BF00BF00BF83
:1015700000BF00BF00BF00BF00BF00BF00BF00BF73
:1015800000BF00BF00BF00BF00BF00BF00BF00BF63
:1015900000BF00BF00BF00BF00BF00BF00BF00BF53
:1015A00000BF00BF00BF00BF00BF00BF00BF00BF43
:1015B00000BF00BF00BF00BF00BF00BF00BF00BF33
:1015C00000BF00BF00BF00BF00BF00BF00BF00BF23
:1015D00000BF00BF00BF00BF00BF00BF00BF00BF13
:1015E00000BF00BF00BF00BF00BF00BF00BF00BF03
:1015F00000BF00BF00BF00BF013985D103222046D4
:10160000FEF76EFE252100BF00BF00BF00BF00BF78
:1016100000BF00BF00BF00BF00BF00BF00BF00BFD2
:1016200000BF00BF00BF00BF00BF00BF00BF00BFC2
:1016300000BF00BF00BF00BF00BF00BF00BF00BFB2
:1016400000BF00BF00BF00BF00BF00BF00BF00BFA2
:1016500000BF00BF00BF00BF00BF00BF00BF00BF92
:1016600000BF00BF00BF00BF00BF00BF00BF00BF82
:1016700000BF00BF00BF00BF00BF00BF00BF00BF72
:1016800000BF00BF00BF00BF00BF00BF00BF00BF62
:1016900000BF00BF00BF00BF00BF00BF00BF00BF52
:1016A00000BF00BF00BF00BF00BF00BF00BF00BF42
:1016B00000BF00BF00BF00BF00BF00BF00BF00BF32
:1016C00000BF00BF00BF00BF00BF00BF00BF00BF22
:1016D00000BF00BF00BF00BF00BF00BF00BF00BF12
:1016E00000BF00BF00BF00BF00BF00BF00BF00BF02
:1016F00000BF00BF00BF013985D102222046FEF79E
:10170000EFFD252300BF00BF00BF00BF00BF00BF2B
:1017100000BF00BF00BF00BF00BF00BF00BF00BFD1
:1017200000BF00BF00BF00BF00BF00BF00BF00BFC1
:1017300000BF00BF00BF00BF00BF00BF00BF00BFB1
:1017400000BF00BF00BF00BF00BF00BF00BF00BFA1
:1017500000BF00BF00BF00BF00BF00BF00BF00BF91
:1017600000BF00BF00BF00BF00BF00BF00BF00BF81
:1017700000BF00BF00BF00BF00BF00BF00BF00BF71
:1017800000BF00BF00BF00BF00BF00BF00BF00BF61
:1017900000BF00BF00BF00BF00BF00BF00BF00BF51
:1017A00000BF00BF00BF00BF00BF00BF00BF00BF41
:1017B00000BF00BF00BF00BF00BF00BF00BF00BF31
:1017C00000BF00BF00BF00BF00BF00BF00BF00BF21
:1017D00000BF00BF00BF00BF00BF00BF00BF00BF11
:1017E00000BF00BF00BF00BF00BF00BF00BF00BF01
:1017F00000BF00BF013B85D1236A204603F00101F1
:10180000C9009B0748BF41F0040141F02001FFF7E8
:1018100089FD20460821FFF785FD20460121FFF7BD
:1018200081FD2046BDE8F04106217BE5012179E5F7
:10183000022177E501F0030141F0040172E500BFE8
:1018400001F0070141F008016CE500BF01F00C0157
:1018500041F0100166E500BFC9B241F0800161E5C9
:1018600070B540F2E73405460E460DE000BF00BFFC
:1018700000BF00BF00BF00BF00BF00BF00BF00BF70
:1018800000BF00BF013C11D000212846FEF70AFE30
:101890000306EBD4321101212846FEF721FD06F0A4
:1018A0000F020121BDE87040FEF71ABD3346204605
:1018B000024A03490EF09CF9ECE700BF081D020044
:1018C0009808020038B50C46097839B10546284613
:1018D000FFF7C6FF14F8011F0029F8D138BD00BF7B
:1018E0002123274AF0B4C2F8A031D2F8A0315C0617
:1018F000FBD501230925AA2455202149C2F80C3122
:10190000C2F88450C2F88030C2F88C40C2F88C0013
:10191000D1F888305805FBD523250124AA2055226B
:10192000174BC1F8A450C1F8A040C1F8AC00C1F8F1
:10193000AC20D3F8A8205205FBD5012240F20127A4
:101940004FF4807540F2011C45F23A0400200D4E20
:10195000C3F804C1C3F80871C3F80021C3F8A82173
:10196000C3F8C460C3F8C851D3F8B021064942F0A7
:101970000302C3F8B0211C608860F0BC704700BF50
:1019800000C00F400E84F00300ED00E0002070471F
:101990001846704700207047002070474FF40053EE
:1019A00000205360704700BF01207047FEE700BF72
:1019B0004FF0FF30704700BF4FF0FF30704700BF5F
:1019C000054B064AD3F8EC02002808BF1046014434
:1019D000C3F8EC12704700BFF007001068DA00107F
:1019E00041F26F702DE9F04FBA4D83B0B5F97A1C12
:1019F000B5F86C23B5F86E3301FB02F2B5F8281385
:101A000001EB2241B5F9962C02FB03F301EB2341D4
:101A100081F31001814240F336836E24AE48A1F574
:101A2000BB53103B04FB0300AC4AA2FB0020400B5D
:101A300095F8FE2295F81543032A0CBFB5F9E42C5E
:101A40000022032C08BFB5F8E84CB5F81A3308BFDC
:101A5000121902F30F04B5F82023A4F50044A4B230
:101A600004FB03F304FB02F2002606F30F06B5F8AD
:101A70006243A6F50046B6B206FB04F4120C00FB66
:101A800002F2240C1B0C00FB03F304FB00F0944C4B
:101A9000121282F31002C2F30B12A4F800230012F8
:101AA00080F31000C0F30722FF2A08BF4FF4FF762F
:101AB0004FF000084FEA232383F31003C3F30B1303
:101AC00018BF561C43F4805318BFF6B2A4F8023373
:101AD00081F31003834918BF7600C3F34B1301EB66
:101AE000420243F480433144A4F81833B2F824335B
:101AF000B1F82423C0B2D21A00FB02F203EB122386
:101B0000C3F30B13DFF8E0B1A4F81033DBF8403077
:101B10000BB158469847EFF31282102383F31188D4
:101B20009BF80D919BF80C3199453CBF9BF80E1129
:101B30008944A9EB03095FFA89F982F31188B9F1A5
:101B4000000F00F0BE804FF48A72002402FB08569A
:101B500021E00023012158468BF847100093FEF73F
:101B600001FB9BF80C318BF84770EFF312811022C8
:101B700082F311889BF80E210133B3FBF2F002FBD4
:101B80001033DBB28BF80C3181F311880134A2B22F
:101B9000914540F296809BF80C219BF80E01DBF8F2
:101BA0001011B2FBF0FC00FB1C228A5C9BF8477012
:101BB000F72ACED8110617D5042F04D001238BF8AD
:101BC0004420ABF8483002F0F003D02B06D04FD8B9
:101BD000B02B47D03FD9C02B40F08A8402238BF82A
:101BE00047309BF80C31C0E7002FBED0BBF848103F
:101BF0003E4BA3FB013A4FEA5A0A0AEB4A0AA1EB11
:101C00000A0A1FFA8AFA013189B206EB0A03BAF10D
:101C1000010F83F8E820ABF8481016D0BAF1020F94
:101C200016D19BF84630584600939BF845309BF8F8
:101C30004420FEF797FA9BF84730042B08D0012385
:101C4000ABF848309BF80C318FE7022F00F064842A
:101C50009BF80C3189E702F0E002802A02D0A02B29
:101C600040F0468403238BF847309BF80C317CE727
:101C7000E02BF7D0F02B40F03B84A2F1F103052BD1
:101C800000F2888301A151F823F000BFDD1B0000A2
:101C9000651C0000DD1B000095230000952300005B
:101CA000A51C0000002701213B460097F62258465C
:101CB0008BF84710FEF756FA9BF80C318BF84770FB
:101CC00053E70BF58A7BB8F1000F11D14FF00108F3
:101CD0001CE700BFF0070010E2FF1D001F85EB515D
:101CE00000000020F019020094080010ABAAAAAA74
:101CF000CD4B95F88C4D5E6FD5F8903D002C40F0A3
:101D0000C48195F80123002A00F01C83720100F1C0
:101D100016845F0100F19A8573405C0100F115841F
:101D2000C24C94F99C3095F87F2AC5F8906D002B31
:101D300040F0C9811AB385F87B3AC5F8583A85F85E
:101D40007F3AC5F8723AC5F8763AC5F8543A85F83C
:101D50007339C5F8503985F87739C5F86A39C5F847
:101D60006E39C5F84C3985F8833BC5F8603B85F87A
:101D7000873BC5F87A3BC5F87E3BC5F85C3B94F9D8
:101D8000A83095F8AB2A002B40F0AF811AB385F844
:101D9000A73AC5F8843A85F8AB3AC5F89E3AC5F833
:101DA000A23AC5F8803A85F89F39C5F87C3985F89C
:101DB000A339C5F89639C5F89A39C5F8783985F840
:101DC000AF3BC5F88C3B85F8B33BC5F8A63BC5F8DF
:101DD000AA3BC5F8883B94F9B43095F8D72A002B74
:101DE00040F095811AB385F8D33AC5F8B03A85F832
:101DF000D73AC5F8CA3AC5F8CE3AC5F8AC3A85F82C
:101E0000CB39C5F8A83985F8CF39C5F8C239C5F836
:101E1000C639C5F8A43985F8DB3BC5F8B83B85F869
:101E2000DF3BC5F8D23BC5F8D63BC5F8B43B94F9C7
:101E3000C03095F8032B002B40F07B811AB385F856
:101E4000FF3AC5F8DC3A85F8033BC5F8F63AC5F821
:101E5000FA3AC5F8D83A85F8F739C5F8D43985F88B
:101E6000FB39C5F8EE39C5F8F239C5F8D03985F82F
:101E7000073CC5F8E43B85F80B3CC5F8FE3BC5F8CC
:101E8000023CC5F8E03B94F9CC3095F82F2B002BA1
:101E900040F061811AB385F82B3BC5F8083B85F803
:101EA0002F3BC5F8223BC5F8263BC5F8043B85F817
:101EB000233AC5F8003A85F8273AC5F81A3AC5F822
:101EC0001E3AC5F8FC3985F8333CC5F8103C85F856
:101ED000373CC5F82A3CC5F82E3CC5F80C3C94F9B3
:101EE000D83095F85B2B002B40F047811AB385F86A
:101EF000573BC5F8343B85F85B3BC5F84E3BC5F80E
:101F0000523BC5F8303B85F84F3AC5F82C3A85F876
:101F1000533AC5F8463AC5F84A3AC5F8283A85F81A
:101F20005F3CC5F83C3C85F8633CC5F8563CC5F8B9
:101F30005A3CC5F8383C3E4C95F8003D94F9552084
:101F4000002A00F02D81002B00F03481013B85F840
:101F5000003D4FF6FF73B4F862209A4200F02A81E8
:101F6000B4F8603001339BB29A4200F245820027F8
:101F700094F8643094F8EC20A4F86070134300F0F7
:101F800043822C4E3378022B40F0A18296F88120B8
:101F9000002A00F09C82B6F9823007EB071904EBA7
:101FA000C9094B4493F865A04FEA071BBAF17E0FAD
:101FB00034D0B6F98430002B25DB4B4493F8651000
:101FC0001AE0002396F887001A460844C0B2194662
:101FD0000AF094FAB6F9843096F88120013393FB25
:101FE000F2F102FB1133A6F884304B4493F86510EC
:101FF00093F96530002B06DA01F07F0303F10C0141
:102000007E3B012BDDD8BAF17F0F07D0B6F88230C6
:10201000A6F8843094F9743186F887300BEB070901
:1020200004EBC90919E000BF00800920F017001077
:10203000E81800104C190010B6F98230013393FBF8
:10204000F2F102FB1133A6F882304B4493F965108C
:1020500093F865A0002980F23A820AF07F0303F129
:102060000C017E3B012BE7D994F87401002308444E
:102070004FF400420121C0B20AF040FAB6F98230B2
:1020800096F88120DAE74C20D2E473405A017FF5BC
:1020900047AE06F08063002B0CBF0127002704D059
:1020A00095F98B3D002B40F0DE8385F88C4DCF4CAD
:1020B00095F87F2A94F99C3085F88B7DC5F8906D52
:1020C000002B3FF437AE002A7FF459AE4FF6FF7372
:1020D000A4F89A3094F9A83084F89C2084F89E20C3
:1020E00095F8AB2A002B3FF451AE002A7FF473AE73
:1020F0004FF6FF73A4F8A63094F9B43084F8A82002
:1021000084F8AA2095F8D72A002B3FF46BAE002A5A
:102110007FF48DAE4FF6FF73A4F8B23094F9C0305F
:1021200084F8B42084F8B62095F8032B002B3FF4F4
:1021300085AE002A7FF4A7AE4FF6FF73A4F8BE3039
:1021400094F9CC3084F8C02084F8C22095F82F2B65
:10215000002B3FF49FAE002A7FF4C1AE4FF6FF7311
:10216000A4F8CA3094F9D83084F8CC2084F8CE2072
:1021700095F85B2B002B3FF4B9AE002A7FF4DBAE61
:102180004FF6FF7384F8D82084F8DA20A4F8D6300C
:10219000974C95F8003D94F95520002A7FF4D3AE72
:1021A000002B7FF4D3AE4FF6FF73B4F862209A424F
:1021B0007FF4D6AE95F9EC3C3BB9D4F878310133D5
:1021C000C4F8783103B0BDE8F08FB5F8C02CB5F88D
:1021D0009C1CB5F8EA3C914280F09381521A92B26D
:1021E0009A4294BF8918C918A5F89C1CB5F8CC2C44
:1021F000B5F8A81C8A4200F22382C0F0A982B5F883
:10220000D82CB5F8B41C8A4200F21182C0F01583B4
:10221000B5F8C22CB5F89E1C9142C0F0FF8100F2C7
:102220000383B5F8CE2CB5F8AA1C9142C0F0ED811D
:1022300000F2F182B5F8DA2CB5F8B61C9142C0F084
:10224000DB8100F2DF82B5F8C42CB5F8A01C914206
:10225000C0F0C98100F2CD82B5F8D02CB5F8AC1C25
:102260009142C0F0B78100F2BB82B5F8DC2CB5F822
:10227000B81C9142C0F0A58100F2A982B5F8C62C25
:10228000B5F8A21C9142C0F0938100F29782B5F894
:10229000D22CB5F8AE1C9142C0F0818100F285824B
:1022A000B5F8DE2CB5F8BA1C9142C0F06F8100F28F
:1022B0007382B5F8C82CB5F8A41C9142C0F05D81BA
:1022C00000F26182B5F8D42CB5F8B01C9142C0F090
:1022D0004B8100F24F82B5F8E02CB5F8BC1C91425E
:1022E000C0F0398100F23D82B5F8CA2CB5F8A61CC1
:1022F0008A4240F2C481521A92B29A4294BF89181B
:10230000C918A5F8A61CB5F8D62CB5F8B21C8A4297
:1023100040F2AA81521A92B29A4294BF8918C918FF
:10232000A5F8B21CB5F8E22CB5F8BE1C8A4240F202
:102330009081521A92B29A4294BF8918C918A5F88E
:10234000BE1C3AE7734059017FF5EAAC730140F1D6
:10235000FC80264C0027A346A4F51B7AA4F634394A
:1023600084F8E5709BF8E3303B4113F0010F07F16F
:10237000010707D09AF9093323B19AF90A43002CCF
:1023800000F08C81062F0AF10C0A09F12C09E9D121
:102390005C46C6E4F02A00F09F80F72A40F0A8804F
:1023A0004FF48A70BBF84810124B00FB0850A3FB97
:1023B00001735B0803EB4303CB1A9BB2034483F81E
:1023C000E8209BF84630013189B2ABF84810009301
:1023D0009BF8453058469BF84420FDF7C3FE002388
:1023E0008BF847309BF80C31FFF7BFBBF01700109C
:1023F000E8180010ABAAAAAAA4F8603095F9EC3C42
:10240000002B3FF4DAAEE0E695F88C0D00283FF49F
:10241000D1AEA04F3B4607F1800102E08B423FF472
:10242000C9AE13F8012BFF2AF8D095F8883DFF2B91
:102430000DD003F07F00002395F88A2D1946104433
:102440000C30C0B21A460AF059F895F88C0D0228E3
:1024500000F04782032800F0338201287FF4AAAEFF
:10246000B5F9843DB5F9860D01335A4202F07F0279
:1024700003F07F0358BF5342EA1892F8042DC3F1CA
:102480007F01FF2A1BB2EFD08842EDD01E46A5F88F
:10249000843D2E4495F8890D96F8043D0C3003F0E8
:1024A0007F0318444FF4004200230121C0B20AF018
:1024B00025F8B5F9843D95F8891DEA1892F8042DA0
:1024C00085F88A1D85F8882DA5F8863D72E6883640
:1024D000002F99D1474655E504238BF84730012357
:1024E0008BF84420ABF848309BF80C31FFF73DBB2C
:1024F00000229BF80C318BF84720ABF84820FFF7FF
:1025000034BB7FF673AE8A1A92B29A4294BF891A8C
:10251000C91AA5F89C1C69E6002300939BF8453076
:1025200058469BF84420FDF71DFE9BF84730042BCE
:1025300018BFABF848A09BF80C31FFF716BB7340EF
:1025400058013FF506AFFFF7EBBB0123524C84F86F
:10255000E530FFF7E6BB521A92B29A4294BF89184F
:10256000C918A5F8BC1CBFE6521A92B29A4294BF91
:102570008918C918A5F8B01CADE6521A92B29A4251
:1025800094BF8918C918A5F8A41C9BE6521A92B2E8
:102590009A4294BF8918C918A5F8BA1C89E6521A3C
:1025A00092B29A4294BF8918C918A5F8AE1C77E672
:1025B000521A92B29A4294BF8918C918A5F8A21C5F
:1025C00065E6521A92B29A4294BF8918C918A5F8C2
:1025D000B81C53E6521A92B29A4294BF8918C9188D
:1025E000A5F8AC1C41E6521A92B29A4294BF8918DF
:1025F000C918A5F8A01C2FE6521A92B29A4294BFAD
:102600008918C918A5F8B61C1DE6521A92B29A424A
:1026100094BF8918C918A5F8AA1C0BE6521A92B2E1
:102620009A4294BF8918C918A5F89E1CF9E5521A58
:1026300092B29A4294BF8918C918A5F8B41CE7E56C
:10264000521A92B29A4294BF8918C918A5F8A81CC8
:10265000D5E5BFF4B2AD8A1A92B29A4294BF891AF4
:10266000C91AA5F8BE1CA8E5BFF45CAE8A1A92B2DE
:102670009A4294BF891AC91AA5F8B21C52E6BFF44F
:1026800042AE8A1A92B29A4294BF891AC91AA5F820
:10269000A61C38E6F4140010F0170010204607F0CE
:1026A000A7FB09F0D5FCB9F8B416B9F8A6C6090419
:1026B000B1FBFCF1B9F8A424B9F8AC35C9F89446DB
:1026C000A9F8B04689F8B746C9F88444A9F8A044E7
:1026D00089F8A744C9F88C45A9F8A84589F8AF45F9
:1026E0008AF80943B9F89644B9F89E051204B2FB7A
:1026F000F4F21B04B3FBF0F3A9F8AE1689B20CFB9D
:1027000001F1A9F89E24090C92B2A9F8B21604FBB3
:1027100002F19AB200FB02F2120CA9F8AA250422D7
:10272000A9F8A6350B0CA9F8A234D9F8903489F889
:10273000BB26C9F88034D9F8983589F8AB24C9F894
:102740008835D9F8A03689F8B325C9F8903619E646
:102750008A1A92B29A4294BF891AC91AA5F8A81C7B
:102760004DE58A1A92B29A4294BF891AC91AA5F8FD
:10277000BC1CB9E58A1A92B29A4294BF891AC91A46
:10278000A5F8B01CA7E58A1A92B29A4294BF891A9A
:10279000C91AA5F8A41C95E58A1A92B29A4294BF68
:1027A000891AC91AA5F8BA1C83E58A1A92B29A4204
:1027B00094BF891AC91AA5F8AE1C71E58A1A92B29B
:1027C0009A4294BF891AC91AA5F8A21C5FE58A1A11
:1027D00092B29A4294BF891AC91AA5F8B81C4DE55D
:1027E0008A1A92B29A4294BF891AC91AA5F8AC1CE7
:1027F0003BE58A1A92B29A4294BF891AC91AA5F87F
:10280000A01C29E58A1A92B29A4294BF891AC91A61
:10281000A5F8B61C17E58A1A92B29A4294BF891A93
:10282000C91AA5F8AA1C05E58A1A92B29A4294BF61
:10283000891AC91AA5F89E1CF3E48A1A92B29A4220
:1028400094BF891AC91AA5F8B41CE1E44A4C0BF0EC
:1028500079FE04F1DC0393E80300C5F87C03A5F8D6
:102860008013FFF75EBADFF814E14FF0FF0C7046FB
:102870000EF1FF330EF17F0113F9012F002AB8BFCB
:1028800083F800C08B42F7D10EF1800210F8013BB3
:10289000FF2B7FF40AAC9042F8D195F8883DFF2BCE
:1028A0003FF403AC03F07F00002395F88A2D19460E
:1028B00010440C301A46C0B209F020FEFFF7F5BBF9
:1028C000B5F9843D01335A4202F07F0203F07F03E1
:1028D00058BF5342EA1892F8042D1BB2FF2AF1D0D8
:1028E000D4E50026264B07F17F0013F8012F711C59
:1028F000FF2A18BFCEB29842F7D1012E2BD8002064
:10290000B5F9841D002930DB0E464FF0000C0EE0B7
:102910004FF0010C5B4203F07F0358BF5A42AB18E3
:1029200093F8043D11B2FF2B18BF5FFA8EF06F18B9
:1029300097F8047D4B1CFF2F03F07F0200F1FF3E50
:10294000E6D00028E4D1BCF1000F3FF4A2AD0E4662
:10295000A5F8841D9DE511F0F1FB013E90FBF6F317
:1029600003FB16000130C0B2CAE700231E46194619
:10297000A5F8843DC9E700BFF0170010F41400105B
:10298000F3140010FEF77CB9002300BF00BF00BFA6
:1029900000BF00BF00BF00BF00BF00BF00BF00BF3F
:1029A00000BF00BF00BF00BF00BF00BF00BF00BF2F
:1029B00000BF00BF00BF00BF00BF00BF00BF00BF1F
:1029C00000BF00BF00BF00BF00BF00BF00BF00BF0F
:1029D00000BF00BF00BF00BF00BF00BF00BF00BFFF
:1029E00000BF00BF00BF00BF00BF00BF00BF00BFEF
:1029F00000BF00BF00BF00BF00BF00BF00BF00BFDF
:102A000000BF00BF00BF00BF00BF00BF00BF00BFCE
:102A100000BF00BF00BF00BF00BF00BF00BF00BFBE
:102A200000BF00BF00BF00BF00BF00BF00BF00BFAE
:102A300000BF00BF00BF00BF00BF00BF00BF00BF9E
:102A400000BF00BF00BF00BF00BF00BF00BF00BF8E
:102A500000BF00BF00BF00BF00BF00BF00BF00BF7E
:102A600000BF00BF00BF00BF00BF00BF00BF00BF6E
:102A700000BF00BF00BF00BF00BF0133984284D138
:102A8000704700BF2DE9F041204F97F90030834295
:102A90003AD0024605460E4600201D490DF0A8F822
:102AA00088214FF080721B4B83F818131A6097F936
:102AB000003001333CD1012D00F06381022D00F084
:102AC00090810EF015FE302401211348134E144B53
:102AD0000660144A144859679967C2F80842C2F858
:102AE0001002D2F80032D906FBD510200F4B0D4949
:102AF000C2F80802C2F81032D1F80032DA06FBD56B
:102B00001023C1F808323D70BDE8F08100000010CC
:102B1000B408020000E100E0F0070010141F0200FA
:102B200000C0024000C008200005FE0000010100B6
:102B30003021504A504BC2F80812C2F81032D2F875
:102B40000032DC06FBD510204FF480734949C2F8EF
:102B50000802C2F81032D1F80032D806FBD5102294
:102B600041F28833C1F8082200BF00BF00BF00BF98
:102B700000BF00BF00BF00BF00BF00BF00BF00BF5D
:102B800000BF00BF00BF00BF00BF00BF00BF00BF4D
:102B900000BF00BF00BF00BF00BF00BF00BF00BF3D
:102BA00000BF00BF00BF00BF00BF00BF00BF00BF2D
:102BB00000BF00BF00BF00BF00BF00BF00BF00BF1D
:102BC00000BF00BF00BF00BF00BF00BF00BF00BF0D
:102BD00000BF00BF00BF00BF00BF00BF00BF00BFFD
:102BE00000BF00BF00BF00BF00BF00BF00BF00BFED
:102BF00000BF00BF00BF00BF00BF00BF00BF00BFDD
:102C000000BF00BF00BF00BF00BF00BF00BF00BFCC
:102C100000BF00BF00BF00BF00BF00BF00BF00BFBC
:102C200000BF00BF00BF00BF00BF00BF00BF00BFAC
:102C300000BF00BF00BF00BF00BF00BF00BF00BF9C
:102C400000BF00BF00BF00BF00BF00BF00BF00BF8C
:102C500000BF00BF00BF00BF013B85D14FF48061C2
:102C6000064A136843F0C0431360054A054B516799
:102C7000916709E000C008200005FE0000800920DF
:102C800000C0024040420F0000BF00BF00BF00BFB5
:102C900000BF00BF00BF00BF00BF00BF00BF00BF3C
:102CA00000BF00BF00BF00BF00BF00BF00BF00BF2C
:102CB00000BF00BF00BF00BF00BF00BF00BF00BF1C
:102CC00000BF00BF00BF00BF00BF00BF00BF00BF0C
:102CD00000BF00BF00BF00BF00BF00BF00BF00BFFC
:102CE00000BF00BF00BF00BF00BF00BF00BF00BFEC
:102CF00000BF00BF00BF00BF00BF00BF00BF00BFDC
:102D000000BF00BF00BF00BF00BF00BF00BF00BFCB
:102D100000BF00BF00BF00BF00BF00BF00BF00BFBB
:102D200000BF00BF00BF00BF00BF00BF00BF00BFAB
:102D300000BF00BF00BF00BF00BF00BF00BF00BF9B
:102D400000BF00BF00BF00BF00BF00BF00BF00BF8B
:102D500000BF00BF00BF00BF00BF00BF00BF00BF7B
:102D600000BF00BF00BF00BF00BF00BF00BF00BF6B
:102D700000BF00BF00BF00BF013B85D1012D7FF424
:102D80009DAE0EF0B5FC514B5149524A1960524963
:102D900059613021D2F8343243F00403C2F834329E
:102DA000D2F8043243F00403C2F804324B4B5D679F
:102DB0009D674B4BC2F80812C2F81032D2F80032AD
:102DC000DB06FBD51020474B4249C2F80802C2F887
:102DD0001032D1F80032DE06FBD51023C1F80832DC
:102DE00091E6EFF31288082383F311880EF080FC3C
:102DF0003023384AC2F808323B4BC2F81032D2F8BE
:102E00000032DC06FBD51023C2F80832374BC2F87B
:102E10001032304BD3F80022D006FBD5102201200F
:102E20003024C3F808223249284A1160D3F83412FA
:102E300041F40061C3F83412D3F8041241F00401E4
:102E4000C3F80412D3F8341241F01001C3F834125D
:102E5000D3F8041241F00401C3F804121F49486773
:102E600088672449C3F8084291672349516623497A
:102E70005162234991611A4AC3F81022154AD2F8C7
:102E80000032D906FBD51023C2F80832154BC2F820
:102E90001032104AD2F80032DB06FBD51023C2F8FC
:102EA000083276B1002400E00134FDF7E9FEA3B258
:102EB000002BF9D1B0470028F6D188F311883D7076
:102EC00022E6FDF7DDFEFDF7DBFEFAE7F007001076
:102ED000881F020000C008208510000000C00240CA
:102EE0000005FE00000101000005F30000012000C4
:102EF0002020020001120000641A0010FD3A0000B8
:102F0000D93B000070B5C02040250F2600213C4C65
:102F10003C4BE56100BF00BF00BF00BF00BF00BF6A
:102F2000DA68D207FCD59E60DA685207FCD59A6849
:102F3000DA68D207FCD59860DA685207FCD59A683F
:102F4000DA68D207FCD59960DA685207FCD59A682E
:102F5000D2B200BF00BF00BF00BF00BF00BF12F071
:102F6000010CA561D5D112F0040326D112F008009E
:102F700000D170BD184624490CF03AFEE56100BF4F
:102F800000BF00BF00BF00BF00BF1E49CB68DA070B
:102F9000FCD5FF231B4A8B60D3685B07FCD5936885
:102FA00000BF00BF00BF00BF00BF00BF4022144BE6
:102FB0009A61FFF7A7FF082070BD604613490CF027
:102FC00017FEE56100BF00BF00BF00BF00BF00BF2C
:102FD0000C49CB68D807FCD5FF230A4A8B60D3681D
:102FE0005907FCD5936800BF00BF00BF00BF00BFFA
:102FF00000BF4022024B9A61FFF784FF042070BD9E
:103000000080092000000340E8080200C408020014
:103010002DE9F04140254C4C1646E5610D461C4615
:1030200000BF00BF00BF00BF00BF00BF474AD3685A
:10303000DF07FCD513239360444AD3685907FCD5B6
:103040009368424AC10AC70ED368DB07FCD5976074
:103050003E4AD3685F07FCD593683C4AC00CD368EE
:10306000DB07FCD5C0B29060384AD3685F07FCD557
:103070009368364AD368D807FCD5C9B29160334A01
:10308000D3685907FCD5936800BF00BF00BF00BFDD
:1030900000BF00BF4FF040082B4FC7F81880FFF764
:1030A00031FFC7F81C8000BF00BF00BF00BF00BFDA
:1030B00000BF264AD068C307FCD50321234B91608B
:1030C000D8684707FCD5F0009B68204900F0F8005D
:1030D000CA68D607FCD51D4B8860DA685207FCD554
:1030E0009B681A49CA68D307FCD50022174B8A602F
:1030F000DA685707FCD59B681449CA68D607FCD51F
:103100000022124B8A60DA685007FCD50026691E3F
:1031100089B29B680D4A601E0C44D168C907FCD572
:103120009660D1684B07FCD5936800F8013FA04238
:10313000F3D100BF00BF00BF00BF00BF00BF4022EF
:10314000014B9A61BDE8F081008009200000034036
:103150002DE9F04F402607240021674D674B2A6870
:10316000674832432A60DA69AE6122F0070242F012
:103170000202DA611A6A634D22F0070242F002028B
:103180001A625A6A8FB022F0070242F002025A62B3
:10319000D0F8C42042F48062C0F8C4205A4A1460B7
:1031A0006E6851609A69594C22F00702B4EB560FD1
:1031B0009A617CD302224026534BD2B218684E4CFF
:1031C000C0B21860186840EA012119601A615A6893
:1031D00042F002025A60E66100BF00BF00BF00BFBC
:1031E00000BF00BFDA68D007FCD5FF21464A9960CE
:1031F000D3685907FCD5936800BF00BF00BF00BF6C
:1032000000BF00BF40263C4CA661FFF77BFEE66195
:1032100000BF00BF00BF00BF00BF00BF3A49CB687E
:10322000DB07FCD59F23384A8B60D3685F07FCD54A
:1032300093683549CB68DE07FCD50023324A8B60A2
:10324000D3685C07FCD593682F49CB68D807FCD5B9
:1032500000232D4A8B60D3685907FCD596682A4B0A
:10326000F6B2DC6814F00104FBD0002226499A6013
:10327000CB685A07FCD58F6800BF00BF00BF00BFF6
:1032800000BF00BF4FF04009DFF86C80FFB23B4643
:10329000324600201E49C8F818900CF0A9FC0B2EED
:1032A00001D1122F36D020460FB0BDE8F08FB4EB1D
:1032B000960F1DD202210A4601FB0223B6FBF3F34F
:1032C000A34201F101007FF676AFB0F5807F0DD10A
:1032D0000021023201FB0223B6FBF3F3A34201F10A
:1032E00001007FF668AFB0F5807FF1D00146E3E7DB
:1032F000022201215FE700BF0080092000C00240D8
:1033000000C00F40000000100000034080969800AD
:1033100010090200C8F81C9000BF00BF00BF00BF2A
:1033200000BF00BFAB49CB68DB07FCD51F23A94A10
:103330008B60D3685F07FCD59368A649CB68DE072E
:10334000FCD5A023A34A8B60D3685C07FCD59368A7
:10335000A049CB68D807FCD500239E4A8B60D36870
:103360005907FCD5936800BF00BF00BF00BF00BF76
:1033700000BF4FF4001440260020AA689649974BDE
:103380000827A3FB0253A1FB02129549D20B9B0C09
:10339000013A8E61C4F898009249C4F8942003EB76
:1033A0008302C3EBC300C2EBC202A1FB0252C3EB18
:1033B000C000A1FB0050C3EB0313A1FB0331930931
:1033C000800901338A091B04411C013243EA0123AD
:1033D0001343C4F8903002A8FDF744FF06AE4FF047
:1033E000A05E4FF47A634FF03E0C202231464FF03E
:1033F0008060C4F8E8EF0AADC4F88430C4F8807087
:10340000D4F88C30013201F8013B92B2D4F8E03F9D
:103410005B01FBD5402AC4F8E80F79D18B1B102B38
:1034200069D1029A069B9A4276D04FF000096E4904
:1034300048460CF0DDFB4FF400144FF0805A4D4627
:10344000DFF8A8810AAF4FF0FF0B04E02A4641469F
:103450000CF0CEFB354601226E04304611460DF1CC
:1034600007038DF807B08DF828B0FFF7D1FD0122D2
:1034700006F500603B461146FFF7CAFD9DF80700C0
:103480009DF828306E1C1840B6B2DFD004224FF0F1
:10349000A05309F03F01C4F8E83FC4F88410C4F811
:1034A00080200231C4F888504FEA9912D4F8E03FE6
:1034B0005D01FBD593014FF08062C4F8E82FC4F89A
:1034C000E8AFC4F884300623C4F88030D4F8E03F75
:1034D000D800FBD53F2988BF002309F102091FFA54
:1034E00089F9C4F8E8AF88BFC4F88430B9F57A6FB9
:1034F00024D03546A7E700220CF101031FFA83FC14
:103500004FEA8C1303F47C63C4F88430C4F88070F1
:10351000A9427FF475AF84E7039A079B9A4284D14E
:10352000049A089B9A4280D1059A099B9A427FF49B
:103530007CAF002420460FB0BDE8F08F3846FDF781
:1035400091FE4FF4001320224FF0A0513E203C4644
:103550004FF003084FF0806E4FF080554FF0060C8F
:103560000026C3F8E81FC3F88420C3F8808014F84D
:10357000011B013292B2C3F88810D3F8E01F490151
:10358000FBD5E11B1029C3F8E8EF09D03F2A07D883
:103590000EA98C42E9D1002015490CF029FBC8E79F
:1035A0008101C3F8E85FC3F88410C3F880C0D3F882
:1035B000E01FC900FBD53F2AC3F8E85FE8D9013016
:1035C00080B23F280ABF002000220246C3F8846070
:1035D000DEE700BF00000340819F5E1683DE1B43D1
:1035E00000800920D34D62102C0902004809020016
:1035F000600902006D4AD2F8E03FD2F8E41F0B40A8
:1036000000F0D3802DE9F04700252F46684E694829
:1036100096F828C3D6F82C439907C2F8E83F2ED075
:10362000D2F8181101F180610431C90009684FEA2C
:10363000D1484FEA515909F008094FEAD15E08F024
:10364000100848EA09080EF0040E4EEA080EC1F30D
:10365000C0694FEA915849EA0E0E08F0400848EA5E
:103660000E084FEA116E0EF0200E090A4EEA080EFF
:1036700001F4805151EA0E0108BF23F0020313F058
:10368000300F18BFD2F828111B0724D5D2F8181113
:10369000D2F81431D2F810E199421CD0D2F81811A6
:1036A000D2F8183103F180630433DB001B6810EAA1
:1036B000030E10D101F180630433DB001B68D2F8E4
:1036C0001851C3F30A03991E04EB0108B8F5C06F43
:1036D00011D374460125D2F8E03FD2F8E41F0B4025
:1036E0009AD10DB1C6F82C430FB9BDE8F08786F822
:1036F00028C3BDE8F08700291DDD05F18065E900DC
:10370000D1F800E0DD1E0CEB4C012B4B04EB41210A
:103710000D2D03EB410303D90EF102018B422CD195
:1037200025F0010402341C44AEEB03015D5A23F87A
:10373000025BA342FAD11D4BD3F8183103F1806329
:103740000433DB001B685D000BD444460125174998
:10375000D1F81831032B2B4408BF0023C1F81831CE
:10376000B9E700240CF1010C5FFA8CFCBCF1010FED
:103770004FF0010788BFA446E8E771466D080135A0
:103780004FEA55090EEB8909A3EB0E0A0C684AF8BB
:10379000014004318945F9D1EC0725F00101CAD572
:1037A0003EF8114023F81140C5E77047004008205B
:1037B000E81800100000901B382C001040F6FE7333
:1037C0004FF4001210B409214FF0A0544000034000
:1037D000C2F8E84FC2F88430C2F88010D2F88C00EA
:1037E000D2F8E03F5B01FBD54FF0806380B210BCA4
:1037F000C2F8E83F704700BFF8B5457815B103251A
:103800002846F8BD044600F13007C1F34E100E0300
:10381000FFF7D4FFC6F3100646EA40463946304665
:103820000BF0E6FE04F5036106F500600BF0E0FE28
:103830004AF65523B4F82E229A420FD1D4F86630B6
:10384000084A23F07F439342DAD0D4F8825025F01F
:103850007F45AD1A18BF01252846F8BD0225284628
:10386000F8BD00BF464154002DE9F843984F994DEB
:1038700097F89330D5E9CC462F2B31D8DFE813F0F9
:10388000A600300030008B006A00300030003000AD
:1038900030003000300030003000300030003000A8
:1038A0003000300051003000300030003000300077
:1038B0003000300030003000300030003000300088
:1038C00030003000300030003000020130003000A5
:1038D000AB003000F00030003000300030006A00F3
:1038E0004FF4A423C7F8E8320023C5F83033FDF7BE
:1038F00083FB01210322D7F88C3085F8481387F821
:10390000E422D5F83813D7F888205B1AC5F840238D
:10391000714A23EAE373C5F83C23C5F84433BDE894
:10392000F883A446DFF8B4E10EF1200874460CF1E8
:10393000100C0FCC44450EF1100E4CF8100C4CF846
:103940000C1C4CF8082C4CF8043CEFD1DEF80000BD
:10395000CCF80000D5F83803614BB042C5F83033DD
:1039600045D8B042DBD1D7F88C40B44201D0FDF746
:1039700043FB594BA41BC5F83C33D7F8883024EAE5
:10398000E4740022C5E9D034032385F8482387F87E
:10399000E432BDE8F8830023DFF848C1D7F8E8E255
:1039A000C7F8E832BCE80F00E360BCF800304FEA2B
:1039B0001E494FEA1E2820606160A26084F80290D0
:1039C00084F80C8084F80DE02382C3E7D7F8E8324E
:1039D000002BBFD088E7C6F30B04002C58D0404B17
:1039E000D5F838032344B042C5F83033B9D9841B25
:1039F000402C28BF402416213B4AC2F82812C2F8A6
:103A00002442D2F82812890707D553F8041BC2F8BC
:103A10001C12D2F828128907F7D430230021324A29
:103A2000C2F82812C2F80832304BC2F81032D2F86D
:103A30000032D906FBD51023C2F808323023C2F871
:103A400008322B4BC2F81032274AD2F80032DB067C
:103A5000FBD510232644C5F83463C2F8083280E74A
:103A600006F14003C3F30B04D7F89530002CB6D110
:103A70001BBA1B4803EB16310CF006F810BBD5F847
:103A80003463ACE71B4B23604FF48013636061E742
:103A9000D7F8950000BA00EB16300603C0F34E10BD
:103AA000FFF78CFEC6F3100646EA404630460C4946
:103AB0000BF09EFD06F500600F490BF099FDD5F85F
:103AC00034638CE74FF44333C7F8E8320CE700BFA8
:103AD000F0070010E818001055534253302302003D
:103AE000381C00101C23020000C0082000050B0039
:103AF0000005FA000000F9FF382400108B0708D4F5
:103B00002E4890F8E432032B1FD0042B03D0022B55
:103B100000D07047A8E63021294A2A4BC2F8081283
:103B2000C2F81032D2F80032D906FBD51020264B4D
:103B30002349C2F80802C2F81032D1F80032DB067D
:103B4000FBD51023C1F8083270470D2216211C4BFB
:103B500030B4C3F82812C3F82422D3F828229407DB
:103B600008D51A4A52F8041BC3F81C12D3F82812BD
:103B70008907F7D400243021114A154BC2F8284296
:103B8000C2F80812C2F81032D2F80032DD06FBD5B6
:103B9000102530240F4B0A49C2F80852C2F80842D7
:103BA000C2F81032D1F80032DC06FBD51022002317
:103BB000C1F8082280F8E43230BC7047F0070010EA
:103BC00000C0082000054B0000010100241C00106B
:103BD00000050B000005FA008A0714D42DE9F84F00
:103BE0009E4C94F8E432042B0BD8DFE803F02866EF
:103BF00003030D0000221146FCF7CAFF002384F8DE
:103C0000E432BDE8F88F70473021954A954BC2F8F1
:103C10000812C2F81032D2F80032D906FBD51020B3
:103C2000914B8F49C2F80802C2F81032D1F8003225
:103C3000DB06FBD51023C1F80832BDE8F88F20223F
:103C40008A49FCF7A5FF1F2856D1894BD4F8842058
:103C50009A4251D194F89130002B4DD194F8922092
:103C6000511E0F2948D8834D94F89310C5E9CD33E0
:103C7000814B94F9900003EB511393F8643993420C
:103C800075D82F296FD8DFE801F08B6E6E948B6E9C
:103C90006E6E6E6E6E6E6E6E6E6E6E6EB06E6E6E02
:103CA0006E6E6E6E6E6E6E6E6E6E6E6E6E6E6EA200
:103CB0006E6EDC6EC56E6E6E6EBD6E4DD5E9CD67F7
:103CC000BE42C0F0E380B7429BD1D4F88C60BE42C4
:103CD00001D0FDF791F9694BF61BC5F83C33D4F8D8
:103CE000883026EAE6760022C5E9D036032385F837
:103CF000482384F8E43284E73021594A604BC2F803
:103D00000812C2F81032D2F80032DF06FBD51020BC
:103D1000554B5349C2F80802C2F81032D1F80032AC
:103D2000DE06FBD5102530204E4B4D4AC1F8085217
:103D3000C1F80802C1F81032D2F80032DD06FBD516
:103D40001020494B4649C2F80802C2F81032D1F897
:103D50000032D806FBD510220423C1F8082284F8CB
:103D6000E432BDE8F88F4FF4A423C4F8E83200230E
:103D7000C5F83033FDF740F901210322D4F88C3027
:103D800023EAE373C5F844333C4B85F84813C5F880
:103D90003C33D4F8883084F8E422C5F8403330E767
:103DA000384BC5F83033022384F8E432BDE8F84FCD
:103DB0005AE5344A94F89730C5F83023002BF2D0F6
:103DC0000028C0F22B81FDF717F90221D5E72D4B12
:103DD0000028C5F83033F6DA0823D4F88C609E4208
:103DE000C0F00081C5F83833DDE7264A94F89730F3
:103DF000C5F83023002BD6D00028E4DA242B28BFC6
:103E00002423EAE794F894309B07C9D51E4BC4F8E5
:103E1000E832ACE7B4F89A301A4A5BBA9BB2C5F8FC
:103E200030231A03002BBED00028D4F88C60CADBE4
:103E3000B24200F2D7800123C5F8382384F8E43277
:103E4000DFE6B4F89A200F4B52BA92B2C5F830337D
:103E50001303002AA7D00028B5DABEE7F007001048
:103E600000C0082000054400000101007408001093
:103E700055534243E8180010F019020055534253BD
:103E800000054B00381C001000240500D5F83083D5
:103E900002204146BA1BFCF77BFE94F89330814622
:103EA0002F2B19D8DFE803F0711818514018181893
:103EB0001818181818181818181827181818181873
:103EC00018181818181818181818181818951818F5
:103ED00076184518181818404FF4A423C4F8E8328F
:103EE0000023C5F83033FDF787F8D4F88C30012172
:103EF0000322DB1B44E7DFF840E10EF1200AF44621
:103F000008F11008BCE80F00D4450EF1100E48F877
:103F1000100C48F80C1C48F8082C48F8043CEED16A
:103F2000DEF80000C8F80000444B4E44C5E9CC362A
:103F3000C9E606F14003C3F30B08D4F89530B8F195
:103F4000000F61D03D4B4344EFE70023DFF8F0C0A2
:103F5000D4F8E8E2C4F8E832BCE80F00C8F80C3046
:103F6000BCF800304FEA1E4B4FEA1E2AC8F800008A
:103F7000C8F80410C8F8082088F802B088F80CA027
:103F800088F80DE0A8F81030CEE7D4F8E832002B1E
:103F9000CAD0A5E7C6F30B08B8F1000FD2D1D4F808
:103FA00095301BBA03EB1633C3F34E101E03FFF715
:103FB00005FCC6F3100646EA404630461F490BF0A2
:103FC00017FB06F500601F490BF012FBD5E9CD6722
:103FD000B8E74FF48013C8F80430A3F5B813C8F855
:103FE0000030A1E7FDF708F8022203231649C5F8BF
:103FF0004463C5F83C13D4F8881085F84823C5F805
:10400000401384F8E432FCE51BBA0C4803EB16318C
:104010000BF03AFD30B9D5E9CD6793E7122B28BFF5
:104020001223DAE64FF44333D5F83873C5F83083FA
:10403000C4F8E83257E700BF30230200381C0010F4
:104040001C2302003824001055534253F0B5C3B06E
:1040500002AD4FF480720021284610F063FD002469
:104060000126A0B2FFF7AAFBC0F3CC03EA5C00F084
:104070000700013406FA00F01043B4F5FA6FE85473
:10408000EFD10026FF27344605E00134B4F5006F78
:1040900006F5003623D0C4F3CC03EB5C04F0070232
:1040A0001341DB07F1D40122304611460DF106031E
:1040B0008DF806708DF80770FEF7AAFF01220DF14A
:1040C0000703114606F50060FEF7A2FF9DF80620E3
:1040D0009DF807301A42D8D0204643B0F0BD0020EA
:1040E00003490BF085FD012002490CF0F3FFFEE7C8
:1040F000900B0200AC0B02002DE9F041C66A8E4223
:1041000004D0037904460D461BB93DB90020BDE833
:10411000F0814378DBB10120BDE8F0816378002BAA
:10412000F9D1C5F34E10FFF749FB2E03C6F3100675
:1041300046EA4046304604F130010BF059FA04F5E6
:10414000036106F500600BF053FAE562DEE700F16B
:104150003008314640460BF097FC0028DBD1D4E90B
:1041600007321A44B2422071CFD9E778012FCCD957
:104170001E44637863B9013F31464046FFB20BF0FD
:1041800083FC012FC1D0E3691E446378002BF2D079
:10419000002DBBD0BFE700BF2DE9F84307780446E8
:1041A000022F0D46164608D0032F4ED0012F1CD0EB
:1041B000022001232371BDE8F88343895B08B1FB2A
:1041C000F3F3016A1944FFF797FF0028F1D16389DF
:1041D0006D00B5FBF3F103FB1155C6F3072225442F
:1041E00085F8306085F8312051E0438901EB5108B2
:1041F000B8FBF3F3016A1944FFF77EFF0028D8D11A
:10420000618908F10109B8FBF1F301FB1388B9FBDF
:10421000F1F1236AA0441944EB073DD598F83030FA
:10422000204603F00F0343EA061388F83030277165
:10423000FFF762FF0028BCD16289C6F30713B9FB00
:10424000F2F102FB1199A1443BE043899B08B1FBC9
:10425000F3F3016A1944FFF74FFF0028A9D16389DE
:10426000AD00B5FBF3F203FB125505F13002224419
:10427000D37825441B0603F070433343C3F307216F
:1042800085F830305170190C1B0E9170D3700123DA
:1042900023710020BDE8F88388F83060204627713C
:1042A000FFF72AFF002884D16389C6F30326B9FBF0
:1042B000F3F203FB1299A14499F8303023F00F0375
:1042C000334389F83030E2E7F8B5C56A04460DB1EA
:1042D00003793BB92378032B2BD06078003818BFC3
:1042E0000120F8BD43780BB10120F8BD00F1300783
:1042F000294638460BF0C8FB0028F5D1E369226A4D
:1043000020711A449542E5D2E678012EE2D91D4487
:104310006378002BDED1013E29463846F6B20BF019
:10432000B3FB012ED6D0E3691D446378002BD1D1B5
:10433000F1E76379002BD0D0002104F130034FF472
:1043400000721846E16210F0EDFB4AF655220C4966
:1043500003460C48C4F814122063D4E90301C4F8DE
:104360001C026078C4F81812A4F82E2210B10023A1
:104370006371B3E7184661690BF086FB6078F6E776
:104380007272416152526141012940F29280836907
:104390002DE9F0478B420D4604463DD94FF0010808
:1043A0002378022B3BD0032B04D0012B51D00120CA
:1043B000BDE8F0876389216A9B08B5FBF3F32046CB
:1043C0001944FFF799FE0028F1D16189AB00B3FBD6
:1043D000F1F201FB123303F1300222449678D078D7
:1043E000234493F83030360446EA00661E4353787F
:1043F00046EA032636F0704659D0012E0CD0A36948
:10440000AB4209D92778022F00F09480032F5FD0A8
:10441000012F50D0012323710220BDE8F08763896A
:10442000216A5B08B5FBF3F320461944FFF764FEED
:104430000028BCD161896B00B3FBF1F201FB1233A0
:10444000234493F8312093F8306056EA0226D4D101
:104450002DE0638905EB5506B6FBF3F3216A204690
:104460001944FFF749FE0028A1D16189771CB6FBEA
:10447000F1F301FB1366B7FBF1F1236A26442046F2
:10448000194496F83060FFF737FE00288FD1618914
:10449000B7FBF1F301FB1377274497F83030EF07B0
:1044A00046EA03267FD4C6F30B06002EA5D10020D2
:1044B000B3E70220704705EB5509B9FBF1F1236A18
:1044C00020461944FFF718FE002849D02771A4E7B9
:1044D0008908B5FBF1F1236A20461944FFF70CFE69
:1044E00020BB6389AD00B5FBF3F203FB125505F168
:1044F00030032344DA78254402F0F00285F83000D6
:10450000A3F80100DA70236984F804805A1C08D0EB
:10451000A2690133B242236184F80580C7D93546C8
:104520003EE7A369B342C2D9354639E70123237177
:10453000BDE8F0874908B5FBF1F1236A204619442C
:10454000FFF7DAFD0028F1D163896D00B5FBF3F2C6
:1045500003FB1255254485F8300085F83100D2E779
:10456000618909F1010AB9FBF1F301FB1399BAFB67
:10457000F1F1236AED071944A14418D489F83000F9
:1045800020462771FFF7B8FD0028CFD16389BAFB19
:10459000F3F203FB12AAA2449AF8300000F0F000F4
:1045A0008AF83000AFE736097FF427AF7FE799F844
:1045B0003030204603F00F0389F830302771FFF7C1
:1045C0009BFD0028B2D16389BAFBF3F203FB12AA68
:1045D000A244E5E7F8B503780446022B0D4606D061
:1045E000032B49D0012B1AD04FF0FF30F8BD43897F
:1045F000016A5B08B5FBF3F31944FFF77DFD002862
:10460000F2D163896D00B5FBF3F203FB125525442B
:1046100095F8313095F8300040EA0320F8BD438921
:1046200001EB5106B6FBF3F3016A1944FFF764FD91
:104630000028D9D16389771CB6FBF3F2B7FBF3F0FE
:1046400003FB1266216A26440144204696F8306036
:10465000FFF752FD0028C7D16389B7FBF3F203FBD4
:104660001277274497F8303046EA0320EB074CBF17
:104670000009C0F30B00F8BD4389016A9B08B5FB34
:10468000F3F31944FFF738FD0028ADD16389AD007D
:10469000B5FBF3F203FB125505F130032344987880
:1046A000D9782C4494F8302000045B7840EA01600B
:1046B000104340EA032020F07040F8BD2DE9F04F90
:1046C00004464FF0FF0A83B0006821694FF6FF7976
:1046D0005546FFF711FD002830D162691178002995
:1046E00049D0E529D37A06D013F0080003F03F063D
:1046F00045D00F2E7BD0FF25E38801339EB2002EDC
:1047000039D02169002936D0206843895B09B6FB7E
:10471000F3F203FB12639BB233B9E7680131216105
:104720007FB90289B24226D900F1300202EB43136D
:10473000E6806361FFF7E0FC0028CED003B0BDE85F
:10474000F08F90F802C00CF1FF3C1CEA020FEBD195
:10475000012F5FD083699F425CD23946FFF73AFF51
:104760000128034656D9421C00F00E812068826958
:104770009342C0F0F680042003B0BDE8F08F0F2E06
:1047800035D0002D00F0A480A369A4F82090D97A38
:10479000C907B0D41D7811788D42ACD15D785178BD
:1047A0008D42A8D19D7891788D42A4D1DD78D178C1
:1047B0008D42A0D1157919798D429CD155795979BD
:1047C0008D4298D1957999798D4294D1D579D979BD
:1047D0008D4290D1157A197A8D428CD1557A597AB9
:1047E0008D4288D1927A9B7A9A42A7D083E7D4F8F7
:1047F0001CC0E388BCF1000F3FF47FAF4E060BD521
:1048000092F80DA0238401F0BF05517B514508D0DB
:10481000FF2572E7022091E7A942F9D1517B51456A
:10482000F6D111784FF0010B21F0400808F1FF3864
:1048300008EB4800DFF854E108EB8008019506E03A
:104840004FF6FF708542E3D15148864533D01EF8BC
:10485000010B15186E78155C45EA0625BBF1000FB3
:10486000EED04C4F6120BB46002603E03BF8020F20
:10487000013630B18542F9D1474800EB4606B6F81B
:104880005C5BB8F1270FC3D83CF818B06120002654
:1048900008F1010803E037F8020F013630B158453E
:1048A000F9D13D4800EB4606B6F85CBB5D45AFD19B
:1048B00037488645CBD14806019D06D5BBF1000F90
:1048C00003D03CF81820002AA2D1013DEDB214E734
:1048D0005578CB0143EA51032B44C3F3460141EA27
:1048E000C3119378C9B21944C1F3460343EAC11313
:1048F000D178DBB20B44C3F3460141EAC31113790B
:10490000C9B21944C1F3460343EAC1135179DBB27A
:104910000B44C3F3460141EAC3119379C9B2194468
:10492000C1F3460343EAC113D179DBB20B44C3F3AD
:10493000460141EAC311137AC9B21944C1F34603CF
:1049400043EAC113517ADBB20B44957AC3F34601B3
:1049500041EAC3132B4403F0FF0353457FF414AF24
:10496000ECE6023AE360023B93423BBF8278816A05
:10497000002103FB0211428921615209B6FBF2F3C7
:1049800002FB13639BB2CFE60120D7E65C23020053
:10499000692302006C230200F01902002DE9F8439C
:1049A00005460E46F1B9C7688369002F00F0B8804C
:1049B0009F4228BF01273C4601349C4221D3012F4E
:1049C00000F0AC80022B1ED902242B78022B00F0C1
:1049D0008A80032B5ED0012B19D04FF0FF34204684
:1049E000BDE8F88301290ED0836999420BD2FFF705
:1049F000F1FD0128044606D9AB69834204D8374645
:104A0000D9E7012CE1D101242046BDE8F8836B8968
:104A100004EB5408B8FBF3F3296A28461944FFF75E
:104A20006BFB0028D9D1698908F10109B8FBF1F3C2
:104A300001FB1388B9FBF1F12B6AA84428461944FD
:104A400098F83080FFF758FB0028C6D16B89E10742
:104A5000B9FBF3F203FB1299A94499F8303048EA04
:104A600003235FD51B0938D1AB69A342CBD96FF0C3
:104A7000704221462846FFF78FFB002865D1002EA3
:104A800055D12B69EC605A1CBED00122013B2B6131
:104A90006A71B9E76B89296A9B08B4FBF3F328466E
:104AA0001944FFF729FB002897D16A89A300B3FBBB
:104AB000F2F102FB113303F130022A442B4493F844
:104AC00030109378D0781B04527843EA00630B438C
:104AD00043EA022333F07043C6D0012B93D0A742A0
:104AE0001CD0AB6968E76B89296A5B08B4FBF3F3F8
:104AF00028461944FFF700FB00287FF46EAF6A894F
:104B00006300B3FBF2F102FB11332B4493F8312025
:104B100093F8303053EA0223DFD1A5E7002473E78E
:104B2000012748E7C3F30B03002BD6D19CE7012EE6
:104B30003FF469AFAB699E42BFF465AF2246314690
:104B40002846FFF729FB00289BD001283FF445AFFA
:104B500059E700BF2DE9F04784680646012CC18063
:104B600026D00568AB69A34222D988461CB36A895E
:104B7000AF78520902FB07F7BFB28F4268D89C4258
:104B800016D22B78022B00F09F80032B78D0012BBC
:104B900021D00120BDE8F0876C6A7CB16A89AF78CA
:104BA000520902FB07F7BFB2B94251D3012CE6D13B
:104BB0000220BDE8F0872A78032AEDD000222B8955
:104BC000F2604345F4D96A89686A5209B8FBF2F386
:104BD00099B201444AE06B8904EB5409B9FBF3F341
:104BE000296A28461944FFF787FA0028D1D1698934
:104BF00009F1010AB9FBF1F301FB1399BAFBF1F1D9
:104C00002B6AA9442846194499F83090FFF774FAA2
:104C10000028BED16B89BAFBF3F203FB12AAAA44A7
:104C20009AF8303049EA0329E3074CBF4FEA1914D8
:104C3000C9F30B04012CBBD93568AB69A342B7D9C2
:104C4000A8EB07011FFA81F8474598D96A895209EC
:104C5000023BF460023C9C423BBFAB78A86A002058
:104C600004FB0300B8FBF2F399B2014402FB138387
:104C700030359BB205EB431500203161756198E733
:104C80006B89296A9B08B4FBF3F328461944FFF7A4
:104C900033FA00287FF47DAF6B89A400B4FBF3F2F4
:104CA00003FB124404F130032B442C4494F83020CD
:104CB0009C78D97824045B7844EA0164144344EA7C
:104CC000032424F07044B5E76B89296A5B08B4FBC0
:104CD000F3F328461944FFF70FFA00287FF459AF81
:104CE0006B896400B4FBF3F203FB12442C4494F888
:104CF000313094F8304044EA03249BE72DE9F04F2B
:104D0000C48883B00134A4B2002C4AD0026905469D
:104D1000002A46D0066873895B09B4FBF3F003FBF5
:104D200010439BB243B10020303606EB4316EC80B3
:104D30006E6103B0BDE8F08F0F46E96801322A6169
:104D400061B3B278013A0242EDD101292DD0B369A5
:104D500099422AD23046FFF73DFC0128804624D9EB
:104D6000B0F1FF3F00F08A802E68B36983421ED9FC
:104D7000A0F1020A023B534598BF0023C5F80C80FE
:104D800082BFB278B36A0AFB023372892B6152097F
:104D9000B4FBF2F302FB13439BB2C4E73289A24295
:104DA000C1D8042003B0BDE8F08F0220C1E7002F76
:104DB000F7D03046E968FFF7F1FD804600285FD064
:104DC0000128F2D0B0F1FF3F58D02E68F76A17B132
:104DD0003379002B58D1728906F1300012B10021CD
:104DE0000FF0A0FE2E68A8F1020AB369B278023B68
:104DF0009A4547D2B76A0AFB0277F762002A6BD05E
:104E00004FF000094FF0010B86F804B04FB37278F1
:104E1000002A33D106F130033946184601930AF0CF
:104E200033FE58BBD6E907120A44BA42307115D98D
:104E3000F278012A12D90F447178009271B939467B
:104E400001980AF021FE009A013AD2B2012A05D057
:104E5000F16900920F4471780029F0D02E68F76A4A
:104E6000B27809F101095FFA89F901379145F762D2
:104E7000CAD3A7EB0907B369F7627BE7012058E7BC
:104E8000072056E70027B8E77378002BF6D106F124
:104E9000300A394650460AF0F7FD0028EED1D6E92F
:104EA000072313449F42307106D296F80390B9F15C
:104EB000010F01D973780BB12E688CE7F36909F102
:104EC000FF391F44504639465FFA89F90AF0DCFD84
:104ED000B9F1010FEED1EFE79146CAE701692DE97B
:104EE000F8430546002900F0C480FF273E460068CD
:104EF000FFF702F98046002840F0BD806A69137808
:104F0000002B00F0B680E52BD17A07D02E2B05D0F0
:104F10000C0701F03F002ED50F282FD0EC88FF267C
:104F20000134A4B2002C00F0A4802969002900F00B
:104F3000A080286843895B09B4FBF3F203FB1243AA
:104F40009BB2002B40F09C80D5F80CC00131296148
:104F5000BCF1000F40F09F800289A24240F289809C
:104F600000F1300202EB4313EC806B610029BFD1EA
:104F70004046BDE8F8830F2840F05381580640F1C1
:104F80008680E988577B03F0BF032984517BB942AF
:104F9000C4D11178EE6901F03F01013901EB410004
:104FA00001EB80012729B2F80140B7D826F811405B
:104FB000B2F803C0481C002C40F0A0804FF6FF71EF
:104FC0008C45ABD1B2F805E04FF6FF718E45A5D107
:104FD000B2F807C04FF6FF718C459FD1B2F809E0D7
:104FE0004FF6FF718E4599D1B2F80EC04FF6FF71A2
:104FF0008C4593D1B2F810904FF6FF7189458DD151
:10500000B2F812E04FF6FF718E4587D1B2F814C0A6
:105010004FF6FF718C4581D1B2F816E04FF6FF7163
:105020008E457FF47BAFB2F818904FF6FF7189453B
:105030007FF474AFB2F81CC04FF6FF718C457FF45B
:105040006DAFB2F81EE04FF6FF718E457FF466AF8C
:105050001278510605D528283FF460AF002226F8C3
:105060001020EC88013B0134A4B2DEB2002C7FF4A6
:105070005CAF4FF0040800232B614046BDE8F88385
:1050800000F1300202EB4313EC806B6130E79E428B
:105090007FF444AF7AE790F802E00EF1FF3E1EEA9B
:1050A000020F7FF45DAFBCF1010F22D083699C45F4
:1050B0001FD26146FFF78EFA0128034619D9421C18
:1050C00000F0B480286882699342D2D2023AEB6041
:1050D000023B93423BBF8278816A002103FB0211AD
:1050E000438929615B09B4FBF3F203FB12439BB2D2
:1050F00036E700234FF002082B61BEE728283FF473
:105100000DAF26F810C04400B2F805E0881CBCF1D1
:10511000000F3FF459AF28283FF400AF3444A4F8FF
:1051200002E0B2F807C0C81CBEF1000F3FF452AF56
:1051300028283FF4F3AEA4F804C0B2F809E0081D33
:10514000BCF1000F3FF44CAF28283FF4E7AEA4F8C1
:1051500006E0B2F80EC0481DBEF1000F3FF446AFA6
:1051600028283FF4DBAEA4F808C0B2F81090881DE0
:10517000BCF1000F3FF440AF28283FF4CFAEA4F8B5
:105180000A90B2F812E0C81DB9F1000F3FF43AAF2F
:1051900028283FF4C3AEA4F80CE0B2F814C001F123
:1051A0000800BEF1000F3FF433AF28283FF4B6AE3D
:1051B000A4F80EC0B2F816E001F10900BCF1000F2E
:1051C0003FF42CAF28283FF4A9AEA4F810E0B2F8C1
:1051D000189001F10A00BEF1000F3FF426AF282815
:1051E0003FF49CAEA4F81290B2F81CC001F10B0081
:1051F000B9F1000F3FF420AF28283FF48FAEA4F898
:1052000014C0B2F81EE001F10C00BCF1000F3FF435
:105210001AAF28283FF482AEA4F816E001F10D0081
:1052200016E736B14FF6FF732B84A1E64FF0010865
:1052300021E75178D80140EA53030B44C3F34601F8
:1052400041EAC3119378C9B21944C1F3460343EA52
:10525000C113D178DBB20B44C3F3460141EAC31159
:105260001379C9B21944C1F3460343EAC113517912
:10527000DBB20B44C3F3460141EAC3119379C9B2CF
:105280001944C1F3460343EAC113D179DBB20B449D
:10529000C3F3460141EAC311137AC9B21944C1F3F9
:1052A000460343EAC113517ADBB20B44917AC3F34C
:1052B000460242EAC3130B4403F0FF03BB42B1D1E1
:1052C00056E600BF2DE9F04FD0E9064B89B0A26841
:1052D00082466168206805AB07C39DF81F30DA0776
:1052E000019340F1C5800023012581468846621E56
:1052F000BDF81C709DF81E60E3720092CAF81C3065
:10530000052DC4F80090C4F804802781A67240F2ED
:10531000318159462846BBF80020C30343EA5003B5
:10532000134431F8022F98B2002AF6D1034600F058
:105330000F0202F1300EBEF1390F88BF02F1370EB5
:105340000F2B8DF813E0C0F30F1040F2198100F01D
:105350000F0101F13002392A88BF01F137020F280D
:105360008DF81220C3F30F2140F2128101F00F00DB
:1053700000F13002392A88BF00F137020F298DF879
:105380001120C3F30F3340F20981DBB203F1300285
:10539000D2B2392A84BF3733DAB27E234FF0030CFE
:1053A0008DF810208DF80F300022009902E0624540
:1053B00000F0EC8011F8010F1346202802F10102E1
:1053C000F5D10CF120026A4412F8141C062BE154AA
:1053D00012F8131C04EB030251700CF1020203F1EA
:1053E000020112D0082A23D12022052B625403F196
:1053F00003000AD0431C082BC0F108024FF0200123
:1054000088BF012220440FF08DFB00215046FFF79A
:10541000A1FB30BB5046FFF751F910BB0135ADB2CF
:10542000642D7FF46DAF0721084609B0BDE8F08F09
:1054300020326A4412F8142C052B62540CF103023A
:1054400003F10301E1D0082A70D12022042B625419
:1054500003F10400CED100215046FFF77BFB00286A
:10546000D8D004280146DFD1019BE372CAF81CB0F2
:10547000019B9B0700F19880012400215046FFF713
:1054800069FB01460028CFD10646054608E0B3B1C6
:10549000054601215046FFF731FC002840F0988076
:1054A000DAF81010DAF80000FEF726FE6A1C002871
:1054B00040F08E80DAF814301B78E52BE7D10DB977
:1054C000BAF8066095B2AC42E3D1012C40F0858079
:1054D000DAF81010DAF80000FEF70EFE0146002898
:1054E000A2D1DAF814302022009018460FF01AFBEF
:1054F0000346DAF818200099501C181A022840F2C6
:1055000096811068186050685860107A1872507A46
:1055100058720120927A9A72DAF81820D27A02F040
:1055200018021A73DAF8003018717DE720326A44E5
:1055300012F8142C042B625403F104023FF465AFFB
:10554000BCF1030F07D02021032BA15403F1050068
:105550007FF450AF59E7032B04F802E003F1050292
:105560003FF453AF2021022BA15403F106007FF436
:1055700041AF4AE705F1300E5FFA8EFE8DF813E079
:105580007E234FF0060C8DF812300DE7634618E7C6
:105590007E234FF0050C8DF8113005E77E234FF088
:1055A000040C8DF81030FFE6BBF80030002B3FF400
:1055B00063AF002301339BB23BF81320002AF9D1DB
:1055C000A34A03F11904A2FB0424C4F38F0454E793
:1055D0000146084609B0BDE8F08F31465046FFF756
:1055E000B9FA014600287FF41FAFDAF81830013C01
:1055F00019781FFA84F8CA0142EA510259780F2635
:105600000A44C2F3460141EAC2119A78C9B2114470
:10561000C1F3460242EAC112D978D2B20A44C2F3B7
:10562000460141EAC2111A79C9B21144C1F34602D6
:1056300042EAC1125979D2B20A44C2F3460141EAA0
:10564000C2119A79C9B21144C1F3460242EAC112A9
:10565000D979D2B20A44C2F3460141EAC2111A7A98
:10566000C9B21144C1F3460242EAC112597AD2B218
:105670000A449B7AC2F3460545EAC2151D4405F06B
:10568000FF052B464FF6FD7745464FF6FF749846CB
:10569000DAF81010DAF80000FEF72EFD01460028B7
:1056A0007FF4C2AE5FFA85FEDAF814300EF1FF32F5
:1056B000DAF81CC002EB4201588302EB810283F846
:1056C0000D80A3F80B603CF81210481E80B2597090
:1056D000B8424FEA112199704FEA420124D9A3F848
:1056E0000340A3F80540A3F80740A3F80940DC8174
:1056F0001C825C829C82DC821C839C83DC834EF057
:10570000400E012283F800E0DAF800300021504614
:105710001A71FFF7F3FA014600287FF485AE013DC8
:10572000ADB2002DB4D1D3E601323CF812005200E4
:1057300000F1FF39D870000A18711FFA89F0B842D9
:10574000CFD86244508800F1FF395871000A98712F
:105750001FFA89F0B842C6D8908800F1FF39D87195
:10576000000A18721FFA89F0B842BED8D08800F13A
:10577000FF395872000A98721FFA89F0B842B6D8F9
:10578000108900F1FF399873000AD8731FFA89F065
:10579000B842ADD8508900F1FF391874000A587426
:1057A0001FFA89F0B842A4D8908900F1FF399874A3
:1057B000000AD8741FFA89F0B8429BD8D08900F14A
:1057C000FF391875000A58751FFA89F0B84292D847
:1057D000108A00F1FF399875000AD8751FFA89F010
:1057E000B84289D8508A00F1FF391876000A5876F5
:1057F0001FFA89F0B84280D8908A00F1FF391877F3
:10580000000A58771FFA89F0B8423FF677AFD28A7C
:10581000501E9A77120ADA7782B2BA423FF66FAF19
:105820008C44BCF81A20002A7FF46BAF67E710782D
:1058300018705078587090789870D078D870107927
:1058400018715079587190799871D079D8715CE657
:105850004FECC44E2DE9F04F0B788A462F2B0446AF
:1058600083B02FD05C2B2DD00025A5609AF8003096
:105870001F2B2FD9B04D534619781E462F299E460F
:1058800003F10103F8D05C29F6D01F290A46E0692C
:1058900014D9A0F1020C2F2AE0464FF0010335D0B5
:1058A0005C2A33D0292B09D07F2A1BD82221A34F71
:1058B00002E017F8011FE9B19142FAD1062003B0C6
:1058C000BDE8F08F00250AF1010AA5609AF80030C2
:1058D0001F2BCFD829462046FFF73CF9656103B05E
:1058E000BDE8F08F05EB4101B1F83C2C002AE5D072
:1058F0007F2ADBD928F8022F1EF8012F5F1C1F2AF0
:10590000114640F2EF802F2A3B46C9D106EB030A2D
:10591000013BD3D0002600EB430131F8022D202AB1
:1059200001D02E2A02D1013BF7D1C7E74FF0203733
:10593000002142F220084FF0200EA26920F8131037
:10594000A2F808801760576082F80AE000E0013191
:105950003CF8022F202AFAD02E2AF8D009B146F0BE
:10596000030600EB430701E0013B04D037F802CD0A
:10597000BCF12E0FF8D1D4F818E00131F446002A1A
:1059800000F0EC8000274FF00808B946CDF804A0DD
:10599000202A53D02E2A5AD0C8456ED8B8F10B0F02
:1059A0005AD08B4200F0968046F003068B4280F07E
:1059B00091809EF80030F446E52BDDF804A004D178
:1059C00005238EF80030D4F818C0B8F1080F05BFD1
:1059D000BB00DFB207F00C0303F00C030C2B76D0F6
:1059E00007F00307032F72D0B20707D4012F08BFB7
:1059F00046F01006042B08BF46F00806002120469A
:105A00008CF80B60FFF7A6F8002854D12046FEF76B
:105A100055FEA369DB7A00284FD159073FF54FAFF8
:105A20006369DA7AD2064ED521685A8B0978032940
:105A300004BF9B8A42EA0342A2601CE70A4646F082
:105A40000306511C30F81220002AA1D1B1E78B4285
:105A5000F4D1B8F10B0FA9D19EF80020F446E52A45
:105A6000DDF804A046F0030607F00C03B6D10522CA
:105A70008EF80020D4F818C0B0E78B42E9D07F2A16
:105A800034D84FF02B0CE246944652469445DFF84A
:105A9000B0B005D01BF8012F002A42D09445F9D1AF
:105AA0005F2246F003060EF80920D4F818E00A46F3
:105AB00009F10109C5E7A369DB7A04287FF4FFAE89
:105AC0005C073FF5FCAE052003B0BDE8F08F46F063
:105AD000020693E7BF001A464FF00B084FF0080983
