:1000000000800010CD000000390100003B0100001D
:100010003D0100003F010000410100000000000020
:10002000000000000000000000000000430100008C
:100030004501000000000000470100003DB1000044
:100040004B0100004B0100004B0100004B01000080
:100050004B0100004B0100004B0100008D2401000A
:100060004B0100004B0100004B0100004B01000060
:100070004B0100004B0100004B0100004B01000050
:100080004B0100004B0100004B0100004B01000040
:100090004B0100004B0100004B0100004B01000030
:1000A0004B0100004B010000713300004B010000C8
:1000B0004B0100004B0100004B0100004B01000010
:1000C0004B0100004B0100004B0100001149124A96
:1000D000124B9A4205D008681060043104329A42EB
:1000E000F9D300200E490F4A914204D0914202D226
:1000F00008600431FAD30C480C49884206D00268E3
:10010000043003B4FE46974603BCF6E70848804730
:1001100008480047B0F9010000000010D0080010A6
:10012000D0080010C05E001090F9010090F90100A5
:100130009D93000051010000FEE7FEE7FEE7FEE7A9
:10014000FEE7FEE7FEE7FEE7FEE7FEE70000000051
:100150002DE980484DF29000CDB0C0F2030006F0CA
:100160004DFC4FF44043C4F20F03D3F88820C2F390
:100170000162032AD3F80C2102F0030201F0F58397
:10018000012A01F0E383022A01F0D383D3F804218A
:100190004FF41063D2B2E14F0132C0F23D03B3FB22
:1001A000F2F304973B604BF2C5321B09C9F2A2126D
:1001B0004FF44041A2FB0362C4F202010E684FF407
:1001C000404346F050060E60C4F200030327550E6C
:1001D000C2F3474483261E73D1481D711C701F73E0
:1001E000D04B40F6D008C1F200086422002140F84C
:1001F000103B13F08DF80124052202230425072665
:10020000062108F12C00C8F83420C8F85820C8F896
:100210002C30C8F84430C8F85030C8F86830C8F8F6
:100220003810C8F83C40C8F84870C8F83050C8F8D2
:100230004C40C8F86040C8F86C70C8F85450C8F812
:100240005C60C8F8704007F00DFD294608F12C00ED
:1002500007F0D4FC08F1500007F004FD294608F12E
:10026000500007F0CBFCB04BB048C8F8043008F0A1
:100270007BFE402108F12C0007F058FCAC4808F048
:1002800073FE220442F462522046AA4906F036FC6C
:100290002146002006F024F9300440F42140FF23D9
:1002A0007F2240F0200088F8103088F8203088F84D
:1002B0001F3088F8243088F8112088F81E4006F096
:1002C0009DFBDDF810900020D9F800209A4906F037
:1002D00015FC0020994906F011FCD9F8002044F6DD
:1002E000D353C1F26203A3FB02A24EF210035009E2
:1002F000CEF20003002101384FF46D42C8F87410AB
:10030000CEF200025860F82082F8230099601E6047
:10031000802382F82330D9F80430980741F105830F
:100320007E4B586810F0FF0F0AD0C4B284490020F9
:10033000224606F0E3FB01208249224606F0DEFB5E
:1003400040F6D00BC1F2000BDBF878300BB1002285
:100350001A707D4B4CA840F6D00CC1F2000C40F84E
:100360008C3D00238CF87C30784B2EA90122CCF8F0
:10037000783007F04DFA0546002801F018832BACC1
:1003800037AD1F9403950020714906F0B7FBEFF3DA
:1003900012850823259583F31188002140F2E46239
:1003A0006C4812F0B5FF6C4E002144F2A4226B4859
:1003B00012F0AEFFFF234CF2600233757375B37514
:1003C000C2F2090211684CF25C0321F080611160F5
:1003D000C4F202031A684CF2740022F440121A604C
:1003E0001A68C4F2020042F400121A600368002185
:1003F00023F0806358220360564812F089FF45F2CB
:10040000C8074FF40043002252484FF48A410BF0D2
:1004100099FFC1F20007582245F2C808C1F200084E
:100420000021B818012712F073FF4FF4004308F1C0
:1004300058000022C8F8A8704FF48A410BF082FFE0
:100440004FF002090021582208F1B00012F060FFBD
:100450004FF4004308F1B0000022C8F800914FF4B7
:100460008A410BF06FFF03260021582208F58470A3
:1004700012F04EFF4FF4004308F584700022C8F8D4
:1004800058614FF48A410BF05DFF4FF0040A0021E0
:10049000582208F5B07012F03BFF4FF4004308F506
:1004A000B0704FF48A410022C8F8B0A10BF04AFFA7
:1004B000002108F5DC705822052412F029FF4FF4C2
:1004C000004308F5DC700022C8F808424FF48A4166
:1004D0000BF038FF06240021582208F5047012F0B2
:1004E00017FF4FF4004308F504700022C8F860427B
:1004F0004FF48A410BF026FF07240021582208F50B
:100500001A7012F005FF45F2C80B4FF4004308F5CE
:100510001A700022C8F8B84222E000BF00000010A4
:10052000D0080010E55A000065C2000068CE010046
:1005300080CE01009CCE0100B0CE0100C4CE0100EF
:10054000D8CE0100F0CE010010CF01004C09001000
:100550001CCF0100C8500010503A00107C0B001056
:100560004FF48A41C1F2000B0BF0ECFE002158223F
:1005700008F530704FF0080812F0CAFE4FF400433F
:100580000BF530700022CBF810834FF48A410BF04A
:10059000D9FE0924002158220BF5467012F0B8FE4E
:1005A0004FF400430BF546700022CBF868434FF43C
:1005B0008A410BF0C7FE0A24002158220BF55C701B
:1005C00012F0A6FE4FF400430BF55C70CBF8C0436D
:1005D0004FF48A4100220BF0B5FE002158220BF5A2
:1005E000727012F095FE45F2C80CC1F2000C0B249B
:1005F0000CF57270CCF818444FF400434FF48A4164
:1006000000220BF09FFEDFF888E3DFF888B30EF5D9
:100610009D540EF59C555444EC6129244FF41673F7
:100620002C6200210EF598544FF474725846A4F8C9
:100630005830A4F85A30A4F85C30A4F85E3012F0B8
:1006400067FECF49A8220BF5487012F017FECD4A7D
:100650004FF4404392E803000A0CABF8CC13CBF8FC
:10066000C8038BF8CE23C4F20F03D3F8AC214FF4A8
:10067000004122F44062C3F8AC21D3F8AC21C4F2AB
:10068000080142F48062C3F8AC21D3F8C4004CF2F4
:100690000C0240F40010C3F8C4000F23C1F810800E
:1006A000C4F202020B60C1F804904E6213684CF26F
:1006B000200023F4407313601368C2F2090043F46E
:1006C0004073136011684FF4404321F4406111609E
:1006D0001168C2F2090341F440611160146848F2E4
:1006E000200124F440341460146867F31F4144F47B
:1006F000403414608278A44D42F020028270827CE3
:1007000042F2934802F0DF0282741A6848F208004D
:1007100042F400421A601A68CDF84C9042F48032DC
:100720001A601A68099742F020021A601A690B9041
:1007300022F4C03222F020020830109024971A616F
:1007400099611399099A0B9B109E249F0024C4F26F
:100750000803C9F24928C0F22441C0F24802C4F299
:100760000806C0F224070B9328460594A146CDF84D
:10077000208013910992109624972346DDF820A03B
:100780005A1C8AFB02A4DDF82080A4180794089C58
:1007900003F1020E88FB03814FEAE27CCDF818C01A
:1007A00084FB0E4C089EDDF818A0079CDF1CC918BE
:1007B00086FB0768F444C9EBE109CAEBE40103F1E5
:1007C000050ACDF800A0FC17CDF870C04FEAEE7C0A
:1007D000CDF830C01294DDF800C0089CC1EBC10117
:1007E000A2EB4101B84484FB0C4C01EB4101CDF874
:1007F00054808900DDF82080C9EBC9091E1D1791BE
:10080000159C1299A3EB490988FB06A809EB490935
:10081000CDF858C04FEA8909C1EBE40C1799CDF81F
:100820004490DDF870A0DDF8309059449C1D0E9185
:10083000CDF83480C9EBEA08DDF8449014940E9C9E
:100840000BEB090ACCEBCC09DDF814C0DAF828135D
:10085000D4F828430CEB4C0CCDF828C00F911A9417
:100860000799DDF818C00A9CCCEBE11CCDF81CC040
:10087000A7EB490C4FEA8319CDF81890DDF83490B6
:10088000A1009401B1440A94F417CDF880901B9410
:10089000DDF85890009CC8EBC808A144CDF85890EA
:1008A0004FEAE479079CAEEB4808C4EBC4041E94FD
:1008B000DAF824430CEB4C0C08EB4808CDF81CC0CC
:1008C00044604FEA88080E9CCDF83880DDF81C8023
:1008D000CDF88490DDF820C0D4F82443DDF85090A2
:1008E0004FEA88088CFB09C94464CDF83480219C08
:1008F000DDF85880DDF880C0C4EBE80407940F9C55
:10090000CDF89C90DDF86C9001EB44041894C9EB91
:10091000EC0A069CDDF84490DDF818C0203409F597
:1009200048780CF1100CDDF81890CDF83CC01D94FF
:10093000DDF878C0179C09F13009CDF8649004F512
:100940004874A2EB4C191A9A1E94DDF828C00A9C30
:1009500001EB42021A9230340A9A0CF1100CCDF8D5
:1009600088C02694DDF814C0084C2032239204EB92
:100970000C020D9CDDF838C05C4411940CE000BF03
:1009800084A001002CA1010000C0072000F807206E
:10099000503A001060070820189CDC440BEB44041C
:1009A00004610F9CCDF828C02C1984601D9CCAEBF3
:1009B000CA0A2C198461199CD8442C1984621A9C87
:1009C00005EB89190BEB440404651E9C07335C445A
:1009D0000464229CCDF818A02C198464239CDDF8B3
:1009E0001CA02C198465269CCAEBCA0A2C198466A3
:1009F000CDF81CA0059CDFF880A3C0F800800AF8A1
:100A00000440139C0262C461099CC0F83890C46021
:100A10000B9C0266446140F25C74C2F208044462BA
:100A20000324C462D04C0463109C44630124C46357
:100A3000139CC465099CC4640B9C446540F25C74BF
:100A4000C2F2080444660324C466C84CDDF8709002
:100A5000DDF830800467DCF82843C8EBE9180C9413
:100A6000119CCDF83C80DDF854A0DDF84880D4F826
:100A70002843C8EBEA19DDF818801894DDF800C0A7
:100A8000079CA6EB480A4FEA8718ACEB440CCDF85C
:100A90001880279CDDF85080CDF81CC04444179482
:100AA0004FEAE8741C94079CC9EBC909DDF83C8047
:100AB000CDF83C9004EB44090A9CC8EBC808D4F874
:100AC0002443CDF84880C0F88440119C4FEA8E1C26
:100AD000D4F824430AEB4A0AC0F8C440129C4FEAF7
:100AE0008A0AAEEB441E0C9CDDF8708001EB4404D6
:100AF000CDF828A04FEA8909DDF85CA0CDF8449034
:100B000007940CF12004C8EBEA091294DDF8388050
:100B10000CF1100A189CCDF830A0DDF818A001EBFC
:100B2000440408F54878CDF838800AF1100ADDF859
:100B30003C800F94069CCDF860A0DDF820A0203406
:100B40001994A7EB48178AFB034ADDF83480119CFF
:100B500008F54878CDF83480DDF81880CDF878A015
:100B6000DDF828A008F13008CDF868800BEB0A0802
:100B70000BEB040A079C05EB87170BEB4404C0F84A
:100B800090400E9C05EB8E1E5C44C0F880400C9C8F
:100B90000CF1300C2C19C0F88840129CAC442C1974
:100BA000C0F898400F9CC9EBC9090BEB4404C0F88E
:100BB000D0400D9C5C44C0F8C040189C2C19C0F873
:100BC000C840199C2C19C0F8D8401A9CC0F8B870BD
:100BD0002C19C0F8E840109C012744670124C46721
:100BE000139CC0F8BC70C0F89C40099C099FC0F8D9
:100BF0008C400B9CC0F878E0C0F8944040F25C74E4
:100C0000C2F20804C0F8A4400324C0F8AC40584C19
:100C1000C0F8CC70C0F8B040109CDDF86CE0C0F8B3
:100C2000B440139C40F25C77C0F8DC400B9CC2F2ED
:100C30000807C0F8D440209CC0F8A8C0C0F8E470F1
:100C4000CEEBE41C219F169CC0F8A020C7EBE41E4D
:100C5000D8F82873C0F8E0200697DAF82843149FE4
:100C60001294009CA7EB4909A4010794D8F82443E7
:100C7000B701C0F80441DAF82443CCEBCC0CC0F83F
:100C8000444107F11004A6EB4C1C0C94069E129CE8
:100C900001EB460A01EB44010691079907F1200692
:100CA00009EB49094FEA89081596DDF828902031AB
:100CB000119E1691059909F5487906F54876CDF803
:100CC00028900D96C1F3420605EB8C11C0F8F81080
:100CD0000A99DDF800905944C0F800110C99CEEB48
:100CE000CE0E6918A9EB4E1EC0F80811DDF81C9055
:100CF0001E9C1599303709F11009E4186918EF198D
:100D0000C0F81811CDF86C902194C0F8287105EB4B
:100D10008E17C0F8387106990D9F0BEB41015F44A7
:100D2000C0F85011C0F840711B99169F6918EF194F
:100D3000C0F84811C0F85871DDF870C01799219FAC
:100D40004FEAE379CCEBE11EC9EBE71C149F0BEBF8
:100D50004A0AB9010327C0F8EC70064FC0F810A189
:100D6000C0F8F0700AE000BF290B08202A0B082009
:100D70002B0B08202C0B082000F80720109FC0F830
:100D80002021C0F8F4700127C0F8FC70139F0BEB12
:100D90000804C0F81C71099FCEEBCE0EC0F80C7190
:100DA0000B9FCCEBCC0CC0F8147140F25C77C2F214
:100DB0000807C0F824710327C0F82C71CC4F08F540
:100DC0004878C0F83071109FD844C0F834710127BA
:100DD000C0F83C71139FC0F85C71099FC0F8602196
:100DE000C0F84C710B9FC0F8547106F5C07706F53A
:100DF000C4760A96D4F828630BEB47070696079E3D
:100E0000D4F8244306F1300A149E14970A9FA6EBE7
:100E10004E1E0BEB4707CDF81CE00A9701F1100EB0
:100E200001F1200730310C910799C0F8844105EB9E
:100E30008111C0F87811A3EB4C140699DDF828C095
:100E4000149EAA44062918BF6646C0F890610C9EFD
:100E5000DDF814C0A91940F25C76C2F20806C0F8A9
:100E600064610426C0F86C61A24E0CF1010CC0F85C
:100E70007061109EC0F868A1C0F874610126C0F8C6
:100E80007C61249ECDF814C0C0F89C61099EEF19C6
:100E9000C0F88C610B9EC0F89871C0F8A81140F2A0
:100EA0005C770421C0F89461C0F8A021C2F2080761
:100EB000C0F8AC11109E904A6146C0F8A471AE44CF
:100EC000012705EB84142029C0F8B461C0F88081A3
:100ED000C0F888E1C0F8B021C0F8B841C0F8BC71D2
:100EE000864E00F5E0707FF449AC06F5EE51CA6815
:100EF000D6F8CC3142F0004243F000434FF4404476
:100F0000C4F20F04CA60C6F8CC31D4F8C4304CF235
:100F1000C41543F00053C4F8C430C4F20F052B6865
:100F20004FF48047C5F20007012043F040030595C8
:100F30000B972B603863D4F8C4304FF4804743F4E8
:100F40000003C4F8C430D4F8AC31C4F2090723F468
:100F50004043C4F8AC31D4F8AC310025C4F8AC310E
:100F6000BB6A4FF0FF3123F00303BB62BB6A01226F
:100F7000BB62BD603D61FD60FD603960D4F8AC319D
:100F80001F9923F44043C4F8AC31D4F8AC3138464F
:100F900043F48043C4F8AC311D238DF8AC508DF878
:100FA000AD508DF8AF202D938DF8AE508DF8B05028
:100FB00005F056FC4FF46143CEF20003082283F89B
:100FC0001A234FF080621A607A684FF4824342F02D
:100FD00001027A603268C5F200031A607268DFF8B5
:100FE0002CA15A60B26828469A60F1684FF46252A8
:100FF00048F68136D960C0F201021E61404905F011
:101000007DFD29464FF407720AF5A76012F080F9BA
:10101000DC223C490AF23A5012F030F94FF44046D3
:101020004FF4526238490AF2547012F027F9C4F2B0
:1010300002060A274CF20403C4F20203F7671A6897
:101040004CF2400B22F440321A601A68C4F2020BD0
:101050001A601A684FF4404822F440221A601A6855
:10106000C2F209081A601A684CF2500722F44012C2
:101070001A601A68C4F202071A601A684CF2240E49
:1010800022F440021A601A68C4F2020E1A601A684A
:10109000CDF820B022F040721A601A684CF21009A4
:1010A0001A604FF04062C8F81820D8F80020C4F247
:1010B000020942F05062C8F8002098F813204CF260
:1010C000640C02F0F20288F813201A68099722F4DF
:1010D00040521A601A68C4F2020C1A601A682F464D
:1010E00022F440621A601A681F991A6010E000BF6B
:1010F0002D0B08202E0B0820280B082000C00720ED
:101100002CCF010034A1010010A20100E8F2072059
:101110001A68C4F2090722F440721A601A68384645
:101120001A601A68DFF89CB222F0C0021A601A68CE
:101130001A603368012223F440133360336833604C
:10114000DEF8003023F04063CEF80030DEF80030E7
:10115000CEF80030DEF8003023F04073CEF80030D7
:10116000DEF80030CEF80030D9F8003023F04063CC
:10117000C9F80030D9F80030C9F80030DDF8209007
:10118000D9F8003023F44013C9F80030D9F8003002
:10119000C9F80030DCF8003023F04063CCF80030B0
:1011A000DCF80030CCF80030DCF8003023F040737D
:1011B000CCF80030DCF80030CCF80030DDF824C08A
:1011C000DCF8003023F04063CCF80030DCF800306D
:1011D000CCF800304FF4F003C8F81830D8F80030DD
:1011E00043F4F003C8F80030D4F8C430DDF81480BC
:1011F00043F00053C4F8C430D8F8003043F0100373
:10120000C8F800300B9B4FF001081A63D4F8C430C3
:101210000A2243F48003C4F8C430D4F8AC3123F478
:101220004053C4F8AC31D4F8AC31C4F8AC31BB6A2B
:1012300023F00303BB62BB6ABB624FF0FF33BD60A8
:101240003D61FD60FA603B60D4F8AC3123F440535B
:10125000C4F8AC31D4F8AC3143F48053C4F8AC31A9
:101260003B232D938DF8AC508DF8AD508DF8AF80A9
:101270008DF8AE508DF8B05005F0F2FA7B6844F26C
:10128000201243F001037B60DAF85437C5F2000204
:101290001360DAF8583728465360DAF85C1749F2D9
:1012A00080639160DAF86017C0F29803D16041F270
:1012B000190111612D9A4249B3FBF2F34FF4C87240
:1012C00005F01CFC05F01EF9642229460BF5B870E8
:1012D00012F01EF83F230622FF210BF5E4708BF875
:1012E000CF3112F015F88BF8C851D4F8AC214FF477
:1012F000004322F44032C4F8AC21D4F8AC21C4F24B
:10130000090342F48032C4F8AC21326822F440026E
:101310003260326842F480023260D4F8C42042F075
:101320008072C4F8C42007221A721D721A7DD00779
:1013300003D51A781A7DD107FBD44FF40043C4F2C9
:101340000903802283F830201A46117D4FF40043B0
:1013500001F02001C9B2C4F209030029F5D000222E
:101360004FF4404183F83020C4F20F015A601A73E1
:101370001A621B7DD1F8AC31DDF81090C3F3014344
:10138000D9F8002023B1022B03D9032B01F0CA871F
:101390000423B2FBF3F31B09002248F2A0604FF0D4
:1013A00001084DF6836505939C46C0F20100164680
:1013B00091464146C4F21B3547F6122421E000BF96
:1013C00040CF0100B04C0010079AB2FBF3F7C7F50D
:1013D000F4421232A74202D9A7F5F442123A9042DF
:1013E00040F29882002A01F09A8710461E468846ED
:1013F0004FF00F090499DDF814E01029F44400F0CF
:101400008C82BCFBF1F31F460693A5FB0773DDF846
:1014100018E05B0B04FB13EE43F60957BE4588BF8B
:101420000133A3F1030E4FF6FC77BE4513D8DDF868
:1014300018E0BEFBF3F2A24201F2FB80C2F5F442D7
:101440001232824207D2002A00F07F8310461E46E5
:1014500088464FF000094B1CBCFBF3F70797049339
:10146000A5FB0773DDF81CE05B0B04FB13EE43F6F2
:101470000957BE4588BF0133A3F1030E4FF6FC7731
:10148000BE4515D8DDF81CE0BEFBF3F7C7F5F44206
:101490001232A74202D9A7F5F442123A904207D974
:1014A000002A01F0428710461E4688464FF0010987
:1014B0008F1CBCFBF7F70797A5FB0773079F5B0B18
:1014C00004FB137743F6095E774588BF0133DF1EBF
:1014D0004FF6FC7E774514D8079AB2FBF3F7C7F5B1
:1014E000F4421232A74202D9A7F5F442123A9042CE
:1014F00007D9002A01F01C8710461E4688464FF087
:101500000209CF1CBCFBF7F70797A5FB0773079FE2
:101510005B0B04FB137743F6095E774588BF013305
:10152000DF1E4FF6FC7E774514D8079AB2FBF3F71F
:10153000C7F5F4421232A74202D9A7F5F442123A93
:10154000904207D9002A01F0F68610461E468846CA
:101550004FF003090F1DBCFBF7F70797A5FB0773B7
:10156000079F5B0B04FB137743F6095E774588BF43
:101570000133DF1E4FF6FC7E774514D8079AB2FB85
:10158000F3F7C7F5F4421232A74202D9A7F5F442A5
:10159000123A904207D9002A01F0D08610461E4622
:1015A00088464FF004094F1DBCFBF7F70797A5FBD2
:1015B0000773079F5B0B04FB137743F6095E7745C0
:1015C00088BF0133DF1E4FF6FC7E774514D8079A9B
:1015D000B2FBF3F7C7F5F4421232A74202D9A7F5DE
:1015E000F442123A904207D9002A01F0AA86104626
:1015F0001E4688464FF005098F1DBCFBF7F707977D
:10160000A5FB0773079F5B0B04FB137743F6095E8B
:10161000774588BF0133DF1E4FF6FC7E774514D82F
:10162000079AB2FBF3F7C7F5F4421232A74202D988
:10163000A7F5F442123A904207D9002A01F08486B5
:1016400010461E4688464FF00609CF1DBCFBF7F733
:101650000797A5FB0773079F5B0B04FB137743F604
:10166000095E774588BF0133DF1E4FF6FC7E774564
:1016700014D8079AB2FBF3F7C7F5F4421232A74227
:1016800002D9A7F5F442123A904207D9002A01F094
:101690005E8610461E4688464FF0070901F108078E
:1016A000BCFBF7F70797A5FB0773079F5B0B04FBD2
:1016B000137743F6095E774588BF0133DF1E4FF687
:1016C000FC7E774514D8079AB2FBF3F7C7F5F442CE
:1016D0001232A74202D9A7F5F442123A904207D932
:1016E000002A01F0378610461E4688464FF008094A
:1016F00001F10907BCFBF7F70797A5FB0773079FE5
:101700005B0B04FB137743F6095E774588BF013313
:10171000DF1E4FF6FC7E774514D8079AB2FBF3F72D
:10172000C7F5F4421232A74202D9A7F5F442123AA1
:10173000904207D9002A01F0108610461E468846BE
:101740004FF0090901F10A07BCFBF7F70797A5FB62
:101750000773079F5B0B04FB137743F6095E77451E
:1017600088BF0133DF1E4FF6FC7E774514D8079AF9
:10177000B2FBF3F7C7F5F4421232A74202D9A7F53C
:10178000F442123A904207D9002A01F0BC85104673
:101790001E4688464FF00A0901F10B07BCFBF7F71C
:1017A0000797A5FB0773079F5B0B04FB137743F6B3
:1017B000095E774588BF0133DF1E4FF6FC7E774513
:1017C00014D8079AB2FBF3F7C7F5F4421232A742D6
:1017D00002D9A7F5F442123A904207D9002A01F043
:1017E000958510461E4688464FF00B0901F10C07FF
:1017F000BCFBF7F70797A5FB0773079F5B0B04FB81
:10180000137743F6095E774588BF0133DF1E4FF635
:10181000FC7E774514D8079AB2FBF3F7C7F5F4427C
:101820001232A74202D9A7F5F442123A904207D9E0
:10183000002A01F06E8510461E4688464FF00C09BE
:1018400001F10D07BCFBF7F70797A5FB0773079F8F
:101850005B0B04FB137743F6095E774588BF0133C2
:10186000DF1E4FF6FC7E774514D8079AB2FBF3F7DC
:10187000C7F5F4421232A74202D9A7F5F442123A50
:10188000904207D9002A01F0478510461E46884637
:101890004FF00D0901F10E07BCFBF7F70797A5FB09
:1018A0000773079F5B0B04FB137743F6095E7745CD
:1018B00088BF0133DF1E4FF6FC7E774514D8079AA8
:1018C000B2FBF3F7C7F5F4421232A74202D9A7F5EB
:1018D000F442123A904207D9002A00F035811046AE
:1018E0001E4688464FF00E0901F10F07BCFBF7F7C3
:1018F0000797A5FB0773079F5B0B04FB137743F662
:10190000095E774588BF0133DF1E4FF6FC7E7745C1
:101910007FF65AAD002A7FF46DADB0F56A7F00F214
:101920002A814A46414633460FE105F0A9FCFEF7FD
:10193000F9BCD3F80431834DDBB201334FF40042DC
:10194000B2FBF3F304952B60FEF72DBCD3F8042112
:101950004FF4D853D2B27B4C0132C0F2B703B3FB81
:10196000F2F304942360FEF71EBC012A00F0848683
:10197000022A00F06986D3F888104FF49052490487
:10198000490CC0F27A02D3F8880001FB0222D3F896
:101990000431C0F307400130DBB26A4CB2FBF0F215
:1019A0000133B2FBF3F304942360FEF7FCBB2BAED0
:1019B00037AF2EA829991F9603973496359709F0CB
:1019C00055F800283EF4DFAC04287EF4DCAC2E98F9
:1019D000294608F023FC0446002800F06986012807
:1019E00000F06686411C00F063862E9829460DF0B3
:1019F00029FA002840F05C862E9BA11E9A6903F10B
:101A00003008023A91423BBF9A6A9D78054605FB31
:101A1000012503F50C7A4246002142F8041B524589
:101A20004FF0000EF9D103F1500203F1540703F116
:101A30003401260C8A4238BFB8454FF0200034BF2D
:101A40000027012712F0030F14BF002707F001073A
:101A50004FF020315FFA84FB83F8380083F83900B7
:101A600083F83A002E20CDF814B0196383F83000C3
:101A700010204FEA16295FFA86FB83F83B00059E8B
:101A80009A20C4F3072C83F848003C20596383F85C
:101A900046E083F847E083F8490083F84A608DF810
:101AA00020C083F84BC083F844B08DF8249083F8AD
:101AB0004590002F01F01B841A6BDE6B1F6C1A65BA
:101AC0005965986BDE65596C9A6CDE6C98651F667B
:101AD00059669A66DE662E2283F851202E98309A37
:101AE0000178032901F0F983170CD6B2F9B2C2F3D9
:101AF00007223F0A83F86A6083F86B2083F864103A
:101B000083F865708378002B01F0C783013BDEB258
:101B100001362E9B761901274FF00009C5621F710F
:101B2000002101350DF08EF9002840F0C1854346B3
:101B300043F8049B9A45FBD1B54201F0AE832E9B3E
:101B40001846EBE7000000100E224FF40040C4F2EC
:101B50000900057BC3F3072445F08005DBB205735C
:101B600004710370047B42EA011304F07F04DBB2CA
:101B7000047380F828304FF40043C4F209031A7B41
:101B800040F2053102F0C00242F003021A7307224C
:101B90001A725A68802442F001025A60586840F272
:101BA000033201405960586840F2072102405A60F0
:101BB000586840F207120140596059684FF461407B
:101BC0000A405A60CEF20000102380F8073300214B
:101BD00004604FF48A72BF4811F09AFB2246FF213D
:101BE000BD4811F095FB2246FF21BC4811F090FB47
:101BF00000218822BA4811F08BFB4FF6FF75224670
:101C0000FF21B74811F084FBB64AABF868534FF098
:101C1000FF358BF86A53C02582F80E51B24DB34997
:101C20009560B34D02F14A0ED560B24D0023556068
:101C3000B14DC2F810E1D561B04DA1F58276556184
:101C4000AF4DB04FD5624FF0000E45F2C80545F2DA
:101C5000C808C1F20008C1F20005012482F847302B
:101C6000A2F8483082F80D3182F80C31136193618B
:101C7000136253629362136353639363D363136476
:101C80008B60CB600B614B618B61CB610B620B6036
:101C90004B60A1F584724B62CBF6807E3360A1F578
:101CA00080768B62336041F8E43C136041F8FC3C81
:101CB00041F8F83C41F8F43C41F8F03C41F8EC3C88
:101CC00041F8E83C41F8E03C85F8464485F84E454B
:101CD000C5F85435C5F85835C5F85C35C5F86035D4
:101CE000C5F86435C5F86835C5F86C35C5F8703584
:101CF000C5F87435C5F87835C5F87C35C5F84C3469
:101D0000C5F85034C5F85434C5F85834C5F85C34B7
:101D1000C5F86034C5F86434C5F868343E46C5F883
:101D20006C347046C8F87034C8F8A435C8F89C34D0
:101D3000C8F8743488F87A4588F87244C8F8803551
:101D4000C8F88435C8F88835C8F88C35C8F8903597
:101D5000C8F89435C8F89835C8F89C35C8F8A03547
:101D6000C8F8A835C8F87834C8F87C34C8F8803486
:101D7000C8F88434C8F88834C8F88C34C8F890346B
:101D8000C8F89434C8F89834C8F8A03488F8A64540
:101D900088F89E44C8F8AC35C8F8B035C8F8B435F2
:101DA000C8F8B835C8F8BC351D46C8F8C035C8F8FD
:101DB000D035C8F8C834C8F8C435C8F8C835C8F82C
:101DC000CC35C8F8D435C8F8A434C8F8A834C8F855
:101DD000AC34C8F8B034C8F8B434C8F8B834C8F86B
:101DE000BC34C8F8C034C8F8C434C8F8CC3488F857
:101DF000D24588F8CA44C8F8D835C8F8DC35C8F8E0
:101E0000E035C8F8E435C8F8E835C8F8EC35C8F866
:101E1000F035C8F8F435C8F8F835C8F8FC35C8F816
:101E20000036C8F8D034C8F8D434C8F8D834C8F864
:101E3000DC34C8F8E034C8F8F434C8F82836C8F8F8
:101E40002035C8F8E434C8F8E834C8F8EC34C8F8E9
:101E5000F034C8F8F83488F8FE4588F8F644C8F835
:101E60000436C8F80836C8F80C36C8F81036C8F872
:101E70001436C8F81836C8F81C36C8F82036C8F822
:101E80002436C8F82C36C8F8FC34C8F80035C8F831
:101E90000435C8F80835C8F80C35C8F81035C8F846
:101EA0001435C8F81835C8F81C35C8F8243588F832
:101EB0002A4688F82245C8F83036C8F83436C8F8BB
:101EC0003836C8F83C36C8F84036C8F84436C8F842
:101ED000483631E0844E0010854E00100D4F001042
:101EE000984F0010685D00103D770000F05500101D
:101EF00011240100016D00006D0C010049EC00008F
:101F000085880000AA570010184610F0C1FF48F25B
:101F10008101C3F6803111F00FF84FF07E5110F0BF
:101F200003FF10F045FC16A3D3E9002310F094FC46
:101F300010F0A4FE16F066FF4FF07E5110F0F4FE94
:101F40004FF47F41C4F2FF6110F0F6FF11F044F945
:101F50000135ADB22BB2B3F5807F26F8020FD3D195
:101F60000949002200208A60CA600A614A61CBF6F2
:101F700080700A604A608A6114461FE0AFF30080F7
:101F8000182D4454FB21094014570010184610F036
:101F90007FFF48F28101C3F6803110F0CDFF4FF092
:101FA0007E5110F0C1FE10F003FCC7A3D3E900235B
:101FB00010F052FC10F062FE16F024FF4FF07E513C
:101FC00010F0B2FE4FF47F41C4F2FF6110F0B4FF95
:101FD00011F002F90134A4B223B2B3F5807F27F8DF
:101FE000020FD3D10BF024F908B904F0A1FA62B6BC
:101FF000DFF8F09299F91430A9F54654012B14D06A
:10200000B34A00234CA809F5985140F8882D603157
:102010001A46C4F8AC3205F0FBFB002801F005813C
:1020200002460020AB4904F069FD0EF0CDFEBBF87E
:10203000D0030BF04DF910B901200EF005F940F670
:10204000D0060024C1F2000686F821400FF072FA93
:1020500020460AF0BFFE01200AF0BCFE02200AF072
:10206000B9FE01237367259F87F311884CF280081E
:102070004CF2400900209849C2F20908C2F209094D
:10208000964F04F03BFDCDF81080CDF81490DBF8AE
:10209000E013DBF8E433DBF8DC23CB1A0132B3F5D1
:1020A000FA7FCBF8DC2300F2B2854FF44044C2F251
:1020B00009047826402366830A20E38304F09EFC0B
:1020C000049D617D95F81790DDF81480EA7D09F094
:1020D000200998F81530C1F380015FFA89F902F000
:1020E000100281F00101B9F1000F0CBF4FF002099D
:1020F0004FF00009D2B249EA0109002A0CBF0422BC
:10210000002203F0200349EA0209DBB22022002B5F
:102110000CBF0823002366830A20E28349EA0309EF
:1021200004F06CFC617D95F81780DDF814C0EA7D41
:1021300008F020089CF81530C1F380015FFA88F898
:1021400002F0100281F00101B8F1000F0CBF4FF056
:1021500002084FF00008D2B248EA0108002A0CBF7A
:102160000422002203F0200348EA0208DBB2102216
:10217000002B0CBF0823002366830A20E28348EA71
:10218000030804F03BFCDDF810C0617D9CF817509B
:102190009CF81720DDF814C005F020059CF81530D8
:1021A000C1F38001EDB202F0100281F00101002DB7
:1021B0000CBF02250025D2B20D43002A0CBF042219
:1021C000002203F020031543DBB20822002B0CBFD2
:1021D0000823002366830A20E2831D4304F00EFCDB
:1021E000049E617DDDF814C0F47DF27D04F02004CE
:1021F0009CF81530C1F38001E4B202F01002002C0B
:102200000CBF0224002481F00101D2B203F02003AC
:10221000002A0CBF042200220C43DBB2002B0CBFAF
:102220000823002314431C4319F0010300F0D78452
:102230009AF84427002A00F0D2847F2A07D0531C42
:10224000DBB2274A052B82F8443700F06187C9F3D7
:102250004003002B00F0CA849AF84527002A00F0BA
:10226000C5847F2A07D0531CDBB21D4A052B82F898
:10227000453700F08987C9F38003002B00F0BD8447
:102280009AF84627002A00F0B8847F2A07D0531C0A
:10229000DBB2134A052B82F8463700F07A8718F034
:1022A000010300F0B0849AF84727002A00F0AB84BD
:1022B0007F2A19D0531CDBB2094A052B82F8473715
:1022C00000F03D8710E000BF182D4454FB21094069
:1022D00068CF010074CF010088CF01009C5000102E
:1022E000E8F20720503A001018F0020FC8F340033C
:1022F00000F043849AF84827002A00F03E847F2AA1
:1023000007D0531CDBB2CD4A052B82F8483700F0CA
:102310001B8718F0040FC8F3800300F036849AF886
:102320004927002A00F031847F2A08D0531CDBB2F1
:1023300058B2C24A052882F8493700F04D8715F097
:10234000010300F028849AF84A27002A00F0238429
:102350007F2A07D0531CDBB2B84A052B82F84A37D4
:1023600000F03E87AA07C5F3400340F11B849AF8AA
:102370004B27002A00F016847F2A07D0531CDBB2BB
:10238000AE4A052B82F84B3700F01C876E07C5F369
:10239000800340F10E849AF84C27002A00F009844B
:1023A0007F2A07D0531CDBB2A44A052B82F84C3796
:1023B00000F00D87A007C4F3400340F101849AF8B0
:1023C0004D27002A00F0FC837F2A07D0531CDBB284
:1023D0009A4A052B82F84D3700F0EA865FEAD90960
:1023E00000F0F4839AF84E37002B00F0EF837F2B38
:1023F00007D00133DBB2914A052B82F84E3700F04B
:10240000DC865FEAD80800F0E7839AF84F37002BA4
:1024100000F0E2837F2B07D00133DBB2874A052B24
:1024200082F84F3700F0BA86ED0800F09E839AF8E4
:102430005037002B00F099837F2B07D00133DBB29C
:102440007E4A052B82F8503700F0AD86E30800F095
:1024500091839AF85127002A00F08C837F2A07D0B5
:10246000531CDBB2754A052B82F8513700F06286A7
:102470006107C4F3800340F16F839AF85227002A62
:1024800000F06A837F2A07D0531CDBB26B4A052B0E
:1024900082F8523700F0378614F0010400F06283AE
:1024A0009AF85337002B00F05D837F2B07D0013360
:1024B000DBB2624A052B82F8533700F03686BAF950
:1024C000383546F267620133C6F2666282FB03E288
:1024D000D917C1EB620202EB8202594C9B1A9AB2E5
:1024E000AAF83825A146A04600264EE0002106EBBA
:1024F0008603DFF84CC19A180AEB42020CEB430347
:10250000A2F87A1603F5A07353F8020F039D5968D9
:10251000B3F808E003C5022205214A4B0398A5F849
:1025200000E015F05BFFBDF8E030B9F8A6219A1A7B
:10253000002AB8BF5242B2F5C07F05DADBF8E013DB
:10254000D8F8BC218A4215D9D8F8E4219A1A002A71
:10255000B8BF5242BF2AC1BFDBF8E023C8F8E4315C
:1025600002F5FA72C8F8BC21F04340B2A9F8A631CE
:1025700006F0A4FF01360A340A2E08F1040809F116
:10258000020900F0C980BAF8382594F8DF3094F8D1
:10259000DE50C3F3400394F8E7101B02C5F3400577
:1025A00094F8E00043EA4525C1F3400194F8E13096
:1025B0000D43C0F3400094F8E21045EAC010C3F3A5
:1025C000400394F8E35040EA8313C1F3400194F8C8
:1025D000E40043EA4111C5F3400594F8E53041EACF
:1025E0000515C0F3400094F8E61045EAC000C3F3B7
:1025F000400301F0020140EA83030B43A3F10C0105
:1026000089B24FF6F37E714512B23FF66FAF40F2DA
:10261000F3308342C8BF4FF6F8713FF768AF41F21D
:10262000660505FB03F1A1F54441C839C1F38F11DB
:102630005DE7A2F5F442123AFEF703BFE8F2072085
:1026400020F80720815A0000D3F88820D3F88800AA
:102650005204D3F80431520C511CC0F30742090450
:102660000132DBB22B4EB1FBF2F20133B2FBF3F3DA
:1026700004963360FDF797BDD3F888104FF4585295
:102680004904490CC0F26E12D3F8880001FB022203
:10269000D3F80431C0F307400130DBB21D4DB2FB6B
:1026A000F0F20133B2FBF3F304952B60FDF77BBD31
:1026B000012C2E9D7DF667AEAB699C42BDF463AEE6
:1026C0000126012C7DF65FAE214628460CF0DEFC8B
:1026D000034600283DF457AE01283DF454AE421C99
:1026E0003DF451AEAA699442BDF44DAE2146284650
:1026F00000221C460CF04EFC00287DF444AE2B69F1
:102700005F1C02D001332B616E71AB699C42D8D340
:10271000FDF739BE0000001040F6D000C1F2000005
:1027200090F820309BF8E8135AB2013101328BF84F
:10273000E81300F07D8240F6D006C1F20006DBF817
:10274000E013B2698A4213D2B6F91C00042800F0E3
:10275000278400F37D83002840F01A8401210DF0C6
:10276000B5FA40F6D0004FF0FF33C1F200008361AC
:1027700040F6D001C1F20001DBF8E0334C699C4225
:1027800004D991F91230012B40F3DB81002C00F0C9
:10279000D98140F6D003C1F20003002440F6D005F1
:1027A0005C61C1F200050123AB77B4480EF0FEFC7A
:1027B000B3480EF0FBFC0021B04805F0B7F940F635
:1027C000D00800200146C1F2000803F089FE98F904
:1027D00010305A1C00F04282002C00F0498240F672
:1027E000D00CC1F2000C9CF91E20002A40F0778327
:1027F0001220002103F074FE40F6D00EC1F2000E4C
:1028000028A99EF9110006F071FC0178044631B147
:102810009B480CF01DF914F8011F0029F8D1002085
:10282000012103F05DFE40F6D003C1F200035A7CA3
:1028300040F6D00450B2C1430023C1F20004C90FD6
:1028400000288BF8EC33A8BF024694F91030C0F290
:1028500043834FF4DC7404FB01F12C2404FB0212CB
:102860004FF45C7101FB0323864DEA5CEC18012AEE
:1028700000F0BB84EB5A022B00F0298440F20242A4
:10288000934200F02E84B3F5817F00F0258440F25E
:102890000252934200F07783002106F027FCE6689D
:1028A0000546002E00F0E280774810F09DFF31468B
:1028B00003462846019310F04BFEDFF8D081DFF885
:1028C000D091019B002814BF404648460278591C0D
:1028D0007818FA54314610F029FF23696A4E002B0C
:1028E00000F0C4803046019310F07EFF019B024649
:1028F00019462846029210F02BFE029A002814BFB7
:1029000040464846019B90F800E0501C1946381894
:1029100006F802E010F00AFF6369002B00F0A680C1
:102920003046019310F060FF019B0246194628468D
:10293000029210F00DFE029A002814BF404648464D
:10294000019B90F800E0501C1946381806F802E088
:1029500010F0ECFEA369002B00F088803046019354
:1029600010F042FF019B024619462846029210F0E1
:10297000EFFD029A002814BF40464846019B90F89C
:1029800000E0501C1946381806F802E010F0CEFEA0
:10299000E369002B6AD03046019310F025FF019BBC
:1029A000024619462846029210F0D2FD029A0028EB
:1029B00014BF40464846019B90F800E0511C78182F
:1029C00006F802E0194610F0B1FE236A002B4DD044
:1029D0003046019310F008FF019B02461946284635
:1029E000029210F0B5FD029A002814BF40464846F6
:1029F000019B90F800E0501C1946381806F802E0D8
:102A000010F094FE636A002B30D03046019310F032
:102A1000EBFE019B024619462846029210F098FDF3
:102A2000029A002814BF4046484690F800E0019BF7
:102A3000501C3818194606F802E010F077FEA46A18
:102A4000A4B1304610F0D0FE21460346284601933B
:102A500010F07EFD019B002814BF404648460278D6
:102A6000581C38182146F25410F060FE064C2046DF
:102A700010F0BAFE272803460CE000BFFC08001047
:102A80002009001030AF01009C50001064CE0100FE
:102A900060CE01002ADC2118C5434942293501F0E6
:102AA0000301A94228BF2946032D98BF294639B101
:102AB0002024DC5501331A1A9142FAD88D4215D0E0
:102AC0006D1AAC08A60064B14118791800224FF0C5
:102AD00020300132A24241F8040BFAD3AE42334413
:102AE00004D02022DA550133272BFBDD9BF8EC13B1
:102AF00000238BF81434C74C31B1C7480BF0A8FF42
:102B000014F8011F0029F8D140F6D001C1F20001EC
:102B10008A7C00238B77CA748B740BF0F9FF45F61F
:102B2000AC12C1F20002137D45F2C804002B14BFA1
:102B30004FF0FF330023C1F20004C4F8D036FFF792
:102B4000A6BA012440F6D006C1F2000696F91E305E
:102B5000002B3FF430AE28E614F001048AF8523717
:102B60007FF49EAC8AF85347A9E4E3088AF85057EB
:102B70007FF46FAC8AF851377AE418F0040F8AF8C2
:102B80004837C8F380037FF4CAAB8AF8493715F099
:102B900001037FF4D8ABAA078AF84A37C5F340038C
:102BA0003FF5E5AB6E078AF84B37C5F380033FF579
:102BB000F2ABA0078AF84C37C4F340033FF5FFABF4
:102BC0005FEAD9098AF84D377FF40CAC5FEAD80880
:102BD0008AF84E977FF419AC8AF84F8724E48AF874
:102BE0004437C9F34003002B7FF436AB8AF84537EE
:102BF000C9F38003002B7FF443AB8AF8463718F003
:102C000001037FF450AB8AF84737FFF76DBB002014
:102C1000824903F073FF44F6B04CC1F2000CDCF8BB
:102C2000E0330022CCF8DC23CCF8E433FFF73DBAE4
:102C300044F6B041C1F20001B1F8D0334CF6CD42B8
:102C4000CCF6CC42A2FB0342120902EB8201A3EBB9
:102C50008101CBB280F82010C2776CE598F91E3064
:102C6000002B40F06B814FF4FA6003F0C7FE4BE796
:102C700040F6D0066A485A217F23C1F200067374D9
:102C800004F054FF1A20214603F02AFC022C00F322
:102C9000BA8060B2002106F029FA451E01E00BF06F
:102CA000D7FE15F8013F5E481946002BF7D1022CDC
:102CB00018BF052C03D05A4820210BF0C9FE01345F
:102CC000062CE3D140F6D008C1F2000898F91E3076
:102CD000002B40F06B815248402104F027FF4E4802
:102CE0000EF094FA0024042C75DCE04340B200217D
:102CF00006F0FCF9451E01E00BF0AAFE15F8013FB5
:102D000047481946002BF7D1042C18BF092C03D0D3
:102D1000434820210BF09CFE01340A2CE3D140F6FD
:102D2000D004C1F2000494F91E30002B3FF4ECAE45
:102D30003B480EF06BFA3B4D00242C264FF45C7898
:102D400040F6D009C1F2000999F91030DFF8D8C077
:102D500008FB03F306FB043363445B68002B08BFE6
:102D60002B461978994631B12D480BF071FE19F8B0
:102D7000011F0029F8D1042C40F0DA800020012145
:102D800003F0AEFBDFF89C8005242C254FF45C7625
:102D900040F6D00EC1F2000E9EF91030224806FB1C
:102DA00003F305FB0433C3185B68002B08BF4346DD
:102DB0001978994631B118480BF04AFE19F8011FED
:102DC0000029F8D1092C3FF49FAE134820210BF0C5
:102DD0003FFE0134DCE7E04340B2002106F086F913
:102DE000451E01E00BF034FE15F8013F0A48194674
:102DF000002BF7D1042C18BF092C8DD006482021B8
:102E00000BF026FE88E760B2002106F06FF9451E40
:102E10000EE000BF9C5000102009001090CF010070
:102E2000FC080010BCCF010030AF01000BF010FE19
:102E300015F8013FC7481946002BF7D1022C18BFDF
:102E4000052C3FF43CAFC34820210BF001FE36E7D0
:102E5000852818D0862806D005287FF482AC01206A
:102E600009F0B8FF7DE440F6D009C1F2000999F9F4
:102E70001F205BB202EB820203EB820080B20DF0F6
:102E800025FF99F8203040F6D00CC1F2000C9CF9D7
:102E90001F205BB202EB820203EB8203ABF8D0335C
:102EA0000DF0AAFEBBF8D0030AF012FA002800F0D9
:102EB0002681002340F6D00E1846C1F2000E8EF88F
:102EC000213009F087FF012009F084FF022009F07A
:102ED00081FF0EF02FFB44E4D24352B2B9E440F636
:102EE000D000C1F20000417C4AB2D043C00F002A9A
:102EF000C0F202814FF4DC7101FB00F12C2000FBD9
:102F000002124FF45C7101FB03239349CB189C68B8
:102F1000924B002C08BF1C46217800293FF468AC76
:102F20008F480BF095FD14F8011F0029F8D15FE4DC
:102F30008B4820210BF08CFD013401E7894C47219F
:102F400087480BF085FD14F8011F0029F8D1864C45
:102F5000412183480BF07CFD14F8011F0029F8D1B2
:102F6000824C43217B480BF073FD14F8011F0029AC
:102F7000F8D17F4C452177480BF06AFD14F8011F0A
:102F80000029F8D16FE67B497B4810F0CFFB6DE557
:102F900001287FF4E6AB002009F01CFFFFF7E1BB3E
:102FA000012001460CF092FEFFF7DBBB6C481A21B2
:102FB00004F0BCFD694D00242C264FF45C7840F6EB
:102FC000D009C1F2000999F91030DFF88CC108FB73
:102FD00003F306FB04336344D3F8BC31002B08BF72
:102FE0002B461978994631B15D480BF031FD19F83F
:102FF000011F0029F8D1022C40F011811A20012173
:1030000003F06EFADFF8548103242C254FF45C762C
:1030100040F6D00EC1F2000E9EF910304E4806FB6D
:1030200003F305FB0433C318D3F8BC31002B08BFEE
:1030300043461978994631B146480BF009FD19F815
:10304000011F0029F8D1052C50D140F6D001C1F262
:10305000000191F91E30002B3FF43DAE404818218D
:1030600004F064FD3E487C210BF0F2FC3C487C21DE
:103070000BF0EEFC3A48582104F058FD40F6D0021F
:10308000C1F2000292F921303548002B45D0502181
:103090000BF0DEFC32484D210BF0DAFC1820002149
:1030A00003F01EFA7C212B480BF0D2FC7C2129482E
:1030B0000BF0CEFC1820012103F012FA7C212548E8
:1030C0000BF0C6FC23487C210BF0C2FC03E62B4925
:1030D000294810F02BFBC9E42949274810F026FBAA
:1030E000C4E42849244810F021FBBFE419482021FA
:1030F0000BF0AEFC01348BE7CA4352B2FAE6012072
:103100000DF0A2F8D5E60E2006F0D8F9FFF7C4B905
:10311000002006F0D3F9FFF79AB87C210BF098FC59
:103120000F487C210BF094FCB8E70F2006F0C6F99D
:10313000FFF7C5B90D2006F0C1F9FFF799B90320D3
:1031400006F0BCF9FFF7D0B8042006F0B7F9FFF796
:10315000E0B800BF2009001030AF0100BCCF010073
:10316000FC08001098CF0100C4CF0100F0CF01008F
:103170001CD00100C85A00109C500010285A0010A2
:10318000A05A0010505A0010012006F097F9FFF7DE
:1031900072B8022006F092F9FFF781B80B2006F012
:1031A0008DF9FFF741B90C2006F088F9FFF74EB909
:1031B000092006F083F9FFF711B90A2006F07EF91D
:1031C000FFF71FB9072006F079F9FFF7DFB80820ED
:1031D00006F074F9FFF7EEB806F070F9FFF7AFB834
:1031E000062006F06BF9FFF7BDB8002406E0FF21CA
:1031F0000BF02EFC0134282C3FF486ACBDF8A03037
:10320000574803EB8303DB0003F5FF437833B4EB4C
:10321000134F4FF02001EADB0BF01AFCEAE75148AC
:1032200020210BF015FC0134C9E6039D09F59854E3
:103230002EAA04F160002A99A267E56707F016FC40
:10324000D8B9636F7BB1DA7A02F01002D2B2F2B170
:10325000587D1A7DD97E9B7E42EA002243EA0123F3
:1032600043EA0243A366404D00212B6E05F1600046
:10327000DB88A5F864300CF013F904280AD0002884
:103280007EF4CEAE01200CF047FCFEF7CEBE05204A
:10329000FEF7C6BE0522FEF7C4BE2EA80CF054F9F8
:1032A00000287FF405AA339B1022DA729A221A763C
:1032B0003C225A76059F9DF820209DF824409F7659
:1032C000DA7683F814B05C759875D8752E9801235A
:1032D00003710DF00FF8FDF756B8416A8A427EF48B
:1032E00003AC002739463A463E46FEF703BC03F1DD
:1032F0002F0103F1700011F8016F02F8016B824297
:10330000F9D1FEF7E8BB0A22FEF71FBC0B22FEF73D
:103310001CBC0C22FEF719BC0D22FEF716BC0F22B6
:10332000FEF713BC0823FEF734B80122FEF70DBCEC
:103330000222FEF70ABC0322FEF707BC0422FEF7B6
:1033400004BC0522FEF701BC0622FEF7FEBB0722E5
:10335000FEF7FBBB0822FEF7F8BB0922FEF7F5BB20
:1033600020090010FC080010504D0010AFF3008041
:103370002DE9F04F4FF48043C5F200035A68B74C73
:103380009BB007949A60B64B1A7894F8373613922C
:1033900073B994F84B36D4F83C06013B052B28D87A
:1033A000DFE813F048032700500370038E032C005E
:1033B00094F84A26D4F83836C2F10102D2B251B29A
:1033C0004800C0F1010003FB00F0002A94F84B36DE
:1033D00025460CBF00246FF07F4485F84A26C5F8C7
:1033E0003446C5F83C06002B40F0F3834942A5F86B
:1033F0004416DDF81CC0BCF844360EE0079CD4F837
:10340000343694F94A26C3F34F23A4F8443622B93C
:10341000DB43924A9BB2A2F84436079DA3F50041D4
:10342000B5F840A609B201FB0AF1D5F83426079E8B
:1034300095F853568018090C884CC6F83406A6F83F
:103440004616002D40F0928394F86736D4F858C69B
:10345000013B052B00F2AB83DFE813F08003A903E7
:1034600060034003AD030600DDF81C90D9F8503628
:1034700099F96626C3F34F23A9F8603622B9DB43D6
:10348000764A9BB2A2F86036079CA3F50042B4F8D6
:103490005C8612B202FB08F2079DB4F82E3909B21D
:1034A0004C101214B5F84E091FFA82FE04FB03F308
:1034B000DDF81C904EF34E0606FB00F6D5F85006DC
:1034C00095F8EE5899F8FE481B14604415F0010772
:1034D00005F0020514BF9B464FF0000BC9F85006DB
:1034E000002D08BF002305F0FF0004F0020509903D
:1034F000301414F0010605F0FF04A9F862E618BFC5
:1035000083440A9405B11B18079DDDF81CC0B5F86B
:1035100034994FEA5A0ABCF9BC0609FB0AFAB5F815
:1035200054E909FB01F9B5F85259BCF832C94FEA20
:10353000580800F57F400EFB08F8079C05FB02F5D4
:10354000FF30A0EB1A4001FB0CFC0EFB02FE00EB6F
:103550002949B4F814092D14A0F50040A9EB184925
:10356000089005EB2C4509EB2E49B4F80609002F0D
:1035700040F03382002E40F03A82079C099EB4F856
:103580000CC9002E40F042820A9F002F40F0498271
:10359000079C324EB4F8182989F31009A2F50042AD
:1035A0001FFA89F90BF30F08CDF82890CDF8408069
:1035B00003F30F098CF31008CDF82C9080F3100161
:1035C000CDF8348005F30F09079609923746002499
:1035D0004FF02C0A0C91CDF83890B0460AFB048BC2
:1035E0000BF5A56BDBF8043098F8CE565FEA136C48
:1035F00040F020839BF82A20013A032A00F2E98157
:10360000DFE812F0CB01D8010400D801BBF822207A
:10361000BBF8141001FB02F2120C0AFB0489DBF860
:10362000001009F584695B18CBF80430BBF8200062
:10363000D9F8043012185FEA136EABF8242040F07A
:10364000F38299F82A20013A032A00F2C481DFE8C4
:1036500012F0970188010900880100BFC8500010CE
:103660005C070820B9F82220B9F8141001FB02F118
:10367000090CB9F82000D9F8002009189B18A9F8FE
:103680002410C9F80430B7F844B4DDF82090099844
:103690000BFB09F1DDF83890B6F8803609EB2141D3
:1036A0000BFB00FBC91804F0070281F31001DFF8DF
:1036B00068C4C943C1F30B11013205F008030CEBD8
:1036C000440941EA0232DBB2A9F810234FEA2B4B3E
:1036D000002B00F08D820C982A0600EB0B0358BFDC
:1036E000DDF834B083F3100300F1898205F00402A1
:1036F000D2B2002A00F08E82DDF840C005F0400210
:10370000A3F50041D2B26144002A00F08A82DDF8BC
:103710002CE0ABF5004CF444B6F868264FF0B00E40
:103720000EFB048005F0020E51185FFA8EFE15F0B4
:10373000010281F3100118BF9AB289B29BB2BEF1A7
:10374000000F01D14FF40043CDF804C008F0FAFD9A
:10375000B02101FB048005F01002B6F87416DDF804
:1037600004C0D2B26144583081F3100189B20AB169
:103770001FFA8BF205F02005EDB21FFA8BF30DB99D
:103780004FF4004308F0DEFDB7F84C250A9D05FB19
:1037900002F2120C82F3100202EB4202C2F3DB02CD
:1037A0001202C2F30743120AFF2B08BF4FF4FF7146
:1037B00002D0591CC9B249004DF6705CC0F2010C30
:1037C0000CEB43036144B3F80034B1F80014D2B2F7
:1037D000C91A02FB01F203EB12230134C3F30B13EA
:1037E00043EA04332C370236062CA9F800337FF461
:1037F000F5AE0798139C0C9D102C079E099F00683E
:1038000034BF4FF01F084FF00F0834BF4FF01009BE
:103810004FF000090A90C6F8DC56C6F8E076CDF8FD
:103820002480CDF83090BB4A002800F01782116B3D
:10383000906A536D88421091B4BF00210121A3B159
:103840000C1D8B1D02EB840402EB830364685B6830
:10385000D568E31AC3181469D669176A93620023FE
:1038600055609460566197615365079C4DF670559D
:10387000276DC0F2010504EB810105EB8703B3F866
:1038800000364E68A168E06C626A08930B91A369E8
:10389000079D646807996D69C96A0E94DDF81C80FC
:1038A000079C0D9313951491636BA16BE56BD8F88E
:1038B00028B0246C002841F01B84DDF830900F9074
:1038C00009EB490C07EB8C0C934F07EB4C0C4F4664
:1038D0002FE0C1EB050AC3EB04081003CAEB08088C
:1038E000B0FBF6F0CAEB680808FB00F803EB4A0AE5
:1038F00001EB0409AAEB690909EB283808FB00F879
:10390000C3EB05094FEA690909EB283909FB00F007
:10391000DDF8209001EB203080F31000C0F30B1095
:1039200049EA00002CF8180B09980137B842C0F298
:103930008781A2F52F42C83ACBD510988345ABBFFB
:103940000D9813980B9E0E9EBBEB000B324401F1B9
:103950001687DDF828802C460D46194638F81B30AE
:10396000B7E799F92620C3F30F20002A41F0C48756
:10397000B9F82220C14389B202FB01F1090C78E6B3
:1039800099F92620C3F30F20002A41F0D987B9F80E
:10399000221001FB00F1090C6BE69BF92620002A9E
:1039A00041F0B287C3F30F22BBF8221001FB02F2F1
:1039B000120C32E69BF92620002A41F0C987C3F396
:1039C0000F22BBF82210D24392B201FB02F2120C7A
:1039D00023E6002221E600214BE64E4FB7F830796E
:1039E00007FB01F700EB2740002E3FF4C6ADDDF8E2
:1039F0001C80079CB8F85069B4F80CC906FB02F6A5
:103A000000EB2640099E002E3FF4BEAD414E0A9FBA
:103A1000B6F8306906FB01F10CEB214C002F3FF4A6
:103A2000B7ADDDF81C80B8F8501901FB02F20CEBC1
:103A3000224CADE5079CD4F83436C3F30F23A4F829
:103A40004436EAE4079DD5F83426C2F30743120A48
:103A5000FF2B08BF4FF4FF7102D0591CC9B24900B7
:103A6000079ED2B206EB43037118B3F8E436B1F8FF
:103A7000E416C91A02FB01F203EB12239BB2A6F86B
:103A80004436CAE4DDF81C80B8F84216D8F830266F
:103A9000090B130E5C0984EAD31401395C4084EAF3
:103AA0005303C9B203F00103FF2943EA4202F0D1F4
:103AB000DDF81C9093B2C9F83026A9F84436ACE47E
:103AC000DDF81CC0DCF834369CF94A26C3F34F23DA
:103AD000ACF84436002A3FF4A0AC99E4079DB5F851
:103AE0005E06D5F84C26000B130E5C0984EAD3144D
:103AF00001385C4084EA5303C0B203F00103FF289D
:103B000043EA4202F0D1079E93B2C6F84C26A6F8CB
:103B10006036B9E4C850001060070820079ED6F848
:103B20005026C2F30743120AFF2B08BF4FF4FF7061
:103B300002D0581CC0B24000079CD2B204EB430331
:103B40002018B3F8E436B0F8E406C01A02FB00F21D
:103B500003EB12239BB2A4F8603695E4079DD5F8D9
:103B60005036C3F30F23A5F860368DE494F866262B
:103B7000D6F85436C2F10102D2B250B24FEA400C2C
:103B8000CCF1010C03FB0CFC002A96F867360CBF45
:103B900000256FF07F4584F86626C6F85056C6F8B3
:103BA00058C6002B41F0F3864042A4F86006079CFB
:103BB000B4F8603668E4DDF81C80D8F8503698F91F
:103BC0006626C3F34F23A8F86036002A3FF45CACA6
:103BD00055E4022B7FF4E1AB14F002FFDDF81C800A
:103BE000A8F8440698F84B36D8F83C06FFF7D5BB42
:103BF0002A060C9B58BFDDF834B07FF577ADDDF8B1
:103C000034C005F00402D2B2E3448BF3100B002A57
:103C10007FF472AD05F04002D2B21099002A7FF411
:103C200076ADDDF82CC077E5484608F00FFED9F8F0
:103C3000043006E5584608F009FEDBF80430D9E404
:103C4000DDF81CC0CCF82420CCF83430CCF8381087
:103C5000CCF83C50CCF84040CCF828B007980799F5
:103C6000D0F8D006896D0F9C10900B91C34A04EADE
:103C70000009002900F0C480D2F88850D2F88040B2
:103C8000D2F8AC30AC420D95B4BF00210121B3B1E4
:103C90000D1D8B1D02EB850502EB8303ED6DDB6DC6
:103CA000506EEB1AE318956E576F966FC2F880301E
:103CB0000023D0651566D7661667C2F8AC30DDF80C
:103CC0001C804DF67055D8F8A870C0F20105D8F8E0
:103CD000A40008EB810105EB8702C96DB2F800264C
:103CE0000690D8F87000D8F86060D8F88440089141
:103CF0000A92D8F85C10D8F86C20DDF830C00F902C
:103D00000698D8F87C300E96139114921994D8F82E
:103D10008050D8F88C20D8F89010D8F89460D8F853
:103D200098400CEB4C0807EB8808002841F0808194
:103D3000934800EB480848464BE04FF0FF354008F9
:103D40002B460D9CA542ABBF0F9C149C0E9F139F4E
:103D50002D1B08973B4401F10E85DDF82C9034466D
:103D60000E46114639F81520C1EB060B089FC2EB31
:103D70000409CBEB09094FEA033ABAFBF7FACBEB9C
:103D8000690909FB0AF9CDF860A002EB4B0B01EBC6
:103D9000040AABEB6A0A189F0AEB293909FB07F9F9
:103DA000C2EB060A4FEA6A0A0AEB293A0AFB07F74E
:103DB000DDF8289001EB273787F31007C7F30B17BF
:103DC00049EA070728F8187B099F0CF1010C6745A1
:103DD00008DBA3F52F43C83BC707AED44008002B30
:103DE000C2DAAEE7DDF81C80C8F87C30C8F8805035
:103DF000C8F88C20C8F89010C8F89460C8F89840AB
:103E000007985E4AD0F8B0000A90002800F0C880F9
:103E1000D2F8E010D2F8D800D2F8043188420B91E1
:103E2000B4BF0021012103B30C1D8B1D02EB8404E0
:103E300002EB8303D4F8B440D3F8B430D2F8BC50CA
:103E4000E31AC318D2F8C040D2F8CC60D2F8D070D0
:103E5000C2F8D8300023C2F8B450C2F8B840C2F853
:103E6000C460C2F8C870C2F80431079C4DF67055A2
:103E7000D4F80071C0F2010504EB810105EB870362
:103E8000B3F80036D1F8B460D4F8B810D4F8FC0018
:103E9000D4F8D42008930D91D4F8C830079DD4F8F5
:103EA000B4400799D5F8C450D1F8DC100F94DDF870
:103EB0001C80079C0E9313951491D4F8E430D4F829
:103EC000E810D4F8EC50D8F8D8B0D4F8F040002876
:103ED00041F05280DDF83090119009EB490C07EB6E
:103EE0008C0C274F07EB4C0C4F462EE0C1EB050A1C
:103EF000C3EB04081003CAEB0808B0FBF6F0CAEBEA
:103F0000680808FB00F803EB4A0A01EB0409AAEB76
:103F1000690909EB283808FB00F8C3EB05094FEAEB
:103F2000690909EB283909FB00F0DDF8209001EB65
:103F3000203080F31000C0F30B1049EA00002CF889
:103F4000180B0998013787421CDCA2F52F42C83AAA
:103F5000CCD50B985845D5BF0E9813980D9E0F9E43
:103F6000BBEB000B324401F11B84DDF828802C46AA
:103F70000D46194638F81B30B8E700BFC85000108E
:103F800060070820DDF81CC0CCF8D420CCF8E43061
:103F9000CCF8E810CCF8EC50CCF8F040CCF8D8B025
:103FA0000798119CD0F8080110990B9004EA0109B8
:103FB000C74A002800F0CF80D2F83851D2F83041FB
:103FC000D2F85C31AC420D95B4BF0021012103B39E
:103FD0000D1D8B1D02EB850502EB8303D5F80C51FB
:103FE000D3F80C31D2F81401EB1AE318D2F81851B7
:103FF000D2F82471D2F82861C2F830310023C2F817
:104000000C01C2F81051C2F81C71C2F82061C2F84C
:104010005C31DDF81C804DF67055D8F85871C0F24F
:104020000105D8F8540108EB810105EB8702D1F8AE
:104030000C11B2F800260590D8F82001D8F81061CC
:10404000D8F8344108910A92D8F80C11D8F81C21FC
:10405000DDF830C00F900598D8F82C310E961191EC
:1040600013921894D8F83051D8F83C21D8F8401160
:10407000D8F84461D8F848410CEB4C0807EB8808A5
:10408000002840F01987934800EB480848464BE069
:104090004FF0FF3540082B460D9CAC42D5BF0F9C1E
:1040A000139C0E9F119F2D1B08973B4401F1E98340
:1040B000DDF82C9034460E46114639F81520C1EB38
:1040C000060B089FC2EB0409CBEB09094FEA033A40
:1040D000BAFBF7FACBEB690909FB0AF9CDF850A056
:1040E00002EB4B0B01EB040AABEB6A0A149F0AEBE1
:1040F000293909FB07F9C2EB060A4FEA6A0A0AEBFB
:10410000293A0AFB07F7DDF8289001EB273787F3F8
:104110001007C7F30B1749EA070728F8187B099F10
:104120000CF1010C674508DBA3F52F43C83BC7071B
:10413000AED44008002BC2DAAEE7DDF81C80C8F828
:104140002C31C8F83051C8F83C21C8F84011C8F8E3
:104150004461C8F8484107985D4AD0F860010A9068
:10416000002800F0C780D2F89011D2F88801D2F868
:10417000B43188420B91B4BF0021012103B30C1D5F
:104180008B1D02EB840402EB8303D4F86441D3F863
:104190006431D2F86C51E31AC318D2F87041D2F8E6
:1041A0007C61D2F88071C2F888310023C2F8645172
:1041B000C2F86841C2F87461C2F87871C2F8B431CB
:1041C000079C4DF67055D4F8B071C0F2010504EBB0
:1041D000810105EB8703B3F80036D1F86461D4F8A8
:1041E0006811D4F8AC01D4F8842108930D91D4F867
:1041F0007831079DD4F864410799D5F87451D1F806
:104200008C110F94DDF81C80079C0E93119513916F
:10421000D4F89431D4F89811D4F89C51D8F888B1D6
:10422000D4F8A041002841F09D81DDF83090129033
:1042300009EB490C07EB8C0C264F07EB4C0C4F4657
:104240002EE0C1EB050AC3EB04081003CAEB080813
:10425000B0FBF6F0CAEB680808FB00F803EB4A0A6B
:1042600001EB0409AAEB690909EB283808FB00F8FF
:10427000C3EB05094FEA690909EB283909FB00F08E
:10428000DDF8209001EB203080F31000C0F30B101C
:1042900049EA00002CF8180B09980137B8421BDBDB
:1042A000A2F52F42C83ACCD50B985845D5BF0E98E9
:1042B00011980D9E0F9EBBEB000B324401F1B282B0
:1042C000DDF828802C460D46194638F81B30B8E733
:1042D000C850001060070820DDF81CC0CCF884210D
:1042E000CCF89431CCF89811CCF89C51CCF8A04182
:1042F000CCF888B10798129CD0F8B80110990B90AF
:1043000004EA0109C74A002800F0CF80D2F8E8513A
:10431000D2F8E041D2F80C32AC420D95B4BF002186
:10432000012103B30D1D8B1D02EB850502EB8303F9
:10433000D5F8BC51D3F8BC31D2F8C401EB1AE3185C
:10434000D2F8C851D2F8D471D2F8D861C2F8E031AD
:104350000023C2F8BC01C2F8C051C2F8CC71C2F847
:10436000D061C2F80C32DDF81C804DF67055D8F8DB
:104370000872C0F20105D8F8040208EB810105EBD0
:104380008702D1F8BC11B2F800260490D8F8D00109
:10439000D8F8C061D8F8E44108910A92D8F8BC1165
:1043A000D8F8CC21DDF830C012900498D8F8DC3170
:1043B0000E960F9111921494D8F8E051D8F8EC2190
:1043C000D8F8F011D8F8F461D8F8F8410CEB4C08A3
:1043D00007EB8808002841F06580934800EB480807
:1043E00048464BE04FF0FF3540082B460D9CAC4251
:1043F000D5BF129C119C0E9F0F9F2D1B08973B440D
:1044000001F12582DDF82C9034460E46114639F82C
:104410001520C1EB060B089FC2EB0409CBEB090981
:104420004FEA033ABAFBF7FACBEB690909FB0AF941
:10443000CDF84CA002EB4B0B01EB040AABEB6A0A84
:10444000139F0AEB293909FB07F9C2EB060A4FEA69
:104450006A0A0AEB293A0AFB07F7DDF8289001EB14
:10446000273787F31007C7F30B1749EA070728F820
:10447000187B099F0CF1010C674508DBA3F52F435E
:10448000C83BC707AED44008002BC2DAAEE7DDF860
:104490001C80C8F8DC31C8F8E051C8F8EC21C8F835
:1044A000F011C8F8F461C8F8F84107985D4AD0F8EF
:1044B00010020A90002800F0C780D2F84012D2F80B
:1044C0003802D2F8643288420B91B4BF0021012136
:1044D00003B30C1D8B1D02EB840402EB8303D4F8A1
:1044E0001442D3F81432D2F81C52E31AC318D2F88B
:1044F0002042D2F82C62D2F83072C2F8383200234F
:10450000C2F81452C2F81842C2F82462C2F82872E3
:10451000C2F86432079C4DF67055D4F86072C0F250
:10452000010504EB810105EB8703B3F80036D1F8F0
:104530001462D4F81812D4F85C02D4F83422089328
:104540000D91D4F82832079DD4F814420799D5F874
:104550002452D1F83C121294DDF81C80079C0E9373
:104560000F951191D4F84432D4F84812D4F84C5233
:10457000D8F838B2D4F85042002841F04B80DDF82A
:104580003090159009EB490C07EB8C0C264F07EB8C
:104590004C0C4F462EE0C1EB050AC3EB0408100398
:1045A000CAEB0808B0FBF6F0CAEB680808FB00F895
:1045B00003EB4A0A01EB0409AAEB690909EB283865
:1045C00008FB00F8C3EB05094FEA690909EB283934
:1045D00009FB00F0DDF8209001EB203080F31000A3
:1045E000C0F30B1049EA00002CF8180B09980137AA
:1045F000B8421BDBA2F52F42C83ACCD50B985845E0
:10460000D5BF0E980F980D9E129EBBEB000B324447
:1046100001F1F780DDF828802C460D46194638F860
:104620001B30B8E7C850001060070820DDF81CC038
:10463000CCF83422CCF84432CCF84812CCF84C52A6
:10464000CCF85042CCF838B20798159CD0F86802E4
:1046500010990B9004EA0109C74A002800F0CF80A6
:10466000D2F89852D2F89042D2F8BC32AC420D95B2
:10467000B4BF0021012103B30D1D8B1D02EB850585
:1046800002EB8303D5F86C52D3F86C32D2F8740283
:10469000EB1AE318D2F87852D2F88472D2F8886212
:1046A000C2F890320023C2F86C02C2F87052C2F80D
:1046B0007C72C2F88062C2F8BC32DDF81C804DF614
:1046C0007055D8F8B872C0F20105D8F8B40208EBFA
:1046D000810105EB8702D1F86C12B2F80026039035
:1046E000D8F88002D8F87062D8F8944208910A92FB
:1046F000D8F86C12D8F87C22DDF830C012900398FC
:10470000D8F88C320E960F9111921394D8F89052DB
:10471000D8F89C22D8F8A012D8F8A462D8F8A842F9
:104720000CEB4C0807EB8808002840F039859348CB
:1047300000EB480848464BE04FF0FF3540082B4659
:104740000D9CAC42D5BF129C119C0E9F0F9F2D1B40
:1047500008973B4401F17780DDF82C9034460E46F3
:10476000114639F81520C1EB060B089FC2EB04096E
:10477000CBEB09094FEA033ABAFBF7FACBEB69092D
:1047800009FB0AF9CDF850A002EB4B0B01EB040A30
:10479000ABEB6A0A149F0AEB293909FB07F9C2EB54
:1047A000060A4FEA6A0A0AEB293A0AFB07F7DDF81C
:1047B000289001EB273787F31007C7F30B1749EA57
:1047C000070728F8187B099F0CF1010C674508DBE7
:1047D000A3F52F43C83BC707AED44008002BC2DA6D
:1047E000AEE7DDF81C80C8F88C32C8F89052C8F8E3
:1047F0009C22C8F8A012C8F8A462C8F8A84207987A
:104800005D4AD0F8C0020A90002800F0C780D2F8B4
:10481000F012D2F8E802D2F8143388420B91B4BFF8
:104820000021012103B30C1D8B1D02EB840402EB5C
:104830008303D4F8C442D3F8C432D2F8CC52E31A7A
:10484000C318D2F8D042D2F8DC62D2F8E072C2F8D3
:10485000E8320023C2F8C452C2F8C842C2F8D46297
:10486000C2F8D872C2F81433079C4DF67055D4F8CC
:104870001073C0F2010504EB810105EB8703B3F867
:104880000036D1F8C462D4F8C812D4F80C03D4F8B6
:10489000E42208930D91D4F8D832079DD4F8C4428D
:1048A0000799D5F8D452D1F8EC121294DDF81C8097
:1048B000079C0E930F951191D4F8F432D4F8F812A6
:1048C000D4F8FC52D8F8E8B2D4F80043002840F0FD
:1048D000F986DDF83090179009EB490C07EB8C0C4A
:1048E000264F07EB4C0C4F462EE0C1EB050AC3EBFD
:1048F00004081003CAEB0808B0FBF6F0CAEB68081E
:1049000008FB00F803EB4A0A01EB0409AAEB69096A
:1049100009EB283808FB00F8C3EB05094FEA6909E1
:1049200009EB283909FB00F0DDF8209001EB20307D
:1049300080F31000C0F30B1049EA00002CF8180BAC
:1049400009980137B8421BDBA2F52F42C83ACCD5F3
:104950000B985845D5BF0E980F980D9E129EBBEB35
:10496000000B324400F1A187DDF828802C460D466B
:10497000194638F81B30B8E7C85000106007082007
:10498000DDF81CC0CCF8E422CCF8F432CCF8F812F4
:10499000CCF8FC52CCF80043CCF8E8B20798179C4E
:1049A000D0F8180310990B9004EA0109C74A0028AF
:1049B00000F0CF80D2F84853D2F84043D2F86C339D
:1049C000AC420D95B4BF0021012103B30D1D8B1D19
:1049D00002EB850502EB8303D5F81C53D3F81C3397
:1049E000D2F82403EB1AE318D2F82853D2F8347320
:1049F000D2F83863C2F840330023C2F81C03C2F86F
:104A00002053C2F82C73C2F83063C2F86C33DDF85F
:104A10001C804DF67055D8F86873C0F20105D8F8BF
:104A2000640308EB810105EB8702D1F81C13B2F88F
:104A300000260290D8F83003D8F82063D8F8444311
:104A400008910A92D8F81C13D8F82C23DDF830C04E
:104A500012900298D8F83C330E960F911192179449
:104A6000D8F84053D8F84C23D8F85013D8F85463EA
:104A7000D8F858430CEB4C0807EB8808002840F0A6
:104A8000B184934800EB480848464BE04FF0FF35AF
:104A900040082B460D9CAC42D5BF129C119C0E9F2A
:104AA0000F9F2D1B08973B4400F19686DDF82C9054
:104AB00034460E46114639F81520C1EB060B089F07
:104AC000C2EB0409CBEB09094FEA033ABAFBF7FA48
:104AD000CBEB690909FB0AF9CDF84CA002EB4B0BB3
:104AE00001EB040AABEB6A0A139F0AEB293909FBB5
:104AF00007F9C2EB060A4FEA6A0A0AEB293A0AFBEF
:104B000007F7DDF8289001EB273787F31007C7F385
:104B10000B1749EA070728F8187B099F0CF1010CCD
:104B2000674508DBA3F52F43C83BC707AED4400851
:104B3000002BC2DAAEE7DDF81C80C8F83C33C8F8B9
:104B40004053C8F84C23C8F85013C8F85463C8F849
:104B5000584307985D4AD0F870030A90002800F087
:104B6000C780D2F8A013D2F89803D2F8C433884291
:104B70000B91B4BF0021012103B30C1D8B1D02EB6F
:104B8000840402EB8303D4F87443D3F87433D2F86B
:104B90007C53E31AC318D2F88063D2F88C43D2F85E
:104BA0009073C2F898330023C2F87453C2F8786344
:104BB000C2F88443C2F88873C2F8C433079C4DF628
:104BC0007055D4F8C073C0F2010504EB810105EB08
:104BD0008703B3F80036D1F87463D4F87813D4F8A7
:104BE000BC03D4F8942308930D91D4F88833079D1F
:104BF000D4F874430799D5F88453D1F89C131294D0
:104C0000DDF81C80079C0E930F951191D4F8A43306
:104C1000D4F8A813D4F8AC53D8F898B3D4F8B04368
:104C2000002840F08783DDF83090169009EB490C9E
:104C300007EB8C0C264F07EB4C0C4F462EE0C1EBDC
:104C4000050AC3EB04081003CAEB0808B0FBF6F032
:104C5000CAEB680808FB00F803EB4A0A01EB0409F9
:104C6000AAEB690909EB283808FB00F8C3EB050932
:104C70004FEA690909EB283909FB00F0DDF82090BB
:104C800001EB203080F31000C0F30B1049EA000064
:104C90002CF8180B09980137B8421BDBA2F52F42FC
:104CA000C83ACCD50B985845D5BF0E980F980D9E95
:104CB000129EBBEB000B324400F19285DDF8288098
:104CC0002C460D46194638F81B30B8E7C85000107E
:104CD00060070820DDF81CC0CCF89423CCF8A4337E
:104CE000CCF8A813CCF8AC53CCF8B043CCF898B3BC
:104CF0000798169CD0F8C80310990B900B9D04EAF6
:104D00000100A54A002D00F0D480D2F8F863D2F853
:104D1000F043D2F81C34B4421096B4BF00210121F4
:104D200003B30D1D8B1D02EB850502EB8303D5F844
:104D3000CC53D3F8CC33D2F8D873EB1AE318C2F8BB
:104D4000F033D2F8D433D2F8E453D2F8E843C2F8BF
:104D5000CC330023C2F8D073C2F8DC53C2F8E0436E
:104D6000C2F81C34079D4DF67057D5F818C4C0F230
:104D7000010707EB8C02B2F80026079F05EB8101C3
:104D8000DDF81C80D5F8CC43D7F8F473D5F814645B
:104D9000D1F8CCB3D5F8EC33D5F8D0130892D5F8C8
:104DA000E023D5F8DC530D910E9212940F951697CF
:104DB000D8F8F053D8F8FC23D8F80014D8F80474C5
:104DC000D8F80844002E40F04B82DDF83090CDF842
:104DD00028B009EB49060CEB860C704E06EB4C0C28
:104DE000E346CC464EE04FF0FF3540082B46109C82
:104DF000AC42D5BF0E9C0F9C0D9E129E2D1B0A9699
:104E0000334400F14E85DDF82C803C460F461146B8
:104E100038F81520C1EB070A0A9EC2EB0408CAEB5A
:104E200008084FEA0339B9FBF6F9CAEB680808FB32
:104E300009F8CDF8309002EB4A0A01EB0409AAEB1D
:104E4000690909EB2838DDF830900CF1010C08FBFA
:104E500009F8C2EB07094FEA690909EB2839DDF8BF
:104E6000308009FB08F6DDF8209001EB263686F34A
:104E70001006C6F30B1649EA06062BF8186B099EB6
:104E8000664508DBA3F52F43C83BC607ABD44008F3
:104E9000002BBFDAABE7DDF81C80C8F8EC33C8F8AC
:104EA000F053C8F8FC23C8F80014C8F80474C8F814
:104EB00008441BB0BDE8F08F384800EB480848466E
:104EC00051E04FF0FF3540082B460D99A942D9BF5C
:104ED0000F990E9C119E1399D5BF2746374608940B
:104EE00008966D1A48BF18990B9E144648BF6D1856
:104EF00036F81520DB1921462646C1EB060B089F24
:104F0000C2EB0409CBEB09094FEA033ABAFBF7FA03
:104F1000CBEB690909FB0AF9CDF850A002EB4B0B6A
:104F200001EB040AABEB6A0A149F0AEB293909FB6F
:104F300007F9C2EB060A4FEA6A0A0AEB293A0AFBAA
:104F400007F7DDF8289001EB273787F31007C7F341
:104F50000B1749EA070728F8187B099F0CF1010C89
:104F6000BC453FF7EAA8A3F52F43C83BC707A8D421
:104F70004008002BC1DAA8E7DDF83080DFF81C908C
:104F800008EB480C07EB8C0C47464FF0000809EB88
:104F90004C0CCDF8448034E0C85000106007082065
:104FA000C1EB050AC3EB04081003CAEB0808B0FB09
:104FB000F6F0CAEB680808FB00F803EB4A0A01EBBD
:104FC0000409AAEB690909EB283808FB00F8C3EBD0
:104FD00005094FEA690909EB283909FB00F0DDF8FA
:104FE0002080DDF8249001EB2030013780F31000A1
:104FF000C0F30B1048EA00004F452CF8180B3EF7A1
:10500000C1AFA2F52F42C83ACAD50B985845D5BFB3
:105010000E9913990D9E0F9EBBEB010B324400F1CC
:1050200034840A9D1C46214635F81B302546B7E7D7
:10503000BF4800EB4808484651E04FF0FF354008B4
:105040002B460D99A942D9BF0F990E9C139E149916
:10505000D5BF27463746089408966D1A48BF199958
:105060000B9E144648BF6D1836F81520DB192146F3
:105070002646C1EB060B089FC2EB0409CBEB0909DE
:105080004FEA033ABAFBF7FACBEB690909FB0AF9D5
:10509000CDF860A002EB4B0B01EB040AABEB6A0A04
:1050A000189F0AEB293909FB07F9C2EB060A4FEAF8
:1050B0006A0A0AEB293A0AFB07F7DDF8289001EBA8
:1050C000273787F31007C7F30B1749EA070728F8B4
:1050D000187B099F0CF1010CBC453EF783AEA3F58C
:1050E0002F43C83BC707A8D44008002BC1DAA8E764
:1050F000DDF83080DFF8389208EB480C07EB8C0CB9
:1051000047464FF0000809EB4C0CCDF83C8030E0EE
:10511000C1EB050AC3EB04081003CAEB0808B0FB97
:10512000F6F0CAEB680808FB00F803EB4A0A01EB4B
:105130000409AAEB690909EB283808FB00F8C3EB5E
:1051400005094FEA690909EB283909FB00F0DDF888
:105150002080DDF8249001EB2030013780F310002F
:10516000C0F30B1048EA00004F452CF8180B3EF72F
:1051700067ADA2F52F42C83ACAD510985845D5BF99
:105180000D9913990B9E0E9EBBEB010B324400F15F
:1051900062830A9D1C46214635F81B302546B7E739
:1051A000634800EB4808484651E04FF0FF3540089F
:1051B0002B460D99A942D9BF12990E9C0F9E1199A9
:1051C000D5BF27463746089408966D1A48BF1399ED
:1051D0000B9E144648BF6D1836F81520DB19214682
:1051E0002646C1EB060B089FC2EB0409CBEB09096D
:1051F0004FEA033ABAFBF7FACBEB690909FB0AF964
:10520000CDF850A002EB4B0B01EB040AABEB6A0AA2
:10521000149F0AEB293909FB07F9C2EB060A4FEA8A
:105220006A0A0AEB293A0AFB07F7DDF8289001EB36
:10523000273787F31007C7F30B1749EA070728F842
:10524000187B099F0CF1010CBC453FF7CAAAA3F5D6
:105250002F43C83BC707A8D44008002BC1DAA8E7F2
:10526000DDF83080DFF8C89008EB48060CEB860CC0
:1052700009EB4C0CCDF830B050E04FF0FF35400852
:105280002B4610990B9FA942CDBF129E0D9C0E99E3
:105290000F99CABF34460C940C966D1A48BF169EDF
:1052A000234448BFAD191446214637F81520274638
:1052B000C1EB070B0C9EC2EB0409CBEB09094FEACB
:1052C000033ABAFBF6FACBEB690909FB0AF9CDF808
:1052D00028A002EB4B0B01EB040AABEB6A0A0A9E17
:1052E0000AEB293909FB06F9C2EB070A4FEA6A0AF9
:1052F0000AEB293A0AFB06F6DDF8209001EB263688
:1053000086F31006C6F30B1649EA06062CF8186B4E
:10531000099E08F10108B0453FF7BDADA3F52F4345
:10532000C83BC607A9D44008002BC1DAA9E700BFD3
:1053300060070820DDF83080DFF8A89308EB480C00
:1053400007EB8C0C47464FF0000809EB4C0CCDF8EE
:10535000588030E0C1EB050AC3EB04081003CAEB28
:105360000808B0FBF6F0CAEB680808FB00F803EB8E
:105370004A0A01EB0409AAEB690909EB283808FB82
:1053800000F8C3EB05094FEA690909EB283909FB65
:1053900000F0DDF82080DDF8249001EB20300137AB
:1053A00080F31000C0F30B1048EA00004F452CF8C2
:1053B000180B3FF78FACA2F52F42C83ACAD50B980D
:1053C0005845D5BF0E990F990D9E129EBBEB010B50
:1053D000324400F17B820A9D1C46214635F81B3081
:1053E0002546B7E7BF4800EB4808484651E04FF074
:1053F000FF3540082B460D99A942D9BF12990E9C42
:105400000F9E1199D5BF27463746089408966D1A06
:1054100048BF17990B9E144648BF6D1836F81520E3
:10542000DB1921462646C1EB060B089FC2EB040997
:10543000CBEB09094FEA033ABAFBF7FACBEB690960
:1054400009FB0AF9CDF84CA002EB4B0B01EB040A67
:10545000ABEB6A0A139F0AEB293909FB07F9C2EB88
:10546000060A4FEA6A0A0AEB293A0AFB07F7DDF84F
:10547000289001EB273787F31007C7F30B1749EA8A
:10548000070728F8187B099F0CF1010CBC453FF772
:1054900052ABA3F52F43C83BC707A8D44008002B45
:1054A000C1DAA8E78F4800EB4808484651E04FF0C2
:1054B000FF3540082B460D99A942D9BF12990E9C81
:1054C0000F9E1199D5BF27463746089408966D1A46
:1054D00048BF14990B9E144648BF6D1836F8152026
:1054E000DB1921462646C1EB060B089FC2EB0409D7
:1054F000CBEB09094FEA033ABAFBF7FACBEB6909A0
:1055000009FB0AF9CDF84CA002EB4B0B01EB040AA6
:10551000ABEB6A0A139F0AEB293909FB07F9C2EBC7
:10552000060A4FEA6A0A0AEB293A0AFB07F7DDF88E
:10553000289001EB273787F31007C7F30B1749EAC9
:10554000070728F8187B099F0CF1010CBC453EF7B2
:105550009EAFA3F52F43C83BC707A8D44008002B34
:10556000C1DAA8E7DDF83080DFF8789108EB480C65
:1055700007EB8C0C47464FF0000809EB4C0CCDF8BC
:10558000488030E0C1EB050AC3EB04081003CAEB06
:105590000808B0FBF6F0CAEB680808FB00F803EB5C
:1055A0004A0A01EB0409AAEB690909EB283808FB50
:1055B00000F8C3EB05094FEA690909EB283909FB33
:1055C00000F0DDF82080DDF8249001EB2030013779
:1055D00080F31000C0F30B1048EA00004F452CF890
:1055E000180B3EF779AEA2F52F42C83ACAD50B98F0
:1055F0005845D5BF0E9911990D9E0F9EBBEB010B1F
:10560000324400F133810A9D1C46214635F81B3097
:105610002546B7E7DDF83080DFF8C89008EB480C86
:1056200007EB8C0C47464FF0000809EB4C0CCDF80B
:10563000548030E0C1EB050AC3EB04081003CAEB49
:105640000808B0FBF6F0CAEB680808FB00F803EBAB
:105650004A0A01EB0409AAEB690909EB283808FB9F
:1056600000F8C3EB05094FEA690909EB283909FB82
:1056700000F0DDF82080DDF8249001EB20300137C8
:1056800080F31000C0F30B1048EA00004F452CF8DF
:10569000180B3EF7CBAFA2F52F42C83ACAD50B98EC
:1056A0005845D5BF0E990F990D9E129EBBEB010B6D
:1056B000324400F116810A9D1C46214635F81B3004
:1056C0002546B7E7DDF83080DFF8189008EB480C86
:1056D00007EB8C0C47464FF0000809EB4C0CCDF85B
:1056E0005C8032E060070820C1EB050AC3EB0408C8
:1056F0001003CAEB0808B0FBF6F0CAEB680808FB19
:1057000000F803EB4A0A01EB0409AAEB690909EB6B
:10571000283808FB00F8C3EB05094FEA690909EBD3
:10572000283909FB00F0DDF82080DDF8249001EB3A
:105730002030013780F31000C0F30B1048EA00005E
:105740004F452CF8180B3FF71BA9A2F52F42C83A7A
:10575000CAD50B985845D5BF0E990F990D9E129E2C
:10576000BBEB010B32442CD40A9D1C46214635F874
:105770001B302546B8E7199C2D19FEF7EEBADDF867
:1057800030900124C9EB070004FA00F0DDF83C80FA
:10579000149C48EA0008A344CDF83C80FEF7D9B831
:1057A000DDF830900124C9EB070004FA00F0DDF8C1
:1057B0004480149C48EA0008A344CDF84480FEF7D6
:1057C000D4BB0C9C0125391B05FA01F1179C1198DB
:1057D0000C4383441794C7E7179C2D19FFF766B94C
:1057E000DDF830900124C9EB070004FA00F0DDF881
:1057F0005880119C48EA0008A344CDF85880FFF770
:105800005DBADDF830900124C9EB070004FA00F01E
:10581000DDF85480119C48EA0008A344CDF8548078
:10582000FEF7F8BEDDF830900124C9EB070004FA5A
:1058300000F0DDF84880139C48EA0008A344CDF846
:105840004880FEF73DBD139C2D19FEF785BF149CC3
:105850002D19FEF7D7BD0C9C0125391B05FA01F166
:105860000F9C14980C4383440F9492E40C9C0125E4
:10587000391B05FA01F1129C13980C4383441294CE
:10588000C1E6189C2D19FEF713BC0C9C0125391B91
:1058900005FA01F1119C14980C4383441194FFF70D
:1058A000C0BB169C2D19FFF7AEBADDF8309001246D
:1058B000C9EB070004FA00F0DDF85C80119C48EAAF
:1058C0000008A344CDF85C80FFF74EB80C9C01257E
:1058D000391B05FA01F1169C11980C438344169468
:1058E00079E50C9C0125391B05FA01F1159C1198ED
:1058F0000C4383441594DEE618462B49019300F0CF
:10590000D9FD019BFEF734B8C3F30742190AFF2AF9
:1059100008BF4FF4FF7002D0501CC0B240004DF6DB
:105920007059C0F2010939F8122039F80000C9B2E3
:10593000801A01FB00F102EB112292B2FEF734B89B
:1059400018461A49019300F0B5FD019BFEF71FB8F8
:10595000C3F30742190AFF2A08BF4FF4FF7002D0B1
:10596000501CC0B240004DF6705CC0F2010C0CEB54
:1059700042026044B2F80022B0F80002C9B2801AB4
:1059800001FB00F102EB112292B2FEF71AB8022BD2
:105990007DF45EAD13F024F8B4F84616A4F8600662
:1059A000B4F840A6FDF750BD70DF010070DD0100C6
:1059B0004AF6AB23CAF6AA23F0B4A3FB0143DB08E3
:1059C0001D460133072D294C3ADC05EB45055BB23A
:1059D00000EB4505072B34F815502ADD00F12A06A7
:1059E000243034F8166034F81040073B341B03FBB6
:1059F00004644FF6FF739C4228BF1C46A4B24AF6CB
:105A0000AB23CAF6AA23A3FB0160C00800EB400049
:105A1000A1EB8001C9B2090401EB0222A3FB02132E
:105A2000611BDB0803FB01F305EB134080B2F0BC04
:105A3000704703EB430300EB430034F81040DEE70C
:105A400000F12A0600F1240734F8166034F81770C4
:105A5000073DF71B07FB05655BB24FF6FF76B542C6
:105A600028BF3546072BADB2B8DCE2E72050001066
:105A700002EB012290B2704702EB012290B2704714
:105A800003880A88934202D003D301207047002084
:105A900070474FF0FF307047C3B2062B10B40CD8DC
:105AA000074B00EB400003EB80000021FF2200F1D8
:105AB000180401768176C275827510BC704700BFEC
:105AC000204E00104EF65C6244F62063C0F20102E4
:105AD000C1F20003125C93F85F301A4214BF002039
