:1000000000800010CD000000390100003B0100001D
:100010003D0100003F010000410100000000000020
:10002000000000000000000000000000430100008C
:10003000450100000000000047010000F1AB000096
:100040004B0100004B0100004B0100004B01000080
:100050004B0100004B0100004B010000C9220100D0
:100060004B0100004B0100004B0100004B01000060
:100070004B0100004B0100004B0100004B01000050
:100080004B0100004B0100004B0100004B01000040
:100090004B0100004B0100004B0100004B01000030
:1000A0004B0100004B010000A93100004B01000092
:1000B0004B0100004B0100004B0100004B01000010
:1000C0004B0100004B0100004B0100001149124A96
:1000D000124B9A4205D008681060043104329A42EB
:1000E000F9D300200E490F4A914204D0914202D226
:1000F00008600431FAD30C480C49884206D00268E3
:10010000043003B4FE46974603BCF6E70848804730
:1001100008480047E8F7010000000010D008001070
:10012000D008001090650010C8F70100C8F7010062
:100130000987000051010000FEE7FEE7FEE7FEE749
:10014000FEE7FEE7FEE7FEE7FEE7FEE70000000051
:100150002DE980484DF29000CDB0C0F2030006F0CA
:1001600069FB4FF44043C4F20F03D3F88820C2F375
:100170000162032AD3F80C2102F0030201F0198472
:10018000012A01F00784022A01F0F783D3F8042141
:100190004FF41063D2B2E14F0132C0F23D03B3FB22
:1001A000F2F304973B604BF2C5321B09C9F2A2126D
:1001B0004FF44041A2FB0362C4F202010E684FF407
:1001C000404346F050060E60C4F200030327550E6C
:1001D000C2F3474483261E73D1481D711C701F73E0
:1001E000D04B40F6D008C1F200086422002140F84C
:1001F000103B12F0ABFF0124052202230425072641
:10020000062108F12C00C8F83420C8F85820C8F896
:100210002C30C8F84430C8F85030C8F86830C8F8F6
:100220003810C8F83C40C8F84870C8F83050C8F8D2
:100230004C40C8F86040C8F86C70C8F85450C8F812
:100240005C60C8F8704007F027FC294608F12C00D4
:1002500007F088FB08F1500007F01EFC294608F162
:10026000500007F07FFBB04BB048C8F8043009F0ED
:1002700005FD402108F12C0007F0A8FBAC4809F06F
:10028000FDFC220442F462522046AA4906F052FBC9
:100290002146002006F040F8300440F42140FF23BE
:1002A0007F2240F0200088F8103088F8203088F84D
:1002B0001F3088F8243088F8112088F81E4006F096
:1002C000B9FADDF810900020D9F800209A4906F01C
:1002D00031FB0020994906F02DFBD9F8002044F6A7
:1002E000D353C1F26203A3FB02B24EF210035009D2
:1002F000CEF20003002101384FF46D42C8F87410AB
:10030000CEF200025860F82082F8230099601E6047
:10031000802382F82330D9F80430980741F12983EB
:100320007E4B586810F0FF0F0AD0C4B284490020F9
:10033000224606F0FFFA01208249224606F0FAFA28
:1003400040F6D00CC1F2000CDCF878300BB1002282
:100350001A707D4B4CA840F6D00EC1F2000E40F84A
:100360008C3D00238EF87C30784B2EA90122CEF8EC
:10037000783007F069F90546002801F03C832BAC82
:1003800037AD1F9403950020714906F0D3FAEFF3BF
:1003900012850823259583F31188002140F2E46239
:1003A0006C4812F0D3FE6C4E002144F2A4226B483C
:1003B00012F0CCFEFF234CF2600233757375B375F7
:1003C000C2F2090211684CF25C0321F080611160F5
:1003D000C4F202031A684CF2740022F440121A604C
:1003E0001A68C4F2020042F400121A600368002185
:1003F00023F0806358220360564812F0A7FE45F2AE
:10040000C8074FF40043002252484FF48A410CF0D1
:100410007BFAC1F20007582245F2C808C1F2000871
:100420000021B818012712F091FE4FF4004308F1A3
:10043000580000224FF48A41C8F8A8700CF064FA02
:100440004FF002090021582208F1B00012F07EFEA0
:100450004FF4004308F1B0000022C8F800914FF4B7
:100460008A410CF051FA03260021582208F58470C5
:1004700012F06CFE4FF4004308F584700022C8F8B7
:1004800058614FF48A410CF03FFA0021582208F5D8
:10049000B07012F05BFE4FF0040CC8F8B0C14FF41E
:1004A000004308F5B0704FF48A410022CDF808C02F
:1004B0000CF02AFA002108F5DC705822052412F00D
:1004C00045FE4FF4004308F5DC700022C8F80842EE
:1004D0004FF48A410CF018FA06240021582208F53E
:1004E000047012F033FE4FF4004308F5047000224C
:1004F000C8F860424FF48A410CF006FA0724002144
:10050000582208F51A7012F021FE45F2C80B4FF47C
:10051000004308F51A70002222E000BF000000101E
:10052000D00800101D59000029C80000A0CC01000F
:10053000B8CC0100D4CC0100E8CC0100FCCC010017
:1005400010CD010028CD010048CD01004C0900105C
:1005500054CD0100C8500010503A00107C0B001020
:10056000C8F8B8424FF48A41C1F2000B0CF0CCF944
:100570000021582208F530704FF0080812F0E6FD0F
:100580004FF400430BF530700022CBF810834FF48A
:100590008A410CF0B9F90924002158220BF5467064
:1005A00012F0D4FD4FF400430BF546700022CBF857
:1005B00068434FF48A410CF0A7F90A24002158221D
:1005C0000BF55C7012F0C2FD4FF400430BF55C704C
:1005D000CBF8C0434FF48A4100220CF095F900217A
:1005E00058220BF5727012F0B1FD45F2C80EC1F23F
:1005F000000E0B240EF57270CEF818444FF4004331
:100600004FF48A4100220CF07FF95C48DFF87CB19E
:1006100000F59D5400F59C5504344FF41673EC61BD
:1006200000214FF4DA622924584625F8283C25F8A1
:10063000263C25F8243C25F8223C2C6212F086FD4D
:100640004F49A8220BF5C46012F036FD4D4A4FF415
:10065000404392E803000A0CABF8CC16CBF8C8066E
:100660008BF8CE26C4F20F03D3F8AC214FF400412F
:1006700022F44062C3F8AC21D3F8AC21C4F20801E3
:1006800042F48062C3F8AC21D3F8C4004CF20C02EF
:1006900040F40010C3F8C4000F23C1F81080C4F266
:1006A00002020B60C1F804904E6213684CF2200005
:1006B00023F4407313601368C2F2090043F44073DB
:1006C000136011684FF4404321F4406111601168D8
:1006D000C2F2090341F440611160146848F220013C
:1006E00024F440341460146867F31F4144F4403428
:1006F00014608278244D42F020028270827C42F2A3
:10070000934802F0DF0282741A6848F2080042F44B
:1007100000421A601A68CDF84C9042F480321A6098
:100720001A68099742F020021A601A690B9022F4A5
:10073000C03222F02002083010901A61996113999A
:10074000099A0B9B109E38460024C4F20803C9F294
:100750004928C0F22441C0F24802C4F20806C0F29F
:1007600024000B93AA460594A146CDF81C80139152
:1007700009921096249023460AE000BF503A0010D8
:10078000C49E01006C9F010000C00720185B001090
:10079000079FDDF81CC0079C5A1CDE1C079887FBCE
:1007A00003718CFB02C89F1C4FEAE27E84FB064C5F
:1007B000CDF818E080FB070EB444BE44CDF854C019
:1007C000DDF81CC01C1DCDF870E04FEAE77E0698EE
:1007D000CDF830E08CFB04ECC9189044C9EBE1097A
:1007E000C0EBE801581D0190F0171290CDF834C00D
:1007F0000198DDF81CC0C9EBC9098CFB00C0C1EB36
:10080000C101A3EB4909A2EB410109EB490901EB45
:10081000410189004FEA8909CDF844901791DDF82C
:1008200030E01299DDF8549016901C98CEEBE00C55
:10083000C1EBE90E11981799CEEBCE0E0BEB000928
:100840005944CDF860E0DDF814E0D9F828060E919F
:10085000CCEBCC0CD1F82816CDF828C00EEB4E0E00
:1008600003F1060CCDF850C0CDF820E00F901A919E
:10087000DDF818C0DDF828E01898CCEB2828CDF872
:100880001880A7EB4E0CDDF82080A6EB400E9801F7
:1008900008900D984FEA88014FEA82180019CDF8A8
:1008A00028804FEAE4782090CDF86C801698DDF827
:1008B00004800CEB4C0C404416904FEAE8702190F9
:1008C000DDF818800798CDF818C0DDF850C0C8EBE7
:1008D000C80880FB0C0CD9F82406CDF87880CAF83B
:1008E00004000E98DDF81880D0F824064FEA880836
:1008F000CAF84400CDF838802198DDF858800EEB16
:100900004E0EC0EBE8004FEA8E0EDDF84480CDF8C5
:100910009CC0CDF834E0DDF86CC0DDF880E00690D6
:100920000F9808F5C468CDF86080CCEBEE0901EBB8
:10093000400EDDF820C008980CF1100C2030DDF8D6
:100940002080CDF83CC01D90DDF878C01A9808F1E1
:100950003008CDF8648001EB4000A2EB8C18179AA8
:100960001A90DDF828C00A9802F5C4621E92203061
:100970000A9A0CF1100CCDF888C02390DDF814C051
:10098000D5483032269200EB0C020D98DDF838C0C5
:10099000584411900BEB4E00CAF810000F98DC443D
:1009A0002818CAF808001D98DDF860E02818CAF871
:1009B00018001998CDF828C02818CAF828001A98E5
:1009C000C9EBC9090BEB4000CAF850001E980EEBAA
:1009D0000B0C5844CAF840002298CDF820902818F3
:1009E000CAF848002398DDF818902818CAF858006B
:1009F0002698C9EBC9092818CAF86800CDF81890DC
:100A00000598DFF8D49205EB881809F800001398D0
:100A1000CAF800C0CAF81C000998CAF82020CAF811
:100A20000C000B98CAF83880CAF8140043F67C70A2
:100A3000C2F20800CAF824000320CAF82C00A74814
:100A4000CAF86020CAF8300010980733CAF834009A
:100A50000120CAF83C001398CAF85C000998CAF84B
:100A60004C000B98CAF8540043F67C70C2F20800A0
:100A7000CAF864000320CAF86C009948DDF8709049
:100A8000CAF870000A98DDF83080D0F82806C8EB64
:100A900029280C901198DDF84890DDF854C0D0F862
:100AA0002806CDF83C80C9EB2C28DDF820C0189032
:100AB000DDF804E00698A4EB4C094FEA861CAEEB87
:100AC000400ECDF820C02798DDF850C0CDF818E0D2
:100AD000604417904FEAEC701C900698C8EBC80869
:100AE000DDF83CC0CDF83C8000EB40080A9809EBEB
:100AF0004909D0F82406CCEBCC0CCAF88400119834
:100B00004FEA8909D0F824064FEA8808CAF8C400D9
:100B1000CDF848C0CDF82890CDF844801298DDF883
:100B20007090DDF85CC04FEA871EA7EB80170C9829
:100B3000C9EBEC08DDF8389001EB4000069009F5B0
:100B4000C4690EF12000CDF838900EF1100CDDF8DC
:100B50003C9012901898CDF830C0DDF820C001EB21
:100B60004000A6EB8916DDF834900F900CF1100CC4
:100B7000089809F5C469CDF860C0DDF81CC02030C4
:100B8000CDF83490DDF8209019908CFB030C09F11E
:100B900030091198CDF86890DDF82890CDF878C02C
:100BA0000BEB090C0BEB0009069805EB87170BEB19
:100BB0004000CAF890000E9805EB86165844CAF813
:100BC00080000C980EF1300E2818CAF88800129890
:100BD000AE442818CAF898000F98C8EBC8080BEB69
:100BE0004000CAF8D0000D98CAF878705844CAF886
:100BF000C000189801272818CAF8C8001998CAF820
:100C00007C702818CAF8D8001A98099F2818CAF8C2
:100C1000E8001098CAF88C70CAF87400139843F66C
:100C20007C77CAF89C000B98C2F20807CAF89400B7
:100C30000320CAF8A470CAF8AC002A4F1098CAF86A
:100C4000B8600126CAF8B070CAF8B400CAF8BC602F
:100C5000139F09980B9ECAF8A020CAF8A8E0CAF80A
:100C6000DC70CAF8CC00CAF8D460CAF8E0201B983F
:100C7000209E43F67C77C0EB262E2198169EC2F26A
:100C80000807CAF8E470C0EB2627DCF82806D9F874
:100C90002866089014981296A0EB48080198A601BF
:100CA00080010690DCF82406CEEBCE0ECAF80401D3
:100CB000D9F82406A4EB8E1ECAF8440106F11000F0
:100CC000089C0C901298DDF8289001EB440C01EB85
:100CD000400109F5C46907E000300820E161001017
:100CE000E2610010E36100100891119906F12004FF
:100CF000CDF82890DDF80490159401F5C461069CA8
:100D0000C7EBC707A9EB87170D91DDF81890059978
:100D10001E9810341B9409F12009C1F34204C01835
:100D200005EB8E11CDF858902190CAF8F8100A9969
:100D300030365944CAF800110C99AE196918CAF82E
:100D40000811CAF828611599089E69180BEB460628
:100D5000CAF81811CAF850611B99169E05EB87173F
:100D6000CAF8387169180D9FAE19CAF84811CAF847
:100D70005861DDF870E01799219E5F444FEAE379EE
:100D8000CAF84071CEEB2127C9EB262E149E0BEB3F
:100D90004C0CB1010326CAF8EC60D34ECAF810C15E
:100DA000CAF8F060109ECAF82021CAF8F460012643
:100DB000CAF8FC60139E08EB4808CAF81C61099E3B
:100DC0004FEA8808CAF80C610B9E0BEB0800CAF8C2
:100DD000146143F67C76C2F20806CAF82461032641
:100DE000CAF82C61C14EDDF818C0CAF83061109EF7
:100DF000C7EBC707CAF834610126CAF83C61139EE5
:100E00000A97CAF85C61099ED0F82876CAF84C6146
:100E10000CF1300C0B9E0897CDF830C0149FDDF814
:100E200028C0CAF8546104F54076A7EB8C170BEB89
:100E3000460606971496D0F8240601F1100701F132
:100E4000200630310D91CEEBCE0E069904F542749A
:100E5000CAF884010BEB4404A3EB8E10DDF830E0FC
:100E60000A9405EB8111CAF8781105EB0E0C08996C
:100E7000DDF828E0149CCAF86021062918BF7446E2
:100E8000CAF890410D9CDDF814E0291943F67C74F2
:100E90000EF1010EC2F20804CDF814E0CAF8644164
:100EA0000424CAF86C41924CEF19CAF87041109CA6
:100EB000CAF88871CAF874410124CAF87C41099FB4
:100EC000249CAE19CAF89C41CAF88C710B9C04276B
:100ED000CAF89861CAF8A021CAF8A811CAF8AC717A
:100EE00008F5C46843F67C768249109A7746CAF8BA
:100EF0009441C2F208060124D84405EB8010402F2B
:100F0000CAF8A461CAF868C1CAF88081CAF8B011E9
:100F1000CAF8B421CAF8B801CAF8BC41764E0AF53D
:100F2000E07A7FF435AC06F56751CA68D6F8CC3163
:100F300042F0004243F000434FF44044C4F20F0437
:100F4000CA60C6F8CC31D4F8C4304CF2C41843F0AF
:100F50000053C4F8C430C4F20F08D8F800304FF47E
:100F60008049C5F20009012043F04003CDF8148008
:100F7000CDF82C90C8F80030C9F83000D4F8C4304F
:100F80004FF4804743F40003C4F8C430D4F8AC31C4
:100F9000C4F2090723F44043C4F8AC31D4F8AC31AF
:100FA0000025C4F8AC31BB6A4FF0FF3123F00303D6
:100FB000BB62BB6A0122BB62BD603D61FD60FD603A
:100FC0003960D4F8AC311F9923F44043C4F8AC31F4
:100FD000D4F8AC31384643F48043C4F8AC311D2317
:100FE0008DF8AC508DF8AD508DF8AF208DF8AE5027
:100FF0008DF8B0502D9305F04FFB4FF46143CEF2C6
:101000000003082283F81A234FF080621A607A687E
:101010004FF4824342F001027A603268C5F2000365
:101020001A607268DFF8E0A05A60B26828469A60D9
:10103000F1684FF4625248F68136D960C0F201027D
:101040001E612E4905F076FC29464FF407720AF519
:10105000276012F07BF8DC2229490AF6722012F090
:101060002BF84FF440464FF4526226490AF68C4062
:1010700012F022F8C4F202060A274CF20403C4F26A
:101080000203F7671A684CF2400B22F440321A60F0
:101090001A68C4F2020B1A601A684FF4404822F42E
:1010A00040221A601A68C2F209081A601A684CF2E3
:1010B000500722F440121A601A68C4F202071A603C
:1010C0001A684CF2240E22F440021A601A68C4F224
:1010D000020E1A601A68CDF81CB022F040721A6035
:1010E0001A684CF2100911E0E4610010E56100108B
:1010F000E6610010E061001000C0072064CD01002F
:10110000749F010050A00100D02508201A604FF004
:101110004062C8F81820D8F80020C4F2020942F052
:101120005062C8F8002098F813204CF2640C02F0CA
:10113000F20288F813201A68099722F440521A60C4
:101140001A68C4F2020C1A601A682F4622F4406230
:101150001A601A681F991A601A68C4F2090722F403
:1011600040721A601A6838461A601A68DFF89CB232
:1011700022F0C0021A601A681A603368012223F450
:101180004013336033683360DEF8003023F040638F
:10119000CEF80030DEF80030CEF80030DEF8003057
:1011A00023F04073CEF80030DEF80030CEF8003087
:1011B000D9F8003023F04063C9F80030D9F8003086
:1011C000C9F80030DDF81C90D9F8003023F4401342
:1011D000C9F80030D9F80030C9F80030DCF8003028
:1011E00023F04063CCF80030DCF80030CCF800305D
:1011F000DCF8003023F04073CCF80030DCF800302D
:10120000CCF80030DDF824C0DCF8003023F0406377
:10121000CCF80030DCF80030CCF800304FF4F003AC
:10122000C8F81830D8F8003043F4F003C8F800309C
:10123000D4F8C430DDF8148043F00053C4F8C4304F
:10124000D8F8003043F01003C8F800300B9B4FF083
:1012500001081A63D4F8C4300A2243F48003C4F8A6
:10126000C430D4F8AC3123F44053C4F8AC31D4F8D2
:10127000AC31C4F8AC31BB6A23F00303BB62BB6A78
:10128000BB624FF0FF33BD603D61FD60FA603B60C3
:10129000D4F8AC3123F44053C4F8AC31D4F8AC31B9
:1012A00043F48053C4F8AC313B238DF8AC508DF837
:1012B000AD508DF8AE508DF8B0502D938DF8AF80B5
:1012C00005F0EAF97B6844F2201243F001037B60E9
:1012D000DAF88C3CC5F200021360DAF8903C28463C
:1012E0005360DAF8941C49F280639160DAF8981C34
:1012F000C0F29803D16041F2190111612D9A42495F
:10130000B3FBF2F34FF4C87205F014FB05F016F8C6
:10131000294664220BF5B87011F018FF3F2306220E
:10132000FF210BF5E4708BF8CF3111F00FFF8BF834
:10133000C851D4F8AC214FF4004322F44032C4F831
:10134000AC21D4F8AC21C4F2090342F48032C4F8D1
:10135000AC21326822F440023260326842F48002EA
:101360003260D4F8C42042F08072C4F8C42007224E
:101370001A721D721A7DD50703D51A781A7DD40703
:10138000FBD44FF40043C4F20903802283F83020D9
:101390001A46117D4FF4004301F02001C9B2C4F296
:1013A00009030029F5D000224FF4404183F8302092
:1013B000C4F20F015A601A731A621B7DD1F8AC3166
:1013C000DDF81090C3F30143D9F8002023B1022BBC
:1013D00003D9032B01F0BD860423B2FBF3F31B09F1
:1013E000002248F2A0604FF001084DF68365059396
:1013F0009C46C0F20100164691464146C4F21B3598
:1014000047F6122421E000BF78CD0100B04C001057
:10141000079AB2FBF3F7C7F5F4421232A74202D99A
:10142000A7F5F442123A904240F29882002A01F065
:101430008D8610461E4688464FF00F090499DDF848
:1014400014E01029F44400F08C82BCFBF1F31F4639
:101450000693A5FB0773DDF818E05B0B04FB13EEA6
:1014600043F60957BE4588BF0133A3F1030E4FF67B
:10147000FC77BE4513D8DDF818E0BEFBF3F2A242BC
:1014800001F2EF80C2F5F4421232824207D2002A02
:1014900000F07F8310461E4688464FF000094B1C23
:1014A000BCFBF3F707970493A5FB0773DDF81CE07B
:1014B0005B0B04FB13EE43F60957BE4588BF0133AF
:1014C000A3F1030E4FF6FC77BE4515D8DDF81CE0FE
:1014D000BEFBF3F7C7F5F4421232A74202D9A7F5D3
:1014E000F442123A904207D9002A01F0358610469C
:1014F0001E4688464FF001098F1CBCFBF7F7079783
:10150000A5FB0773079F5B0B04FB137743F6095E8C
:10151000774588BF0133DF1E4FF6FC7E774514D830
:10152000079AB2FBF3F7C7F5F4421232A74202D989
:10153000A7F5F442123A904207D9002A01F00F862B
:1015400010461E4688464FF00209CF1CBCFBF7F739
:101550000797A5FB0773079F5B0B04FB137743F605
:10156000095E774588BF0133DF1E4FF6FC7E774565
:1015700014D8079AB2FBF3F7C7F5F4421232A74228
:1015800002D9A7F5F442123A904207D9002A01F095
:10159000E98510461E4688464FF003090F1DBCFB27
:1015A000F7F70797A5FB0773079F5B0B04FB137700
:1015B00043F6095E774588BF0133DF1E4FF6FC7E98
:1015C000774514D8079AB2FBF3F7C7F5F442123205
:1015D000A74202D9A7F5F442123A904207D9002A4D
:1015E00001F0C38510461E4688464FF004094F1D82
:1015F000BCFBF7F70797A5FB0773079F5B0B04FB83
:10160000137743F6095E774588BF0133DF1E4FF637
:10161000FC7E774514D8079AB2FBF3F7C7F5F4427E
:101620001232A74202D9A7F5F442123A904207D9E2
:10163000002A01F09D8510461E4688464FF0050998
:101640008F1DBCFBF7F70797A5FB0773079F5B0B85
:1016500004FB137743F6095E774588BF0133DF1E2D
:101660004FF6FC7E774514D8079AB2FBF3F7C7F51F
:10167000F4421232A74202D9A7F5F442123A90423C
:1016800007D9002A01F0778510461E4688464FF09C
:101690000609CF1DBCFBF7F70797A5FB0773079F4C
:1016A0005B0B04FB137743F6095E774588BF013374
:1016B000DF1E4FF6FC7E774514D8079AB2FBF3F78E
:1016C000C7F5F4421232A74202D9A7F5F442123A02
:1016D000904207D9002A01F0518510461E468846DF
:1016E0004FF0070901F10807BCFBF7F70797A5FBC7
:1016F0000773079F5B0B04FB137743F6095E77457F
:1017000088BF0133DF1E4FF6FC7E774514D8079A59
:10171000B2FBF3F7C7F5F4421232A74202D9A7F59C
:10172000F442123A904207D9002A01F02A85104665
:101730001E4688464FF0080901F10907BCFBF7F780
:101740000797A5FB0773079F5B0B04FB137743F613
:10175000095E774588BF0133DF1E4FF6FC7E774573
:1017600014D8079AB2FBF3F7C7F5F4421232A74236
:1017700002D9A7F5F442123A904207D9002A01F0A3
:10178000038510461E4688464FF0090901F10A07F5
:10179000BCFBF7F70797A5FB0773079F5B0B04FBE1
:1017A000137743F6095E774588BF0133DF1E4FF696
:1017B000FC7E774514D8079AB2FBF3F7C7F5F442DD
:1017C0001232A74202D9A7F5F442123A904207D941
:1017D000002A01F0AF8410461E4688464FF00A09E1
:1017E00001F10B07BCFBF7F70797A5FB0773079FF2
:1017F0005B0B04FB137743F6095E774588BF013323
:10180000DF1E4FF6FC7E774514D8079AB2FBF3F73C
:10181000C7F5F4421232A74202D9A7F5F442123AB0
:10182000904207D9002A01F0888410461E46884657
:101830004FF00B0901F10C07BCFBF7F70797A5FB6D
:101840000773079F5B0B04FB137743F6095E77452D
:1018500088BF0133DF1E4FF6FC7E774514D8079A08
:10186000B2FBF3F7C7F5F4421232A74202D9A7F54B
:10187000F442123A904207D9002A01F061841046DE
:101880001E4688464FF00C0901F10D07BCFBF7F727
:101890000797A5FB0773079F5B0B04FB137743F6C2
:1018A000095E774588BF0133DF1E4FF6FC7E774522
:1018B00014D8079AB2FBF3F7C7F5F4421232A742E5
:1018C00002D9A7F5F442123A904207D9002A01F052
:1018D0003A8410461E4688464FF00D0901F10E0766
:1018E000BCFBF7F70797A5FB0773079F5B0B04FB90
:1018F000137743F6095E774588BF0133DF1E4FF645
:10190000FC7E774514D8079AB2FBF3F7C7F5F4428B
:101910001232A74202D9A7F5F442123A904207D9EF
:10192000002A00F0358110461E4688464FF00E0909
:1019300001F10F07BCFBF7F70797A5FB0773079F9C
:101940005B0B04FB137743F6095E774588BF0133D1
:10195000DF1E4FF6FC7E77457FF65AAD002A7FF4F6
:101960006DADB0F56A7F00F22A814A4641463346A2
:101970000FE105F0A1FBFEF7D5BCD3F80431834D90
:10198000DBB201334FF40042B2FBF3F304952B605A
:10199000FEF709BCD3F804214FF4D853D2B27B4CE4
:1019A0000132C0F2B703B3FBF2F304942360FEF7F5
:1019B000FABB012A00F07886022A00F05D86D3F88F
:1019C00088104FF490524904490CC0F27A02D3F8BF
:1019D000880001FB0222D3F80431C0F30740013034
:1019E000DBB26A4CB2FBF0F20133B2FBF3F30494C6
:1019F0002360FEF7D8BB2BAE37AF2EA829991F96D0
:101A00000397349635970DF08FFA00283EF4BBAC5F
:101A100004287EF4B8AC2E9829460EF093FE0446B6
:101A2000002800F05D86012800F05A86411C00F075
:101A300057862E9829460EF003FB002840F050866A
:101A40002E9BA11E9A6903F13008023A91423BBFD6
:101A50009A6A9D78054605FB012503F50C7A4246F6
:101A6000002142F8041B52454FF0000EF9D103F15A
:101A7000500203F1540703F13401260C8A4238BFA7
:101A8000B8454FF0200034BF0027012712F0030FA4
:101A900014BF002707F001074FF020315FFA84FBE5
:101AA00083F8380083F8390083F83A002E20CDF807
:101AB00014B0196383F8300010204FEA16295FFA3A
:101AC00086FB83F83B00059E9A20C4F3072C83F81D
:101AD00048003C20596383F846E083F847E083F8E8
:101AE000490083F84A608DF81CC083F84BC083F826
:101AF00044B08DF8249083F84590002F01F00E83B8
:101B00001A6BDE6B1F6C1A655965986BDE65596C34
:101B10009A6CDE6C98651F6659669A66DE662E22A0
:101B200083F851202E98309A0178032901F0EC8235
:101B3000170CD6B2F9B2C2F307223F0A83F86A60E3
:101B400083F86B2083F8641083F865708378002B2A
:101B500001F0BA82013BDEB201362E9B76190127D5
:101B60004FF00009C5621F71002101350EF068FABF
:101B7000002840F0B585434643F8049B9A45FBD1C5
:101B8000B54201F0A1822E9B1846EBE70000001041
:101B90000E224FF40040C4F20900057BC3F3072472
:101BA00045F08005DBB2057304710370047B42EAE3
:101BB000011304F07F04DBB2047380F828304FF483
:101BC0000043C4F209031A7B40F2053102F0C0025F
:101BD00042F003021A7307221A725A68802442F0F4
:101BE00001025A60586840F2033201405960586857
:101BF00040F2072102405A60586840F20712014043
:101C0000596059684FF461400A405A60CEF20000B2
:101C1000102380F80733002104604FF48A72BF4814
:101C200011F094FA2246FF21BD4811F08FFA2246A6
:101C3000FF21BC4811F08AFA00218822BA4811F02D
:101C400085FA4FF6FF752246FF21B74811F07EFA5C
:101C5000B64AABF868534FF0FF358BF86A53C0258E
:101C600082F80E51B24DB3499560B34D02F14A0E60
:101C7000D560B24D00235560B14DC2F810E1D56179
:101C8000B04DA1F582765561AF4DB04FD5624FF0A2
:101C9000000E45F2C80545F2C808C1F20008C1F2BD
:101CA0000005012482F84730A2F8483082F80D314F
:101CB00082F80C3113619361136253629362136370
:101CC00053639363D36313648B60CB600B614B618D
:101CD0008B61CB610B620B604B60A1F584724B6230
:101CE000CBF6807E3360A1F580768B62336041F85D
:101CF000E43C136041F8FC3C41F8F83C41F8F43C0A
:101D000041F8F03C41F8EC3C41F8E83C41F8E03C5B
:101D100085F8464485F84E45C5F85435C5F858351C
:101D2000C5F85C35C5F86035C5F86435C5F8683563
:101D3000C5F86C35C5F87035C5F87435C5F8783513
:101D4000C5F87C35C5F84C34C5F85034C5F8543462
:101D5000C5F85834C5F85C34C5F86034C5F8643447
:101D6000C5F868343E46C5F86C347046C8F870341F
:101D7000C8F8A435C8F89C34C8F8743488F87A4593
:101D800088F87244C8F88035C8F88435C8F88835B2
:101D9000C8F88C35C8F89035C8F89435C8F8983527
:101DA000C8F89C35C8F8A035C8F8A835C8F8783404
:101DB000C8F87C34C8F88034C8F88434C8F888344B
:101DC000C8F88C34C8F89034C8F89434C8F89834FB
:101DD000C8F8A03488F8A64588F89E44C8F8AC3501
:101DE000C8F8B035C8F8B435C8F8B835C8F8BC3547
:101DF0001D46C8F8C035C8F8D035C8F8C834C8F88A
:101E0000C435C8F8C835C8F8CC35C8F8D435C8F8D2
:101E1000A434C8F8A834C8F8AC34C8F8B034C8F84A
:101E2000B434C8F8B834C8F8BC34C8F8C034C8F8FA
:101E3000C434C8F8CC3488F8D24588F8CA44C8F805
:101E4000D835C8F8DC35C8F8E035C8F8E435C8F846
:101E5000E835C8F8EC35C8F8F035C8F8F435C8F8F6
:101E6000F835C8F8FC35C8F80036C8F8D034C8F8DA
:101E7000D434C8F8D834C8F8DC34C8F8E034C8F82A
:101E8000F434C8F82836C8F82035C8F8E434C8F85F
:101E9000E834C8F8EC34C8F8F034C8F8F83488F8F6
:101EA000FE4588F8F644C8F80436C8F80836C8F87D
:101EB0000C36C8F81036C8F81436C8F81836C8F802
:101EC0001C36C8F82036C8F82436C8F82C36C8F8AE
:101ED000FC34C8F80035C8F80435C8F80835C8F827
:101EE0000C35C8F81035C8F81435C8F81835C8F8D6
:101EF0001C35C8F8243588F82A4688F82245C8F8E1
:101F00003036C8F83436C8F83836C8F83C36C8F821
:101F10004036C8F84436C8F8483631E0844E0010E0
:101F2000854E00100D4F0010984F001038640010BF
:101F300075750000F05500104D220100396B00004E
:101F4000EDC3000081E9000099950000AA57001038
:101F5000184610F0BBFE48F28101C3F6803110F044
:101F600009FF4FF07E5110F0FDFD10F03FFB16A36E
:101F7000D3E9002310F08EFB10F09EFD16F062FEF8
:101F80004FF07E5110F0EEFD4FF47F41C4F2FF613F
:101F900010F0F0FE11F03EF80135ADB22BB2B3F502
:101FA000807F26F8020FD3D10949002200208A60E1
:101FB000CA600A614A61CBF680700A604A608A6131
:101FC00014461FE0AFF30080182D4454FB21094054
:101FD00014570010184610F079FE48F28101C3F63C
:101FE000803110F0C7FE4FF07E5110F0BBFD10F0B5
:101FF000FDFAC3A3D3E9002310F04CFB10F05CFD05
:1020000016F020FE4FF07E5110F0ACFD4FF47F41F2
:10201000C4F2FF6110F0AEFE10F0FCFF0134A4B278
:1020200023B2B3F5807F27F8020FD3D10AF0D8F896
:1020300008B904F099F962B6DFF8DC9299F9143026
:10204000A9F54654012B14D0AF4A00234CA809F53A
:10205000985140F8882D60311A46C4F8AC3205F02A
:10206000F3FA002800F0F88702460020A74904F0A0
:1020700061FC0AF0E3F9BBF8D0030AF001F910B9EA
:1020800001200DF05DFB40F6D0060024C1F20006F1
:1020900086F821400FF06CF920460DF081FC0120FC
:1020A0000DF07EFC02200DF07BFC01237367259F61
:1020B00087F311880020964904F03CFC4CF280091B
:1020C0004CF2400CC2F20909C2F2090CDFF84C8252
:1020D000CDF81090CDF814C0DBF8E013DBF8E43352
:1020E000DBF8DC23CB1A0132B3F5FA7FCBF8DC2323
:1020F00000F2D3844FF44044C2F20904782640230E
:1021000066830A20E38304F095FB049D617D95F8C6
:102110001790059FEA7D09F020097B7DC1F38001BE
:102120005FFA89F902F0100281F00101B9F1000FA4
:102130000CBF4FF002094FF00009D2B249EA010981
:10214000002A0CBF0422002203F0200349EA0209FE
:10215000DBB22022002B0CBF0823002366830A2059
:10216000E28349EA030904F065FB617DEF7DDDF858
:1021700014C0EA7D07F020079CF81530C1F38001F8
:10218000FFB202F0100281F00101002F0CBF022704
:102190000027D2B20F43002A0CBF0422002203F012
:1021A00020031743DBB21022002B0CBF08230023AF
:1021B00066830A20E2831F4304F03CFBDDF810C075
:1021C000617D9CF817509CF81720DDF814C005F0CD
:1021D00020059CF81530C1F38001EDB202F0100229
:1021E00081F00101002D0CBF02250025D2B20D4364
:1021F000002A0CBF0422002203F020031543DBB2A7
:102200000822002B0CBF0823002366830A20E283E8
:102210001D4304F00FFB049E617DDDF814C0F47DC6
:10222000F27D04F020049CF81530C1F38001E4B283
:1022300002F01002002C0CBF0224002481F00101E6
:10224000D2B203F02003002A0CBF042200220C4368
:10225000DBB2002B0CBF0823002314431C4319F0EE
:10226000010300F003849AF87C2C002A00F0FE831E
:102270007F2A07D0531CDBB2264A052B82F87C3C10
:1022800000F0DF86C9F34003002B00F0F6839AF8D4
:102290007D2C002A00F0F1837F2A07D0531CDBB28B
:1022A0001C4A052B82F87D3C00F0C186C9F38003EF
:1022B000002B00F0E9839AF87E2C002A00F0E483DA
:1022C0007F2A07D0531CDBB2124A052B82F87E3CD2
:1022D00000F0948617F0010300F0DC839AF87F2C5D
:1022E000002A00F0D7837F2A1AD0531CDBB2094A98
:1022F000052B82F87F3C00F0868611E0AFF300806A
:10230000182D4454FB210940A0CD0100ACCD0100A3
:10231000C0CD0100D0250820503A00109C5000107C
:10232000B807C7F3400340F171839AF8802C002A64
:1023300000F06C837F2A07D0531CDBB2CB4A052BFD
:1023400082F8803C00F078867907C7F3800340F17B
:1023500064839AF8812C002A00F05F837F2A08D0DA
:10236000531CDBB258B2C14A052882F8813C00F008
:10237000168615F0010300F056839AF8822C002A85
:1023800000F051837F2A07D0531CDBB2B74A052BDC
:1023900082F8823C00F01186AA07C5F3400340F1A1
:1023A00049839AF8832C002A00F044837F2A07D0BF
:1023B000531CDBB2AD4A052B82F8833C00F0028649
:1023C0006E07C5F3800340F13C839AF8842C002A01
:1023D00000F037837F2A07D0531CDBB2A34A052BBA
:1023E00082F8843C00F0F385A007C4F3400340F179
:1023F0002F839AF8852C002A00F02A837F2A07D0A1
:10240000531CDBB2994A052B82F8853C00F0E48529
:102410005FEAD90900F022839AF8863C002B00F08D
:102420001D837F2B07D00133DBB2904A052B82F846
:10243000863C00F0ED85FF0800F015839AF8873C94
:10244000002B00F010837F2B07D00133DBB2874ACB
:10245000052B82F8873C00F0E085ED0800F0CE8285
:102460009AF8883C002B00F0C9827F2B07D00133FB
:10247000DBB27E4A052B82F8883C00F0D385E30866
:1024800000F0C1829AF8892C002A00F0BC827F2AD1
:1024900007D0531CDBB2754A052B82F8893C00F04B
:1024A00082856107C4F3800340F19F829AF88A2CE9
:1024B000002A00F09A827F2A07D0531CDBB26B4AB5
:1024C000052B82F88A3C00F0738514F0010400F0BB
:1024D00092829AF88B3C002B00F08D827F2B07D0E4
:1024E0000133DBB2614A052B82F88B3C00F0798521
:1024F000BAF9703A46F267620133C6F2666282FB4D
:1025000003E2D917C1EB620202EB8202584C9B1A1C
:102510009AB2AAF8702AA146274600264DE000216B
:1025200006EB8603DFF848C19A180AEB42020CEB6F
:102530004303A2F8B21B03F5A07353F8020F039DE7
:102540005968B3F808E003C502220521494B0398F6
:10255000A5F800E015F062FEBDF8E030B9F8A6215C
:102560009A1A002AB8BF5242B2F5C07F05DADBF8EA
:10257000E013D7F8BC218A4215D9D7F8E4219A1A7A
:10258000002AB8BF5242BF2AC1BFDBF8E023C7F818
:10259000E43102F5FA72C7F8BC21F04340B2A9F861
:1025A000A63106F041F901360A3404370A2E09F142
:1025B000020900F0C780BAF8702A94F8DF3094F866
:1025C000DE50C3F3400394F8E7101B02C5F3400547
:1025D00094F8E00043EA4525C1F3400194F8E13066
:1025E0000D43C0F3400094F8E21045EAC010C3F375
:1025F000400394F8E35040EA8313C1F3400194F898
:10260000E40043EA4111C5F3400594F8E53041EA9E
:102610000515C0F3400094F8E61045EAC000C3F386
:10262000400301F0020140EA83030B43A3F10C01D4
:1026300089B24FF6F37E714512B23FF670AF40F2A9
:10264000F3308342C8BF4FF6F8713FF769AF41F2EC
:10265000660505FB03F1A1F54441C839C1F38F11AB
:102660005EE7A2F5F442123AFEF70FBFD02508202C
:1026700040300820B9580000D3F88820D3F88800EB
:102680005204D3F80431520C511CC0F30742090420
:102690000132DBB2A54EB1FBF2F20133B2FBF3F330
:1026A00004963360FDF77FBDD3F888104FF458527D
:1026B0004904490CC0F26E12D3F8880001FB0222D3
:1026C000D3F80431C0F307400130DBB2974DB2FBC1
:1026D000F0F20133B2FBF3F304952B60FDF763BD19
:1026E000012C2E9D7DF64FAEAB699C42BDF44BAEE6
:1026F0000126012C7DF647AE214628460DF048FD07
:10270000034600283DF43FAE01283DF43CAE421C98
:102710003DF439AEAA699442BDF435AE214628464F
:1027200000221C460DF092FF00287DF42CAE2B6990
:102730005F1C02D001332B616E71AB699C42D8D310
:10274000FDF721BE40F6D000C1F2000090F8203025
:102750009BF8E8135AB2013101328BF8E81300F00C
:10276000AD8140F6D006C1F20006DBF8E013B26995
:102770008A4213D2B6F91C00042800F05D8300F3EE
:10278000B182002840F0518301210CF061FD40F638
:10279000D0004FF0FF33C1F20000836140F6D0015A
:1027A000C1F20001DBF8E0334C699C4203D991F996
:1027B0001230012B78DD002C77D040F6D003C1F227
:1027C0000003002440F6D0055C61C1F2000501233E
:1027D000AB7757480EF008FC56480EF005FC002178
:1027E000534805F0F3F840F6D00700200146C1F247
:1027F000000703F091FD97F910305A1C00F0748126
:10280000002C00F07B8140F6D00CC1F2000C9CF94A
:102810001E20002A40F0B5821220002103F07CFD2A
:1028200040F6D00EC1F2000E28A99EF9110007F063
:10283000E7FA0178044631B13E480BF0A3FF14F8E3
:10284000011F0029F8D10020012103F065FD40F6A9
:10285000D003C1F200035A7C40F6D00453B2D843EF
:102860000021C1F20004C00F002B8BF8EC1394F987
:102870001010C0F283824FF4DC7202FB00F02C22B5
:1028800002FB03024FF45C7303FB01232A4DEA5C55
:10289000EB18022A12D193F90130052B0ED8DFE88C
:1028A00003F0954D0D0D9F9A012440F6D006C1F21C
:1028B000000696F91E30002B91D08AE7002405E02F
:1028C000FF2101340BF05EFF282C12D0BDF8A030A0
:1028D000184803EB8303DB0003F5FF437833B4EBC5
:1028E000134F4FF02001EBDB01340BF04BFF282C92
:1028F000ECD140F6D001C1F200018A7C00238B7735
:10290000CA748B740BF09EFF45F6AC12C1F2000244
:10291000137D45F2C804002B14BF4FF0FF33002392
:10292000C1F20004C4F8D036FFF7D6BB0000001097
:10293000FC0800102009001070AD01009249934876
:1029400010F012FE914C204610F06CFE2728034632
:102950002CDC2118C6434942293601F00301B1425B
:1029600028BF3146032E98BF314641B1202403F8D9
:10297000084001331A1A9142F9D88E4216D0761ABD
:10298000B408A50064B14118414400224FF0203042
:102990000132944241F8040BFAD8AE422B4405D0E0
:1029A000202203F808200133272BFADD9BF8EC13D3
:1029B00000238BF81434754C00299AD074480BF01E
:1029C000E1FE14F8011F0029F8D192E771496F4820
:1029D00010F0CAFDB6E770496C4810F0C5FDB1E7CC
:1029E0006E496A4810F0C0FDACE714F001048AF8A3
:1029F0008A3C7FF46EAD8AF88B4C79E5E3088AF85F
:102A0000885C7FF43FAD8AF8893C4AE579078AF80B
:102A1000803CC7F380033FF59CAC8AF8813C15F0FD
:102A200001037FF4AAACAA078AF8823CC5F34003ED
:102A30003FF5B7AC6E078AF8833CC5F380033FF5DA
:102A4000C4ACA0078AF8843CC4F340033FF5D1AC82
:102A50005FEAD9098AF8853C7FF4DEACFF088AF882
:102A6000869C7FF4EBAC8AF8877CF6E48AF87C3CA1
:102A7000C9F34003002B7FF40AAC8AF87D3CC9F30C
:102A80008003002B7FF417AC8AF87E3C17F001031B
:102A90007FF424AC8AF87F3C42E40020404903F0F4
:102AA00049FF44F6B04EC1F2000EDEF8E0330022DA
:102AB000CEF8DC23CEF8E433FFF71CBB44F6B0417C
:102AC000C1F20001B1F8D0334CF6CD42CCF6CC4285
:102AD000A2FB0342120902EB8201A3EB8101CBB2FC
:102AE00080F82010C2773CE697F91E30002B40F0AA
:102AF00077814FF4FA6003F09DFEFAE640F6D007C6
:102B000028485A217F23C1F200077B7404F05EFF3E
:102B10001A20214603F000FC022C00F3CB8060B2A7
:102B2000002107F06DF9451E01E00BF02BFE15F8B2
:102B3000013F1C481946002BF7D1022C18BF052C69
:102B400003D0184820210BF01DFE0134062CE3D1E0
:102B500040F6D009C1F2000999F91E30002B40F06F
:102B600081811048402104F031FF09480EF06CFAD1
:102B70000024042C00F38680E04340B2002107F0DB
:102B80003FF9451E12E000BFA05A00109C500010F3
:102B900020090010285A0010C85A0010505A00107E
:102BA000C8CD0100FC0800100BF0ECFD15F8013F4A
:102BB000A4481946002BF7D1042C18BF092C03D0C8
:102BC000A04820210BF0DEFD01340A2CD1D140F6C3
:102BD000D005C1F2000595F91E30002B3FF489AEF7
:102BE00098480EF031FA984D00242C264FF45C776B
:102BF00040F6D009C1F2000999F91030DFF84CC253
:102C000007FB03F306FB043363445B68002B08BF38
:102C10002B461978994631B18A480BF0B3FD19F863
:102C2000011F0029F8D1042C40F0D480002001219C
:102C300003F072FB844F05242C254FF45C7640F69C
:102C4000D00EC1F2000E9EF91030804806FB03F34F
:102C500005FB0433C3185B68002B08BF3B4619789B
:102C6000994631B17A480BF08DFD19F8011F002902
:102C7000F8D1092C3FF43DAE754820210BF082FDC0
:102C80000134DCE7E04340B2002107F0B9F8451E0B
:102C900001E00BF077FD15F8013F6D481946002B58
:102CA000F7D1042C18BF092C8ED0694820210BF0D5
:102CB00069FD89E760B2002107F0A2F8451E01E036
:102CC0000BF060FD15F8013F61481946002BF7D164
:102CD000022C18BF052C3FF438AF5D4820210BF0C3
:102CE00051FD32E7852818D0862806D005287FF4C4
:102CF0004EAD01200CF054FE49E540F6D009C1F27A
:102D0000000999F91F205BB202EB820203EB8200FB
:102D100080B209F0CDF999F8203040F6D00CC1F21C
:102D2000000C9CF91F205BB202EB820203EB8203D2
:102D3000ABF8D03309F082F9BBF8D00309F0A0FA60
:102D4000002800F02581002440F6D00EC1F2000ECC
:102D5000204601218EF821400CF07AFA012001462C
:102D60000CF076FA20460CF01BFE01200CF018FE49
:102D700002200CF015FE0EF0FBFA08E5D3435BB21F
:102D800079E540F6D000C1F20000417C4AB2D04360
:102D9000C00F002AC0F200814FF4DC7101FB00F18A
:102DA0002C2000FB02124FF45C7101FB0323274926
:102DB000CB189C68244B002C08BF1C4621780029A6
:102DC0003FF42AAD1F480BF0DDFC14F8011F002969
:102DD000F8D121E51B4820210BF0D4FC013407E792
:102DE0001C4C472117480BF0CDFC14F8011F00299B
:102DF000F8D1194C412113480BF0C4FC14F8011F01
:102E00000029F8D1154C432111480BF0BBFC14F8F4
:102E1000011F0029F8D1124C45210D480BF0B2FCDE
:102E200014F8011F0029F8D163E601287FF4AFAC44
:102E300000200CF0B5FDAAE4012001460CF008FAD0
:102E4000A5E400BFFC080010F4CD010070AD010046
:102E500020090010D0CD0100FCCD010028CE0100DA
:102E600054CE0100CA481A2104F0B0FDC94D002417
:102E70002C264FF45C7740F6D00CC1F2000C9CF984
:102E80001030DFF814E307FB03F306FB043373444D
:102E9000D3F8BC31002B08BF2B461978994631B1C5
:102EA000BB480BF06FFC19F8011F0029F8D1022C68
:102EB00040F0CC801A20012103F02EFAB54F0324F4
:102EC0002C254FF45C7640F6D000C1F2000090F95A
:102ED0001030B14906FB03F305FB0433CB18D3F8DC
:102EE000BC31002B08BF3B461978994631B1AB483D
:102EF0000BF048FC19F8011F0029F8D1052C41D12D
:102F000040F6D002C1F2000292F91E30002B3FF4CD
:102F100028AE9F48182104F059FD9D487C210BF0F4
:102F200031FC40F6D0049A487C210BF02BFCC1F216
:102F300000049748582104F049FD94F92130944841
:102F4000002B53D050210BF01DFC91484D210BF06C
:102F500019FC1820002103F0DFF97C218F480BF0C9
:102F600011FC7C218D480BF00DFC1820012103F091
:102F7000D3F97C2189480BF005FC88487C210BF0B3
:102F800001FCEEE5854820210BF0FCFB01349AE7BB
:102F900001200CF0D5FBD6E6CA4352B2FCE605F0A0
:102FA00043FCFFF7E6B90D2005F03EFCFFF779BAC8
:102FB0000E2005F039FCFFF788BA062005F034FC36
:102FC000FFF7EAB9072005F02FFCFFF7F9B9082051
:102FD00005F02AFCFFF708BA092005F025FCFFF7E9
:102FE00017BA0F2005F020FCFFF782BA7C210BF006
:102FF000C9FB67487C210BF0C5FBAAE7022005F05E
:1030000013FCFFF767B9032005F00EFCFFF788B942
:103010000A2005F009FCFFF70EBA0B2005F004FCAE
:10302000FFF71BBA0C2005F0FFFBFFF728BA0120C1
:1030300005F0FAFBFFF73AB9042005F0F5FBFFF7BE
:1030400083B9002005F0F0FBFFF71CB950482021A0
:103050000BF098FB01340EE7039D09F598542EAA56
:1030600004F160002A99A267E5670BF05DFFD8B90B
:10307000636F7BB1DA7A02F01002D2B2F2B1587DFE
:103080001A7DD97E9B7E42EA002243EA012343EA6D
:103090000243A366424D00212B6E05F16000DB88E0
:1030A000A5F864300DF07EFA04280AD000287EF4DA
:1030B000DBAF01200BF05EFEFEF7DBBF0520FEF765
:1030C000D3BF0522FEF7D1BF2EA807F07FF9002855
:1030D0007FF406AB339B1022DA729A221A763C22D6
:1030E0005A76059F9DF81C209DF824409F76DA763D
:1030F00083F814B05C759875D8752E980123037108
:1031000006F0AEFFFDF73FB9416A8A427EF410AD8A
:10311000002739463A463E46FEF710BD03F12F011F
:1031200003F1700011F8016F02F8016B8242F9D1CE
:10313000FEF7F5BC0A22FEF72CBD0B22FEF729BDD7
:103140000C22FEF726BD0D22FEF723BD0F22FEF74F
:1031500020BD0823FEF741B90122FEF71ABD022265
:10316000FEF717BD0322FEF714BD0422FEF711BDC2
:103170000522FEF70EBD0622FEF70BBD0722FEF765
:1031800008BD0822FEF705BD0922FEF702BD00BFFB
:10319000FC080010F4CD010070AD01002009001002
:1031A000504D0010AFF300802DE9F04F4FF48043F5
:1031B000C5F200035A68B64C9BB007949A60B54BB1
:1031C0001A7894F83736139273B994F84B36D4F8CA
:1031D0003C06013B052B28D8DFE813F04603270007
:1031E0004E036E038C032C0094F84A26D4F838362C
:1031F000C2F10102D2B251B24800C0F1010003FB9A
:1032000000F0002A94F84B3625460CBF00246FF0DE
:103210007F4485F84A26C5F83446C5F83C06002B9D
:1032200040F0F1834942A5F84416DDF81CC0BCF813
:1032300044360EE0079CD4F8343694F94A26C3F39A
:103240004F23A4F8443622B9DB43914A9BB2A2F83B
:103250004436079DA3F50041B5F840A609B201FB2D
:103260000AF1D5F83426079E95F853568018090CB4
:10327000874CC6F83406A6F84616002D40F0908319
:1032800094F86736D4F858C6013B052B00F2A983A1
:10329000DFE813F07E03A7035E033E03AB030600E3
:1032A000DDF81C90D9F8503699F96626C3F34F2300
:1032B000A9F8603622B9DB43754A9BB2A2F86036A2
:1032C000079CA3F50042B4F85C8612B202FB08F238
:1032D000079DB4F82E3909B24C101214B5F84E09F6
:1032E0001FFA82FE04FB03F3DDF81C904EF34E063A
:1032F00006FB00F6D5F8500695F8EE5899F8FE480A
:103300001B14604415F0010705F0020514BF9B462D
:103310004FF0000BC9F85006002D08BF002305F040
:10332000FF0004F002050990301414F0010605F0C6
:10333000FF04A9F862E618BF83440A9405B11B187C
:10334000079DDDF81CC0B5F834994FEA5A0ABCF95C
:10335000BC0609FB0AFAB5F854E909FB01F9B5F80E
:103360005259BCF832C94FEA580800F57F400EFBAD
:1033700008F8079C05FB02F5FF30A0EB1A4001FBA3
:103380000CFC0EFB02FE00EB2949B4F814092D14C5
:10339000A0F50040A9EB1849089005EB2C4509EB76
:1033A0002E49B4F80609002F40F03182002E40F07B
:1033B0003882079C099EB4F80CC9002E40F0408268
:1033C0000A9F002F40F04782079C314EB4F818291D
:1033D00089F31009A2F500421FFA89F90BF30F08CF
:1033E000CDF82890CDF8408003F30F098CF3100836
:1033F000CDF82C9080F31001CDF8348005F30F093F
:1034000007960992374600244FF02C0A0C91CDF80C
:103410003890B0460AFB048909F5A569D9F804304B
:1034200098F8CE565FEA136C40F01E8399F82A2074
:10343000013A032A00F2E781DFE812F0C901D60160
:103440000400D601B9F82220B9F8141001FB02F1EA
:10345000090C0AFB048BD9F800200BF5846B9B1830
:10346000C9F80430B9F82000DBF804300918180E48
:10347000A9F8241040F0F2829BF82A20013A032A8E
:1034800000F2C381DFE812F096018701080087018E
:10349000C85000107C3F0820BBF82220BBF8141055
:1034A00001FB02F1090CBBF82000DBF80020091831
:1034B0009B18ABF82410CBF80430B7F844B4DDF80F
:1034C000209009980BFB09F1DDF83890B6F88036AA
:1034D00009EB21410BFB00FBC91804F0070281F343
:1034E0001001DFF868C4C943C1F30B11013205F0C4
:1034F00008030CEB440941EA0232DBB2A9F81026BA
:103500004FEA2B4B002B00F08D820C982A0600EB23
:103510000B0358BFDDF834B083F3100300F1898248
:1035200005F00402D2B2002A00F08E82DDF840C01D
:1035300005F04002A3F50041D2B26144002A00F038
:103540008A82DDF82CE0ABF5004CF444B6F868262E
:103550004FF0B00E0EFB048005F0020E51185FFA1A
:103560008EFE15F0010281F3100118BF9AB289B2E4
:103570009BB2BEF1000F01D14FF40043CDF804C05F
:1035800009F0C2F9B02101FB048005F01002B6F881
:103590007416DDF804C0D2B26144583081F31001D2
:1035A00089B20AB11FFA8BF205F02005EDB21FFABD
:1035B0008BF30DB94FF4004309F0A6F9B7F84C2589
:1035C0000A9D05FB02F2120C82F3100202EB42028A
:1035D000C2F3DB021202C2F30743120AFF2B08BF39
:1035E0004FF4FF7102D0591CC9B249004DF6A83CF6
:1035F000C0F2010C0CEB43036144B3F80034B1F8A2
:103600000014D2B2C91A02FB01F203EB12230134F7
:10361000C3F30B1343EA04332C370236062CA9F804
:1036200000367FF4F7AE0798139C0C9D202C079E64
:10363000099F006834BF4FF03F084FF01F0834BFA8
:103640004FF020094FF000090A90C6F8DC56C6F882
:10365000E076CDF82480CDF83090BB4A002800F009
:103660001782116B906A536D88421091B4BF00218C
:103670000121A3B10C1D8B1D02EB840402EB83031B
:1036800064685B68D568E31AC3181469D669176A59
:103690009362002355609460566197615365079C5F
:1036A0004DF6A835276DC0F2010504EB810105EB4D
:1036B0008703B3F800364E68A168E06C626A08932D
:1036C0000B91A369079D646807996D69C96A0E9497
:1036D000DDF81C80079C0D9313951491636BA16B0F
:1036E000E56BD8F828B0246C002841F01B84DDF885
:1036F00030900F9009EB490C07EB8C0C934F07EBC4
:103700004C0C4F462FE0C1EB050AC3EB0408100335
:10371000CAEB0808B0FBF6F0CAEB680808FB00F833
:1037200003EB4A0A01EB0409AAEB690909EB283803
:1037300008FB00F8C3EB05094FEA690909EB2839D2
:1037400009FB00F0DDF8209001EB203080F3100041
:10375000C0F30B1049EA00002CF8180B0998013748
:10376000B842C0F28781A2F52F42C83ACBD5109853
:103770008345ABBF0D9813980B9E0E9EBBEB000BC1
:10378000324401F11687DDF828802C460D46194693
:1037900038F81B30B7E79BF92620C3F30F21002A26
:1037A00041F0C487BBF82220C94389B202FB01F172
:1037B000090C78E69BF92620002A41F0DF87C3F345
:1037C0000F22BBF8221001FB02F1090C6BE699F9FC
:1037D0002620C3F30F20002A41F0C887B9F8221031
:1037E00001FB00F1090C34E699F92620C3F30F2000
:1037F000002A41F0DF87B9F82220C14389B202FBD9
:1038000001F1090C25E6002123E600214BE64E4F8D
:10381000B7F8307907FB01F700EB2740002E3FF4A3
:10382000C8ADDDF81C80079CB8F85069B4F80CC925
:1038300006FB02F600EB2640099E002E3FF4C0ADC9
:10384000414E0A9FB6F8306906FB01F10CEB214CA2
:10385000002F3FF4B9ADDDF81C80B8F8501901FB1A
:1038600002F20CEB224CAFE5079CD4F83436C3F3DC
:103870000F23A4F84436ECE4079DD5F83426C2F3B0
:103880000743120AFF2B08BF4FF4FF7102D0591CE7
:10389000C9B24900079ED2B206EB43037118B3F8D0
:1038A000E436B1F8E416C91A02FB01F203EB122365
:1038B0009BB2A6F84436CCE4DDF81C80B8F842167A
:1038C000D8F83026090B130E5C0984EAD3140139A9
:1038D0005C4084EA5303C9B203F00103FF2943EAC1
:1038E0004202F0D1DDF81C9093B2C9F83026A9F855
:1038F0004436AEE4DDF81CC0DCF834369CF94A26C8
:10390000C3F34F23ACF84436002A3FF4A2AC9BE447
:10391000079DB5F85E06D5F84C26000B130E5C0922
:1039200084EAD31401385C4084EA5303C0B203F044
:103930000103FF2843EA4202F0D1079E93B2C6F882
:103940004C26A6F86036BBE4C8500010185B001087
:10395000079ED6F85026C2F30743120AFF2B08BF72
:103960004FF4FF7002D0581CC0B24000079CD2B286
:1039700004EB43032018B3F8E436B0F8E406C01AA9
:1039800002FB00F203EB12239BB2A4F8603697E42B
:10399000079DD5F85036C3F30F23A5F860368FE4A2
:1039A00094F86626D6F85436C2F10102D2B250B26B
:1039B0004FEA400CCCF1010C03FB0CFC002A96F8FA
:1039C00067360CBF00256FF07F4584F86626C6F881
:1039D0005056C6F858C6002B41F0F4864042A4F871
:1039E0006006079CB4F860366AE4DDF81C80D8F8FD
:1039F000503698F96626C3F34F23A8F86036002A9C
:103A00003FF45EAC57E4022B7FF4E3AB14F008FF05
:103A1000DDF81C80A8F8440698F84B36D8F83C0628
:103A2000FFF7D7BB2A060C9B58BFDDF834B07FF5F3
:103A300077ADDDF834C005F00402D2B2E3448BF375
:103A4000100B002A7FF472AD05F04002D2B210993B
:103A5000002A7FF476ADDDF82CC077E5584609F0F2
:103A6000D7F9DBF8043007E5484609F0D1F9D9F871
:103A70000430DBE4DDF81CC0CCF82420CCF8343072
:103A8000CCF83810CCF83C50CCF84040CCF828B0FA
:103A900007980799D0F8D006896D0F9C10900B916C
:103AA000C34A04EA0009002900F0C480D2F8885013
:103AB000D2F88040D2F8AC30AC420D95B4BF0021B2
:103AC0000121B3B10D1D8B1D02EB850502EB8303B4
:103AD000ED6DDB6D506EEB1AE318956E576F966FB8
:103AE000C2F880300023D0651566D7661667C2F825
:103AF000AC30DDF81C804DF6A835D8F8A870C0F2BF
:103B00000105D8F8A40008EB810105EB8702C96D17
:103B1000B2F800260690D8F87000D8F86060D8F89F
:103B2000844008910A92D8F85C10D8F86C20DDF82F
:103B300030C00F900698D8F87C300E9613911492EE
:103B40001994D8F88050D8F88C20D8F89010D8F86C
:103B50009460D8F898400CEB4C0807EB88080028D4
:103B600041F08081934800EB480848464BE04FF015
:103B7000FF3540082B460D9CA542ABBF0F9C149C03
:103B80000E9F139F2D1B08973B4401F10E85DDF816
:103B90002C9034460E46114639F81520C1EB060B21
:103BA000089FC2EB0409CBEB09094FEA033ABAFBC1
:103BB000F7FACBEB690909FB0AF9CDF860A002EB33
:103BC0004B0B01EB040AABEB6A0A189F0AEB29398D
:103BD00009FB07F9C2EB060A4FEA6A0A0AEB293A1F
:103BE0000AFB07F7DDF8289001EB273787F310076A
:103BF000C7F30B1749EA070728F8187B099F0CF150
:103C0000010C674508DBA3F52F43C83BC707AED4BB
:103C10004008002BC2DAAEE7DDF81C80C8F87C3023
:103C2000C8F88050C8F88C20C8F89010C8F8946084
:103C3000C8F8984007985E4AD0F8B0000A9000286B
:103C400000F0C880D2F8E010D2F8D800D2F80431E1
:103C500088420B91B4BF0021012103B30C1D8B1DC1
:103C600002EB840402EB8303D4F8B440D3F8B430FD
:103C7000D2F8BC50E31AC318D2F8C040D2F8CC60D6
:103C8000D2F8D070C2F8D8300023C2F8B450C2F8CD
:103C9000B840C2F8C460C2F8C870C2F80431079CCA
:103CA0004DF6A835D4F80071C0F2010504EB81018E
:103CB00005EB8703B3F80036D1F8B460D4F8B81038
:103CC000D4F8FC00D4F8D42008930D91D4F8C8306F
:103CD000079DD4F8B4400799D5F8C450D1F8DC104A
:103CE0000F94DDF81C80079C0E9313951491D4F863
:103CF000E430D4F8E810D4F8EC50D8F8D8B0D4F8C0
:103D0000F040002841F05280DDF83090119009EB2E
:103D1000490C07EB8C0C274F07EB4C0C4F462EE061
:103D2000C1EB050AC3EB04081003CAEB0808B0FB9B
:103D3000F6F0CAEB680808FB00F803EB4A0A01EB4F
:103D40000409AAEB690909EB283808FB00F8C3EB62
:103D500005094FEA690909EB283909FB00F0DDF88C
:103D6000209001EB203080F31000C0F30B1049EAE3
:103D700000002CF8180B0998013787421CDCA2F5CB
:103D80002F42C83ACCD50B985845D5BF0E981398FA
:103D90000D9E0F9EBBEB000B324401F11B84DDF83E
:103DA00028802C460D46194638F81B30B8E700BF6E
:103DB000C8500010185B0010DDF81CC0CCF8D420EF
:103DC000CCF8E430CCF8E810CCF8EC50CCF8F0406B
:103DD000CCF8D8B00798119CD0F8080110990B9036
:103DE00004EA0109C74A002800F0CF80D2F8385110
:103DF000D2F83041D2F85C31AC420D95B4BF00210D
:103E0000012103B30D1D8B1D02EB850502EB83031E
:103E1000D5F80C51D3F80C31D2F81401EB1AE31891
:103E2000D2F81851D2F82471D2F82861C2F8303192
:103E30000023C2F80C01C2F81051C2F81C71C2F87C
:103E40002061C2F85C31DDF81C804DF6A835D8F849
:103E50005871C0F20105D8F8540108EB810105EB57
:103E60008702D1F80C11B2F800260590D8F820018D
:103E7000D8F81061D8F8344108910A92D8F80C119A
:103E8000D8F81C21DDF830C00F900598D8F82C31F7
:103E90000E96119113921894D8F83051D8F83C210D
:103EA000D8F84011D8F84461D8F848410CEB4C08D8
:103EB00007EB8808002840F01987934800EB480872
:103EC00048464BE04FF0FF3540082B460D9CAC4276
:103ED000D5BF0F9C139C0E9F119F2D1B08973B4431
:103EE00001F1E983DDF82C9034460E46114639F88D
:103EF0001520C1EB060B089FC2EB0409CBEB0909A7
:103F00004FEA033ABAFBF7FACBEB690909FB0AF966
:103F1000CDF850A002EB4B0B01EB040AABEB6A0AA5
:103F2000149F0AEB293909FB07F9C2EB060A4FEA8D
:103F30006A0A0AEB293A0AFB07F7DDF8289001EB39
:103F4000273787F31007C7F30B1749EA070728F845
:103F5000187B099F0CF1010C674508DBA3F52F4383
:103F6000C83BC707AED44008002BC2DAAEE7DDF885
:103F70001C80C8F82C31C8F83051C8F83C21C8F86A
:103F80004011C8F84461C8F8484107985D4AD0F824
:103F900060010A90002800F0C780D2F89011D2F892
:103FA0008801D2F8B43188420B91B4BF00210121BD
:103FB00003B30C1D8B1D02EB840402EB8303D4F8C6
:103FC0006441D3F86431D2F86C51E31AC318D2F8C3
:103FD0007041D2F87C61D2F88071C2F88831002338
:103FE000C2F86451C2F86841C2F87461C2F87871CD
:103FF000C2F8B431079C4DF6A835D4F8B071C0F2C0
:10400000010504EB810105EB8703B3F80036D1F815
:104010006461D4F86811D4F8AC01D4F88421089311
:104020000D91D4F87831079DD4F864410799D5F8FB
:104030007451D1F88C110F94DDF81C80079C0E93FD
:1040400011951391D4F89431D4F89811D4F89C5167
:10405000D8F888B1D4F8A041002841F09D81DDF85E
:104060003090129009EB490C07EB8C0C264F07EBB4
:104070004C0C4F462EE0C1EB050AC3EB04081003BD
:10408000CAEB0808B0FBF6F0CAEB680808FB00F8BA
:1040900003EB4A0A01EB0409AAEB690909EB28388A
:1040A00008FB00F8C3EB05094FEA690909EB283959
:1040B00009FB00F0DDF8209001EB203080F31000C8
:1040C000C0F30B1049EA00002CF8180B09980137CF
:1040D000B8421BDBA2F52F42C83ACCD50B98584505
:1040E000D5BF0E9811980D9E0F9EBBEB000B32446E
:1040F00001F1B282DDF828802C460D46194638F8C9
:104100001B30B8E7C8500010185B0010DDF81CC069
:10411000CCF88421CCF89431CCF89811CCF89C518F
:10412000CCF8A041CCF888B10798129CD0F8B8011F
:1041300010990B9004EA0109C74A002800F0CF80CB
:10414000D2F8E851D2F8E041D2F80C32AC420D95E9
:10415000B4BF0021012103B30D1D8B1D02EB8505AA
:1041600002EB8303D5F8BC51D3F8BC31D2F8C401BB
:10417000EB1AE318D2F8C851D2F8D471D2F8D8614A
:10418000C2F8E0310023C2F8BC01C2F8C051C2F845
:10419000CC71C2F8D061C2F80C32DDF81C804DF64B
:1041A000A835D8F80872C0F20105D8F8040208EB67
:1041B000810105EB8702D1F8BC11B2F8002604900A
:1041C000D8F8D001D8F8C061D8F8E44108910A9233
:1041D000D8F8BC11D8F8CC21DDF830C01290049882
:1041E000D8F8DC310E960F9111921494D8F8E05162
:1041F000D8F8EC21D8F8F011D8F8F461D8F8F841E3
:104200000CEB4C0807EB8808002841F065809348C8
:1042100000EB480848464BE04FF0FF3540082B467E
:104220000D9CAC42D5BF129C119C0E9F0F9F2D1B65
:1042300008973B4401F12582DDF82C9034460E4668
:10424000114639F81520C1EB060B089FC2EB040993
:10425000CBEB09094FEA033ABAFBF7FACBEB690952
:1042600009FB0AF9CDF84CA002EB4B0B01EB040A59
:10427000ABEB6A0A139F0AEB293909FB07F9C2EB7A
:10428000060A4FEA6A0A0AEB293A0AFB07F7DDF841
:10429000289001EB273787F31007C7F30B1749EA7C
:1042A000070728F8187B099F0CF1010C674508DB0C
:1042B000A3F52F43C83BC707AED44008002BC2DA92
:1042C000AEE7DDF81C80C8F8DC31C8F8E051C8F86A
:1042D000EC21C8F8F011C8F8F461C8F8F841079863
:1042E0005D4AD0F810020A90002800F0C780D2F88A
:1042F0004012D2F83802D2F8643288420B91B4BF2F
:104300000021012103B30C1D8B1D02EB840402EB81
:104310008303D4F81442D3F81432D2F81C52E31AAF
:10432000C318D2F82042D2F82C62D2F83072C2F808
:1043300038320023C2F81452C2F81842C2F824627C
:10434000C2F82872C2F86432079C4DF6A835D4F83A
:104350006072C0F2010504EB810105EB8703B3F83D
:104360000036D1F81462D4F81812D4F85C02D4F8EC
:10437000342208930D91D4F82832079DD4F81442C2
:104380000799D5F82452D1F83C121294DDF81C801C
:10439000079C0E930F951191D4F84432D4F848122B
:1043A000D4F84C52D8F838B2D4F85042002841F032
:1043B0004B80DDF83090159009EB490C07EB8C0C25
:1043C000264F07EB4C0C4F462EE0C1EB050AC3EB22
:1043D00004081003CAEB0808B0FBF6F0CAEB680843
:1043E00008FB00F803EB4A0A01EB0409AAEB690990
:1043F00009EB283808FB00F8C3EB05094FEA690907
:1044000009EB283909FB00F0DDF8209001EB2030A2
:1044100080F31000C0F30B1049EA00002CF8180BD1
:1044200009980137B8421BDBA2F52F42C83ACCD518
:104430000B985845D5BF0E980F980D9E129EBBEB5A
:10444000000B324401F1F780DDF828802C460D4640
:10445000194638F81B30B8E7C8500010185B001038
:10446000DDF81CC0CCF83422CCF84432CCF8481229
:10447000CCF84C52CCF85042CCF838B20798159C86
:10448000D0F8680210990B9004EA0109C74A002885
:1044900000F0CF80D2F89852D2F89042D2F8BC32D5
:1044A000AC420D95B4BF0021012103B30D1D8B1D3E
:1044B00002EB850502EB8303D5F86C52D3F86C321E
:1044C000D2F87402EB1AE318D2F87852D2F8847258
:1044D000D2F88862C2F890320023C2F86C02C2F8A7
:1044E0007052C2F87C72C2F88062C2F8BC32DDF849
:1044F0001C804DF6A835D8F8B872C0F20105D8F87E
:10450000B40208EB810105EB8702D1F86C12B2F816
:1045100000260390D8F88002D8F87062D8F8944248
:1045200008910A92D8F86C12D8F87C22DDF830C0D5
:1045300012900398D8F88C320E960F911192139422
:10454000D8F89052D8F89C22D8F8A012D8F8A462D3
:10455000D8F8A8420CEB4C0807EB8808002840F07C
:104560003985934800EB480848464BE04FF0FF354B
:1045700040082B460D9CAC42D5BF129C119C0E9F4F
:104580000F9F2D1B08973B4401F17780DDF82C909D
:1045900034460E46114639F81520C1EB060B089F2C
:1045A000C2EB0409CBEB09094FEA033ABAFBF7FA6D
:1045B000CBEB690909FB0AF9CDF850A002EB4B0BD4
:1045C00001EB040AABEB6A0A149F0AEB293909FBD9
:1045D00007F9C2EB060A4FEA6A0A0AEB293A0AFB14
:1045E00007F7DDF8289001EB273787F31007C7F3AB
:1045F0000B1749EA070728F8187B099F0CF1010CF3
:10460000674508DBA3F52F43C83BC707AED4400876
:10461000002BC2DAAEE7DDF81C80C8F88C32C8F88F
:104620009052C8F89C22C8F8A012C8F8A462C8F832
:10463000A84207985D4AD0F8C0020A90002800F00E
:10464000C780D2F8F012D2F8E802D2F814338842C8
:104650000B91B4BF0021012103B30C1D8B1D02EB94
:10466000840402EB8303D4F8C442D3F8C432D2F8F2
:10467000CC52E31AC318D2F8D042D2F8DC62D2F896
:10468000E072C2F8E8320023C2F8C452C2F8C8424D
:10469000C2F8D462C2F8D872C2F81433079C4DF63F
:1046A000A835D4F81073C0F2010504EB810105EBC5
:1046B0008703B3F80036D1F8C462D4F8C812D4F82E
:1046C0000C03D4F8E42208930D91D4F8D832079D56
:1046D000D4F8C4420799D5F8D452D1F8EC12129408
:1046E000DDF81C80079C0E930F951191D4F8F432DD
:1046F000D4F8F812D4F8FC52D8F8E8B2D4F8004351
:10470000002840F0F986DDF83090179009EB490C4D
:1047100007EB8C0C264F07EB4C0C4F462EE0C1EB01
:10472000050AC3EB04081003CAEB0808B0FBF6F057
:10473000CAEB680808FB00F803EB4A0A01EB04091E
:10474000AAEB690909EB283808FB00F8C3EB050957
:104750004FEA690909EB283909FB00F0DDF82090E0
:1047600001EB203080F31000C0F30B1049EA000089
:104770002CF8180B09980137B8421BDBA2F52F4221
:10478000C83ACCD50B985845D5BF0E980F980D9EBA
:10479000129EBBEB000B324400F1A187DDF82880AC
:1047A0002C460D46194638F81B30B8E7C8500010A3
:1047B000185B0010DDF81CC0CCF8E422CCF8F43211
:1047C000CCF8F812CCF8FC52CCF80043CCF8E8B2A4
:1047D0000798179CD0F8180310990B9004EA010968
:1047E000C74A002800F0CF80D2F84853D2F840439F
:1047F000D2F86C33AC420D95B4BF0021012103B354
:104800000D1D8B1D02EB850502EB8303D5F81C53B0
:10481000D3F81C33D2F82403EB1AE318D2F8285348
:10482000D2F83473D2F83863C2F840330023C2F8A8
:104830001C03C2F82053C2F82C73C2F83063C2F8CC
:104840006C33DDF81C804DF6A835D8F86873C0F2DB
:104850000105D8F8640308EB810105EB8702D1F864
:104860001C13B2F800260290D8F83003D8F8206361
:10487000D8F8444308910A92D8F81C13D8F82C238E
:10488000DDF830C012900298D8F83C330E960F91A4
:1048900011921794D8F84053D8F84C23D8F85013F5
:1048A000D8F85463D8F858430CEB4C0807EB880849
:1048B000002840F0B184934800EB480848464BE09C
:1048C0004FF0FF3540082B460D9CAC42D5BF129CE3
:1048D000119C0E9F0F9F2D1B08973B4400F196865D
:1048E000DDF82C9034460E46114639F81520C1EB00
:1048F000060B089FC2EB0409CBEB09094FEA033A08
:10490000BAFBF7FACBEB690909FB0AF9CDF84CA021
:1049100002EB4B0B01EB040AABEB6A0A139F0AEBA9
:10492000293909FB07F9C2EB060A4FEA6A0A0AEBC2
:10493000293A0AFB07F7DDF8289001EB273787F3C0
:104940001007C7F30B1749EA070728F8187B099FD8
:104950000CF1010C674508DBA3F52F43C83BC707E3
:10496000AED44008002BC2DAAEE7DDF81C80C8F8F0
:104970003C33C8F84053C8F84C23C8F85013C8F863
:104980005463C8F8584307985D4AD0F870030A90FA
:10499000002800F0C780D2F8A013D2F89803D2F80C
:1049A000C43388420B91B4BF0021012103B30C1D15
:1049B0008B1D02EB840402EB8303D4F87443D3F819
:1049C0007433D2F87C53E31AC318D2F88063D2F858
:1049D0008C43D2F89073C2F898330023C2F8745312
:1049E000C2F87863C2F88443C2F88873C2F8C4334B
:1049F000079C4DF6A835D4F8C073C0F2010504EB4E
:104A0000810105EB8703B3F80036D1F87463D4F85D
:104A10007813D4F8BC03D4F8942308930D91D4F8F8
:104A20008833079DD4F874430799D5F88453D1F897
:104A30009C131294DDF81C80079C0E930F95119126
:104A4000D4F8A433D4F8A813D4F8AC53D8F898B356
:104A5000D4F8B043002840F08783DDF830901690FA
:104A600009EB490C07EB8C0C264F07EB4C0C4F461F
:104A70002EE0C1EB050AC3EB04081003CAEB0808DB
:104A8000B0FBF6F0CAEB680808FB00F803EB4A0A33
:104A900001EB0409AAEB690909EB283808FB00F8C7
:104AA000C3EB05094FEA690909EB283909FB00F056
:104AB000DDF8209001EB203080F31000C0F30B10E4
:104AC00049EA00002CF8180B09980137B8421BDBA3
:104AD000A2F52F42C83ACCD50B985845D5BF0E98B1
:104AE0000F980D9E129EBBEB000B324400F1928595
:104AF000DDF828802C460D46194638F81B30B8E7FB
:104B0000C8500010185B0010DDF81CC0CCF89423CE
:104B1000CCF8A433CCF8A813CCF8AC53CCF8B04301
:104B2000CCF898B30798169CD0F8C80310990B904E
:104B30000B9D04EA0100A54A002D00F0D480D2F8B4
:104B4000F863D2F8F043D2F81C34B4421096B4BFE4
:104B50000021012103B30D1D8B1D02EB850502EB26
:104B60008303D5F8CC53D3F8CC33D2F8D873EB1AEF
:104B7000E318C2F8F033D2F8D433D2F8E453D2F8C1
:104B8000E843C2F8CC330023C2F8D073C2F8DC5338
:104B9000C2F8E043C2F81C34079D4DF6A837D5F89B
:104BA00018C4C0F2010707EB8C02B2F80026079F79
:104BB00005EB8101DDF81C80D5F8CC43D7F8F47300
:104BC000D5F81464D1F8CCB3D5F8EC33D5F8D013BC
:104BD0000892D5F8E023D5F8DC530D910E9212948B
:104BE0000F951697D8F8F053D8F8FC23D8F800148E
:104BF000D8F80474D8F80844002E40F04B82DDF851
:104C00003090CDF828B009EB49060CEB860C704EBD
:104C100006EB4C0CE346CC464EE04FF0FF35400827
:104C20002B46109CAC42D5BF0E9C0F9C0D9E129E35
:104C30002D1B0A96334400F14E85DDF82C803C464E
:104C40000F46114638F81520C1EB070A0A9EC2EB41
:104C50000408CAEB08084FEA0339B9FBF6F9CAEBB6
:104C6000680808FB09F8CDF8309002EB4A0A01EB1E
:104C70000409AAEB690909EB2838DDF830900CF13A
:104C8000010C08FB09F8C2EB07094FEA690909EBB7
:104C90002839DDF8308009FB08F6DDF8209001EBBB
:104CA000263686F31006C6F30B1649EA06062BF8DD
:104CB000186B099E664508DBA3F52F43C83BC60762
:104CC000ABD44008002BBFDAABE7DDF81C80C8F896
:104CD000EC33C8F8F053C8F8FC23C8F80014C8F83F
:104CE0000474C8F808441BB0BDE8F08F384800EBE6
:104CF0004808484651E04FF0FF3540082B460D99D3
:104D0000A942D9BF0F990E9C119E1399D5BF274672
:104D10003746089408966D1A48BF18990B9E14469A
:104D200048BF6D1836F81520DB1921462646C1EB21
:104D3000060B089FC2EB0409CBEB09094FEA033AC3
:104D4000BAFBF7FACBEB690909FB0AF9CDF850A0D9
:104D500002EB4B0B01EB040AABEB6A0A149F0AEB64
:104D6000293909FB07F9C2EB060A4FEA6A0A0AEB7E
:104D7000293A0AFB07F7DDF8289001EB273787F37C
:104D80001007C7F30B1749EA070728F8187B099F94
:104D90000CF1010CBC453FF7EAA8A3F52F43C83B33
:104DA000C707A8D44008002BC1DAA8E7DDF8308097
:104DB000DFF81C9008EB480C07EB8C0C47464FF0D3
:104DC000000809EB4C0CCDF8448034E0C8500010CA
:104DD000185B0010C1EB050AC3EB04081003CAEB13
:104DE0000808B0FBF6F0CAEB680808FB00F803EB14
:104DF0004A0A01EB0409AAEB690909EB283808FB08
:104E000000F8C3EB05094FEA690909EB283909FBEA
:104E100000F0DDF82080DDF8249001EB2030013730
:104E200080F31000C0F30B1048EA00004F452CF847
:104E3000180B3EF7C1AFA2F52F42C83ACAD50B985E
:104E40005845D5BF0E9913990D9E0F9EBBEB010BD4
:104E5000324400F134840A9D1C46214635F81B304B
:104E60002546B7E7BF4800EB4808484651E04FF0F9
:104E7000FF3540082B460D99A942D9BF0F990E9CCA
:104E8000139E1499D5BF27463746089408966D1A85
:104E900048BF19990B9E144648BF6D1836F8152067
:104EA000DB1921462646C1EB060B089FC2EB04091D
:104EB000CBEB09094FEA033ABAFBF7FACBEB6909E6
:104EC00009FB0AF9CDF860A002EB4B0B01EB040AD9
:104ED000ABEB6A0A189F0AEB293909FB07F9C2EB09
:104EE000060A4FEA6A0A0AEB293A0AFB07F7DDF8D5
:104EF000289001EB273787F31007C7F30B1749EA10
:104F0000070728F8187B099F0CF1010CBC453EF7F8
:104F100083AEA3F52F43C83BC707A8D44008002B96
:104F2000C1DAA8E7DDF83080DFF8389208EB480CEA
:104F300007EB8C0C47464FF0000809EB4C0CCDF802
:104F40003C8030E0C1EB050AC3EB04081003CAEB58
:104F50000808B0FBF6F0CAEB680808FB00F803EBA2
:104F60004A0A01EB0409AAEB690909EB283808FB96
:104F700000F8C3EB05094FEA690909EB283909FB79
:104F800000F0DDF82080DDF8249001EB20300137BF
:104F900080F31000C0F30B1048EA00004F452CF8D6
:104FA000180B3EF767ADA2F52F42C83ACAD5109844
:104FB0005845D5BF0D9913990B9E0E9EBBEB010B67
:104FC000324400F162830A9D1C46214635F81B30AD
:104FD0002546B7E7634800EB4808484651E04FF0E4
:104FE000FF3540082B460D99A942D9BF12990E9C56
:104FF0000F9E1199D5BF27463746089408966D1A1B
:1050000048BF13990B9E144648BF6D1836F81520FB
:10501000DB1921462646C1EB060B089FC2EB0409AB
:10502000CBEB09094FEA033ABAFBF7FACBEB690974
:1050300009FB0AF9CDF850A002EB4B0B01EB040A77
:10504000ABEB6A0A149F0AEB293909FB07F9C2EB9B
:10505000060A4FEA6A0A0AEB293A0AFB07F7DDF863
:10506000289001EB273787F31007C7F30B1749EA9E
:10507000070728F8187B099F0CF1010CBC453FF786
:10508000CAAAA3F52F43C83BC707A8D44008002BE2
:10509000C1DAA8E7DDF83080DFF8C89008EB4806F1
:1050A0000CEB860C09EB4C0CCDF830B050E04FF017
:1050B000FF3540082B4610990B9FA942CDBF129E89
:1050C0000D9C0E990F99CABF34460C940C966D1A1C
:1050D00048BF169E234448BFAD191446214637F8F1
:1050E00015202746C1EB070B0C9EC2EB0409CBEB46
:1050F00009094FEA033ABAFBF6FACBEB690909FB57
:105100000AF9CDF828A002EB4B0B01EB040AABEB3C
:105110006A0A0A9E0AEB293909FB06F9C2EB070A5B
:105120004FEA6A0A0AEB293A0AFB06F6DDF82090F4
:1051300001EB263686F31006C6F30B1649EA06067F
:105140002CF8186B099E08F10108B0453FF7BDAD7A
:10515000A3F52F43C83BC607A9D44008002BC1DAEA
:10516000A9E700BF185B0010DDF83080DFF8A893D6
:1051700008EB480C07EB8C0C47464FF0000809EB96
:105180004C0CCDF8588030E0C1EB050AC3EB0408A5
:105190001003CAEB0808B0FBF6F0CAEB680808FB7E
:1051A00000F803EB4A0A01EB0409AAEB690909EBD1
:1051B000283808FB00F8C3EB05094FEA690909EB39
:1051C000283909FB00F0DDF82080DDF8249001EBA0
:1051D0002030013780F31000C0F30B1048EA0000C4
:1051E0004F452CF8180B3FF78FACA2F52F42C83A69
:1051F000CAD50B985845D5BF0E990F990D9E129E92
:10520000BBEB010B324400F17B820A9D1C46214618
:1052100035F81B302546B7E7BF4800EB480848463D
:1052200051E04FF0FF3540082B460D99A942D9BFF8
:1052300012990E9C0F9E1199D5BF274637460894A8
:1052400008966D1A48BF17990B9E144648BF6D18F3
:1052500036F81520DB1921462646C1EB060B089FC0
:10526000C2EB0409CBEB09094FEA033ABAFBF7FAA0
:10527000CBEB690909FB0AF9CDF84CA002EB4B0B0B
:1052800001EB040AABEB6A0A139F0AEB293909FB0D
:1052900007F9C2EB060A4FEA6A0A0AEB293A0AFB47
:1052A00007F7DDF8289001EB273787F31007C7F3DE
:1052B0000B1749EA070728F8187B099F0CF1010C26
:1052C000BC453FF752ABA3F52F43C83BC707A8D453
:1052D0004008002BC1DAA8E78F4800EB4808484691
:1052E00051E04FF0FF3540082B460D99A942D9BF38
:1052F00012990E9C0F9E1199D5BF274637460894E8
:1053000008966D1A48BF14990B9E144648BF6D1835
:1053100036F81520DB1921462646C1EB060B089FFF
:10532000C2EB0409CBEB09094FEA033ABAFBF7FADF
:10533000CBEB690909FB0AF9CDF84CA002EB4B0B4A
:1053400001EB040AABEB6A0A139F0AEB293909FB4C
:1053500007F9C2EB060A4FEA6A0A0AEB293A0AFB86
:1053600007F7DDF8289001EB273787F31007C7F31D
:105370000B1749EA070728F8187B099F0CF1010C65
:10538000BC453EF79EAFA3F52F43C83BC707A8D443
:105390004008002BC1DAA8E7DDF83080DFF878910B
:1053A00008EB480C07EB8C0C47464FF0000809EB64
:1053B0004C0CCDF8488030E0C1EB050AC3EB040883
:1053C0001003CAEB0808B0FBF6F0CAEB680808FB4C
:1053D00000F803EB4A0A01EB0409AAEB690909EB9F
:1053E000283808FB00F8C3EB05094FEA690909EB07
:1053F000283909FB00F0DDF82080DDF8249001EB6E
:105400002030013780F31000C0F30B1048EA000091
:105410004F452CF8180B3EF779AEA2F52F42C83A4B
:10542000CAD50B985845D5BF0E9911990D9E0F9E60
:10543000BBEB010B324400F133810A9D1C4621462F
:1054400035F81B302546B7E7DDF83080DFF8C89027
:1054500008EB480C07EB8C0C47464FF0000809EBB3
:105460004C0CCDF8548030E0C1EB050AC3EB0408C6
:105470001003CAEB0808B0FBF6F0CAEB680808FB9B
:1054800000F803EB4A0A01EB0409AAEB690909EBEE
:10549000283808FB00F8C3EB05094FEA690909EB56
:1054A000283909FB00F0DDF82080DDF8249001EBBD
:1054B0002030013780F31000C0F30B1048EA0000E1
:1054C0004F452CF8180B3EF7CBAFA2F52F42C83A48
:1054D000CAD50B985845D5BF0E990F990D9E129EAF
:1054E000BBEB010B324400F116810A9D1C4621469C
:1054F00035F81B302546B7E7DDF83080DFF8189027
:1055000008EB480C07EB8C0C47464FF0000809EB02
:105510004C0CCDF85C8032E0185B0010C1EB050A42
:10552000C3EB04081003CAEB0808B0FBF6F0CAEBA3
:10553000680808FB00F803EB4A0A01EB0409AAEB30
:10554000690909EB283808FB00F8C3EB05094FEAA5
:10555000690909EB283909FB00F0DDF82080DDF846
:10556000249001EB2030013780F31000C0F30B10C2
:1055700048EA00004F452CF8180B3FF71BA9A2F58D
:105580002F42C83ACAD50B985845D5BF0E990F99E6
:105590000D9E129EBBEB010B32442CD40A9D1C467F
:1055A000214635F81B302546B8E7199C2D19FEF722
:1055B000EEBADDF830900124C9EB070004FA00F0E0
:1055C000DDF83C80149C48EA0008A344CDF83C80F8
:1055D000FEF7D9B8DDF830900124C9EB070004FAD2
:1055E00000F0DDF84480149C48EA0008A344CDF89C
:1055F0004480FEF7D4BB0C9C0125391B05FA01F150
:10560000179C11980C4383441794C7E7179C2D19D6
:10561000FFF766B9DDF830900124C9EB070004FA02
:1056200000F0DDF85880119C48EA0008A344CDF84A
:105630005880FFF75DBADDF830900124C9EB070010
:1056400004FA00F0DDF85480119C48EA0008A344F5
:10565000CDF85480FEF7F8BEDDF830900124C9EB98
:10566000070004FA00F0DDF84880139C48EA0008BF
:10567000A344CDF84880FEF73DBD139C2D19FEF7DD
:1056800085BF149C2D19FEF7D7BD0C9C0125391B35
:1056900005FA01F10F9C14980C4383440F9492E493
:1056A0000C9C0125391B05FA01F1129C13980C433F
:1056B00083441294C1E6189C2D19FEF713BC0C9C70
:1056C0000125391B05FA01F1119C14980C43834400
:1056D0001194FFF7C0BB169C2D19FFF7AEBADDF889
:1056E00030900124C9EB070004FA00F0DDF85C807B
:1056F000119C48EA0008A344CDF85C80FFF74EB83F
:105700000C9C0125391B05FA01F1169C11980C43DC
:105710008344169479E50C9C0125391B05FA01F1A7
:10572000159C11980C4383441594DEE6C3F307429D
:10573000180AFF2A08BF4FF4FF7102D0511CC9B2EA
:1057400049004DF6A83CC0F2010C61440CEB42024A
:10575000B2F80022B1F800E2C0B2C2EB0E0100FBC9
:1057600001F102EB112189B2FEF71CB818461C4961
:10577000019300F0BBFD019BFEF730B8C3F3074275
:10578000190AFF2A08BF4FF4FF7002D0501CC0B2A4
:1057900040004DF6A839C0F2010939F8122039F855
:1057A0000000C9B2801A01FB00F102EB112292B293
:1057B000FEF707B818460B49019300F097FD019BCF
:1057C000FEF719B8022B7DF45FAD13F029F8B4F899
:1057D0004616A4F86006B4F840A6FDF751BD00BF18
:1057E000A8DB0100A8DD01004AF6AB23CAF6AA2314
:1057F000F0B4A3FB0143DB081D460133072D294C00
:105800003ADC05EB45055BB200EB4505072B34F8A8
:1058100015502ADD00F12A06243034F8166034F8D9
:105820001040073B341B03FB04644FF6FF739C429C
:1058300028BF1C46A4B24AF6AB23CAF6AA23A3FB90
:105840000160C00800EB4000A1EB8001C9B209046F
:1058500001EB0222A3FB0213611BDB0803FB01F334
:1058600005EB134080B2F0BC704703EB430300EB41
:10587000430034F81040DEE700F12A0600F1240767
:1058800034F8166034F81770073DF71B07FB056501
:105890005BB24FF6FF76B54228BF3546072BADB257
:1058A000B8DCE2E72050001002EB012290B2704712
:1058B00002EB012290B2704703880A88934202D01B
:1058C00003D301207047002070474FF0FF3070472E
:1058D000C3B2062B10B40CD8074B00EB400003EB0F
:1058E00080000021FF2200F1180401768176C27544
:1058F000827510BC704700BF204E00104EF25072EF
:1059000044F62063C0F20102C1F20003125C93F876
:105910005F301A4214BF0020012070474FF440410D
:10592000C4F200010A7D4FF4404302F02002D2B2DB
:10593000C4F20003002AF5D0C0B21870704700BF4F
:1059400082B041F2A56102AAC0F2610146F21423BD
:1059500042F8041DC1F20003D3F800121068086079
:10596000D3F800220432C3F8002202B0704700BF0F
:105970000DF0EABCC28BC38AD14389B202FB03F2A9
:1059800003FB01F38168120C1B0C02844384016049
:10599000704700BF2DE9F04FAC4E8DB0B6F82480B3
:1059A000B6F832A0B6F85E30A94CCDF824A0A8F520
:1059B000004BC8F5004ACBF34F0BCAF34F0ADB0983
:1059C000B6F82C90CDF804A0A3F580734FEA1B2AFB
:1059D000B4F9BA06B4F9B8C61BB2CDF82CA0DDF8FC
:1059E00004A0718D18189C4409EB4909099B4FEAE2
:1059F00099094FEA1A2A974D1B0A090ACDF808A0FF
:105A0000C9F3072AB6F860708039CDF80CA0069368
:105A1000B4F9B4A694F8C43695F918204118CDF815
:105A200028B0F67C1FFA88F8CDF810C005917F0ADF
:105A30005FFA89F9CDF820A00793002A69D018F4FD
:105A4000004F95F817A040F013834FF0000B029918
:105A5000019A5B46D6B1012E40F239834AF6AB2358
:105A6000CAF6AA23A3FB0121A3FB0B23C908DB0869
:105A700003EB430301EB41014FEA830B8900002351
:105A800001F0FF010BF0FF0B1A4601E0D2B2DBB2CE
:105A90005144C9B200200093FFF706FF009B049A0F
:105AA0000BEB0A0102EB000EC9B21A4600208EF37E
:105AB000100BFFF7FDFE069B1FFA8BFB03FB0AFA98
:105AC000039B4A4603EB1A21DDF814A03BB2504475
:105AD000C9B280F3100A00201FFA8AFA9B449A4444
