:1000000000000110CD000000390100003B0100009C
:100010003D0100003F010000410100000000000020
:10002000000000000000000000000000430100008C
:10003000450100000000000047010000753C000081
:100040004B0100004B0100004B0100004B01000080
:100050004B0100004B0100004B010000CD5A000095
:100060004B0100004B0100004B0100004B01000060
:100070004B0100004B0100004B0100004B01000050
:100080004B0100004B0100004B0100004B01000040
:100090004B0100004B0100004B0100004B01000030
:1000A0004B0100004B010000793C00004B010000B7
:1000B0004B0100004B0100004B0100004B01000010
:1000C0004B0100004B0100004B0100001149124A96
:1000D000124B9A4205D008681060043104329A42EB
:1000E000F9D300200E490F4A914204D0914202D226
:1000F00008600431FAD30C480C49884206D00268E3
:10010000043003B4FE46974603BCF6E70848804730
:1001100008480047B8B00000000000106805001053
:1001200068050010E01400109CB000009CB00000B6
:10013000713B0000295B0000FEE7FEE7FEE7FEE7FB
:10014000FEE7FEE7FEE7FEE7FEE7FEE7654830B4C0
:10015000D0F80431DB053BD4D0F80C31DD072DD4C9
:10016000D0F8043113F01F0306D0D0F804215E4B01
:1001700002F01F02B3FBF2F35C495A480B60D0F85F
:10018000A82112F01F0264D156484A60D0F800211D
:1001900002F001020132B3FBF2F3524A8B60D2F853
:1001A000083113F4807FD2F808313FD003F01D03EB
:1001B000042B76D0002330BCCB607047D0F8A03140
:1001C0005C06CDD4002249491346C1E90022E4E788
:1001D000D0F88830D905F5D5D0F80C4114F00104D9
:1001E0003FD1D0F88810D0F80421D0F8A85101F000
:1001F0001F0112F01F02D0F8000101F1010C05F0FF
:100200001F0561D0384900F0010001FB0CF1B1FB82
:10021000F2F20130B2FBF0F334490A6025B1324A00
:1002200002FB0CF2B2FBF5F44C60B6E713F400737A
:10023000C1D030BCD2F80C31DB074CBFD2F8A820BB
:10024000D2F88820284B02F01F0202FB0333CB6058
:100250007047D0F8A801244A00F01F00B2FBF0F26A
:1002600092E7D0F8A0315A06ACD5D0F88810D0F873
:100270000431D0F8A82101F01F0113F01F03D0F8BA
:10028000005102F01F0201F1010020D11C46174964
:100290000C6022B1144C04FB00F0B0FBF2F24A6097
:1002A0007BE7D2F88800D2F80831D2F80C4100F090
:1002B0001F020D48013200FB02F230BC03F01F03A5
:1002C000B2FBF3F3CB60704723462246A4E7064C0B
:1002D00005F0010500FB04F4B4FBF3F40135B4FBB5
:1002E000F5F3D4E700C00F40001BB700000000107A
:1002F000034A137D5B06FCD5C3B21370704700BF81
:1003000000C00040002300BF00BF00BF00BF00BF0F
:1003100000BF00BF00BF00BF00BF00BF00BF00BFE5
:1003200000BF00BF00BF00BF00BF00BF00BF00BFD5
:1003300000BF00BF00BF00BF00BF00BF00BF00BFC5
:1003400000BF00BF00BF00BF00BF00BF00BF00BFB5
:1003500000BF00BF00BF00BF00BF00BF00BF00BFA5
:1003600000BF00BF00BF00BF00BF00BF00BF00BF95
:1003700000BF00BF00BF00BF00BF00BF00BF00BF85
:1003800000BF00BF00BF00BF00BF00BF00BF00BF75
:1003900000BF00BF00BF00BF00BF00BF00BF00BF65
:1003A00000BF00BF00BF00BF00BF00BF00BF00BF55
:1003B00000BF00BF00BF00BF00BF00BF00BF00BF45
:1003C00000BF00BF00BF00BF00BF00BF00BF00BF35
:1003D00000BF00BF00BF00BF00BF00BF00BF00BF25
:1003E00000BF00BF00BF00BF00BF00BF00BF00BF15
:1003F00000BF00BF00BF0133984284D1704700BFE7
:100400000549CB68DA07FCD5034A8860D3685B07E7
:10041000FCD59068C0B27047000003404022054BF5
:10042000DA6100BF00BF00BF00BF00BF00BF0020F7
:10043000704700BF008009204FF0010CF0B4446801
:1004400003780CFA04F4002900F0B080052B40F288
:10045000CE8000BF00BF00BF00BF00BF00BF00BF15
:1004600000BF00BF00BF00BF00BF00BF00BF00BF94
:1004700000BF00BF00BF00BF00BF00BF00BF00BF84
:1004800000BF00BF00BF00BF00BF00BF00BF00BF74
:1004900000BF00BF00BF00BF00BF00BF00BF00BF64
:1004A00000BF00BF00BF00BF00BF00BF00BF00BF54
:1004B00000BF00BF00BF00BF00BF00BF00BF00BF44
:1004C00000BF00BF00BF00BF00BF0378052B23D8CB
:1004D000D0E904750121C4685B0103F1005301FAFE
:1004E00004F403F5182301FA05F5B940D70702F023
:1004F00002069C6168D59961002E68D0012481694B
:1005000056079D6104FA01F468D501219C61C46914
:10051000A140140769D5996100BF00BF00BF00BFAB
:1005200000BF00BF00BF00BF00BF00BF00BF00BFD3
:1005300000BF00BF00BF00BF00BF00BF00BF00BFC3
:1005400000BF00BF00BF00BF00BF00BF00BF00BFB3
:1005500000BF00BF00BF00BF00BF00BF00BF00BFA3
:1005600000BF00BF00BF00BF00BF00BF00BF00BF93
:1005700000BF00BF00BF00BF00BF00BF00BF00BF83
:1005800000BF00BF00BF00BF00BF00BF00BF00BF73
:100590000378052B08D80122C1685B0103F10053E1
:1005A00003F518238A40DA61F0BC7047052B3FF64B
:1005B00050AF5B0103F1005303F51823DC61012107
:1005C0008468A140D96144E7D961002E96D1012405
:1005D0008169DD61550704FA01F496D40121DC61DB
:1005E000C469120701FA04F195D4D96194E75B015B
:1005F00003F1005303F518239C61E0E702780346FA
:10060000052A2DE9F0412DD8D3E90557D3E901E8B2
:100610000120520102F1005202F51822D3F810C055
:10062000146800FA0CFC24EA0C04DE69146000FA79
:1006300005FC156800FA07F725EA0C051560156832
:1006400000FA06F625EA07051560156800FA08F4B1
:1006500025EA060500FA0EF01560002940F08581B4
:10066000D061946100BF00BF00BF00BF00BF00BFEA
:1006700000BF00BF00BF00BF00BF00BF00BF00BF82
:1006800000BF00BF00BF00BF00BF00BF00BF00BF72
:1006900000BF00BF00BF00BF00BF00BF00BF00BF62
:1006A00000BF00BF00BF00BF00BF00BF00BF00BF52
:1006B00000BF00BF00BF00BF00BF00BF00BF00BF42
:1006C00000BF00BF00BF00BF00BF00BF00BF00BF32
:1006D00000BF00BF00BF00BF00BF00BF1A78052ADF
:1006E00008D80121D868520102F1005202F51822FF
:1006F0008140916100BF00BF00BF00BF00BF00BFCD
:1007000000BF00BF00BF00BF00BF00BF00BF00BFF1
:1007100000BF00BF00BF00BF00BF00BF00BF00BFE1
:1007200000BF00BF00BF00BF00BF00BF00BF00BFD1
:1007300000BF00BF00BF00BF00BF00BF00BF00BFC1
:1007400000BF00BF00BF00BF00BF00BF00BF00BFB1
:1007500000BF00BF00BF00BF00BF00BF00BF00BFA1
:1007600000BF00BF00BF00BF00BF00BF1978052950
:1007700000F2F9804A0102F1005202F5182256698E
:100780000120D3E906755C69D3F810C000FA04F2C1
:100790003240224100FA0CF4344044FA0CF4520185
:1007A00042EA041200FA07F434403C4142EA84125F
:1007B00000FA05F434402C41052942EAC41207D856
:1007C000DC68490101F1005101F51821A040C86120
:1007D00000BF00BF00BF00BF00BF00BF00BF00BF21
:1007E00000BF00BF00BF00BF00BF00BF00BF00BF11
:1007F00000BF00BF00BF00BF00BF00BF00BF00BF01
:1008000000BF00BF00BF00BF00BF00BF00BF00BFF0
:1008100000BF00BF00BF00BF00BF00BF00BF00BFE0
:1008200000BF00BF00BF00BF00BF00BF00BF00BFD0
:1008300000BF00BF00BF00BF00BF00BF00BF00BFC0
:1008400000BF00BF00BF00BF1978052908D80120EC
:10085000DC68490101F1005101F51821A0408861CF
:1008600000BF00BF00BF00BF00BF00BF00BF00BF90
:1008700000BF00BF00BF00BF00BF00BF00BF00BF80
:1008800000BF00BF00BF00BF00BF00BF00BF00BF70
:1008900000BF00BF00BF00BF00BF00BF00BF00BF60
:1008A00000BF00BF00BF00BF00BF00BF00BF00BF50
:1008B00000BF00BF00BF00BF00BF00BF00BF00BF40
:1008C00000BF00BF00BF00BF00BF00BF00BF00BF30
:1008D00000BF00BF00BF00BF1978052941D84801FB
:1008E00000F1005000F5182044694FF0010ED3E9E3
:1008F00005871E69DD690EFA06FC0CEA040030412A
:1009000010430EFA08F202EA040646FA08F640EA34
:1009100046000EFA07F606EA040848FA07F740EA26
:1009200087000EFA05F73C402C41052940EAC40037
:1009300015D8DC684B0103F1005303F518230EFAB8
:1009400004F4DC6119684CEA0101196019680A4372
:100950001A601A6816431E601A6817431F60BDE8C4
:10096000F0810024C1E700260AE7906179E600BF24
:1009700040F6FE734FF4001210B409214FF0A0545A
:1009800040000340C2F8E84FC2F88430C2F880103B
:10099000D2F88C00D2F8E03F5B01FBD54FF08063CA
:1009A00080B210BCC2F8E83F704700BF70B44FF48B
:1009B000001C4FF0A05504241388CCF8E85FCCF855
:1009C00084000230CCF8804080B2CCF88830DCF86B
:1009D000E03F5A01FBD506244FF080664FF080556A
:1009E0004FF4001201FA04F303F47C63CCF8E86FCF
:1009F000CCF8E85FCCF88430CCF88040D2F8E03F07
:100A0000DB00FBD570BC4FF080533F28C2F8E83FB5
:100A100084BF0023C2F88430704700BF08B5014688
:100A2000024800F0B7FC4FF0FF3008BDD8050010B9
:100A3000B1F5F04F2DE9F04728BF4FF4F041B2F582
:100A4000004648BFC2F500421C4648BF961140F61A
:100A5000FF7258BF761294424EF6FF7338BF1446A9
:100A60009C4228BF1C46476CE409B94203D1C36CC1
:100A7000B34200F091804B4BDFF82CC1A3FB012364
:100A8000DB0A03EB4303A1EB832303EB4303C3EB39
:100A9000C303C3F307250135C3F30F22EDB23CF8BE
:100AA00012203CF81550DBB2AD1A05FB03F302EB44
:100AB000132E3C4B1FFA8EFEA3FB01230EF5004EB6
:100AC000DB0AC3F10C034FEA4E2E2EFA03FE036B32
:100AD000C4F5007503FB0EFEBEFBF5F5334ABEFB05
:100AE000F4FEA2FB05CA4FEA1A4A0AF1010C93FB75
:100AF000FCF8A2FB0E290CFB18384FEA194909F142
:100B00000102B8F1000F0BD00AF1020AD44693FBA0
:100B1000FCF80CFB18380AF1010AB8F1000FF5D106
:100B200093FBF2F802FB1838B8F1000F0BD009F173
:100B300002094A4693FBF2F802FB183809F1010951
:100B4000B8F1000FF5D106EB0C03D0F82CC03244FD
:100B50006345A8BF63466245A8BF6246B5FBF3F58F
:100B6000BEFBF2FEDFF848C0C361BCFBF5F5BCFB81
:100B7000FEF3B942C0E90353026207D00223C0E981
:100B8000124680F854304164BDE8F087C36CB3422C
:100B900014BF02230123F2E7836CA3427FF46BAFFF
:100BA000F2E700BFABAAAAAAF4A000005917B7D178
:100BB000000E2707252300BF00BF00BF00BF00BFF6
:100BC00000BF00BF00BF00BF00BF00BF00BF00BF2D
:100BD00000BF00BF00BF00BF00BF00BF00BF00BF1D
:100BE00000BF00BF00BF00BF00BF00BF00BF00BF0D
:100BF00000BF00BF00BF00BF00BF00BF00BF00BFFD
:100C000000BF00BF00BF00BF00BF00BF00BF00BFEC
:100C100000BF00BF00BF00BF00BF00BF00BF00BFDC
:100C200000BF00BF00BF00BF00BF00BF00BF00BFCC
:100C300000BF00BF00BF00BF00BF00BF00BF00BFBC
:100C400000BF00BF00BF00BF00BF00BF00BF00BFAC
:100C500000BF00BF00BF00BF00BF00BF00BF00BF9C
:100C600000BF00BF00BF00BF00BF00BF00BF00BF8C
:100C700000BF00BF00BF00BF00BF00BF00BF00BF7C
:100C800000BF00BF00BF00BF00BF00BF00BF00BF6C
:100C900000BF00BF00BF00BF00BF00BF00BF00BF5C
:100CA00000BF00BF00BF013B85D1704700BF00BF40
:100CB00000BF00BF00BF00BF4022014B9A617047D8
:100CC00000800920002290F82B3002600133DBB253
:100CD000032B426080F82B3004D0052B1BD0022B55
:100CE00007D0704790F92830C28AC3B90384428480
:100CF0007047828AC18AD3439BB201FB02F201FB97
:100D000003F3D0F80CC0120C1B0C8184C0F800C097
:100D100002844384704780F82B2082847047B0F8A7
:100D200014C000B56FEA0C034FF0010E02FB0CF18A
:100D30009BB202FB03F3090C018481681B0CA0F831
:100D40001EC0016080F82BE043845DF804FB00BF07
:100D50000EB42DE9F0434FF0000886B00DAB53F808
:100D6000045BB54E02932C78252C10D0002C00F09B
:100D700049810A2C03D10D20D6F89430984720469B
:100D8000D6F89430013598472C78252CEED16C7824
:100D900004F0EF03202B00F02781002217460235D4
:100DA00004F0DF034C2B00F0AA80A4F14303352BA1
:100DB0003BD8DFE813F0360043003A003A003A002F
:100DC0003A0043003A003A003A003A003A003A004A
:100DD0003A003A003A008B003A0084003A003A00A8
:100DE0003D013A003A003A003A003A003A003A002F
:100DF0003A003A003A00360043003A003A003A001E
:100E00003A0043003A003A003A003A003A003A0009
:100E10003A003A003A008B003A0084003A003A0067
:100E20003D01029B1A1D1C7802920A2C00F0EF80F3
:100E3000B1462046D9F89430984794E7029B1C6845
:100E4000191D002C0291C0F2E980A4460A218DF8F8
:100E500017800DF1170400E0F446BCFBF1FE01FB26
:100E60001EC0C0B200F13003DBB2392B84BF373073
:100E7000C3B202F1FF3904F8013D0AB15FFA89F209
:100E80008C45E9D2002A00F0D580534263F0FF037D
:100E90001C443946204606F0EFFA002F3FF463AFBA
:100EA0000A2F03D10D20D6F8943098473846D6F84B
:100EB0009430984714F8017F002FF1D153E70A21AD
:100EC000029B181DD3F800C00290C0E7029B1F6868
:100ED0001A1D3C780292002C3FF445AFDFF8589180
:100EE0000A2C03D10D20D9F8943098472046D9F820
:100EF0009430984717F8014F002CF1D133E715F8DB
:100F0000014BA4F14303352B8FD801A151F823F0F5
:100F1000230E00003D0E00002B0E00002B0E0000E3
:100F20002B0E00002B0E00003D0E00002B0E0000CB
:100F30002B0E00002B0E00002B0E00002B0E0000CD
:100F40002B0E00002B0E00002B0E00002B0E0000BD
:100F5000CD0E00002B0E0000BF0E00002B0E000077
:100F60002B0E0000311000002B0E00002B0E000095
:100F70002B0E00002B0E00002B0E00002B0E00008D
:100F80002B0E00002B0E00002B0E00002B0E00007D
:100F9000230E00003D0E00002B0E00002B0E000063
:100FA0002B0E00002B0E00003D0E00002B0E00004B
:100FB0002B0E00002B0E00002B0E00002B0E00004D
:100FC0002B0E00002B0E00002B0E00002B0E00003D
:100FD000CD0E00002B0E0000BF0E00002B0E0000F7
:100FE0002B0E000031100000AB782746A3F1300231
:100FF000D2B2092A03D900221C460335D0E6EC7888
:101000000435CDE606B0BDE8F04303B07047DFF825
:1010100028900D20D9F8943098470AE7DFF8189007
:101020002D20D9F89430019264429847019A0CE738
:10103000102145E71F4633E76805001070B540F200
:10104000E73405460E460DE000BF00BF00BF00BFFD
:1010500000BF00BF00BF00BF00BF00BF00BF00BF98
:10106000013C11D000212846FFF7C8FA0306EBD453
:10107000321100212846FFF7DFF906F00F020021A8
:10108000BDE87040FFF7D8B933462046024A03490D
:10109000FFF75EFEECE700BFF4A200006C9D0000CD
:1010A00003782DE9F041052B054633D8D0E90276C7
:1010B000D5E906EC01225B0103F1005303F5182387
:1010C0004168D3F8008002FA01F141EA0801D0E951
:1010D0000440196002FA07F702FA06F602FA04F46D
:1010E00002FA00F002FA0EF102FA0CF2D3F800C094
:1010F00047EA0C071F601F683E431E601E683443AA
:101100001C601C6820431860186801431960196846
:101110000A431A60002103222846FFF78DF941F2A5
:10112000040100BF00BF00BF00BF00BF00BF00BF81
:1011300000BF00BF00BF00BF00BF00BF00BF00BFB7
:1011400000BF00BF00BF00BF00BF00BF00BF00BFA7
:1011500000BF00BF00BF00BF00BF00BF00BF00BF97
:1011600000BF00BF00BF00BF00BF00BF00BF00BF87
:1011700000BF00BF00BF00BF00BF00BF00BF00BF77
:1011800000BF00BF00BF00BF00BF00BF00BF00BF67
:1011900000BF00BF00BF00BF00BF00BF00BF00BF57
:1011A00000BF00BF00BF00BF00BF00BF00BF00BF47
:1011B00000BF00BF00BF00BF00BF00BF00BF00BF37
:1011C00000BF00BF00BF00BF00BF00BF00BF00BF27
:1011D00000BF00BF00BF00BF00BF00BF00BF00BF17
:1011E00000BF00BF00BF00BF00BF00BF00BF00BF07
:1011F00000BF00BF00BF00BF00BF00BF00BF00BFF7
:1012000000BF00BF00BF00BF00BF00BF00BF00BFE6
:1012100000BF013985D103222846FFF70DF9642468
:1012200000BF00BF00BF00BF00BF00BF00BF00BFC6
:1012300000BF00BF00BF00BF00BF00BF00BF00BFB6
:1012400000BF00BF00BF00BF00BF00BF00BF00BFA6
:1012500000BF00BF00BF00BF00BF00BF00BF00BF96
:1012600000BF00BF00BF00BF00BF00BF00BF00BF86
:1012700000BF00BF00BF00BF00BF00BF00BF00BF76
:1012800000BF00BF00BF00BF00BF00BF00BF00BF66
:1012900000BF00BF00BF00BF00BF00BF00BF00BF56
:1012A00000BF00BF00BF00BF00BF00BF00BF00BF46
:1012B00000BF00BF00BF00BF00BF00BF00BF00BF36
:1012C00000BF00BF00BF00BF00BF00BF00BF00BF26
:1012D00000BF00BF00BF00BF00BF00BF00BF00BF16
:1012E00000BF00BF00BF00BF00BF00BF00BF00BF06
:1012F00000BF00BF00BF00BF00BF00BF00BF00BFF6
:1013000000BF00BF00BF00BF00BF00BF00BF00BFE5
:10131000013C85D1284621460322FFF78DF80222A1
:101320002146FFF747FCFFF787F8FFF743FC2B6ADE
:1013300003F00101C9009B0748BF41F0040141F0DF
:101340002001FFF77BFE28460821FFF777FE28469D
:101350000121FFF773FE2846BDE8F04106216DE646
:1013600001216BE6022169E601F0030141F004016D
:1013700064E600BF01F0070141F008015EE600BF2E
:1013800001F00C0141F0100158E600BFC9B241F074
:10139000800153E670B540F2E73405460E460DE095
:1013A00000BF00BF00BF00BF00BF00BF00BF00BF45
:1013B00000BF00BF00BF00BF013C11D00021284684
:1013C000FFF71CF90306EBD4321101212846FFF781
:1013D00033F806F00F020121BDE87040FFF72CB88A
:1013E00033462046024A0349FFF7B2FCECE700BF50
:1013F000FCA200006C9D000038B50C46097839B19C
:1014000005462846FFF7C6FF14F8011F0029F8D14A
:1014100038BD00BF70B540200F26C02500241D49EF
:101420001D4BC86100BF00BF00BF00BF00BF00BFB1
:10143000DA68D207FCD59E60DA685207FCD59A6854
:10144000DA68D207FCD59D60DA685207FCD59A6845
:10145000DA68D207FCD59C60DA685207FCD59A6836
:10146000D2B200BF00BF00BF00BF00BF00BF12F07C
:10147000010C8861D5D112F0040006D1130700D405
:1014800070BD0649FFF764FCFEE760460449FFF7BC
:101490005FFCFEE70080092000000340AC9D0000D7
:1014A000889D00002DE9F84340254F4C0646E56134
:1014B00017460D461C4600BF00BF00BF00BF00BF5F
:1014C00000BF4A4AD368D807FCD513239360474A24
:1014D000D3685907FCD59368444AF10AF00ED368E3
:1014E000DB07FCD59060414AD3685807FCD5936868
:1014F0003E4AF00CD368DB07FCD5C0B290603B4A93
:10150000D3685807FCD59368384AD368DB07FCD505
:10151000C9B29160354AD3685807FCD5936800BFBB
:1015200000BF00BF00BF00BF00BF4FF04009DFF8A1
:10153000B880C8F81890FFF76DFFC8F81C9000BF7E
:1015400000BF00BF00BF00BF00BF284AD368D90753
:10155000FCD503239360254AD3685B07FCD5C6F30B
:101560000A0040EAC72093682049C0F30720CA68F0
:10157000D607FCD51D4B8860DA685207FCD59B68FE
:101580001A49CA68D307FCD50022184B8A60DA686A
:101590005707FCD59B681549CA68D607FCD50022B9
:1015A000124B8A60DA685007FCD50026691E89B2A2
:1015B0009B680E4A601E0C44D168C907FCD5966032
:1015C000D1684B07FCD5936800F8013FA042F3D1E6
:1015D00000BF00BF00BF00BF00BF00BF4022024BE2
:1015E0009A61BDE8F88300BF008009200000034035
:1015F0004022F8B5484B05460C46DA6100BF00BFF3
:1016000000BF00BF00BF00BF4449CB68D807FCD56E
:101610001323424A8B60D3685907FCD593683F4A2D
:10162000E80AE90ED368DB07FCD591603B4AD36832
:101630005F07FCD59368394AE90CD368DE07FCD50F
:10164000C9B29160354AD3685907FCD593683349CC
:10165000CB68DA07FCD5C0B2304A8860D3685B0734
:10166000FCD5936800BF00BF00BF00BF00BF00BF34
:101670004027294EB761FFF7CDFEF76100BF00BFDD
:1016800000BF00BF00BF00BF2449CB68DF07FCD507
:101690000323224A8B60D3685E07FCD593681F49F9
:1016A000C5F30225CB68D807FCD51C4A8D60D368EA
:1016B0005907FCD593681949CB68DA07FCD5002394
:1016C000164A8B60D3685B07FCD593681349CB68D7
:1016D000DF07FCD50023114A8B60D3685E07FCD579
:1016E000002193680D4B601E04F2FF14DA68D507E1
:1016F000FCD59960DA685207FCD59A6800F8012F8A
:10170000A042F3D100BF00BF00BF00BF00BF00BFB9
:101710004022014B9A61F8BD00800920000003407F
:101720004022F8B5684B05460C46DA6100BF00BFA1
:1017300000BF00BF00BF00BF6449CB68D807FCD51D
:101740001323624A8B60D3685907FCD593685F4ABC
:10175000E80AE90ED368DB07FCD591605B4AD368E1
:101760005F07FCD59368594AE90CD368DE07FCD5BE
:10177000C9B29160554AD3685B07FCD59368534959
:10178000CB68DF07FCD5C0B2504A8860D3685E07DB
:10179000FCD5936800BF00BF00BF00BF00BF00BF03
:1017A0004027494EB761FFF735FEF76100BF00BF24
:1017B00000BF00BF00BF00BF4449CB68D807FCD5BD
:1017C0008423424A8B60D3685907FCD593683F490C
:1017D000C5F30225CB68DB07FCD53C4A8D60D36896
:1017E0005F07FCD593683949CB68DE07FCD5002339
:1017F000364A8B60D3685D07FCD5936800BF00BF95
:1018000000BF00BF00BF00BF40222F4B9A61DA61CA
:1018100000BF00BF00BF00BF00BF00BF2B49CB68A7
:10182000D807FCD50623294A8B60D3685907FCD515
:10183000936800BF00BF00BF00BF00BF00BF4022D1
:10184000214B9A61DA6100BF00BF00BF00BF00BF3B
:1018500000BF1E49CB68DA07FCD510231B4A8B60FA
:10186000D3685B07FCD593681849E00AE50ECB689E
:10187000DF07FCD5154A8D60D3685E07FCD59368F9
:101880001249E40CCB68DD07FCD5E4B20F4A8C604A
:10189000D3685907FCD593680C49CB68DA07FCD5A7
:1018A000C0B20A4A8860D3685B07FCD5936800BF62
:1018B00000BF00BF00BF00BF00BF4022024B9A61C3
:1018C000BDE8F840A6E500BF008009200000034005
:1018D0002DE9F0414027724B06460D461446DF6164
:1018E00000BF00BF00BF00BF00BF00BF6D49CB6895
:1018F000DA07FCD513236B4A8B60D3685B07FCD5F2
:101900009368684AF10AF00ED368DF07FCD590604F
:10191000644AD3685807FCD59368624AF00CD368D0
:10192000DB07FCD5C0B290605E4AD3685F07FCD588
:1019300093685C4AD368D807FCD5C9B29160594A0C
:10194000D3685907FCD5936800BF00BF00BF00BF34
:1019500000BF00BF4FF04008514FC7F81880FFF795
:1019600059FDC7F81C8000BF00BF00BF00BF00BF0B
:1019700000BF4C49CB68DB07FCD58423494A8B6008
:10198000D3685F07FCD593684649C6F30226CB6847
:10199000D807FCD5434A8E60D3685907FCD59368B5
:1019A0004049CB68DA07FCD500233E4A8B60D368F8
:1019B0005B07FCD593683B4B04F5007114F8012BD1
:1019C000D868C707FCD59A60D8684607FCD58C4212
:1019D0009A68F3D100BF00BF00BF00BF00BF00BFC7
:1019E00040222F4B9A61DA6100BF00BF00BF00BFE9
:1019F00000BF00BF2B49CB68D807FCD50623294A76
:101A00008B60D3685907FCD5936800BF00BF00BF47
:101A100000BF00BF00BF4022214B9A61DA6100BFC6
:101A200000BF00BF00BF00BF00BF1E49CB68DA0780
:101A3000FCD510231B4A8B60D3685B07FCD59368E9
:101A40001849E80AEC0ECB68DF07FCD5154A8C6014
:101A5000D3685E07FCD593681249ED0CCB68DC07B0
:101A6000FCD5EDB20F4A8D60D3685907FCD5936859
:101A70000C49CB68DA07FCD5C0B20A4A8860D36843
:101A80005B07FCD5936800BF00BF00BF00BF00BF6D
:101A900000BF4022BDE8F041014B9A61BAE400BFAB
:101AA00000800920000003402DE9F04F4026072464
:101AB0000021BB4DBB4B2A68BB4832432A60DA6920
:101AC000AE6122F0070242F00202DA611A6AB74DF3
:101AD00022F0070242F002021A625A6A83B022F030
:101AE000070242F002025A62D0F8C42042F4806237
:101AF000C0F8C420AE4A14606E6851609A69AD4C5B
:101B000022F00702B4EB560F9A61C0F02581022241
:101B1000A74BD2B21868C0B21860186840EA012119
:101B200019601A615A6842F002025A60FEF776FCA8
:101B3000FF20FEF765FCFFF7B9F8FFF76BFCFEF737
:101B40006DFC9F20FEF75CFC0020FEF759FC002096
:101B5000FEF756FC04460020FEF752FC0646FFF74F
:101B6000A5F80020334622469349FFF7F1F80B2CE5
:101B700001D1122E03D0012003B0BDE8F08FFEF793
:101B80004DFC1F20FEF73CFCA020FEF739FC002096
:101B9000FEF736FCFFF78AF800214FF400124FF0F1
:101BA000A0564FF47A640A20C2F898102968834B33
:101BB000DFF80CC2A3FB01539B0C824FACFB011C52
:101BC00003EB8301C3EBC305C1EBC101A7FB01E13B
:101BD000C3EBC505A7FB05E5C3EB0313A7FB037325
:101BE0008909AD09013101359B09090441EA052143
:101BF0004FEADC3C01330B430CF1FF35C2F8945043
:101C0000C2F89030C2F8E86FC2F88440C2F8800091
:101C1000D2F88C10D2F8E03F5F01FBD54FF0806026
:101C2000694BC2F8E80F994200F094804FF0000928
:101C300066494846FFF78CF84FF400144FF080587F
:101C40004D46634FAA46FF2604E052463946FFF749
:101C50007FF8AA4601224FEA454B114658460DF13E
:101C600006038DF806608DF80760FFF71BFC012264
:101C70000DF107030BF500601146FFF713FC9DF80B
:101C800006009DF8073001351840ADB2DDD00422C2
:101C90004FF0A05309F03F01C4F8E83FC4F88410A6
:101CA000C4F880200231C4F888A04FEA9912D4F811
:101CB000E03F5E01FBD593014FF08062C4F8E82F4E
:101CC000C4F8E88FC4F884300623C4F88030D4F810
:101CD000E03FD800FBD53F2988BF002309F1020966
:101CE0001FFA89F9C4F8E88F88BFC4F88430B9F5C1
:101CF0007A6FA7D14FF400134FF0A0542020052194
:101D0000314AC3F8E84FC3F88400C3F88010C3F821
:101D10008820D3F8E02F5201FBD54FF080654FF0BB
:101D200080544FF4786006214FF40012C3F8E85F46
:101D3000C3F8E84FC3F88400C3F88010D2F8E03F3E
:101D4000DB00FBD54FF0805300202249C2F8E83F6A
:101D5000FEF7FEFF00200FE7B4EB960F1DD2022125
:101D60000A4601FB0223B6FBF3F3A34201F1010093
:101D70007FF6CEAEB0F5807F0DD10021023201FB9F
:101D80000223B6FBF3F3A34201F101007FF6C0AEDC
:101D9000B0F5807FF1D00146E3E702220121B7E6EA
:101DA0000080092000C0024000C00F400000001069
:101DB0000000034080969800D49D000083DE1B4302
:101DC000819F5E16D34D621037133842F09D00009C
:101DD0000C9E0000249E000003682BB11A781AB1F3
:101DE000D9888288914201D009207047587808B17B
:101DF0000320704700B5044983B00190FEF7A8FFA7
:101E0000019803B05DF804FB2C9E000008B104208B
:101E1000704770B5154601230E4609490446FEF782
:101E200097FFC5F30E20FEF7A3FD6A02C2F310026E
:101E300042EA40403146FFF7DBFB204670BD00BF61
:101E4000409E000010B504460A46407804F1300177
:101E5000FFF7DCFFB0B94AF65523B4F82E229A42B8
:101E60000ED1D4F86630084A23F07F43934206D05F
:101E7000D4F8820020F07F40801A18BF012010BDE6
:101E8000022010BD032010BD464154002DE9F04151
:101E9000046816462378303B092B03D862783A2A27
:101EA00000F0918000230B607B4DD5F8A440002CFE
:101EB00000F094800C602378002B76D100232380DF
:101EC000FFF7F2FD10F0010740F0868016B14607DB
:101ED00000F1868000212046FFF7B4FF01286CD076
:101EE00003287FD000286BD1B4F83B30B3F5007FD6
:101EF00066D1B4F8461001B9616D94F84020E161F3
:101F0000531E012BE2705BD894F83D30A370002B78
:101F100056D0581E184253D1B4F84160300726817C
:101F20004ED1B4F8430000B9206DB4F83EE0BEF1E4
:101F3000000F45D001FB02F20EEB161C94446045E5
:101F40003ED3A0EB0C009842B0FBF3F838D30EEB75
:101F5000070040F6F57EF04507EB0C0308F1020C94
:101F600049D94FF6F57EF045A3625ED8C4F818C093
:101F700020622EB34FEA4C0303F2FF130244B1EB8D
:101F8000532F62621CD34FF0FF3200230221C4E9B9
:101F900003320022B5F8A830217001339BB2A5F8B6
:101FA000A830E380E262227105E06078002885D1E4
:101FB0003A49FEF7CDFE002003E094F8F2319BB9D8
:101FC0000D20BDE8F0810022023404600A60002B7D
:101FD0003FF46AAF0B20F4E70320F2E70C20F0E7B0
:101FE0000A20EEE70120ECE7D4F8F67120463946E6
:101FF000FFF728FF74E7A362C4F818C02062002E20
:10200000DED00CF00103104403F2FF130CEB4C0282
:1020100003EB5203B1EB532F6062D1D34FF0FF3289
:1020200000230121C4E90332B3E72062C4F818C0D9
:10203000002EC5D14FEA8C03E26D03F2FF13B1EB22
:10204000532F6262BCD34FF0FF33B4F86020607846
:102050003A44E6606671626104F130012361FFF782
:10206000D5FE08B1032194E74AF65523B4F82E2291
:102070009A42F7D10A4B226B9A42F3D103F1FF53F4
:10208000D4F8142203F5005320339A42EAD1D4E95C
:102090008623C4E90332E5E7680500102C9E0000A2
:1020A000525261410EB42DE9F0434FF0000886B062
:1020B0000DAB53F8045BB54E02932C78252C10D051
:1020C000002C00F049810A2C03D10D20D6F898305D
:1020D00098472046D6F89830013598472C78252C1B
:1020E000EED16C7804F0EF03202B00F02781002262
:1020F0001746023504F0DF034C2B00F0AA80A4F150
:102100004303352B3BD8DFE813F0360043003A0099
:102110003A003A003A0043003A003A003A003A00E6
:102120003A003A003A003A003A008B003A00840044
:102130003A003A003D013A003A003A003A003A00CB
:102140003A003A003A003A003A00360043003A00BA
:102150003A003A003A0043003A003A003A003A00A6
:102160003A003A003A003A003A008B003A00840004
:102170003A003A003D01029B1A1D1C7802920A2C7B
:1021800000F0EF80B1462046D9F89830984794E7A0
:10219000029B1C68191D002C0291C0F2E980A44624
:1021A0000A218DF817800DF1170400E0F446BCFBFE
:1021B000F1FE01FB1EC0C0B200F13003DBB2392BCF
:1021C00084BF3730C3B202F1FF3904F8013D0AB1D0
:1021D0005FFA89F28C45E9D2002A00F0D58053429B
:1021E00063F0FF031C443946204605F045F9002FF3
:1021F0003FF463AF0A2F03D10D20D6F898309847EB
:102200003846D6F89830984714F8017F002FF1D15E
:1022100053E70A21029B181DD3F800C00290C0E7C3
:10222000029B1F681A1D3C780292002C3FF445AFB8
:10223000DFF858910A2C03D10D20D9F8983098472F
:102240002046D9F89830984717F8014F002CF1D163
:1022500033E715F8014BA4F14303352B8FD801A1C7
:1022600051F823F077210000912100007F21000028
:102270007F2100007F2100007F21000091210000CC
:102280007F2100007F2100007F2100007F210000CE
:102290007F2100007F2100007F2100007F210000BE
:1022A0007F210000212200007F2100001322000076
:1022B0007F2100007F210000852300007F21000096
:1022C0007F2100007F2100007F2100007F2100008E
:1022D0007F2100007F2100007F2100007F2100007E
:1022E0007F21000077210000912100007F21000064
:1022F0007F2100007F2100007F210000912100004C
:102300007F2100007F2100007F2100007F2100004D
:102310007F2100007F2100007F2100007F2100003D
:102320007F210000212200007F21000013220000F5
:102330007F2100007F21000085230000AB78274625
:10234000A3F13002D2B2092A03D900221C46033578
:10235000D0E6EC780435CDE606B0BDE8F04303B036
:102360007047DFF828900D20D9F8983098470AE791
:10237000DFF818902D20D9F89830019264429847E0
:10238000019A0CE7102145E71F4633E76805001066
:10239000F0B5C3B002AD4FF480720021284605F0BD
:1023A0006BF800240126A0B2FEF7E2FAC0F3CC03DA
:1023B000EA5C00F00700013406FA00F01043B4F5BF
:1023C000FA6FE854EFD10026FF27344605E00134C8
:1023D000B4F5006F06F5003623D0C4F3CC03EB5CF4
:1023E00004F007021341DB07F1D401223046114605
:1023F0000DF106038DF806708DF80770FFF752F89F
:1024000001220DF10703114606F50060FFF74AF8B7
:102410009DF806209DF807301A42D8D0204643B0D8
:10242000F0BD00200349FEF793FC01200249FFF7AD
:1024300039FEFEE7589E0000749E00002DE9F0472B
:102440000C46012322464E4982B08046C4F30E2A30
:102450000020FEF77DFC5046FEF78AFA6502C5F3C0
:10246000100545EA40454604FFF792FF4022454BE0
:102470008146DA61470400BF00BF00BF00BF00BF54
:1024800000BF414AD368DC07FCD5062393603E4A6F
:10249000D3685807FCD5936800BF00BF00BF00BFDA
:1024A00000BF00BF4022374B9A61DA6100BF00BF16
:1024B00000BF00BF00BF00BF334AD368D907FCD5B7
:1024C000D8239360304AD3685B07FCD593682E4AC3
:1024D000F90AF80ED368DC07FCD590602A4AD36865
:1024E0005807FCD59368284AF80CD368DB07FCD55D
:1024F000C0B29060244AD3685C07FCD59368224A36
:10250000D368D807FCD5C9B291601F4AD3685B076E
:10251000FCD5936800BF00BF00BF00BF00BF00BF75
:102520004022184B9A61FEF775FF304606F50036DB
:102530003F1A04E0FFF7F4F8A64220460ED0854289
:1025400000F5006407EB0001F4D3A542F2D228465F
:102550004246FFF7BDF9A6422046F0D14FEA4A00B5
:1025600000F03E00C9F30E090DF106024FEA5A11C0
:10257000ADF80690FEF71AFA002002B0BDE8F08729
:10258000909E000000800920000003402DE9F041EA
:10259000C66A8E4204D0037904460D461BB93DB984
:1025A0000020BDE8F0814378CBB10120BDE8F08187
:1025B00060780028F9D101232A461B49FEF7C8FBA1
:1025C000C5F30E20FEF7D4F96B02C3F3100304F138
:1025D000300143EA4040FFF70BF8E562E0E700F125
:1025E000300831464046FFF729FF0028DDD1D4E905
:1025F00007321A44B2422071D1D9E778012FCED9DF
:102600001E44637863B9013F31464046FFB2FFF78D
:1026100015FF012FC3D0E3691E446378002BF2D06D
:10262000002DBDD0C1E700BF409E000038B500219D
:102630000446FFF7ABFF054648B92378032B0AD0C1
:10264000657835B92A4628461649FEF781FB2846A3
:1026500038BD0125FBE76379002BF1D004F130038D
:1026600001464FF40072E062184604F005FF4AF696
:1026700055220D49034665780C48C4F814122063AE
:10268000A4F82E22D4E90301C4F81C02C4F81812DD
:1026900015B100236371D4E718466169FFF7CEFED8
:1026A0006578F6E7A89E000072724161525261415E
:1026B000F8B503780646022B0C4606D0032B3AD019
:1026C000012B14D04FF0FF30F8BD016A01EB14214B
:1026D000FFF75CFF0028F5D1640004F4FF74344474
:1026E00094F8313094F8300040EA0320F8BD016AD4
:1026F00004EB540701EB5721FFF748FF0028E1D115
:10270000316AC7F3080301373344304601EB5721E0
:1027100093F83050FFF73AFF0028D3D1C7F30807EA
:10272000374497F8303045EA0320E3074CBF0009EF
:10273000C0F30B00F8BD016A01EBD411FFF726FFCF
:102740000028BFD1A40004F4FE7404F13001314428
:102750008B78CD78321992F83020180440EA056061
:102760004B78104340EA032020F07040F8BD00BFD2
:102770002DE9F04784680546012CC18028D0D0F8A7
:102780000080D8F81830A34222D90E461CB398F81E
:102790000220B1EB021F4FEA02175FD3A34217D901
:1027A00098F80030022B00F08F80032B6ED0012BA5
:1027B00020D00120BDE8F087D8F824407CB198F8FB
:1027C0000220B1EB021F4FEA021747D3012CE5D1DB
:1027D0000220BDE8F08798F80020032AECD0002200
:1027E000B8F80830EA60B342F2D9D8F8243003EBE5
:1027F000161341E0D8F8201004EB5409404601EBD1
:102800005921FFF7C3FE0028D3D1D8F82010C9F30F
:10281000080309F101094344404601EB592193F8AB
:1028200030A0FFF7B3FE0028C3D1C9F30809C144A3
:1028300099F830304AEA032AE3074CBF4FEA1A14EA
:10284000CAF30B04012CC3D9D5F80080D8F818308E
:10285000A342BDD9F11B8EB2BE429FD2023BEC60B7
:10286000023C9C422FBF0023D8F8283098F8022061
:1028700004FB023303EB161308F1300806F00F01D6
:1028800008EB41110020C5E90431A2E7D8F8201077
:10289000404601EBD411FFF779FE002889D1A4004E
:1028A00004F4FE7404F130034344444494F83020AB
:1028B0009C78D97824045B7844EA0164144344EAA0
:1028C000032424F07044BDE7D8F82010404601EB03
:1028D0001421FFF75BFE00287FF46BAF640004F463
:1028E000FF74444494F8313094F8304044EA0324AF
:1028F000A8E700BF2DE9F84307780446022F0D46EC
:10290000164608D0032F3FD0012F16D002200123F6
:102910002371BDE8F883016A01EB1521FFF736FE4C
:102920000028F4D16D0005F4FF752544C6F3072394
:1029300085F8306085F8313042E0016A05EB5508D2
:1029400001EB5821FFF722FE0028E0D1216A08F1AF
:102950000109EB07C8F3080801EB5921A04434D55D
:1029600098F83030204603F00F0343EA061388F846
:1029700030302771FFF70AFE0028C8D1C9F30809D3
:10298000C6F30713A14432E0016A01EBD511FFF74A
:10299000FDFD0028BBD1AD0005F4FE7505F1300248
:1029A0002244D37825441B0603F070433343C3F31A
:1029B000072185F830305170190C1B0E9170D370BF
:1029C000012323710020BDE8F88388F83060204699
:1029D0002771FFF7DBFD002899D1C9F30809A1444D
:1029E00099F83030C6F3032623F00F03334389F8F8
:1029F0003030E5E701292BD9836970B58B420D464C
:102A000004461ED929462046FFF752FE0646E8B185
:102A1000012816D0431C1DD0A369AB4211D9294609
:102A200000222046FFF766FF60B923695A1C013374
:102A300009D00121A36922619E42617106D2354607
:102A4000E0E7022070BDA369B342F8D8002070BD52
:102A500002207047012070BD2DE9F84305460E465F
:102A6000E9B9C7688369002F00F0A1809F4228BFA1
:102A700001273C4601349C4220D3012F00F0958071
:102A8000022B1DD902242B78022B7AD0032B55D090
:102A9000012B19D04FF0FF342046BDE8F8830129FF
:102AA0000ED0836999420BD2FFF702FE012804463B
:102AB00006D9AB69834204D83746DAE7012CE2D164
:102AC00001242046BDE8F883296A04EB540928460E
:102AD00001EB5921FFF75AFD0028DBD1296AC9F320
:102AE000080309F101092B44284601EB592193F809
:102AF0003080FFF74BFD0028CCD1C9F30809A94469
:102B000099F83030E10748EA032352D51B0932D146
:102B1000AB69A342D4D96FF0704221462846FFF733
:102B2000E9FE002858D1002E48D12B69EC605A1CD0
:102B3000C7D00122013B2B616A71C2E7296A28468E
:102B400001EBD411FFF722FD0028A3D1A30003F469
:102B5000FE7303F130022A442B4493F8301093782B
:102B6000D0781B04527843EA00630B4343EA022304
:102B700033F07043CCD0012BA2D0A74215D0AB6963
:102B800078E7296A284601EB1421FFF7FFFC0028AB
:102B900080D1630003F4FF732B4493F8312093F842
:102BA000303053EA0223E6D1B2E7002489E7012757
:102BB0005FE7C3F30B03002BDDD1A9E7012E3FF440
:102BC0007FAFAB699E42BFF47BAF224631462846B9
:102BD000FFF790FE0028A8D001283FF45BAF6FE715
:102BE0002DE9F04FC48885B00134A4B2002C3DD04B
:102BF00003690546002B39D014F00F06026808D08F
:102C00000020303202EB4612EC806A6105B0BDE86C
:102C1000F08F8946C1680133036121B39778013F82
:102C200017EA1417ECD1012924D09369994221D2D3
:102C30001046FFF73DFD012880461BD9B0F1FF3F4C
:102C400000F091802A689369834215D9A0F1020AA5
:102C5000023B5345C5F80C8003D99378976A0AFB69
:102C600003772F61CCE71389A342C9D8042005B0AC
:102C7000BDE8F08F0220C9E7B9F1000FF6D0104689
:102C8000E968FFF7E9FE804600286ED00128F1D000
:102C9000B0F1FF3F67D0D5F80090D9F82CB0BBF168
:102CA000000F03D099F80430002B60D14FF400726C
:102CB000002109F1300004F0DFFB2A68A8F1020AC4
:102CC0009369991E8A452CBF0021916A937838BF79
:102CD0000AFB0311D162002B77D0CDE90067CDE963
:102CE00002844FF000094FF0010B0C46164686F89F
:102CF00004B02CB37378002B35D106F1300821468F
:102D00004046FFF79BFB70BB3071D6E907030344D5
:102D10009C4212D2F778012F0FD97378044463B91B
:102D2000013F21464046FFB2FFF788FB012F04D048
:102D3000F06973780444002BF2D02E68F46AB378FB
:102D400009F101095FFA89F901349945F462CED39A
:102D50003246019F009E2146DDE90284A1EB090174
:102D60009369D16274E7012050E707204EE799F894
:102D70000130002BF7D109F1300A59465046FFF7D0
:102D80005DFB0028EFD1D9E9072313449B4589F85F
:102D900004000BD299F80320012A07D90095254693
:102DA000144699F8013023B12C46009DD5F80090C7
:102DB0007CE7D9F81C30013C9B4450465946E4B2AC
:102DC000FFF73CFB012CECD1EEE79946C6E700BFCC
:102DD0004FF0FF0C2DE9F04F0768D0F81080044643
:102DE00065464646B94683B0CDF800C0D9F82C7088
:102DF000B74205D099F8043073BB002E40F0C08074
:102E000062691178002965D0E529D07A07D000F0F1
:102E10003F0310F0080061D00F2B00F09D80FF25CC
:102E2000E38801339FB2002F54D02669002E51D081
:102E300017F00F0AD4F8009007D1E1680136266137
:102E400071BBB9F80830BB4244D909F1300303EB38
:102E50004A13E7806361C9E799F80130E3B909F1E2
:102E6000300B39465846FFF7E9FAA8B9D9F81C30B3
:102E7000D9F8202089F804001A449742BDD299F865
:102E800003A0BAF1010FB8D91F4499F80130002B03
:102E900000F08F80002EB3D0012003B0BDE8F08F8A
:102EA00099F80230013B13EA1713CED1012965D0FE
:102EB000D9F81830994261D24846FFF7F9FB01284A
:102EC0005CD9431CE8D0D4F80090D9F81830984267
:102ED000C0F02981042003B0BDE8F08F0F2B3BD058
:102EE000002D00F0D6804FF6FF71A3692184D97AB6
:102EF000C90794D4157819788D4290D15D785178AE
:102F00008D428CD1957899788D4288D1DD78D178B1
:102F10008D4284D1157919798D4280D155795979AD
:102F20008D427FF47CAF957999798D427FF477AFAC
:102F3000D579D9798D427FF472AF157A197A8D429D
:102F40007FF46DAF557A597A8D427FF468AF927AEB
:102F50009B7A9A42A1D062E7E669E388002E3FF4AB
:102F600060AF4F0634D501F0BF05517B238400913B
:102F70000098517B814231D0FF2552E702208CE737
:102F800099F80100002887D1012332466D49FDF7E9
:102F9000DFFEC6F30E20FDF7EBFC7302C3F3100354
:102FA00009F1300143EA4040FEF722FBC9F82C60EA
:102FB00026E70AF1FF3A394658465FFA8AFAFFF7E0
:102FC0003DFABAF1010F3FF418AFD9F81C305BE7B6
:102FD000A942D1D1517B00988142CDD11178DFF83F
:102FE000688121F0400909F1FF3909EB49004FF0F0
:102FF000010B4FF6FF7E944609EB800908F10D0A9C
:10300000019503E07545B7D1D04534D018F8012BB0
:103010000CEB020040781CF8025045EA0025BBF199
:10302000000FEFD0494A61209346002703E03BF8A8
:10303000020F013730B1A842F9D1454800EB4707EC
:10304000B7F80454B9F1270F96D836F819B06120B3
:10305000002709F1010903E032F8020F013730B10E
:103060005845F9D13A4A02EB4707B7F804B45D4531
:1030700082D1D045CAD14806019D07D5BBF1000FCA
:1030800004D036F81920002A7FF476AF013DEDB266
:10309000C7E65578CB0143EA51032B44C3F34601FD
:1030A00041EAC3119378C9B21944C1F3460343EA14
:1030B000C113D178DBB20B44C3F3460141EAC3111B
:1030C0001379C9B21944C1F3460343EAC1135179D4
:1030D000DBB20B44C3F3460141EAC3119379C9B291
:1030E0001944C1F3460343EAC113D179DBB20B445F
:1030F000C3F3460141EAC311137AC9B21944C1F3BB
:10310000460343EAC113517ADBB20B44C3F34601D1
:10311000957A41EAC3132B44009903F0FF038B42D5
:103120007FF4E1AEB9E6023BE060023898422FBF7F
:10313000002699F80220D9F8283000FB02362661D3
:1031400083E600BF409E000008A3000018A3000013
:10315000F4A000002DE9F04FD0E9064B89B0A26839
:1031600082466168206805AB07C39DF81F30DA0707
:10317000019340F1FB800023012581468846621EB1
:10318000BDF81C709DF81E60E3720092CAF81C30F6
:10319000052DC4F80090C4F804802781A67240F27F
:1031A000C48059462846BBF80020C30343EA5003B5
:1031B000134431F8022F98B2002AF6D1034600F0EA
:1031C0000F0202F1300EBEF1390F88BF02F1370E47
:1031D0000F2B8DF813E0C0F30F1040F2AC8000F01D
:1031E0000F0101F13002392A88BF01F137020F289F
:1031F0008DF81220C3F30F2140F2A58001F00F00DB
:1032000000F13002392A88BF00F137020F298DF80A
:103210001120C3F30F3340F29C80DBB203F1300284
:10322000D2B2392A84BF3733DAB27E234FF0030C8F
:103230008DF810208DF80F300022009901E09445A0
:103240007FD011F8010F1346202802F10102F6D1B8
:103250000CF120026A4412F8141C062BE15412F8F7
:10326000131C04EB030251700CF1020203F1020182
:1032700012D0082A25D12022052B625403F1030025
:103280000AD0431C082BC0F108024FF0200188BF70
:103290000122204404F0F0F800215046FFF768FABC
:1032A00000285CD15046FFF793FD002857D1013527
:1032B000ADB2642D7FF46CAF0721084609B0BDE8BC
:1032C000F08F20326A4412F8142C052B62540CF152
:1032D000030203F10301DFD0082A06D12022042BC8
:1032E000625403F10400CCD1D6E720326A4412F8CC
:1032F000142C042B625403F10402CDD0BCF1030F53
:1033000006D02021032BA15403F10500B9D1C3E756
:10331000032B04F802E003F10502BDD02021022BAB
:10332000A15403F10600ACD1B6E705F1300E5FFA07
:103330008EFE8DF813E07E234FF0060C8DF81230D0
:103340007AE7634684E77E234FF0050C8DF8113051
:1033500072E77E234FF0040C8DF810306CE70428E0
:103360000146AAD1019BE372CAF81CB0019B9B07DE
:1033700050D4012400215046FFF7FAF901460028F5
:103380009BD10646054607E0A3B1054601215046FC
:10339000FFF726FC00284ED1DAF81010DAF800000A
:1033A000FFF7F4F86A1C002845D1DAF814301B78CE
:1033B000E52BE9D10DB9BAF8066095B2AC42E5D17A
:1033C000012C3AD1DAF81010DAF80000FFF7DEF835
:1033D000014600287FF471AFDAF8144020220090F3
:1033E000204604F049F8DAF818300099621E03F11B
:1033F0000B0513F8010BAB4202F8010FF9D10122C2
:10340000DAF81830DB7A03F018032373DAF80030A7
:103410001A7152E7BBF8003033B1002301339BB27D
:103420003BF81320002AF9D10D2203F11904B4FB53
:10343000F2F4A4B29EE701463FE731465046FFF75B
:1034400097F9014600287FF438AFDAF8182002F126
:103450000B00CB0143EA510312F8011B0B448242DB
:1034600003F0FF01F5D1013CA7B20F260D254FF661
:10347000FD7488463BE04FF6FF72A3F803204FF639
:10348000FF72A3F805204FF6FF72A3F807204FF64E
:10349000FF72A3F809204FF6FF72DA814FF6FF7230
:1034A0001A824FF6FF725A824FF6FF729A824FF6D7
:1034B000FF72DA824FF6FF721A834FF6FF729A8319
:1034C0004FF6FF72DA834CF0400C012283F800C003
:1034D000DAF80030002150461A71FFF781FB00280E
:1034E00040F0E380013FBFB2002F3FF46BAFDAF84A
:1034F0001010DAF80000FFF749F80146002840F004
:10350000D4805FFA87FC0CF1FF3205FB02F2DAF897
:103510001430DAF81C00598383F80D80A3F80B608F
:1035200030F8121001F1FF3E1FFA8EFE5970A645C9
:103530004FEA112199704FEA42019CD8013230F8CC
:1035400012E052000EF1FF3983F803E04FEA1E2E1D
:1035500083F804E01FFA89FEA64590D80244B2F829
:1035600002E00EF1FF3983F805E04FEA1E2E83F8E2
:1035700006E01FFA89FEA64585D8B2F804E00EF1F0
:10358000FF3983F807E04FEA1E2E83F808E01FFAA0
:1035900089FEA6453FF67BAFB2F806E00EF1FF3993
:1035A00083F809E04FEA1E2E83F80AE01FFA89FE2D
:1035B000A6453FF670AFB2F808E00EF1FF3983F888
:1035C0000EE04FEA1E2E83F80FE01FFA89FEA64593
:1035D0003FF664AFB2F80AE00EF1FF3983F810E06D
:1035E0004FEA1E2E83F811E01FFA89FEA6453FF62A
:1035F00058AFB2F80CE00EF1FF3983F812E04FEA51
:103600001E2E83F813E01FFA89FEA6453FF64CAF45
:10361000B2F80EE00EF1FF3983F814E04FEA1E2EE7
:1036200083F815E01FFA89FEA6453FF640AFB2F8D1
:1036300010E00EF1FF3983F816E04FEA1E2E83F8F2
:1036400017E01FFA89FEA6453FF634AFB2F812E044
:103650000EF1FF3983F818E04FEA1E2E83F819E0C7
:103660001FFA89FEA6453FF628AFB2F814E00EF126
:10367000FF3983F81CE04FEA1E2E83F81DE01FFA85
:1036800089FEA6453FF61CAFD28A02F1FF3E9A772B
:10369000120ADA771FFA8EF2A2423FF614AF0844FC
:1036A000428B002A7FF411AF0DE7014605E600BF0B
:1036B0002DE9F04F0B788A462F2B044683B030D08B
:1036C0005C2B2ED00025A5609AF800301F2B40F20D
:1036D0004381B44D534619781E462F299E4603F167
:1036E0000103F8D05C29F6D01F290A46E06914D9F5
:1036F000A0F1020C2F2AE0464FF0010328D05C2AEB
:1037000026D0292B09D07F2A0ED82221A64F02E0ED
:1037100017F8011F81B19142FAD1062003B0BDE82C
:10372000F08F0AF1010ACDE705EB4101B1F8E4247D
:10373000002AF2D07F2AE8D928F8022F1EF8012F9C
:103740005F1C1F2A114640F2E8802F2A3B46D6D143
:1037500006EB030A013BE0D0002600EB430131F801
:10376000022D202A01D02E2A02D1013BF7D1D4E725
:103770004FF02037002142F220084FF0200EA269BE
:1037800020F81310A2F808801760576082F80AE04A
:1037900000E001313CF8022F202AFAD02E2AF8D07E
:1037A00009B146F0030600EB430701E0013B04D0FA
:1037B00037F802CDBCF12E0FF8D1D4F818E0013162
:1037C000F446002A00F0E28000274FF00808B946CE
:1037D000CDF804A0202A51D02E2A58D0C8456AD846
:1037E000B8F10B0F58D08B4200F08F8046F00306E3
:1037F0008B4280F08A809EF80030F446E52BDDF89D
:1038000004A004D105238EF80030D4F818C0B8F114
:10381000080F04BFBF00FFB207F00C030C2B71D0E0
:1038200007F00307032F6DD0B20707D4012F08BF9D
:1038300046F01006042B08BF46F00806002120467B
:103840008CF80B60FEF794FF002851D12046FFF75B
:10385000BFFAA369DB7A00284CD159073FF55EAF68
:103860006369DA7AD2064BD521685A8B0978032925
:1038700004BF9B8A42EA0342A2602BE70A4646F055
:103880000306511C30F81220002AA3D1B3E78B4263
:10389000F4D1B8F10B0FABD19EF80030F446E52B14
:1038A000DDF804A046F00306B6D105238EF80030FB
:1038B000D4F818C0B0E78B42EBD07F2A31D84FF054
:1038C0002B0CE246DFF8E4B09446524603E01BF8C6
:1038D000012F002A46D09445F9D15F2246F0030615
:1038E0000EF80920D4F818E00A4609F10109C8E7E2
:1038F000A369DB7A04287FF411AF5C073FF50EAFB4
:1039000005200BE746F0020698E7BF001A464FF085
:103910000B084FF00809FFB2B3E706EB070A0426CD
:103920001BE74FF0000CDFF888A004E00CF1010C5D
:10393000BCF1800F3ED03AF802BB9345F6D10CF1B2
:103940008002DFF860C092B2624492F8642646F0CA
:103950000206002AC1D0B2E729462046FEF708FF3A
:103960006561DBE66246ACF1410CBCF1190F03D88E
:1039700047F00207D2B2B3E7A2F1610CBCF1190F14
:103980009CBF203A47F00107D2B2A9E79EF8003069
:10399000E52B7FF453AF05238EF80030D4F818C020
:1039A0004CE700BFF4A00000BC9E0000C89E0000D1
:1039B000D8A6000046F002068FE700BF2DE9F043CD
:1039C000002304460E46444AA5B0029206A902A866
:1039D000236006F01E02FEF759FA054618B1284684
:1039E00025B0BDE8F08303AB0C9302990FAB06A89A
:1039F0000D93FFF75DFE0B9F06F01C0350B9002FDF
:103A000068D0FA7A5BB112F0110F29D1320733D4A2
:103A1000069B0FE00BB1042826D00546DFE7D3064E
:103A200020D4B00701D5D1071AD43207069B01D59F
:103A300046F02006DA6AA671C4E9072719787A8B5E
:103A4000032904BFB98A42EA014222610022F969CE
:103A50002360DB88C4E90221A380A2616262BEE721
:103A60000725BCE70425BAE706A8FFF773FB46F075
:103A700008060028D1D10B9F0022184BFA72C7F814
:103A80000E30069BFA611A78B7F81A80032A08BF2D
:103A9000BA8A4FF0010108BF48EA024800227A833F
:103AA000BA821971B8F1000FC2D018464146D3F856
:103AB0002C900193FEF79EFF019B0028ADD108F1E9
:103AC000FF3249461846DA60FEF760FD0028A4D1AF
:103AD000069BADE7062582E7D09E000000009A3CD9
:103AE00010B50446FEF778F9B0B9A3799A063AD52D
:103AF0005B0622680BD55378A1696BB904F12800E5
:103B0000FEF79CFC40B9A37923F04003A371E1695F
:103B10002068FEF73BFD00B110BD0121236ADA7A6F
:103B200042F02002DA72E2681A77A289120A5A7702
:103B3000E2899A77E27BDA77226958829A76C2F331
:103B40000720120CD8761A75100A084A5875C3F85F
:103B50001620A379206823F02003A3710171FEF7DA
:103B600065FD0028D8D10023236010BD00009A3CD9
:103B70002123284AF0B5C2F8A031D2F8A0315C0662
:103B8000FBD501230925AA2455202249C2F80C316E
:103B9000C2F88450C2F88030C2F88C40C2F88C0061
:103BA000D1F888305805FBD523250124AA205522B9
:103BB000184BC1F8A450C1F8A040C1F8AC00C1F83E
:103BC000AC20D3F8A8205205FBD540F2011E0127F6
:103BD00002264FF4807240F2012C45F23A04002094
:103BE0000D4DC3F804E1C3F808C1C3F80071C3F870
:103BF000A861C3F8C450C3F8C821D3F8B02107495D
:103C000042F00302C3F8B0211C608860BDE8F040B8
:103C1000FCF79CBA00C00F40DE87280400ED00E0EE
:103C200000207047184670470020704700207047FA
:103C30004FF4005300205360704700BF01207047CD
:103C4000FEE700BF4FF0FF30704700BF4FF0FF307E
:103C5000704700BF054B064AD3F8AC00002808BFE8
:103C600010460144C3F8AC10704700BF680500104F
:103C7000E0140010704700BF2DE9F04FBE4CBF4B61
:103C8000D4F8201A1B780B0E94F8372A93B00BD176
:103C9000531E052B00F22387DFE813F02B002107CA
:103CA0008206A006BD06CC0694F8363AD4F8245A0B
:103CB000C3F101035BB2002B14BF6FF07F41002101
:103CC0005800C0F1010005FB00F084F8363AC4F852
:103CD000280AC4F8201A002A01F0E986022AD7D15E
:103CE00002F0D6FE94F8372AD4F8201AA4F8300A45
:103CF000CEE7C1F30F23D4F8280AA4F8303AB4F879
:103D00002C2AA3F500431BB202FB03F3D4F83C6A50
:103D10001B140844A4F8323A330E94F8532AC4F81A
:103D2000200A41F09686531E052B00F2D286DFE86A
:103D300013F0AB06D0068D06B3062606060094F9EE
:103D4000522AC6F34F23A4F84C3A002A00F02086EA
:103D5000D4F8441A8A4DB4F8482A2F46A3F50043F4
:103D60001BB202FB03F331441B14A4F84E3AC4F80F
:103D70003C1A002303F30F0B83F3100305F26E7854
:103D80000093D5F82C2594F8BE6A130E40F0BF8638
:103D900095F85335013B032B01F28F86DFE813F0D2
:103DA000C7050400EB05040095F94E15130A002918
:103DB00040F005879BB2DB439BB2B5F84A05B5F8E6
:103DC000481500FB03F3D5F8280501EB1341D5F89E
:103DD00024340244C5F82C251A0EA5F84C1540F0E1
:103DE0009E8695F84B24013A032A01F26C86DFE89F
:103DF00012F0760504009A05040095F946141A0A93
:103E0000002940F0BE8692B2D24392B2B5F8420485
:103E1000B5F8401400FB02F2D5F8200401EB124281
:103E2000D5F834160344C5F824340B0EA5F8442401
:103E300040F07D8695F85B36013B032B01F240860E
:103E4000DFE813F0250504004905040095F956261E
:103E50000B0A002A40F0D6869BB2DB439BB2B5F832
:103E60005206B5F8502600FB03F302EB1342D5F8D7
:103E7000300692B2A5F85426C2EB4243009A0144A0
:103E800043F34F037007134483F310034CBFA3F5B0
:103E900000405846C5F8341648BF584471064ABF1A
:103EA000A3F50049D946D94416F0010F14BF1A46AC
:103EB0004FF4004216F0020F9A4608BF4FF4004339
:103EC00038F8021F92B201449BB2384681F31001C8
:103ED00089B2FCF7ADFD16F0100F14BF52464FF437
:103EE0000042B8F80C10B306494407F1580081F3BA
:103EF000100192B289B240F1F8851FFA8AF3FCF7FB
:103F000097FD204B2C35AB4207F1B0077FF439AF5A
:103F10004FF400420099D4F8E432A4F8CA1AA4F885
:103F2000CC2A002B01F0BA8594F938C3BCF1010FFB
:103F300000F3E186D4F8E822D4F8ECA20192D4F898
:103F4000FC220292D4F8F8220092D4F81053D4F84C
:103F500030030A95D4F81493D4F82073D4E9C2211D
:103F6000D4E9C656002840F06B8680468646DDF8C8
:103F70000CB010900BE000BF68050010000000209E
:103F80004C080010540900100130102819D0A2F27A
:103F9000DC52002AF8DA8945D6BFD346DDE9008B2A
:103FA000DDF808805A44B1EB080100F1C885013002
:103FB0001028BB464FF0010837462E4633F8115003
:103FC000E5D1CDF80CB0C4F80823B8F1000F00F02B
:103FD0006586039BC4E9C656C4E9C873109B63B1E8
:103FE000009B84F838C3C4F8F832019BC4F8ECA2F3
:103FF000C4F8E832029BC4F8FC32C4F80C13D4F8BD
:10400000C03AD4F83C83009303EA0E03B8F1000FE2
:104010005CD094F990C3BCF1010F01F3CB80D4F8CC
:104020004023D4F844E30292D4F850230192D4F808
:1040300054230392D4F8880304F5587191E82604B8
:10404000D4F878731095D4E9DC56002841F04E80FE
:1040500081460A90AB46102017E04FF0FF32114620
:104060009245D6BF7546DDE90195DDF80C902944EF
:10407000B2EB090200F17287013806974FF001098F
:1040800037465E4638F812B00AD003F001055B08E7
:10409000002DE2D1A1F2DC510029E1DB0138F4D19D
:1040A0005D46C4F86013B9F1000F41F055800A9BDA
:1040B00063B1019B84F890C3C4F85033029BC4F8E9
:1040C00044E3C4F84033039BC4F85433D4F8943326
:1040D000002B5DD094F9E8C3BCF1010F00F3EF872A
:1040E000D4F89823D4F89CA30292D4F8AC2303927A
:1040F000D4F8A8230192D4F8C053D4F8E0030A9569
:10410000D4F8C493D4F8D073D4E9EE21D4E9F256AC
:10411000002841F0128386468046DDF830B00690D4
:1041200002E00130102819D0A2F2DC52002AF8DA9D
:104130008945D6BFD346DDE901EBDDF80CE05A44F2
:10414000B1EB0E0100F1E68601301028BB464FF0BE
:10415000010E37462E4633F81150E5D1CDF830B078
:10416000C4F8B823BEF1000F41F01583069B63B17C
:10417000019B84F8E8C3C4F8A833029BC4F89CA34D
:10418000C4F89833039BC4F8AC33009B03EA0803DC
:10419000D4F8ECE3BEF1000F5BD094F940C4BCF15D
:1041A000010F00F37387D4F8F023D4F8F4A302923C
:1041B000D4F800240192D4F80424039204F5826117
:1041C000D4F8380491E826020A9504F58465E0CD18
:1041D000002840F0F38680460690AB46102017E09A
:1041E0004FF0FF3211469145D6BF5546DDE90185B6
:1041F000DDF80C802944B2EB080200F17486013826
:1042000007974FF0010837465E463EF812B00AD0D5
:1042100003F001055B08002DE2D1A1F2DC51002979
:10422000E1DB0138F4D15D46C4F81014B8F1000F99
:1042300040F0FA86069B63B1019B84F840C4C4F841
:104240000034029BC4F8F4A3C4F8F033039BC4F811
:104250000434D4F84434002B5ED094F998C4BCF1F3
:10426000010F00F39286D4F84824D4F84CA40292AB
:10427000D4F858240192D4F85C240392D4F87054F2
:10428000D4F89004079504F58F65D4F87494D4F8A5
:104290006824D4F86C14E0CD002841F0EA81864609
:1042A0008046DDF834B0069002E00130102819D0C5
:1042B000A2F2DC52002AF8DA8945D6BFD346DDE9FE
:1042C00001EBDDF80CE05A44B1EB0E0100F1E98599
:1042D00001301028BB464FF0010E37462E4633F80A
:1042E0001150E5D1CDF834B0C4F86824BEF1000F08
:1042F00041F0ED81069B63B1019B84F898C4C4F83A
:104300005834029BC4F84CA4C4F84834039BC4F846
:104310005C34009B03EA0803D4F89CE4BEF1000F70
:104320005BD094F9F0C4BCF1010F01F37780D4F8AD
:10433000A024D4F8A4A40292D4F8B0240192D4F812
:10434000B424039204F59861D4F8E80491E82602B5
:10435000079504F59A65E0CD002840F0F787804680
:104360000690AB46102017E04FF0FF321146914502
:10437000D6BF5546DDE90185DDF80C802944B2EB56
:10438000080200F17785013808974FF00108374699
:104390005E463EF812B00AD003F001055B08002D1E
:1043A000E2D1A1F2DC510029E1DB0138F4D15D4614
:1043B000C4F8C014B8F1000F40F0FE87069B63B14B
:1043C000019B84F8F0C4C4F8B034029BC4F8A4A4E0
:1043D000C4F8A034039BC4F8B434D4F8F434002BEC
:1043E0005ED094F948C5BCF1010F00F39687D4F86C
:1043F0000825D4F8F8A40192D4F8FC240392D4F848
:104400000C250292D4F82055D4F84005079504F500
:10441000A565D4F82495D4F81825D4F81C15E0CD5A
:10442000002841F0B28286468046DDF838B006901A
:1044300002E00130102819D0A2F2DC52002AF8DA8A
:104440008945CABFD346DDE902EBDDF804E05A44F2
:10445000B1EB0E0100F1EC8401301028BB464FF0A7
:10446000010E37462E4633F81150E5D1CDF838B05D
:10447000C4F81825BEF1000F41F0B582069B63B168
:10448000019B84F848C5C4F80835029BC4F8F8A419
:10449000C4F80C35039BC4F8FC34009B03EA080302
:1044A000D4F84CE5BEF1000F66D094F9A0C5BCF17C
:1044B000010F01F3C580D4F85025D4F854A5029219
:1044C000D4F860250192D4F86425039204F5AE6116
:1044D000D4F8980591E82602079504F5B065E0CD7B
:1044E000002841F04E8080460690AB46102017E031
:1044F0004FF0FF3211469145D6BF5546DDE90185A3
:10450000DDF80C802944B2EB080200F17A8401380E
:1045100009974FF0010837465E463EF812B00AD0C0
:1045200003F001055B08002DE2D1A1F2DC51002966
:10453000E1DB0138F4D15D46C4F87015B8F1000F25
:1045400001F05580099BC4F88875C4F88C35069B2A
:10455000C4F88465C4F8805563B1019B84F8A0C594
:10456000C4F86035029BC4F854A5C4F85035039BC9
:10457000C4F86435C4F87425D4F8A435002B5ED093
:1045800094F9F8C5BCF1010F00F3E287D4F8B8251F
:10459000D4F8A8A50192D4F8AC250392D4F8BC2590
:1045A0000292D4F8D055D4F8F005079504F5BB6510
:1045B000D4F8D495D4F8C825D4F8CC15E0CD00288B
:1045C00041F07F8186468046DDF83CB0069002E0EF
:1045D0000130102819D0A2F2DC52002AF8DA8945FD
:1045E000CABFD346DDE902EBDDF804E05A44B1EB83
:1045F0000E0100F1E48301301028BB464FF0010E9C
:1046000037462E4633F81150E5D1CDF83CB0C4F80A
:10461000C825BEF1000F41F08281069B63B1019B6A
:1046200084F8F8C5C4F8B835029BC4F8A8A5C4F846
:10463000BC35039BC4F8AC35009B03EA0803D4F8EF
:10464000FCE5BEF1000F5BD094F950C6BCF1010F40
:1046500000F34A86D4F80026D4F804A60292D4F8CF
:1046600010260192D4F81426039204F5C461D4F8FC
:10467000480691E82602079504F5C665E0CD0028B6
:1046800040F0CA8580460690AB46102017E04FF0F8
:10469000FF3211469145D6BF5546DDE90185DDF86B
:1046A0000C802944B2EB080200F1738301380497AF
:1046B0004FF0010837465E463EF812B00AD003F0CC
:1046C00001055B08002DE2D1A1F2DC510029E1DBFC
:1046D0000138F4D15D46C4F82016B8F1000F40F05F
:1046E000D185069B63B1019B84F850C6C4F810368F
:1046F000029BC4F804A6C4F80036039BC4F8143621
:10470000D4F85436002B5ED094F9A8C6BCF1010F42
:1047100000F36985D4F86826D4F858A60192D4F835
:104720005C260392D4F86C260292D4F88056D4F812
:10473000A006069504F5D165D4F88496D4F87826B9
:10474000D4F87C16E0CD002841F05780864680469C
:10475000DDF82CB0049002E00130102819D0A2F24C
:10476000DC52002AF8DA8945CABFD346DDE902EBFC
:10477000DDF804E05A44B1EB0E0100F1E9820130AA
:104780001028BB464FF0010E37462E4633F8115025
:10479000E5D1CDF82CB0C4F87826BEF1000F41F079
:1047A0005A80049B63B1019B84F8A8C6C4F868369C
:1047B000029BC4F858A6C4F86C36039BC4F85C3658
:1047C000009B03EA0803D4F8ACE6BEF1000F5BD00F
:1047D00094F900C7BCF1010F00F3A186D4F8B0260C
:1047E000D4F8B4A60192D4F8C0260092D4F8C42616
:1047F000029204F5DA61D4F8F80691E826020495ED
:1048000004F5DC65E0CD002840F021868046039069
:10481000AB46102017E04FF0FF3211469145D6BF4E
:104820005546DDE90085DDF808802944B2EB080231
:1048300000F17882013805974FF0010837465E464F
:104840003EF812B00AD003F001055B08002DE2D15A
:10485000A1F2DC510029E1DB0138F4D15D46C4F856
:10486000D016B8F1000F40F02886039B63B1009B7F
:1048700084F800C7C4F8C036019BC4F8B4A6C4F8D5
:10488000B036029BC4F8C43613B0BDE8F08F95F97A
:1048900056260B0A002A3FF4E1AAC1F30742FF2A79
:1048A0000CBF4FF4FF7C02F1010CD4481CBF5FFA2F
:1048B0008CFC4FEA4C0C00EB42028444B2F89407A3
:1048C000BCF89427DBB2121A02FB03F300EB1320AF
:1048D00083B2FFF7C4BAB5F84436FFF7C0BA95F90A
:1048E00046141A0A00293FF490AAC3F30741FF298E
:1048F0000CBF4FF4FF7C01F1010CC0481CBF5FFAF4
:104900008CFC4FEA4C0C00EB41018444B1F8940755
:10491000BCF89417D2B2091A01FB02F200EB122084
:1049200082B2FFF773BAB5F83424FFF76FBA95F97E
:104930004E15130A00293FF43FAAC2F30741FF298D
:104940000CBF4FF4FF7C01F1010CAC481CBF5FFAB7
:104950008CFC4FEA4C0C00EB41018444B1F8940705
:10496000BCF89417DBB2091A01FB03F300EB132028
:1049700083B2FFF722BAB5F83C35FFF71EBA94F9B7
:10498000522AC6F34F23A4F84C3A002A3FF4E0A978
:10499000DB439BB2D4F8441AA4F84C3AFFF7DAB9D7
:1049A000C1F30743FF2B0FBF4FF4FF725A1CD2B263
:1049B000520004EB43032244B3F8D03AB2F8D02AB1
:1049C000080AC0B2D21A00FB02F203EB12239BB218
:1049D000D4F8280AA4F8303AFFF791B9B4F82E0AAF
:1049E000D4F81C2A000B530F83EAD27383EA1263B4
:1049F000013883EA5263C0B203F00103FF2843EA9F
:104A00004202F0D193B2D4F8280AC4F81C2AA4F8C0
:104A1000303AFFF774B994F9362AC1F34F23A4F85A
:104A2000303A7AB1DB439BB2D4F8280AA4F8303A82
:104A3000FFF765B994F9362AC1F34F23A4F8303A49
:104A4000002AEFD0D4F8280AFFF759B9C6F3074374
:104A5000FF2B0FBF4FF4FF725A1CD2B2520004EB6F
:104A600043032244B3F8D03AB2F8D02A310AC9B28B
:104A7000D21A01FB02F203EB12239BB2D4F8441AC0
:104A8000A4F84C3AFFF766B9C6F30F23D4F8441ADA
:104A9000A4F84C3AFFF75EB9B4F84A1AD4F8382AA9
:104AA000090B530F83EAD27383EA1263013983EA55
:104AB0005263C9B203F00103FF2943EA4202F0D175
:104AC00093B2D4F8441AC4F8382AA4F84C3AFFF741
:104AD00041B9D4F8441AB4F84C3AFFF73BB9D4F8CA
:104AE000280AB4F8303AFFF70AB94FF40043FBF74D
:104AF0009FFF434B2C359D4207F1B0073FF408AAB6
:104B0000D5F82C2594F8BE6A130E3FF441A905F59B
:104B1000A560FCF7D7F8D5F82C25FFF739B905F5CE
:104B20008460FCF7CFF8D5F82434FFF75AB905F5BF
:104B3000C660FCF7C7F8D5F83416FFF77BB9DDF887
:104B40002880BCF1000F414413DD4FF001084FF005
:104B5000000CCDF84080D4F80083D4F8F4A2CDF84E
:104B60000080D4F80483CDF80880D4F8F082CDF822
:104B700004804FF0010808FA00F84EEA080EFFF72B
:104B800016BAC3F30741FF290CBF4FF4FF7C01F1B4
:104B9000010C1A481CBF5FFA8CFC4FEA4C0C00EB6E
:104BA00041018444B1F89409BCF89419D2B2091AAD
:104BB00001FB02F200EB122082B2FFF725B9C2F32B
:104BC0000741FF290CBF4FF4FF7C01F1010C0B489A
:104BD0001CBF5FFA8CFC4FEA4C0C00EB4101844493
:104BE000B1F89409BCF89419DBB2091A01FB03F37C
:104BF00000EB132083B2FFF7DEB800BFF4A0000083
:104C000054090010C1F30742FF2A0CBF4FF4FF7C88
:104C100002F1010CD0481CBF5FFA8CFC4FEA4C0C2F
:104C200000EB42028444B2F89409BCF89429DBB248
:104C3000121A02FB03F300EB132083B2FFF70DB946
:104C40000020CDF844A04FF0010B9A4680468646DE
:104C5000039B109002E00130102816D0A2F2DC5223
:104C6000002AF8DA8945DABF029B119EDDE9003699
:104C7000C91A4FF00108324423D4013010282B46C2
:104C80002F462E463AF81150E8D1DDF844A00393A0
:104C9000C4F80823B8F1000F7FF49BA9109B002BE8
:104CA0003FF4ADA9009B84F838C3C4F8F832019BE7
:104CB000C4F8ECA2C4F8E832029BC4F8FC32FFF757
:104CC0009EB90A9BBCF1000F19440FDD4FF0000C98
:104CD000D4F80033CDF840800093D4F80433029325
:104CE000D4F8F0320193D4F8F43211930BFA00F3B4
:104CF0004EEA030EC1E74FF0000CD4F80023D4F8BD
:104D00000413D4F8F002D4F8F4A2C4E9BE2100924E
:104D100002910190C4F8E802C4F8ECA284F838C308
:104D2000FFF713B9049DBCF1000F2A447FF782AD51
:104D300001250395D4F8C8564FF0000C0095D4F81F
:104D4000CC56D4F8BCA60295D4F8B856019571E5B6
:104D5000DDF818E0BCF1000F714413DD4FF0010ED7
:104D60004FF0000CCDF810E0D4F870E6D4F860A64F
:104D7000CDF804E0D4F874E6CDF808E0D4F864E6A1
:104D8000CDF80CE04FF0010E0EFA00FE48EA0E08D6
:104D9000F5E4079DBCF1000F2A447FF787AC01259D
:104DA0000695D4F818564FF0000C0195D4F81C560F
:104DB000D4F80CA60395D4F80856029576E4DDF8ED
:104DC0001CE0BCF1000F714413DD4FF0010E4FF0F9
:104DD000000CCDF818E0D4F8C0E5D4F8B0A5CDF8B3
:104DE00004E0D4F8C4E5CDF808E0D4F8B4E5CDF893
:104DF0000CE04FF0010E0EFA00FE48EA0E08FFF735
:104E0000FABB079DBCF1000F2A447FF780AB012558
:104E10000695D4F868554FF0000C0195D4F86C5500
:104E2000D4F85CA50395D4F858550295FFF76FBBED
:104E3000DDF81CE0BCF1000F714413DD4FF0010EF2
:104E40004FF0000CCDF818E0D4F810E5D4F800A528
:104E5000CDF804E0D4F814E5CDF808E0D4F804E582
:104E6000CDF80CE04FF0010E0EFA00FE48EA0E08F5
:104E7000FFF7F2BA079DBCF1000F2A447FF783AA1F
:104E800001250695D4F8B8544FF0000C0195D4F8DC
:104E9000BC54D4F8ACA40395D4F8A8540295FFF7F9
:104EA00072BADDF81CE0BCF1000F714413DD4FF065
:104EB000010E4FF0000CCDF818E0D4F860E4D4F8FF
:104EC00054A4CDF804E0D4F864E4CDF80CE0D4F8B0
:104ED00050E4CDF808E04FF0010E0EFA00FE48EA6B
:104EE0000E08FFF7F5B90A9DBCF1000F2A447FF7C1
:104EF00086A901250695D4F808544FF0000C0195B9
:104F0000D4F80C54D4F8FCA30395D4F8F8530295C4
:104F1000FFF775B9DDF828E0BCF1000F714413DD2F
:104F20004FF0010E4FF0000CCDF818E0D4F8B0E3CC
:104F3000D4F8A4A3CDF804E0D4F8B4E3CDF80CE0A1
:104F4000D4F8A0E3CDF808E04FF0010E0EFA00FE11
:104F500048EA0E08FFF7F8B8F4A00000109DBCF175
:104F6000000F2A447FF788A801250A95D4F85853E2
:104F70004FF0000C0195D4F85C53D4F84CE3039542
:104F8000D4F848530295FFF777B84FF0000CD4F8E7
:104F90006024D4F86414D4F854A40192C4F85824BA
:104FA000D4F850240391C4F85C140292C4F8482445
:104FB000C4F84CA484F898C4FFF760B90020CDF879
:104FC00030A08046F2460690AB461020DDF81CE08B
:104FD00014E04FF0FF3211464A45A6BF039D0C9ED8
:104FE000DDE90156521B31443AD40138DE465F46B2
:104FF0005E464FF001083AF812B00AD003F00105FE
:105000005B08002DE5D1A1F2DC510029E4DB013879
:10501000F4D15D46DDF830A0CDF81CE0C4F81014E2
:10502000B8F1000F3FF406A9079BC4F82874C4F830
:105030002C34069BC4F82464C4F8205463B1019B4B
:1050400084F840C4C4F80034029BC4F8F4A3C4F844
:10505000F033039BC4F80434C4F81424FFF7F9B800
:105060000A9DBCF1000F2A44BFDD01250695D4F846
:1050700008544FF0000C0195D4F80C540395D4F863
:10508000F8530295D4F8FC530C95AEE74FF0000CA2
:10509000D4F80824D4F8FCA30192C4F80024D4F86E
:1050A0000C24C4F8F4A30392C4F80424D4F8F8231D
:1050B00084F840C40292C4F8F023FFF77FB84FF0A1
:1050C000000CD4F8B023D4F8B413D4F8A4A3C4E9E2
:1050D000EA210192D4F8A02303910292C4F8982304
:1050E000C4F89CA384F8E8C3FFF705B80020CDF806
:1050F00044E08146C6460A90AB461020DDF8188091
:1051000014E04FF0FF3211465245A6BF039D119E99
:10511000DDE90156521B314436D40138D8465F468A
:105120005E464FF001093EF812B00AD003F00105C7
:105130005B08002DE5D1A1F2DC510029E4DB013848
:10514000F4D15D46DDF844E0CDF81880C4F8601372
:10515000B9F1000F3EF4ABAF069BC4E9DC56C4E9DD
:10516000DE730A9B63B1019B84F890C3C4F850338B
:10517000029BC4F844E3C4F84033039BC4F854339F
:10518000C4F86423FEF7A2BF109DBCF1000F2A44AF
:10519000C3DD01250A95D4F858534FF0000C019552
:1051A000D4F85C530395D4F848530295D4F84C5383
:1051B0001195B2E74FF0000CD4F85823D4F84CE323
:1051C0000192C4F85023D4F85C23C4F844E303925A
:1051D000C4F85423D4F8482384F890C30292C4F846
:1051E0004023FEF727BF4FF0000CD4F87026D4F808
:1051F0007416D4F860A60192C4F86826D4F8642620
:105200000291C4F86C16C4F858A60392C4F85C2640
:1052100084F8A8C6FFF789BA0020CDF820A0804600
:10522000F2460690AB461020DDF810E014E04FF097
:10523000FF3211469145DABF039D089EDDE9015614
:10524000521B31443AD40138DE465F465E464FF089
:1052500001083AF812B00AD003F001055B08002DEE
:10526000E5D1A1F2DC510029E4DB0138F4D15D463F
:10527000DDF820A0CDF810E0C4F82016B8F1000F3A
:105280003FF42FAA049BC4F83876C4F83C36069B3A
:10529000C4F83466C4F8305663B1019B84F850C634
:1052A000C4F81036029BC4F804A6C4F80036039B69
:1052B000C4F81436C4F82426FFF722BA079DBCF1BF
:1052C000000F2A44BFDD01250695D4F818564FF08B
:1052D000000C0195D4F81C560395D4F80856029595
:1052E000D4F80C560895AEE74FF0000CD4F8182609
:1052F000D4F80CA60192C4F81026D4F81C26C4F8E1
:1053000004A60392C4F81426D4F8082684F850C6DC
:105310000292C4F80026FFF7A8B94FF0000CD4F8A9
:105320001025D4F81415D4F800A50192C4F8082566
:10533000D4F804250291C4F80C15C4F8F8A403921B
:10534000C4F8FC2484F848C5FFF75CB80020CDF809
:1053500028A08046F2460690AB461020DDF820E0FB
:1053600014E04FF0FF3211464A45A6BF039D0A9E46
:10537000DDE90156521B31443AD40138DE465F461E
:105380005E464FF001083AF812B00AD003F001056A
:105390005B08002DE5D1A1F2DC510029E4DB0138E6
:1053A000F4D15D46DDF828A0CDF820E0C4F8C014A3
:1053B000B8F1000F3FF402A8089BC4F8D874C4F8F1
:1053C000DC34069BC4F8D464C4F8D05463B1019BA8
:1053D00084F8F0C4C4F8B034029BC4F8A4A4C4F8A0
:1053E000A034039BC4F8B434C4F8C424FEF7F5BF5A
:1053F000079DBCF1000F2A44BFDD01250695D4F8B6
:10540000B8544FF0000C0195D4F8BC540395D4F86F
:10541000A8540295D4F8AC540A95AEE74FF0000CAE
:10542000D4F8B824D4F8ACA40192C4F8B024D4F8C9
:10543000BC24C4F8A4A40392C4F8B424D4F8A824C7
:1054400084F8F0C40292C4F8A024FEF77BBF0020C9
:10545000CDF818A08046F2460390AB461020DDF848
:1054600014E014E04FF0FF3211469145DABF029D7F
:10547000069EDDE90056521B31443AD40138DE461F
:105480005F465E464FF001083AF812B00AD003F0CA
:1054900001055B08002DE5D1A1F2DC510029E4DB18
:1054A0000138F4D15D46DDF818A0CDF814E0C4F859
:1054B000D016B8F1000F3FF4D8A9059BC4F8E876E0
:1054C000C4F8EC36039BC4F8E466C4F8E05663B154
:1054D000009B84F800C7C4F8C036019BC4F8B4A68A
:1054E000C4F8B036029BC4F8C436C4F8D426FFF71B
:1054F000CBB9049DBCF1000F2A44BFDD0125039503
:10550000D4F8C8564FF0000C0095D4F8CC5602954C
:10551000D4F8B8560195D4F8BC560695AEE74FF0CE
:10552000000CD4F8C826D4F8CC16D4F8BCA6009247
:10553000C4F8C026D4F8B8260291C4F8C416019263
:10554000C4F8B026C4F8B4A684F800C7FFF751B970
:105550004FF0000CD4F8C025D4F8C415D4F8B0A589
:105560000192C4F8B825D4F8B4250291C4F8BC154A
:10557000C4F8A8A50392C4F8AC2584F8F8C5FFF7D1
:1055800010B80020CDF820A08046F2460690AB4629
:105590001020DDF824E014E04FF0FF3211464A45B8
:1055A000A6BF039D089EDDE90156521B314431D44C
:1055B0000138DE465F465E464FF001083AF812B009
:1055C0000AD003F001055B08002DE5D1A1F2DC5102
:1055D0000029E4DB0138F4D15D46DDF820A0CDF8E8
:1055E00024E0C4F87015B8F1000F7EF4ABAF069B51
:1055F000002B3EF4C1AF019B84F8A0C5C4F8603510
:10560000029BC4F854A5C4F85035039BC4F8643514
:10561000FEF7B2BF079DBCF1000F2A44C8DD01258B
:105620000695D4F868554FF0000C0195D4F86C55E8
:105630000395D4F858550295D4F85C550895B7E70A
:105640004FF0000CD4F86825D4F85CA50192C4F89A
:105650006025D4F86C25C4F854A50392C4F86425D9
:10566000D4F8582584F8A0C50292C4F85025FEF756
:105670002DBF0020CDF828A04FF0010B9A4686469A
:1056800080460D9B069002E00130102816D0A2F251
:10569000DC52002AF8DA4945A6BF039B0A9EDDE9E1
:1056A0000136C91A4FF0010E32442CD401301028B3
:1056B0002B462F462E463AF81150E8D1DDF828A0A7
:1056C0000D93C4F86824BEF1000F3EF413AE0D9B99
:1056D000C4F88074C4F88434069BC4F87C64C4F8AD
:1056E000785463B1019B84F898C4C4F85834029B81
:1056F000C4F84CA4C4F84834039BC4F85C34C4F820
:105700006C14FEF706BE079BBCF1000F19440FDDB9
:105710004FF0000CD4F86034CDF818E00193D4F8C1
:1057200064340393D4F850340293D4F854340A9375
:105730000BFA00F348EA0308B8E70020CDF840A0D0
:105740004FF0010B9A46864680460C9B069002E07D
:105750000130102816D0A2F2DC52002AF8DA4945AE
:10576000A6BF039B109EDDE90136C91A4FF0010E5A
:10577000324428D4013010282B462F462E463AF8C2
:105780001150E8D1DDF840A00C93C4F8B823BEF165
:10579000000F3EF4EBAC0C9BC4E9F256C4E9F47381
:1057A000069B63B1019B84F8E8C3C4F8A833029B4D
:1057B000C4F89CA3C4F89833039BC4F8AC33C4F872
:1057C000BC13FEF7E2BC0A9BBCF1000F19440FDDCD
:1057D0004FF0000CD4F8B033CDF818E00193D4F8B2
:1057E000B4330393D4F8A0330293D4F8A4331093C2
:1057F0000BFA00F348EA0308BCE70020CDF81CA030
:105800004FF0010B9A46864680460B9B049002E0BF
:105810000130102816D0A2F2DC52002AF8DA8945AD
:10582000C6BF019B079EDDE90236C91A4FF0010E83
:1058300032442CD4013010282B462F462E463AF8FD
:105840001150E8D1DDF81CA00B93C4F87826BEF106
:10585000000F3EF4A6AF0B9BC4F89076C4F89436C4
:10586000049BC4F88C66C4F8885663B1019B84F825
:10587000A8C6C4F86836029BC4F858A6C4F86C36AB
:10588000039BC4F85C36C4F87C16FEF799BF069BF0
:10589000BCF1000F19440FDD4FF0000CD4F8703646
:1058A000CDF810E00193D4F874360293D4F8603642
:1058B0000793D4F8643603930BFA00F348EA03081D
:1058C000B8E70020CDF820A04FF0010B9A4686469D
:1058D00080460F9B069002E00130102816D0A2F2FD
:1058E000DC52002AF8DA4945BABF019B089EDDE97F
:1058F0000236C91A4FF0010E32442CD40130102860
:105900002B462F462E463AF81150E8D1DDF820A05C
:105910000F93C4F8C825BEF1000F3EF47EAE0F9B76
:10592000C4F8E075C4F8E435069BC4F8DC65C4F837
:10593000D85563B1019B84F8F8C5C4F8B835029B0B
:10594000C4F8A8A5C4F8BC35039BC4F8AC35C4F8AA
:10595000CC15FEF771BE079BBCF1000F19440FDD9B
:105960004FF0000CD4F8C035CDF818E00193D4F80E
:10597000C4350293D4F8B0350893D4F8B435039302
:105980000BFA00F348EA0308B8E70020CDF820A09E
:105990004FF0010B9A46864680460E9B069002E029
:1059A0000130102816D0A2F2DC52002AF8DA49455C
:1059B000BABF019B089EDDE90236C91A4FF0010EFD
:1059C00032442CD4013010282B462F462E463AF86C
:1059D0001150E8D1DDF820A00E93C4F81825BEF1CF
:1059E000000F3EF44BAD0E9BC4F83075C4F834354F
:1059F000069BC4F82C65C4F8285563B1019B84F854
:105A000048C5C4F80835029BC4F8F8A4C4F80C359E
:105A1000039BC4F8FC34C4F81C15FEF73EBD079B7D
:105A2000BCF1000F19440FDD4FF0000CD4F8103515
:105A3000CDF818E00193D4F814350293D4F800356A
:105A40000893D4F8043503930BFA00F348EA0308EB
:105A5000B8E794F8523AD4F8400AC3F101035BB2B4
:105A6000002B14BF6FF07F4600265900C1F10101E1
:105A700000FB01F184F8523AC4F8441AC4F83C6AB5
:105A80007AB1022A7EF44FA901F002F894F8532A61
:105A9000D4F83C6AA4F84C0AFEF745B99E46FEF7D6
:105AA000AEBA5B429BB2A4F84C3AFEF753B95B42E4
:105AB0009BB2A4F8303AFEF722B90023FEF77DB975
:105AC0000023FEF7CCB90022FEF7A0B9144B30B585
:105AD0009A681978EFF3128C102383F31188114A16
