:1000000000000110E5000000510100005301000054
:1000100055010000570100005901000000000000D8
:100020000000000000000000000000005B01000074
:100030005D010000000000005F010000291A0000BF
:100040006301000063010000630100006301000020
:10005000630100006301000063010000D9DF0000BC
:100060006301000063010000630100006301000000
:1000700063010000630100006301000063010000F0
:1000800063010000630100006301000063010000E0
:1000900063010000630100006301000063010000D0
:1000A000AD2A0000630100004199000063010000D7
:1000B000BD32000063010000630100006301000025
:1000C00063010000630100006301000063010000A0
:1000D0006301000063010000630100006301000090
:1000E000630100001149124A124B9A4205D0086878
:1000F0001060043104329A42F9D300200E490F4AAD
:10010000914204D0914202D208600431FAD30C48E3
:100110000C49884206D00268043003B4FE46974674
:1001200003BCF6E70848804708480047B03702009C
:1001300000000010E8070010E8070010089A0010FF
:1001400094370200943702007D110000DD67000043
:10015000FEE7FEE7FEE7FEE7FEE7FEE7FEE7FEE777
:10016000FEE7FEE72DE9F04390F847C083B0BCF10D
:10017000040F04460D4616461F469DF8288022D0DF
:1001800002294ED003292ED0012941D00025D4F8D0
:100190003890B9F1000F06D03B463246294620463A
:1001A000CDF80080C847D4F83CE0BEF1000F17D06E
:1001B0003B46324629462046F446CDF8288003B017
:1001C000BDE8F0436047D0F83490B9F1000FDED0BD
:1001D000CDF80080C847D4F83CE0BEF1000FE7D16D
:1001E00003B0BDE8F08302F0F003B02B63D031D848
:1001F000902B5AD0A02B25D1D0F81090B9F1000F38
:10020000C5D043463A46204606F00F01C847CAE724
:10021000F72A2FD9C36A002BB9D031462046984718
:10022000C1E702F0F003D02B28D0F02B2AD0C02B4E
:10023000ADD1C369002BAAD03A46204606F00F0183
:100240009847B0E7802BA2D1D0F80C90B9F1000FFD
:10025000D7D19CE7E02B22D0F02B98D1F22A96D16F
:10026000D0F81890B9F1000F91D043463A46314684
:10027000C84798E7F62A8AD1036BCCE7036A002BBC
:10028000DAD184E7F32A1CD0F12A80D1836A002BCB
:100290003FF47DAF3A4631462046984783E7D0F891
:1002A0001490B9F1000FACD171E7D0F80890B9F112
:1002B000000FA6D16BE7D0F80490B9F1000FA0D1E0
:1002C00065E7436A002BE5D161E700BF034A137D70
:1002D0005B06FCD5C3B21370704700BF00C000407E
:1002E000002300BF00BF00BF00BF00BF00BF00BFB2
:1002F00000BF00BF00BF00BF00BF00BF00BF00BF06
:1003000000BF00BF00BF00BF00BF00BF00BF00BFF5
:1003100000BF00BF00BF00BF00BF00BF00BF00BFE5
:1003200000BF00BF00BF00BF00BF00BF00BF00BFD5
:1003300000BF00BF00BF00BF00BF00BF00BF00BFC5
:1003400000BF00BF00BF00BF00BF00BF00BF00BFB5
:1003500000BF00BF00BF00BF00BF00BF00BF00BFA5
:1003600000BF00BF00BF00BF00BF00BF00BF00BF95
:1003700000BF00BF00BF00BF00BF00BF00BF00BF85
:1003800000BF00BF00BF00BF00BF00BF00BF00BF75
:1003900000BF00BF00BF00BF00BF00BF00BF00BF65
:1003A00000BF00BF00BF00BF00BF00BF00BF00BF55
:1003B00000BF00BF00BF00BF00BF00BF00BF00BF45
:1003C00000BF00BF00BF00BF00BF00BF00BF00BF35
:1003D00000BF0133984284D1704700BF4FF0010C39
:1003E000F0B4446803780CFA04F4002900F0B080FB
:1003F000052B40F2CE8000BF00BF00BF00BF00BF92
:1004000000BF00BF00BF00BF00BF00BF00BF00BFF4
:1004100000BF00BF00BF00BF00BF00BF00BF00BFE4
:1004200000BF00BF00BF00BF00BF00BF00BF00BFD4
:1004300000BF00BF00BF00BF00BF00BF00BF00BFC4
:1004400000BF00BF00BF00BF00BF00BF00BF00BFB4
:1004500000BF00BF00BF00BF00BF00BF00BF00BFA4
:1004600000BF00BF00BF00BF00BF00BF00BF0378D8
:10047000052B23D8D0E904750121C4685B0103F181
:10048000005301FA04F403F5182301FA05F5B94005
:10049000D70702F002069C6168D59961002E68D0EA
:1004A0000124816956079D6104FA01F468D5012190
:1004B0009C61C469A140140769D5996100BF00BF60
:1004C00000BF00BF00BF00BF00BF00BF00BF00BF34
:1004D00000BF00BF00BF00BF00BF00BF00BF00BF24
:1004E00000BF00BF00BF00BF00BF00BF00BF00BF14
:1004F00000BF00BF00BF00BF00BF00BF00BF00BF04
:1005000000BF00BF00BF00BF00BF00BF00BF00BFF3
:1005100000BF00BF00BF00BF00BF00BF00BF00BFE3
:1005200000BF00BF00BF00BF00BF00BF00BF00BFD3
:1005300000BF00BF0378052B08D80122C1685B010A
:1005400003F1005303F518238A40DA61F0BC7047C9
:10055000052B3FF650AF5B0103F1005303F5182361
:10056000DC6101218468A140D96144E7D961002E92
:1005700096D101248169DD61550704FA01F496D40E
:100580000121DC61C469120701FA04F195D4D96133
:1005900094E75B0103F1005303F518239C61E0E746
:1005A00002780346052A2DE9F0412DD8D3E90557F5
:1005B000D3E901E80120520102F1005202F51822AC
:1005C000D3F810C0146800FA0CFC24EA0C04DE69AD
:1005D000146000FA05FC156800FA07F725EA0C0517
:1005E0001560156800FA06F625EA07051560156816
:1005F00000FA08F425EA060500FA0EF01560002955
:1006000040F08581D061946100BF00BF00BF00BF92
:1006100000BF00BF00BF00BF00BF00BF00BF00BFE2
:1006200000BF00BF00BF00BF00BF00BF00BF00BFD2
:1006300000BF00BF00BF00BF00BF00BF00BF00BFC2
:1006400000BF00BF00BF00BF00BF00BF00BF00BFB2
:1006500000BF00BF00BF00BF00BF00BF00BF00BFA2
:1006600000BF00BF00BF00BF00BF00BF00BF00BF92
:1006700000BF00BF00BF00BF00BF00BF00BF00BF82
:100680001A78052A08D80121D868520102F10052CF
:1006900002F518228140916100BF00BF00BF00BF7A
:1006A00000BF00BF00BF00BF00BF00BF00BF00BF52
:1006B00000BF00BF00BF00BF00BF00BF00BF00BF42
:1006C00000BF00BF00BF00BF00BF00BF00BF00BF32
:1006D00000BF00BF00BF00BF00BF00BF00BF00BF22
:1006E00000BF00BF00BF00BF00BF00BF00BF00BF12
:1006F00000BF00BF00BF00BF00BF00BF00BF00BF02
:1007000000BF00BF00BF00BF00BF00BF00BF00BFF1
:100710001978052900F2F9804A0102F1005202F528
:10072000182256690120D3E906755C69D3F810C018
:1007300000FA04F23240224100FA0CF4344044FA48
:100740000CF4520142EA041200FA07F434403C412E
:1007500042EA841200FA05F434402C41052942EAA9
:10076000C41207D8DC68490101F1005101F51821D4
:10077000A040C86100BF00BF00BF00BF00BF00BFF6
:1007800000BF00BF00BF00BF00BF00BF00BF00BF71
:1007900000BF00BF00BF00BF00BF00BF00BF00BF61
:1007A00000BF00BF00BF00BF00BF00BF00BF00BF51
:1007B00000BF00BF00BF00BF00BF00BF00BF00BF41
:1007C00000BF00BF00BF00BF00BF00BF00BF00BF31
:1007D00000BF00BF00BF00BF00BF00BF00BF00BF21
:1007E00000BF00BF00BF00BF00BF00BF19780529D0
:1007F00008D80120DC68490101F1005101F51821F8
:10080000A040886100BF00BF00BF00BF00BF00BFA5
:1008100000BF00BF00BF00BF00BF00BF00BF00BFE0
:1008200000BF00BF00BF00BF00BF00BF00BF00BFD0
:1008300000BF00BF00BF00BF00BF00BF00BF00BFC0
:1008400000BF00BF00BF00BF00BF00BF00BF00BFB0
:1008500000BF00BF00BF00BF00BF00BF00BF00BFA0
:1008600000BF00BF00BF00BF00BF00BF00BF00BF90
:1008700000BF00BF00BF00BF00BF00BF197805293F
:1008800041D8480100F1005000F5182044694FF0AC
:10089000010ED3E905871E69DD690EFA06FC0CEA34
:1008A0000400304110430EFA08F202EA040646FA48
:1008B00008F640EA46000EFA07F606EA040848FA87
:1008C00007F740EA87000EFA05F73C402C4105295E
:1008D00040EAC40015D8DC684B0103F1005303F56E
:1008E00018230EFA04F4DC6119684CEA010119605E
:1008F00019680A431A601A6816431E601A6817437B
:100900001F60BDE8F0810024C1E700260AE790617E
:1009100079E600BF704700BFF0B5037803F01F030E
:10092000012B05D0022B12D0002B46D00020F0BDA9
:10093000447812680A2C00F04C810B2C00F04D8199
:10094000002CF3D1022314800B600120F0BD43780A
:100950001468012B00F0F280032B00F01581002BAE
:10096000E4D130250379AF4A580000F01E0040EA78
:10097000D310000440F4A063C2F80852C2F8103249
:10098000D2F80032DE06FBD5102540F40073A548EE
:10099000C2F80852C2F81032D0F800329D06FBD5DA
:1009A000202300250222C0F80832D0F814326570E6
:1009B000C3F3400323700A60C7E743781468092B28
:1009C000B4D801A555F823F0FB0A00002D0900005A
:1009D0002D0900002D0900002D090000BB0A0000B0
:1009E000050B00002D090000AF0A0000F10900000E
:1009F0008078002800F020818B4E33681978002918
:100A000000F0F480FF252C4607E0022A00F0EC807D
:100A10000B441978002900F0E9805A78042A00F084
:100A2000E180052AF1D18442F2D1002DF0D10122DA
:100A300093F802E07B490EFA02FC0CF01E0CD1F890
:100A400044724CEADE1C02FA0CF2B3F804E03A43BA
:100A5000C1F84422C1F848C2C1F84CE2D1F80022E2
:100A6000D205FBD54FF48077C1F8087230274FEAE2
:100A70000C4242F4800242F4A062C1F80872C1F84C
:100A800010226849D1F80022D706FBD51022C1F800
:100A900008224FF48072C1F810226249D1F8002276
:100AA000D206FBD51022C1F808221978B0E701233D
:100AB0005D4A127922700B6047E730248378594AE7
:100AC0005A48C2F8084243F08001C2F81002D2F836
:100AD0000032DF06FBD5102001FA00F343F48073E7
:100AE0005049C2F80802C2F81032D1F80032DE06CE
:100AF000FBD51023C1F8083227E700220223228009
:100B00000B6022E7484B45881B682E0A187834464C
:100B1000EDB200283FF40BAF4FF0000E04E00344A9
:100B2000187800283FF403AF93F801C0A445F6D12C
:100B3000AE4500F09E800EF1010EF0E74388002BD9
:100B40007FF4F4AE30240179364A4B0003F01E03E3
:100B500043EAD1131B0443F4800343F4A063C2F8B7
:100B60000842C2F81032D2F80032DC06FBD5102061
:100B70004FF480732B49C2F80802C2F81032D1F842
:100B80000032D806FBD5B4E74388002B7FF4CEAE05
:100B900030240179234A4B0003F01E0343EAD113AA
:100BA0001B0443F4800343F4A063C2F80842C2F874
:100BB0001032D2F80032D906FBD510201C4B19494F
:100BC000C2F80802C2F81032D1F80032DB06FBD5B9
:100BD0008FE7002010700B60B7E64388002B3FF4CE
:100BE000B3AEA3E6DD7813E75C7911E730210D4A57
:100BF000104BC2F80812C2F81032D2F80032DB06ED
:100C0000FBD510240A4B0749C2F80842C2F810323B
:100C1000D1F80032DF06FBD51023C1F8083230715D
:100C200093E600BF00C00820E80700100005D000D0
:100C3000000101000005D8003021114A114BC2F813
:100C40000812C2F81032D2F80032DD06FBD51024AB
:100C50004FF480730A49C2F80842C2F81032D1F842
:100C60000032DC06FBD51023074EC1F80832307184
:100C70006BE61360022E0CBF5B881B780B6064E68A
:100C800000C008200005D800E8070010830030B439
:100C90004FEA400C374C03F03C030CF01E0C43F0C1
:100CA00001034CEAD01CC4F82832D4F82002050510
:100CB000FBD543055BD5C0F3090000B300294BD039
:100CC000002A40DD00248242A8BF02462346294D67
:100CD000013913F0030F38D1D5F81842013393428C
:100CE00001F8014F36DB984209D9224A13F0030F6D
:100CF00003F1010308BFD2F818129842F6D8002475
:100D000030211C4A4FEA0C4C4CF4A063C2F8284234
:100D1000C2F80812C2F81032D2F80032D906FBD558
:100D200010253024144B1349C2F80852C2F8084267
:100D3000C2F81032D1F80032DB06FBD51023C1F81F
:100D4000083230BC70470023CFE70133934201F8EB
:100D5000014FC8DA240ABCE7064B11F0030F01F17A
:100D6000010108BFD3F818228142F6D1C7E74FF03E
:100D7000FF30E6E700C008200005F200204870B40C
:100D8000D0E90245402C26464FF00202A8BF40267B
:100D90001C4BC3F82822C3F82462D3F828229207F8
:100DA00048BF2A4607D552F8041BC3F81C12D3F8D3
:100DB00028128907F7D40023124AC2F828323023B8
:100DC000C2F80832104BC2F81032D2F80032D906FD
:100DD000FBD51023C2F808323023C2F808320B4B7F
:100DE000C2F81032074AD2F80032DB06FBD51023D6
:100DF0003544A41BC0E9024570BCC2F808327047F4
:100E0000E807001000C00820000501000005FA00F6
:100E100038B500283DD14D07674C3FD4A568002D5B
:100E200070DD2A46E168FFF731FF0028C0F2AC8090
:100E3000E3682D1A0344C4E902534DBB237CC3F37A
:100E4000411304EB83039A69DB6AE2603BB104F16E
:100E50000C0204F1280104F110009847D8B93021A0
:100E6000564A574BC2F80812C2F81032D2F8003274
:100E7000DB06FBD51020534B5049C2F80802C2F8DC
:100E80001032D1F80032DD06FBD51023C1F808324C
:100E900038BD8028FCD1BDE838406FE7082204F156
:100EA0001001FFF7F3FE217CE28AC1F3411304EB4A
:100EB000830080699B00C4E90220A2620AB1C909CB
:100EC000E6D02344DB6A33B13F4A02F11C01101D16
:100ED000984700284FD13021384A394BC2F80812C0
:100EE000C2F81032D2F80032DC06FBD51020354BA8
:100EF0003249C2F80802C2F81032D1F80032D806DE
:100F0000FBD5C2E701232D4AC2F82832D2F820329D
:100F10001C05FBD55805BBD5C3F3090252B100230C
:100F2000264913F0030F03F1010308BFD1F818029B
:100F30009342F6D1002030214FF4A0631F4AC2F83B
:100F40002802C2F80812C2F81032D2F80032D906CC
:100F5000FBD5102430201D4B1849C2F80842C2F8B6
:100F60000802C2F81032D1F80032DB06FBD510239C
:100F7000C1F808328CE7E38AA26A9342A8BF1346FD
:100F8000A360BDE83840F9E630210C4A0C4BC2F8AA
:100F90000812C2F81032D2F80032D906FBD5102060
:100FA000084B0649C2F80802C2F81032D1F80032E4
:100FB000DA06FBD569E700BFE807001000C008208B
:100FC0000005410000010100F40700100005F200D7
:100FD0001D4B93F94820002A01DB5B6CCBB9302113
:100FE0001A4A1B4BC2F80812C2F81032D2F800326B
:100FF000DB06FBD51020174B1449C2F80802C2F8D3
:101000001032D1F80032D806FBD51023C1F80832CF
:10101000704730210D4A104BC2F80812C2F8103246
:10102000D2F80032D906FBD510200A4B0749C2F886
:101030000802C2F81032D1F80032DB06FBD51023CB
:10104000C1F80832704700BFE807001000C0082050
:1010500000054B00000101000005440083887BB9B6
:1010600010B444884CB94378FE2B12D0FF2B01D129
:10107000C3883BB1204610BC7047184610BC70476F
:1010800000207047054A82F85C301366012010BCCE
:1010900070470123126814700B60F7E7E80700102F
:1010A00005490A1892F80031095C1B0492F8000205
:1010B00043EA012318437047F8E9010040222D4B11
:1010C00010B4DA6100BF00BF00BF00BF00BF00BFA7
:1010D0002949CB68DC07FCD54B23274A8B60D368B2
:1010E0005907FCD593682449CB68DA07FCD500235F
:1010F000214A8B60D3685B07FCD593681E49CB6897
:10110000DC07FCD500231C4A8B60D3685907FCD54B
:1011100093681949CB68DA07FCD50023164A8B601F
:10112000D3685B07FCD593681349CB68DC07FCD513
:101130000023114A8B60D3685907FCD500249368BB
:101140000D4B411E0F30DA68D207FCD59C60DA687F
:101150005207FCD59A6801F8012F8142F3D100BFF4
:1011600000BF00BF00BF00BF00BF4022014B10BC4A
:101170009A61704700800920000003402123274A1C
:10118000F0B5C2F8A031D2F8A0315C06FBD501233E
:101190000925AA2455202149C2F80C31C2F88450EF
:1011A000C2F88030C2F88C40C2F88C00D1F8883088
:1011B0005805FBD523250124AA205522174BC1F839
:1011C000A450C1F8A040C1F8AC00C1F8AC20D3F8DD
:1011D000A8205205FBD54FF4807240F2011E40F268
:1011E000012C0127022645F23A0400200C4DC3F8D9
:1011F00004E1C3F808C1C3F80071C3F8A861C3F8DB
:10120000C450C3F8C821D3F8B021064942F0030204
:10121000C3F8B0211C608860F0BD00BF00C00F4063
:101220000E84F00300ED00E00EB42DE9F04F81468E
:1012300086B00FABB84F53F8045B4FEA80080293B7
:1012400007EB80062C78252C10D0002C00F0548160
:101250000A2C02D10D20736E984707EB0803204635
:101260005B6E013598472C78252CEED16C7804F014
:10127000EF03202B00F0328100229246023504F069
:10128000DF034C2B00F0B480A4F14303352B3BD893
:10129000DFE813F0360045003A003A003A003A0021
:1012A00045003A003A003A003A003A003A003A0063
:1012B0003A003A0091003A008B003A003A0050019F
:1012C0003A003A003A003A003A003A003A003A004E
:1012D0003A003A00360045003A003A003A003A0037
:1012E00045003A003A003A003A003A003A003A0023
:1012F0003A003A0091003A008B003A003A0050015F
:10130000029B1A1D1C7802920A2C00F0FA80BB4640
:10131000C2460BEB0A0320465B6E984792E7029B9E
:101320001C68191D002C0291C0F2F88020460A2189
:1013300000230DF117048DF8173000E07046B0FB64
:10134000F1FE01FB1E0C5FFA8CFC0CF13003DBB2EA
:10135000392B84BF0CF1370C5FFA8CF302F1FF3BA1
:1013600004F8013D0AB15FFA8BF28842E6D2002A06
:1013700000F0E280534263F0FF031C4451462046D4
:1013800010F008FBBAF1000F3FF45CAFBAF10A0F9E
:1013900002D10D20736E98475046736E984714F82B
:1013A00001AFBAF1000FF1D14CE70A21029B181DE1
:1013B00002901868BCE7029BD3F800A004339AF8A7
:1013C00000400293002C3FF43DAFDFF84CB10BEB33
:1013D000890B0A2C03D10D20DBF864309847204696
:1013E000DBF8643098471AF8014F002CF1D129E757
:1013F00015F8014BA4F14303352B85D801A151F811
:1014000023F000BF011300001F13000009130000A8
:101410000913000009130000091300001F13000046
:10142000091300000913000009130000091300004C
:10143000091300000913000009130000091300003C
:1014400009130000B713000009130000AB130000DC
:1014500009130000091300003515000009130000EE
:10146000091300000913000009130000091300000C
:1014700009130000091300000913000009130000FC
:1014800009130000011300001F13000009130000DE
:101490000913000009130000091300001F130000C6
:1014A00009130000091300000913000009130000CC
:1014B00009130000091300000913000009130000BC
:1014C00009130000B713000009130000AB1300005C
:1014D000091300000913000035150000AB78A2467F
:1014E000A3F13002D2B2092A03D91C4600220335E7
:1014F000C5E6EC780435C2E606B0BDE8F04F03B0AF
:101500007047DFF814B00D200BEB89035B6E4FEAD8
:10151000890A9847FDE600BFE8070010DFF81CB015
:101520002D200BEB890BDBF8643001926442984765
:10153000019AFBE6102139E79A4627E7E8070010F1
:1015400070B540F2E73405460E460DE000BF00BF1F
:1015500000BF00BF00BF00BF00BF00BF00BF00BF93
:1015600000BF00BF013C11D000212846FFF718F84A
:101570000306EBD4321100212846FEF72FFF06F0B8
:101580000F020021BDE87040FEF728BF3346204619
:10159000024A0349FFF748FEECE700BFF8EC010000
:1015A000C8D6010003782DE9F041052B054633D854
:1015B000D0E90276D5E906EC01225B0103F1005384
:1015C00003F518234168D3F8008002FA01F141EADB
:1015D0000801D0E90440196002FA07F702FA06F69A
:1015E00002FA04F402FA00F002FA0EF102FA0CF226
:1015F000D3F800C047EA0C071F601F683E431E6017
:101600001E6834431C601C6820431860186801433E
:10161000196019680A431A60002103222846FEF760
:10162000DDFE41F2040100BF00BF00BF00BF00BFEC
:1016300000BF00BF00BF00BF00BF00BF00BF00BFB2
:1016400000BF00BF00BF00BF00BF00BF00BF00BFA2
:1016500000BF00BF00BF00BF00BF00BF00BF00BF92
:1016600000BF00BF00BF00BF00BF00BF00BF00BF82
:1016700000BF00BF00BF00BF00BF00BF00BF00BF72
:1016800000BF00BF00BF00BF00BF00BF00BF00BF62
:1016900000BF00BF00BF00BF00BF00BF00BF00BF52
:1016A00000BF00BF00BF00BF00BF00BF00BF00BF42
:1016B00000BF00BF00BF00BF00BF00BF00BF00BF32
:1016C00000BF00BF00BF00BF00BF00BF00BF00BF22
:1016D00000BF00BF00BF00BF00BF00BF00BF00BF12
:1016E00000BF00BF00BF00BF00BF00BF00BF00BF02
:1016F00000BF00BF00BF00BF00BF00BF00BF00BFF2
:1017000000BF00BF00BF00BF00BF00BF00BF00BFE1
:1017100000BF00BF00BF013985D103222846FEF774
:101720005DFE642400BF00BF00BF00BF00BF00BF5C
:1017300000BF00BF00BF00BF00BF00BF00BF00BFB1
:1017400000BF00BF00BF00BF00BF00BF00BF00BFA1
:1017500000BF00BF00BF00BF00BF00BF00BF00BF91
:1017600000BF00BF00BF00BF00BF00BF00BF00BF81
:1017700000BF00BF00BF00BF00BF00BF00BF00BF71
:1017800000BF00BF00BF00BF00BF00BF00BF00BF61
:1017900000BF00BF00BF00BF00BF00BF00BF00BF51
:1017A00000BF00BF00BF00BF00BF00BF00BF00BF41
:1017B00000BF00BF00BF00BF00BF00BF00BF00BF31
:1017C00000BF00BF00BF00BF00BF00BF00BF00BF21
:1017D00000BF00BF00BF00BF00BF00BF00BF00BF11
:1017E00000BF00BF00BF00BF00BF00BF00BF00BF01
:1017F00000BF00BF00BF00BF00BF00BF00BF00BFF1
:1018000000BF00BF00BF00BF00BF00BF00BF00BFE0
:1018100000BF00BF013C85D1214628460322FEF7C8
:10182000DDFD0DF06DFB022221462846FEF7D6FDB8
:101830000DF066FB2B6A284603F00101C9009B07E7
:1018400048BF41F0040141F02001FFF779FE28462E
:101850000821FFF775FE28460121FFF771FE284693
:10186000BDE8F04106216BE6012169E6022167E649
:1018700001F0030141F0040162E600BF01F007013D
:1018800041F008015CE600BF01F00C0141F01001DD
:1018900056E600BFC9B241F0800151E670B540F292
:1018A000E73405460E460DE000BF00BF00BF00BF95
:1018B00000BF00BF00BF00BF00BF00BF00BF00BF30
:1018C000013C11D000212846FEF76AFE0306EBD446
:1018D000321101212846FEF781FD06F00F02012199
:1018E000BDE87040FEF77ABD33462046024A034900
:1018F000FFF79AFCECE700BF00ED0100C8D601003D
:1019000038B50C46097839B105462846FFF7C6FFB9
:1019100014F8011F0029F8D138BD00BF2DE9F043AC
:101920000D46294B87B006AE04460FCB06E90F00E3
:10193000AB0702D507B0BDE8F083042220460DEBCB
:101940000201FFF7A3F90428F4D19DF8043003F055
:101950000F0318336B4413F8105C002DEAD01027E6
:101960000DF10408194C1A4E454418F8019F3146F0
:101970004A460020FFF758FCEFF3128087F31188E6
:1019800094F8951294F896224B1CB3FBF2FE02FBDE
:101990001E3394F894C263450ED0D4F8983203F8FD
:1019A000019094F8953294F896220133B3FBF2F14A
:1019B00002FB113384F8953280F311884545D4D168
:1019C00007B0BDE8F08300BF0CED0100E807001090
:1019D000E4D6010000207047184670470020704789
:1019E000002070474FF4005300205360704700BF41
:1019F00001207047FEE700BF4FF0FF30704700BF87
:101A00004FF0FF30704700BF054B064AD3F89C02E9
:101A1000002808BF10460144C3F89C12704700BF5D
:101A2000E8070010089A00102DE9F04FD24C83B05F
:101A3000D4F8A03213B903B0BDE8F08F41F26F7053
:101A4000B4F9721BB4F81C23B4F81E3301FB02F284
:101A5000B4F8D81201EB2241B4F98E2B02FB03F348
:101A600001EB234181F31001814200F3D4804C202B
:101A7000B4F9DC3BB4F8CA2203F5004302FB03F3DC
:101A8000DB0B00FB03F3BD4A1B0A83F31003C3F314
:101A90000B1343F4E043A2F81C33B4F9DE3BB4F873
:101AA000D05203F5004305FB03F3DB0B00FB03F30C
:101AB0001B0A83F31003C3F30B136FEA4343B4F918
:101AC000EC5BB4F8126305F5004506FB05F5ED0B7C
:101AD00005FB00F06FEA5343000A80F31000C0F3E7
:101AE0000725FF2D0EBF4FF4FF766E1CF6B2A2F84D
:101AF0001E3381F31003A24918BF760001EB4505A0
:101B00000E44B5F82413B6F82453C3F30B136D1A1F
:101B10006FEA4343C0B205FB00F000256FEA534370
:101B2000A84601EB1021C1F30B1141F4E041DFF8AD
:101B300054B2A2F80C13A2F80E33DBF840300BB10C
:101B400058469847EFF31282102383F311889BF8CD
:101B50000D919BF80C3199453CBF9BF80E118944BF
:101B6000A9EB03095FFA89F982F31188B9F1000F33
:101B700000F0FA804FF48A72002602FB084721E049
:101B80000023012158468BF847100093FEF7EAFA2C
:101B90009BF80C318BF84750EFF31281102282F33F
:101BA00011889BF80E210133B3FBF2F002FB1033D6
:101BB000DBB28BF80C3181F311880136B2B291455A
:101BC00040F2D2809BF80C219BF80E01DBF810113B
:101BD000B2FBF0FC00FB1C228A5C9BF84750F72A02
:101BE000CED8110623D5042D04D001238BF8442030
:101BF000ABF8483002F0F003D02B06D058D8B02B09
:101C000050D048D9C02B40F00F8502238BF84730C5
:101C10009BF80C31C0E76E255B48A1F5BB53103B28
:101C200005FB0300594AA2FB0020400B20E7002DD2
:101C3000B2D0BBF848305649A1FB031A4FEA5A0A02
:101C40000AEB4A0AA3EB0A0A1FFA8AFA013399B28D
:101C5000BAF1010F07EB0A0383F8B820ABF848107C
:101C600000F09880BAF1020F40F097809BF8463060
:101C7000584600939BF845309BF84420FEF772FAD3
:101C80009BF84730042B00F088800123ABF84830E4
:101C90009BF80C3180E702F0E002802A02D0A02BF2
:101CA00040F0C28403238BF847309BF80C3173E774
:101CB000E02BF7D0F02B40F0B784A2F1F103052B15
:101CC0001DD801A151F823F00B1C0000A51C000039
:101CD0000B1C0000FF1C0000FF1C0000E11C0000AA
:101CE000002501212B460095F62258468BF8471017
:101CF000FEF738FA9BF80C318BF847504CE7F02A86
:101D000027D0F72A40F090844FF48A70BBF848102F
:101D10001F4B00FB0840A3FB01535B0803EB43038D
:101D2000CB1A9BB2034483F8B8209BF846300131AC
:101D300089B2ABF8481000939BF8453058469BF8A1
:101D40004420FEF70FFA00238BF847309BF80C3144
:101D500022E704238BF8473001238BF84420ABF8AB
:101D600048309BF80C3117E70BF58A7BB8F1000F70
:101D700016D14FF00108E0E6E8070010000000204F
:101D8000F8E901005C080010E2FF1D001F85EB511F
:101D9000ABAAAAAA022D00F0E8849BF80C31FBE65E
:101DA00094F8A6324546042B00F0548394F8B232DE
:101DB000042B00F04F83344B94F8FC7C5E6FD4F816
:101DC000003D002F62D194F8B522002A00F035843E
:101DD000710140F1DB8473405F015BD5002294F810
:101DE0006F3C84F8712CDB0707D594F9293C23B1AB
:101DF00094F92A7C002F00F0038694F86F3C9F072B
:101E000007D594F9353C23B194F9367C002F00F0C6
:101E1000168694F86F3C580707D594F9413C23B1D6
:101E200094F9427C002F00F0178694F86F3C190754
:101E300007D594F94D3C23B194F94E7C002F00F066
:101E4000D28594F86F3CDA0607D594F9593C23B152
:101E500094F95A7C002F00F00C8694F86F3C9B0696
:101E600018D594F9653CABB194F9667C97B9B4F890
:101E7000603C00970522394694F8630C0AF0A2FAF8
:101E800084F8657C06E000BF00800920734059019A
:101E900000F13E8494F9283C94F87729C4F8006D49
:101EA000002B40F0B5831AB384F87339C4F8503965
:101EB00084F87739C4F86A39C4F86E39C4F84C39F3
:101EC00084F86B38C4F8483884F86F38C4F862383E
:101ED000C4F86638C4F8443884F87B3AC4F8583AF1
:101EE00084F87F3AC4F8723AC4F8763AC4F8543A9F
:101EF00094F9343C94F8A329002B40F07D831AB365
:101F000084F89F39C4F87C3984F8A339C4F8963929
:101F1000C4F89A39C4F8783984F89738C4F8743812
:101F200084F89B38C4F88E38C4F89238C4F87038F6
:101F300084F8A73AC4F8843A84F8AB3AC4F89E3AD5
:101F4000C4F8A23AC4F8803A94F9403C94F8CF29F6
:101F5000002B40F045831AB384F8CB39C4F8A83974
:101F600084F8CF39C4F8C239C4F8C639C4F8A439E2
:101F700084F8C338C4F8A03884F8C738C4F8BA382D
:101F8000C4F8BE38C4F89C3884F8D33AC4F8B03AE0
:101F900084F8D73AC4F8CA3AC4F8CE3AC4F8AC3A8E
:101FA00094F94C3C94F8FB29002B40F00D831AB3B4
:101FB00084F8F739C4F8D43984F8FB39C4F8EE3919
:101FC000C4F8F239C4F8D03984F8EF38C4F8CC3802
:101FD00084F8F338C4F8E638C4F8EA38C4F8C838E6
:101FE00084F8FF3AC4F8DC3A84F8033BC4F8F63AC4
:101FF000C4F8FA3AC4F8D83A94F9583C94F8272A25
:10200000002B40F0D5821AB384F8233AC4F8003A82
:1020100084F8273AC4F81A3AC4F81E3AC4F8FC39CE
:1020200084F81B39C4F8F83884F81F39C4F8123919
:10203000C4F81639C4F8F43884F82B3BC4F8083BCC
:1020400084F82F3BC4F8223BC4F8263BC4F8043B79
:1020500094F9643C94F8532A002B40F09D821AB303
:1020600084F84F3AC4F82C3A84F8533AC4F8463A04
:10207000C4F84A3AC4F8283A84F84739C4F82439ED
:1020800084F84B39C4F83E39C4F84239C4F82039D1
:1020900084F8573BC4F8343B84F85B3BC4F84E3BB0
:1020A000C4F8523BC4F8303B94F9692D94F8083CCD
:1020B000002A00F0CB81002B00F09C80013B84F8CB
:1020C000083C4FF6FF73B4F8722D9A4200F09280EC
:1020D000B4F8703D01339BB29A4200F28980002728
:1020E00094F8743D94F8FC2DA4F8707D134300F02F
:1020F000AC823E4E3378022B71D196F88120002AB3
:102100006DD0B6F9823007EB071804EBC8084344DA
:1021100093F8759D4FEA071AB9F17E0F34D0B6F9DE
:102120008430002B25DB434493F8751D1AE000230F
:1021300096F887001A460844C0B219460AF0FEFD18
:10214000B6F9843096F88120013393FBF2F102FB5B
:102150001133A6F88430434493F8751D93F9753D07
:10216000002B06DA01F07F0303F10C017E3B012B0B
:10217000DDD8B9F17F0F07D0B6F88230A6F88430E9
:1021800094F9843E86F887300AEB070804EBC80808
:102190000FE0B6F98230013393FBF2F102FB113309
:1021A000A6F88230434493F9751D93F8759D002974
:1021B00015DA09F07F0303F10C017E3B012BE8D90E
:1021C00094F8840E002308444FF400420121C0B269
:1021D0000AF0B4FDB6F9823096F88120DBE7883644
:1021E000002F40F032822F4684E700BF5C150010BC
:1021F000A4F8703D94F9F43B002B00F01F81B4F873
:10220000B82BB4F8941BB4F8F23B8A4200F2EF8288
:1022100007D28A1A92B29A4294BF891AC91AA4F8AC
:10222000941BB4F8C42BB4F8A01B8A4200F2BA8203
:1022300007D28A1A92B29A4294BF891AC91AA4F88C
:10224000A01BB4F8D02BB4F8AC1B8A4200F249832F
:1022500007D28A1A92B29A4294BF891AC91AA4F86C
:10226000AC1BB4F8BA2BB4F8961B8A4200F2308348
:1022700007D28A1A92B29A4294BF891AC91AA4F84C
:10228000961BB4F8C62BB4F8A21B9142C0F017837A
:1022900007D98A1A92B29A4294BF891AC91AA4F825
:1022A000A21BB4F8D22BB4F8AE1B8A4200F2FE8215
:1022B00007D28A1A92B29A4294BF891AC91AA4F80C
:1022C000AE1BB4F8BC2BB4F8981B9142C0F0E58269
:1022D00007D98A1A92B29A4294BF891AC91AA4F8E5
:1022E000981BB4F8C82BB4F8A41B9142C0F0CC8260
:1022F00007D98A1A92B29A4294BF891AC91AA4F8C5
:10230000A41BB4F8D42BB4F8B01B9142C0F0B38234
:1023100007D98A1A92B29A4294BF891AC91AA4F8A4
:10232000B01BB4F8BE2BB4F89A1B9142C0F09A824D
:1023300007D98A1A92B29A4294BF891AC91AA4F884
:102340009A1BB4F8CA2BB4F8A61B9142C0F0818244
:1023500007D98A1A92B29A4294BF891AC91AA4F864
:10236000A61BB4F8D62BB4F8B21B9142C0F0688219
:1023700007D98A1A92B29A4294BF891AC91AA4F844
:10238000B21BB4F8C02BB4F89C1B9142C0F04A8237
:1023900007D98A1A92B29A4294BF891AC91AA4F824
:1023A0009C1BB4F8CC2BB4F8A81B9142C0F031822E
:1023B00007D98A1A92B29A4294BF891AC91AA4F804
:1023C000A81BB4F8D82BB4F8B41B9142C0F0188203
:1023D00007D98A1A92B29A4294BF891AC91AA4F8E4
:1023E000B41BB4F8C22BB4F89E1B8A4240F2988208
:1023F000521A92B29A4294BF8918C918A4F89E1B27
:10240000B4F8CE2BB4F8AA1B8A4240F27E82521A4C
:1024100092B29A4294BF8918C918A4F8AA1BB4F8BA
:10242000DA2BB4F8B61B8A4240F26482521A92B296
:102430009A4294BF8918C918A4F8B61BD4F8883EEC
:102440000133C4F8883E03B0BDE8F08F002B3FF4A1
:1024500038AE33E6B4F8DE32B4F80A2CB4F9E87BCF
:10246000B3F5004F1744B4F90C0C87F31007BFB253
:102470004FD094F86F3C13F0010204D094F9282C4B
:10248000002A40F0A6814FF0FF319E0704D594F951
:10249000346C002E40F096815E0704D594F9406CB0
:1024A000002E40F09D811E0704D594F94C6C002E3F
:1024B00040F08181DE0615D594F9586C96B1D4F8B8
:1024C000506C96420ED99A0640F1408294F9643CD1
:1024D000002B00F03B82D4F85C1C8E422CBF042100
:1024E00005210AE09B0654D594F9643C002B50D09A
:1024F000D4F85C3C93424CD905212C2303FB0143C7
:10250000B3F8783A00FB03F31B1407EB430383F3A0
:102510001007D4F8043CBB423FF44DACC64B1FFA45
:1025200087FE03F5966633F8069CB3F85A2933F80C
:1025300008ACA2EB09020EFB02F233F8048C33F86C
:1025400002CCB3F85809B3F85C1909EB1249B3F897
:102550005E29A1EB0801A2EB0C02A0EB0A000EFB26
:1025600000F00EFB01F10EFB02F20AEB104008EB4B
:1025700011480CEB124CA3F8080EA3F80A9EA3F81E
:102580000C8EA3F80ECE0833B342CCD1C4F8047C31
:1025900011E44E1CBDD0B0E7002A7FF485AD4FF6A4
:1025A000FF7384F8642C84F8662CA4F8623C7BE505
:1025B000002A7FF44DAD4FF6FF7384F8582C84F851
:1025C0005A2CA4F8563C43E5002A7FF415AD4FF68B
:1025D000FF7384F84C2C84F84E2CA4F84A3C0BE58D
:1025E000002A7FF4DDAC4FF6FF7384F8402C84F8AA
:1025F000422CA4F83E3CD3E4002A7FF4A5AC4FF66D
:10260000FF7384F8342C84F8362CA4F8323C9BE415
:10261000002A7FF46DAC4FF6FF7384F8282C84F801
:102620002A2CA4F8263C63E400229BF80C318BF89A
:102630004720ABF84820FFF7AFBA734058017FF549
:1026400029AC72013FF5CAABA7E094F8FC0C002856
:102650003FF4D0AD794E334606F1800102E0994255
:102660003FF4C8AD13F8012BFF2AF8D094F8F82CEA
:10267000FF2A0DD0002394F8FA1C02F07F000844D2
:102680000C30C0B21A4619460AF058FB94F8FC0CFC
:10269000022800F06F81032800F05A8101287FF49E
:1026A000A9ADB4F9F42CB4F9F65C134601335A42DF
:1026B00002F07F0203F07F0358BF5342E21892F802
:1026C000742CC3F17F01FF2A1BB2EFD08D42EDD0F5
:1026D000A4F8F43C234494F8F90C93F8743C0C30BF
:1026E00003F07F0318444FF4004200230121C0B2DD
:1026F0000AF024FBB4F9F43C94F8F91CE21892F8BF
:10270000742C84F8FA1C84F8F82CA4F8F63C71E5D3
:1027100006F08063002B0CBF4FF001084FF000085B
:102720001DD094F9FB3CD3B1DFF810E14FF0FF0C62
:1027300070460EF1FF330EF17F0113F9012F002ACD
:10274000B8BF83F800C08B42F7D10EF1800202E0DF
:10275000904200F0628110F8013BFF2BF8D084F822
:10276000FC7C84F8FB8CFFF795BB002300939BF85F
:10277000453058469BF84420FDF7F4FC9BF8473061
:10278000042B18BFABF848A0FFF707BB5A0100F1B4
:10279000D28073405B017FF57DAB012384F8713CEF
:1027A000FFF778BB521A92B29A4294BF8918C9189F
:1027B000A4F8A01B45E5D4F8446C964284BF324689
:1027C000032177E6D4F82C6C964284BF324601216F
:1027D00062E6D4F8202CB2FA82F14909494254E663
:1027E000D4F8386C964284BF324602215BE6521A16
:1027F00092B29A4294BF8918C918A4F8941B10E5A4
:10280000521A92B29A4294BF8918C918A4F8B41BFC
:10281000E7E5521A92B29A4294BF8918C918A4F8EF
:10282000A81BCEE5521A92B29A4294BF8918C918D1
:10283000A4F89C1BB5E500BF547F00105C14001089
:10284000521A92B29A4294BF8918C918A4F8B21BBE
:1028500097E5521A92B29A4294BF8918C918A4F8FF
:10286000A61B7EE5521A92B29A4294BF8918C918E3
:10287000A4F89A1B65E5521A92B29A4294BF89183D
:10288000C918A4F8B01B4CE5521A92B29A4294BFF0
:102890008918C918A4F8A41B33E5521A92B29A42B7
:1028A00094BF8918C918A4F8981B1AE5521A92B255
:1028B0009A4294BF8918C918A4F8AE1B01E5521AB0
:1028C00092B29A4294BF8918C918A4F8A21BE8E4EE
:1028D000521A92B29A4294BF8918C918A4F8961B4A
:1028E000CFE4521A92B29A4294BF8918C918A4F838
:1028F000AC1BB6E4BFF4A2AD8A1A92B29A4294BF5E
:10290000891AC91AA4F8B61B98E5BFF488AD8A1ACB
:1029100092B29A4294BF891AC91AA4F8AA1B7EE5FA
:10292000BFF46EAD8A1A92B29A4294BF891AC91A3C
:10293000A4F89E1B64E509F0D1FF5A4B93E803000D
:10294000C4F82C03A4F83013FFF7A4BA0421D4E58B
:10295000B4F9F42C134601335A4202F07F0203F01B
:102960007F0358BF5342E21892F8742C1BB2FF2A1F
:10297000F1D0ADE600254C4B06F17F0013F8012F96
:10298000691CFF2A18BFCDB28342F7D1012D7DD833
:102990000020B4F9F41C002903DA00231946A4F836
:1029A000F43C0B4600250DE00125534203F07F0364
:1029B00058BF5E42A31993F8742C33B2FF2A18BF94
:1029C0005FFA8CF0E71897F8747C5A1CFF2F02F01E
:1029D0007F0600F1FF3CE7D00028E5D1002D5FD055
:1029E000A4F8F43C76E6B4F8483C00970322394654
:1029F00094F84B0C09F0E6FC84F84D7CFFF721BA03
:102A0000B4F8243C00973A46394694F8270C09F06C
:102A1000D9FC84F8297CFFF7F0B994F8F83CFF2B37
:102A20003FF49DAE03F07F00002394F8FA2C194682
:102A300010440C301A46C0B20AF080F98FE6B4F8A0
:102A4000303C00970122394694F8330C09F0BAFC67
:102A500084F8357CFFF7DDB9B4F83C3C00970222DE
:102A6000394694F83F0C09F0ADFC84F8417CFFF73F
:102A7000DCB9B4F8543C00970422394694F8570C5A
:102A800009F0A0FC84F8597CFFF7E7B90EF08EFA44
:102A9000013D90FBF5F303FB15000130C0B278E770
:102AA0000B4617E6501400105B140010F8B5414BAC
:102AB000D3F80042E10722D501223F49D1F88C1E0C
:102AC000C3F80822D9B130203C4AC3F80802C3F841
:102AD0001022D3F80022D206FBD510253848354AFB
:102AE000C3F80852C3F81002D2F800329F06FBD593
:102AF0002023C2F80832D2F81402C0B28847260751
:102B000020D5082030212B4A2E4BC2F80802C2F8EB
:102B10000812C2F81032D2F80032DD06FBD51020C0
:102B2000294B2449C2F80802C2F81032D1F8003209
:102B30009806FBD52023C1F80832D1F8140210F012
:102B40001A0F2ED162072BD504231A4D002401271A
:102B5000194EC5F8083202E00134202C20D0D5F8F7
:102B6000302207FA04F31342F6D0C5F83832D5F80C
:102B700000329B06FBD52022601006EB8003D3F8C1
:102B8000943EC5F80822D5F81412002BE4D040EA90
:102B9000C41001F01F01C0B201349847202CDED1CF
:102BA000F8BD054BD3F8903E002BCBD000F01500BC
:102BB0009847C7E700C00820E80700100005F500A7
:102BC0000002F5000005FE000002FE0070B5C02006
:102BD00040250F2600213C4C3C4BE56100BF00BF67
:102BE00000BF00BF00BF00BFDA68D207FCD59E60FF
:102BF000DA685207FCD59A68DA68D207FCD5986083
:102C0000DA685207FCD59A68DA68D207FCD5996071
:102C1000DA685207FCD59A68D2B200BF00BF00BF85
:102C200000BF00BF00BF12F0010CA561D5D112F0AA
:102C3000040326D112F0080000D170BD18462449C3
:102C4000FEF7F2FAE56100BF00BF00BF00BF00BFA2
:102C500000BF1E49CB68DA07FCD5FF231B4A8B60F7
:102C6000D3685B07FCD5936800BF00BF00BF00BFFF
:102C700000BF00BF4022144B9A61FFF7A7FF082056
:102C800070BD60461349FEF7CFFAE56100BF00BF93
:102C900000BF00BF00BF00BF0C49CB68D807FCD500
:102CA000FF230A4A8B60D3685907FCD5936800BF9D
:102CB00000BF00BF00BF00BF00BF4022024B9A61AF
:102CC000FFF784FF042070BD00800920000003404E
:102CD00018D70100F4D601002DE9F04140254C4CF5
:102CE0001646E5610D461C4600BF00BF00BF00BF91
:102CF00000BF00BF474AD368DF07FCD513239360AA
:102D0000444AD3685907FCD59368424AC10AC70EA2
:102D1000D368DB07FCD597603E4AD3685F07FCD5D4
:102D200093683C4AC00CD368DB07FCD5C0B2906006
:102D3000384AD3685F07FCD59368364AD368D8070A
:102D4000FCD5C9B29160334AD3685907FCD5936862
:102D500000BF00BF00BF00BF00BF00BF4FF0400872
:102D60002B4FC7F81880FFF731FFC7F81C8000BF52
:102D700000BF00BF00BF00BF00BF264AD068C30726
:102D8000FCD50321234B9160D8684707FCD5F000A0
:102D90009B68204900F0F800CA68D607FCD51D4B97
:102DA0008860DA685207FCD59B681A49CA68D3075D
:102DB000FCD50022174B8A60DA685707FCD59B6860
:102DC0001449CA68D607FCD50022124B8A60DA681B
:102DD0005007FCD50026691E89B29B680D4A601E0B
:102DE0000C44D168C907FCD59660D1684B07FCD567
:102DF000936800F8013FA042F3D100BF00BF00BFBD
:102E000000BF00BF00BF4022014B9A61BDE8F081C6
:102E100000800920000003402DE9F04F40260720E4
:102E20000021674D674B2A68674C32432A60DA6994
:102E3000AE6122F0070242F00202DA611A6A634DC3
:102E400022F0070242F002021A625A6A8FB022F0A0
:102E5000070242F002025A62D4F8C42042F48062AF
:102E6000C4F8C4205A4A5B4C106051609A6922F041
:102E700007029A612E68B4EB560F7CD302224026DB
:102E8000534BD2B218684E4CC0B21860186840EA72
:102E9000012119601A615A6842F002025A60E66123
:102EA00000BF00BF00BF00BF00BF00BFDA68D0078F
:102EB000FCD5FF21464A9960D3685907FCD5936831
:102EC00000BF00BF00BF00BF00BF00BF40263C4C9A
:102ED000A661FFF77BFEE66100BF00BF00BF00BF39
:102EE00000BF00BF3A49CB68DB07FCD59F23384AB7
:102EF0008B60D3685F07FCD593683549CB68DE07E4
:102F0000FCD50023324A8B60D3685C07FCD59368FC
:102F10002F49CB68D807FCD500232D4A8B60D36896
:102F20005907FCD596682A4BF6B2DC6814F0010408
:102F3000FBD0002226499A60CB685A07FCD58F68DF
:102F400000BF00BF00BF00BF00BF00BF4FF040097F
:102F5000DFF86C80FFB23B46324600201E49C8F8BD
:102F60001890FEF761F90B2E01D1122F36D02046B2
:102F70000FB0BDE8F08FB4EB960F1DD202210A46C8
:102F800001FB0223B6FBF3F3A34201F101007FF63C
:102F900076AFB0F5807F0DD10021023201FB022314
:102FA000B6FBF3F3A34201F101007FF668AFB0F581
:102FB000807FF1D00146E3E7022201215FE700BFF5
:102FC0000080092000C0024000C00F400000001037
:102FD000000003408096980040D70100C8F81C907C
:102FE00000BF00BF00BF00BF00BF00BFAB49CB6840
:102FF000DB07FCD51F23A94A8B60D3685F07FCD58C
:103000009368A649CB68DE07FCD5A023A34A8B6052
:10301000D3685C07FCD59368A049CB68D807FCD57A
:1030200000239E4A8B60D3685907FCD5936800BF84
:1030300000BF00BF00BF00BF00BF4FF40014402618
:1030400000206A689649974B0827A3FB0253A1FB0F
:1030500002129549D20B9B0C013A8E61C4F898007C
:103060009249C4F8942003EB8302C3EBC300C2EB84
:10307000C202A1FB0252C3EBC000A1FB0050C3EB94
:103080000313A1FB03319309800901338A091B044F
:10309000411C013243EA01231343C4F8903002A8D3
:1030A000FEF70CF806AE4FF0A05E4FF47A634FF0D7
:1030B0003E0C202231464FF08060C4F8E8EF0AADA4
:1030C000C4F88430C4F88070D4F88C30013201F830
:1030D000013B92B2D4F8E03F5B01FBD5402AC4F833
:1030E000E80F79D18B1B102B69D1029A069B9A426B
:1030F00076D04FF000096E494846FEF795F84FF438
:1031000000144FF0805A4D46DFF8A8810AAF4FF007
:10311000FF0B04E02A464146FEF786F835460122B9
:103120006E04304611460DF107038DF807B08DF897
:1031300028B0FFF7D1FD012206F500603B4611469D
:10314000FFF7CAFD9DF807009DF828306E1C184057
:10315000B6B2DFD004224FF0A05309F03F01C4F80B
:10316000E83FC4F88410C4F880200231C4F88850C5
:103170004FEA9912D4F8E03F5D01FBD593014FF07F
:103180008062C4F8E82FC4F8E8AFC4F8843006239E
:10319000C4F88030D4F8E03FD800FBD53F2988BF81
:1031A000002309F102091FFA89F9C4F8E8AF88BFC2
:1031B000C4F88430B9F57A6F24D03546A7E70022E9
:1031C0000CF101031FFA83FC4FEA8C1303F47C63B8
:1031D000C4F88430C4F88070A9427FF475AF84E7E6
:1031E000039A079B9A4284D1049A089B9A4280D101
:1031F000059A099B9A427FF47CAF002420460FB0C9
:10320000BDE8F08F3846FDF759FF4FF40013202238
:103210004FF0A0513E203C464FF003084FF0806E27
:103220004FF080554FF0060C0026C3F8E81FC3F896
:103230008420C3F8808014F8011B013292B2C3F8D5
:103240008810D3F8E01F4901FBD5E11B1029C3F812
:10325000E8EF09D03F2A07D80EA98C42E9D1002017
:103260001549FDF7E1FFC8E78101C3F8E85FC3F83E
:103270008410C3F880C0D3F8E01FC900FBD53F2AF3
:10328000C3F8E85FE8D9013080B23F280ABF0020C8
:1032900000220246C3F88460DEE700BF000003405E
:1032A000819F5E1683DE1B4300800920D34D621090
:1032B0005CD7010078D7010090D701006D4AD2F8A1
:1032C000E03FD2F8E41F0B4000F0D3802DE9F04737
:1032D00000252F46684E694896F8A1CFD6F8A44F2E
:1032E0009907C2F8E83F2ED0D2F8181101F1806199
:1032F0000431C90009684FEAD1484FEA515909F031
:1033000008094FEAD15E08F0100848EA09080EF0F3
:10331000040E4EEA080EC1F3C0694FEA915849EA1B
:103320000E0E08F0400848EA0E084FEA116E0EF043
:10333000200E090A4EEA080E01F4805151EA0E01EE
:1033400008BF23F0020313F0300F18BFD2F8281182
:103350001B0724D5D2F81811D2F81431D2F810E195
:1033600099421CD0D2F81811D2F8183103F18063B9
:103370000433DB001B6810EA030E10D101F18063F7
:103380000433DB001B68D2F81851C3F30A03991EFB
:1033900004EB0108B8F5C06F11D374460125D2F8CB
:1033A000E03FD2F8E41F0B409AD10DB1C6F8A44F0C
:1033B0000FB9BDE8F08786F8A1CFBDE8F0870029F6
:1033C0001DDD05F18065E900D1F800E0DD1E0CEBA4
:1033D0004C012B4B04EB41210D2D03EB410303D991
:1033E0000EF102018B422CD125F0010402341C4461
:1033F000AEEB03015D5A23F8025BA342FAD11D4BE9
:10340000D3F8183103F180630433DB001B685D00DF
:103410000BD4444601251749D1F81831032B2B440E
:1034200008BF0023C1F81831B9E700240CF1010CE2
:103430005FFA8CFCBCF1010F4FF0010788BFA44676
:10344000E8E771466D0801354FEA55090EEB890929
:10345000A3EB0E0A0C684AF8014004318945F9D102
:10346000EC0725F00101CAD53EF8114023F81140C0
:10347000C5E7704700400820E80700100000901BD7
:10348000B027001040F6FE734FF4001210B409216B
:103490004FF0A05440000340C2F8E84FC2F8843017
:1034A000C2F88010D2F88C00D2F8E03F5B01FBD567
:1034B0004FF0806380B210BCC2F8E83F704700BF95
:1034C000F8B5457815B103252846F8BD044600F146
:1034D0003007C1F34E100E03FFF7D4FFC6F31006FA
:1034E00046EA4046394630460BF00AFA04F50361D5
:1034F00006F500600BF004FA4AF65523B4F82E22C4
:103500009A420FD1D4F86630084A23F07F439342A1
:10351000DAD0D4F8825025F07F45AD1A18BF0125C6
:103520002846F8BD02252846F8BD00BF4641540094
:103530002DE9F041934C94F84B30D4F8A85FD4F8BF
:10354000AC6F2F2B31D8DFE813F09D003000300036
:103550008600650030003000300030003000300060
:1035600030003000300030003000300030004E00BD
:1035700030003000300030003000300030003000CB
:1035800030003000300030003000300030003000BB
:1035900030003000F80030003000A1003000E600BC
:1035A000300030003000300065004FF4A423236663
:1035B0000023C4F8A83FFDF70BFD01210322D4F836
:1035C000B00F636C84F8C01F1B1A6F4823EAE373C3
:1035D000C4F8B40F206CC4F8BC3FC4F8B80F84F82A
:1035E0005C20BDE8F081AC46684F07F1200E3D46F7
:1035F0000CF1100C0FCD754507F110074CF8100CAD
:103600004CF80C1C4CF8082C4CF8043CEFD13868F2
:10361000CCF80000D4F8B00F5D4BB042C4F8A83F1E
:1036200040D8B042DDD1656CB54201D0FDF7D0FC89
:10363000002203235449AD1BC4F8B41F216C25EAB2
:10364000E57584F8C02F84F85C30C4F8B81FC4F85E
:10365000BC5FBDE8F08100234E4FD4F860C0236604
:103660000FCFEB603B884FEA1C484FEA1C2E2860C6
:103670006960AA6085F8028085F80CE02B8285F8E5
:103680000DC0C7E7236E002BC4D091E7C6F30B052E
:10369000002D58D03E4BD4F8B00F2B44B042C4F8A4
:1036A000A83FBED9851B402D28BF402516213A4A88
:1036B000C2F82812C2F82452D2F82812890707D576
:1036C00053F8041BC2F81C12D2F828128F07F7D443
:1036D0000023314AC2F828323023C2F808322F4B77
:1036E000C2F81032D2F80032D906FBD51023C2F846
:1036F00008323023C2F80832294BC2F81032264A69
:10370000D2F80032DB06FBD510232E44C4F8AC6F90
:10371000C2F8083285E706F14003C3F30B05D4F87D
:103720004D30002DB6D11BBA194803EB16310BF002
:1037300033FB10BBD4F8AC6FACE74FF48013194ADD
:103740006B602A6066E7D4F84D301BBA03EB163382
:10375000C3F34E101E03FFF795FEC6F3100646EAAC
:10376000404630460A490BF0CBF806F500600E499A
:103770000BF0C6F8D4F8AC6F8CE74FF443332366F4
:1037800016E700BFE807001055534253A4EF0100AD
:10379000B017001090EF010000C0082000050B00DA
:1037A0000005FA000000F9FFB01F00108A0714D4CA
:1037B0002DE9F0479C4C94F85C30042B0BD8DFE8E3
:1037C00003F0286603030D0000221146FDF75EFAA0
:1037D000002384F85C30BDE8F08770473021934ABD
:1037E000934BC2F80812C2F81032D2F80032D90650
:1037F000FBD510208F4B8D49C2F80802C2F8103259
:10380000D1F80032DB06FBD51023C1F80832BDE841
:10381000F08720228849FDF739FA1F2857D1874BB6
:10382000E26B9A4253D194F84930002B4FD194F86F
:103830004A20511E0F294AD894F84B008049C4F8F9
:10384000AC3F01EB501191F8D015C4F8B03F914254
:1038500094F9483075D82F2870D8DFE800F0896FC8
:103860006F92896F6F6F6F6F6F6F6F6F6F6F6F6F2B
:10387000AD6F6F6F6F6F6F6F6F6F6F6F6F6F6F6F1A
:103880006F6F6FA06F6FD76FC16F6F6F6FBAD4F824
:10389000AC5FD4F8B06FB542C0F0DC80AE429AD1D4
:1038A000656CB54201D0FDF793FB00220323654907
:1038B000AD1BC4F8B41F216C25EAE575C4F8B81F28
:1038C000C4F8BC5F84F8C02F84F85C3083E73021F3
:1038D000564A5D4BC2F80812C2F81032D2F80032D4
:1038E000DF06FBD51020534B5049C2F80802C2F83E
:1038F0001032D1F80032DE06FBD5102530204C4BBB
:103900004A4AC1F80852C1F80802C1F81032D2F888
:103910000032DD06FBD51020464B4449C2F80802B0
:10392000C2F81032D1F80032D806FBD51022042399
:10393000C1F8082284F85C30BDE8F0874FF4A42376
:1039400023660023C4F8A83FFDF742FB01210322B0
:10395000636C3C4823EAE373C4F8B40F206CC4F8EA
:10396000BC3FC4F8B80F84F8C01F84F85C2032E76D
:10397000364BC4F8A83F022384F85C30BDE8F0471A
:10398000D6E5324994F84F20C4F8A81F002AF2D097
:10399000002BC0F21D81FDF71BFB0221D7E72B4A4C
:1039A000002BC4F8A82FF6DA0822656C9542C0F007
:1039B000F280C4F8B02FDEE7244994F84F20C4F811
:1039C000A81F002AD7D0002BE5DA242A28BF2422FA
:1039D000EBE794F84C309B07CAD51D4B2366B0E744
:1039E000B4F85220194952BA92B2C4F8A81F110370
:1039F000002AC0D0002B656CCDDBA94200F2CB8041
:103A00000123C4F8B01F84F85C30E4E6B4F8521027
:103A10000E4A49BA89B2C4F8A82F0A030029AAD0CD
:103A2000002BB8DAC1E700BFE807001000C008208B
:103A300000054400000101002408001055534243D2
:103A4000F8E901005553425300054B00B017001030
:103A500000240500D4F8A87F02203946721BFDF728
:103A600015F994F84B3080462F2B19D8DFE803F076
:103A70006818184E3C18181818181818181818181C
:103A800018182518181818181818181818181818A9
:103A900018181818188C18186C1843181818183C8F
:103AA0004FF4A42323660023C4F8A83FFDF790FA3F
:103AB000636C012103229B1B4BE7DFF82CE10EF125
:103AC0002009F4461037BCE80F00CC450EF1100E6B
:103AD00047F8100C47F80C1C47F8082C47F8043C32
:103AE000EFD1DEF800003860404B4544C4F8A83FF1
:103AF000C4F8AC5FD2E605F14003C3F30B07D4F87A
:103B00004D20002F58D0394B3B44EEE70023DFF81F
:103B1000E0C0D4F860E02366BCE80F00FB60BCF8AE
:103B200000304FEA1E4A4FEA1E2938607960BA60B9
:103B300087F802A087F80C9087F80DE03B82D3E766
:103B4000236E002BD0D0AEE7C5F30B07002FDAD1E0
:103B5000D4F84D0000BA00EB15300503C0F34E1049
:103B6000FFF790FCC5F3100545EA404528461F497C
:103B70000AF0C6FE05F500601E490AF0C1FED4F841
:103B8000AC5FD4F8B06FBEE74FF480137B60A3F551
:103B9000B8133B60A8E7FDF71BFA0222032316497E
:103BA000C4F8BC5FC4F8B41F216C84F8C02FC4F8FB
:103BB000B81F84F85C300EE612BA0C4802EB1531DF
:103BC0000BF0EAF840B9D4F8AC5FD4F8B06F9AE7DC
:103BD000122A28BF1222E8E64FF44333D4F8B06F1C
:103BE000C4F8A87F236661E7A4EF0100B0170010B6
:103BF00090EF0100B01F0010555342538B0708D4BB
:103C00002F4890F85C30032B1FD0042B03D0022BDD
:103C100000D070478CE430212A4A2B4BC2F808129E
:103C2000C2F81032D2F80032D906FBD51020274B4B
:103C30002449C2F80802C2F81032D1F80032DB067B
:103C4000FBD51023C1F8083270470D2216211D4BF9
:103C500030B4C3F82812C3F82422D3F828229407DA
:103C600048BF00F6B47207D552F8041BC3F81C1203
:103C7000D3F828128907F7D400243021114A144BB5
:103C8000C2F82842C2F80812C2F81032D2F8003244
:103C9000DD06FBD5102530240E4B0A49C2F8085228
:103CA000C2F80842C2F81032D1F80032DC06FBD567
:103CB00010220023C1F8082280F85C3030BC704725
:103CC000E807001000C0082000054B0000010100BB
:103CD00000050B000005FA00F0B5C3B002AD4FF4CB
:103CE0008072002128460DF055FE00240126A0B266
:103CF000FFF7C8FBC0F3CC03EA5C00F00700013417
:103D000006FA00F01043B4F5FA6FE854EFD100263C
:103D1000FF27344605E00134B4F5006F06F50036A0
:103D200023D0C4F3CC03EB5C04F007021341DB07A0
:103D3000F1D40122304611460DF106038DF80670CC
:103D40008DF80770FEF7C8FF01220DF10703114639
:103D500006F50060FEF7C0FF9DF806209DF80730CD
:103D60001A42D8D0204643B0F0BD00200349FDF7E9
:103D70005BFA01200249FDF757FAFEE7ACD90100D2
:103D8000C8D901002DE9F041C66A8E4204D00379FA
:103D900004460D461BB93DB90020BDE8F0814378CB
:103DA000DBB10120BDE8F0816378002BF9D1C5F3C8
:103DB0004E10FFF767FB2E03C6F3100646EA404697
:103DC000304604F130010AF09BFD04F5036106F56D
:103DD00000600AF095FDE562DEE700F1300831464B
:103DE00040460AF0D9FF0028DBD1D4E907321A4453
:103DF000B2422071CFD9E778012FCCD91E44637825
:103E000063B9013F31464046FFB20AF0C5FF012FBA
:103E1000C1D0E3691E446378002BF2D0002DBBD0E3
:103E2000BFE700BF2DE9F84307780446022F0D468F
:103E3000164608D0032F4ED0012F1CD0022001239C
:103E40002371BDE8F88343895B08B1FBF3F3016A92
:103E50001944FFF797FF0028F1D163896D00B5FB86
:103E6000F3F103FB1155C6F30722254485F83060B2
:103E700085F8312051E0438901EB5108B8FBF3F399
:103E8000016A1944FFF77EFF0028D8D1618908F143
:103E90000109B8FBF1F301FB1388B9FBF1F1236AC7
:103EA000A0441944EB073DD598F83030204603F084
:103EB0000F0343EA061388F830302771FFF762FFDB
:103EC0000028BCD16289C6F30713B9FBF2F102FBEB
:103ED0001199A1443BE043899B08B1FBF3F3016ACC
:103EE0001944FFF74FFF0028A9D16389AD00B5FB46
:103EF000F3F203FB125505F130022244D378254436
:103F00001B0603F070433343C3F3072185F83030B9
:103F10005170190C1B0E9170D37001232371002076
:103F2000BDE8F88388F8306020462771FFF72AFF44
:103F3000002884D16389C6F30326B9FBF3F203FB9F
:103F40001299A14499F8303023F00F03334389F8D4
:103F50003030E2E7F8B5C56A04460DB103793BB9E4
:103F60002378032B2BD06078003818BF0120F8BDD0
:103F700043780BB10120F8BD00F1300729463846DF
:103F80000AF00AFF0028F5D1E369226A20711A4479
:103F90009542E5D2E678012EE2D91D446378002BE4
:103FA000DED1013E29463846F6B20AF0F5FE012E72
:103FB000D6D0E3691D446378002BD1D1F1E7637952
:103FC000002BD0D0002104F130034FF400721846CA
:103FD000E1620DF0DFFC4AF655220C4903460C481D
:103FE000C4F814122063D4E90301C4F81C026078F9
:103FF000C4F81812A4F82E2210B100236371B3E79D
:10400000184661690AF0C8FE6078F6E7727241618D
:1040100052526141012940F2928083692DE9F047B3
:104020008B420D4604463DD94FF001082378022B00
:104030003BD0032B04D0012B51D00120BDE8F087E9
:104040006389216A9B08B5FBF3F320461944FFF707
:1040500099FE0028F1D16189AB00B3FBF1F201FBBD
:10406000123303F1300222449678D078234493F837
:104070003030360446EA00661E43537846EA03268B
:1040800036F0704659D0012E0CD0A369AB4209D945
:104090002778022F00F09480032F5FD0012F50D09B
:1040A000012323710220BDE8F0876389216A5B0840
:1040B000B5FBF3F320461944FFF764FE0028BCD19A
:1040C00061896B00B3FBF1F201FB1233234493F8D7
:1040D000312093F8306056EA0226D4D12DE063896E
:1040E00005EB5506B6FBF3F3216A20461944FFF7AA
:1040F00049FE0028A1D16189771CB6FBF1F301FBD1
:104100001366B7FBF1F1236A26442046194496F85A
:104110003060FFF737FE00288FD16189B7FBF1F3DC
:1041200001FB1377274497F83030EF0746EA032660
:104130007FD4C6F30B06002EA5D10020B3E70220E2
:10414000704705EB5509B9FBF1F1236A2046194484
:10415000FFF718FE002849D02771A4E78908B5FBAE
:10416000F1F1236A20461944FFF70CFE20BB638956
:10417000AD00B5FBF3F203FB125505F13003234408
:10418000DA78254402F0F00285F83000A3F8010047
:10419000DA70236984F804805A1C08D0A2690133BC
:1041A000B242236184F80580C7D935463EE7A3694A
:1041B000B342C2D9354639E701232371BDE8F08700
:1041C0004908B5FBF1F1236A20461944FFF7DAFDEF
:1041D0000028F1D163896D00B5FBF3F203FB1255A2
:1041E000254485F8300085F83100D2E7618909F16E
:1041F000010AB9FBF1F301FB1399BAFBF1F1236A50
:10420000ED071944A14418D489F8300020462771DD
:10421000FFF7B8FD0028CFD16389BAFBF3F203FBA7
:1042200012AAA2449AF8300000F0F0008AF8300098
:10423000AFE736097FF427AF7FE799F830302046A3
:1042400003F00F0389F830302771FFF79BFD00283A
:10425000B2D16389BAFBF3F203FB12AAA244E5E7E9
:10426000F8B503780446022B0D4606D0032B49D03F
:10427000012B1AD04FF0FF30F8BD4389016A5B086B
:10428000B5FBF3F31944FFF77DFD0028F2D16389F4
:104290006D00B5FBF3F203FB1255254495F8313060
:1042A00095F8300040EA0320F8BD438901EB510640
:1042B000B6FBF3F3016A1944FFF764FD0028D9D176
:1042C0006389771CB6FBF3F2B7FBF3F003FB1266CE
:1042D000216A26440144204696F83060FFF752FDDB
:1042E0000028C7D16389B7FBF3F203FB1277274499
:1042F00097F8303046EA0320EB074CBF0009C0F3C3
:104300000B00F8BD4389016A9B08B5FBF3F3194420
:10431000FFF738FD0028ADD16389AD00B5FBF3F29E
:1043200003FB125505F1300323449878D9782C44C7
:1043300094F8302000045B7840EA0160104340EAC2
:10434000032020F07040F8BD2DE9F04F04464FF0F7
:10435000FF0A83B0006821694FF6FF795546FFF7E1
:1043600011FD002830D162691178002949D0E52972
:10437000D37A06D013F0080003F03F0645D00F2E85
:104380007BD0FF25E38801339EB2002E39D021690E
:10439000002936D0206843895B09B6FBF3F203FBA2
:1043A00012639BB233B9E768013121617FB9028999
:1043B000B24226D900F1300202EB4313E68063617A
:1043C000FFF7E0FC0028CED003B0BDE8F08F90F8F6
:1043D00002C00CF1FF3C1CEA020FEBD1012F5FD0B1
:1043E00083699F425CD23946FFF73AFF01280346B2
:1043F00056D9421C00F00E81206882699342C0F0B9
:10440000F680042003B0BDE8F08F0F2E35D0002DCC
:1044100000F0A480A369A4F82090D97AC907B0D489
:104420001D7811788D42ACD15D7851788D42A8D13C
:104430009D7891788D42A4D1DD78D1788D42A0D13C
:10444000157919798D429CD1557959798D4298D138
:10445000957999798D4294D1D579D9798D4290D138
:10446000157A197A8D428CD1557A597A8D4288D134
:10447000927A9B7A9A42A7D083E7D4F81CC0E3884B
:10448000BCF1000F3FF47FAF4E060BD592F80DA0A4
:10449000238401F0BF05517B514508D0FF2572E709
:1044A000022091E7A942F9D1517B5145F6D111780B
:1044B0004FF0010B21F0400808F1FF3808EB4800ED
:1044C000DFF854E108EB8008019506E04FF6FF7035
:1044D0008542E3D15148864533D01EF8010B1518AB
:1044E0006E78155C45EA0625BBF1000FEED04C4F07
:1044F0006120BB46002603E03BF8020F013630B1D5
:104500008542F9D1474800EB4606B6F8C857B8F1DE
:10451000270FC3D83CF818B06120002608F1010825
:1045200003E037F8020F013630B15845F9D13D4864
:1045300000EB4606B6F8C8B75D45AFD137488645AB
:10454000CBD14806019D06D5BBF1000F03D03CF846
:104550001820002AA2D1013DEDB214E75578CB0115
:1045600043EA51032B44C3F3460141EAC311937854
:10457000C9B21944C1F3460343EAC113D178DBB28F
:104580000B44C3F3460141EAC3111379C9B219447C
:10459000C1F3460343EAC1135179DBB20B44C3F3C1
:1045A000460141EAC3119379C9B21944C1F34603E4
:1045B00043EAC113D179DBB20B44C3F3460141EAAC
:1045C000C311137AC9B21944C1F3460343EAC113B4
:1045D000517ADBB20B44957AC3F3460141EAC31327
:1045E0002B4403F0FF0353457FF414AFECE6023A8B
:1045F000E360023B93423BBF8278816A002103FB68
:104600000211428921615209B6FBF2F302FB1363E6
:104610009BB2CFE60120D7E6D0EF0100DDEF01002D
:10462000E0EF0100F8E901002DE9F84305460E46E8
:10463000F1B9C7688369002F00F0B8809F4228BF96
:1046400001273C4601349C4221D3012F00F0AC806D
:10465000022B1ED902242B78022B00F08A80032B18
:104660005ED0012B19D04FF0FF342046BDE8F8830F
:1046700001290ED0836999420BD2FFF7F1FD012881
:10468000044606D9AB69834204D83746D9E7012CE2
:10469000E1D101242046BDE8F8836B8904EB54087E
:1046A000B8FBF3F3296A28461944FFF76BFB00288F
:1046B000D9D1698908F10109B8FBF1F301FB13882D
:1046C000B9FBF1F12B6AA8442846194498F83080C8
:1046D000FFF758FB0028C6D16B89E107B9FBF3F25D
:1046E00003FB1299A94499F8303048EA03235FD5B7
:1046F0001B0938D1AB69A342CBD96FF07042214678
:104700002846FFF78FFB002865D1002E55D12B6975
:10471000EC605A1CBED00122013B2B616A71B9E7E3
:104720006B89296A9B08B4FBF3F328461944FFF709
:1047300029FB002897D16A89A300B3FBF2F102FBA1
:10474000113303F130022A442B4493F8301093784C
:10475000D0781B04527843EA00630B4343EA0223F8
:1047600033F07043C6D0012B93D0A7421CD0AB6965
:1047700068E76B89296A5B08B4FBF3F328461944A0
:10478000FFF700FB00287FF46EAF6A896300B3FB7C
:10479000F2F102FB11332B4493F8312093F83030BF
:1047A00053EA0223DFD1A5E7002473E7012748E796
:1047B000C3F30B03002BD6D19CE7012E3FF469AF66
:1047C000AB699E42BFF465AF224631462846FFF7EB
:1047D00029FB00289BD001283FF445AF59E700BFD3
:1047E0002DE9F04784680646012CC18026D0056873
:1047F000AB69A34222D988461CB36A89AF785209B3
:1048000002FB07F7BFB28F4268D89C4216D22B78C2
:10481000022B00F09F80032B78D0012B21D00120A8
:10482000BDE8F0876C6A7CB16A89AF78520902FBF7
:1048300007F7BFB2B94251D3012CE6D10220BDE83F
:10484000F0872A78032AEDD000222B89F2604345B5
:10485000F4D96A89686A5209B8FBF2F399B2014443
:104860004AE06B8904EB5409B9FBF3F3296A284643
:104870001944FFF787FA0028D1D1698909F1010AA3
:10488000B9FBF1F301FB1399BAFBF1F12B6AA944CF
:104890002846194499F83090FFF774FA0028BED1E1
:1048A0006B89BAFBF3F203FB12AAAA449AF83030E0
:1048B00049EA0329E3074CBF4FEA1914C9F30B0473
:1048C000012CBBD93568AB69A342B7D9A8EB070166
:1048D0001FFA81F8474598D96A895209023BF4606A
:1048E000023C9C423BBFAB78A86A002004FB03005B
:1048F000B8FBF2F399B2014402FB138330359BB24B
:1049000005EB431500203161756198E76B89296AD1
:104910009B08B4FBF3F328461944FFF733FA002849
:104920007FF47DAF6B89A400B4FBF3F203FB124468
:1049300004F130032B442C4494F830209C78D9782F
:1049400024045B7844EA0164144344EA032424F019
:104950007044B5E76B89296A5B08B4FBF3F328461A
:104960001944FFF70FFA00287FF459AF6B896400F0
:10497000B4FBF3F203FB12442C4494F8313094F866
:10498000304044EA03249BE72DE9F04FC48883B00C
:104990000134A4B2002C4AD002690546002A46D050
:1049A000066873895B09B4FBF3F003FB10439BB209
:1049B00043B10020303606EB4316EC806E6103B045
:1049C000BDE8F08F0F46E96801322A6161B3B27821
:1049D000013A0242EDD101292DD0B36999422AD280
:1049E0003046FFF73DFC0128804624D9B0F1FF3F57
:1049F00000F08A802E68B36983421ED9A0F1020AB2
:104A0000023B534598BF0023C5F80C8082BFB278A3
:104A1000B36A0AFB023372892B615209B4FBF2F3C9
:104A200002FB13439BB2C4E73289A242C1D80420DF
:104A300003B0BDE8F08F0220C1E7002FF7D0304669
:104A4000E968FFF7F1FD804600285FD00128F2D029
:104A5000B0F1FF3F58D02E68F76A17B13379002BB9
:104A600058D1728906F1300012B100210CF092FF8A
:104A70002E68A8F1020AB369B278023B9A4547D280
:104A8000B76A0AFB0277F762002A6BD04FF0000981
:104A90004FF0010B86F804B04FB37278002A33D17F
:104AA00006F130033946184601930AF075F958BBF0
:104AB000D6E907120A44BA42307115D9F278012AB0
:104AC00012D90F447178009271B9394601980AF0F1
:104AD00063F9009A013AD2B2012A05D0F169009235
:104AE0000F4471780029F0D02E68F76AB27809F186
:104AF00001095FFA89F901379145F762CAD3A7EB3B
:104B00000907B369F7627BE7012058E7072056E7FA
:104B10000027B8E77378002BF6D106F1300A394642
:104B200050460AF039F90028EED1D6E9072313449C
:104B30009F42307106D296F80390B9F1010F01D966
:104B400073780BB12E688CE7F36909F1FF391F44C4
:104B5000504639465FFA89F90AF01EF9B9F1010F9A
:104B6000EED1EFE79146CAE701692DE9F843054622
:104B7000002900F0C480FF273E460068FFF702F9D5
:104B80008046002840F0BD806A691378002B00F051
:104B9000B680E52BD17A07D02E2B05D00C0701F07B
:104BA0003F002ED50F282FD0EC88FF260134A4B269
:104BB000002C00F0A4802969002900F0A08028685A
:104BC00043895B09B4FBF3F203FB12439BB2002B56
:104BD00040F09C80D5F80CC001312961BCF1000F78
:104BE00040F09F800289A24240F2898000F13002A9
:104BF00002EB4313EC806B610029BFD14046BDE856
:104C0000F8830F2840F05381580640F18680E988E8
:104C1000577B03F0BF032984517BB942C4D111787B
:104C2000EE6901F03F01013901EB410001EB800128
:104C30002729B2F80140B7D826F81140B2F803C0CE
:104C4000481C002C40F0A0804FF6FF718C45ABD182
:104C5000B2F805E04FF6FF718E45A5D1B2F807C056
:104C60004FF6FF718C459FD1B2F809E04FF6FF7106
:104C70008E4599D1B2F80EC04FF6FF718C4593D195
:104C8000B2F810904FF6FF7189458DD1B2F812E05D
:104C90004FF6FF718E4587D1B2F814C04FF6FF7101
:104CA0008C4581D1B2F816E04FF6FF718E457FF446
:104CB0007BAFB2F818904FF6FF7189457FF474AF5F
:104CC000B2F81CC04FF6FF718C457FF46DAFB2F89F
:104CD0001EE04FF6FF718E457FF466AF12785106E5
:104CE00005D528283FF460AF002226F81020EC8874
:104CF000013B0134A4B2DEB2002C7FF45CAF4FF074
:104D0000040800232B614046BDE8F88300F130021F
:104D100002EB4313EC806B6130E79E427FF444AFBB
:104D20007AE790F802E00EF1FF3E1EEA020F7FF4F0
:104D30005DAFBCF1010F22D083699C451FD2614653
:104D4000FFF78EFA0128034619D9421C00F0B480FF
:104D5000286882699342D2D2023AEB60023B9342C6
:104D60003BBF8278816A002103FB021143892961DC
:104D70005B09B4FBF3F203FB12439BB236E700235B
:104D80004FF002082B61BEE728283FF40DAF26F84C
:104D900010C04400B2F805E0881CBCF1000F3FF4DD
:104DA00059AF28283FF400AF3444A4F802E0B2F829
:104DB00007C0C81CBEF1000F3FF452AF28283FF4D3
:104DC000F3AEA4F804C0B2F809E0081DBCF1000F6E
:104DD0003FF44CAF28283FF4E7AEA4F806E0B2F861
:104DE0000EC0481DBEF1000F3FF446AF28283FF427
:104DF000DBAEA4F808C0B2F81090881DBCF1000F1B
:104E00003FF440AF28283FF4CFAEA4F80A90B2F8A0
:104E100012E0C81DB9F1000F3FF43AAF28283FF463
:104E2000C3AEA4F80CE0B2F814C001F10800BEF162
:104E3000000F3FF433AF28283FF4B6AEA4F80EC0FD
:104E4000B2F816E001F10900BCF1000F3FF42CAFFD
:104E500028283FF4A9AEA4F810E0B2F8189001F1A8
:104E60000A00BEF1000F3FF426AF28283FF49CAEA5
:104E7000A4F81290B2F81CC001F10B00B9F1000FB8
:104E80003FF420AF28283FF48FAEA4F814C0B2F846
:104E90001EE001F10C00BCF1000F3FF41AAF28280E
:104EA0003FF482AEA4F816E001F10D0016E736B12A
:104EB0004FF6FF732B84A1E64FF0010821E75178EC
:104EC000D80140EA53030B44C3F3460141EAC3113E
:104ED0009378C9B21944C1F3460343EAC113D178A8
:104EE000DBB20B44C3F3460141EAC3111379C9B2E3
:104EF0001944C1F3460343EAC1135179DBB20B44B1
:104F0000C3F3460141EAC3119379C9B21944C1F30D
:104F1000460343EAC113D179DBB20B44C3F3460124
:104F200041EAC311137AC9B21944C1F3460343EAF3
:104F3000C113517ADBB20B44917AC3F3460242EAC1
:104F4000C3130B4403F0FF03BB42B1D156E600BFCD
:104F50002DE9F04FD0E9064B89B0A268824661681E
:104F6000206805AB07C39DF81F30DA07019340F1B5
:104F7000C5800023012581468846621EBDF81C704D
:104F80009DF81E60E3720092CAF81C30052DC4F82B
:104F90000090C4F804802781A67240F231815946FE
:104FA0002846BBF80020C30343EA5003134431F8FA
:104FB000022F98B2002AF6D1034600F00F0202F148
:104FC000300EBEF1390F88BF02F1370E0F2B8DF86E
:104FD00013E0C0F30F1040F2198100F00F0101F14E
:104FE0003002392A88BF01F137020F288DF81220CC
:104FF000C3F30F2140F2128101F00F0000F13002E3
:10500000392A88BF00F137020F298DF81120C3F328
:105010000F3340F20981DBB203F13002D2B2392AF8
:1050200084BF3733DAB27E234FF0030C8DF81020A3
:105030008DF80F300022009902E0624500F0EC800C
:1050400011F8010F1346202802F10102F5D10CF1ED
:1050500020026A4412F8141C062BE15412F8131CA7
:1050600004EB030251700CF1020203F1020112D0B1
:10507000082A23D12022052B625403F103000AD011
:10508000431C082BC0F108024FF0200188BF012209
:1050900020440CF07FFC00215046FFF7A1FB30BB01
:1050A0005046FFF751F910BB0135ADB2642D7FF4C6
:1050B0006DAF0721084609B0BDE8F08F20326A4481
:1050C00012F8142C052B62540CF1030203F10301B6
:1050D000E1D0082A70D12022042B625403F104008D
:1050E000CED100215046FFF77BFB0028D8D0042802
:1050F0000146DFD1019BE372CAF81CB0019B9B07FC
:1051000000F19880012400215046FFF769FB014619
:105110000028CFD10646054608E0B3B10546012177
:105120005046FFF731FC002840F09880DAF8101064
:10513000DAF80000FEF726FE6A1C002840F08E8098
:10514000DAF814301B78E52BE7D10DB9BAF8066010
:1051500095B2AC42E3D1012C40F08580DAF8101012
:10516000DAF80000FEF70EFE01460028A2D1DAF8B8
:1051700014302022009018460CF00CFC0346DAF89C
:1051800018200099501C181A022840F296811068C5
:10519000186050685860107A1872507A587201205E
:1051A000927A9A72DAF81820D27A02F018021A73F8
:1051B000DAF8003018717DE720326A4412F8142CB6
:1051C000042B625403F104023FF465AFBCF1030FFA
:1051D00007D02021032BA15403F105007FF450AF29
:1051E00059E7032B04F802E003F105023FF453AF43
:1051F0002021022BA15403F106007FF441AF4AE7BE
:1052000005F1300E5FFA8EFE8DF813E07E234FF02D
:10521000060C8DF812300DE7634618E77E234FF039
:10522000050C8DF8113005E77E234FF0040C8DF846
:105230001030FFE6BBF80030002B3FF463AF0023D3
:1052400001339BB23BF81320002AF9D1A34A03F1A2
:105250001904A2FB0424C4F38F0454E70146084652
:1052600009B0BDE8F08F31465046FFF7B9FA014664
:1052700000287FF41FAFDAF81830013C19781FFAC4
:1052800084F8CA0142EA510259780F260A44C2F34F
:10529000460141EAC2119A78C9B21144C1F34602EB
:1052A00042EAC112D978D2B20A44C2F3460141EAB5
:1052B000C2111A79C9B21144C1F3460242EAC112BD
:1052C0005979D2B20A44C2F3460141EAC2119A792D
:1052D000C9B21144C1F3460242EAC112D979D2B22D
:1052E0000A44C2F3460141EAC2111A7AC9B2114412
:1052F000C1F3460242EAC112597AD2B20A449B7AF9
:10530000C2F3460545EAC2151D4405F0FF052B46CC
:105310004FF6FD7745464FF6FF749846DAF81010C1
:10532000DAF80000FEF72EFD014600287FF4C2AE39
:105330005FFA85FEDAF814300EF1FF32DAF81CC09D
:1053400002EB4201588302EB810283F80D80A3F83F
:105350000B603CF81210481E80B25970B8424FEAF8
:10536000112199704FEA420124D9A3F80340A3F810
:105370000540A3F80740A3F80940DC811C825C8249
:105380009C82DC821C839C83DC834EF0400E0122D5
:1053900083F800E0DAF80030002150461A71FFF778
:1053A000F3FA014600287FF485AE013DADB2002D31
:1053B000B4D1D3E601323CF81200520000F1FF39BB
:1053C000D870000A18711FFA89F0B842CFD8624429
:1053D000508800F1FF395871000A98711FFA89F05E
:1053E000B842C6D8908800F1FF39D871000A187207
:1053F0001FFA89F0B842BED8D08800F1FF39587240
:10540000000A98721FFA89F0B842B6D8108900F1E4
:10541000FF399873000AD8731FFA89F0B842ADD8E3
:10542000508900F1FF391874000A58741FFA89F086
:10543000B842A4D8908900F1FF399874000AD87452
:105440001FFA89F0B8429BD8D08900F1FF3918754E
:10545000000A58751FFA89F0B84292D8108A00F1F4
:10546000FF399875000AD8751FFA89F0B84289D8B3
:10547000508A00F1FF391876000A58761FFA89F031
:10548000B84280D8908A00F1FF391877000A58771F
:105490001FFA89F0B8423FF677AFD28A501E9A774A
:1054A000120ADA7782B2BA423FF66FAF8C44BCF888
:1054B0001A20002A7FF46BAF67E7107818705078D5
:1054C000587090789870D078D87010791871507999
:1054D000587190799871D079D8715CE64FECC44ED0
:1054E0002DE9F04F0B788A462F2B044683B02FD03E
:1054F0005C2B2DD00025A5609AF800301F2B2FD9EA
:10550000B04D534619781E462F299E4603F10103DC
:10551000F8D05C29F6D01F290A46E06914D9A0F119
:10552000020C2F2AE0464FF0010335D05C2A33D01D
:10553000292B09D07F2A1BD82221A34F02E017F87C
:10554000011FE9B19142FAD1062003B0BDE8F08F06
:1055500000250AF1010AA5609AF800301F2BCFD868
:1055600029462046FFF73CF9656103B0BDE8F08F9E
:1055700005EB4101B1F8A828002AE5D07F2ADBD944
:1055800028F8022F1EF8012F5F1C1F2A114640F237
:10559000EF802F2A3B46C9D106EB030A013BD3D04B
:1055A000002600EB430131F8022D202A01D02E2ADB
:1055B00002D1013BF7D1C7E74FF02037002142F27B
:1055C00020084FF0200EA26920F81310A2F80880DE
:1055D0001760576082F80AE000E001313CF8022FC2
:1055E000202AFAD02E2AF8D009B146F0030600EBA3
:1055F000430701E0013B04D037F802CDBCF12E0F88
:10560000F8D1D4F818E00131F446002A00F0EC801B
:1056100000274FF00808B946CDF804A0202A53D03F
:105620002E2A5AD0C8456ED8B8F10B0F5AD08B42EB
:1056300000F0968046F003068B4280F091809EF841
:105640000030F446E52BDDF804A004D105238EF8E4
:105650000030D4F818C0B8F1080F05BFBB00DFB2A6
:1056600007F00C0303F00C030C2B76D007F00307B4
:10567000032F72D0B20707D4012F08BF46F01006DF
:10568000042B08BF46F00806002120468CF80B606A
:10569000FFF7A6F8002854D12046FEF755FEA3696F
:1056A000DB7A00284FD159073FF54FAF6369DA7AAB
:1056B000D2064ED521685A8B0978032904BF9B8AEC
:1056C00042EA0342A2601CE70A4646F00306511C68
:1056D00030F81220002AA1D1B1E78B42F4D1B8F101
:1056E0000B0FA9D19EF80020F446E52ADDF804A0AE
:1056F00046F0030607F00C03B6D105228EF8002011
:10570000D4F818C0B0E78B42E9D07F2A34D84FF0E4
:105710002B0CE246944652469445DFF8B0B005D0D3
:105720001BF8012F002A42D09445F9D15F2246F0A0
:1057300003060EF80920D4F818E00A4609F1010919
:10574000C5E7A369DB7A04287FF4FFAE5C073FF569
:10575000FCAE052003B0BDE8F08F46F0020693E7EB
:10576000BF001A464FF00B084FF00809FFB2AEE732
:1057700006EB070A042614E74FF0000CDFF850A0F0
:1057800004E00CF1010CBCF1800F38D03AF802BBF8
:105790009345F6D10CF18002DFF828C092B2624442
:1057A00092F8282A46F00206002ABFD0AFE76246E8
:1057B000ACF1410CBCF1190F0CD847F00207D2B282
:1057C000B7E700BFF8E90100E4D90100F0D9010012
:1057D000A0F30100A2F1610CBCF1190F9CBF203AAB
:1057E00047F00107D2B2A4E79EF80030E52B7FF422
:1057F0004BAF05238EF80030D4F818C044E746F0CC
:10580000020693E72DE9F843046815462378303BF8
:10581000092B03D862783A2A00F09D8000230B60A0
:105820008A4ED6F8944F002C00F0A7800C602378A5
:10583000002B40F0888000232380FDF7EDFA10F064
:10584000010740F0978015B1430700F19980617816
:1058500000297DD14FF4805320466381FDF730FE4F
:10586000012800F08180032872D000287FD161894F
:10587000B4F83B308B427AD1B4F84620002A00F0CD
:10588000818094F84030E261581E0128E3706ED8A0
:1058900094F83D00A070002869D0451E054266D1ED
:1058A000B4F841E04D09BEFBF5FC05FB1CE5ADB2CB
:1058B000A4F808E0002D5AD1B4F8435005B9256D7D
:1058C000B4F83E80B8F1000F51D002FB03F3C4449A
:1058D0009C4465454BD3A5EB0C058542B5FBF0F91F
:1058E00045D308EB070540F6F578C14507EB0C00FA
:1058F00009F1020C4FD94FF6F578C145A0625AD88C
:10590000C4F818C02562BEF1000F30D002202B442D
:105910004FEA4C0C63624B1E6344B3FBF1F39A42B3
:1059200025D300234FF0FF32C4E903320022B6F83A
:10593000C43F207001339BB2A6F8C43FE380E2620B
:105940002271002005E06378002B7FF474AFF8E744
:105950000120BDE8F8830022023404600A60002BB5
:105960003FF45EAF0B20F4E794F8F23163B90D20F9
:10597000BDE8F8830320BDE8F8830C20BDE8F88378
:105980000A20E6E7626D7CE7D4F8F67120463946D6
:10599000FDF796FD67E7A062C4F818C02562BEF166
:1059A000000FE4D00CEB4C000CF0010C0CEB500C95
:1059B0002B440120AEE72562C4F818C0BEF1000FE9
:1059C000D5D14B1E03EB8C03B3FBF1F3E16D934296
:1059D0006162CCD84FF0FF31B4F8603062783B445C
:1059E000C4E90413C4F80CE084F805E00AB103200C
:1059F0009CE7C3F34E101D03FDF744FDC5F31005EE
:105A000045EA4045284604F1300108F079FF04F5E5
:105A1000036105F5006008F073FF4AF65523B4F8FA
:105A20002E229A42E3D10A4B226B9A42DFD103F134
:105A3000FF53D4F8142203F5005320339A4204BFD5
:105A4000D4E98623C4E90332D1E700BFE807001098
:105A5000525261412DE9F04300230446A5B0019163
:105A6000164601A806A9236002F01E02FFF7CAFE2F
:105A7000054618B1284625B0BDE8F08303AB0C936A
:105A800001990FAB06A80D93FFF72AFD0B9F06F0B7
:105A90001C03002836D1002F6ED0FA7A002B39D0A3
:105AA00012F0110F5BD13207069B3ED50022334B1B
:105AB000FA72C7F80E30069BFA611A78B7F81A80A6
:105AC000032A08BFBA8A4FF0010108BF48EA02481A
:105AD00000227A83BA821971B8F1000F23D01846D8
