:1000000000000110E5000000510100005301000054
:1000100055010000570100005901000000000000D8
:100020000000000000000000000000005B01000074
:100030005D010000000000005F010000211B0000C6
:100040006301000063010000630100006301000020
:10005000630100006301000063010000BDB2000005
:100060006301000063010000630100006301000000
:1000700063010000630100006301000063010000F0
:1000800063010000630100006301000063010000E0
:1000900063010000630100006301000063010000D0
:1000A0000D2C0000630100005DBC00006301000036
:1000B000FD330000630100006301000063010000E4
:1000C00063010000630100006301000063010000A0
:1000D0006301000063010000630100006301000090
:1000E000630100001149124A124B9A4205D0086878
:1000F0001060043104329A42F9D300200E490F4AAD
:10010000914204D0914202D208600431FAD30C48E3
:100110000C49884206D00268043003B4FE46974674
:1001200003BCF6E70848804708480047B83D02008E
:1001300000000010E8070010E8070010C09A001047
:100140009C3D02009C3D0200011700002D6A00004A
:10015000FEE7FEE7FEE7FEE7FEE7FEE7FEE7FEE777
:10016000FEE7FEE72DE9F04390F847C083B0BCF10D
:10017000040F04460D4616461F469DF8288022D0DF
:1001800002294ED003292ED0012941D00025D4F8D0
:100190003890B9F1000F06D03B463246294620463A
:1001A000CDF80080C847D4F83CE0BEF1000F17D06E
:1001B0003B46324629462046F446CDF8288003B017
:1001C000BDE8F0436047D0F83490B9F1000FDED0BD
:1001D000CDF80080C847D4F83CE0BEF1000FE7D16D
:1001E00003B0BDE8F08302F0F003B02B63D031D848
:1001F000902B5AD0A02B25D1D0F81090B9F1000F38
:10020000C5D043463A46204606F00F01C847CAE724
:10021000F72A2FD9C36A002BB9D031462046984718
:10022000C1E702F0F003D02B28D0F02B2AD0C02B4E
:10023000ADD1C369002BAAD03A46204606F00F0183
:100240009847B0E7802BA2D1D0F80C90B9F1000FFD
:10025000D7D19CE7E02B22D0F02B98D1F22A96D16F
:10026000D0F81890B9F1000F91D043463A46314684
:10027000C84798E7F62A8AD1036BCCE7036A002BBC
:10028000DAD184E7F32A1CD0F12A80D1836A002BCB
:100290003FF47DAF3A4631462046984783E7D0F891
:1002A0001490B9F1000FACD171E7D0F80890B9F112
:1002B000000FA6D16BE7D0F80490B9F1000FA0D1E0
:1002C00065E7436A002BE5D161E700BF034A137D70
:1002D0005B06FCD5C3B21370704700BF00C000407E
:1002E0004FF0010CF0B4446803780CFA04F40029D0
:1002F00000F0B080052B40F2CE8000BF00BF00BFF1
:1003000000BF00BF00BF00BF00BF00BF00BF00BFF5
:1003100000BF00BF00BF00BF00BF00BF00BF00BFE5
:1003200000BF00BF00BF00BF00BF00BF00BF00BFD5
:1003300000BF00BF00BF00BF00BF00BF00BF00BFC5
:1003400000BF00BF00BF00BF00BF00BF00BF00BFB5
:1003500000BF00BF00BF00BF00BF00BF00BF00BFA5
:1003600000BF00BF00BF00BF00BF00BF00BF00BF95
:1003700000BF0378052B23D8D0E904750121C46898
:100380005B0103F1005301FA04F403F5182301FAA9
:1003900005F5B940D70702F002069C6168D599615E
:1003A000002E68D00124816956079D6104FA01F48A
:1003B00068D501219C61C469A140140769D5996180
:1003C00000BF00BF00BF00BF00BF00BF00BF00BF35
:1003D00000BF00BF00BF00BF00BF00BF00BF00BF25
:1003E00000BF00BF00BF00BF00BF00BF00BF00BF15
:1003F00000BF00BF00BF00BF00BF00BF00BF00BF05
:1004000000BF00BF00BF00BF00BF00BF00BF00BFF4
:1004100000BF00BF00BF00BF00BF00BF00BF00BFE4
:1004200000BF00BF00BF00BF00BF00BF00BF00BFD4
:1004300000BF00BF00BF00BF0378052B08D8012212
:10044000C1685B0103F1005303F518238A40DA61A8
:10045000F0BC7047052B3FF650AF5B0103F1005332
:1004600003F51823DC6101218468A140D96144E7C8
:10047000D961002E96D101248169DD61550704FA06
:1004800001F496D40121DC61C469120701FA04F178
:1004900095D4D96194E75B0103F1005303F5182368
:1004A0009C61E0E702780346052A2DE9F0412DD84A
:1004B000D3E90557D3E901E80120520102F10052C6
:1004C00002F51822D3F810C0146800FA0CFC24EAD4
:1004D0000C04DE69146000FA05FC156800FA07F7E1
:1004E00025EA0C051560156800FA06F625EA0705E9
:1004F0001560156800FA08F425EA060500FA0EF002
:100500001560002940F08581D061946100BF00BF73
:1005100000BF00BF00BF00BF00BF00BF00BF00BFE3
:1005200000BF00BF00BF00BF00BF00BF00BF00BFD3
:1005300000BF00BF00BF00BF00BF00BF00BF00BFC3
:1005400000BF00BF00BF00BF00BF00BF00BF00BFB3
:1005500000BF00BF00BF00BF00BF00BF00BF00BFA3
:1005600000BF00BF00BF00BF00BF00BF00BF00BF93
:1005700000BF00BF00BF00BF00BF00BF00BF00BF83
:1005800000BF00BF1A78052A08D80121D868520197
:1005900002F1005202F518228140916100BF00BFB4
:1005A00000BF00BF00BF00BF00BF00BF00BF00BF53
:1005B00000BF00BF00BF00BF00BF00BF00BF00BF43
:1005C00000BF00BF00BF00BF00BF00BF00BF00BF33
:1005D00000BF00BF00BF00BF00BF00BF00BF00BF23
:1005E00000BF00BF00BF00BF00BF00BF00BF00BF13
:1005F00000BF00BF00BF00BF00BF00BF00BF00BF03
:1006000000BF00BF00BF00BF00BF00BF00BF00BFF2
:1006100000BF00BF1978052900F2F9804A0102F1F4
:10062000005202F5182256690120D3E906755C696B
:10063000D3F810C000FA04F23240224100FA0CF460
:10064000344044FA0CF4520142EA041200FA07F46E
:1006500034403C4142EA841200FA05F434402C4113
:10066000052942EAC41207D8DC68490101F10051AA
:1006700001F51821A040C86100BF00BF00BF00BF46
:1006800000BF00BF00BF00BF00BF00BF00BF00BF72
:1006900000BF00BF00BF00BF00BF00BF00BF00BF62
:1006A00000BF00BF00BF00BF00BF00BF00BF00BF52
:1006B00000BF00BF00BF00BF00BF00BF00BF00BF42
:1006C00000BF00BF00BF00BF00BF00BF00BF00BF32
:1006D00000BF00BF00BF00BF00BF00BF00BF00BF22
:1006E00000BF00BF00BF00BF00BF00BF00BF00BF12
:1006F0001978052908D80120DC68490101F1005169
:1007000001F51821A040886100BF00BF00BF00BFF5
:1007100000BF00BF00BF00BF00BF00BF00BF00BFE1
:1007200000BF00BF00BF00BF00BF00BF00BF00BFD1
:1007300000BF00BF00BF00BF00BF00BF00BF00BFC1
:1007400000BF00BF00BF00BF00BF00BF00BF00BFB1
:1007500000BF00BF00BF00BF00BF00BF00BF00BFA1
:1007600000BF00BF00BF00BF00BF00BF00BF00BF91
:1007700000BF00BF00BF00BF00BF00BF00BF00BF81
:100780001978052941D8480100F1005000F51820DA
:1007900044694FF0010ED3E905871E69DD690EFA41
:1007A00006FC0CEA0400304110430EFA08F202EA9B
:1007B000040646FA08F640EA46000EFA07F606EA8C
:1007C000040848FA07F740EA87000EFA05F73C40AC
:1007D0002C41052940EAC40015D8DC684B0103F11F
:1007E000005303F518230EFA04F4DC6119684CEA8F
:1007F0000101196019680A431A601A6816431E60DD
:100800001A6817431F60BDE8F0810024C1E7002685
:100810000AE7906179E600BF704700BFF0B5037842
:1008200003F01F03012B05D0022B12D0002B46D062
:100830000020F0BD447812680A2C00F04C810B2C8B
:1008400000F04D81002CF3D1022314800B600120B5
:10085000F0BD43781468012B00F0F280032B00F008
:100860001581002BE4D130250379AF4A580000F000
:100870001E0040EAD310000440F4A063C2F80852FE
:10088000C2F81032D2F80032DE06FBD5102540F453
:100890000073A548C2F80852C2F81032D0F80032EE
:1008A0009D06FBD5202300250222C0F80832D0F88F
:1008B00014326570C3F3400323700A60C7E74378BE
:1008C0001468092BB4D801A555F823F0FF090000DE
:1008D0003108000031080000310800003108000034
:1008E000BF090000090A000031080000B309000038
:1008F000F50800008078002800F020818B4E3368D6
:100900001978002900F0F480FF252C4607E0022A20
:1009100000F0EC800B441978002900F0E9805A7847
:10092000042A00F0E180052AF1D18442F2D1002DA1
:10093000F0D1012293F802E07B490EFA02FC0CF0A0
:100940001E0CD1F844724CEADE1C02FA0CF2B3F829
:1009500004E03A43C1F84422C1F848C2C1F84CE26D
:10096000D1F80022D205FBD54FF48077C1F8087288
:1009700030274FEA0C4242F4800242F4A062C1F8F0
:100980000872C1F810226849D1F80022D706FBD5B9
:100990001022C1F808224FF48072C1F81022624977
:1009A000D1F80022D206FBD51022C1F8082219780E
:1009B000B0E701235D4A127922700B6047E73024CB
:1009C0008378594A5A48C2F8084243F08001C2F875
:1009D0001002D2F80032DF06FBD5102001FA00F336
:1009E00043F480735049C2F80802C2F81032D1F8BB
:1009F0000032DE06FBD51023C1F8083227E70022BB
:100A0000022322800B6022E7484B45881B682E0A90
:100A100018783446EDB200283FF40BAF4FF0000ECB
:100A200004E00344187800283FF403AF93F801C0B2
:100A3000A445F6D1AE4500F09E800EF1010EF0E720
:100A40004388002B7FF4F4AE30240179364A4B0002
:100A500003F01E0343EAD1131B0443F4800343F461
:100A6000A063C2F80842C2F81032D2F80032DC06A5
:100A7000FBD510204FF480732B49C2F80802C2F84E
:100A80001032D1F80032D806FBD5B4E74388002BEA
:100A90007FF4CEAE30240179234A4B0003F01E03CD
:100AA00043EAD1131B0443F4800343F4A063C2F868
:100AB0000842C2F81032D2F80032D906FBD5102015
:100AC0001C4B1949C2F80802C2F81032D1F80032A2
:100AD000DB06FBD58FE7002010700B60B7E643887C
:100AE000002B3FF4B3AEA3E6DD7813E75C7911E7A2
:100AF00030210D4A104BC2F80812C2F81032D2F859
:100B00000032DB06FBD510240A4B0749C2F8084225
:100B1000C2F81032D1F80032DF06FBD51023C1F83D
:100B20000832307193E600BF00C00820E8070010CB
:100B30000005D000000101000005D8003021114A55
:100B4000114BC2F80812C2F81032D2F80032DD069A
:100B5000FBD510244FF480730A49C2F80842C2F84A
:100B60001032D1F80032DC06FBD51023074EC1F855
:100B7000083230716BE61360022E0CBF5B881B7865
:100B80000B6064E600C008200005D800E8070010EC
:100B9000830030B44FEA400C374C03F03C030CF0B8
:100BA0001E0C43F001034CEAD01CC4F82832D4F8E0
:100BB00020020505FBD543055BD5C0F3090000B352
:100BC00000294BD0002A40DD00248242A8BF024603
:100BD0002346294D013913F0030F38D1D5F81842B7
:100BE0000133934201F8014F36DB984209D9224A7A
:100BF00013F0030F03F1010308BFD2F81812984253
:100C0000F6D8002430211C4A4FEA0C4C4CF4A06367
:100C1000C2F82842C2F80812C2F81032D2F80032E4
:100C2000D906FBD510253024144B1349C2F80852BD
:100C3000C2F80842C2F81032D1F80032DB06FBD508
:100C40001023C1F8083230BC70470023CFE70133CE
:100C5000934201F8014FC8DA240ABCE7064B11F0B1
:100C6000030F01F1010108BFD3F818228142F6D128
:100C7000C7E74FF0FF30E6E700C008200005F200AC
:100C8000F8B5404BD3F80042E10721D501223E4997
:100C90008968C3F80822D9B130203C4AC3F8080259
:100CA000C3F81022D3F80022D206FBD5102538480D
:100CB000344AC3F80852C3F81002D2F800329F0633
:100CC000FBD52023C2F80832D2F81402C0B28847FC
:100CD000260720D5082030212A4A2E4BC2F80802C8
:100CE000C2F80812C2F81032D2F80032DD06FBD585
:100CF0001020294B2349C2F80802C2F81032D1F85B
:100D000000329806FBD52023C1F80832D1F814022E
:100D100010F01A0F2DD162072AD50423194D002493
:100D20000127194EC5F8083202E00134202C1FD0EB
:100D3000D5F8302207FA04F31A42F6D0C5F8383253
:100D4000D5F800329B06FBD52022601006EB80030D
:100D50001B69C5F80822D5F81412002BE5D040EA2B
:100D6000C41001F01F01C0B201349847202CDFD11C
:100D7000F8BD054BDB68002BCDD000F0150098477F
:100D8000C9E700BF00C00820E80700100005F50013
:100D90000002F5000005FE000002FE00204870B4CD
:100DA000D0E91445402C26464FF00202A8BF402649
:100DB0001C4BC3F82822C3F82462D3F828229207D8
:100DC00048BF2A4607D552F8041BC3F81C12D3F8B3
:100DD00028128907F7D40023124AC2F82832302398
:100DE000C2F80832104BC2F81032D2F80032D906DD
:100DF000FBD51023C2F808323023C2F808320B4B5F
:100E0000C2F81032074AD2F80032DB06FBD51023B5
:100E10003544A41BC0E9144570BCC2F808327047C1
:100E2000E807001000C00820000501000005FA00D6
:100E300038B500283ED14D07694C40D4256D002DB2
:100E400073DD2A46616DFFF7A3FE0028C0F2B08073
:100E5000636D2D1A0344C4E9145355BB94F85830FC
:100E6000C3F3411304EB83031A6E5B6F62653BB1FE
:100E700004F1540204F1700104F158009847D8B904
:100E80003021584A584BC2F80812C2F81032D2F832
:100E90000032DB06FBD51020544B5249C2F8080241
:100EA000C2F81032D1F80032DD06FBD51023C1F8AC
:100EB000083238BD8028FCD1BDE838406EE70822F2
:100EC00004F15801FFF764FE94F85810B4F85E205E
:100ED000C1F3411304EB8300006E9B00C4E91420AE
:100EE00022670AB1C909E4D023445B6F33B1404A99
:100EF00002F11C01101D984700284FD13021394ABA
:100F0000394BC2F80812C2F81032D2F80032DC06AF
:100F1000FBD51020354B3349C2F80802C2F8103215
:100F2000D1F80032D806FBD5C0E701232D4AC2F81C
:100F30002832D2F820321C05FBD55805B9D5C3F3A9
:100F4000090252B10023274913F0030F03F10103F3
:100F500008BFD1F818029342F6D1002030214FF497
:100F6000A063204AC2F82802C2F80812C2F8103260
:100F7000D2F80032D906FBD5102430201D4B194978
:100F8000C2F80842C2F80802C2F81032D1F80032A2
:100F9000DB06FBD51023C1F808328AE7B4F85E30CF
:100FA000226F9342A8BF13462365BDE83840F5E69B
:100FB00030210C4A0C4BC2F80812C2F81032D2F899
:100FC0000032D906FBD51020084B0649C2F80802AA
:100FD000C2F81032D1F80032DA06FBD566E700BF5E
:100FE000E807001000C008200005410000010100D2
:100FF0003C0800100005F2001D4B93F99020002AD8
:1010000002DBD3F88C30CBB930211A4A1A4BC2F824
:101010000812C2F81032D2F80032DB06FBD51020DD
:10102000164B1449C2F80802C2F81032D1F8003247
:10103000D806FBD51023C1F80832704730210D4A7D
:101040000F4BC2F80812C2F81032D2F80032D9069B
:10105000FBD51020094B0749C2F80802C2F810322C
:10106000D1F80032DB06FBD51023C1F808327047F7
:10107000E807001000C0082000054B000001010037
:101080000005440070B58E465B4B86B006AC1EF082
:10109000020F84460FCB04E90F0001D006B070BDEB
:1010A000042260460DEB0201FFF772FD0428F5D122
:1010B0009DF8043003F00F0318336B4413F8100C41
:1010C0000028EBD04D4B9DF805C093F8C512EFF307
:1010D00012844FF0100E8EF3118893F8C6524A1CFA
:1010E000B2FBF5F605FB162293F8C452954275D073
:1010F000D3F8C82202F801C093F8C52293F8C612AB
:101100000132B2FBF1FC01FB1C2283F8C52284F3FF
:1011100011880128C2D09DF806C0EFF312848EF327
:101120001188551CB5FBF1F601FB165593F8C41256
:101130008D425AD0D3F8C81201F802C093F8C522E4
:1011400093F8C6120132B2FBF1FC01FB1C2283F8BA
:10115000C52284F311880228A0D09DF807C0EFF3C0
:1011600012848EF31188551CB5FBF1F601FB165560
:1011700093F8C4128D420ED0D3F8C81201F802C001
:1011800093F8C52293F8C6120132B2FBF1FC01FBC1
:101190001C2283F8C52284F31188032818BF032377
:1011A0003FF47CAFEFF31281102282F3118881F3B8
:1011B0001188591C88427FF671AFEFF3128182F3D8
:1011C000118881F31188023398427FF667AFEFF3FD
:1011D000128382F3118883F311885FE784F3118807
:1011E000012818BF0123DDD158E784F311880228B4
:1011F00018BF0223D6D151E788F40100E807001098
:1012000083887BB910B444884CB94378FE2B13D043
:10121000FF2B01D1C3883BB1204610BC7047184654
:1012200010BC704700207047064A82F8CC32C2F8E2
:10123000D032012010BC70470123126814700B607B
:10124000F7E700BFE8070010054B184490F810318D
:10125000027C1B0490F8100243EA022318437047F3
:1012600088F4010070B540F2E73405460E460DE003
:1012700000BF00BF00BF00BF00BF00BF00BF00BF76
:1012800000BF00BF00BF00BF013C11D000212846B5
:10129000FFF708F90306EBD4321100212846FFF7C7
:1012A0001FF806F00F020021BDE87040FFF718B8E4
:1012B00033462046024A03490DF002FBECE700BF2B
:1012C00098F70100B0E201000121CBE70221C9E754
:1012D00001F0030141F00401C4E700BF01F0070180
:1012E00041F00801BEE700BF01F00C0141F0100120
:1012F000B8E700BFC9B241F08001B3E770B540F272
:10130000E73405460E460DE000BF00BF00BF00BF3A
:1013100000BF00BF00BF00BF00BF00BF00BF00BFD5
:10132000013C11D000212846FFF7BCF80306EBD49E
:10133000321101212846FEF7D3FF06F00F020121EA
:10134000BDE87040FEF7CCBF33462046024A034951
:101350000DF0B6FAECE700BFA0F70100B0E2010023
:1013600038B50C46097839B105462846FFF7C6FF5F
:1013700014F8011F0029F8D138BD00BF40222D4BC1
:1013800010B4DA6100BF00BF00BF00BF00BF00BFE4
:101390002949CB68DC07FCD54B23274A8B60D368EF
:1013A0005907FCD593682449CB68DA07FCD500239C
:1013B000214A8B60D3685B07FCD593681E49CB68D4
:1013C000DC07FCD500231C4A8B60D3685907FCD589
:1013D00093681949CB68DA07FCD50023164A8B605D
:1013E000D3685B07FCD593681349CB68DC07FCD551
:1013F0000023114A8B60D3685907FCD500249368F9
:101400000D4B411E0F30DA68D207FCD59C60DA68BC
:101410005207FCD59A6801F8012F8142F3D100BF31
:1014200000BF00BF00BF00BF00BF4022014B10BC87
:101430009A617047008009200000034003782DE97D
:10144000F041052B054633D8D0E90276D5E906EC04
:1014500001225B0103F1005303F518234168D3F81F
:10146000008002FA01F141EA0801D0E90440196064
:1014700002FA07F702FA06F602FA04F402FA00F09A
:1014800002FA0EF102FA0CF2D3F800C047EA0C0798
:101490001F601F683E431E601E6834431C601C684A
:1014A0002043186018680143196019680A431A60DC
:1014B000002103222846FEF713FF41F2040100BF7A
:1014C00000BF00BF00BF00BF00BF00BF00BF00BF24
:1014D00000BF00BF00BF00BF00BF00BF00BF00BF14
:1014E00000BF00BF00BF00BF00BF00BF00BF00BF04
:1014F00000BF00BF00BF00BF00BF00BF00BF00BFF4
:1015000000BF00BF00BF00BF00BF00BF00BF00BFE3
:1015100000BF00BF00BF00BF00BF00BF00BF00BFD3
:1015200000BF00BF00BF00BF00BF00BF00BF00BFC3
:1015300000BF00BF00BF00BF00BF00BF00BF00BFB3
:1015400000BF00BF00BF00BF00BF00BF00BF00BFA3
:1015500000BF00BF00BF00BF00BF00BF00BF00BF93
:1015600000BF00BF00BF00BF00BF00BF00BF00BF83
:1015700000BF00BF00BF00BF00BF00BF00BF00BF73
:1015800000BF00BF00BF00BF00BF00BF00BF00BF63
:1015900000BF00BF00BF00BF00BF00BF00BF00BF53
:1015A00000BF00BF00BF00BF00BF00BF00BF0139C8
:1015B00085D103222846FEF793FE642400BF00BFB6
:1015C00000BF00BF00BF00BF00BF00BF00BF00BF23
:1015D00000BF00BF00BF00BF00BF00BF00BF00BF13
:1015E00000BF00BF00BF00BF00BF00BF00BF00BF03
:1015F00000BF00BF00BF00BF00BF00BF00BF00BFF3
:1016000000BF00BF00BF00BF00BF00BF00BF00BFE2
:1016100000BF00BF00BF00BF00BF00BF00BF00BFD2
:1016200000BF00BF00BF00BF00BF00BF00BF00BFC2
:1016300000BF00BF00BF00BF00BF00BF00BF00BFB2
:1016400000BF00BF00BF00BF00BF00BF00BF00BFA2
:1016500000BF00BF00BF00BF00BF00BF00BF00BF92
:1016600000BF00BF00BF00BF00BF00BF00BF00BF82
:1016700000BF00BF00BF00BF00BF00BF00BF00BF72
:1016800000BF00BF00BF00BF00BF00BF00BF00BF62
:1016900000BF00BF00BF00BF00BF00BF00BF00BF52
:1016A00000BF00BF00BF00BF00BF00BF013C85D12D
:1016B000214628460322FEF713FE0CF017FF0222F4
:1016C00021462846FEF70CFE0CF010FF2B6A284638
:1016D00003F00101C9009B0748BF41F0040141F03C
:1016E0002001FFF7BFFD28460821FFF7BBFD284674
:1016F0000121FFF7B7FD2846BDE8F0410621B1E51D
:101700002123274AF0B4C2F8A031D2F8A0315C06F8
:10171000FBD501230925AA2455202149C2F80C3103
:10172000C2F88450C2F88030C2F88C40C2F88C00F5
:10173000D1F888305805FBD523250124AA2055224D
:10174000174BC1F8A450C1F8A040C1F8AC00C1F8D3
:10175000AC20D3F8A8205205FBD5012240F2012786
:101760004FF4807540F2011C45F23A0400200D4E02
:10177000C3F804C1C3F80871C3F80021C3F8A82155
:10178000C3F8C460C3F8C851D3F8B021064942F089
:101790000302C3F8B0211C608860F0BC704700BF32
:1017A00000C00F400E84F00300ED00E00EB42DE900
:1017B000F04F814686B00FABBA4F53F8045B4FEA47
:1017C0008008029307EB80062C78252C12D0002C81
:1017D00000F058810A2C03D10D20D6F8D432984756
:1017E00007EB08032046D3F8D432013598472C780C
:1017F000252CECD16C7804F0EF03202B00F0348121
:1018000000229246023504F0DF034C2B00F0B78033
:10181000A4F14303352B3BD8DFE813F03600460034
:101820003A003A003A003A0046003A003A003A00DC
:101830003A003A003A003A003A003A0094003A007E
:101840008E003A003A0052013A003A003A003A005B
:101850003A003A003A003A003A003A0036004600B0
:101860003A003A003A003A0046003A003A003A009C
:101870003A003A003A003A003A003A0094003A003E
:101880008E003A003A005201029B1A1D1C78029207
:101890000A2C00F0FC80BB46C2460BEB0A03204634
:1018A000D3F8D43298478FE7029B1C68191D002C8F
:1018B0000291C0F2F98020460A2100230DF117049D
:1018C0008DF8173000E07046B0FBF1FE01FB1E0CF6
:1018D0005FFA8CFC0CF13003DBB2392B84BF0CF1C6
:1018E000370C5FFA8CF302F1FF3B04F8013D0AB1BB
:1018F0005FFA8BF28842E6D2002A00F0E38053427E
:1019000063F0FF031C445146204610F017FEBAF165
:10191000000F3FF459AFBAF10A0F03D10D20D6F8EA
:10192000D43298475046D6F8D432984714F801AFCD
:10193000BAF1000FEFD147E70A21029B181D029070
:101940001868BAE7029BD3F800A004339AF8004065
:101950000293002C3FF438AFDFF848B10BEB890B52
:101960000A2C03D10D20DBF8D43298472046DBF84F
:10197000D43298471AF8014F002CF1D124E715F81A
:10198000014BA4F14303352B82D801A151F823F078
:1019900089180000A9180000911800009118000093
:1019A0009118000091180000A9180000911800007B
:1019B0009118000091180000911800009118000083
:1019C0009118000091180000911800009118000073
:1019D0004519000091180000391900009118000005
:1019E00091180000C11A0000911800009118000021
:1019F0009118000091180000911800009118000043
:101A00009118000091180000911800009118000032
:101A100089180000A9180000911800009118000012
:101A20009118000091180000A918000091180000FA
:101A30009118000091180000911800009118000002
:101A400091180000911800009118000091180000F2
:101A50004519000091180000391900009118000084
:101A600091180000C11A0000AB78A246A3F1300221
:101A7000D2B2092A03D91C4600220335C3E6EC780A
:101A80000435C0E606B0BDE8F04F03B07047DFF89C
:101A900014B00D200BEB8903D3F8D4324FEA890A36
:101AA0009847FAE6E8070010DFF81CB02D200BEB92
:101AB000890BDBF8D432019264429847019AFAE626
:101AC00010213AE79A4626E7E80700100020704701
:101AD0001846704700207047002070474FF40053AD
:101AE00000205360704700BF01207047FEE700BF31
:101AF0004FF0FF30704700BF4FF0FF30704700BF1E
:101B0000054B064AD3F8E402002808BF10460144FA
:101B1000C3F8E412704700BFE8070010C09A001035
:101B200041F26F702DE9F04FB24C83B0B4F9B62B8F
:101B3000B4F86013B4F8623302FB01F1B4F81C236B
:101B400002EB2142B4F9D21B01FB03F302EB234267
:101B500082F31002824240F32A836E25A649A2F541
:101B6000BB53103B05FB0311A448A0FB0101490B2B
:101B7000B4F9203CB4F80E0303F5004300FB03F373
:101B800082F31002DB0B01FB03F39D4E1B0A83F370
:101B90001003C3F30B1343F48053A6F80233B4F9D4
:101BA000223CB4F8145303F5004305FB03F300256E
:101BB000DB0B01FB03F3B4F9300C1B0A83F31003B6
:101BC000C3F30B13A6F80033B4F8563300F5004006
:101BD00000FB03F3DB0B01FB03F31B0A83F310038E
:101BE000C3F30721FF2908BF4FF4FF70A846C2F3D3
:101BF0004B1218BF481C42F4804218BFC0B2A6F86E
:101C00001823804A18BF400002EB41011044B1F88C
:101C10002423B0F82413DBB2891A01FB03F302EB8F
:101C20001322C2F30B12DFF8E0B1A6F81023DBF8A1
:101C300040300BB158469847EFF31282102383F3DC
:101C400011889BF80D919BF80C3199453CBF9BF88E
:101C50000E118944A9EB03095FFA89F982F311880F
:101C6000B9F1000F00F0BD804FF48A72002602FB2C
:101C7000084721E00023012158468BF847100093C4
:101C8000FEF770FA9BF80C318BF84750EFF3128196
:101C9000102282F311889BF80E210133B3FBF2F07E
:101CA00002FB1033DBB28BF80C3181F31188013663
:101CB000B2B2914540F295809BF80C219BF80E0141
:101CC000DBF81011B2FBF0FC00FB1C228A5C9BF8D5
:101CD0004750F72ACED8110617D5042D04D001237A
:101CE0008BF84420ABF8483002F0F003D02B06D03C
:101CF0004FD8B02B47D03FD9C02B40F08A85022364
:101D00008BF847309BF80C31C0E7002DBED0BBF8F4
:101D100048303E49A1FB031A4FEA5A0A0AEB4A0A25
:101D2000A3EB0A0A1FFA8AFA013399B2BAF1010F3A
:101D300007EB0A0383F8E820ABF8481016D0BAF195
:101D4000020F16D19BF84630584600939BF8453059
:101D50009BF84420FEF706FA9BF84730042B08D086
:101D60000123ABF848309BF80C318FE7022D00F0CF
:101D700064859BF80C3189E702F0E002802A02D0EA
:101D8000A02B40F0468503238BF847309BF80C319D
:101D90007CE7E02BF7D0F02B40F03B85A2F1F1037C
:101DA000052B00F2E58301A151F823F0FF1C000090
:101DB000871D0000FF1C0000712500007125000038
:101DC000C51D0000002501212B460095F62258462E
:101DD0008BF84710FEF7C6F99BF80C318BF847508B
:101DE00054E70BF58A7BB8F1000F11D14FF00108D1
:101DF0001DE700BFE8070010E2FF1D001F85EB5143
:101E00000000002088F401008C080010ABAAAAAAE8
:101E100094F8EA324546042B00F0528494F8F632E6
:101E2000042B00F04D84CC4B94F8407D5E6FD4F8C9
:101E3000443D002F40F0BD8194F8F922002A00F0C3
:101E40001583710100F10C855A0100F1478673403A
:101E50005B0100F11B8594F96C3C94F8BB29C4F834
:101E6000446D002B40F0C4811AB384F8B739C4F82C
:101E7000943984F8BB39C4F8AE39C4F8B239C4F81F
:101E8000903984F8AF38C4F88C3884F8B338C4F883
:101E9000A638C4F8AA38C4F8883884F8BF3AC4F819
:101EA0009C3A84F8C33AC4F8B63AC4F8BA3AC4F8CB
:101EB000983A94F9783C94F8E729002B40F0AA81ED
:101EC0001AB384F8E339C4F8C03984F8E739C4F8A0
:101ED000DA39C4F8DE39C4F8BC3984F8DB38C4F820
:101EE000B83884F8DF38C4F8D238C4F8D638C4F823
:101EF000B43884F8EB3AC4F8C83A84F8EF3AC4F836
:101F0000E23AC4F8E63AC4F8C43A94F9843C94F846
:101F1000132A002B40F090811AB384F80F3AC4F8CA
:101F2000EC3984F8133AC4F8063AC4F80A3AC4F80B
:101F3000E83984F80739C4F8E43884F80B39C4F870
:101F4000FE38C4F80239C4F8E03884F8173BC4F806
:101F5000F43A84F81B3BC4F80E3BC4F8123BC4F8B7
:101F6000F03A94F9903C94F83F2A002B40F07681A7
:101F70001AB384F83B3AC4F8183A84F83F3AC4F8E4
:101F8000323AC4F8363AC4F8143A84F83339C4F80B
:101F9000103984F83739C4F82A39C4F82E39C4F80E
:101FA0000C3984F8433BC4F8203B84F8473BC4F821
:101FB0003A3BC4F83E3BC4F81C3B94F99C3C94F873
:101FC0006B2A002B40F05C811AB384F8673AC4F89E
:101FD000443A84F86B3AC4F85E3AC4F8623AC4F8FA
:101FE000403A84F85F39C4F83C3984F86339C4F85E
:101FF0005639C4F85A39C4F8383984F86F3BC4F8F4
:102000004C3B84F8733BC4F8663BC4F86A3BC4F8A5
:10201000483B94F9A83C94F8972A002B40F0428161
:102020001AB384F8933AC4F8703A84F8973AC4F82B
:102030008A3AC4F88E3AC4F86C3A84F88B39C4F8FA
:10204000683984F88F39C4F88239C4F88639C4F8FD
:10205000643984F89B3BC4F8783B84F89F3BC4F810
:10206000923BC4F8963BC4F8743B94F9AD2D94F8B8
:10207000503C002A00F02881002B00F02F81013B0A
:1020800084F8503C4FF6FF73B4F8BA2D9A4200F032
:102090002581B4F8B83D01339BB29A4200F2948294
:1020A000002794F8BC3D94F8442EA4F8B87D13435F
:1020B00000F09282294E3378022B40F0F08296F89D
:1020C0008120002A00F0EB82B6F9823007EB071876
:1020D00004EBC808434493F8BD9D4FEA071AB9F1D1
:1020E0007E0F34D0B6F98430002B25DB434493F8BF
:1020F000BD1D1AE0002396F887001A460844C0B2B6
:10210000194607F01BFEB6F9843096F8812001339A
:1021100093FBF2F102FB1133A6F88430434493F8A9
:10212000BD1D93F9BD3D002B06DA01F07F0303F1DD
:102130000C017E3B012BDDD8B9F17F0F07D0B6F83B
:102140008230A6F8843094F9CC3E86F887300AEBCA
:10215000070804EBC80814E000800920A41500104B
:10216000B6F98230013393FBF2F102FB1133A6F88A
:102170008230434493F9BD1D93F8BD9D002980F240
:102180008E8209F07F0303F10C017E3B012BE7D91E
:1021900094F8CC0E002308444FF400420121C0B251
:1021A00007F0CCFDB6F9823096F88120DAE74C21B1
:1021B000DEE4734059017FF54EAE06F08063002BDC
:1021C0000CBF4FF001084FF0000804D094F93F3DD8
:1021D000002B40F0908494F96C3C94F8BB2984F86F
:1021E000407D84F83F8DC4F8446D002B3FF43CAE35
:1021F000002A7FF45EAE4FF6FF73A4F86A3C94F9B0
:10220000783C84F86C2C84F86E2C94F8E729002B29
:102210003FF456AE002A7FF478AE4FF6FF73A4F871
:10222000763C94F9843C84F8782C84F87A2C94F8E1
:10223000132A002B3FF470AE002A7FF492AE4FF6C3
:10224000FF73A4F8823C94F9903C84F8842C84F8C1
:10225000862C94F83F2A002B3FF48AAE002A7FF4A4
:10226000ACAE4FF6FF73A4F88E3C94F99C3C84F816
:10227000902C84F8922C94F86B2A002B3FF4A4AE97
:10228000002A7FF4C6AE4FF6FF73A4F89A3C94F987
:10229000A83C84F89C2C84F89E2C94F8972A002B58
:1022A0003FF4BEAE002A7FF4E0AE4FF6FF7384F831
:1022B000A82C84F8AA2C94F9AD2DA4F8A63C94F887
:1022C000503C002A7FF4D8AE002B7FF4D8AE4FF6F6
:1022D000FF73B4F8BA2D9A427FF4DBAE94F9383C20
:1022E0003BB9D4F8D03E0133C4F8D03E03B0BDE8CA
:1022F000F08FB4F8FC2BB4F8D81BB4F8363C8A4203
:1023000040F29082521A92B29A4294BF8918C91828
:10231000A4F8D81BB4F8082CB4F8E41B8A4200F2E5
:10232000BA82C0F0D283B4F8142CB4F8F01B8A42FD
:1023300000F2DB82C0F0C083B4F8FE2BB4F8DA1BE5
:102340008A4200F2C982C0F0AE83B4F80A2CB4F815
:10235000E61B9142C0F03B8300F29C83B4F8162C3C
:10236000B4F8F21B8A4200F22983C0F08A83B4F8E1
:10237000002CB4F8DC1B9142C0F0178300F2788384
:10238000B4F80C2CB4F8E81B9142C0F0058300F2BD
:102390006683B4F8182CB4F8F41B9142C0F0F382B1
:1023A00000F25483B4F8022CB4F8DE1B9142C0F062
:1023B000E18200F24283B4F80E2CB4F8EA1B914299
:1023C000C0F0CF8200F23083B4F81A2CB4F8F61BB8
:1023D0009142C0F0BD8200F21E83B4F8042CB4F820
:1023E000E01B9142C0F06F8200F20C83B4F8102C15
:1023F000B4F8EC1B9142C0F05D8200F2FA82B4F8AE
:102400001C2CB4F8F81B9142C0F0788200F2E882EC
:10241000B4F8062CB4F8E21B8A4240F28E82521ABB
:1024200092B29A4294BF8918C918A4F8E21BB4F872
:10243000122CB4F8EE1B8A4240F27482521A92B205
:102440009A4294BF8918C918A4F8EE1BB4F81E2C40
:10245000B4F8FA1B8A4240F25A82521A92B29A4255
:1024600094BF8918C918A4F8FA1B3AE773405801B9
:102470007FF5F1AC720140F10982002294F8B33C7F
:1024800084F8B52CDB070ED594F96D3C5BB194F95B
:102490006E7C47B93B4639463846B4F8682C07F09D
:1024A0009FFA84F86D7C94F8B33C9F070ED594F99D
:1024B000793C5BB194F97A7C47B93B4601213846B7
:1024C000B4F8742C07F08CFA84F8797C94F8B33C57
:1024D00058070ED594F9853C5BB194F9867C47B9D1
:1024E0003B4602213846B4F8802C07F079FA84F88C
:1024F000857C94F8B33C19070ED594F9913C5BB1F7
:1025000094F9927C47B93B4603213846B4F88C2CA9
:1025100007F066FA84F8917C94F8B33CDA060ED59D
:1025200094F99D3C5BB194F99E7C47B93B460421EC
:102530003846B4F8982C07F053FA84F89D7C94F848
:10254000B33C9B067FF587AC94F9A93C002B3FF484
:1025500082AC94F9AA7C002F7FF47DAC3B46052128
:102560003846B4F8A42C07F03BFA84F8A97C72E44E
:10257000F02A00F09980F72A40F04B814FF48A70DE
:10258000BBF84810C84B00FB0840A3FB01535B0895
:1025900003EB4303CB1A9BB2034483F8E8209BF878
:1025A0004630013189B2ABF8481000939BF84530B2
:1025B00058469BF84420FDF7D5FD00238BF84730A3
:1025C0009BF80C31FFF762BBA4F8B83D94F9383C96
:1025D000002B3FF486AE8CE694F8400D00283FF4C3
:1025E0007DAEB24E334606F1800102E099423FF4DF
:1025F00075AE13F8012BFF2AF8D094F83C2DFF2A72
:102600000DD0002394F83E1D02F07F0008440C30EA
:10261000C0B21A46194607F091FB94F8400D022803
:1026200000F0A782032800F0938201287FF456AEC1
:10263000B4F9383DB4F93A0D01335A4202F07F0241
:1026400003F07F0358BF5342E21892F8B82CC3F14D
:102650007F01FF2A1BB2EFD08842EDD01D46A4F8BF
:10266000383D631994F83D0D93F8B83C0C3003F0F5
:102670007F0318444FF4004200230121C0B207F049
:102680005DFBB4F9383D94F83D1DE21892F8B82C82
:1026900084F83E1D84F83C2DA4F83A3D1EE68836A9
:1026A000002F99D12F4606E504238BF847300123EC
:1026B0008BF84420ABF848309BF80C31FFF7E6BAB2
:1026C000B4F82233B4F84C2CB4F92C7CB3F5004F99
:1026D0001744B4F94E0C87F31007BFB258D094F8E2
:1026E000B33C13F0010200F0C08094F96C2C002A76
:1026F00000F0BB80D4F8642CB2FA82F14909494257
:102700009E0708D594F9786C2EB1D4F8706C964277
:1027100084BF324601215E0708D594F9846C2EB13E
:10272000D4F87C6C964284BF324602211E0708D53D
:1027300094F9906C2EB1D4F8886C964284BF3246DE
:102740000321DE0640F1948094F99C6C002E00F089
:102750008F80D4F8946C964240F28A809A0640F1B9
:10276000C88194F9A83C002B00F0C381D4F8A01CC8
:102770008E422CBF042105212C2303FB0143B3F817
:10278000BC3A00FB03F31B1407EB430383F310076E
:10279000D4F8483CBB423FF446AB454B1FFA87FE9A
:1027A00003F5966633F8069CB3F85A2933F808AC5B
:1027B000A2EB09020EFB02F233F8048C33F802CCD0
:1027C000B3F85809B3F85C1909EB1249B3F85E295C
:1027D000A1EB0801A2EB0C02A0EB0A000EFB00F03B
:1027E0000EFB01F10EFB02F20AEB104008EB114860
:1027F0000CEB124CA3F8080EA3F80A9EA3F80C8E5B
:10280000A3F80ECE0833B342CCD1C4F8487CFFF70E
:102810000ABB00229BF80C318BF84720ABF848200C
:10282000FFF734BABFF476AD8A1A92B29A4294BFD7
:10283000891AC91AA4F8D81B6CE5002300939BF8E9
:10284000453058469BF84420FDF78CFC9BF84730F8
:10285000042B18BFABF848A09BF80C31FFF716BA51
:1028600073405F017FF5F7AA07E64FF0FF3147E7B6
:102870009B0608D594F9A83C2BB1D4F8A03C934210
:1028800001D9052178E74E1C82D075E7012384F831
:10289000B53CFFF7E0BA521A92B29A4294BF891837
:1028A000C918A4F8E41B3EE5ABAAAAAAA01400101C
:1028B00010800010521A92B29A4294BF8918C91817
:1028C000A4F8EC1B9BE5521A92B29A4294BF891865
:1028D000C918A4F8E01B89E5521A92B29A4294BF33
:1028E0008918C918A4F8DA1B2FE5521A92B29A4235
:1028F00094BF8918C918A4F8F01B1DE5521A92B2AA
:102900009A4294BF8918C918A4F8F81B80E5BFF44F
:10291000E8AC8A1A92B29A4294BF891AC91AA4F8EA
:10292000FA1BDEE4BFF492AD8A1A92B29A4294BFC7
:10293000891AC91AA4F8EE1B88E5BFF478AD8A1A83
:1029400092B29A4294BF891AC91AA4F8E21B6EE5A2
:10295000521A92B29A4294BF8918C918A4F8F61B69
:102960003BE5521A92B29A4294BF8918C918A4F84A
:10297000EA1B29E5521A92B29A4294BF8918C918E3
:10298000A4F8DE1B17E5521A92B29A4294BF891836
:10299000C918A4F8F41B05E5521A92B29A4294BFE2
:1029A0008918C918A4F8E81BF3E4521A92B29A42A3
:1029B00094BF8918C918A4F8DC1BE1E4521A92B23A
:1029C0009A4294BF8918C918A4F8F21BCFE4521A8E
:1029D00092B29A4294BF8918C918A4F8E61BBDE4C4
:1029E0008A1A92B29A4294BF891AC91AA4F8F81B9B
:1029F0000EE58A1A92B29A4294BF891AC91AA4F8AB
:102A0000EC1BFCE48A1A92B29A4294BF891AC91A42
:102A1000A4F8E01BEAE48A1A92B29A4294BF891A97
:102A2000C91AA4F8F61BD8E48A1A92B29A4294BF43
:102A3000891AC91AA4F8EA1BC6E48A1A92B29A4201
:102A400094BF891AC91AA4F8DE1BB4E48A1A92B298
:102A50009A4294BF891AC91AA4F8F41BA2E48A1AEC
:102A600092B29A4294BF891AC91AA4F8E81B90E45A
:102A70008A1A92B29A4294BF891AC91AA4F8DC1B26
:102A80007EE48A1A92B29A4294BF891AC91AA4F8AB
:102A9000F21B6CE48A1A92B29A4294BF891AC91A3C
:102AA000A4F8E61B5AE48A1A92B29A4294BF891A91
:102AB000C91AA4F8DA1B48E48A1A92B29A4294BF5F
:102AC000891AC91AA4F8F01B36E48A1A92B29A42FB
:102AD00094BF891AC91AA4F8E41B24E407F0A8FFDC
:102AE000474B93E80300C4F87003A4F87413FFF78E
:102AF000B2B9042140E6DFF80CE14FF0FF0C70465C
:102B00000EF1FF330EF17F0113F9012F002AB8BF38
:102B100083F800C08B42F7D10EF1800210F8013B20
:102B2000FF2B7FF458AB9042F8D194F83C3DFF2B3B
:102B30003FF451AB03F07F00002394F83E2D19467B
:102B400010440C301A46C0B207F0F8F8FFF743BB48
:102B5000B4F9383D01335A4202F07F0203F07F039B
:102B600058BF5342E21892F8B82C1BB2FF2AF1D09A
:102B700074E50025244B06F17F0013F8012F691C32
:102B8000FF2A18BFCDB28342F7D1012D2ED80022E3
:102B9000B4F9381D002923DB0D4600260DE001267F
:102BA0005B4203F07F0358BF5842231893F8B83CA8
:102BB00001B2FF2B18BF5FFA8CF2671897F8B87C48
:102BC0004B1CFF2F03F07F0002F1FF3CE7D0002AEF
:102BD000E5D1002E3FF445AD0D46A4F8381D40E583
:102BE00000231D461946A4F8383DD6E70EF0B2FF83
:102BF000013D90FBF5F303FB15020132D2B2C7E7AA
:102C000094140010A01400109F140010FEF738B8A0
:102C1000002300BF00BF00BF00BF00BF00BF00BF58
:102C200000BF00BF00BF00BF00BF00BF00BF00BFAC
:102C300000BF00BF00BF00BF00BF00BF00BF00BF9C
:102C400000BF00BF00BF00BF00BF00BF00BF00BF8C
:102C500000BF00BF00BF00BF00BF00BF00BF00BF7C
:102C600000BF00BF00BF00BF00BF00BF00BF00BF6C
:102C700000BF00BF00BF00BF00BF00BF00BF00BF5C
:102C800000BF00BF00BF00BF00BF00BF00BF00BF4C
:102C900000BF00BF00BF00BF00BF00BF00BF00BF3C
:102CA00000BF00BF00BF00BF00BF00BF00BF00BF2C
:102CB00000BF00BF00BF00BF00BF00BF00BF00BF1C
:102CC00000BF00BF00BF00BF00BF00BF00BF00BF0C
:102CD00000BF00BF00BF00BF00BF00BF00BF00BFFC
:102CE00000BF00BF00BF00BF00BF00BF00BF00BFEC
:102CF00000BF00BF00BF00BF00BF00BF00BF00BFDC
:102D000000BF0133984284D1704700BF70B5C02026
:102D100040250F2600213C4C3C4BE56100BF00BF25
:102D200000BF00BF00BF00BFDA68D207FCD59E60BD
:102D3000DA685207FCD59A68DA68D207FCD5986041
:102D4000DA685207FCD59A68DA68D207FCD5996030
:102D5000DA685207FCD59A68D2B200BF00BF00BF44
:102D600000BF00BF00BF12F0010CA561D5D112F069
:102D7000040326D112F0080000D170BD1846244982
:102D80000BF09EFDE56100BF00BF00BF00BF00BFAC
:102D900000BF1E49CB68DA07FCD5FF231B4A8B60B6
:102DA000D3685B07FCD5936800BF00BF00BF00BFBE
:102DB00000BF00BF4022144B9A61FFF7A7FF082015
:102DC00070BD604613490BF07BFDE56100BF00BF9D
:102DD00000BF00BF00BF00BF0C49CB68D807FCD5BF
:102DE000FF230A4A8B60D3685907FCD5936800BF5C
:102DF00000BF00BF00BF00BF00BF4022024B9A616E
:102E0000FFF784FF042070BD00800920000003400C
:102E1000F0E20100CCE201002DE9F04140254C4CEC
:102E20001646E5610D461C4600BF00BF00BF00BF4F
:102E300000BF00BF474AD368DF07FCD51323936068
:102E4000444AD3685907FCD59368424AC10AC70E61
:102E5000D368DB07FCD597603E4AD3685F07FCD593
:102E600093683C4AC00CD368DB07FCD5C0B29060C5
:102E7000384AD3685F07FCD59368364AD368D807C9
:102E8000FCD5C9B29160334AD3685907FCD5936821
:102E900000BF00BF00BF00BF00BF00BF4FF0400831
:102EA0002B4FC7F81880FFF731FFC7F81C8000BF11
:102EB00000BF00BF00BF00BF00BF264AD068C307E5
:102EC000FCD50321234B9160D8684707FCD5F0005F
:102ED0009B68204900F0F800CA68D607FCD51D4B56
:102EE0008860DA685207FCD59B681A49CA68D3071C
:102EF000FCD50022174B8A60DA685707FCD59B681F
:102F00001449CA68D607FCD50022124B8A60DA68D9
:102F10005007FCD50026691E89B29B680D4A601EC9
:102F20000C44D168C907FCD59660D1684B07FCD525
:102F3000936800F8013FA042F3D100BF00BF00BF7B
:102F400000BF00BF00BF4022014B9A61BDE8F08185
:102F500000800920000003402DE9F04F40260720A3
:102F60000021674D674B2A68674C32432A60DA6953
:102F7000AE6122F0070242F00202DA611A6A634D82
:102F800022F0070242F002021A625A6A8FB022F05F
:102F9000070242F002025A62D4F8C42042F480626E
:102FA000C4F8C4205A4A5B4C106051609A6922F000
:102FB00007029A612E68B4EB560F7CD3022240269A
:102FC000534BD2B218684E4CC0B21860186840EA31
:102FD000012119601A615A6842F002025A60E661E2
:102FE00000BF00BF00BF00BF00BF00BFDA68D0074E
:102FF000FCD5FF21464A9960D3685907FCD59368F0
:1030000000BF00BF00BF00BF00BF00BF40263C4C58
:10301000A661FFF77BFEE66100BF00BF00BF00BFF7
:1030200000BF00BF3A49CB68DB07FCD59F23384A75
:103030008B60D3685F07FCD593683549CB68DE07A2
:10304000FCD50023324A8B60D3685C07FCD59368BB
:103050002F49CB68D807FCD500232D4A8B60D36855
:103060005907FCD596682A4BF6B2DC6814F00104C7
:10307000FBD0002226499A60CB685A07FCD58F689E
:1030800000BF00BF00BF00BF00BF00BF4FF040093E
:10309000DFF86C80FFB23B46324600201E49C8F87C
:1030A00018900BF00DFC0B2E01D1122F36D02046BC
:1030B0000FB0BDE8F08FB4EB960F1DD202210A4687
:1030C00001FB0223B6FBF3F3A34201F101007FF6FB
:1030D00076AFB0F5807F0DD10021023201FB0223D3
:1030E000B6FBF3F3A34201F101007FF668AFB0F540
:1030F000807FF1D00146E3E7022201215FE700BFB4
:103100000080092000C0024000C00F4000000010F5
:10311000000003408096980018E30100C8F81C9056
:1031200000BF00BF00BF00BF00BF00BFAB49CB68FE
:10313000DB07FCD51F23A94A8B60D3685F07FCD54A
:103140009368A649CB68DE07FCD5A023A34A8B6011
:10315000D3685C07FCD59368A049CB68D807FCD539
:1031600000239E4A8B60D3685907FCD5936800BF43
:1031700000BF00BF00BF00BF00BF4FF400144026D7
:1031800000206A689649974B0827A3FB0253A1FBCE
:1031900002129549D20B9B0C013A8E61C4F898003B
:1031A0009249C4F8942003EB8302C3EBC300C2EB43
:1031B000C202A1FB0252C3EBC000A1FB0050C3EB53
:1031C0000313A1FB03319309800901338A091B040E
:1031D000411C013243EA01231343C4F8903002A892
:1031E000FEF7CCF806AE4FF0A05E4FF47A634FF0D6
:1031F0003E0C202231464FF08060C4F8E8EF0AAD63
:10320000C4F88430C4F88070D4F88C30013201F8EE
:10321000013B92B2D4F8E03F5B01FBD5402AC4F8F1
:10322000E80F79D18B1B102B69D1029A069B9A4229
:1032300076D04FF000096E4948460BF041FB4FF441
:1032400000144FF0805A4D46DFF8A8810AAF4FF0C6
:10325000FF0B04E02A4641460BF032FB35460122C3
:103260006E04304611460DF107038DF807B08DF856
:1032700028B0FFF7D1FD012206F500603B4611465C
:10328000FFF7CAFD9DF807009DF828306E1C184016
:10329000B6B2DFD004224FF0A05309F03F01C4F8CA
:1032A000E83FC4F88410C4F880200231C4F8885084
:1032B0004FEA9912D4F8E03F5D01FBD593014FF03E
:1032C0008062C4F8E82FC4F8E8AFC4F8843006235D
:1032D000C4F88030D4F8E03FD800FBD53F2988BF40
:1032E000002309F102091FFA89F9C4F8E8AF88BF81
:1032F000C4F88430B9F57A6F24D03546A7E70022A8
:103300000CF101031FFA83FC4FEA8C1303F47C6376
:10331000C4F88430C4F88070A9427FF475AF84E7A4
:10332000039A079B9A4284D1049A089B9A4280D1BF
:10333000059A099B9A427FF47CAF002420460FB087
:10334000BDE8F08F3846FEF719F84FF4001320223D
:103350004FF0A0513E203C464FF003084FF0806EE6
:103360004FF080554FF0060C0026C3F8E81FC3F855
:103370008420C3F8808014F8011B013292B2C3F894
:103380008810D3F8E01F4901FBD5E11B1029C3F8D1
:10339000E8EF09D03F2A07D80EA98C42E9D10020D6
:1033A00015490BF08DFAC8E78101C3F8E85FC3F84F
:1033B0008410C3F880C0D3F8E01FC900FBD53F2AB2
:1033C000C3F8E85FE8D9013080B23F280ABF002087
:1033D00000220246C3F88460DEE700BF000003401D
:1033E000819F5E1683DE1B4300800920D34D62104F
:1033F00034E3010050E3010068E301006D4AD2F8B4
:10340000E03FD2F8E41F0B4000F0D3802DE9F047F5
:1034100000252F46684E694896F8D4CED6F8D84E87
:103420009907C2F8E83F2ED0D2F8181101F1806157
:103430000431C90009684FEAD1484FEA515909F0EF
:1034400008094FEAD15E08F0100848EA09080EF0B2
:10345000040E4EEA080EC1F3C0694FEA915849EADA
:103460000E0E08F0400848EA0E084FEA116E0EF002
:10347000200E090A4EEA080E01F4805151EA0E01AD
:1034800008BF23F0020313F0300F18BFD2F8281141
:103490001B0724D5D2F81811D2F81431D2F810E154
:1034A00099421CD0D2F81811D2F8183103F1806378
:1034B0000433DB001B6810EA030E10D101F18063B6
:1034C0000433DB001B68D2F81851C3F30A03991EBA
:1034D00004EB0108B8F5C06F11D374460125D2F88A
:1034E000E03FD2F8E41F0B409AD10DB1C6F8D84E98
:1034F0000FB9BDE8F08786F8D4CEBDE8F087002983
:103500001DDD05F18065E900D1F800E0DD1E0CEB62
:103510004C012B4B04EB41210D2D03EB410303D94F
:103520000EF102018B422CD125F0010402341C441F
:10353000AEEB03015D5A23F8025BA342FAD11D4BA7
:10354000D3F8183103F180630433DB001B685D009E
:103550000BD4444601251749D1F81831032B2B44CD
:1035600008BF0023C1F81831B9E700240CF1010CA1
:103570005FFA8CFCBCF1010F4FF0010788BFA44635
:10358000E8E771466D0801354FEA55090EEB8909E8
:10359000A3EB0E0A0C684AF8014004318945F9D1C1
:1035A000EC0725F00101CAD53EF8114023F811407F
:1035B000C5E7704700400820E80700100000901B96
:1035C0006C28001040F6FE734FF4001210B409216D
:1035D0004FF0A05440000340C2F8E84FC2F88430D6
:1035E000C2F88010D2F88C00D2F8E03F5B01FBD526
:1035F0004FF0806380B210BCC2F8E83F704700BF54
:10360000F8B5457815B103252846F8BD044600F104
:103610003007C1F34E100E03FFF7D4FFC6F31006B8
:1036200046EA4046394630460AF060FC04F503613C
:1036300006F500600AF05AFC4AF65523B4F82E222B
:103640009A420FD1D4F86630084A23F07F43934260
:10365000DAD0D4F8825025F07F45AD1A18BF012585
:103660002846F8BD02252846F8BD00BF4641540053
:103670002DE9F041974C94F89330D4F8DC5ED4F8FF
:10368000E06E2F2B31D8DFE813F0A30030003000BC
:103690008B00680030003000300030003000300017
:1036A0003000300030003000300030003000510079
:1036B000300030003000300030003000300030008A
:1036C000300030003000300030003000300030007A
:1036D00030003000FF0030003000A8003000ED0066
:1036E000300030003000300068004FF4A423C4F8EC
:1036F000D0320023C4F8DC3EFDF77EFC012103221A
:10370000D4F8E40ED4F88C3084F8F41E1B1A7248F6
:1037100023EAE373C4F8E80ED4F88800C4F8F03E56
:10372000C4F8EC0E84F8CC22BDE8F081AC466B4FB7
:1037300007F1200E3D460CF1100C0FCD754507F139
:1037400010074CF8100C4CF80C1C4CF8082C4CF8DA
:10375000043CEFD13868CCF80000D4F8E40E604B9C
:10376000B042C4F8DC3E44D8B042DDD1D4F88C502D
:10377000B54201D0FDF740FC002203235649AD1BA2
:10378000C4F8E81ED4F8881025EAE57584F8F42E0C
:1037900084F8CC32C4F8EC1EC4F8F05EBDE8F081C9
:1037A0000023504FD4F8D0C2C4F8D0320FCFEB6012
:1037B0003B884FEA1C484FEA1C2E28606960AA60CB
:1037C00085F8028085F80CE02B8285F80DC0C4E7EF
:1037D000D4F8D032002BC0D08BE7C6F30B05002DF8
:1037E00058D03F4BD4F8E40E2B44B042C4F8DC3E32
:1037F000BAD9851B402D28BF402516213A4AC2F868
:103800002812C2F82452D2F82812890707D553F893
:10381000041BC2F81C12D2F828128F07F7D4002319
:10382000314AC2F828323023C2F808322F4BC2F88E
:103830001032D2F80032D906FBD51023C2F8083274
:103840003023C2F808322A4BC2F81032264AD2F886
:103850000032DB06FBD510232E44C4F8E06EC2F81C
:10386000083281E706F14003C3F30B05D4F8953025
:10387000002DB6D11BBA1A4803EB16310AF082FDAF
:1038800010BBD4F8E06EACE74FF48013194A6B60BC
:103890002A6062E7D4F895301BBA03EB1633C3F302
:1038A0004E101E03FFF78EFEC6F3100646EA404692
:1038B00030460B490AF01AFB06F500600E490AF083
:1038C00015FBD4F8E06E8CE74FF44333C4F8D032E4
:1038D0000FE700BFE807001055534253C0F901003D
:1038E0006C180010ACF9010000C0082000050B00A6
:1038F0000005FA000000F9FF6C2000108B0708D4C7
:103900002F4890F8CC32032B1FD0042B03D0022B6E
:1039100000D07047ACE630212A4A2B4BC2F808127F
:10392000C2F81032D2F80032D906FBD51020274B4E
:103930002449C2F80802C2F81032D1F80032DB067E
:10394000FBD51023C1F8083270470D2216211D4BFC
:1039500030B4C3F82812C3F82422D3F828229407DD
:1039600048BF00F6E86207D552F8041BC3F81C12E2
:10397000D3F828128907F7D400243021114A144BB8
:10398000C2F82842C2F80812C2F81032D2F8003247
:10399000DD06FBD5102530240E4B0A49C2F808522B
:1039A000C2F80842C2F81032D1F80032DC06FBD56A
:1039B00010220023C1F8082280F8CC3230BC7047B6
:1039C000E807001000C0082000054B0000010100BE
:1039D00000050B000005FA008A0714D42DE9F04712
:1039E000A04C94F8CC32042B0BD8DFE803F0286706
:1039F00003030D0000221146FDF7CAF8002384F8E6
:103A0000CC32BDE8F08770473021974A974BC2F817
:103A10000812C2F81032D2F80032D906FBD51020B5
:103A2000934B9149C2F80802C2F81032D1F8003223
:103A3000DB06FBD51023C1F80832BDE8F087202251
:103A40008C49FDF7A5F81F285AD18B4BD4F8842058
:103A50009A4255D194F89130002B51D194F892208C
:103A6000511E0F294CD894F893008449C4F8E03EC5
:103A700001EB501191F85C15C4F8E43E914294F9C1
:103A8000903078D82F2872D8DFE800F08E717197C7
:103A90008E71717171717171717171717171B371B7
:103AA0007171717171717171717171717171717106
:103AB00071A57171DF71C871717171C0D4F8E05E68
:103AC000D4F8E46EB542C0F0E380AE4299D1D4F8A8
:103AD0008C50B54201D0FDF78FFA002203236849CC
:103AE000AD1BC4F8E81ED4F8881025EAE575C4F8C3
:103AF000EC1EC4F8F05E84F8F42E84F8CC3280E733
:103B00003021594A5F4BC2F80812C2F81032D2F87D
:103B10000032DF06FBD51020554B5349C2F808028E
:103B2000C2F81032D1F80032DE06FBD51025302065
:103B30004E4B4D4AC1F80852C1F80802C1F8103284
:103B4000D2F80032DD06FBD51020494B4649C2F8B9
:103B50000802C2F81032D1F80032D806FBD5102284
:103B60000423C1F8082284F8CC32BDE8F0874FF472
:103B7000A423C4F8D0320023C4F8DC3EFDF73CFA9D
:103B800001210322D4F88C303D4823EAE373C4F8C2
:103B9000E80ED4F88800C4F8F03EC4F8EC0E84F8BF
:103BA000F41E84F8CC222CE7374BC4F8DC3E022309
:103BB00084F8CC32BDE8F0475AE5334994F89720B1
:103BC000C4F8DC1E002AF2D0002BC0F22481FDF7DD
:103BD00013FA0221D5E72C4A002BC4F8DC2EF6DAC2
:103BE0000822D4F88C509542C0F0F780C4F8E42E37
:103BF000DDE7254994F89720C4F8DC1E002AD6D0CA
:103C0000002BE4DA242A28BF2422EAE794F894302F
:103C10009B07C9D51D4BC4F8D032ACE7B4F89A2045
:103C2000194952BA92B2C4F8DC1E1103002ABED060
:103C3000002BD4F88C50CADBA94200F2CE800123BD
:103C4000C4F8E41E84F8CC32DBE6B4F89A100E4ACD
:103C500049BA89B2C4F8DC2E0A030029A7D0002B88
:103C6000B5DABEE7E807001000C0082000054400F0
:103C7000000101006C0800105553424388F4010014
:103C80005553425300054B006C18001000240500EA
:103C9000D4F8DC7E02203946721BFCF779FF94F8D9
:103CA000933080462F2B19D8DFE803F06B1818509B
:103CB0003E1818181818181818181818181827184F
:103CC0001818181818181818181818181818181874
:103CD00018901818701845181818183E4FF4A42397
:103CE000C4F8D0320023C4F8DC3EFDF785F9D4F8DF
:103CF0008C30012103229B1B46E7DFF834E10EF1F3
:103D00002009F4461037BCE80F00CC450EF1100E28
:103D100047F8100C47F80C1C47F8082C47F8043CEF
:103D2000EFD1DEF800003860424B4544C4F8DC3E79
:103D3000C4F8E05EC9E605F14003C3F30B07D4F80D
:103D40009520002F5BD03B4B3B44EEE70023DFF890
:103D5000E8C0D4F8D0E2C4F8D032BCE80F00FB6071
:103D6000BCF800304FEA1E4A4FEA1E2938607960DD
:103D7000BA6087F802A087F80C9087F80DE03B82C4
:103D8000D2E7D4F8D032002BCED0ABE7C5F30B0787
:103D9000002FD8D1D4F8950000BA00EB15300503F8
:103DA000C0F34E10FFF70EFCC5F3100545EA404581
:103DB000284620490AF09AF805F500601F490AF0E4
:103DC00095F8D4F8E05ED4F8E46EBCE74FF48013C5
:103DD0007B60A3F5B8133B60A6E7FDF70DF902225F
:103DE00003231749C4F8F05EC4F8E81ED4F888101D
:103DF00084F8F42EC4F8EC1E84F8CC3201E612BA32
:103E00000C4802EB15310AF0BDFA40B9D4F8E05E77
:103E1000D4F8E46E97E7122A28BF1222E1E64FF4A5
:103E20004333D4F8E46EC4F8DC7EC4F8D0325CE7E7
:103E3000C0F901006C180010ACF901006C200010F2
:103E400055534253F0B5C3B002AD4FF48072002118
:103E500028460EF073FB00240126A0B2FFF7B2FB48
:103E6000C0F3CC03EA5C00F00700013406FA00F06E
:103E70001043B4F5FA6FE854EFD10026FF2734461B
:103E800005E00134B4F5006F06F5003623D0C4F325
:103E9000CC03EB5C04F007021341DB07F1D40122F1
:103EA000304611460DF106038DF806708DF8077047
:103EB000FEF7B2FF01220DF10703114606F500607F
:103EC000FEF7AAFF9DF806209DF807301A42D8D0C9
:103ED000204643B0F0BD002003490AF0F1FC012068
:103EE0000249FDF763FCFEE770E301008CE301008B
:103EF0002DE9F041C66A8E4204D0037904460D468E
:103F00001BB93DB90020BDE8F0814378DBB1012049
:103F1000BDE8F0816378002BF9D1C5F34E10FFF7AF
:103F200051FB2E03C6F3100646EA4046304604F124
:103F3000300109F0DBFF04F5036106F5006009F0CC
:103F4000D5FFE562DEE700F13008314640460AF071
:103F500019FA0028DBD1D4E907321A44B2422071A1
:103F6000CFD9E778012FCCD91E44637863B9013FDC
:103F700031464046FFB20AF005FA012FC1D0E3698D
:103F80001E446378002BF2D0002DBBD0BFE700BFEA
:103F90002DE9F84307780446022F0D46164608D04F
:103FA000032F4ED0012F1CD0022001232371BDE826
:103FB000F88343895B08B1FBF3F3016A1944FFF707
:103FC00097FF0028F1D163896D00B5FBF3F103FB86
:103FD0001155C6F30722254485F8306085F8312055
:103FE00051E0438901EB5108B8FBF3F3016A19442E
:103FF000FFF77EFF0028D8D1618908F10109B8FBDD
:10400000F1F301FB1388B9FBF1F1236AA0441944D1
:10401000EB073DD598F83030204603F00F0343EA14
:10402000061388F830302771FFF762FF0028BCD1F3
:104030006289C6F30713B9FBF2F102FB1199A1449F
:104040003BE043899B08B1FBF3F3016A1944FFF796
:104050004FFF0028A9D16389AD00B5FBF3F203FB44
:10406000125505F130022244D37825441B0603F093
:1040700070433343C3F3072185F830305170190C76
:104080001B0E9170D370012323710020BDE8F883CB
:1040900088F8306020462771FFF72AFF002884D176
:1040A0006389C6F30326B9FBF3F203FB1299A1441B
:1040B00099F8303023F00F03334389F83030E2E7CA
:1040C000F8B5C56A04460DB103793BB92378032BD3
:1040D0002BD06078003818BF0120F8BD43780BB1B1
:1040E0000120F8BD00F13007294638460AF04AF9A8
:1040F0000028F5D1E369226A20711A449542E5D27D
:10410000E678012EE2D91D446378002BDED1013E12
:1041100029463846F6B20AF035F9012ED6D0E369C1
:104120001D446378002BD1D1F1E76379002BD0D007
:10413000002104F130034FF400721846E1620EF0E2
:10414000FDF94AF655220C4903460C48C4F81412EE
:104150002063D4E90301C4F81C026078C4F8181283
:10416000A4F82E2210B100236371B3E718466169E9
:104170000AF008F96078F6E77272416152526141C3
:10418000012940F2928083692DE9F0478B420D4668
:1041900004463DD94FF001082378022B3BD0032B76
:1041A00004D0012B51D00120BDE8F0876389216A3A
:1041B0009B08B5FBF3F320461944FFF799FE00284E
:1041C000F1D16189AB00B3FBF1F201FB123303F1D2
:1041D000300222449678D078234493F83030360465
:1041E00046EA00661E43537846EA032636F07046D8
:1041F00059D0012E0CD0A369AB4209D92778022FE0
:1042000000F09480032F5FD0012F50D00123237141
:104210000220BDE8F0876389216A5B08B5FBF3F3F0
:1042200020461944FFF764FE0028BCD161896B0069
:10423000B3FBF1F201FB1233234493F8312093F8DE
:10424000306056EA0226D4D12DE0638905EB55068D
:10425000B6FBF3F3216A20461944FFF749FE002814
:10426000A1D16189771CB6FBF1F301FB1366B7FBA3
:10427000F1F1236A26442046194496F83060FFF78E
:1042800037FE00288FD16189B7FBF1F301FB13776B
:10429000274497F83030EF0746EA03267FD4C6F369
:1042A0000B06002EA5D10020B3E70220704705EBD6
:1042B0005509B9FBF1F1236A20461944FFF718FEAE
:1042C000002849D02771A4E78908B5FBF1F1236ADA
:1042D00020461944FFF70CFE20BB6389AD00B5FBF7
:1042E000F3F203FB125505F130032344DA78254439
:1042F00002F0F00285F83000A3F80100DA702369BB
:1043000084F804805A1C08D0A2690133B2422361A8
:1043100084F80580C7D935463EE7A369B342C2D9C0
:10432000354639E701232371BDE8F0874908B5FB1D
:10433000F1F1236A20461944FFF7DAFD0028F1D194
:1043400063896D00B5FBF3F203FB1255254485F834
:10435000300085F83100D2E7618909F1010AB9FB23
:10436000F1F301FB1399BAFBF1F1236AED0719444C
:10437000A14418D489F8300020462771FFF7B8FD12
:104380000028CFD16389BAFBF3F203FB12AAA2443F
:104390009AF8300000F0F0008AF83000AFE73609F4
:1043A0007FF427AF7FE799F83030204603F00F0302
:1043B00089F830302771FFF79BFD0028B2D163895F
:1043C000BAFBF3F203FB12AAA244E5E7F8B50378BF
:1043D0000446022B0D4606D0032B49D0012B1AD0E0
:1043E0004FF0FF30F8BD4389016A5B08B5FBF3F37A
:1043F0001944FFF77DFD0028F2D163896D00B5FBFC
:10440000F3F203FB1255254495F8313095F830004E
:1044100040EA0320F8BD438901EB5106B6FBF3F3F4
:10442000016A1944FFF764FD0028D9D16389771C1C
:10443000B6FBF3F2B7FBF3F003FB1266216A2644E6
:104440000144204696F83060FFF752FD0028C7D19E
:104450006389B7FBF3F203FB1277274497F83030F8
:1044600046EA0320EB074CBF0009C0F30B00F8BD80
:104470004389016A9B08B5FBF3F31944FFF738FD44
:104480000028ADD16389AD00B5FBF3F203FB1255F3
:1044900005F1300323449878D9782C4494F83020DF
:1044A00000045B7840EA0160104340EA032020F0FA
:1044B0007040F8BD2DE9F04F04464FF0FF0A83B07D
:1044C000006821694FF6FF795546FFF711FD002876
:1044D00030D162691178002949D0E529D37A06D014
:1044E00013F0080003F03F0645D00F2E7BD0FF25C8
:1044F000E38801339EB2002E39D02169002936D0DD
:10450000206843895B09B6FBF3F203FB12639BB29D
:1045100033B9E768013121617FB90289B24226D9F6
:1045200000F1300202EB4313E6806361FFF7E0FC29
:104530000028CED003B0BDE8F08F90F802C00CF197
:10454000FF3C1CEA020FEBD1012F5FD083699F4231
:104550005CD23946FFF73AFF0128034656D9421C80
:1045600000F00E81206882699342C0F0F68004203A
:1045700003B0BDE8F08F0F2E35D0002D00F0A480E1
:10458000A369A4F82090D97AC907B0D41D7811780E
:104590008D42ACD15D7851788D42A8D19D789178CB
:1045A0008D42A4D1DD78D1788D42A0D115791979C9
:1045B0008D429CD1557959798D4298D195799979C7
:1045C0008D4294D1D579D9798D4290D1157A197AC5
:1045D0008D428CD1557A597A8D4288D1927A9B7AC4
:1045E0009A42A7D083E7D4F81CC0E388BCF1000F3F
:1045F0003FF47FAF4E060BD592F80DA0238401F057
:10460000BF05517B514508D0FF2572E7022091E795
:10461000A942F9D1517B5145F6D111784FF0010BE8
:1046200021F0400808F1FF3808EB4800DFF854E1BA
:1046300008EB8008019506E04FF6FF708542E3D154
:104640005148864533D01EF8010B15186E78155C5D
:1046500045EA0625BBF1000FEED04C4F6120BB466A
:10466000002603E03BF8020F013630B18542F9D154
:10467000474800EB4606B6F85457B8F1270FC3D8A1
:104680003CF818B06120002608F1010803E037F873
:10469000020F013630B15845F9D13D4800EB4606CE
:1046A000B6F854B75D45AFD137488645CBD14806FB
:1046B000019D06D5BBF1000F03D03CF81820002A5D
:1046C000A2D1013DEDB214E75578CB0143EA510385
:1046D0002B44C3F3460141EAC3119378C9B219448C
:1046E000C1F3460343EAC113D178DBB20B44C3F3F1
:1046F000460141EAC3111379C9B21944C1F3460313
:1047000043EAC1135179DBB20B44C3F3460141EADA
:10471000C3119379C9B21944C1F3460343EAC113E3
:10472000D179DBB20B44C3F3460141EAC311137ADA
:10473000C9B21944C1F3460343EAC113517ADBB24B
:104740000B44957AC3F3460141EAC3132B4403F0AB
:10475000FF0353457FF414AFECE6023AE360023BFB
:1047600093423BBF8278816A002103FB0211428998
:1047700021615209B6FBF2F302FB13639BB2CFE651
:104780000120D7E6ECF90100F9F90100FCF901007C
:1047900088F401002DE9F84305460E46F1B9C768D3
:1047A0008369002F00F0B8809F4228BF01273C4654
:1047B00001349C4221D3012F00F0AC80022B1ED982
:1047C00002242B78022B00F08A80032B5ED0012B71
:1047D00019D04FF0FF342046BDE8F88301290ED0F0
:1047E000836999420BD2FFF7F1FD0128044606D9EF
:1047F000AB69834204D83746D9E7012CE1D10124C3
:104800002046BDE8F8836B8904EB5408B8FBF3F34A
:10481000296A28461944FFF76BFB0028D9D169891A
:1048200008F10109B8FBF1F301FB1388B9FBF1F1C1
:104830002B6AA8442846194498F83080FFF758FBA3
:104840000028C6D16B89E107B9FBF3F203FB12998B
:10485000A94499F8303048EA03235FD51B0938D1C1
:10486000AB69A342CBD96FF0704221462846FFF7CF
:104870008FFB002865D1002E55D12B69EC605A1CA6
:10488000BED00122013B2B616A71B9E76B89296AAD
:104890009B08B4FBF3F328461944FFF729FB0028D3
:1048A00097D16A89A300B3FBF2F102FB113303F144
:1048B00030022A442B4493F830109378D0781B04AC
:1048C000527843EA00630B4343EA022333F0704318
:1048D000C6D0012B93D0A7421CD0AB6968E76B8987
:1048E000296A5B08B4FBF3F328461944FFF700FB81
:1048F00000287FF46EAF6A896300B3FBF2F102FB1C
:1049000011332B4493F8312093F8303053EA0223CB
:10491000DFD1A5E7002473E7012748E7C3F30B03C2
:10492000002BD6D19CE7012E3FF469AFAB699E42C4
:10493000BFF465AF224631462846FFF729FB002821
:104940009BD001283FF445AF59E700BF2DE9F04760
:1049500084680646012CC18026D00568AB69A34255
:1049600022D988461CB36A89AF78520902FB07F73F
:10497000BFB28F4268D89C4216D22B78022B00F02F
:104980009F80032B78D0012B21D00120BDE8F08738
:104990006C6A7CB16A89AF78520902FB07F7BFB233
:1049A000B94251D3012CE6D10220BDE8F0872A7824
:1049B000032AEDD000222B89F2604345F4D96A899D
:1049C000686A5209B8FBF2F399B201444AE06B8974
:1049D00004EB5409B9FBF3F3296A28461944FFF79D
:1049E00087FA0028D1D1698909F1010AB9FBF1F3ED
:1049F00001FB1399BAFBF1F12B6AA944284619442B
:104A000099F83090FFF774FA0028BED16B89BAFB91
:104A1000F3F203FB12AAAA449AF8303049EA0329B8
:104A2000E3074CBF4FEA1914C9F30B04012CBBD99F
:104A30003568AB69A342B7D9A8EB07011FFA81F823
:104A4000474598D96A895209023BF460023C9C426E
:104A50003BBFAB78A86A002004FB0300B8FBF2F36D
:104A600099B2014402FB138330359BB205EB431529
:104A700000203161756198E76B89296A9B08B4FB56
:104A8000F3F328461944FFF733FA00287FF47DAF8B
:104A90006B89A400B4FBF3F203FB124404F130036E
:104AA0002B442C4494F830209C78D97824045B78EB
:104AB00044EA0164144344EA032424F07044B5E753
:104AC0006B89296A5B08B4FBF3F328461944FFF7A6
:104AD0000FFA00287FF459AF6B896400B4FBF3F23E
:104AE00003FB12442C4494F8313094F8304044EAEB
:104AF00003249BE72DE9F04FC48883B00134A4B2AE
:104B0000002C4AD002690546002A46D006687389FF
:104B10005B09B4FBF3F003FB10439BB243B10020ED
:104B2000303606EB4316EC806E6103B0BDE8F08FC3
:104B30000F46E96801322A6161B3B278013A024254
:104B4000EDD101292DD0B36999422AD23046FFF721
:104B50003DFC0128804624D9B0F1FF3F00F08A8057
:104B60002E68B36983421ED9A0F1020A023B534565
:104B700098BF0023C5F80C8082BFB278B36A0AFBE5
:104B8000023372892B615209B4FBF2F302FB134327
:104B90009BB2C4E73289A242C1D8042003B0BDE869
:104BA000F08F0220C1E7002FF7D03046E968FFF709
:104BB000F1FD804600285FD00128F2D0B0F1FF3F20
:104BC00058D02E68F76A17B13379002B58D1728903
:104BD00006F1300012B100210DF0B0FC2E68A8F1F2
:104BE000020AB369B278023B9A4547D2B76A0AFB18
:104BF0000277F762002A6BD04FF000094FF0010BEB
:104C000086F804B04FB37278002A33D106F130032E
:104C100039461846019309F0B5FB58BBD6E907128F
:104C20000A44BA42307115D9F278012A12D90F44D8
:104C30007178009271B93946019809F0A3FB009A86
:104C4000013AD2B2012A05D0F16900920F4471787D
:104C50000029F0D02E68F76AB27809F101095FFAED
:104C600089F901379145F762CAD3A7EB0907B36900
:104C7000F7627BE7012058E7072056E70027B8E7EF
:104C80007378002BF6D106F1300A3946504609F008
:104C900079FB0028EED1D6E9072313449F423071F7
:104CA00006D296F80390B9F1010F01D973780BB1D0
:104CB0002E688CE7F36909F1FF391F4450463946E5
:104CC0005FFA89F909F05EFBB9F1010FEED1EFE768
:104CD0009146CAE701692DE9F8430546002900F02D
:104CE000C480FF273E460068FFF702F9804600288F
:104CF00040F0BD806A691378002B00F0B680E52B88
:104D0000D17A07D02E2B05D00C0701F03F002ED50D
:104D10000F282FD0EC88FF260134A4B2002C00F01D
:104D2000A4802969002900F0A080286843895B09D4
:104D3000B4FBF3F203FB12439BB2002B40F09C80C8
:104D4000D5F80CC001312961BCF1000F40F09F8003
:104D50000289A24240F2898000F1300202EB431343
:104D6000EC806B610029BFD14046BDE8F8830F2875
:104D700040F05381580640F18680E988577B03F064
:104D8000BF032984517BB942C4D11178EE6901F087
:104D90003F01013901EB410001EB80012729B2F805
:104DA0000140B7D826F81140B2F803C0481C002CC7
:104DB00040F0A0804FF6FF718C45ABD1B2F805E012
:104DC0004FF6FF718E45A5D1B2F807C04FF6FF71BF
:104DD0008C459FD1B2F809E04FF6FF718E4599D10D
:104DE000B2F80EC04FF6FF718C4593D1B2F8109017
:104DF0004FF6FF7189458DD1B2F812E04FF6FF7181
:104E00008E4587D1B2F814C04FF6FF718C4581D121
:104E1000B2F816E04FF6FF718E457FF47BAFB2F823
:104E200018904FF6FF7189457FF474AFB2F81CC03B
:104E30004FF6FF718C457FF46DAFB2F81EE04FF670
:104E4000FF718E457FF466AF1278510605D528288C
:104E50003FF460AF002226F81020EC88013B0134BB
:104E6000A4B2DEB2002C7FF45CAF4FF00408002344
:104E70002B614046BDE8F88300F1300202EB43139A
:104E8000EC806B6130E79E427FF444AF7AE790F8A4
:104E900002E00EF1FF3E1EEA020F7FF45DAFBCF1AF
:104EA000010F22D083699C451FD26146FFF78EFA1D
:104EB0000128034619D9421C00F0B4802868826991
:104EC0009342D2D2023AEB60023B93423BBF8278DC
:104ED000816A002103FB0211438929615B09B4FB4C
:104EE000F3F203FB12439BB236E700234FF00208B4
:104EF0002B61BEE728283FF40DAF26F810C0440010
:104F0000B2F805E0881CBCF1000F3FF459AF282827
:104F10003FF400AF3444A4F802E0B2F807C0C81C64
:104F2000BEF1000F3FF452AF28283FF4F3AEA4F8CF
:104F300004C0B2F809E0081DBCF1000F3FF44CAF0B
:104F400028283FF4E7AEA4F806E0B2F80EC0481DEA
:104F5000BEF1000F3FF446AF28283FF4DBAEA4F8C3
:104F600008C0B2F81090881DBCF1000F3FF440AFAC
:104F700028283FF4CFAEA4F80A90B2F812E0C81D7A
:104F8000B9F1000F3FF43AAF28283FF4C3AEA4F8BC
:104F90000CE0B2F814C001F10800BEF1000F3FF4BC
:104FA00033AF28283FF4B6AEA4F80EC0B2F816E02E
:104FB00001F10900BCF1000F3FF42CAF28283FF4A9
:104FC000A9AEA4F810E0B2F8189001F10A00BEF101
:104FD000000F3FF426AF28283FF49CAEA4F81290AF
:104FE000B2F81CC001F10B00B9F1000F3FF420AF83
:104FF00028283FF48FAEA4F814C0B2F81EE001F1E7
:105000000C00BCF1000F3FF41AAF28283FF482AE29
:10501000A4F816E001F10D0016E736B14FF6FF7364
:105020002B84A1E64FF0010821E75178D80140EA2E
:1050300053030B44C3F3460141EAC3119378C9B249
:105040001944C1F3460343EAC113D178DBB20B44E0
:10505000C3F3460141EAC3111379C9B21944C1F33C
:10506000460343EAC1135179DBB20B44C3F3460153
:1050700041EAC3119379C9B21944C1F3460343EA23
:10508000C113D179DBB20B44C3F3460141EAC3112A
:10509000137AC9B21944C1F3460343EAC113517AE2
:1050A000DBB20B44917AC3F3460242EAC3130B44CA
:1050B00003F0FF03BB42B1D156E600BF2DE9F04F2C
:1050C000D0E9064B89B0A26882466168206805ABCA
:1050D00007C39DF81F30DA07019340F1C580002314
:1050E000012581468846621EBDF81C709DF81E6031
:1050F000E3720092CAF81C30052DC4F80090C4F881
:1051000004802781A67240F2318159462846BBF8B7
:105110000020C30343EA5003134431F8022F98B22E
:10512000002AF6D1034600F00F0202F1300EBEF164
:10513000390F88BF02F1370E0F2B8DF813E0C0F343
:105140000F1040F2198100F00F0101F13002392AED
:1051500088BF01F137020F288DF81220C3F30F2109
:1051600040F2128101F00F0000F13002392A88BFAD
:1051700000F137020F298DF81120C3F30F3340F2ED
:105180000981DBB203F13002D2B2392A84BF37334E
:10519000DAB27E234FF0030C8DF810208DF80F301B
:1051A0000022009902E0624500F0EC8011F8010F46
:1051B0001346202802F10102F5D10CF120026A44C5
:1051C00012F8141C062BE15412F8131C04EB030212
:1051D00051700CF1020203F1020112D0082A23D10E
:1051E0002022052B625403F103000AD0431C082B34
:1051F000C0F108024FF0200188BF012220440DF0C9
:105200009DF900215046FFF7A1FB30BB5046FFF748
:1052100051F910BB0135ADB2642D7FF46DAF07219C
:10522000084609B0BDE8F08F20326A4412F8142C09
:10523000052B62540CF1030203F10301E1D0082AAB
:1052400070D12022042B625403F10400CED100213E
:105250005046FFF77BFB0028D8D004280146DFD159
:10526000019BE372CAF81CB0019B9B0700F1988078
:10527000012400215046FFF769FB01460028CFD1E9
:105280000646054608E0B3B1054601215046FFF742
:1052900031FC002840F09880DAF81010DAF80000AD
:1052A000FEF726FE6A1C002840F08E80DAF81430E3
:1052B0001B78E52BE7D10DB9BAF8066095B2AC4280
:1052C000E3D1012C40F08580DAF81010DAF8000004
:1052D000FEF70EFE01460028A2D1DAF81430202293
:1052E000009018460DF02AF90346DAF818200099C4
:1052F000501C181A022840F29681106818605068F5
:105300005860107A1872507A58720120927A9A7204
:10531000DAF81820D27A02F018021A73DAF800309C
:1053200018717DE720326A4412F8142C042B625461
:1053300003F104023FF465AFBCF1030F07D0202155
:10534000032BA15403F105007FF450AF59E7032B61
:1053500004F802E003F105023FF453AF2021022BD1
:10536000A15403F106007FF441AF4AE705F1300E86
:105370005FFA8EFE8DF813E07E234FF0060C8DF859
:1053800012300DE7634618E77E234FF0050C8DF8C9
:10539000113005E77E234FF0040C8DF81030FFE646
:1053A000BBF80030002B3FF463AF002301339BB206
:1053B0003BF81320002AF9D1A34A03F11904A2FBF8
:1053C0000424C4F38F0454E70146084609B0BDE83D
:1053D000F08F31465046FFF7B9FA014600287FF4B6
:1053E0001FAFDAF81830013C19781FFA84F8CA01A7
:1053F00042EA510259780F260A44C2F3460141EAB3
:10540000C2119A78C9B21144C1F3460242EAC112EC
:10541000D978D2B20A44C2F3460141EAC2111A79DC
:10542000C9B21144C1F3460242EAC1125979D2B25B
:105430000A44C2F3460141EAC2119A79C9B2114441
:10544000C1F3460242EAC112D979D2B20A44C2F388
:10545000460141EAC2111A7AC9B21144C1F34602A7
:1054600042EAC112597AD2B20A449B7AC2F3460583
:1054700045EAC2151D4405F0FF052B464FF6FD77A2
:1054800045464FF6FF749846DAF81010DAF8000037
:10549000FEF72EFD014600287FF4C2AE5FFA85FEBE
:1054A000DAF814300EF1FF32DAF81CC002EB4201D8
:1054B000588302EB810283F80D80A3F80B603CF85F
:1054C0001210481E80B25970B8424FEA11219970EB
:1054D0004FEA420124D9A3F80340A3F80540A3F8FA
:1054E0000740A3F80940DC811C825C829C82DC823C
:1054F0001C839C83DC834EF0400E012283F800E085
:10550000DAF80030002150461A71FFF7F3FA01462D
:1055100000287FF485AE013DADB2002DB4D1D3E6B5
:1055200001323CF81200520000F1FF39D870000A35
:1055300018711FFA89F0B842CFD86244508800F140
:10554000FF395871000A98711FFA89F0B842C6D81D
:10555000908800F1FF39D871000A18721FFA89F09B
:10556000B842BED8D08800F1FF395872000A98724C
:105570001FFA89F0B842B6D8108900F1FF39987344
:10558000000AD8731FFA89F0B842ADD8508900F1EB
:10559000FF391874000A58741FFA89F0B842A4D869
:1055A000908900F1FF399874000AD8741FFA89F0C5
:1055B000B8429BD8D08900F1FF391875000A587598
:1055C0001FFA89F0B84292D8108A00F1FF39987515
:1055D000000AD8751FFA89F0B84289D8508A00F1BC
:1055E000FF391876000A58761FFA89F0B84280D839
:1055F000908A00F1FF391877000A58771FFA89F06E
:10560000B8423FF677AFD28A501E9A77120ADA77FD
:1056100082B2BA423FF66FAF8C44BCF81A20002A1F
:105620007FF46BAF67E710781870507858709078F7
:105630009870D078D8701079187150795871907925
:105640009871D079D8715CE64FECC44E2DE9F04FDB
:105650000B788A462F2B044683B02FD05C2B2DD09D
:105660000025A5609AF800301F2B2FD9B04D534666
:1056700019781E462F299E4603F10103F8D05C29B4
:10568000F6D01F290A46E06914D9A0F1020C2F2A8E
:10569000E0464FF0010335D05C2A33D0292B09D0E6
:1056A0007F2A1BD82221A34F02E017F8011FE9B17E
:1056B0009142FAD1062003B0BDE8F08F00250AF12F
:1056C000010AA5609AF800301F2BCFD82946204642
:1056D000FFF73CF9656103B0BDE8F08F05EB4101D0
:1056E000B1F83428002AE5D07F2ADBD928F8022F28
:1056F0001EF8012F5F1C1F2A114640F2EF802F2A4F
:105700003B46C9D106EB030A013BD3D0002600EB90
:10571000430131F8022D202A01D02E2A02D1013B6B
:10572000F7D1C7E74FF02037002142F220084FF0B1
:10573000200EA26920F81310A2F8088017605760A5
:1057400082F80AE000E001313CF8022F202AFAD06A
:105750002E2AF8D009B146F0030600EB430701E01A
:10576000013B04D037F802CDBCF12E0FF8D1D4F8AC
:1057700018E00131F446002A00F0EC8000274FF0D9
:105780000808B946CDF804A0202A53D02E2A5AD0B2
:10579000C8456ED8B8F10B0F5AD08B4200F09680F6
:1057A00046F003068B4280F091809EF80030F4466C
:1057B000E52BDDF804A004D105238EF80030D4F8E1
:1057C00018C0B8F1080F05BFBB00DFB207F00C032B
:1057D00003F00C030C2B76D007F00307032F72D0D5
:1057E000B20707D4012F08BF46F01006042B08BFEC
:1057F00046F00806002120468CF80B60FFF7A6F85B
:10580000002854D12046FEF755FEA369DB7A002814
:105810004FD159073FF54FAF6369DA7AD2064ED5BB
:1058200021685A8B0978032904BF9B8A42EA034204
:10583000A2601CE70A4646F00306511C30F812200D
:10584000002AA1D1B1E78B42F4D1B8F10B0FA9D155
:105850009EF80020F446E52ADDF804A046F0030691
:1058600007F00C03B6D105228EF80020D4F818C03A
:10587000B0E78B42E9D07F2A34D84FF02B0CE246B8
:10588000944652469445DFF8B0B005D01BF8012F7E
:10589000002A42D09445F9D15F2246F003060EF863
:1058A0000920D4F818E00A4609F10109C5E7A369FF
:1058B000DB7A04287FF4FFAE5C073FF5FCAE0520E1
:1058C00003B0BDE8F08F46F0020693E7BF001A462A
:1058D0004FF00B084FF00809FFB2AEE706EB070ADE
:1058E000042614E74FF0000CDFF850A004E00CF1A0
:1058F000010CBCF1800F38D03AF802BB9345F6D1C9
:105900000CF18002DFF828C092B2624492F8B42908
:1059100046F00206002ABFD0AFE76246ACF1410C68
:10592000BCF1190F0CD847F00207D2B2B7E700BF9D
:1059300088F40100A8E30100B4E30100BCFD01000C
:10594000A2F1610CBCF1190F9CBF203A47F001078E
:10595000D2B2A4E79EF80030E52B7FF44BAF0523CD
:105960008EF80030D4F818C044E746F0020693E7FA
:105970002DE9F843046815462378303B092B03D8FA
:1059800062783A2A00F09D8000230B608A4ED6F898
:10599000F84E002C00F0A7800C602378002B40F01C
:1059A000888000232380FDF7D7FA10F0010740F02C
:1059B000978015B1430700F19980617800297DD166
:1059C0004FF4805320466381FDF71AFE012800F052
:1059D0008180032872D000287FD16189B4F83B30E0
:1059E0008B427AD1B4F84620002A00F0818094F8E6
:1059F0004030E261581E0128E3706ED894F83D00F3
:105A0000A070002869D0451E054266D1B4F841E077
:105A10004D09BEFBF5FC05FB1CE5ADB2A4F808E0A2
:105A2000002D5AD1B4F8435005B9256DB4F83E8025
:105A3000B8F1000F51D002FB03F3C4449C44654508
:105A40004BD3A5EB0C058542B5FBF0F945D308EB2C
:105A5000070540F6F578C14507EB0C0009F1020C8B
:105A60004FD94FF6F578C145A0625AD8C4F818C08E
:105A70002562BEF1000F30D002202B444FEA4C0CBF
:105A800063624B1E6344B3FBF1F39A4225D30023B8
:105A90004FF0FF32C4E903320022B6F8FC3E20701A
:105AA00001339BB2A6F8FC3EE380E2622271002043
:105AB00005E06378002B7FF474AFF8E70120BDE8C0
:105AC000F8830022023404600A60002B3FF45EAFCA
:105AD0000B20F4E794F8F23163B90D20BDE8F883A8
