:1000000000000110E5000000510100005301000054
:1000100055010000570100005901000000000000D8
:100020000000000000000000000000005B01000074
:100030005D010000000000005F010000B118000039
:100040006301000063010000630100006301000020
:10005000630100006301000063010000A1CD000006
:100060006301000063010000630100006301000000
:1000700063010000630100006301000063010000F0
:1000800063010000630100006301000063010000E0
:1000900063010000630100006301000063010000D0
:1000A000630100006301000011870000630100008C
:1000B000D52E000063010000630100006301000011
:1000C00063010000630100006301000063010000A0
:1000D0006301000063010000630100006301000090
:1000E000630100001149124A124B9A4205D0086878
:1000F0001060043104329A42F9D300200E490F4AAD
:10010000914204D0914202D208600431FAD30C48E3
:100110000C49884206D00268043003B4FE46974674
:1001200003BCF6E70848804708480047A0230200C0
:1001300000000010E8070010E8070010B898001051
:100140008423020084230200B510000075630000C0
:10015000FEE7FEE7FEE7FEE7FEE7FEE7FEE7FEE777
:10016000FEE7FEE7034A137D5B06FCD5C3B21370BE
:10017000704700BF00C00040002300BF00BF00BFA9
:1001800000BF00BF00BF00BF00BF00BF00BF00BF77
:1001900000BF00BF00BF00BF00BF00BF00BF00BF67
:1001A00000BF00BF00BF00BF00BF00BF00BF00BF57
:1001B00000BF00BF00BF00BF00BF00BF00BF00BF47
:1001C00000BF00BF00BF00BF00BF00BF00BF00BF37
:1001D00000BF00BF00BF00BF00BF00BF00BF00BF27
:1001E00000BF00BF00BF00BF00BF00BF00BF00BF17
:1001F00000BF00BF00BF00BF00BF00BF00BF00BF07
:1002000000BF00BF00BF00BF00BF00BF00BF00BFF6
:1002100000BF00BF00BF00BF00BF00BF00BF00BFE6
:1002200000BF00BF00BF00BF00BF00BF00BF00BFD6
:1002300000BF00BF00BF00BF00BF00BF00BF00BFC6
:1002400000BF00BF00BF00BF00BF00BF00BF00BFB6
:1002500000BF00BF00BF00BF00BF00BF00BF00BFA6
:1002600000BF00BF00BF00BF00BF0133984284D170
:10027000704700BF704700BF4FF0010CF0B44468F6
:1002800003780CFA04F4002900F0B080052B40F24A
:10029000CE8000BF00BF00BF00BF00BF00BF00BFD7
:1002A00000BF00BF00BF00BF00BF00BF00BF00BF56
:1002B00000BF00BF00BF00BF00BF00BF00BF00BF46
:1002C00000BF00BF00BF00BF00BF00BF00BF00BF36
:1002D00000BF00BF00BF00BF00BF00BF00BF00BF26
:1002E00000BF00BF00BF00BF00BF00BF00BF00BF16
:1002F00000BF00BF00BF00BF00BF00BF00BF00BF06
:1003000000BF00BF00BF00BF00BF0378052B23D88C
:10031000D0E904750121C4685B0103F1005301FABF
:1003200004F403F5182301FA05F5B940D70702F0E4
:1003300002069C6168D59961002E68D0012481690C
:1003400056079D6104FA01F468D501219C61C469D6
:10035000A140140769D5996100BF00BF00BF00BF6D
:1003600000BF00BF00BF00BF00BF00BF00BF00BF95
:1003700000BF00BF00BF00BF00BF00BF00BF00BF85
:1003800000BF00BF00BF00BF00BF00BF00BF00BF75
:1003900000BF00BF00BF00BF00BF00BF00BF00BF65
:1003A00000BF00BF00BF00BF00BF00BF00BF00BF55
:1003B00000BF00BF00BF00BF00BF00BF00BF00BF45
:1003C00000BF00BF00BF00BF00BF00BF00BF00BF35
:1003D0000378052B08D80122C1685B0103F10053A3
:1003E00003F518238A40DA61F0BC7047052B3FF60D
:1003F00050AF5B0103F1005303F51823DC610121C9
:100400008468A140D96144E7D961002E96D10124C6
:100410008169DD61550704FA01F496D40121DC619C
:10042000C469120701FA04F195D4D96194E75B011C
:1004300003F1005303F518239C61E0E702780346BB
:10044000052A2DE9F0412DD8D3E90557D3E901E874
:100450000120520102F1005202F51822D3F810C017
:10046000146800FA0CFC24EA0C04DE69146000FA3B
:1004700005FC156800FA07F725EA0C0515601568F4
:1004800000FA06F625EA07051560156800FA08F473
:1004900025EA060500FA0EF01560002940F0858176
:1004A000D061946100BF00BF00BF00BF00BF00BFAC
:1004B00000BF00BF00BF00BF00BF00BF00BF00BF44
:1004C00000BF00BF00BF00BF00BF00BF00BF00BF34
:1004D00000BF00BF00BF00BF00BF00BF00BF00BF24
:1004E00000BF00BF00BF00BF00BF00BF00BF00BF14
:1004F00000BF00BF00BF00BF00BF00BF00BF00BF04
:1005000000BF00BF00BF00BF00BF00BF00BF00BFF3
:1005100000BF00BF00BF00BF00BF00BF1A78052AA0
:1005200008D80121D868520102F1005202F51822C0
:100530008140916100BF00BF00BF00BF00BF00BF8E
:1005400000BF00BF00BF00BF00BF00BF00BF00BFB3
:1005500000BF00BF00BF00BF00BF00BF00BF00BFA3
:1005600000BF00BF00BF00BF00BF00BF00BF00BF93
:1005700000BF00BF00BF00BF00BF00BF00BF00BF83
:1005800000BF00BF00BF00BF00BF00BF00BF00BF73
:1005900000BF00BF00BF00BF00BF00BF00BF00BF63
:1005A00000BF00BF00BF00BF00BF00BF1978052912
:1005B00000F2F9804A0102F1005202F51822566950
:1005C0000120D3E906755C69D3F810C000FA04F283
:1005D0003240224100FA0CF4344044FA0CF4520147
:1005E00042EA041200FA07F434403C4142EA841221
:1005F00000FA05F434402C41052942EAC41207D818
:10060000DC68490101F1005101F51821A040C861E1
:1006100000BF00BF00BF00BF00BF00BF00BF00BFE2
:1006200000BF00BF00BF00BF00BF00BF00BF00BFD2
:1006300000BF00BF00BF00BF00BF00BF00BF00BFC2
:1006400000BF00BF00BF00BF00BF00BF00BF00BFB2
:1006500000BF00BF00BF00BF00BF00BF00BF00BFA2
:1006600000BF00BF00BF00BF00BF00BF00BF00BF92
:1006700000BF00BF00BF00BF00BF00BF00BF00BF82
:1006800000BF00BF00BF00BF1978052908D80120AE
:10069000DC68490101F1005101F51821A040886191
:1006A00000BF00BF00BF00BF00BF00BF00BF00BF52
:1006B00000BF00BF00BF00BF00BF00BF00BF00BF42
:1006C00000BF00BF00BF00BF00BF00BF00BF00BF32
:1006D00000BF00BF00BF00BF00BF00BF00BF00BF22
:1006E00000BF00BF00BF00BF00BF00BF00BF00BF12
:1006F00000BF00BF00BF00BF00BF00BF00BF00BF02
:1007000000BF00BF00BF00BF00BF00BF00BF00BFF1
:1007100000BF00BF00BF00BF1978052941D84801BC
:1007200000F1005000F5182044694FF0010ED3E9A4
:1007300005871E69DD690EFA06FC0CEA04003041EB
:1007400010430EFA08F202EA040646FA08F640EAF6
:1007500046000EFA07F606EA040848FA07F740EAE8
:1007600087000EFA05F73C402C41052940EAC400F9
:1007700015D8DC684B0103F1005303F518230EFA7A
:1007800004F4DC6119684CEA0101196019680A4334
:100790001A601A6816431E601A6817431F60BDE886
:1007A000F0810024C1E700260AE7906179E600BFE6
:1007B0004FF0010C1D4A00FA0CF303F01E0330B495
:1007C00043EAD010D2F844420CFA00FC4CEA04048C
:1007D000C2F84442C2F84802C2F84C12D2F80032C1
:1007E000D905FBD54FF480753024030443F480030E
:1007F00043F4A0630D49C2F80852C2F80842C2F897
:100800001032D1F80032DA06FBD510204FF4807395
:10081000064AC1F80802C1F81032D2F80032DB06ED
:10082000FBD530BC1023C2F80832704700C0082046
:10083000F0B5037803F01F03012B05D0022B12D073
:10084000002B46D00020F0BD447812680A2C00F03E
:100850004C810B2C00F04D81002CF3D1022314802D
:100860000B600120F0BD43781468012B00F0F2808A
:10087000032B00F01581002BE4D130250379AF4A1A
:10088000580000F01E0040EAD310000440F4A063BA
:10089000C2F80852C2F81032D2F80032DE06FBD598
:1008A000102540F40073A548C2F80852C2F810326F
:1008B000D0F800329D06FBD5202300250222C0F887
:1008C0000832D0F814326570C3F3400323700A6015
:1008D000C7E743781468092BB4D801A555F823F06D
:1008E000130A000045080000450800004508000004
:1008F00045080000D30900001D0A0000450800005B
:10090000C7090000090900008078002800F0208154
:100910008B4E33681978002900F0F480FF252C46AF
:1009200007E0022A00F0EC800B441978002900F05F
:10093000E9805A78042A00F0E180052AF1D1844246
:10094000F2D1002DF0D1012293F802E07B490EFA9A
:1009500002FC0CF01E0CD1F844724CEADE1C02FAC8
:100960000CF2B3F804E03A43C1F84422C1F848C29B
:10097000C1F84CE2D1F80022D205FBD54FF48077C4
:10098000C1F8087230274FEA0C4242F4800242F468
:10099000A062C1F80872C1F810226849D1F800229B
:1009A000D706FBD51022C1F808224FF48072C1F897
:1009B00010226249D1F80022D206FBD51022C1F8DC
:1009C00008221978B0E701235D4A127922700B6082
:1009D00047E730248378594A5A48C2F8084243F01E
:1009E0008001C2F81002D2F80032DF06FBD51020D9
:1009F00001FA00F343F480735049C2F80802C2F8C8
:100A00001032D1F80032DE06FBD51023C1F80832CF
:100A100027E70022022322800B6022E7484B45880B
:100A20001B682E0A18783446EDB200283FF40BAF4D
:100A30004FF0000E04E00344187800283FF403AFA1
:100A400093F801C0A445F6D1AE4500F09E800EF1AA
:100A5000010EF0E74388002B7FF4F4AE30240179D7
:100A6000364A4B0003F01E0343EAD1131B0443F440
:100A7000800343F4A063C2F80842C2F81032D2F8EF
:100A80000032DC06FBD510204FF480732B49C2F8EE
:100A90000802C2F81032D1F80032D806FBD5B4E70C
:100AA0004388002B7FF4CEAE30240179234A4B00DB
:100AB00003F01E0343EAD1131B0443F4800343F401
:100AC000A063C2F80842C2F81032D2F80032D90648
:100AD000FBD510201C4B1949C2F80802C2F810328D
:100AE000D1F80032DB06FBD58FE7002010700B60D9
:100AF000B7E64388002B3FF4B3AEA3E6DD7813E7F7
:100B00005C7911E730210D4A104BC2F80812C2F887
:100B10001032D2F80032DB06FBD510240A4B07490D
:100B2000C2F80842C2F81032D1F80032DF06FBD515
:100B30001023C1F80832307193E600BF00C00820CE
:100B4000E80700100005D000000101000005D800F2
:100B50003021114A114BC2F80812C2F81032D2F8F3
:100B60000032DD06FBD510244FF480730A49C2F829
:100B70000842C2F81032D1F80032DC06FBD510234F
:100B8000074EC1F8083230716BE61360022E0CBFBD
:100B90005B881B780B6064E600C008200005D80065
:100BA000E8070010830030B44FEA400C374C03F0E4
:100BB0003C030CF01E0C43F001034CEAD01CC4F8BB
:100BC0002832D4F820020505FBD543055BD5C0F3D8
:100BD000090000B300294BD0002A40DD00248242E6
:100BE000A8BF02462346294D013913F0030F38D11F
:100BF000D5F818420133934201F8014F36DB984291
:100C000009D9224A13F0030F03F1010308BFD2F8F8
:100C100018129842F6D8002430211C4A4FEA0C4C96
:100C20004CF4A063C2F82842C2F80812C2F810328D
:100C3000D2F80032D906FBD510253024144B1349C5
:100C4000C2F80852C2F80842C2F81032D1F8003295
:100C5000DB06FBD51023C1F8083230BC70470023F7
:100C6000CFE70133934201F8014FC8DA240ABCE709
:100C7000064B11F0030F01F1010108BFD3F8182250
:100C80008142F6D1C7E74FF0FF30E6E700C0082009
:100C90000005F200F8B5304BD3F80042E70744BF37
:100CA0000122C3F80822260720D5082030212A4A2D
:100CB0002A4BC2F80802C2F80812C2F81032D2F861
:100CC0000032DD06FBD51020254B2349C2F808026F
:100CD000C2F81032D1F800329806FBD52023C1F8B3
:100CE0000832D1F8140210F01A0F2DD162072AD55C
:100CF0000423194D002401271A4EC5F8083202E0DA
:100D00000134202C1FD0D5F8302207FA04F31A4200
:100D1000F6D0C5F83832D5F800329B06FBD5202234
:100D2000601006EB8003DB68C5F80822D5F81412C2
:100D3000002BE5D040EAC41001F01F01C0B201341D
:100D40009847202CDFD1F8BD064B9B68002BCDD0F7
:100D500000F015009847C9E700C008200005FE0014
:100D60000002FE00E8070010204870B4D0E91345E7
:100D7000402C26464FF00202A8BF40261C4BC3F869
:100D80002822C3F82462D3F82822920748BF2A46B3
:100D900007D552F8041BC3F81C12D3F82812890790
:100DA000F7D40023124AC2F828323023C2F808329E
:100DB000104BC2F81032D2F80032D906FBD51023FE
:100DC000C2F808323023C2F808320B4BC2F8103296
:100DD000074AD2F80032DB06FBD510233544A41BAA
:100DE000C0E9134570BCC2F808327047E80700102C
:100DF00000C00820000501000005FA0038B50028F1
:100E00003ED14D07694C40D4E56C002D73DD2A4678
:100E1000216DFFF7C7FE0028C0F2B080236D2D1AA8
:100E20000344C4E9135355BB94F85430C3F341133E
:100E300004EB8303DA6D1B6F22653BB104F15002B2
:100E400004F16C0104F154009847D8B93021584A94
:100E5000584BC2F80812C2F81032D2F80032DB0642
:100E6000FBD51020544B5249C2F80802C2F8103288
:100E7000D1F80032DD06FBD51023C1F8083238BDA9
:100E80008028FCD1BDE838406EE7082204F1540107
:100E9000FFF788FE94F85410B4F85A20C1F34113B8
:100EA00004EB8300C06D9B00C4E91320E2660AB125
:100EB000C909E4D023441B6F33B1404A02F11C013D
:100EC000101D984700284FD13021394A394BC2F8BC
:100ED0000812C2F81032D2F80032DC06FBD510201E
:100EE000354B3349C2F80802C2F81032D1F800324B
:100EF000D806FBD5C0E701232D4AC2F82832D2F824
:100F000020321C05FBD55805B9D5C3F3090252B1EF
:100F10000023274913F0030F03F1010308BFD1F8A1
:100F200018029342F6D1002030214FF4A063204AEA
:100F3000C2F82802C2F80812C2F81032D2F8003201
:100F4000D906FBD5102430201D4B1949C2F80842A0
:100F5000C2F80802C2F81032D1F80032DB06FBD525
:100F60001023C1F808328AE7B4F85A30E26E93428F
:100F7000A8BF1346E364BDE83840F5E630210C4ACB
:100F80000C4BC2F80812C2F81032D2F80032D9065F
:100F9000FBD51020084B0649C2F80802C2F81032EF
:100FA000D1F80032DA06FBD566E700BFE80700108B
:100FB00000C00820000541000001010038080010B1
:100FC0000005F2001D4B93F98C20002A02DBD3F8B8
:100FD0008830CBB930211A4A1A4BC2F80812C2F82D
:100FE0001032D2F80032DB06FBD51020164B144924
:100FF000C2F80802C2F81032D1F80032D806FBD588
:101000001023C1F80832704730210D4A0F4BC2F847
:101010000812C2F81032D2F80032D906FBD51020DF
:10102000094B0749C2F80802C2F81032D1F8003261
:10103000DB06FBD51023C1F808327047E807001023
:1010400000C0082000054B0000010100000544001D
:1010500083887BB910B444884CB94378FE2B13D0F5
:10106000FF2B01D1C3883BB1204610BC7047184606
:1010700010BC704700207047064A82F8A030C2F8C2
:10108000A430012010BC70470123126814700B605B
:10109000F7E700BFE807001005490A1892F8003189
:1010A000095C1B0492F8000243EA012318437047CD
:1010B0001CD701002123274AF0B5C2F8A031D2F88D
:1010C000A0315C06FBD501230925AA24552021491E
:1010D000C2F80C31C2F88450C2F88030C2F88C409B
:1010E000C2F88C00D1F888305805FBD5232501249F
:1010F000AA205522174BC1F8A450C1F8A040C1F84E
:10110000AC00C1F8AC20D3F8A8205205FBD54FF4B1
:10111000807240F2011E40F2012C0127022645F2A6
:101120003A0400200C4DC3F804E1C3F808C1C3F829
:101130000071C3F8A861C3F8C450C3F8C821D3F83C
:10114000B021064942F00302C3F8B0211C60886058
:10115000F0BD00BF00C00F400E84F00300ED00E0C2
:101160000EB42DE9F04F814686B00FABBA4F53F85D
:10117000045B4FEA8008029307EB80062C78252C4D
:1011800012D0002C00F058810A2C03D10D20D6F883
:10119000A830984707EB08032046D3F8A83001355C
:1011A00098472C78252CECD16C7804F0EF03202B99
:1011B00000F0348100229246023504F0DF034C2B0C
:1011C00000F0B780A4F14303352B3BD8DFE813F0E0
:1011D000360046003A003A003A003A0046003A002B
:1011E0003A003A003A003A003A003A003A003A002F
:1011F00094003A008E003A003A0052013A003A0058
:101200003A003A003A003A003A003A003A003A000E
:10121000360046003A003A003A003A0046003A00EA
:101220003A003A003A003A003A003A003A003A00EE
:1012300094003A008E003A003A005201029B1A1DB7
:101240001C7802920A2C00F0FC80BB46C2460BEBD5
:101250000A032046D3F8A83098478FE7029B1C6802
:10126000191D002C0291C0F2F98020460A210023AA
:101270000DF117048DF8173000E07046B0FBF1FE59
:1012800001FB1E0C5FFA8CFC0CF13003DBB2392B36
:1012900084BF0CF1370C5FFA8CF302F1FF3B04F8CA
:1012A000013D0AB15FFA8BF28842E6D2002A00F0D3
:1012B000E380534263F0FF031C44514620460FF085
:1012C00089FABAF1000F3FF459AFBAF10A0F03D10E
:1012D0000D20D6F8A83098475046D6F8A830984741
:1012E00014F801AFBAF1000FEFD147E70A21029BD2
:1012F000181D02901868BAE7029BD3F800A00433C7
:101300009AF800400293002C3FF438AFDFF848B160
:101310000BEB890B0A2C03D10D20DBF8A830984782
:101320002046DBF8A83098471AF8014F002CF1D17D
:1013300024E715F8014BA4F14303352B82D801A112
:1013400051F823F03D1200005D120000451200002C
:101350004512000045120000451200005D12000019
:101360004512000045120000451200004512000021
:101370004512000045120000451200004512000011
:1013800045120000F912000045120000ED120000A5
:1013900045120000451200007514000045120000BF
:1013A00045120000451200004512000045120000E1
:1013B00045120000451200004512000045120000D1
:1013C000451200003D1200005D12000045120000B1
:1013D0004512000045120000451200005D12000099
:1013E00045120000451200004512000045120000A1
:1013F0004512000045120000451200004512000091
:1014000045120000F912000045120000ED12000024
:10141000451200004512000075140000AB78A2468A
:10142000A3F13002D2B2092A03D91C4600220335A7
:10143000C3E6EC780435C0E606B0BDE8F04F03B073
:101440007047DFF814B00D200BEB8903D3F8A830F8
:101450004FEA890A9847FAE6E8070010DFF81CB05F
:101460002D200BEB890BDBF8A830019264429847E2
:10147000019AFAE610213AE79A4626E7E8070010B3
:1014800070B540F2E73405460E460DE000BF00BFE0
:1014900000BF00BF00BF00BF00BF00BF00BF00BF54
:1014A00000BF00BF013C11D000212846FEF7C6FF57
:1014B0000306EBD4321100212846FEF7DDFE06F0CC
:1014C0000F020021BDE87040FEF7D6BE334620462D
:1014D000024A0349FFF744FEECE700BF1CDA0100B3
:1014E00008C5010003782DE9F041052B054633D8E6
:1014F000D0E90276D5E906EC01225B0103F1005345
:1015000003F518234168D3F8008002FA01F141EA9B
:101510000801D0E90440196002FA07F702FA06F65A
:1015200002FA04F402FA00F002FA0EF102FA0CF2E6
:10153000D3F800C047EA0C071F601F683E431E60D7
:101540001E6834431C601C682043186018680143FF
:10155000196019680A431A60002103222846FEF721
:101560008BFE41F2040100BF00BF00BF00BF00BFFF
:1015700000BF00BF00BF00BF00BF00BF00BF00BF73
:1015800000BF00BF00BF00BF00BF00BF00BF00BF63
:1015900000BF00BF00BF00BF00BF00BF00BF00BF53
:1015A00000BF00BF00BF00BF00BF00BF00BF00BF43
:1015B00000BF00BF00BF00BF00BF00BF00BF00BF33
:1015C00000BF00BF00BF00BF00BF00BF00BF00BF23
:1015D00000BF00BF00BF00BF00BF00BF00BF00BF13
:1015E00000BF00BF00BF00BF00BF00BF00BF00BF03
:1015F00000BF00BF00BF00BF00BF00BF00BF00BFF3
:1016000000BF00BF00BF00BF00BF00BF00BF00BFE2
:1016100000BF00BF00BF00BF00BF00BF00BF00BFD2
:1016200000BF00BF00BF00BF00BF00BF00BF00BFC2
:1016300000BF00BF00BF00BF00BF00BF00BF00BFB2
:1016400000BF00BF00BF00BF00BF00BF00BF00BFA2
:1016500000BF00BF00BF013985D103222846FEF735
:101660000BFE642400BF00BF00BF00BF00BF00BF6F
:1016700000BF00BF00BF00BF00BF00BF00BF00BF72
:1016800000BF00BF00BF00BF00BF00BF00BF00BF62
:1016900000BF00BF00BF00BF00BF00BF00BF00BF52
:1016A00000BF00BF00BF00BF00BF00BF00BF00BF42
:1016B00000BF00BF00BF00BF00BF00BF00BF00BF32
:1016C00000BF00BF00BF00BF00BF00BF00BF00BF22
:1016D00000BF00BF00BF00BF00BF00BF00BF00BF12
:1016E00000BF00BF00BF00BF00BF00BF00BF00BF02
:1016F00000BF00BF00BF00BF00BF00BF00BF00BFF2
:1017000000BF00BF00BF00BF00BF00BF00BF00BFE1
:1017100000BF00BF00BF00BF00BF00BF00BF00BFD1
:1017200000BF00BF00BF00BF00BF00BF00BF00BFC1
:1017300000BF00BF00BF00BF00BF00BF00BF00BFB1
:1017400000BF00BF00BF00BF00BF00BF00BF00BFA1
:1017500000BF00BF013C85D1214628460322FEF789
:101760008BFD0CF0E1FA022221462846FEF784FDAB
:101770000CF0DAFA2B6A284603F00101C9009B0736
:1017800048BF41F0040141F02001FFF779FE2846EF
:101790000821FFF775FE28460121FFF771FE284654
:1017A000BDE8F04106216BE6012169E6022167E60A
:1017B00001F0030141F0040162E600BF01F00701FE
:1017C00041F008015CE600BF01F00C0141F010019E
:1017D00056E600BFC9B241F0800151E670B540F253
:1017E000E73405460E460DE000BF00BF00BF00BF56
:1017F00000BF00BF00BF00BF00BF00BF00BF00BFF1
:10180000013C11D000212846FEF718FE0306EBD458
:10181000321101212846FEF72FFD06F00F020121AB
:10182000BDE87040FEF728BD33462046024A034912
:10183000FFF796FCECE700BF24DA010008C50100C1
:1018400038B50C46097839B105462846FFF7C6FF7A
:1018500014F8011F0029F8D138BD00BF00207047DF
:101860001846704700207047002070474FF400531F
:1018700000205360704700BF01207047FEE700BFA3
:101880004FF0FF30704700BF4FF0FF30704700BF90
:10189000054B064AD3F8B800002808BF104601449B
:1018A000C3F8B810704700BFE8070010B8980010E0
:1018B0002DE9F047AC4C82B0D4F8BC3013B902B07B
:1018C000BDE8F08741F26F70B4F98E29B4F8381191
:1018D000B4F83A3102FB01F1B4F8F42002EB2142F2
:1018E000B4F9AA1901FB03F302EB234282F31002BD
:1018F000824200F3C6804C21B4F9F839B4F8E6000E
:1019000003F5004300FB03F3DB0B01FB03F39748F4
:101910001B0A83F31003C3F30B1343F4E043A0F853
:101920001C33B4F9FA39B4F8EC5003F5004305FB65
:1019300003F3DB0B01FB03F31B0A83F31003C3F375
:101940000B136FEA43436FEA5343A0F81E3382F34D
:101950001003C3F30B136FEA4343B4F9085AB4F806
:101960002E6105F5004506FB05F5ED0B05FB01F1C4
:10197000090A81F31001C1F30725FF2D08BF4FF4B9
:10198000FF766FEA534318BF6E1C794A1CBFF6B24C
:10199000760002EB45051644B5F81423B6F8145347
:1019A000C9B2AD1A05FB01F102EB1122C2F30B1211
:1019B000D4F86C1A42F4E042A0F80C23A0F80E33DD
:1019C00009B16C488847EFF31281102383F3118823
:1019D00094F8392B94F8383B9A42C0F04581D21ADA
:1019E000D7B281F31188002F00F0CC8000254FF092
:1019F000010894F83A2B94F8736ADFF87C9120E0A0
:101A0000002301201A4684F8738A0CF085FA94F8B2
:101A1000383B94F83A2B84F8736AEFF31281102064
:101A200080F311880133B3FBF2F002FB1033DBB219
:101A300084F8383B81F311880135A9B28F4240F216
:101A4000A180B3FBF2F102FB1131D4F83C0B415CF5
:101A5000F729D5D8080620D5042E01F0F0001CBFC8
:101A600084F8701AA4F8748AD02806D052D8B02806
:101A70004CD044D9C02840F0C685022684F8736A49
:101A8000CBE76E253D49A2F5BB53103B05FB031187
:101A90003B48A0FB0101490B2EE7002EBDD0B4F856
:101AA00074CAA9FB0CE0400800EB4000ACEB000A54
:101AB0001FFA8AFA0CF1010080B204EB0A0CBAF1A9
:101AC000010FA4F8740A8CF8701A00F05A84BAF165
:101AD000020FA2D194F8723A94F8712A94F8701A0D
:101AE0000CF01AFA94F8736A042E00F05A84012359
:101AF00094F83A2BA4F8743A94F8383B8DE701F047
:101B0000E001802902D0A02840F07D85032684F8DA
:101B1000736A82E7E028F9D0F02840F07485A1F1DB
:101B2000F100052800F22D8501A656F820F000BF2F
:101B30007B1A00000D1B00007B1A000083250000AB
:101B400083250000491B000000230120F6211A46CE
:101B500084F8730A00260CF0DFF994F8383B94F807
:101B60003A2B84F8736A58E7E80700100000002059
:101B70001CD7010014120010ABAAAAAAE2FF1D0094
:101B80001F85EB5194F8C230042B00F0598394F870
:101B9000CE30042B00F05483364B94F82C6C5D6FE0
:101BA000D4F8303C002E67D194F8D120002A00F000
:101BB00046846A0140F1D9846B40580160D5002207
:101BC00094F89F3B84F8A12BDF0707D594F9593B84
:101BD00023B194F95A6B002E00F0D98594F89F3BFD
:101BE0009E0707D594F9653B23B194F9666B002EE7
:101BF00000F0368694F89F3B580707D594F9713B5F
:101C000023B194F9726B002E00F0518694F89F3B3B
:101C1000190707D594F97D3B23B194F97E6B002E0B
:101C200000F02B8694F89F3BDA0607D594F9893BA0
:101C300023B194F98A6B002E00F02C8694F89F3B18
:101C40009B061DD594F9953BD3B194F9966BBEB91B
:101C5000B4F8903B00960522314694F8930B09F0B6
:101C600095FA84F8956B0BE094F83A0B1718FF1A65
:101C7000FFB2B6E6008009206B405A0100F14A84A9
:101C800094F9583B94F89327C4F8305C002B40F04B
:101C9000CA831AB384F88F37C4F86C3784F8933743
:101CA000C4F88637C4F88A37C4F8683784F88736AA
:101CB000C4F8643684F88B36C4F87E36C4F88236AD
:101CC000C4F8603684F89738C4F8743884F89B38C0
:101CD000C4F88E38C4F89238C4F8703894F9643B6C
:101CE00094F8BF27002B40F092831AB384F8BB37D7
:101CF000C4F8983784F8BF37C4F8B237C4F8B63799
:101D0000C4F8943784F8B336C4F8903684F8B736FC
:101D1000C4F8AA36C4F8AE36C4F88C3684F8C33892
:101D2000C4F8A03884F8C738C4F8BA38C4F8BE3844
:101D3000C4F89C3894F9703B94F8EB27002B40F0E2
:101D40005A831AB384F8E737C4F8C43784F8EB37FA
:101D5000C4F8DE37C4F8E237C4F8C03784F8DF3699
:101D6000C4F8BC3684F8E336C4F8D636C4F8DA369C
:101D7000C4F8B83684F8EF38C4F8CC3884F8F338AF
:101D8000C4F8E638C4F8EA38C4F8C83894F97C3B9B
:101D900094F81728002B40F022831AB384F81338E4
:101DA000C4F8F03784F81738C4F80A38C4F80E3885
:101DB000C4F8EC3784F80B37C4F8E83684F80F37EA
:101DC000C4F80237C4F80637C4F8E43684F81B397F
:101DD000C4F8F83884F81F39C4F81239C4F8163931
:101DE000C4F8F43894F9883B94F84328002B40F069
:101DF000EA821AB384F83F38C4F81C3884F84338B0
:101E0000C4F83638C4F83A38C4F8183884F8373784
:101E1000C4F8143784F83B37C4F82E37C4F8323787
:101E2000C4F8103784F84739C4F8243984F84B399A
:101E3000C4F83E39C4F84239C4F8203994F9943BC7
:101E400094F86F28002B40F0B2821AB384F86B38F4
:101E5000C4F8483884F86F38C4F86238C4F8663873
:101E6000C4F8443884F86337C4F8403784F86737D7
:101E7000C4F85A37C4F85E37C4F83C3784F873396D
:101E8000C4F8503984F87739C4F86A39C4F86E391F
:101E9000C4F84C3994F9992C94F8243A002A00F0AB
:101EA000CB81002B00F09C80013B84F8243A4FF654
:101EB000FF73B4F8A22C9A4200F09280B4F8A03CD0
:101EC00001339BB29A4200F28980002694F8A43C28
:101ED00094F82C2DA4F8A06C134300F0B8823E4D6A
:101EE0002B78022B71D195F88120002A6DD0B5F99D
:101EF000823006EB061704EBC7073B4493F8A58C2A
:101F00004FEA0619B8F17E0F34D0B5F98430002BB2
:101F100025DB3B4493F8A51C1AE0002395F88700C5
:101F20001A460844C0B2194609F0ECFDB5F98430F0
:101F300095F88120013393FBF2F102FB1133A5F8F0
:101F400084303B4493F8A51C93F9A53C002B06DA9A
:101F500001F07F0303F10C017E3B012BDDD8B8F1CA
:101F60007F0F07D0B5F88230A5F8843094F9B43DDE
:101F700085F8873009EB060704EBC7070FE0B5F9D2
:101F80008230013393FBF2F102FB1133A5F882306A
:101F90003B4493F9A51C93F8A58C002915DA08F0A9
:101FA0007F0303F10C017E3B012BE8D994F8B43D8B
:101FB0004FF400421944C8B20023012109F0A2FDE8
:101FC000B5F9823095F88120DBE78835002E40F0A6
:101FD0003E82012684E700BF8C140010A4F8A03CC8
:101FE00094F9103A002B00F01F81B4F8D429B4F80A
:101FF000B019B4F80E3A8A4200F2868307D28A1AE0
:1020000092B29A4294BF891AC91AA4F8B019B4F8C6
:10201000E029B4F8BC198A4200F2D08207D28A1AA9
:1020200092B29A4294BF891AC91AA4F8BC19B4F89A
:10203000EC29B4F8C8198A4200F2938307D28A1AAD
:1020400092B29A4294BF891AC91AA4F8C819B4F86E
:10205000D629B4F8B2198A4200F27A8307D28A1AD2
:1020600092B29A4294BF891AC91AA4F8B219B4F864
:10207000E229B4F8BE198A4200F23D8307D28A1AD7
:1020800092B29A4294BF891AC91AA4F8BE19B4F838
:10209000EE29B4F8CA198A4200F2248307D28A1AB8
:1020A00092B29A4294BF891AC91AA4F8CA19B4F80C
:1020B000D829B4F8B4199142C0F00B8307D98A1A11
:1020C00092B29A4294BF891AC91AA4F8B419B4F802
:1020D000E429B4F8C0199142C0F0F28207D98A1AF3
:1020E00092B29A4294BF891AC91AA4F8C019B4F8D6
:1020F000F029B4F8CC199142C0F0D98207D98A1AD4
:1021000092B29A4294BF891AC91AA4F8CC19B4F8A9
:10211000DA29B4F8B6199142C0F0C08207D98A1AF8
:1021200092B29A4294BF891AC91AA4F8B619B4F89F
:10213000E629B4F8C2199142C0F0A78207D98A1AD9
:1021400092B29A4294BF891AC91AA4F8C219B4F873
:10215000F229B4F8CE199142C0F08E8207D98A1ABA
:1021600092B29A4294BF891AC91AA4F8CE19B4F847
:10217000DC29B4F8B8199142C0F0D88207D98A1A7C
:1021800092B29A4294BF891AC91AA4F8B819B4F83D
:10219000E829B4F8C4199142C0F0BF8207D98A1A5D
:1021A00092B29A4294BF891AC91AA4F8C419B4F811
:1021B000F429B4F8D0199142C0F0C18207D98A1A23
:1021C00092B29A4294BF891AC91AA4F8D019B4F8E5
:1021D000DE29B4F8BA198A4240F24382521A92B206
:1021E0009A4294BF8918C918A4F8BA19B4F8EA2910
:1021F000B4F8C6198A4240F22982521A92B29A421F
:1022000094BF8918C918A4F8C619B4F8F629B4F807
:10221000D2198A4240F20882521A92B29A4294BF6C
:102220008918C918A4F8D219D4F8B83D0133C4F8F4
:10223000B83D02B0BDE8F087002B3FF438AE33E67E
:10224000B4F8FA30B4F8262AB4F9049AB3F5004F7A
:102250009144B4F9280A89F310091FFA89F94FD07B
:1022600094F89F3B13F0010204D094F9582B002AF4
:1022700040F0BB814FF0FF319E0704D594F9645BB9
:10228000002D40F0AB815D0704D594F9705B002D03
:1022900040F0B2811E0704D594F97C5B002D40F01C
:1022A0009681DD0615D594F9885B95B1D4F8805BED
:1022B00095420ED99B0640F1688294F9943B002B1D
:1022C00000F06382D4F88C1B8D422CBF04210521C1
:1022D0000AE09E0652D594F9943B002B4ED0D4F8D8
:1022E0008C3B93424AD905212C2303FB0143B3F8CD
:1022F000943800FB03F31B1409EB430383F3100929
:10230000D4F8203A4B453FF447ACCD4B1FFA89F740
:1023100003F5966833F808AC33F8066C33F8045CC0
:1023200033F802ECB3F858C9B3F85A09B3F85C199A
:10233000B3F85E29801B491BA2EB0E02ACEB0A0C22
:1023400007FB0CFC07FB00F007FB01F107FB02F2A7
:102350000AEB1C4C06EB104605EB11450EEB124E3A
:10236000A3F808CEA3F80A6EA3F80C5EA3F80EEE4D
:1023700008334345CED1C4F8209A0DE44D1CBFD09C
:10238000B2E7022E7FF449AB002394F8712A94F847
:10239000701A0BF0C1FD94F8736A042E18BFA4F8EC
:1023A00074AA94F8383B94F83A2BFFF736BB002A0E
:1023B0007FF470AD4FF6FF7384F8942B84F8962B5E
:1023C000A4F8923B66E5002A7FF438AD4FF6FF7320
:1023D00084F8882B84F88A2BA4F8863B2EE5002A03
:1023E0007FF400AD4FF6FF7384F87C2B84F87E2BCE
:1023F000A4F87A3BF6E4002A7FF4C8AC4FF6FF73EA
:1024000084F8702B84F8722BA4F86E3BBEE4002A8B
:102410007FF490AC4FF6FF7384F8642B84F8662B3E
:10242000A4F8623B86E4002A7FF458AC4FF6FF73B1
:1024300084F8582B84F85A2BA4F8563B4EE46B4092
:1024400059017FF51DAC6B013FF5B9AB94E094F8F1
:102450002C0C00283FF4C4AD7A4E334606F18001BF
:1024600002E099423FF4BCAD13F8012BFF2AF8D0EB
:1024700094F8282CFF2A0DD0002394F82A1C02F08F
:102480007F0008440C30C0B21A46194609F03AFBE6
:1024900094F82C0C022800F0AA81032800F0968101
:1024A00001287FF49DADB4F9243CB4F9260C013326
:1024B0005A4202F07F0203F07F0358BF5342E218F2
:1024C00092F8A42BC3F17F01FF2A1BB2EFD0884200
:1024D000EDD01A46A4F8243C224492F8A43B94F888
:1024E000290C03F07F030C3018444FF40042002302
:1024F0000121C0B209F006FBB4F9243C94F8291C70
:10250000E21892F8A42B84F82A1C84F8282CA4F84A
:10251000263C65E505F08063002B0CBF01270027F2
:102520001DD094F92B3CD3B1DFF818E14FF0FF0C2C
:1025300070460EF1FF330EF17F0113F9012F002ACF
:10254000B8BF83F800C09942F7D10EF1800202E0D3
:10255000904200F0298110F8013BFF2BF8D084F85D
:102560002C6C84F82B7CFFF78BBB5F0100F10281A0
:102570006B405E017FF584AB012384F8A13BFFF73C
:102580007FBBF02946D0F7293DD1B4F8742A2E4BF1
:10259000A3FB02035B0803EB4303D31A9BB2234460
:1025A000013283F8701A90B294F8723A94F8712A52
:1025B00094F8701AA4F8740AFFF7CCBA521A92B2BF
:1025C0009A4294BF8918C918A4F8BC192FE5D4F809
:1025D000745B954284BF2A46032162E6D4F85C5BB3
:1025E000954284BF2A4601214DE6D4F8502BB2FA19
:1025F00082F1490949423FE6D4F8685B954284BFBD
:102600002A46022146E6002684F8736AA4F8746A12
:10261000FFF703BA042684F8701A012184F8736A5C
:10262000A4F8741AFFF7F9B9BFF4FEAD8A1A92B292
:102630009A4294BF891AC91AA4F8D219F4E500BFC6
:10264000147E00108C130010ABAAAAAABFF4DDAD53
:102650008A1A92B29A4294BF891AC91AA4F8C61962
:10266000D3E5BFF4C3AD8A1A92B29A4294BF891AD5
:10267000C91AA4F8BA19B9E5521A92B29A4294BF8B
:102680008918C918A4F8CE1971E5521A92B29A4263
:1026900094BF8918C918A4F8C21958E5521A92B201
:1026A0009A4294BF8918C918A4F8B6193FE5521A7E
:1026B00092B29A4294BF8918C918A4F8CC1926E599
:1026C000521A92B29A4294BF8918C918A4F8C01934
:1026D0000DE5521A92B29A4294BF8918C918A4F80B
:1026E000B419F4E4521A92B29A4294BF8918C918E4
:1026F000A4F8CA19DBE4521A92B29A4294BF89181C
:10270000C918A4F8BE19C2E4521A92B29A4294BFF0
:102710008918C918A4F8B01979E4521A92B29A42E9
:1027200094BF8918C918A4F8C41940E5521A92B286
:102730009A4294BF8918C918A4F8B81927E5521A03
:1027400092B29A4294BF8918C918A4F8D0193EE5EC
:10275000521A92B29A4294BF8918C918A4F8B219B1
:1027600085E4521A92B29A4294BF8918C918A4F803
:10277000C8196CE408F096FF594B93E80300C4F8BD
:102780004801A4F84C11FFF77BBA0421ACE5B4F87A
:10279000543B00963246314694F8570B08F0F6FC4D
:1027A00084F8596BFFF71ABA94F8283CFF2B3FF4D2
:1027B000D6AE03F07F00002394F82A2C194610446B
:1027C0000C301A46C0B209F09DF9C8E6B4F9243CB1
:1027D00001335A4202F07F0203F07F0358BF534295
:1027E000E21892F8A42B1BB2FF2AF1D071E6002563
:1027F0003C4B06F17F0013F8012F691CFF2A18BF1C
:10280000CDB28342F7D1012D5ED80021B4F9245C0A
:10281000002D03DA00231D46A4F8243C2A46002696
:102820000DE001265B4203F07F0358BF5842231896
:1028300093F8A43B02B2FF2B18BF5FFA8CF1A718E4
:1028400097F8A47B531CFF2F03F07F0001F1FF3C9E
:10285000E7D00029E5D1002E40D0A4F8242C3BE697
:10286000B4F8603B00960122314694F8630B08F0FF
:102870008DFC84F8656BFFF7BDB9B4F8783B009622
:102880000322314694F87B0B08F080FC84F87D6BC2
:10289000FFF7C8B9B4F8843B00960422314694F897
:1028A000870B08F073FC84F8896BFFF7C7B9B4F89D
:1028B0006C3B00960222314694F86F0B08F066FCE0
:1028C00084F8716BFFF7A2B90DF090FA013D90FB0F
:1028D000F5F303FB15010131C9B297E72A46FBE581
:1028E000801300108B13001070B540200F26C025F8
:1028F00000241D491D4BC86100BF00BF00BF00BFC1
:1029000000BF00BFDA68D207FCD59E60DA685207C4
:10291000FCD59A68DA68D207FCD59D60DA68520760
:10292000FCD59A68DA68D207FCD59C60DA68520751
:10293000FCD59A68D2B200BF00BF00BF00BF00BF85
:1029400000BF12F0010C8861D5D112F0040006D14D
:10295000130700D470BD0649FEF702FCFEE760468F
:102960000449FEF7FDFBFEE700800920000003405C
:1029700048C5010024C501002DE9F04140254C4C1B
:102980001646E5610D461C4600BF00BF00BF00BFF4
:1029900000BF00BF474AD368DF07FCD5132393600D
:1029A000444AD3685907FCD59368424AC10AC70E06
:1029B000D368DB07FCD597603E4AD3685F07FCD538
:1029C00093683C4AC00CD368DB07FCD5C0B290606A
:1029D000384AD3685F07FCD59368364AD368D8076E
:1029E000FCD5C9B2334B9160D8684207FCD59B68CF
:1029F00000BF00BF00BF00BF00BF00BF4FF04008D6
:102A00002B4FC7F81880FFF76FFFC7F81C8000BF77
:102A100000BF00BF00BF00BF00BF264AD068C30789
:102A2000FCD50321234B9160D8684707FCD5F00003
:102A30009B68204900F0F800CA68D607FCD51D4BFA
:102A40008860DA685207FCD59B681A49CA68D307C0
:102A5000FCD50022174B8A60DA685707FCD59B68C3
:102A60001449CA68D607FCD50022124B8A60DA687E
:102A70005007FCD50026691E89B29B680D4A601E6E
:102A80000C44D168C907FCD59660D1684B07FCD5CA
:102A9000936800F8013FA042F3D100BF00BF00BF20
:102AA00000BF00BF00BF4022014B9A61BDE8F0812A
:102AB00000800920000003402DE9F0474026072050
:102AC0000021674D674B2A68674C32432A60DA69F8
:102AD000AE6122F0070242F00202DA611A6A634D27
:102AE00022F0070242F002021A625A6A82B022F011
:102AF000070242F002025A62D4F8C42042F4806213
:102B0000C4F8C4205A4A5B4C106051609A6922F0A4
:102B100007029A612E68B4EB560F7CD3022240263E
:102B2000534BD2B218684E4CC0B21860186840EAD5
:102B3000012119601A615A6842F002025A60E66186
:102B400000BF00BF00BF00BF00BF00BFDA68D207F0
:102B5000FCD5FF21464A9960D3685F07FCD593688E
:102B600000BF00BF00BF00BF00BF00BF40263C4CFD
:102B7000A661FFF7B9FEE66100BF00BF00BF00BF5E
:102B800000BF00BF3A49CB68DE07FCD59F23384A17
:102B90008B60D3685C07FCD593683549CB68D80750
:102BA000FCD50023324A8B60D3685907FCD5936863
:102BB0002F49CB68DA07FCD500232D4A8B60D368F8
:102BC0005B07FCD596682A4BF6B2DC6814F001046A
:102BD000FBD0002226499A60CB685F07FCD58F683E
:102BE00000BF00BF00BF00BF00BF00BF4FF04009E3
:102BF000DFF86C80FFB23B46324600201E49C8F821
:102C00001890FEF7ADFA0B2E01D1122F36D02046C8
:102C100002B0BDE8F087B4EB960F1DD202210A4640
:102C200001FB0223B6FBF3F3A34201F101007FF69F
:102C300076AFB0F5807F0DD10021023201FB022377
:102C4000B6FBF3F3A34201F101007FF668AFB0F5E4
:102C5000807FF1D00146E3E7022201215FE700BF58
:102C60000080092000C0024000C00F40000000109A
:102C7000000003408096980070C50100C8F81C90C1
:102C800000BF00BF00BF00BF00BF00BF8849CB68C6
:102C9000DE07FCD51F23864A8B60D3685C07FCD512
:102CA00093688349CB68D807FCD5A023804A8B6002
:102CB000D3685907FCD593687D4AD368DB07FCD5F8
:102CC00000217B4B9160DA685707FCD59B6800BFF9
:102CD00000BF00BF00BF00BF00BF4FF0400C4FF46B
:102CE000001200274FF0A0564FF47A640A2069685A
:102CF000704BDFF8C481A3FB0153704D9B0CDFF8D0
:102D0000C0E1A5FB011503EB8301C8F818C0C1EBB6
:102D1000C101C3EBC308AEFB01C1C3EBC80CAEFBE2
:102D20000C8CC3EB0313AEFB03E389094FEA9C1C35
:102D300001319B090CF1010C090441EA0C21ED0B56
:102D400001330B43013DC2F89870C2F89450C2F8A9
:102D50009030C2F8E86FC2F88440C2F88000D2F820
:102D60008C10D2F8E03F5E01FBD54FF08060554BF0
:102D7000C2F8E80F994200F095804FF000095249DF
:102D80004846FEF7EDF94FF400144FF080584D46D9
:102D90004E4F4FF0FF0A04E02A463946FEF7E0F9AD
:102DA000354601226E04304611460DF106038DF8BA
:102DB00006A08DF807A0FFF7DFFD012206F50060F1
:102DC0000DF107031146FFF7D7FD9DF806009DF8AA
:102DD00007306E1C1840B6B2DED004224FF0A0536C
:102DE00009F03F01C4F8E83FC4F88410C4F880201B
:102DF0000231C4F888504FEA9912D4F8E03F5D01DF
:102E0000FBD593014FF08062C4F8E82FC4F8E88F37
:102E1000C4F884300623C4F88030D4F8E03FD800EA
:102E2000FBD53F2988BF002309F102091FFA89F960
:102E3000C4F8E88F88BFC4F88430B9F57A6F01D040
:102E40003546A6E74FF400134FF0A054202005218B
:102E50001C4AC3F8E84FC3F88400C3F88010C3F8D5
:102E60008820D3F8E02F5201FBD54FF080654FF05A
:102E700080544FF4786006214FF40012C3F8E85FE5
:102E8000C3F8E84FC3F88400C3F88010D2F8E03FDD
:102E9000DB00FBD54FF0805300200D49C2F8E83F1E
:102EA000FEF75EF90024204602B0BDE8F08700BFBF
:102EB0000000034083DE1B4300800920819F5E16D3
:102EC000D34D6210371338428CC50100A8C50100EC
:102ED000C0C501006D4AD2F8E03FD2F8E41F0B40B4
:102EE00000F0D3802DE9F04700252F46684E694851
:102EF00096F860CED6F8644E9907C2F8E83F2ED017
:102F0000D2F8181101F180610431C90009684FEA53
:102F1000D1484FEA515909F008094FEAD15E08F04B
:102F2000100848EA09080EF0040E4EEA080EC1F334
:102F3000C0694FEA915849EA0E0E08F0400848EA85
:102F40000E084FEA116E0EF0200E090A4EEA080E26
:102F500001F4805151EA0E0108BF23F0020313F07F
:102F6000300F18BFD2F828111B0724D5D2F818113A
:102F7000D2F81431D2F810E199421CD0D2F81811CD
:102F8000D2F8183103F180630433DB001B6810EAC8
:102F9000030E10D101F180630433DB001B68D2F80B
:102FA0001851C3F30A03991E04EB0108B8F5C06F6A
:102FB00011D374460125D2F8E03FD2F8E41F0B404C
:102FC0009AD10DB1C6F8644E0FB9BDE8F08786F806
:102FD00060CEBDE8F08700291DDD05F18065E900C0
:102FE000D1F800E0DD1E0CEB4C012B4B04EB412132
:102FF0000D2D03EB410303D90EF102018B422CD1BD
:1030000025F0010402341C44AEEB03015D5A23F8A1
:10301000025BA342FAD11D4BD3F8183103F1806350
:103020000433DB001B685D000BD4444601251749BF
:10303000D1F81831032B2B4408BF0023C1F81831F5
:10304000B9E700240CF1010C5FFA8CFCBCF1010F14
:103050004FF0010788BFA446E8E771466D080135C7
:103060004FEA55090EEB8909A3EB0E0A0C684AF8E2
:10307000014004318945F9D1EC0725F00101CAD599
:103080003EF8114023F81140C5E770470040082082
:10309000E80700100000901B7026001040F6FE7339
:1030A0004FF4001210B409214FF0A0544000034027
:1030B000C2F8E84FC2F88430C2F88010D2F88C0011
:1030C000D2F8E03F5B01FBD54FF0806380B210BCCB
:1030D000C2F8E83F704700BFF8B5457815B1032541
:1030E0002846F8BD044600F13007C1F34E100E0328
:1030F000FFF7D4FFC6F3100646EA4046394630468D
:103100000AF0D4FA04F5036106F500600AF0CEFA7D
:103110004AF65523B4F82E229A420FD1D4F86630DD
:10312000084A23F07F439342DAD0D4F8825025F046
:103130007F45AD1A18BF01252846F8BD022528464F
:10314000F8BD00BF464154002DE9F041974C94F87A
:103150008F30D4F8685ED4F86C6E2F2B31D8DFE84E
:1031600013F0A300300030008B0068003000300006
:1031700030003000300030003000300030003000CF
:10318000300030003000510030003000300030009E
:1031900030003000300030003000300030003000AF
:1031A000300030003000300030003000FF003000D0
:1031B0003000A8003000ED0030003000300030005A
:1031C00068004FF4A423C4F8A4300023C4F8683E78
:1031D000FDF7F8FE01210322D4F8700ED4F88830F0
:1031E00084F8801E1B1A724823EAE373C4F8740E35
:1031F000D4F88400C4F87C3EC4F8780E84F8A0208B
:10320000BDE8F081AC466B4F07F1200E3D460CF156
:10321000100C0FCD754507F110074CF8100C4CF849
:103220000C1C4CF8082C4CF8043CEFD13868CCF856
:103230000000D4F8700E604BB042C4F8683E44D829
:10324000B042DDD1D4F88850B54201D0FDF7BAFEC6
:10325000002203235649AD1BC4F8741ED4F8841011
:1032600025EAE57584F8802E84F8A030C4F8781E2D
:10327000C4F87C5EBDE8F0810023504FD4F8A4C0B0
:10328000C4F8A4300FCFEB603B884FEA1C484FEAEC
:103290001C2E28606960AA6085F8028085F80CE021
:1032A0002B8285F80DC0C4E7D4F8A430002BC0D021
:1032B0008BE7C6F30B05002D58D03F4BD4F8700EAA
:1032C0002B44B042C4F8683EBAD9851B402D28BFB4
:1032D000402516213A4AC2F82812C2F82452D2F8E0
:1032E0002812890707D553F8041BC2F81C12D2F81C
:1032F00028128F07F7D40023314AC2F8283230232E
:10330000C2F808322F4BC2F81032D2F80032D90678
:10331000FBD51023C2F808323023C2F808322A4BFA
:10332000C2F81032264AD2F80032DB06FBD5102351
:103330002E44C4F86C6EC2F8083281E706F14003EF
:10334000C3F30B05D4F89130002DB6D11BBA1A483F
:1033500003EB16310AF03AFC10BBD4F86C6EACE704
:103360004FF48013194A6B602A6062E7D4F89130F9
:103370001BBA03EB1633C3F34E101E03FFF78EFE8A
:10338000C6F3100646EA404630460B490AF08EF96D
:1033900006F500600E490AF089F9D4F86C6E8CE7E6
:1033A0004FF44333C4F8A4300FE700BFE807001020
:1033B00055534253E4DC010070160010D0DC0100CC
:1033C00000C0082000050B000005FA000000F9FF0E
:1033D000701E00108B0708D42F4890F8A030032BE4
:1033E0001FD0042B03D0022B00D07047ACE6302155
:1033F0002A4A2B4BC2F80812C2F81032D2F8003217
:10340000D906FBD51020274B2449C2F80802C2F880
:103410001032D1F80032DB06FBD51023C1F8083298
:1034200070470D2216211D4B30B4C3F82812C3F883
:103430002422D3F82822940748BF00F6746207D5E7
:1034400052F8041BC3F81C12D3F828128907F7D4CA
:1034500000243021114A144BC2F82842C2F8081245
:10346000C2F81032D2F80032DD06FBD51025302428
:103470000E4B0A49C2F80852C2F80842C2F810328C
:10348000D1F80032DC06FBD510220023C1F8082257
:1034900080F8A03030BC7047E807001000C008205A
:1034A00000054B000001010000050B000005FA00BB
:1034B0008A0714D42DE9F047A04C94F8A030042BCF
:1034C0000BD8DFE803F0286703030D000022114644
:1034D000FDF768FB002384F8A030BDE8F087704753
:1034E0003021974A974BC2F80812C2F81032D2F82E
:1034F0000032D906FBD51020934B9149C2F808023F
:10350000C2F81032D1F80032DB06FBD51023C1F827
:103510000832BDE8F08720228C49FDF743FB1F28C5
:103520005AD18B4BD4F880209A4255D194F88D30E3
:10353000002B51D194F88E20511E0F294CD894F8AD
:103540008F008449C4F86C3E01EB501191F8EC15E2
:10355000C4F8703E914294F98C3078D82F2872D8F4
:10356000DFE800F08E7171978E71717171717171F8
:10357000717171717171B3717171717171717171F9
:10358000717171717171717171A57171DF71C87132
:10359000717171C0D4F86C5ED4F8706EB542C0F031
:1035A000E380AE4299D1D4F88850B54201D0FDF7FE
:1035B00009FD002203236849AD1BC4F8741ED4F82A
:1035C000841025EAE575C4F8781EC4F87C5E84F89A
:1035D000802E84F8A03080E73021594A5F4BC2F832
:1035E0000812C2F81032D2F80032DF06FBD51020E4
:1035F000554B5349C2F80802C2F81032D1F80032D4
:10360000DE06FBD5102530204E4B4D4AC1F808523E
:10361000C1F80802C1F81032D2F80032DD06FBD53D
:103620001020494B4649C2F80802C2F81032D1F8BE
:103630000032D806FBD510220423C1F8082284F8F2
:10364000A030BDE8F0874FF4A423C4F8A4300023D1
:10365000C4F8683EFDF7B6FC01210322D4F8883097
:103660003D4823EAE373C4F8740ED4F88400C4F828
:103670007C3EC4F8780E84F8801E84F8A0202CE7E5
:10368000374BC4F8683E022384F8A030BDE8F04709
:103690005AE5334994F89320C4F8681E002AF2D002
:1036A000002BC0F22481FDF78DFC0221D5E72C4AC6
:1036B000002BC4F8682EF6DA0822D4F88850954218
:1036C000C0F0F780C4F8702EDDE7254994F8932008
:1036D000C4F8681E002AD6D0002BE4DA242A28BFBA
:1036E0002422EAE794F890309B07C9D51D4BC4F813
:1036F000A430ACE7B4F89620194952BA92B2C4F893
:10370000681E1103002ABED0002BD4F88850CADBF3
:10371000A94200F2CE800123C4F8701E84F8A030C4
:10372000DBE6B4F896100E4A49BA89B2C4F8682E9E
:103730000A030029A7D0002BB5DABEE7E80700107E
:1037400000C00820000544000001010068080010C6
:10375000555342431CD701005553425300054B00BB
:103760007016001000240500D4F8687E0220394647
:10377000721BFDF717FA94F88F3080462F2B19D85B
:10378000DFE803F06B1818503E18181818181818AE
:10379000181818181818271818181818181818189A
:1037A000181818181818181818901818701845189C
:1037B0001818183E4FF4A423C4F8A4300023C4F80A
:1037C000683EFDF7FFFBD4F88830012103229B1BE4
:1037D00046E7DFF834E10EF12009F4461037BCE883
:1037E0000F00CC450EF1100E47F8100C47F80C1CDA
:1037F00047F8082C47F8043CEFD1DEF800003860A9
:10380000424B4544C4F8683EC4F86C5EC9E605F115
:103810004003C3F30B07D4F89120002F5BD03B4B40
:103820003B44EEE70023DFF8E8C0D4F8A4E0C4F896
:10383000A430BCE80F00FB60BCF800304FEA1E4A21
:103840004FEA1E2938607960BA6087F802A087F8CD
:103850000C9087F80DE03B82D2E7D4F8A430002B1F
:10386000CED0ABE7C5F30B07002FD8D1D4F8910029
:1038700000BA00EB15300503C0F34E10FFF70EFC45
:10388000C5F3100545EA40452846204909F00EFFDA
:1038900005F500601F4909F009FFD4F86C5ED4F803
:1038A000706EBCE74FF480137B60A3F5B8133B60E8
:1038B000A6E7FDF787FB022203231749C4F87C5EC5
:1038C000C4F8741ED4F8841084F8802EC4F8781ECE
:1038D00084F8A03001E612BA0C4802EB15310AF068
:1038E00075F940B9D4F86C5ED4F8706E97E7122A77
:1038F00028BF1222E1E64FF44333D4F8706EC4F8C7
:10390000687EC4F8A4305CE7E4DC010070160010A7
:10391000D0DC0100701E001055534253F0B5C3B007
:1039200002AD4FF48072002128460CF053FF0024B2
:103930000126A0B2FFF7B2FBC0F3CC03EA5C00F0B3
:103940000700013406FA00F01043B4F5FA6FE854AA
:10395000EFD10026FF27344605E00134B4F5006FAF
:1039600006F5003623D0C4F3CC03EB5C04F0070269
:103970001341DB07F1D40122304611460DF1060355
:103980008DF806708DF80770FEF7F6FF01220DF135
:103990000703114606F50060FEF7EEFF9DF80620CE
:1039A0009DF807301A42D8D0204643B0F0BD002021
:1039B0000349FDF7D5FB01200249FDF7D1FBFEE7E6
:1039C0000CC7010028C701002DE9F041C66A8E42EC
:1039D00004D0037904460D461BB93DB90020BDE86B
:1039E000F0814378DBB10120BDE8F0816378002BE2
:1039F000F9D1C5F34E10FFF751FB2E03C6F31006A5
:103A000046EA4046304604F1300109F04FFE04F525
:103A1000036106F5006009F049FEE562DEE700F1AA
:103A20003008314640460AF0D1F80028DBD1D4E90D
:103A300007321A44B2422071CFD9E778012FCCD98E
:103A40001E44637863B9013F31464046FFB20AF035
:103A5000BDF8012FC1D0E3691E446378002BF2D07A
:103A6000002DBBD0BFE700BF2DE9F843077804461F
:103A7000022F0D46164608D0032F4ED0012F1CD022
:103A8000022001232371BDE8F88343895B08B1FB61
:103A9000F3F3016A1944FFF797FF0028F1D1638916
:103AA0006D00B5FBF3F103FB1155C6F30722254466
:103AB00085F8306085F8312051E0438901EB5108E9
:103AC000B8FBF3F3016A1944FFF77EFF0028D8D151
:103AD000618908F10109B8FBF1F301FB1388B9FB17
:103AE000F1F1236AA0441944EB073DD598F8303032
:103AF000204603F00F0343EA061388F8303027719D
:103B0000FFF762FF0028BCD16289C6F30713B9FB37
:103B1000F2F102FB1199A1443BE043899B08B1FB00
:103B2000F3F3016A1944FFF74FFF0028A9D1638915
:103B3000AD00B5FBF3F203FB125505F13002224450
:103B4000D37825441B0603F070433343C3F30721A6
:103B500085F830305170190C1B0E9170D370012311
:103B600023710020BDE8F88388F830602046277173
:103B7000FFF72AFF002884D16389C6F30326B9FB27
:103B8000F3F203FB1299A14499F8303023F00F03AC
:103B9000334389F83030E2E7F8B5C56A04460DB121
:103BA00003793BB92378032B2BD06078003818BFFA
:103BB0000120F8BD43780BB10120F8BD00F13007BA
:103BC000294638460AF002F80028F5D1E369226A4E
:103BD00020711A449542E5D2E678012EE2D91D44BF
:103BE0006378002BDED1013E29463846F6B209F053
:103BF000EDFF012ED6D0E3691D446378002BD1D1AF
:103C0000F1E76379002BD0D0002104F130034FF4A9
:103C100000721846E1620CF0DDFD4AF655220C49AF
:103C200003460C48C4F814122063D4E90301C4F815
:103C30001C026078C4F81812A4F82E2210B10023D8
:103C40006371B3E71846616909F0C0FF6078F6E771
:103C50007272416152526141012940F2928083693E
:103C60002DE9F0478B420D4604463DD94FF001083F
:103C70002378022B3BD0032B04D0012B51D0012001
:103C8000BDE8F0876389216A9B08B5FBF3F3204602
:103C90001944FFF799FE0028F1D16189AB00B3FB0D
:103CA000F1F201FB123303F1300222449678D0780E
:103CB000234493F83030360446EA00661E435378B6
:103CC00046EA032636F0704659D0012E0CD0A3697F
:103CD000AB4209D92778022F00F09480032F5FD0E0
:103CE000012F50D0012323710220BDE8F0876389A2
:103CF000216A5B08B5FBF3F320461944FFF764FE25
:103D00000028BCD161896B00B3FBF1F201FB1233D7
:103D1000234493F8312093F8306056EA0226D4D138
:103D20002DE0638905EB5506B6FBF3F3216A2046C7
:103D30001944FFF749FE0028A1D16189771CB6FB21
:103D4000F1F301FB1366B7FBF1F1236A2644204629
:103D5000194496F83060FFF737FE00288FD161894B
:103D6000B7FBF1F301FB1377274497F83030EF07E7
:103D700046EA03267FD4C6F30B06002EA5D1002009
:103D8000B3E70220704705EB5509B9FBF1F1236A4F
:103D900020461944FFF718FE002849D02771A4E7F0
:103DA0008908B5FBF1F1236A20461944FFF70CFEA0
:103DB00020BB6389AD00B5FBF3F203FB125505F19F
:103DC00030032344DA78254402F0F00285F830000D
:103DD000A3F80100DA70236984F804805A1C08D023
:103DE000A2690133B242236184F80580C7D9354600
:103DF0003EE7A369B342C2D9354639E701232371AF
:103E0000BDE8F0874908B5FBF1F1236A2046194463
:103E1000FFF7DAFD0028F1D163896D00B5FBF3F2FD
:103E200003FB1255254485F8300085F83100D2E7B0
:103E3000618909F1010AB9FBF1F301FB1399BAFB9E
:103E4000F1F1236AED071944A14418D489F8300030
:103E500020462771FFF7B8FD0028CFD16389BAFB50
:103E6000F3F203FB12AAA2449AF8300000F0F0002B
:103E70008AF83000AFE736097FF427AF7FE799F87B
:103E80003030204603F00F0389F830302771FFF7F8
:103E90009BFD0028B2D16389BAFBF3F203FB12AA9F
:103EA000A244E5E7F8B503780446022B0D4606D098
:103EB000032B49D0012B1AD04FF0FF30F8BD4389B6
:103EC000016A5B08B5FBF3F31944FFF77DFD002899
:103ED000F2D163896D00B5FBF3F203FB1255254463
:103EE00095F8313095F8300040EA0320F8BD438959
:103EF00001EB5106B6FBF3F3016A1944FFF764FDC9
:103F00000028D9D16389771CB6FBF3F2B7FBF3F035
:103F100003FB1266216A26440144204696F830606D
:103F2000FFF752FD0028C7D16389B7FBF3F203FB0B
:103F30001277274497F8303046EA0320EB074CBF4E
:103F40000009C0F30B00F8BD4389016A9B08B5FB6B
:103F5000F3F31944FFF738FD0028ADD16389AD00B4
:103F6000B5FBF3F203FB125505F1300323449878B7
:103F7000D9782C4494F8302000045B7840EA016042
:103F8000104340EA032020F07040F8BD2DE9F04FC7
:103F900004464FF0FF0A83B0006821694FF6FF79AD
:103FA0005546FFF711FD002830D1626911780029CC
:103FB00049D0E529D37A06D013F0080003F03F0674
:103FC00045D00F2E7BD0FF25E38801339EB2002E13
:103FD00039D02169002936D0206843895B09B6FBB6
:103FE000F3F203FB12639BB233B9E768013121613D
:103FF0007FB90289B24226D900F1300202EB4313A5
:10400000E6806361FFF7E0FC0028CED003B0BDE896
:10401000F08F90F802C00CF1FF3C1CEA020FEBD1CC
:10402000012F5FD083699F425CD23946FFF73AFF88
:104030000128034656D9421C00F00E81206882698F
:104040009342C0F0F680042003B0BDE8F08F0F2E3D
:1040500035D0002D00F0A480A369A4F82090D97A6F
:10406000C907B0D41D7811788D42ACD15D785178F4
:104070008D42A8D19D7891788D42A4D1DD78D178F8
:104080008D42A0D1157919798D429CD155795979F4
:104090008D4298D1957999798D4294D1D579D979F4
:1040A0008D4290D1157A197A8D428CD1557A597AF0
:1040B0008D4288D1927A9B7A9A42A7D083E7D4F82E
:1040C0001CC0E388BCF1000F3FF47FAF4E060BD558
:1040D00092F80DA0238401F0BF05517B514508D013
:1040E000FF2572E7022091E7A942F9D1517B5145A2
:1040F000F6D111784FF0010B21F0400808F1FF389C
:1041000008EB4800DFF854E108EB8008019506E071
:104110004FF6FF708542E3D15148864533D01EF8F3
:10412000010B15186E78155C45EA0625BBF1000FEA
:10413000EED04C4F6120BB46002603E03BF8020F57
:10414000013630B18542F9D1474800EB4606B6F852
:10415000E457B8F1270FC3D83CF818B06120002607
:1041600008F1010803E037F8020F013630B1584575
:10417000F9D13D4800EB4606B6F8E4B75D45AFD14E
:1041800037488645CBD14806019D06D5BBF1000FC7
:1041900003D03CF81820002AA2D1013DEDB214E76B
:1041A0005578CB0143EA51032B44C3F3460141EA5E
:1041B000C3119378C9B21944C1F3460343EAC1134A
:1041C000D178DBB20B44C3F3460141EAC311137942
:1041D000C9B21944C1F3460343EAC1135179DBB2B2
:1041E0000B44C3F3460141EAC3119379C9B21944A0
:1041F000C1F3460343EAC113D179DBB20B44C3F3E5
:10420000460141EAC311137AC9B21944C1F3460306
:1042100043EAC113517ADBB20B44957AC3F34601EA
:1042200041EAC3132B4403F0FF0353457FF414AF5B
:10423000ECE6023AE360023B93423BBF8278816A3C
:10424000002103FB0211428921615209B6FBF2F3FE
:1042500002FB13639BB2CFE60120D7E610DD01001D
:104260001DDD010020DD01001CD701002DE9F84310
:1042700005460E46F1B9C7688369002F00F0B88083
:104280009F4228BF01273C4601349C4221D3012F85
:1042900000F0AC80022B1ED902242B78022B00F0F8
:1042A0008A80032B5ED0012B19D04FF0FF342046BB
:1042B000BDE8F88301290ED0836999420BD2FFF73C
:1042C000F1FD0128044606D9AB69834204D837467C
:1042D000D9E7012CE1D101242046BDE8F8836B89A0
:1042E00004EB5408B8FBF3F3296A28461944FFF796
:1042F0006BFB0028D9D1698908F10109B8FBF1F3FA
:1043000001FB1388B9FBF1F12B6AA8442846194434
:1043100098F83080FFF758FB0028C6D16B89E10779
:10432000B9FBF3F203FB1299A94499F8303048EA3B
:1043300003235FD51B0938D1AB69A342CBD96FF0FA
:10434000704221462846FFF78FFB002865D1002EDA
:1043500055D12B69EC605A1CBED00122013B2B6168
:104360006A71B9E76B89296A9B08B4FBF3F32846A5
:104370001944FFF729FB002897D16A89A300B3FBF2
:10438000F2F102FB113303F130022A442B4493F87B
:1043900030109378D0781B04527843EA00630B43C3
:1043A00043EA022333F07043C6D0012B93D0A742D7
:1043B0001CD0AB6968E76B89296A5B08B4FBF3F32F
:1043C00028461944FFF700FB00287FF46EAF6A8986
:1043D0006300B3FBF2F102FB11332B4493F831205D
:1043E00093F8303053EA0223DFD1A5E7002473E7C6
:1043F000012748E7C3F30B03002BD6D19CE7012E1E
:104400003FF469AFAB699E42BFF465AF22463146C7
:104410002846FFF729FB00289BD001283FF445AF31
:1044200059E700BF2DE9F04784680646012CC1809A
:1044300026D00568AB69A34222D988461CB36A8995
:10444000AF78520902FB07F7BFB28F4268D89C428F
:1044500016D22B78022B00F09F80032B78D0012BF3
:1044600021D00120BDE8F0876C6A7CB16A89AF7801
:10447000520902FB07F7BFB2B94251D3012CE6D172
:104480000220BDE8F0872A78032AEDD000222B898C
:10449000F2604345F4D96A89686A5209B8FBF2F3BD
:1044A00099B201444AE06B8904EB5409B9FBF3F378
:1044B000296A28461944FFF787FA0028D1D169896B
:1044C00009F1010AB9FBF1F301FB1399BAFBF1F110
:1044D0002B6AA9442846194499F83090FFF774FADA
:1044E0000028BED16B89BAFBF3F203FB12AAAA44DF
:1044F0009AF8303049EA0329E3074CBF4FEA191410
:10450000C9F30B04012CBBD93568AB69A342B7D9F9
:10451000A8EB07011FFA81F8474598D96A89520923
:10452000023BF460023C9C423BBFAB78A86A00208F
:1045300004FB0300B8FBF2F399B2014402FB1383BE
:1045400030359BB205EB431500203161756198E76A
:104550006B89296A9B08B4FBF3F328461944FFF7DB
:1045600033FA00287FF47DAF6B89A400B4FBF3F22B
:1045700003FB124404F130032B442C4494F8302004
:104580009C78D97824045B7844EA0164144344EAB3
:10459000032424F07044B5E76B89296A5B08B4FBF7
:1045A000F3F328461944FFF70FFA00287FF459AFB8
:1045B0006B896400B4FBF3F203FB12442C4494F8BF
:1045C000313094F8304044EA03249BE72DE9F04F62
:1045D000C48883B00134A4B2002C4AD002690546D5
:1045E000002A46D0066873895B09B4FBF3F003FB2D
:1045F00010439BB243B10020303606EB4316EC80EB
:104600006E6103B0BDE8F08F0F46E96801322A61A0
:1046100061B3B278013A0242EDD101292DD0B369DC
:1046200099422AD23046FFF73DFC0128804624D922
:10463000B0F1FF3F00F08A802E68B36983421ED933
:10464000A0F1020A023B534598BF0023C5F80C8035
:1046500082BFB278B36A0AFB023372892B615209B6
:10466000B4FBF2F302FB13439BB2C4E73289A242CC
:10467000C1D8042003B0BDE8F08F0220C1E7002FAD
:10468000F7D03046E968FFF7F1FD804600285FD09B
:104690000128F2D0B0F1FF3F58D02E68F76A17B169
:1046A0003379002B58D1728906F1300012B1002104
:1046B0000CF090F82E68A8F1020AB369B278023BB8
:1046C0009A4547D2B76A0AFB0277F762002A6BD095
:1046D0004FF000094FF0010B86F804B04FB3727829
:1046E000002A33D106F1300339461846019309F008
:1046F0006DFA58BBD6E907120A44BA42307115D98F
:10470000F278012A12D90F447178009271B93946B2
:10471000019809F05BFA009A013AD2B2012A05D059
:10472000F16900920F4471780029F0D02E68F76A81
:10473000B27809F101095FFA89F901379145F76209
:10474000CAD3A7EB0907B369F7627BE7012058E7F3
:10475000072056E70027B8E77378002BF6D106F15B
:10476000300A3946504609F031FA0028EED1D6E930
:10477000072313449F42307106D296F80390B9F193
:10478000010F01D973780BB12E688CE7F36909F139
:10479000FF391F44504639465FFA89F909F016FA85
:1047A000B9F1010FEED1EFE79146CAE701692DE9B2
:1047B000F8430546002900F0C480FF273E46006804
:1047C000FFF702F98046002840F0BD806A6913783F
:1047D000002B00F0B680E52BD17A07D02E2B05D028
:1047E0000C0701F03F002ED50F282FD0EC88FF26B4
:1047F0000134A4B2002C00F0A4802969002900F043
:10480000A080286843895B09B4FBF3F203FB1243E1
:104810009BB2002B40F09C80D5F80CC0013129617F
:10482000BCF1000F40F09F800289A24240F28980D3
:1048300000F1300202EB4313EC806B610029BFD121
:104840004046BDE8F8830F2840F05381580640F1F8
:104850008680E988577B03F0BF032984517BB942E6
:10486000C4D11178EE6901F03F01013901EB41003B
:1048700001EB80012729B2F80140B7D826F8114092
:10488000B2F803C0481C002C40F0A0804FF6FF7126
:104890008C45ABD1B2F805E04FF6FF718E45A5D13E
:1048A000B2F807C04FF6FF718C459FD1B2F809E00E
:1048B0004FF6FF718E4599D1B2F80EC04FF6FF71D9
:1048C0008C4593D1B2F810904FF6FF7189458DD188
:1048D000B2F812E04FF6FF718E4587D1B2F814C0DE
:1048E0004FF6FF718C4581D1B2F816E04FF6FF719B
:1048F0008E457FF47BAFB2F818904FF6FF71894573
:104900007FF474AFB2F81CC04FF6FF718C457FF492
:104910006DAFB2F81EE04FF6FF718E457FF466AFC3
:104920001278510605D528283FF460AF002226F8FA
:104930001020EC88013B0134A4B2DEB2002C7FF4DD
:104940005CAF4FF0040800232B614046BDE8F883BC
:1049500000F1300202EB4313EC806B6130E79E42C2
:104960007FF444AF7AE790F802E00EF1FF3E1EEAD2
:10497000020F7FF45DAFBCF1010F22D083699C452B
:104980001FD26146FFF78EFA0128034619D9421C4F
:1049900000F0B480286882699342D2D2023AEB6078
:1049A000023B93423BBF8278816A002103FB0211E4
:1049B000438929615B09B4FBF3F203FB12439BB209
:1049C00036E700234FF002082B61BEE728283FF4AA
:1049D0000DAF26F810C04400B2F805E0881CBCF109
:1049E000000F3FF459AF28283FF400AF3444A4F837
:1049F00002E0B2F807C0C81CBEF1000F3FF452AF8E
:104A000028283FF4F3AEA4F804C0B2F809E0081D6A
:104A1000BCF1000F3FF44CAF28283FF4E7AEA4F8F8
:104A200006E0B2F80EC0481DBEF1000F3FF446AFDD
:104A300028283FF4DBAEA4F808C0B2F81090881D17
:104A4000BCF1000F3FF440AF28283FF4CFAEA4F8EC
:104A50000A90B2F812E0C81DB9F1000F3FF43AAF66
:104A600028283FF4C3AEA4F80CE0B2F814C001F15A
:104A70000800BEF1000F3FF433AF28283FF4B6AE74
:104A8000A4F80EC0B2F816E001F10900BCF1000F65
:104A90003FF42CAF28283FF4A9AEA4F810E0B2F8F8
:104AA000189001F10A00BEF1000F3FF426AF28284C
:104AB0003FF49CAEA4F81290B2F81CC001F10B00B8
:104AC000B9F1000F3FF420AF28283FF48FAEA4F8CF
:104AD00014C0B2F81EE001F10C00BCF1000F3FF46D
:104AE0001AAF28283FF482AEA4F816E001F10D00B9
:104AF00016E736B14FF6FF732B84A1E64FF001089D
:104B000021E75178D80140EA53030B44C3F346012F
:104B100041EAC3119378C9B21944C1F3460343EA89
:104B2000C113D178DBB20B44C3F3460141EAC31190
:104B30001379C9B21944C1F3460343EAC113517949
:104B4000DBB20B44C3F3460141EAC3119379C9B206
:104B50001944C1F3460343EAC113D179DBB20B44D4
:104B6000C3F3460141EAC311137AC9B21944C1F330
:104B7000460343EAC113517ADBB20B44917AC3F383
:104B8000460242EAC3130B4403F0FF03BB42B1D118
:104B900056E600BF2DE9F04FD0E9064B89B0A26878
:104BA00082466168206805AB07C39DF81F30DA07AD
:104BB000019340F1C5800023012581468846621E8D
:104BC000BDF81C709DF81E60E3720092CAF81C309C
:104BD000052DC4F80090C4F804802781A67240F225
:104BE000318159462846BBF80020C30343EA5003ED
:104BF000134431F8022F98B2002AF6D1034600F090
:104C00000F0202F1300EBEF1390F88BF02F1370EEC
:104C10000F2B8DF813E0C0F30F1040F2198100F054
:104C20000F0101F13002392A88BF01F137020F2844
:104C30008DF81220C3F30F2140F2128101F00F0012
:104C400000F13002392A88BF00F137020F298DF8B0
:104C50001120C3F30F3340F20981DBB203F13002BC
:104C6000D2B2392A84BF3733DAB27E234FF0030C35
:104C70008DF810208DF80F300022009902E0624577
:104C800000F0EC8011F8010F1346202802F1010218
:104C9000F5D10CF120026A4412F8141C062BE154E1
:104CA00012F8131C04EB030251700CF1020203F121
:104CB000020112D0082A23D12022052B625403F1CD
:104CC00003000AD0431C082BC0F108024FF020015A
:104CD00088BF012220440BF07DFD00215046FFF7E4
:104CE000A1FB30BB5046FFF751F910BB0135ADB207
:104CF000642D7FF46DAF0721084609B0BDE8F08F41
:104D000020326A4412F8142C052B62540CF1030271
:104D100003F10301E1D0082A70D12022042B625450
:104D200003F10400CED100215046FFF77BFB0028A1
:104D3000D8D004280146DFD1019BE372CAF81CB029
:104D4000019B9B0700F19880012400215046FFF74A
:104D500069FB01460028CFD10646054608E0B3B1FD
:104D6000054601215046FFF731FC002840F09880AD
:104D7000DAF81010DAF80000FEF726FE6A1C0028A8
:104D800040F08E80DAF814301B78E52BE7D10DB9AE
:104D9000BAF8066095B2AC42E3D1012C40F08580B0
:104DA000DAF81010DAF80000FEF70EFE01460028CF
:104DB000A2D1DAF814302022009018460BF00AFD38
:104DC0000346DAF818200099501C181A022840F2FD
:104DD00096811068186050685860107A1872507A7E
:104DE00058720120927A9A72DAF81820D27A02F078
:104DF00018021A73DAF8003018717DE720326A441D
:104E000012F8142C042B625403F104023FF465AF32
:104E1000BCF1030F07D02021032BA15403F105009F
:104E20007FF450AF59E7032B04F802E003F10502C9
:104E30003FF453AF2021022BA15403F106007FF46D
:104E400041AF4AE705F1300E5FFA8EFE8DF813E0B0
:104E50007E234FF0060C8DF812300DE7634618E7FD
:104E60007E234FF0050C8DF8113005E77E234FF0BF
:104E7000040C8DF81030FFE6BBF80030002B3FF437
:104E800063AF002301339BB23BF81320002AF9D112
:104E9000A34A03F11904A2FB0424C4F38F0454E7CA
:104EA0000146084609B0BDE8F08F31465046FFF78D
:104EB000B9FA014600287FF41FAFDAF81830013C38
:104EC00019781FFA84F8CA0142EA510259780F266C
:104ED0000A44C2F3460141EAC2119A78C9B21144A8
:104EE000C1F3460242EAC112D978D2B20A44C2F3EF
:104EF000460141EAC2111A79C9B21144C1F346020E
:104F000042EAC1125979D2B20A44C2F3460141EAD7
:104F1000C2119A79C9B21144C1F3460242EAC112E0
:104F2000D979D2B20A44C2F3460141EAC2111A7ACF
:104F3000C9B21144C1F3460242EAC112597AD2B24F
:104F40000A449B7AC2F3460545EAC2151D4405F0A2
:104F5000FF052B464FF6FD7745464FF6FF74984602
:104F6000DAF81010DAF80000FEF72EFD01460028EE
:104F70007FF4C2AE5FFA85FEDAF814300EF1FF322C
:104F8000DAF81CC002EB4201588302EB810283F87D
:104F90000D80A3F80B603CF81210481E80B25970C7
:104FA000B8424FEA112199704FEA420124D9A3F87F
:104FB0000340A3F80540A3F80740A3F80940DC81AB
:104FC0001C825C829C82DC821C839C83DC834EF08E
:104FD000400E012283F800E0DAF80030002150464C
:104FE0001A71FFF7F3FA014600287FF485AE013D00
:104FF000ADB2002DB4D1D3E601323CF8120052001C
:1050000000F1FF39D870000A18711FFA89F0B84210
:10501000CFD86244508800F1FF395871000A987166
:105020001FFA89F0B842C6D8908800F1FF39D871CC
:10503000000A18721FFA89F0B842BED8D08800F171
:10504000FF395872000A98721FFA89F0B842B6D830
:10505000108900F1FF399873000AD8731FFA89F09C
:10506000B842ADD8508900F1FF391874000A58745D
:105070001FFA89F0B842A4D8908900F1FF399874DA
:10508000000AD8741FFA89F0B8429BD8D08900F181
:10509000FF391875000A58751FFA89F0B84292D87E
:1050A000108A00F1FF399875000AD8751FFA89F047
:1050B000B84289D8508A00F1FF391876000A58762C
:1050C0001FFA89F0B84280D8908A00F1FF3918772A
:1050D000000A58771FFA89F0B8423FF677AFD28AB4
:1050E000501E9A77120ADA7782B2BA423FF66FAF51
:1050F0008C44BCF81A20002A7FF46BAF67E7107865
:1051000018705078587090789870D078D87010795E
:1051100018715079587190799871D079D8715CE68E
:105120004FECC44E2DE9F04F0B788A462F2B0446E6
:1051300083B02FD05C2B2DD00025A5609AF80030CD
:105140001F2B2FD9B04D534619781E462F299E4646
:1051500003F10103F8D05C29F6D01F290A46E06963
:1051600014D9A0F1020C2F2AE0464FF0010335D0EC
:105170005C2A33D0292B09D07F2A1BD82221A34FA8
:1051800002E017F8011FE9B19142FAD1062003B0FD
:10519000BDE8F08F00250AF1010AA5609AF80030F9
:1051A0001F2BCFD829462046FFF73CF9656103B095
:1051B000BDE8F08F05EB4101B1F8C428002AE5D025
:1051C0007F2ADBD928F8022F1EF8012F5F1C1F2A27
:1051D000114640F2EF802F2A3B46C9D106EB030A65
:1051E000013BD3D0002600EB430131F8022D202AE9
:1051F00001D02E2A02D1013BF7D1C7E74FF020376B
:10520000002142F220084FF0200EA26920F813106E
:10521000A2F808801760576082F80AE000E00131C8
:105220003CF8022F202AFAD02E2AF8D009B146F0F5
:10523000030600EB430701E0013B04D037F802CD41
:10524000BCF12E0FF8D1D4F818E00131F446002A51
:1052500000F0EC8000274FF00808B946CDF804A014
:10526000202A53D02E2A5AD0C8456ED8B8F10B0F39
:105270005AD08B4200F0968046F003068B4280F0B5
:1052800091809EF80030F446E52BDDF804A004D1AF
:1052900005238EF80030D4F818C0B8F1080F05BF08
:1052A000BB00DFB207F00C0303F00C030C2B76D02D
:1052B00007F00307032F72D0B20707D4012F08BFEE
:1052C00046F01006042B08BF46F0080600212046D1
:1052D0008CF80B60FFF7A6F8002854D12046FEF7A3
:1052E00055FEA369DB7A00284FD159073FF54FAF30
:1052F0006369DA7AD2064ED521685A8B0978032978
:1053000004BF9B8A42EA0342A2601CE70A4646F0B9
:105310000306511C30F81220002AA1D1B1E78B42BC
:10532000F4D1B8F10B0FA9D19EF80020F446E52A7C
:10533000DDF804A046F0030607F00C03B6D1052201
:105340008EF80020D4F818C0B0E78B42E9D07F2A4D
:1053500034D84FF02B0CE246944652469445DFF881
:10536000B0B005D01BF8012F002A42D09445F9D1E6
:105370005F2246F003060EF80920D4F818E00A462A
:1053800009F10109C5E7A369DB7A04287FF4FFAEC0
:105390005C073FF5FCAE052003B0BDE8F08F46F09A
:1053A000020693E7BF001A464FF00B084FF00809BA
:1053B000FFB2AEE706EB070A042614E74FF0000C35
:1053C000DFF850A004E00CF1010CBCF1800F38D0E4
:1053D0003AF802BB9345F6D10CF18002DFF828C001
:1053E00092B2624492F8442A46F00206002ABFD0E4
:1053F000AFE76246ACF1410CBCF1190F0CD847F095
:105400000207D2B2B7E700BF1CD7010044C70100B2
:1054100050C70100E0E00100A2F1610CBCF1190FDE
:105420009CBF203A47F00107D2B2A4E79EF80030B3
:10543000E52B7FF44BAF05238EF80030D4F818C06D
:1054400044E746F0020693E72DE9F8430468154661
:105450002378303B092B03D862783A2A00F09D80EC
:1054600000230B608A4ED6F8504E002C00F0A78027
:105470000C602378002B40F0888000232380FDF708
:105480001BFB10F0010740F0978015B1430700F1B6
:105490009980617800297DD14FF480532046638143
:1054A000FDF71AFE012800F08180032872D0002841
:1054B0007FD16189B4F83B308B427AD1B4F8462071
:1054C000002A00F0818094F84030E261581E0128E3
:1054D000E3706ED894F83D00A070002869D0451E96
:1054E000054266D1B4F841E04D09BEFBF5FC05FB71
:1054F0001CE5ADB2A4F808E0002D5AD1B4F8435031
:1055000005B9256DB4F83E80B8F1000F51D002FB0B
:1055100003F3C4449C4465454BD3A5EB0C0585427D
:10552000B5FBF0F945D308EB070540F6F578C14522
:1055300007EB0C0009F1020C4FD94FF6F578C14585
:10554000A0625AD8C4F818C02562BEF1000F30D04E
:1055500002202B444FEA4C0C63624B1E6344B3FBA6
:10556000F1F39A4225D300234FF0FF32C4E903320E
:105570000022B6F8843E207001339BB2A6F8843E28
:10558000E380E2622271002005E06378002B7FF463
:1055900074AFF8E70120BDE8F8830022023404600C
:1055A0000A60002B3FF45EAF0B20F4E794F8F23171
:1055B00063B90D20BDE8F8830320BDE8F8830C2013
:1055C000BDE8F8830A20E6E7626D7CE7D4F8F6715F
:1055D00020463946FDF780FD67E7A062C4F818C091
:1055E0002562BEF1000FE4D00CEB4C000CF0010C76
:1055F0000CEB500C2B440120AEE72562C4F818C018
:10560000BEF1000FD5D14B1E03EB8C03B3FBF1F3BE
:10561000E16D93426162CCD84FF0FF31B4F8603055
:1056200062783B44C4E90413C4F80CE084F805E054
:105630000AB103209CE7C3F34E101D03FDF72EFDB6
:10564000C5F3100545EA4045284604F1300108F04D
:105650002DF804F5036105F5006008F027F84AF617
:105660005523B4F82E229A42E3D10A4B226B9A4278
:10567000DFD103F1FF53D4F8142203F50053203394
:105680009A4204BFD4E98623C4E90332D1E700BFBC
:10569000E8070010525261412DE9F043002304460F
:1056A000A5B00191164601A806A9236002F01E02CA
:1056B000FFF7CAFE054618B1284625B0BDE8F083BD
:1056C00003AB0C9301990FAB06A80D93FFF72AFDCE
:1056D0000B9F06F01C03002836D1002F6ED0FA7AFB
:1056E000002B39D012F0110F5BD13207069B3ED54B
:1056F0000022334BFA72C7F80E30069BFA611A7813
:10570000B7F81A80032A08BFBA8A4FF0010108BF10
:1057100048EA024800227A83BA821971B8F1000F70
:1057200023D018464146D3F82C900093FEF794FA04
:10573000009B60B908F1FF3249461846DA60FEF76F
:1057400043F920B9009B10E00BB104282DD0054689
:10575000284625B0BDE8F083D30624D4B00701D590
:10576000D1071ED43207069B01D546F02006DA6A1F
:10577000A671C4E9072719787A8B032908BFB98A6B
:10578000284608BF42EA014222610022F9692360EB
:10579000DB88C4E90221A380A261626225B0BDE872
:1057A000F083072588E7042586E706A8FFF7F2F9C6
:1057B00046F008060028CAD10B9F99E706257BE72B
:1057C00000009A3C2DE9F04F04460F462821ADF524
:1057D000835D87B02346854A0DEB01000BF02EFE5A
:1057E0002246002082490AABFBF7BAFC0A220AA92A
:1057F00014A8FFF751FF20B10DF5835D07B0BDE898
:10580000F08F149830B1037823B1C288BDF85430BA
:105810009A420DD014A808F029FC0024224600204A
:105820007449FBF79DFC0DF5835D07B0BDE8F08F73
:105830004578002DEED19DF956209DF85630002A6E
:10584000E8DB9907E6D5DDE916C111F5007F2CBF2D
:10585000002201225402002A00F08D816146428913
:105860002E46B1FBF2F302FB13154FF4007BB84652
:10587000002D40F025818278541E1C4014F0FF0456
:105880000ED1002940F05F81189B002B00F09F8112
:10589000012B00F0A2815A1C00F09F8114981993EB
:1058A0009DF856506F0600F13081199B8269023BCA
:1058B000023A934280F018818178826A01FB0323C7
:1058C000002B00F0118142891F195A4500F22E81E8
:1058D000BBFBF2FA04EB0A039942437838BFA1EB11
:1058E000040A002B40F000811AF0FF0300F0D5807D
:1058F000C14608EB0333CDE9037ACDE9056B02938A
:105900003D4DC8EB07330193CDF81C80019B09EB9B
:1059100003044FEA544B5846FDF7C0FBC4F3100490
:1059200044EA4046FDF7FAFF4022344B4FEA56481E
:10593000DA614FEA48488246470400BF00BF00BF13
:1059400000BF00BF00BFEB68D907FCD50623AB60E2
:10595000EB685A07FCD5AB6800BF00BF00BF00BFB3
:1059600000BF00BF4022254B9A61DA6100BF00BF33
:1059700000BF00BF00BF00BFEB68DB07FCD5D8232A
:10598000AB60EB685C07FCD5AB68FA0AF90EEB6814
:10599000D807FCD5A960EB685B07FCD5AB68F90CB0
:1059A000EB68DC07FCD5C9B2A960EB685807FCD5E9
:1059B000AB68EB68D907FCD5D2B2AA60EB685B078D
:1059C000FCD5AB6800BF00BF00BF00BF00BF00BF79
:1059D00040220A4B00249A61FCF786FF4046CDF82E
:1059E00000A008F500383F1A0FE000BF58C70100BB
:1059F00070C7010088C70100000003400080092033
:105A000007F0ECFEC245504617D006EB040C844567
:105A100000F5006A07EB0001F2D3E245F0D9B4F5D6
:105A2000805FEDD2604609EB040207F0AFFF04F59A
:105A30000064C2455046A4B2E7D1DDF800A04FEAA9
:105A40004B00CAF30E0A4FEA5B1100F03E000DF165
:105A50002602ADF826A008F081F8029B09F58059CE
:105A600099457FF453AFDDE9037ADDE9056B1A9BB5
:105A7000149ADB1B9A45DDF81C8052890DD902FB74
:105A8000038122B11EA80CF001FA149B5A899DF8DB
:105A9000563023F040038DF8563002FB0AF4169975
:105AA0002144BBEB040B1691A04426446AD0149801
:105AB0004289B1FBF2F302FB1315002D3FF4DBAE7C
:105AC000521B5A4528BF5A46283514AB144658195C
:105AD0001AB141460CF0DAF916999DF8563043F0A8
