:1000000000000110E5000000510100005301000054
:1000100055010000570100005901000000000000D8
:100020000000000000000000000000005B01000074
:100030005D010000000000005F0100002554000089
:100040006301000063010000630100006301000020
:1000500063010000630100006301000021D500007E
:100060006301000063010000630100006301000000
:1000700063010000630100006301000063010000F0
:1000800063010000630100006301000063010000E0
:1000900063010000630100006301000063010000D0
:1000A0006301000063010000696400006301000057
:1000B000B112000063010000630100006301000051
:1000C00063010000630100006301000063010000A0
:1000D0006301000063010000630100006301000090
:1000E000630100001149124A124B9A4205D0086878
:1000F0001060043104329A42F9D300200E490F4AAD
:10010000914204D0914202D208600431FAD30C48E3
:100110000C49884206D00268043003B4FE46974674
:1001200003BCF6E708488047084800474826020015
:1001300000000010E8070010E8070010207A001007
:100140002C2602002C2602009D0B00007D8500005D
:10015000FEE7FEE7FEE7FEE7FEE7FEE7FEE7FEE777
:10016000FEE7FEE7034A137D5B06FCD5C3B21370BE
:10017000704700BF00C00040002300BF00BF00BFA9
:1001800000BF00BF00BF00BF00BF00BF00BF00BF77
:1001900000BF00BF00BF00BF00BF00BF00BF00BF67
:1001A00000BF00BF00BF00BF00BF00BF00BF00BF57
:1001B00000BF00BF00BF00BF00BF00BF00BF00BF47
:1001C00000BF00BF00BF00BF00BF00BF00BF00BF37
:1001D00000BF00BF00BF00BF00BF00BF00BF00BF27
:1001E00000BF00BF00BF00BF00BF00BF00BF00BF17
:1001F00000BF00BF00BF00BF00BF00BF00BF00BF07
:1002000000BF00BF00BF00BF00BF00BF00BF00BFF6
:1002100000BF00BF00BF00BF00BF00BF00BF00BFE6
:1002200000BF00BF00BF00BF00BF00BF00BF00BFD6
:1002300000BF00BF00BF00BF00BF00BF00BF00BFC6
:1002400000BF00BF00BF00BF00BF00BF00BF00BFB6
:1002500000BF00BF00BF00BF00BF00BF00BF00BFA6
:1002600000BF00BF00BF00BF00BF0133984284D170
:10027000704700BF4FF0010CF0B4446803780CFAEB
:1002800004F4002900F0B080052B40F2CE8000BFBE
:1002900000BF00BF00BF00BF00BF00BF00BF00BF66
:1002A00000BF00BF00BF00BF00BF00BF00BF00BF56
:1002B00000BF00BF00BF00BF00BF00BF00BF00BF46
:1002C00000BF00BF00BF00BF00BF00BF00BF00BF36
:1002D00000BF00BF00BF00BF00BF00BF00BF00BF26
:1002E00000BF00BF00BF00BF00BF00BF00BF00BF16
:1002F00000BF00BF00BF00BF00BF00BF00BF00BF06
:1003000000BF00BF00BF0378052B23D8D0E90475D8
:100310000121C4685B0103F1005301FA04F403F501
:10032000182301FA05F5B940D70702F002069C61CF
:1003300068D59961002E68D00124816956079D61B6
:1003400004FA01F468D501219C61C469A140140735
:1003500069D5996100BF00BF00BF00BF00BF00BFEB
:1003600000BF00BF00BF00BF00BF00BF00BF00BF95
:1003700000BF00BF00BF00BF00BF00BF00BF00BF85
:1003800000BF00BF00BF00BF00BF00BF00BF00BF75
:1003900000BF00BF00BF00BF00BF00BF00BF00BF65
:1003A00000BF00BF00BF00BF00BF00BF00BF00BF55
:1003B00000BF00BF00BF00BF00BF00BF00BF00BF45
:1003C00000BF00BF00BF00BF00BF00BF0378052B08
:1003D00008D80122C1685B0103F1005303F518231B
:1003E0008A40DA61F0BC7047052B3FF650AF5B01E5
:1003F00003F1005303F51823DC6101218468A14057
:10040000D96144E7D961002E96D101248169DD616B
:10041000550704FA01F496D40121DC61C46912077E
:1004200001FA04F195D4D96194E75B0103F100531B
:1004300003F518239C61E0E702780346052A2DE9BD
:10044000F0412DD8D3E90557D3E901E80120520145
:1004500002F1005202F51822D3F810C0146800FA15
:100460000CFC24EA0C04DE69146000FA05FC156833
:1004700000FA07F725EA0C051560156800FA06F67C
:1004800025EA07051560156800FA08F425EA06054F
:1004900000FA0EF01560002940F08581D06194616A
:1004A00000BF00BF00BF00BF00BF00BF00BF00BF54
:1004B00000BF00BF00BF00BF00BF00BF00BF00BF44
:1004C00000BF00BF00BF00BF00BF00BF00BF00BF34
:1004D00000BF00BF00BF00BF00BF00BF00BF00BF24
:1004E00000BF00BF00BF00BF00BF00BF00BF00BF14
:1004F00000BF00BF00BF00BF00BF00BF00BF00BF04
:1005000000BF00BF00BF00BF00BF00BF00BF00BFF3
:1005100000BF00BF00BF00BF1A78052A08D801211C
:10052000D868520102F1005202F51822814091610F
:1005300000BF00BF00BF00BF00BF00BF00BF00BFC3
:1005400000BF00BF00BF00BF00BF00BF00BF00BFB3
:1005500000BF00BF00BF00BF00BF00BF00BF00BFA3
:1005600000BF00BF00BF00BF00BF00BF00BF00BF93
:1005700000BF00BF00BF00BF00BF00BF00BF00BF83
:1005800000BF00BF00BF00BF00BF00BF00BF00BF73
:1005900000BF00BF00BF00BF00BF00BF00BF00BF63
:1005A00000BF00BF00BF00BF1978052900F2F98025
:1005B0004A0102F1005202F5182256690120D3E9DE
:1005C00006755C69D3F810C000FA04F2324022418B
:1005D00000FA0CF4344044FA0CF4520142EA0412DA
:1005E00000FA07F434403C4142EA841200FA05F470
:1005F00034402C41052942EAC41207D8DC6849017D
:1006000001F1005101F51821A040C86100BF00BFF1
:1006100000BF00BF00BF00BF00BF00BF00BF00BFE2
:1006200000BF00BF00BF00BF00BF00BF00BF00BFD2
:1006300000BF00BF00BF00BF00BF00BF00BF00BFC2
:1006400000BF00BF00BF00BF00BF00BF00BF00BFB2
:1006500000BF00BF00BF00BF00BF00BF00BF00BFA2
:1006600000BF00BF00BF00BF00BF00BF00BF00BF92
:1006700000BF00BF00BF00BF00BF00BF00BF00BF82
:1006800000BF00BF1978052908D80120DC6849019E
:1006900001F1005101F51821A040886100BF00BFA1
:1006A00000BF00BF00BF00BF00BF00BF00BF00BF52
:1006B00000BF00BF00BF00BF00BF00BF00BF00BF42
:1006C00000BF00BF00BF00BF00BF00BF00BF00BF32
:1006D00000BF00BF00BF00BF00BF00BF00BF00BF22
:1006E00000BF00BF00BF00BF00BF00BF00BF00BF12
:1006F00000BF00BF00BF00BF00BF00BF00BF00BF02
:1007000000BF00BF00BF00BF00BF00BF00BF00BFF1
:1007100000BF00BF1978052941D8480100F10050F9
:1007200000F5182044694FF0010ED3E905871E69D2
:10073000DD690EFA06FC0CEA0400304110430EFAA3
:1007400008F202EA040646FA08F640EA46000EFA03
:1007500007F606EA040848FA07F740EA87000EFAA7
:1007600005F73C402C41052940EAC40015D8DC6857
:100770004B0103F1005303F518230EFA04F4DC6176
:1007800019684CEA0101196019680A431A601A686D
:1007900016431E601A6817431F60BDE8F0810024ED
:1007A000C1E700260AE7906179E600BF05490A180B
:1007B00092F80031095C1B0492F8000243EA01231D
:1007C0001843704744DA010070B540F2E73405463B
:1007D0000E460DE000BF00BF00BF00BF00BF00BF5E
:1007E00000BF00BF00BF00BF00BF00BF013C10D072
:1007F00000212846FFF720FE0306EBD4321100212A
:100800002846FFF737FD06F00F020021BDE87040D3
:1008100030E533462046024A02490BF025FAEDE75F
:1008200044DD010028C701000121CDE70221CBE70B
:1008300001F0030141F00401C6E700BF01F0070128
:1008400041F00801C0E700BF01F00C0141F01001C8
:10085000BAE700BFC9B241F08001B5E770B540F218
:10086000E73405460E460DE000BF00BF00BF00BFE5
:1008700000BF00BF00BF00BF00BF00BF00BF00BF80
:10088000013C10D000212846FFF7D6FD0306EBD42B
:10089000321101212846FFF7EDFC06F00F0201217D
:1008A000BDE87040E6E433462046024A02490BF0B8
:1008B000DBF9EDE74CDD010028C7010038B50C4637
:1008C000097839B105462846FFF7C8FF14F8011F1B
:1008D0000029F8D138BD00BF03782DE9F041052B80
:1008E000054633D8D0E90276D5E906EC01225B0152
:1008F00003F1005303F518234168D3F8008002FA8E
:1009000001F141EA0801D0E90440196002FA07F751
:1009100002FA06F602FA04F402FA00F002FA0EF104
:1009200002FA0CF2D3F800C047EA0C071F601F68F8
:100930003E431E601E6834431C601C6820431860E0
:1009400018680143196019680A431A6000210322DC
:100950002846FFF78FFC41F2040100BF00BF00BF33
:1009600000BF00BF00BF00BF00BF00BF00BF00BF8F
:1009700000BF00BF00BF00BF00BF00BF00BF00BF7F
:1009800000BF00BF00BF00BF00BF00BF00BF00BF6F
:1009900000BF00BF00BF00BF00BF00BF00BF00BF5F
:1009A00000BF00BF00BF00BF00BF00BF00BF00BF4F
:1009B00000BF00BF00BF00BF00BF00BF00BF00BF3F
:1009C00000BF00BF00BF00BF00BF00BF00BF00BF2F
:1009D00000BF00BF00BF00BF00BF00BF00BF00BF1F
:1009E00000BF00BF00BF00BF00BF00BF00BF00BF0F
:1009F00000BF00BF00BF00BF00BF00BF00BF00BFFF
:100A000000BF00BF00BF00BF00BF00BF00BF00BFEE
:100A100000BF00BF00BF00BF00BF00BF00BF00BFDE
:100A200000BF00BF00BF00BF00BF00BF00BF00BFCE
:100A300000BF00BF00BF00BF00BF00BF00BF00BFBE
:100A400000BF00BF00BF00BF00BF013985D1032236
:100A50002846FFF70FFC642400BF00BF00BF00BFA3
:100A600000BF00BF00BF00BF00BF00BF00BF00BF8E
:100A700000BF00BF00BF00BF00BF00BF00BF00BF7E
:100A800000BF00BF00BF00BF00BF00BF00BF00BF6E
:100A900000BF00BF00BF00BF00BF00BF00BF00BF5E
:100AA00000BF00BF00BF00BF00BF00BF00BF00BF4E
:100AB00000BF00BF00BF00BF00BF00BF00BF00BF3E
:100AC00000BF00BF00BF00BF00BF00BF00BF00BF2E
:100AD00000BF00BF00BF00BF00BF00BF00BF00BF1E
:100AE00000BF00BF00BF00BF00BF00BF00BF00BF0E
:100AF00000BF00BF00BF00BF00BF00BF00BF00BFFE
:100B000000BF00BF00BF00BF00BF00BF00BF00BFED
:100B100000BF00BF00BF00BF00BF00BF00BF00BFDD
:100B200000BF00BF00BF00BF00BF00BF00BF00BFCD
:100B300000BF00BF00BF00BF00BF00BF00BF00BFBD
:100B400000BF00BF00BF00BF013C85D12146284641
:100B50000322FFF78FFB0AF08FFF0222214628466F
:100B6000FFF788FB0AF088FF2B6A284603F0010193
:100B7000C9009B0748BF41F0040141F02001FFF785
:100B800023FE28460821FFF71FFE28460121FFF714
:100B90001BFE2846BDE8F041062115E62123274A21
:100BA000F0B5C2F8A031D2F8A0315C06FBD5012324
:100BB0000925AA2455202149C2F80C31C2F88450D5
:100BC000C2F88030C2F88C40C2F88C00D1F888306E
:100BD0005805FBD523250124AA205522174BC1F81F
:100BE000A450C1F8A040C1F8AC00C1F8AC20D3F8C3
:100BF000A8205205FBD54FF4807240F2011E40F24E
:100C0000012C0127022645F23A0400200C4DC3F8BE
:100C100004E1C3F808C1C3F80071C3F8A861C3F8C0
:100C2000C450C3F8C821D3F8B021064942F00302EA
:100C3000C3F8B0211C608860F0BD00BF00C00F4049
:100C40000E84F00300ED00E0002070471846704766
:100C500000207047002070474FF40053002053607D
:100C6000704700BF01207047FEE700BF4FF0FF3024
:100C7000704700BF4FF0FF30704700BF044B054A7C
:100C80001868002808BF104601441960704700BF6B
:100C9000E8070010207A00100138032801D800204E
:100CA00070470629FBD9034B0739C9B20B4493F8A7
:100CB0001403704744DA010070B540200F26C025A8
:100CC00000241D491D4BC86100BF00BF00BF00BF0D
:100CD00000BF00BFDA68D207FCD59E60DA68520711
:100CE000FCD59A68DA68D207FCD59D60DA685207AD
:100CF000FCD59A68DA68D207FCD59C60DA6852079E
:100D0000FCD59A68D2B200BF00BF00BF00BF00BFD1
:100D100000BF12F0010C8861D5D112F0040006D199
:100D2000130700D470BD06490AF09EFFFEE7604637
:100D300004490AF099FFFEE7008009200000034003
:100D400068C7010044C701002DE9F84340254F4C16
:100D50000646E56117460D461C4600BF00BF00BFB2
:100D600000BF00BF00BF4A4AD368D807FCD5132391
:100D70009360474AD3685907FCD59368444AF10AFF
:100D8000F00ED368DB07FCD59060414AD368580762
:100D9000FCD593683E4AF00CD368DB07FCD5C0B2A3
:100DA00090603B4AD3685807FCD59368384AD368AB
:100DB000DB07FCD5C9B29160354AD3685807FCD52A
:100DC000936800BF00BF00BF00BF00BF00BF4FF06F
:100DD0004009DFF8B880C8F81890FFF76DFFC8F831
:100DE0001C9000BF00BF00BF00BF00BF00BF284A6B
:100DF000D368D907FCD503239360254AD3685B07E2
:100E0000FCD5C6F30A0040EAC72093682049C0F326
:100E10000720CA68D607FCD51D4B8860DA685207E0
:100E2000FCD59B681A49CA68D307FCD50022184B29
:100E30008A60DA685707FCD59B681549CA68D607E7
:100E4000FCD50022124B8A60DA685007FCD50026D8
:100E5000691E89B29B680E4A601E0C44D168C9079E
:100E6000FCD59660D1684B07FCD5936800F8013F2C
:100E7000A042F3D100BF00BF00BF00BF00BF00BF52
:100E80004022024B9A61BDE8F88300BF0080092030
:100E9000000003402DE9F047402607200021674D60
:100EA000674B2A68674C32432A60DA69AE6122F0E8
:100EB000070242F00202DA611A6A634D22F0070269
:100EC00042F002021A625A6A82B022F0070242F02D
:100ED00002025A62D4F8C42042F48062C4F8C420EA
:100EE0005A4A5B4C106051609A6922F007029A617D
:100EF0002E68B4EB560F7CD302224026534BD2B25D
:100F000018684E4CC0B21860186840EA0121196098
:100F10001A615A6842F002025A60E66100BF00BFDF
:100F200000BF00BF00BF00BFDA68D207FCD5FF21B9
:100F3000464A9960D3685F07FCD5936800BF00BF3D
:100F400000BF00BF00BF00BF40263C4CA661FFF7BA
:100F5000B3FEE66100BF00BF00BF00BF00BF00BF1F
:100F60003A49CB68DE07FCD59F23384A8B60D368AB
:100F70005C07FCD593683549CB68D807FCD50023BE
:100F8000324A8B60D3685907FCD593682F49CB68E8
:100F9000DA07FCD500232D4A8B60D3685B07FCD5AC
:100FA00096682A4BF6B2DC6814F00104FBD00022EC
:100FB00026499A60CB685F07FCD58F6800BF00BFE9
:100FC00000BF00BF00BF00BF4FF04009DFF86C80DA
:100FD000FFB23B46324600201E49C8F818900AF07E
:100FE00043FE0B2E01D1122F36D0204602B0BDE8B1
:100FF000F087B4EB960F1DD202210A4601FB0223B3
:10100000B6FBF3F3A34201F101007FF676AFB0F532
:10101000807F0DD10021023201FB0223B6FBF3F3E6
:10102000A34201F101007FF668AFB0F5807FF1D0F7
:101030000146E3E7022201215FE700BF00800920AB
:1010400000C0024000C00F4000000010000003403C
:101050008096980090C70100C8F81C9000BF00BFA0
:1010600000BF00BF00BF00BF8849CB68DE07FCD5CA
:101070001F23864A8B60D3685C07FCD5936883493D
:10108000CB68D807FCD5A023804A8B60D36859076A
:10109000FCD593687D4AD368DB07FCD500217B4BE8
:1010A0009160DA685707FCD59B6800BF00BF00BF9E
:1010B00000BF00BF00BF4FF0400C4FF400120027EC
:1010C0004FF0A0564FF47A640A206968704BDFF83D
:1010D000C481A3FB0153704D9B0CDFF8C0E1A5FB5D
:1010E000011503EB8301C8F818C0C1EBC101C3EBC4
:1010F000C308AEFB01C1C3EBC80CAEFB0C8CC3EB49
:101100000313AEFB03E389094FEA9C1C01319B09E1
:101110000CF1010C090441EA0C21ED0B01330B43E6
:10112000013DC2F89870C2F89450C2F89030C2F8ED
:10113000E86FC2F88440C2F88000D2F88C10D2F870
:10114000E03F5E01FBD54FF08060554BC2F8E80FE1
:10115000994200F095804FF00009524948460AF044
:1011600083FD4FF400144FF080584D464E4F4FF022
:10117000FF0A04E02A4639460AF076FD3546012288
:101180006E04304611460DF106038DF806A08DF869
:1011900007A0FFF7D9FD012206F500600DF1070356
:1011A0001146FFF7D1FD9DF806009DF807306E1C33
:1011B0001840B6B2DED004224FF0A05309F03F0130
:1011C000C4F8E83FC4F88410C4F880200231C4F8A1
:1011D00088504FEA9912D4F8E03F5D01FBD59301A6
:1011E0004FF08062C4F8E82FC4F8E88FC4F8843068
:1011F0000623C4F88030D4F8E03FD800FBD53F295F
:1012000088BF002309F102091FFA89F9C4F8E88FA1
:1012100088BFC4F88430B9F57A6F01D03546A6E7A7
:101220004FF400134FF0A054202005211C4AC3F8AE
:10123000E84FC3F88400C3F88010C3F88820D3F8BF
:10124000E02F5201FBD54FF080654FF080544FF4F2
:10125000786006214FF40012C3F8E85FC3F8E84F46
:10126000C3F88400C3F88010D2F8E03FDB00FBD560
:101270004FF0805300200D49C2F8E83F0AF0F4FC1B
:101280000024204602B0BDE8F08700BF0000034004
:1012900083DE1B4300800920819F5E16D34D6210C0
:1012A00037133842ACC70100C8C70100E0C70100CE
:1012B0006C4AD2F8E03FD2F8E41F0B4000F0D18036
:1012C0002DE9F04700252F46674E684896F804C080
:1012D000B4689907C2F8E83F2ED0D2F8181101F18E
:1012E00080610431C90009684FEAD1484FEA515979
:1012F00009F008094FEAD15E08F0100848EA090829
:101300000EF0040E4EEA080EC1F3C0694FEA915880
:1013100049EA0E0E08F0400848EA0E084FEA116E3E
:101320000EF0200E090A4EEA080E01F4805151EA2F
:101330000E0108BF23F0020313F0300F18BFD2F8DC
:1013400028111B0724D5D2F81811D2F81431D2F87D
:1013500010E199421CD0D2F81811D2F8183103F1DB
:1013600080630433DB001B6810EA030E10D101F127
:1013700080630433DB001B68D2F81851C3F30A03FF
:10138000991E04EB0108B8F5C06F10D3744601250F
:10139000D2F8E03FD2F8E41F0B409AD105B1B46017
:1013A0000FB9BDE8F08786F804C0BDE8F0870029D2
:1013B0001DDD05F18065E900D1F800E0DD1E0CEBD4
:1013C0004C012B4B04EB41210D2D03EB410303D9C1
:1013D0000EF102018B422CD125F0010402341C4491
:1013E000AEEB03015D5A23F8025BA342FAD11D4B19
:1013F000D3F8183103F180630433DB001B685D0010
:101400000BD4444601251749D1F81831032B2B443E
:1014100008BF0023C1F81831BAE700240CF1010C11
:101420005FFA8CFCBCF1010F4FF0010788BFA446A6
:10143000E8E771466D0801354FEA55090EEB890959
:10144000A3EB0E0A0C684AF8014004318945F9D132
:10145000EC0725F00101CAD53EF8114023F81140F0
:10146000C5E7704700400820E80700100000901B07
:10147000081A001040F6FE734FF4001210B4092150
:101480004FF0A05440000340C2F8E84FC2F8843047
:10149000C2F88010D2F88C00D2F8E03F5B01FBD597
:1014A0004FF0806380B210BCC2F8E83F704700BFC5
:1014B0002DE9F04145781DB103252846BDE8F081AE
:1014C0000E460A4601231749044600F13008284613
:1014D0000AF0CAFBC6F30E20FFF7CCFF7702C7F372
:1014E0001007414647EA40400AF032F84AF65523D1
:1014F000B4F82E229A4210D1D4F866300A4A23F06A
:101500007F439342D9D0D4F8825025F07F45AD1A5D
:1015100018BF01252846BDE8F08102252846BDE810
:10152000F08100BFE8C7010046415400F0B5C3B0E8
:1015300002AD4FF48072002128460FF05DFA0024BE
:101540000126A0B2FFF796FFC0F3CC03EA5C00F0DF
:101550000700013406FA00F01043B4F5FA6FE854BE
:10156000EFD10026FF27344605E00134B4F5006FC3
:1015700006F5003623D0C4F3CC03EB5C04F007027D
:101580001341DB07F1D40122304611460DF1060369
:101590008DF806708DF80770FFF7D6FB01220DF16C
:1015A0000703114606F50060FFF7CEFB9DF8062005
:1015B0009DF807301A42D8D0204643B0F0BD002035
:1015C00003490AF051FB012002490CF083FBFEE7BE
:1015D00000C801001CC801002DE9F041C66A8E4216
:1015E00004D0037904460D461BB93DB90020BDE87F
:1015F000F0814378CBB10120BDE8F081607800280C
:10160000F9D101232A461B490AF02EFBC5F30E200F
:10161000FFF730FF6B02C3F3100304F1300143EA1C
:10162000404009F095FFE562E0E700F130083146FF
:1016300040460CF0A7FA0028DDD1D4E907321A445D
:10164000B2422071D1D9E778012FCED91E446378F8
:1016500063B9013F31464046FFB20CF093FA012FC7
:10166000C3D0E3691E446378002BF2D0002DBDD0B7
:10167000C1E700BFE8C701002DE9F8430778044639
:10168000022F0D46164608D0032F3FD0012F16D04B
:10169000022001232371BDE8F883016A01EB1521C3
:1016A000FFF79AFF0028F4D16D0005F4FF7525447B
:1016B000C6F3072385F8306085F8313042E0016ACF
:1016C00005EB550801EB5821FFF786FF0028E0D114
:1016D000216A08F10109EB07C8F3080801EB592159
:1016E000A04434D598F83030204603F00F0343EA85
:1016F000061388F830302771FFF76EFF0028C8D135
:10170000C9F30809C6F30713A14432E0016A01EBEB
:10171000D511FFF761FF0028BBD1AD0005F4FE75C0
:1017200005F130022244D37825441B0603F07043B0
:101730003343C3F3072185F830305170190C1B0E69
:101740009170D370012323710020BDE8F88388F8DD
:10175000306020462771FFF73FFF002899D1C9F379
:101760000809A14499F83030C6F3032623F00F038B
:10177000334389F83030E5E701297BD983692DE9C6
:10178000F0478B420D46044636D94FF001082378C6
:10179000022B34D0032B04D0012B44D00120BDE810
:1017A000F087216A204601EBD511FFF715FF0028CD
:1017B000F4D1AB0003F4FE7303F1300222449678B7
:1017C000D178234493F83030360446EA01661E434C
:1017D000537846EA032636F0704649D0012E0BD0E6
:1017E000A369AB4208D92778022F7ED0032F4FD0B0
:1017F000012F41D0012323710220BDE8F087216A27
:10180000204601EB1521FFF7E7FE0028C6D16B004B
:1018100003F4FF73234493F8312093F8306056EAC1
:101820000226DBD124E0216A05EB5506204601EBB8
:101830005621FFF7D1FE0028B0D1216AC6F3080374
:1018400001362344204601EB562193F83070FFF710
:10185000C3FE0028A2D1C6F30806264496F830300D
:1018600047EA0326EF076DD4C6F30B06002EB5D169
:101870000020C2E702207047216A05EB5509204687
:1018800001EB5921FFF7A8FE00283FD02771B4E7EC
:10189000216A204601EBD511FFF79EFE08BBAD0083
:1018A00005F4FE7505F130032344DA78254402F08F
:1018B000F00285F83000A3F80100DA70236984F89B
:1018C00004805A1C08D0A2690133B242236184F813
:1018D0000580CDD935465AE7A369B342C8D9354604
:1018E00055E701232371BDE8F087216A204601EB0B
:1018F0001521FFF771FE0028F3D16D0005F4FF7587
:10190000254485F8300085F83100D7E7216A09F1D0
:10191000010AED07C9F3080901EB5A21A14415D4C6
:1019200089F8300020462771FFF756FE0028D8D1ED
:10193000CAF3080AA2449AF8300000F0F0008AF8CE
:101940003000BBE736097FF449AF91E799F83030B2
:10195000204603F00F0389F830302771FFF73CFE73
:101960000028BED1CAF3080AA244E8E7F8B5C56A60
:1019700004460DB103795BB92378032B30D0657829
:1019800045B928462A462B490AF06EF92846F8BD83
:10199000437813B101252846F8BD00F130072946E8
:1019A00038460CF0EFF80028F4D1E369226A207180
:1019B0001A449542E0D2E678012EDDD91D446378C1
:1019C000002BD9D1013E29463846F6B20CF0DAF8A0
:1019D000012ED1D0E3691D446378002BCCD1F1E70F
:1019E0006379002BCBD0002504F130034FF4007253
:1019F00029461846E5620EF0FFFF4AF655220E49C9
:101A00006678216301F1FF5101F500512031C4F8DE
:101A10001412E168A4F82E22C4F81C122169C4F83B
:101A200018120EB16571B5E761690CF0ABF8657815
:101A30006671A5E738C8010052526141F8B50378D4
:101A40000646022B0C4606D0032B3AD0012B14D0AD
:101A50004FF0FF30F8BD016A01EB1421FFF7BCFD28
:101A60000028F5D1640004F4FF74344494F8313054
:101A700094F8300040EA0320F8BD016A04EB5407F3
:101A800001EB5721FFF7A8FD0028E1D1316AC7F328
:101A9000080301373344304601EB572193F83050A7
:101AA000FFF79AFD0028D3D1C7F30807374497F80A
:101AB000303045EA0320E3074CBF0009C0F30B00B8
:101AC000F8BD016A01EBD411FFF786FD0028BFD1F4
:101AD000A40004F4FE7404F1300131448B78CD7815
:101AE000321992F83020180440EA05604B78104310
:101AF00040EA032020F07040F8BD00BF4FF0FF0C1B
:101B00002DE9F04F0768D0F8108004466546464638
:101B1000B94683B0CDF800C0D9F82C70B74205D0D3
:101B200099F8043073BB002E40F0C08062691178D0
:101B3000002965D0E529D07A07D000F03F0310F0E6
:101B4000080061D00F2B00F09D80FF25E388013352
:101B50009FB2002F54D02669002E51D017F00F0AE3
:101B6000D4F8009007D1E1680136266171BBB9F85D
:101B70000830BB4244D909F1300303EB4A13E78034
:101B80006361C9E799F80130E3B909F1300B3946CF
:101B900058460BF0F7FFA8B9D9F81C30D9F8202027
:101BA00089F804001A449742BDD299F803A0BAF10B
:101BB000010FB8D91F4499F80130002B00F08F8035
:101BC000002EB3D0012003B0BDE8F08F99F80230A9
:101BD000013B13EA1713CED1012965D0D9F818308B
:101BE000994261D24846FFF729FF01285CD9431C7E
:101BF000E8D0D4F80090D9F818309842C0F0298184
:101C0000042003B0BDE8F08F0F2B3BD0002D00F077
:101C1000D6804FF6FF71A3692184D97AC90794D47D
:101C2000157819788D4290D15D7851788D428CD19C
:101C3000957899788D4288D1DD78D1788D4284D19C
:101C4000157919798D4280D1557959798D427FF472
:101C50007CAF957999798D427FF477AFD579D97931
:101C60008D427FF472AF157A197A8D427FF46DAF91
:101C7000557A597A8D427FF468AF927A9B7A9A426C
:101C8000A1D062E7E669E388002E3FF460AF4F061B
:101C900034D501F0BF05517B238400910098517B1E
:101CA000814231D0FF2552E702208CE799F80100EC
:101CB000002887D1012332466D4909F0D5FFC6F3CC
:101CC0000E20FFF7D7FB7302C3F3100309F13001B5
:101CD00043EA404009F03CFCC9F82C6026E70AF1D1
:101CE000FF3A394658465FFA8AFA0BF04BFFBAF1D1
:101CF000010F3FF418AFD9F81C305BE7A942D1D1EE
:101D0000517B00988142CDD11178DFF8688121F0B4
:101D1000400909F1FF3909EB49004FF0010B4FF67B
:101D2000FF7E944609EB800908F10D0A019503E056
:101D30007545B7D1D04534D018F8012B0CEB020013
:101D400040781CF8025045EA0025BBF1000FEFD0A7
:101D5000494A61209346002703E03BF8020F013710
:101D600030B1A842F9D1454800EB4707B7F82055F4
:101D7000B9F1270F96D836F819B06120002709F17C
:101D8000010903E032F8020F013730B15845F9D1AB
:101D90003A4A02EB4707B7F820B55D4582D1D045F6
:101DA000CAD14806019D07D5BBF1000F04D036F813
:101DB0001920002A7FF476AF013DEDB2C7E65578D1
:101DC000CB0143EA51032B44C3F3460141EAC3115B
:101DD0009378C9B21944C1F3460343EAC113D178D9
:101DE000DBB20B44C3F3460141EAC3111379C9B214
:101DF0001944C1F3460343EAC1135179DBB20B44E2
:101E0000C3F3460141EAC3119379C9B21944C1F33E
:101E1000460343EAC113D179DBB20B44C3F3460155
:101E200041EAC311137AC9B21944C1F3460343EA24
:101E3000C113517ADBB20B44C3F34601957A41EAF0
:101E4000C3132B44009903F0FF038B427FF4E1AEF0
:101E5000B9E6023BE060023898422FBF002699F8AD
:101E60000220D9F8283000FB0236266183E600BF45
:101E7000E8C7010074DD010084DD010044DA0100DF
:101E80002DE9F84305460E46E9B9C7688369002F76
:101E900000F0A1809F4228BF01273C4601349C42AC
:101EA00020D3012F00F09580022B1DD902242B781E
:101EB000022B7AD0032B55D0012B19D04FF0FF34D1
:101EC0002046BDE8F88301290ED0836999420BD2E0
:101ED000FFF7B4FD0128044606D9AB69834204D854
:101EE0003746DAE7012CE2D101242046BDE8F88329
:101EF000296A04EB5409284601EB5921FFF76CFBD2
:101F00000028DBD1296AC9F3080309F101092B4430
:101F1000284601EB592193F83080FFF75DFB00283C
:101F2000CCD1C9F30809A94499F83030E10748EA4F
:101F3000032352D51B0932D1AB69A342D4D96FF028
:101F4000704221462846FFF797FB002858D1002E03
:101F500048D12B69EC605A1CC7D00122013B2B6190
:101F60006A71C2E7296A284601EBD411FFF734FBF6
:101F70000028A3D1A30003F4FE7303F130022A4426
:101F80002B4493F830109378D0781B04527843EAAE
:101F900000630B4343EA022333F07043CCD0012BA0
:101FA000A2D0A74215D0AB6978E7296A284601EB91
:101FB0001421FFF711FB002880D1630003F4FF73A5
:101FC0002B4493F8312093F8303053EA0223E6D1C2
:101FD000B2E7002489E701275FE7C3F30B03002B77
:101FE000DDD1A9E7012E3FF47FAFAB699E42BFF47C
:101FF0007BAF224631462846FFF73EFB0028A8D09B
:1020000001283FF45BAF6FE72DE9F0478468054690
:10201000012CC18028D0D0F80080D8F81830A34215
:1020200022D90E461CB398F80220B1EB021F4FEAEA
:1020300002175FD3A34217D998F80030022B00F0A3
:102040008F80032B6ED0012B20D00120BDE8F087BC
:10205000D8F824407CB198F80220B1EB021F4FEA77
:10206000021747D3012CE5D10220BDE8F08798F88C
:102070000020032AECD00022B8F80830EA60B3420E
:10208000F2D9D8F8243003EB161341E0D8F8201029
:1020900004EB5409404601EB5921FFF79DFA002853
:1020A000D3D1D8F82010C9F3080309F1010943443A
:1020B000404601EB592193F830A0FFF78DFA002834
:1020C000C3D1C9F30809C14499F830304AEA032A58
:1020D000E3074CBF4FEA1A14CAF30B04012CC3D90F
:1020E000D5F80080D8F81830A342BDD9F11B8EB2C4
:1020F000BE429FD2023BEC60023C9C422FBF0023B9
:10210000D8F8283098F8022004FB023303EB1613AA
:1021100008F1300806F00F0108EB41110020C5E975
:102120000431A2E7D8F82010404601EBD411FFF7A4
:1021300053FA002889D1A40004F4FE7404F130039A
:102140004344444494F830209C78D97824045B7844
:1021500044EA0164144344EA032424F07044BDE7D4
:10216000D8F82010404601EB1421FFF735FA00287B
:102170007FF46BAF640004F4FF74444494F831308E
:1021800094F8304044EA0324A8E700BF2DE9F04F5B
:10219000C48885B00134A4B2002C3DD00369054643
:1021A000002B39D014F00F06026808D0002030321E
:1021B00002EB4612EC806A6105B0BDE8F08F8946FB
:1021C000C1680133036121B39778013F17EA1417FF
:1021D000ECD1012924D09369994221D21046FFF70E
:1021E0002DFC012880461BD9B0F1FF3F00F0918003
:1021F0002A689369834215D9A0F1020A023B53452C
:10220000C5F80C8003D99378976A0AFB03772F618E
:10221000CCE71389A342C9D8042005B0BDE8F08FEC
:102220000220C9E7B9F1000FF6D01046E968FFF7C0
:1022300027FE804600286ED00128F1D0B0F1FF3F84
:1022400067D0D5F80090D9F82CB0BBF1000F03D0BF
:1022500099F80430002B60D14FF40072002109F18D
:1022600030000EF0C9FB2A68A8F1020A9369991E92
:102270008A452CBF0021916A937838BF0AFB03116D
:10228000D162002B77D0CDE90067CDE902844FF011
:1022900000094FF0010B0C46164686F804B02CB32B
:1022A0007378002B35D106F13008214640460BF0FB
:1022B00069FC70BB3071D6E9070303449C4212D21B
:1022C000F778012F0FD97378044463B9013F214691
:1022D0004046FFB20BF056FC012F04D0F069737832
:1022E0000444002BF2D02E68F46AB37809F1010996
:1022F0005FFA89F901349945F462CED33246019FE1
:10230000009E2146DDE90284A1EB09019369D162B7
:1023100074E7012050E707204EE799F80130002BC1
:10232000F7D109F1300A594650460BF02BFC002832
:10233000EFD1D9E9072313449B4589F804000BD258
:1023400099F80320012A07D900952546144699F8E3
:10235000013023B12C46009DD5F800907CE7D9F8D8
:102360001C30013C9B4450465946E4B20BF00AFC39
:10237000012CECD1EEE79946C6E700BF2DE9F04FFE
:10238000D0E9064B89B0A26882466168206805AB37
:1023900007C39DF81F30DA07019340F1C580002381
:1023A000012581468846621EBDF81C709DF81E609E
:1023B000E3720092CAF81C30052DC4F80090C4F8EE
:1023C00004802781A67240F2318159462846BBF825
:1023D0000020C30343EA5003134431F8022F98B29C
:1023E000002AF6D1034600F00F0202F1300EBEF1D2
:1023F000390F88BF02F1370E0F2B8DF813E0C0F3B1
:102400000F1040F2198100F00F0101F13002392A5A
:1024100088BF01F137020F288DF81220C3F30F2176
:1024200040F2128101F00F0000F13002392A88BF1A
:1024300000F137020F298DF81120C3F30F3340F25A
:102440000981DBB203F13002D2B2392A84BF3733BB
:10245000DAB27E234FF0030C8DF810208DF80F3088
:102460000022009902E0624500F0EC8011F8010FB3
:102470001346202802F10102F5D10CF120026A4432
:1024800012F8141C062BE15412F8131C04EB03027F
:1024900051700CF1020203F1020112D0082A23D17B
:1024A0002022052B625403F103000AD0431C082BA1
:1024B000C0F108024FF0200188BF012220440EF035
:1024C0009BFA00215046FFF79FFD30BB5046FFF7B7
:1024D00015FB10BB0135ADB2642D7FF46DAF072144
:1024E000084609B0BDE8F08F20326A4412F8142C77
:1024F000052B62540CF1030203F10301E1D0082A19
:1025000070D12022042B625403F10400CED10021AB
:102510005046FFF779FD0028D8D004280146DFD1C6
:10252000019BE372CAF81CB0019B9B0700F19880E5
:10253000012400215046FFF767FD01460028CFD156
:102540000646054608E0B3B1054601215046FFF7AF
:102550001DFE002840F09880DAF81010DAF800002C
:10256000FFF73AF86A1C002840F08E80DAF8143041
:102570001B78E52BE7D10DB9BAF8066095B2AC42ED
:10258000E3D1012C40F08580DAF81010DAF8000071
:10259000FFF722F801460028A2D1DAF814302022F1
:1025A000009018460EF028FA0346DAF81820009931
:1025B000501C181A022840F2968110681860506862
:1025C0005860107A1872507A58720120927A9A7272
:1025D000DAF81820D27A02F018021A73DAF800300A
:1025E00018717DE720326A4412F8142C042B6254CF
:1025F00003F104023FF465AFBCF1030F07D02021C3
:10260000032BA15403F105007FF450AF59E7032BCE
:1026100004F802E003F105023FF453AF2021022B3E
:10262000A15403F106007FF441AF4AE705F1300EF3
:102630005FFA8EFE8DF813E07E234FF0060C8DF8C6
:1026400012300DE7634618E77E234FF0050C8DF836
:10265000113005E77E234FF0040C8DF81030FFE6B3
:10266000BBF80030002B3FF463AF002301339BB273
:102670003BF81320002AF9D1A34A03F11904A2FB65
:102680000424C4F38F0454E70146084609B0BDE8AA
:10269000F08F31465046FFF7B7FC014600287FF423
:1026A0001FAFDAF81830013C19781FFA84F8CA0114
:1026B00042EA510259780F260A44C2F3460141EA20
:1026C000C2119A78C9B21144C1F3460242EAC1125A
:1026D000D978D2B20A44C2F3460141EAC2111A794A
:1026E000C9B21144C1F3460242EAC1125979D2B2C9
:1026F0000A44C2F3460141EAC2119A79C9B21144AF
:10270000C1F3460242EAC112D979D2B20A44C2F3F5
:10271000460141EAC2111A7AC9B21144C1F3460214
:1027200042EAC112597AD2B20A449B7AC2F34605F0
:1027300045EAC2151D4405F0FF052B464FF6FD770F
:1027400045464FF6FF749846DAF81010DAF80000A4
:10275000FEF742FF014600287FF4C2AE5FFA85FE15
:10276000DAF814300EF1FF32DAF81CC002EB420145
:10277000588302EB810283F80D80A3F80B603CF8CC
:102780001210481E80B25970B8424FEA1121997058
:102790004FEA420124D9A3F80340A3F80540A3F867
:1027A0000740A3F80940DC811C825C829C82DC82A9
:1027B0001C839C83DC834EF0400E012283F800E0F2
:1027C000DAF80030002150461A71FFF7DFFC0146AD
:1027D00000287FF485AE013DADB2002DB4D1D3E623
:1027E00001323CF81200520000F1FF39D870000AA3
:1027F00018711FFA89F0B842CFD86244508800F1AE
:10280000FF395871000A98711FFA89F0B842C6D88A
:10281000908800F1FF39D871000A18721FFA89F008
:10282000B842BED8D08800F1FF395872000A9872B9
:102830001FFA89F0B842B6D8108900F1FF399873B1
:10284000000AD8731FFA89F0B842ADD8508900F158
:10285000FF391874000A58741FFA89F0B842A4D8D6
:10286000908900F1FF399874000AD8741FFA89F032
:10287000B8429BD8D08900F1FF391875000A587505
:102880001FFA89F0B84292D8108A00F1FF39987582
:10289000000AD8751FFA89F0B84289D8508A00F129
:1028A000FF391876000A58761FFA89F0B84280D8A6
:1028B000908A00F1FF391877000A58771FFA89F0DB
:1028C000B8423FF677AFD28A501E9A77120ADA776B
:1028D00082B2BA423FF66FAF8C44BCF81A20002A8D
:1028E0007FF46BAF67E71078187050785870907865
:1028F0009870D078D8701079187150795871907993
:102900009871D079D8715CE64FECC44E2DE9F04F48
:102910000769054683B0002F00F00181FF231E46A2
:10292000D0F80090DFF888820093D9F82C40BC42A0
:102930001DD099F8042099F8013009F1300B002AD4
:1029400049D1002B64D118463A460123414609F08B
:102950008BF9C7F30E20FEF78DFD7C02C4F3100443
:10296000594644EA404008F0F3FDC9F82C706A6902
:102970001378002B00F0D380E52BD17A07D02E2BD3
:1029800005D00C0701F03F0048D50F2849D0EC884E
:10299000FF260134A4B2002C00F0C1802F69002F63
:1029A00000F0BD8014F00F02D5F8009040F0B9801F
:1029B000E96801372F61002940F0CF80B9F808306D
:1029C000A34240F2AC8009F13003EC806B61002F30
:1029D000ABD100201FE0DBB92146584601930BF034
:1029E000D1F8A8B9019B89F80430D9E90713CA18AE
:1029F000944299F80130A4D299F803A0BAF1010FDA
:102A00009FD90C44002B00F09380BAF1020F98D1AB
:102A1000012000232B6103B0BDE8F08F0F2840F0A8
:102A20004D81590640F19580507BE988009003F074
:102A3000BF062984537B00998B42A8D11378EC6997
:102A400003F03F03013B03EB430103EB8103272B1F
:102A5000B2F801009BD824F81300B2F80370591C97
:102A6000002840F0A7804FF6FF739F428FD1B2F845
:102A700005E04FF6FF739E4589D1B2F807704FF617
:102A8000FF739F4283D1B2F809E04FF6FF739E4572
:102A90007FF47DAFD7894FF6FF739F427FF477AF06
:102AA000B2F810904FF6FF7399457FF470AF578AD4
:102AB0004FF6FF739F427FF46AAFB2F814C04FF62F
:102AC000FF739C457FF463AFD78A4FF6FF739F4235
:102AD0007FF45DAFB2F818904FF6FF7399457FF41D
:102AE00056AF978B4FF6FF739F427FF450AFB2F80B
:102AF0001EE04FF6FF739E457FF449AF13785A06E8
:102B000005D528293FF443AF002324F81130EC8881
:102B1000013E0134A4B2F6B2002C7FF43FAF042092
:102B200077E709F1300303EB4213EC806B61FCE6BD
:102B3000214658460BF026F80AF1FF325FFA82FA76
:102B4000BAF1010F99F801303FF4FBAED9F81C102F
:102B500057E7B3427FF41BAF6CE799F80230013BB3
:102B600013EA14137FF42FAF01291FD0D9F81830BE
:102B700099421BD24846FEF761FF012816D9431C33
:102B80003FF446AFD5F80090D9F818309842C6D235
:102B9000023BE8600238984280F0DE8099F802201B
:102BA000D9F8283000FB02372F610CE7022030E70C
:102BB000E8C7010028293FF4EAAE24F81170480064
:102BC000B2F805E0991C002F3FF453AF28293FF4D9
:102BD000DEAE2044A0F802E0B2F80770D91CBEF1C6
:102BE000000F3FF44CAF28293FF4D1AE8780B2F8F4
:102BF00009E0191D002F3FF448AF28293FF4C7AE64
:102C0000A0F806E0D789591DBEF1000F3FF443AF8D
:102C100028293FF4BCAE0781B2F81090991D002F0F
:102C20003FF440AF28293FF4B2AEA0F80A90578A8B
:102C3000D91DB9F1000F3FF43BAF28293FF4A7AEEF
:102C40008781B2F814C003F10801002F3FF437AFB9
:102C500028293FF49CAEA0F80EC0D78A03F10901E1
:102C6000BCF1000F3FF431AF28293FF490AE07824A
:102C7000B2F8189003F10A01002F3FF42DAF282974
:102C80003FF485AEA0F81290978B03F10B01B9F1D8
:102C9000000F3FF427AF28293FF479AE8782B2F8BE
:102CA0001EE003F10C01002F3FF423AF28293FF46D
:102CB0006EAEA0F816E003F10D011FE71EB14FF64E
:102CC000FF732B8485E6D90141EA530153780B4405
:102CD000C3F3460141EAC3119378C9B21944C1F361
:102CE000460343EAC113D178DBB20B44C3F3460178
:102CF00041EAC3111379C9B21944C1F3460343EA47
:102D0000C1135179DBB20B44C3F3460141EAC3114D
:102D10009379C9B21944C1F3460343EAC113D17987
:102D2000DBB20B44C3F3460141EAC311137AC9B2C3
:102D30001944C1F3460343EAC113517ADBB20B4491
:102D4000917AC3F3460242EAC3130B44009A03F09C
:102D5000FF039342B3D13CE6002209F13003C5E9F9
:102D60000423EC8035E600BF2DE9F04F0B788A464E
:102D70002F2B044683B02FD05C2B2DD00025A560CF
:102D80009AF800301F2B2FD9B04D534619781E46A4
:102D90002F299E4603F10103F8D05C29F6D01F29A4
:102DA0000A46E06914D9A0F1020C2F2AE0464FF040
:102DB000010335D05C2A33D0292B09D07F2A1BD8B8
:102DC0002221A34F02E017F8011FE9B19142FAD185
:102DD000062003B0BDE8F08F00250AF1010AA560C6
:102DE0009AF800301F2BCFD829462046FFF70CF960
:102DF000656103B0BDE8F08F05EB4101B1F8002635
:102E0000002AE5D07F2ADBD928F8022F1EF8012FEF
:102E10005F1C1F2A114640F2EF802F2A3B46C9D182
:102E200006EB030A013BD3D0002600EB430131F847
:102E3000022D202A01D02E2A02D1013BF7D1C7E76B
:102E40004FF02037002142F220084FF0200EA269F7
:102E500020F81310A2F808801760576082F80AE083
:102E600000E001313CF8022F202AFAD02E2AF8D0B7
:102E700009B146F0030600EB430701E0013B04D033
:102E800037F802CDBCF12E0FF8D1D4F818E001319B
:102E9000F446002A00F0EC8000274FF00808B946FD
:102EA000CDF804A0202A53D02E2A5AD0C8456ED877
:102EB000B8F10B0F5AD08B4200F0968046F0030613
:102EC0008B4280F091809EF80030F446E52BDDF8CF
:102ED00004A004D105238EF80030D4F818C0B8F14E
:102EE000080F05BFBB00DFB207F00C0303F00C03B3
:102EF0000C2B76D007F00307032F72D0B20707D44C
:102F0000012F08BF46F01006042B08BF46F0080644
:102F1000002120468CF80B60FFF776F8002854D18A
:102F20002046FEF7EBFDA369DB7A00284FD1590755
:102F30003FF54FAF6369DA7AD2064ED521685A8BD6
:102F40000978032904BF9B8A42EA0342A2601CE776
:102F50000A4646F00306511C30F81220002AA1D17F
:102F6000B1E78B42F4D1B8F10B0FA9D19EF8002044
:102F7000F446E52ADDF804A046F0030607F00C034A
:102F8000B6D105228EF80020D4F818C0B0E78B42E5
:102F9000E9D07F2A34D84FF02B0CE24694465246B3
:102FA0009445DFF8B0B005D01BF8012F002A42D0BD
:102FB0009445F9D15F2246F003060EF80920D4F8B3
:102FC00018E00A4609F10109C5E7A369DB7A04287C
:102FD0007FF4FFAE5C073FF5FCAE052003B0BDE813
:102FE000F08F46F0020693E7BF001A464FF00B0839
:102FF0004FF00809FFB2AEE706EB070A042614E714
:103000004FF0000CDFF850A004E00CF1010CBCF113
:10301000800F38D03AF802BB9345F6D10CF180020C
:10302000DFF828C092B2624492F8802746F0020688
:10303000002ABFD0AFE76246ACF1410CBCF1190FDA
:103040000CD847F00207D2B2B7E700BF44DA01005C
:103050004CC8010058C8010044E10100A2F1610C14
:10306000BCF1190F9CBF203A47F00107D2B2A4E788
:103070009EF80030E52B7FF44BAF05238EF800302F
:10308000D4F818C044E746F0020693E72DE9F04172
:10309000046816462378303B092B03D862783A2A15
:1030A00000F08E8000230B60824DEC68002C00F055
:1030B00093800C602378002B74D100232380FDF7CC
:1030C000E9FE10F0010740F0848016B1430700F1DB
:1030D000868000212046FEF7EBF901286AD00328FC
:1030E0007FD0002869D1B4F83B30B3F5007F64D1BC
:1030F000B4F8461001B9616D94F84020E161531EA7
:10310000012BE27059D894F83D30A370002B54D0B5
:10311000581E184251D1B4F84100060720814CD105
:10312000B4F8436006B9266DB4F83EE0BEF1000F76
:1031300043D001FB02F20EEB101C944466453CD3D5
:10314000A6EB0C069E42B6FBF3F836D30EEB070651
:1031500040F6F57EF04507EB0C0308F1020C49D967
:103160004FF6F57EF045A3625ED8C4F818C026621B
:1031700018B34FEA4C0303F2FF133244B1EB532F61
:1031800062621AD34FF0FF3200230221C4E90332F6
:1031900000222B8A217001339BB22B82E380E262F2
:1031A000227105E06078002887D1434908F05CFD72
:1031B000002003E094F8F231ABB90D20BDE8F081B6
:1031C0000022023404600A60002B3FF46DAF0B2034
:1031D000F4E70320BDE8F0810C20BDE8F0810A206F
:1031E000ECE70120EAE7D4F8F67120463946FEF70D
:1031F0005FF974E7A362C4F818C026620028DCD027
:103200000CF00103164403F2FF130CEB4C0203EB2A
:103210005203B1EB532F6662CFD34FF0FF3200233E
:103220000121C4E90332B3E72662C4F818C00028BC
:10323000C3D14FEA8C03E26D03F2FF13B1EB532FBE
:103240006262BAD34FF0FF32B4F8606063783E44F4
:10325000E060607166612261BBB9324601231749A3
:1032600008F002FDC6F30E20FEF704F97302C3F363
:10327000100343EA404004F1300108F069F94AF6CE
:103280005523B4F82E229A4201D0032180E70C4B3B
:10329000226B9A42F9D103F1FF53D4F8142203F5BB
:1032A000005320339A42F0D1D4E98623C4E9033293
:1032B000EBE700BFE807001060C80100E8C70100A5
:1032C000525261412DE9F04300230446A5B001911B
:1032D000164601A806A9236002F01E02FFF7D6FEDB
:1032E000054618B1284625B0BDE8F08303AB0C9322
:1032F00001990FAB06A80D93FFF736FD0B9F06F063
:103300001C03002836D1002F6ED0FA7A002B39D05A
:1033100012F0110F5BD13207069B3ED50022334BD2
:10332000FA72C7F80E30069BFA611A78B7F81A805D
:10333000032A08BFBA8A4FF0010108BF48EA0248D1
:1033400000227A83BA821971B8F1000F23D018468F
:103350004146D3F82C900093FEF70EFA009B60B91B
:1033600008F1FF3249461846DA60FEF735F920B910
:10337000009B10E00BB104282DD00546284625B04F
:10338000BDE8F083D30624D4B00701D5D1071ED4FD
:103390003207069B01D546F02006DA6AA671C4E919
:1033A000072719787A8B032908BFB98A284608BFEE
:1033B00042EA014222610022F9692360DB88C4E904
:1033C0000221A380A261626225B0BDE8F0830725D7
:1033D00088E7042586E706A8FEF7D0FF46F0080632
:1033E0000028CAD10B9F99E706257BE700009A3C8D
:1033F0002DE9F04F0546ADF53F7D15AE2B46384A19
:103400000C46304628210EF02BF933462A46002080
:10341000344908F029FC00230A220CA908A80896C0
:103420003493FFF733FE18B10DF53F7DBDE8F08F03
:1034300009AB129308991FAB0CA81393FFF794FCE8
:10344000119E002843D1002EEED0F37A13F0110F15
:10345000EAD10023244A0C9DC6F80E20F372F361D2
:103460002B78778B032B08BFB38A4FF0010208BF7C
:1034700047EA034700237383B3822A71002F40F089
:103480000A822A238DF8D630EB6A3C963B93297842
:10349000738B032900F0C0813893F369EA8837936E
:1034A00000233495ADF8D42036933A933D9309B177
:1034B0006D78EDB134A80AF0DFFE00273A4600200F
:1034C0000A4908F0D1FB0DF53F7DBDE8F08F0428D7
:1034D000AAD10CA8FEF752FF119E0028B9D0A3E78D
:1034E00074C801008CC8010000009A3CBCC80100EF
:1034F0002846AE4908F0B8FB9DF9D6209DF8D63095
:10350000002AD7DB9807D5D5DDE9362010F5007FF6
:103510002CBF002101214F02002900F00D814FF442
:1035200000762F46B346C2F30803002B40F0198102
:103530003498530A81784D1E05EA522515F0FF058F
:103540000ED1002A40F04F81389B002B00F08F8174
:10355000012B00F0B3815A1C00F0B08134983993EC
:103560009DF8D6305E0600F11081399A8169023AE1
:1035700002398A4280F0F28090F802C0816A0CFB26
:103580000212002A00F0EA80BBF5007F02EB050979
:10359000C0F0148105EB5B22407894454FEA5B262E
:1035A00038BFACEB0506002840F0D880F5B22B46BA
:1035B0004A467F4908F058FB002D00F0B080A04635
:1035C00004EB4523CDE90396CDE9057B0293DFF8B3
:1035D000E4A1C4EB4923784D01930794019B08EBC8
:1035E00003044FEA544B5846FDF744FFC4F310045C
:1035F00044EA4044FDF79AFF4023670CCAF81C30A8
:103600007F048146460400BF00BF00BF00BF00BF6B
:1036100000BFEB68D807FCD50623AB60EB68590701
:10362000FCD5AB6800BF00BF00BF00BF00BF00BF3C
:103630004023CAF81830CAF81C3000BF00BF00BFD2
:1036400000BF00BF00BFEB68DA07FCD5D823AB6032
:10365000EB685B07FCD5AB68F20AF10EEB68D807A4
:10366000FCD5A960EB685907FCD5AB68F10CEB6899
:10367000DB07FCD5C9B2A960EB685807FCD5AB687D
:10368000EB68D907FCD5D2B2AA60EB685B07FCD522
:10369000AB6800BF00BF00BF00BF00BF00BF40233A
:1036A000CAF81830FDF708FB3846CDF8009007F54A
:1036B0000037361A04E007F0E3FF4F4548460ED0C6
:1036C000844200F5006906EB0001F4D34C45F2D2C8
:1036D0002046424608F0ACF84F454846F0D1DDF8A8
:1036E00000904FEA4B00C9F30E094FEA5B1100F05E
:1036F0003E001FAAADF87C9008F086F9029B08F501
:10370000007898457FF46AAFDDE90396DDE9057B33
:103710003A99079CA1EB09018E4200F2AE80750236
:10372000369ABBEB050B2A442C442F4436927FF487
:10373000FAAE37989DF8D630904238BF379243F0B2
:10374000200334A88DF8D6300AF096FDB7F5007F37
:103750007FF4B4AE0DF53F7DBDE8F08F43F08003FC
:10376000EFE7C3F500755D4528BF5D4634AA2833F1
:10377000D0186A1E214601320EF09AFC9DF8D63010
:1037800043F040038DF8D630CAE742783A99002AD0
:10379000E4D13EA80AF0F6F99DF8D6300028DDD134
:1037A00003F0BF0334988DF8D630DEE660C8010020
:1037B000A4C8010000800920000003403A99369A0D
:1037C000894502D0379991423AD8C2F30802C2F52E
:1037D00000755D4528BF5D46283234AB9818CDF89A
:1037E000E8906A1EC6E73D9E2EB3B3FBF1F3716805
:1037F000301D29B99DE75B1A50F8081F002998D0A1
:103800008B42F8D242681344002B7FF4A1AE9DF89E
:10381000D630DDE936208FE70022B18A349543EABD
:1038200001433893F3693793EB883692ADF8D4307F
:103830003A923D923CE63999FEF722FB0346E3E7D4
:10384000407800288AD14A4601231F4908F00CFA23
:10385000C9F30E20FDF70EFE4FEA4923C3F3100310
:1038600043EA40403EA907F073FE369AADE7294689
:10387000FEF706FB03463890C6E74FF4007204EBF0
:1038800041213EA80EF014FC9DF8D63023F04003F1
:103890008DF8D63043E739462846D5F82C80FDF719
:1038A0006BFF00287FF4C0AD013F41462846EF6022
:1038B000FDF792FE00283FF4E4ADB5E59DF8D63063
:1038C00043F080033DE700BFE8C701002DE9F04168
:1038D0000446B6B017AD282123463D4A28460DF0D0
:1038E000BFFE224600203B492B4608F0BDF90122CD
:1038F00005A901A80195FFF7C9FB10B136B0BDE8D5
:10390000F08102AA21AB019905A8CDE90B23FFF7AD
:103910002BFA0028F2D10A9B002BEFD0DA7AD107DC
:10392000ECD405995E8B0978032945D0D3062CD4B5
:103930004FF6FF73BDF81A50BDF8341005A8994230
:1039400008BF2946FEF760FB0028D7D14FF0E508F5
:10395000012704E005A8FEF719FC0028CED1059C3C
:1039600009992046FDF738FE01460028C6D10A9B7A
:1039700083F80080BDF81A302771AB42EAD3059C6A
:10398000F6B92046FDF7F2FFB8E7012EB6D905AD2E
:103990000EAC0FCD0FC40FCD0FC42B6802210EA8A3
:1039A00010962360FEF730FB0028A7D10EA8FEF783
:1039B000ADFF0428A2D1BBE79B8A46EA0346B5E7E0
:1039C00031462046FDF7D8FE002897D1D9E700BF41
:1039D00074C80100D4C8010030B50446ADF5377D88
:1039E0000020224623490DAD08F03EF92821224A45
:1039F000234628460DF034FE0022684604A90095AF
:103A00002C92FFF743FB18B100200DF5377D30BD38
:103A100001AB0A93009917AB04A80B93FFF7A4F925
:103A2000099A0028F0D1002AEED0D37ADB06EBD435
:103A3000012304993492C86A8DF8B63033900B781C
:103A4000508B032B08BF938AD26908BF40EA03401A
:103A50000023CDE92F20CA882CA82C91ADF8B420E2
:103A60002E93329335930AF007FC01200DF5377D34
:103A700030BD00BFECC8010074C801002DE9F04F53
:103A8000994690F9063090F80680002B85B0C0F278
:103A9000998018F0010800F01C810E46D0E902154B
:103AA0006D1A954228BF15460446002D00F0298165
:103AB000C1F3080000284BD120684B0A827802F13C
:103AC000FF3A0AEA512A1AF0FF0A69D0636982694B
:103AD000023B023A934271D28278876A02FB0377F3
:103AE000002F6BD0B5F5007F574471D2A1698F428A
:103AF0002AD0A379427813F0400F04F1280A09D0A4
:103B000052B950460AF03EF8A37928B903F0BF0332
:103B10002068A371407830B143F08003A371404620
:103B200005B0BDE8F08F01237D493A4608F09CF8C6
:103B3000C7F30E20FDF79EFC7B02C3F31003514632
:103B400043EA404007F004FDA068A761C0F3080005
:103B5000C0F50077AF4228BF2F462830791E204499
:103B6000052900F1010302D9F21A022A3FD80131D6
:103B70000844721E00E0013313F8011C984202F859
:103B8000011FF8D1A368ED1B3B44A360D9F80030B6
:103B90003E443B44C9F8003000F0B380A16887E799
:103BA000002949D12369012B08D95A1C1DD020684E
:103BB00063618269023B023A93428DD3A37963F039
:103BC0007F03A3714FF00208404605B0BDE8F08FB7
:103BD0000AEB55239A4240784FEA552138BFA2EBB1
:103BE0000A03039138BF039398B3A37994E733464C
:103BF000024601F1010A2AF0030EB64452F804CB42
:103C000043F804CB9E45F9D12AF003031AF0030FC1
:103C1000A1EB030100EB030C06EB0302B2D0C05C86
:103C2000F0540029AED09CF8013001295370A9D07E
:103C30009CF802309370A5E7616A002938D1616968
:103C40000129BBD983699942B8D2FDF7F7FE034633
:103C5000A9E79DF80CA03A465346314908F004F80C
:103C6000BAF1000F21D0B34606EB4A230293C6EB0C
:103C700047230193019B0BEB030A4FEA5A40FDF7E0
:103C8000F9FBCAF31003594643EA404007F060FCD1
:103C9000029B0BF5007B9B45ECD1A3795B0604D519
:103CA000A369039ADB1B9A4219D8039B5F0269E759
:103CB000B3FBF2F34A68043132B97FE79B1A51F83B
:103CC000082F002A3FF47AAF9342F7D24A68134490
:103CD00069E74FF00708404605B0BDE8F08F06EBF6
:103CE000432304F129029A1A022A0DD904F1280269
:103CF00003F5007052F8041B43F8041B9842F9D1F5
:103D0000D3E74FF000080AE7013B04F1280204F56D
:103D10000A7012F8011B824203F8011FF9D1C4E7AF
:103D2000E8C7010070B504460D46ADF5367D0DAE11
:103D300028212346394A30460DF092FC334622466C
:103D40000020374907F090FF4FF400720021284609
:103D50000CF052FE0022684604A900962C92FFF750
:103D600095F910B10DF5367D70BD009901AB17AC1A
:103D700004A80A930B94FEF7F7FF09990028F1D1E4
:103D80000029EFD0CB7A13F01003EBD10120049A75
:103D90008DF8B600D06A349133901678488B032E94
:103DA0002DD0C9693090CDE92E31D1883293359329
:103DB0002C922360ADF8B4100EB1507858B12CA8F5
:103DC0000AF05AFA002422460020164907F04CFF58
:103DD0000DF5367D70BD144907F046FF23464FF4BC
:103DE000007229462CA8FFF749FE24682CA80AF087
:103DF00043FAB4F5007FE6D10DF5367D70BD8E8AAD
:103E0000C96940EA06402F91D1882E932C923090B8
:103E1000329335932360ADF8B410CEE774C8010037
:103E2000F8CA01000CCB010060C8010030B504469F
:103E30000D46ADF2045D002022462B46334907F0C3
:103E400013FF2821324A234602A80DF009FC012263
:103E500002A9B6A8FFF736FA20B1002420460DF2D9
:103E6000045D30BD2B462821294A02A80DF0F8FB3D
:103E7000012202A92CA8FFF725FA04460028ECD15C
:103E8000244D05E0019B402B35D1009B402B32D1C6
:103E9000B69B01948BB11A787AB1D988BDF8DC222F
:103EA00091420AD1587840B9294607F0DDFE4022F8
:103EB00001AB1CA9B6A8FFF7E1FD2C9B00948BB1C8
:103EC0001A787AB1D988BDF8B42091420AD15878CD
:103ED00040B9294607F0C8FE6B4640220CA92CA821
:103EE000FFF7CCFD40220CA91CA80DF03BFC0028DC
:103EF000C8D0002400E00124B6A80AF0BDF92CA81F
:103F00000AF0BAF920460DF2045D30BD24CB010061
:103F100074C8010060C80100F8B50446008B000AAF
:103F2000FCF744FC94F9297020FA07F6608B000A2C
:103F3000FCF73CFC20FA07F5A08B000AFCF736FCE6
:103F400094F92A3020FA07F1B6FBF3F2B5FBF3F04F
:103F5000B1FBF3F3C91A94F82B30B21A2D1A1201DF
:103F60002D010901013BA260E5602161032B26D8E8
:103F7000DFE803F0020D191DE38BE08A00FB03F17B
:103F8000DB439BB24343090C21841B0C1AE0A38A38
:103F9000E18A01FB03F2DB439BB24B43120C228408
:103FA0001B0C2A460EE00022E38A22840AE000234A
:103FB000E28A2384E38B53430A461B0C02E000236E
:103FC0001A46238463842260F8BD00BF002290F863
:103FD0002B3002600133DBB2032B426080F82B30C0
:103FE00004D0052B1BD0022B07D0704790F9283046
:103FF000C28AC3B9038442847047828AC18AD34388
:104000009BB201FB02F201FB03F3D0F80CC0120CCF
:104010001B0C8184C0F800C002844384704780F880
:104020002B2082847047B0F814C000B56FEA0C03EF
:104030004FF0010E02FB0CF19BB202FB03F3090CE3
:10404000018481681B0CA0F81EC0016080F82BE081
:1040500043845DF804FB70B49DF81460BDF80C4017
:104060000F2EBDF8105019D1058B868A8D4218BFCE
:104070000183418B14BF012500259142818B03D020
:104080009E42428302D102E09E4203D08382A1423B
:1040900002D109E0A14206D0848305E0C38AAB4285
:1040A00004D0C58200E00DB170BC35E770BC70472C
:1040B0002DE9F843002605460F46674C14F8013CED
:1040C000032B2ED1FC2D00F08D80FD2D2FD0FE2D49
:1040D00051D0DFF8888198F8123E002F68D05A1C22
:1040E00088F8122E94F880C098F8112E62447F2A26
:1040F00017DCA5F10C00C0B2002B40F08D8094F8C5
:1041000085304FEA061E013384F885300EEB060336
:1041100008EBC30363440CF1010C84F880C083F8FE
:10412000010D88340EB90126C8E7BDE8F88394F87C
:104130008530002BF5D0013BDFF8208184F88530F5
:1041400098F8113E002B5CD106EB06104FF0FF0CE7
:1041500008EBC00007E084F8803091F8013D81F859
:1041600001CD1906DDD594F88020531EDBB2C118AD
:10417000002AF0D1D5E7394B94F8802093F8111E2E
:1041800088187F28CDDC94F88500013084F88500FC
:1041900093F8120E002858D17F2106EB061003EB8E
:1041A000C0031344013283F8011D84F88020B8E76E
:1041B0005BBB06EB061394F88020DB002848013334
:1041C00013447E2198F8112E18440CF015FC00229F
:1041D00094F8803098F8111E0B4484F8803088F8E9
:1041E000112E9EE70023DFF874C084F8803084F835
:1041F00085308022FF2120468CF8113E0CF0FCFB1C
:104200008FE7013B88F8113E8BE7013BDBB288F872
:10421000123E002B85D1CCE70CF1FF3306EB0619DB
:104220005BB208EBC9094FEA061E03E0120610D57F
:10423000002B0EDB09EB030292F8012D013B02F08B
:104240007F0188425BB2F1D16BE7013183F8111E27
:1042500067E740F0800059E7E9140010E807001014
:10426000E814001006210022FF2070B40C4B0D4C06
:1042700093F8735E03F6146314F8016B354204D0AF
:104280001A769A76D87598751A61013911F0FF017E
:1042900003F10C03F0D170BC102203480CF0ACBB4E
:1042A000E807001038E30100FC15001030B54E4C53
:1042B00083B094F8733EDB0706D594F92D3E1BB10D
:1042C00094F92F3E002B41D194F8733E9D0706D5FB
:1042D00094F9393E1BB194F93B3E002B43D194F83D
:1042E000733E580706D594F9453E1BB194F9473EF5
:1042F000002B45D194F8733E190706D594F9513E29
:104300001BB194F9533E002B47D194F8733EDA0663
:1043100006D594F95D3E1BB194F95F3E002B49D15F
:1043200094F8733E9B0606D594F9693E1BB194F947
:104330006B3E002B4BD100232C4AC4F8143E84F86A
:10434000753EC2E90133D36003B030BD0025B4F837
:10435000283E94F82B0E2A462946009508F0D0FDF9
:10436000A4F82D5EB0E70025B4F8343E94F8370E7B
:1043700001222946009508F0C3FDA4F8395EAEE796
:104380000025B4F8403E94F8430E022229460095D9
:1043900008F0B6FDA4F8455EACE70025B4F84C3E45
:1043A00094F84F0E03222946009508F0A9FDA4F8C1
:1043B000515EAAE70025B4F8583E94F85B0E04223B
:1043C0002946009508F09CFDA4F85D5EA8E700254D
:1043D000B4F8643E94F8670E05222946009508F06B
:1043E0008FFDA4F8695EA6E7E8070010FC15001031
:1043F0002DE9F04F1F467C4E7C4C134600F007021F
:10440000324493B0029792F8F47804EBD002054658
:1044100094F974AE92F8140E002900F0A3800743BB
:10442000D4F81CB382F8147EBAF1000F40F00D826C
:1044300094F8730E10F0010203920DD094F92C2E13
:10444000D4F8247E002A00F00882BB4504D994F8F1
:104450002B2EAA4200F021814FF0FF373A4610F090
:10446000020F00F0020C0ED094F9388ED4F830EE22
:10447000B8F1000F00F0F781F34504D994F837EE56
:10448000AE4500F0158410F0040F00F004090ED0C2
:1044900094F9448ED4F83CEEB8F1000F00F0E881B6
:1044A000F34504D994F843EEAE4500F0FF8300F0E5
:1044B000080E10F0080FCDF810E00ED094F9508ED1
:1044C000D4F848EEB8F1000F00F0D881F34504D9D4
:1044D00094F84FEEAE4500F0E78300F0100E10F0B8
:1044E000100FCDF814E00ED094F95CEED4F8548E91
:1044F000BEF1000F00F0C881C34504D994F85BEE0B
:10450000AE4500F0368300F0200E8006CDF818E0AE
:1045100009D594F9680ED4F860EE002800F0E68220
:10452000F34500F24282571C40F0B88003980028FF
:1045300000F0428294F82A0E04EBD00797F8147E1C
:104540003FB100F00700304490F8F408074240F013
:104550003382D4F824EE4FF0FF32BEF1FF3F18BF94
:1045600000222AE220EA070082F8140E94F8737EF3
:10457000BAF1000F00F0FD8094F92C2E07F002092B
:10458000039294F82A2E07F0040A099294F9382E1F
:1045900007F0080B049294F8362E07F0100C0A92DC
:1045A00094F9442ECDE90F53059294F8422E94F8D5
:1045B000720E0B9294F9502E069294F84E2E0C9295
:1045C00094F95C2E079294F85A2E0D9294F9682E65
:1045D000089294F8662E0E9207F0010207F0200769
:1045E000B8461192174609E044DA0100E8070010C6
:1045F00001318BB2802B09B200F07482022812BF05
:104600000B46C1F17F031BB2C3F3C402224492F8EC
:10461000142E5FFA83FE002AEAD00EF00705354417
:1046200095F8F4582A42E3D027B1039A12B1099AB7
:104630009A42DDD0B9F1000F04D0049A12B10A9A5F
:104640009A42D5D0BAF1000F04D0059A12B10B9A54
:104650009A42CDD0BBF1000F04D0069A12B10C9A49
:104660009A42C5D0BCF1000F04D0079A12B10D9A3E
:104670009A42BDD0B8F1000F03D0089A002A40F04A
:10468000BF8075464FF0010AB4F8763ED4F81CB3EB
:10469000002840F0BA80A4F8763E0022CDE903ABB2
:1046A0004FF0010992469B46B24FA7F1570817F801
:1046B000010FFF285AD0039B0AEB4A0C009340F2EB
:1046C00001134FEA8C0C04EB0C010CF1180C28F8C8
:1046D0000C30049B2844C1F8243E029BC0B281F8F0
:1046E0002B0E81F82F3E524681F82E9EA1F828BE4F
:1046F00081F82A5E5B46012108F002FC5FFA8AF22B
:10470000511CC9B2062994F8730E2FD006EB010C88
:104710009CF8F4C810EA0C0F40F0DD81911CC9B27E
:10472000062923D006EB010C9CF8F4C810EA0C0F04
:1047300040F0D181D11CC9B2062917D006EB010C7B
:104740009CF8F4C810EA0C0F40F0C581111DC9B2E5
:1047500006290BD006EB010C9CF8F4C810EA0C0FEC
:1047600040F0B98112B9830600F1A48213B0BDE80C
:10477000F08F07F0010222B194F92C2E002A40F0AC
:10478000FB8094F8732E920704D594F9382E002AF2
:1047900040F0D78094F8732E570704D594F9442E2F
:1047A000002A40F0B68094F8732E160704D594F9C9
:1047B000502E002A40F0958094F8732ED00603D531
:1047C00094F95C2E002A75D194F8732E9106CDD5FC
:1047D00094F9682E002AC9D094F8662EAA42C5D151
:1047E000002294F9751E84F86A2E0029BED100912A
:1047F000052294F8670E84F8691E08F081FBB5E77E
:104800000E9A9A427FF43DAFF2E6002207E00128BB
:10481000ACD04FF0010A0132802A3FF43CAFC2F322
:10482000C40195422144F6D091F8147ED1B201F032
:1048300007013144002FEED091F8F4180F42EAD06E
:104840009542E4DC0228E4D190E794F8720E4FF030
:10485000000A00283FF41FAFD7E77A1C4FF0FF3261
:1048600018BF0022FBE5774584BF77460A460AE673
:1048700077457FF61CAE7746022218E677457FF62D
:104880002CAE7746032228E647457FF63CAE00F083
:10489000200210F02000069200F06A8194F9680E60
:1048A000D4F8602E002800F0378293457CD8F24679
:1048B0000422F3E694F85A2EAA4285D1002294F9F4
:1048C000751E84F85E2E00297FF47EAF00910422CD
:1048D00094F85B0E84F85D1E029308F011FB029BB6
:1048E00072E794F84E2EAA427FF466AF002294F944
:1048F000751E84F8522E00297FF45EAF00910322CA
:1049000094F84F0E84F8511E029308F0F9FA029BB6
:1049100052E794F8422EAA427FF445AF002294F960
:10492000751E84F8462E00297FF43DAF00910222C7
:1049300094F8430E84F8451E029308F0E1FA029BB6
:1049400031E794F8362EAA427FF424AF002294F97E
:10495000751E84F83A2E00297FF41CAF00910122C5
:1049600094F8370E84F8391E029308F0C9FA029BB6
:1049700010E700BF5316001094F82A2EAA427FF4C5
:1049800000AF002194F9752E84F82E1E002A7FF4C2
:10499000F8AE0092114694F82B0E84F82D2E029357
:1049A00008F0AEFA029BECE6042294F8670EA842E7
:1049B0007FF4B9AD052271E696460CF0FF00079032
:1049C000BCF1000F13D094F8360E04EBD00797F823
:1049D000147E37B100F00700304490F8F408074225
:1049E00005D1D4F8300E864584BF86460A4609F0C4
:1049F000FF08B9F1000F13D094F8420E04EBD00772
:104A000097F8147E37B100F00700304490F8F408AE
:104A1000074205D1D4F83C0E864501D986460222CC
:104A2000049800F0FF07089798B194F84E0E04EB35
:104A3000D00797F8147E37B100F00700304490F8A3
:104A4000F408074205D1D4F8480E864501D98646B8
:104A50000322059800F0FF07059700284BD094F833
:104A60005A0E04EBD00797F8147E37B100F0070018
:104A7000304490F8F40807423DD1D4F8540E8645EE
:104A800039D9069A02F0FF070497002A00F05C81EA
:104A90008646042294F8660E04EBD00C9CF814CEE3
:104AA000BCF1000F07D000F00700304490F8F40884
:104AB0001CEA000F25D1D4F8600E704521D20522E2
:104AC0000221284600910021CDE9032308F018FABD
:104AD000DDE90323E2E54FFA81FAA34BBB427FF401
:104AE000E6AD43E6119ADDE90F5344E6BE45BFF457
:104AF0001AAD82465EE7069800F0FF07049700288B
:104B0000C8D1501CDCD1039F94F8720E002F00F026
:104B10003781012800F08480022849D058B3079FCC
:104B2000002F00F0B58080B3AC464FF0FF3EB8F1E7
:104B3000000F00F0C580012800F08780002800F0F9
:104B4000F680059929B1012800F0A580002800F021
:104B50000281049900295FD0012800F0908002288A
:104B600055D0002858D1D4F8601E8E45A7D853E000
:104B70008246042292E5D4F824CEBCF1FF3F40F0F7
:104B80000981079F002F00F033814FF0FF3CD4F8DC
:104B900030EEE645C0F0C680A946E646CC46B8F100
:104BA000000F00F08D8001284FD0022814D0C5E7F7
:104BB00094F82B9E4D4568D9079A002A00F0118180
:104BC000002294F837CECC4580F0BB80B8F1000FBE
:104BD00073D00A464FF0FF3E94F8431E8C456FD9C0
:104BE000089A002A00F084808C46022294F84F1E16
:104BF00061457FD2059A22B194F85B0E814200F2A2
:104C0000B580049A002A00F0E3808C46032294F8D1
:104C1000671E6145FFF453AF511C3FF4A7AD4FE74A
:104C200094F82B9E4D4580F0C380079A002A00F02F
:104C3000E280002294F837CECC4540F28280B8F171
:104C4000000F3AD00A464FF0FF3E94F8431E8C45C1
:104C500036D2089A002A4BD08C46022294F84F1E76
:104C6000614547D9059A22B194F85B0E8142C0F0A4
:104C7000A580049A002A00F0AB808C46032294F8A9
:104C8000671E61453FF61BAFC6E7079F002F7FD128
:104C9000AC46964683E794F85B0E604500F28E8042
:104CA00004990029EBD1B7E70322F7E40222F5E4E7
:104CB0000A46F3E44FF0050A0FE70A464FF0FF3EBD
:104CC0000899B9B10128C9D002288FD000283DD158
:104CD000D4F8481E71450DD2059A1AB1D4F8540E75
:104CE00081425BD8049A002A72D08E4603223AE7AA
:104CF0008C460222059900293FF42BAF0128CAD027
:104D000002287FF423AF94F85B0E84452ED80499D3
:104D100000297FF47CAF7FE742452CBF04220522A7
:104D20008246BBE40A46AC46B8F1000FC8D0D4F8BE
:104D30003C1E7145C4D2089A8E46002AD9D0022260
:104D4000C6E74FF0FF3C28E70422B9E605990029A1
:104D50007FF4FCAEFDE6D4F8540E86451ED80499C7
:104D600000297FF400AF57E759160010049A002A73
:104D7000EAD094F8672E82422CBF042205229FE6D7
:104D8000079F002F84D0012816D002287FF4CBAED5
:104D9000A94616E7079AEAB10246F8E6049A002AFD
:104DA000D2D0D4F8602E904294BF0422052287E628
:104DB000079F002F3FF46CAFA9463BE7049A002AF7
:104DC000C2D094F8672E824294BF0422052277E66F
:104DD000032275E6E646B8F1000F13D0AC46024652
:104DE000A5E7B8F1000F10D0CC464FF0FF3EF3E638
:104DF0009646AC46D3E6B8F1000F06D0CC464FF04D
:104E0000FF3E22E70246AC465AE74246CC464FF008
:104E1000FF3E55E7F8B54A4D064695F8003F0F4668
:104E2000834205D002280DD0022B33D1032831D183
:104E30001FB995F9FF3E002B55D185F8006F85F815
:104E4000FF7EF8BD032BF3D095F8FC1EFF293DD162
:104E50004FF0FF33802205F67860C5F8F83E85F8FC
:104E6000FC3E0BF0C9FDFFF721FA4FF6FF7295F9F2
:104E70008D33A5F8F82E002BDAD195F8003D022BE2
:104E8000D6D095F8883D022B1CBF47F6FF73A5F8D6
:104E9000043FCDE795F8FC1EFF2917D14FF0FF33F3
:104EA0008022FF212748C5F8F83E85F8FC3E0BF02C
:104EB000A3FDFFF7FBF9002EBAD04FF6FF7295F96C
:104EC0008D33A5F8F82E002BB2D1D6E795F8FE3E2B
:104ED00001F07F010C3358180023C0B21A4619465E
:104EE000FFF786FADAE71749FF248E464B1E01F1D9
:104EF0007F0C13F9012F002AB8BF1C709C45F8D114
:104F000001F1800201E0964508D01EF8013BFF2B1D
:104F1000F9D085F8006F85F8FF7EF8BD95F8FC3E66
:104F2000FF2B8AD003F07F00002395F8FE2E194650
:104F300010440C301A46C0B2FFF75AFA7DE700BFA2
:104F4000E80700106016001030B44F4C94F8005F72
:104F5000E5B10C38C2B2D9B104F67860034604F664
:104F6000F86C01E0634545D013F8011BFF29F9D027
:104F7000012D54D0002302E00133802B06D010F81D
:104F8000011BFF29F8D1234483F8782E30BC7047E9
:104F900094F9FF0E88B1012D53D004F6786302E036
:104FA00001318029F2D013F8010B9042F8D121444D
:104FB00062F07F0281F8782EE8E7012D37D004F601
:104FC00078639C46014602E00131802907D01CF835
:104FD000010B9042F8D1FF22214481F8782E03F191
:104FE000800101E08B423DD013F8012BFF2AF9D05C
:104FF00030BC70474FF6FF7194F98D33A4F8F81E5A
:10500000002BB5D194F8003D022BB1D094F8883D27
:10501000022B1CBF47F6FF73A4F8043FA8E7A318B0
:10502000A41A83F8782E84F8F72E30BC7047FF213D
:10503000A018A21A80F8781E04F6786382F8F71E8A
:10504000CDE7A01890F8781EC2F17F0361F07F02CF
:1050500080F8782E234493F8782E62F07F0283F84C
:10506000782E93E794F8FC2EFF2A8FD0002394F833
:10507000FE1E02F07F0008440C301A4630BC194670
:10508000C0B2FFF7B5B900BFE80700102DE9F04F37
:10509000AC4E00EB001306EBC30393F8004D83B056
:1050A0008C4222D096F8003D0546022B0F464FEA6F
:1050B000001800F0438196F8889DA9F10209B9FA19
:1050C00089F94FEA5919002C00F08D80032C00F06B
:1050D000B880022C00F0C580022F14D0032F07D017
:1050E000454406EBC50585F8007D03B0BDE8F08FAB
:1050F0000023454406EBC50585F8007D86F8113E82
:1051000003B0BDE8F08F08EB050406EBC40494F887
:10511000003D96F98D73022B00F0D9808A4B08EB85
:1051200005018A4A03EBC103C3F8822096F8003DCB
:10513000B6F8061F022B0AD096F8883D022B06D03F
:1051400096F8003F3B43DBB2002B00F0F2800222D6
:1051500008EB050306EBC30383F8002DB9F1000F3C
:10516000C3D04FF6FF729142BFD0B6F8042FB2EB16
:10517000510FBAD293F8812D002AB6D093F8012DA1
:105180007E2A08D07F2A06D00021A3F8841D96F835
:10519000101E83F8871D08EB050406EBC40402F01B
:1051A0007F0303F10C007E3B012B09D996F8102EEA
:1051B0000023104401214FF40042C0B2FFF718F958
:1051C000B4F9823D94F8812D013393FBF2F102FB97
:1051D0001133E21892F9011DA4F8823D002992F8DA
:1051E000012DDCDB81E708EB050BDFF85CA14FEA62
:1051F000CB0B0BF1010151442846019108F0A8FCAA
:10520000019940B3002108EB050306EBC3030AEB49
:105210000B0283F8811D83F8861D0BE093F8861D31
:10522000013183F8861D0134E4B2802C83F8814D6E
:105230003FF452AF12F8011F0806EFD5FF29F2D153
:105240004AE7414908EB050301EBC3012846013158
:1052500008F09EFA40E708468022FF210BF0CCFBC5
:10526000D0E708EB050406EBC40494F8813D002B5D
:105270003FF432AFB4F9843D002BFFF62DAF234449
:1052800093F8013D1BE0002394F8872D1946104444
:10529000C0B21A46FFF7ACF8B4F9843D94F8812DFA
:1052A000013393FBF2F102FB1133E21892F9011D75
:1052B000A4F8843D002992F8013DBFF60DAF03F03C
:1052C0007F0303F10C007E3B012BDCD804E794F84C
:1052D000813D002B3FF422AFB4F9843D002BFFF653
:1052E0001DAF234493F8013D1BE0002394F8870D84
:1052F00019461044C0B21A46FFF77AF8B4F9843D53
:1053000094F8812D013393FBF2F102FB1133E21883
:1053100092F9011DA4F8843D002992F8013DBFF6E1
:10532000FDAE03F07F0303F10C027E3B012BDCD8C2
:10533000F4E647F6FF73A6F8043F08E74FF00109CB
:10534000C1E600BFE8070010E81400100000FFFFEE
:10535000F8B5164C074694F9743E0D468B4204F698
:105360006C6604D1062231460CF0FCF9E0B1FEF780
:105370009DFF4FF0FF3384F8745EC4F86C3EB38039
:1053800000230B4AF95CFF2905D00133062B02F8F4
:10539000011FF7D101E05BB21BB1002384F86C3E22
:1053A00002E0C4F86C3EB380F8BD00BFE80700100F
:1053B0005316001073B54FF0FF3300200093ADF883
:1053C00004300346154E164DC0F3C401314491F824
:1053D000144EC2B2C4B102F00701294491F8F41886
:1053E0000C4211D003F10801694401F8082C53B1B3
:1053F0009DF800400133121B01F8082CDAB2052A8F
:105400005BB201D903E0012301308028DCD1012106
:105410006846FFF79DFF02B070BD00BFE8070010AF
:1054200044DA01002DE9F04FA84C83B0D4F8E43001
:1054300013B903B0BDE8F08F41F26F70B4F9622C7C
:10544000B4F80C14B4F80E3402FB01F1B4F8C8231C
:1054500002EB2142B4F97E1C01FB03F302EB234271
:1054600082F31002824200F3C2804C21B4F9CC3C9A
:10547000B4F8BA0303F5004300FB03F3DB0B01FBB5
:1054800003F393481B0A83F31003C3F30B1343F492
:10549000E043A0F8D033B4F9CE3CB4F8C05303F5E0
:1054A000004305FB03F3DB0B01FB03F31B0A83F350
:1054B0001003C3F30B136FEA43436FEA5343A0F89F
:1054C000D23382F31003C3F30B136FEA4343B4F9EF
:1054D000DC5CB4F8026405F5004506FB05F5ED0B50
:1054E00005FB01F1090A81F31001C1F30725FF2D26
:1054F00008BF4FF4FF766FEA534318BF6E1C754A1E
:105500001CBFF6B2760002EB45051644B5F8FC2840
:10551000B6F8FC58C9B2AD1A05FB01F102EB112235
:10552000C2F30B12D4F8481F42F4E042A0F8C023A3
:10553000A0F8C23309B168488847EFF312811023FD
:1055400083F31188654D6A7D2B7D9A42C0F04181BD
:10555000D21A5FFA82F881F31188B8F1000F00F0D7
:10556000C58000264FF0010AAA7D94F84F7FDFF82E
:1055700070B11DE0002301201A4684F84FAF08F0F7
:10558000D1FD2B7DAA7D84F84F7FEFF3128110208F
:1055900080F311880133B3FBF2F002FB1033DBB26E
:1055A0002B7581F311880136B1B2884540F29E8097
:1055B000B3FBF2F102FB1131A869415CF729D9D89C
:1055C000080620D5042F01F0F0001CBF84F84C1F02
:1055D000A4F850AFD02806D050D8B0284AD042D92D
:1055E000C02840F0CA85022784F84F7FCDE76E259A
:1055F0003C49A2F5BB53103B05FB03113A48A0FB05
:105600000101490B32E7002FBFD0B4F850CFABFBFC
:105610000CE0400800EB4000ACEB00091FFA89F9F0
:105620000CF1010080B204EB090CB9F1010FA4F8F0
:10563000500F8CF84C1F00F05E84B9F1020FA4D11A
:1056400094F84E3F94F84D2F94F84C1F08F06AFDE3
:1056500094F84F7F042F00F05E840123AA7DA4F804
:10566000503F2B7D91E701F0E001802902D0A02876
:1056700040F08385032784F84F7F86E7E028F9D040
:10568000F02840F07A85A1F1F100052800F2338579
:1056900001A757F820F000BFE7550000755600003D
:1056A000E7550000F7600000F7600000B156000009
:1056B00000230120F6211A4684F84F0F002708F036
:1056C00031FD2B7DAA7D84F84F7F5EE7E80700104F
:1056D0000000002044DA0100F0160010E817001066
:1056E000ABAAAAAAE2FF1D001F85EB5194F89633DE
:1056F000042B00F05F8394F8A233042B00F05A834C
:10570000384B394E94F8007F5D6F56F8DC3C002F23
:105710006CD194F8A523002A00F04984690140F176
:10572000DE846B405F0165D5002294F8733E84F8F7
:10573000752EDB0707D594F92D3E23B194F92E7E03
:10574000002F00F0DE8594F8733E9F0707D594F98B
:10575000393E23B194F93A7E002F00F03B8694F84D
:10576000733E580707D594F9453E23B194F9467E18
:10577000002F00F0568694F8733E190707D594F968
:10578000513E23B194F9527E002F00F0308694F8F8
:10579000733EDA0607D594F95D3E23B194F95E7E37
:1057A000002F00F0318694F8733E9B0622D594F9C1
:1057B000693EFBB194F96A7EE7B9B4F8643E00979C
:1057C0000522394694F8670E07F09AFB84F8697E43
:1057D00010E0A87D02EB0008A8EB03085FFA88F848
:1057E000B9E600BF00800920E01800106B405901A5
:1057F00000F1488494F92C3E94F8672A46F8DC5C62
:10580000002B40F0C8831AB384F8633AC4F8403AD6
:1058100084F8673AC4F85A3AC4F85E3AC4F83C3A95
:1058200084F85B39C4F8383984F85F39C4F85239E0
:10583000C4F85639C4F8343984F86B3BC4F8483B93
:1058400084F86F3BC4F8623BC4F8663BC4F8443B41
:1058500094F9383E94F8932A002B40F090831AB3C1
:1058600084F88F3AC4F86C3A84F8933AC4F8863ACC
:10587000C4F88A3AC4F8683A84F88739C4F86439B5
:1058800084F88B39C4F87E39C4F88239C4F8603999
:1058900084F8973BC4F8743B84F89B3BC4F88E3B78
:1058A000C4F8923BC4F8703B94F9443E94F8BF2A84
:1058B000002B40F058831AB384F8BB3AC4F8983AE6
:1058C00084F8BF3AC4F8B23AC4F8B63AC4F8943A85
:1058D00084F8B339C4F8903984F8B739C4F8AA39D0
:1058E000C4F8AE39C4F88C3984F8C33BC4F8A03B83
:1058F00084F8C73BC4F8BA3BC4F8BE3BC4F89C3B31
:1059000094F9503E94F8EB2A002B40F020831AB310
:1059100084F8E73AC4F8C43A84F8EB3AC4F8DE3ABB
:10592000C4F8E23AC4F8C03A84F8DF39C4F8BC39A4
:1059300084F8E339C4F8D639C4F8DA39C4F8B83988
:1059400084F8EF3BC4F8CC3B84F8F33BC4F8E63B67
:10595000C4F8EA3BC4F8C83B94F95C3E94F8172BB2
:10596000002B40F0E8821AB384F8133BC4F8F03AF5
:1059700084F8173BC4F80A3BC4F80E3BC4F8EC3A71
:1059800084F80B3AC4F8E83984F80F3AC4F8023ABC
:10599000C4F8063AC4F8E43984F81B3CC4F8F83B70
:1059A00084F81F3CC4F8123CC4F8163CC4F8F43B1D
:1059B00094F9683E94F8432B002B40F0B0821AB360
:1059C00084F83F3BC4F81C3B84F8433BC4F8363BA7
:1059D000C4F83A3BC4F8183B84F8373AC4F8143A90
:1059E00084F83B3AC4F82E3AC4F8323AC4F8103A74
:1059F00084F8473CC4F8243C84F84B3CC4F83E3C53
:105A0000C4F8423CC4F8203C94F98D2394F8F83C47
:105A1000002A00F0CB81002B00F09C80013B84F831
:105A2000F83C4FF6FF73B4F8062F9A4200F09280CC
:105A3000B4F8043F01339BB29A4200F289800026F9
:105A400094F8003D94F8882DA4F8046F134300F0F7
:105A5000B6823E4D2B78022B71D195F88120002A19
:105A60006DD0B5F9823006EB061704EBC7073B444F
:105A700093F8018D4FEA0619B8F17E0F34D0B5F9CD
:105A80008430002B25DB3B4493F8011D1AE00023F2
:105A900095F887001A460844C0B21946FEF7A8FCDC
:105AA000B5F9843095F88120013393FBF2F102FBC4
:105AB0001133A5F884303B4493F8011D93F9013D5F
:105AC000002B06DA01F07F0303F10C017E3B012B72
:105AD000DDD8B8F17F0F07D0B5F88230A5F8843053
