:1000000000000110E5000000510100005301000054
:1000100055010000570100005901000000000000D8
:100020000000000000000000000000005B01000074
:100030005D010000000000005F010000B919000030
:100040006301000063010000630100006301000020
:10005000630100006301000063010000B1C60000FD
:100060006301000063010000630100006301000000
:1000700063010000630100006301000063010000F0
:1000800063010000630100006301000063010000E0
:1000900063010000630100006301000063010000D0
:1000A000B12A000063010000D5DB000063010000FD
:1000B000A132000063010000630100006301000041
:1000C00063010000630100006301000063010000A0
:1000D0006301000063010000630100006301000090
:1000E000630100001149124A124B9A4205D0086878
:1000F0001060043104329A42F9D300200E490F4AAD
:10010000914204D0914202D208600431FAD30C48E3
:100110000C49884206D00268043003B4FE46974674
:1001200003BCF6E70848804708480047805A0200A9
:1001300000000010F0070010F0070010A89D00104C
:10014000645A0200645A0200B918000035680000C1
:10015000FEE7FEE7FEE7FEE7FEE7FEE7FEE7FEE777
:10016000FEE7FEE72DE9F04390F847C083B0BCF10D
:10017000040F04460D4616461F469DF8288022D0DF
:1001800002294ED003292ED0012941D00025D4F8D0
:100190003890B9F1000F06D03B463246294620463A
:1001A000CDF80080C847D4F83CE0BEF1000F17D06E
:1001B0003B46324629462046F446CDF8288003B017
:1001C000BDE8F0436047D0F83490B9F1000FDED0BD
:1001D000CDF80080C847D4F83CE0BEF1000FE7D16D
:1001E00003B0BDE8F08302F0F003B02B63D031D848
:1001F000902B5AD0A02B25D1D0F81090B9F1000F38
:10020000C5D043463A46204606F00F01C847CAE724
:10021000F72A2FD9C36A002BB9D031462046984718
:10022000C1E702F0F003D02B28D0F02B2AD0C02B4E
:10023000ADD1C369002BAAD03A46204606F00F0183
:100240009847B0E7802BA2D1D0F80C90B9F1000FFD
:10025000D7D19CE7E02B22D0F02B98D1F22A96D16F
:10026000D0F81890B9F1000F91D043463A46314684
:10027000C84798E7F62A8AD1036BCCE7036A002BBC
:10028000DAD184E7F32A1CD0F12A80D1836A002BCB
:100290003FF47DAF3A4631462046984783E7D0F891
:1002A0001490B9F1000FACD171E7D0F80890B9F112
:1002B000000FA6D16BE7D0F80490B9F1000FA0D1E0
:1002C00065E7436A002BE5D161E700BF034A137D70
:1002D0005B06FCD5C3B21370704700BF00C000407E
:1002E0004FF0010CF0B4446803780CFA04F40029D0
:1002F00000F0B080052B40F2CE8000BF00BF00BFF1
:1003000000BF00BF00BF00BF00BF00BF00BF00BFF5
:1003100000BF00BF00BF00BF00BF00BF00BF00BFE5
:1003200000BF00BF00BF00BF00BF00BF00BF00BFD5
:1003300000BF00BF00BF00BF00BF00BF00BF00BFC5
:1003400000BF00BF00BF00BF00BF00BF00BF00BFB5
:1003500000BF00BF00BF00BF00BF00BF00BF00BFA5
:1003600000BF00BF00BF00BF00BF00BF00BF00BF95
:1003700000BF0378052B23D8D0E904750121C46898
:100380005B0103F1005301FA04F403F5182301FAA9
:1003900005F5B940D70702F002069C6168D599615E
:1003A000002E68D00124816956079D6104FA01F48A
:1003B00068D501219C61C469A140140769D5996180
:1003C00000BF00BF00BF00BF00BF00BF00BF00BF35
:1003D00000BF00BF00BF00BF00BF00BF00BF00BF25
:1003E00000BF00BF00BF00BF00BF00BF00BF00BF15
:1003F00000BF00BF00BF00BF00BF00BF00BF00BF05
:1004000000BF00BF00BF00BF00BF00BF00BF00BFF4
:1004100000BF00BF00BF00BF00BF00BF00BF00BFE4
:1004200000BF00BF00BF00BF00BF00BF00BF00BFD4
:1004300000BF00BF00BF00BF0378052B08D8012212
:10044000C1685B0103F1005303F518238A40DA61A8
:10045000F0BC7047052B3FF650AF5B0103F1005332
:1004600003F51823DC6101218468A140D96144E7C8
:10047000D961002E96D101248169DD61550704FA06
:1004800001F496D40121DC61C469120701FA04F178
:1004900095D4D96194E75B0103F1005303F5182368
:1004A0009C61E0E702780346052A2DE9F0412DD84A
:1004B000D3E90557D3E901E80120520102F10052C6
:1004C00002F51822D3F810C0146800FA0CFC24EAD4
:1004D0000C04DE69146000FA05FC156800FA07F7E1
:1004E00025EA0C051560156800FA06F625EA0705E9
:1004F0001560156800FA08F425EA060500FA0EF002
:100500001560002940F08581D061946100BF00BF73
:1005100000BF00BF00BF00BF00BF00BF00BF00BFE3
:1005200000BF00BF00BF00BF00BF00BF00BF00BFD3
:1005300000BF00BF00BF00BF00BF00BF00BF00BFC3
:1005400000BF00BF00BF00BF00BF00BF00BF00BFB3
:1005500000BF00BF00BF00BF00BF00BF00BF00BFA3
:1005600000BF00BF00BF00BF00BF00BF00BF00BF93
:1005700000BF00BF00BF00BF00BF00BF00BF00BF83
:1005800000BF00BF1A78052A08D80121D868520197
:1005900002F1005202F518228140916100BF00BFB4
:1005A00000BF00BF00BF00BF00BF00BF00BF00BF53
:1005B00000BF00BF00BF00BF00BF00BF00BF00BF43
:1005C00000BF00BF00BF00BF00BF00BF00BF00BF33
:1005D00000BF00BF00BF00BF00BF00BF00BF00BF23
:1005E00000BF00BF00BF00BF00BF00BF00BF00BF13
:1005F00000BF00BF00BF00BF00BF00BF00BF00BF03
:1006000000BF00BF00BF00BF00BF00BF00BF00BFF2
:1006100000BF00BF1978052900F2F9804A0102F1F4
:10062000005202F5182256690120D3E906755C696B
:10063000D3F810C000FA04F23240224100FA0CF460
:10064000344044FA0CF4520142EA041200FA07F46E
:1006500034403C4142EA841200FA05F434402C4113
:10066000052942EAC41207D8DC68490101F10051AA
:1006700001F51821A040C86100BF00BF00BF00BF46
:1006800000BF00BF00BF00BF00BF00BF00BF00BF72
:1006900000BF00BF00BF00BF00BF00BF00BF00BF62
:1006A00000BF00BF00BF00BF00BF00BF00BF00BF52
:1006B00000BF00BF00BF00BF00BF00BF00BF00BF42
:1006C00000BF00BF00BF00BF00BF00BF00BF00BF32
:1006D00000BF00BF00BF00BF00BF00BF00BF00BF22
:1006E00000BF00BF00BF00BF00BF00BF00BF00BF12
:1006F0001978052908D80120DC68490101F1005169
:1007000001F51821A040886100BF00BF00BF00BFF5
:1007100000BF00BF00BF00BF00BF00BF00BF00BFE1
:1007200000BF00BF00BF00BF00BF00BF00BF00BFD1
:1007300000BF00BF00BF00BF00BF00BF00BF00BFC1
:1007400000BF00BF00BF00BF00BF00BF00BF00BFB1
:1007500000BF00BF00BF00BF00BF00BF00BF00BFA1
:1007600000BF00BF00BF00BF00BF00BF00BF00BF91
:1007700000BF00BF00BF00BF00BF00BF00BF00BF81
:100780001978052941D8480100F1005000F51820DA
:1007900044694FF0010ED3E905871E69DD690EFA41
:1007A00006FC0CEA0400304110430EFA08F202EA9B
:1007B000040646FA08F640EA46000EFA07F606EA8C
:1007C000040848FA07F740EA87000EFA05F73C40AC
:1007D0002C41052940EAC40015D8DC684B0103F11F
:1007E000005303F518230EFA04F4DC6119684CEA8F
:1007F0000101196019680A431A601A6816431E60DD
:100800001A6817431F60BDE8F0810024C1E7002685
:100810000AE7906179E600BF704700BFF0B5037842
:1008200003F01F03012B05D0022B12D0002B46D062
:100830000020F0BD447812680A2C00F04C810B2C8B
:1008400000F04D81002CF3D1022314800B600120B5
:10085000F0BD43781468012B00F0F280032B00F008
:100860001581002BE4D130250379AF4A580000F000
:100870001E0040EAD310000440F4A063C2F80852FE
:10088000C2F81032D2F80032DE06FBD5102540F453
:100890000073A548C2F80852C2F81032D0F80032EE
:1008A0009D06FBD5202300250222C0F80832D0F88F
:1008B00014326570C3F3400323700A60C7E74378BE
:1008C0001468092BB4D801A555F823F0FF090000DE
:1008D0003108000031080000310800003108000034
:1008E000BF090000090A000031080000B309000038
:1008F000F50800008078002800F020818B4E3368D6
:100900001978002900F0F480FF252C4607E0022A20
:1009100000F0EC800B441978002900F0E9805A7847
:10092000042A00F0E180052AF1D18442F2D1002DA1
:10093000F0D1012293F802E07B490EFA02FC0CF0A0
:100940001E0CD1F844724CEADE1C02FA0CF2B3F829
:1009500004E03A43C1F84422C1F848C2C1F84CE26D
:10096000D1F80022D205FBD54FF48077C1F8087288
:1009700030274FEA0C4242F4800242F4A062C1F8F0
:100980000872C1F810226849D1F80022D706FBD5B9
:100990001022C1F808224FF48072C1F81022624977
:1009A000D1F80022D206FBD51022C1F8082219780E
:1009B000B0E701235D4A127922700B6047E73024CB
:1009C0008378594A5A48C2F8084243F08001C2F875
:1009D0001002D2F80032DF06FBD5102001FA00F336
:1009E00043F480735049C2F80802C2F81032D1F8BB
:1009F0000032DE06FBD51023C1F8083227E70022BB
:100A0000022322800B6022E7484B45881B682E0A90
:100A100018783446EDB200283FF40BAF4FF0000ECB
:100A200004E00344187800283FF403AF93F801C0B2
:100A3000A445F6D1AE4500F09E800EF1010EF0E720
:100A40004388002B7FF4F4AE30240179364A4B0002
:100A500003F01E0343EAD1131B0443F4800343F461
:100A6000A063C2F80842C2F81032D2F80032DC06A5
:100A7000FBD510204FF480732B49C2F80802C2F84E
:100A80001032D1F80032D806FBD5B4E74388002BEA
:100A90007FF4CEAE30240179234A4B0003F01E03CD
:100AA00043EAD1131B0443F4800343F4A063C2F868
:100AB0000842C2F81032D2F80032D906FBD5102015
:100AC0001C4B1949C2F80802C2F81032D1F80032A2
:100AD000DB06FBD58FE7002010700B60B7E643887C
:100AE000002B3FF4B3AEA3E6DD7813E75C7911E7A2
:100AF00030210D4A104BC2F80812C2F81032D2F859
:100B00000032DB06FBD510240A4B0749C2F8084225
:100B1000C2F81032D1F80032DF06FBD51023C1F83D
:100B20000832307193E600BF00C00820F0070010C3
:100B30000005D000000101000005D8003021114A55
:100B4000114BC2F80812C2F81032D2F80032DD069A
:100B5000FBD510244FF480730A49C2F80842C2F84A
:100B60001032D1F80032DC06FBD51023074EC1F855
:100B7000083230716BE61360022E0CBF5B881B7865
:100B80000B6064E600C008200005D800F0070010E4
:100B9000F8B5404BD3F80042E10721D501223E4988
:100BA0008968C3F80822D9B130203C4AC3F808024A
:100BB000C3F81022D3F80022D206FBD510253848FE
:100BC000344AC3F80852C3F81002D2F800329F0624
:100BD000FBD52023C2F80832D2F81402C0B28847ED
:100BE000260720D5082030212A4A2E4BC2F80802B9
:100BF000C2F80812C2F81032D2F80032DD06FBD576
:100C00001020294B2349C2F80802C2F81032D1F84B
:100C100000329806FBD52023C1F80832D1F814021F
:100C200010F01A0F2DD162072AD50423194D002484
:100C30000127194EC5F8083202E00134202C1FD0DC
:100C4000D5F8302207FA04F31A42F6D0C5F8383244
:100C5000D5F800329B06FBD52022601006EB8003FE
:100C60001B69C5F80822D5F81412002BE5D040EA1C
:100C7000C41001F01F01C0B201349847202CDFD10D
:100C8000F8BD054BDB68002BCDD000F01500984770
:100C9000C9E700BF00C00820F00700100005F500FC
:100CA0000002F5000005FE000002FE00204870B4BE
:100CB000D0E91445402C26464FF00202A8BF40263A
:100CC0001C4BC3F82822C3F82462D3F828229207C9
:100CD00048BF2A4607D552F8041BC3F81C12D3F8A4
:100CE00028128907F7D40023124AC2F82832302389
:100CF000C2F80832104BC2F81032D2F80032D906CE
:100D0000FBD51023C2F808323023C2F808320B4B4F
:100D1000C2F81032074AD2F80032DB06FBD51023A6
:100D20003544A41BC0E9144570BCC2F808327047B2
:100D3000F007001000C00820000501000005FA00BF
:100D40001D4B93F96420002A01DB1B6ECBB93021C7
:100D50001A4A1B4BC2F80812C2F81032D2F80032FD
:100D6000DB06FBD51020174B1449C2F80802C2F865
:100D70001032D1F80032D806FBD51023C1F8083262
:100D8000704730210D4A104BC2F80812C2F81032D9
:100D9000D2F80032D906FBD510200A4B0749C2F819
:100DA0000802C2F81032D1F80032DB06FBD510235E
:100DB000C1F80832704700BFF007001000C00820DB
:100DC00000054B00000101000005440040222D4BAE
:100DD00010B4DA6100BF00BF00BF00BF00BF00BF9A
:100DE0002949CB68DC07FCD54B23274A8B60D368A5
:100DF0005907FCD593682449CB68DA07FCD5002352
:100E0000214A8B60D3685B07FCD593681E49CB6889
:100E1000DC07FCD500231C4A8B60D3685907FCD53E
:100E200093681949CB68DA07FCD50023164A8B6012
:100E3000D3685B07FCD593681349CB68DC07FCD506
:100E40000023114A8B60D3685907FCD500249368AE
:100E50000D4B411E0F30DA68D207FCD59C60DA6872
:100E60005207FCD59A6801F8012F8142F3D100BFE7
:100E700000BF00BF00BF00BF00BF4022014B10BC3D
:100E80009A61704700800920000003402DE9F0417D
:100E90001D4F97F90030834233D00E4688211B4AFC
:100EA000013382F818134FF08071054611603BD171
:100EB000012D00F06281022D00F08F8111F03EF8CB
:100EC000302401211248134E134B0660134A144874
:100ED00059679967C2F80842C2F81002D2F8003286
:100EE000D906FBD510200F4B0C49C2F80802C2F8F6
:100EF0001032D1F80032DA06FBD51023C1F80832DF
:100F00003D70BDE8F08100BF0000001000E100E08E
:100F1000F0070010CC11020000C0024000C0082001
:100F20000005FE00000101003021504A504BC2F87C
:100F30000812C2F81032D2F80032DC06FBD51020BD
:100F40004FF480734949C2F80802C2F81032D1F850
:100F50000032D806FBD5102241F28833C1F80822AE
:100F600000BF00BF00BF00BF00BF00BF00BF00BF89
:100F700000BF00BF00BF00BF00BF00BF00BF00BF79
:100F800000BF00BF00BF00BF00BF00BF00BF00BF69
:100F900000BF00BF00BF00BF00BF00BF00BF00BF59
:100FA00000BF00BF00BF00BF00BF00BF00BF00BF49
:100FB00000BF00BF00BF00BF00BF00BF00BF00BF39
:100FC00000BF00BF00BF00BF00BF00BF00BF00BF29
:100FD00000BF00BF00BF00BF00BF00BF00BF00BF19
:100FE00000BF00BF00BF00BF00BF00BF00BF00BF09
:100FF00000BF00BF00BF00BF00BF00BF00BF00BFF9
:1010000000BF00BF00BF00BF00BF00BF00BF00BFE8
:1010100000BF00BF00BF00BF00BF00BF00BF00BFD8
:1010200000BF00BF00BF00BF00BF00BF00BF00BFC8
:1010300000BF00BF00BF00BF00BF00BF00BF00BFB8
:1010400000BF00BF00BF00BF00BF00BF00BF00BFA8
:10105000013B85D14FF48061064A136843F0C043D9
:101060001360054A054B5167916709E000C00820ED
:101070000005FE000080092000C0024040420F0031
:1010800000BF00BF00BF00BF00BF00BF00BF00BF68
:1010900000BF00BF00BF00BF00BF00BF00BF00BF58
:1010A00000BF00BF00BF00BF00BF00BF00BF00BF48
:1010B00000BF00BF00BF00BF00BF00BF00BF00BF38
:1010C00000BF00BF00BF00BF00BF00BF00BF00BF28
:1010D00000BF00BF00BF00BF00BF00BF00BF00BF18
:1010E00000BF00BF00BF00BF00BF00BF00BF00BF08
:1010F00000BF00BF00BF00BF00BF00BF00BF00BFF8
:1011000000BF00BF00BF00BF00BF00BF00BF00BFE7
:1011100000BF00BF00BF00BF00BF00BF00BF00BFD7
:1011200000BF00BF00BF00BF00BF00BF00BF00BFC7
:1011300000BF00BF00BF00BF00BF00BF00BF00BFB7
:1011400000BF00BF00BF00BF00BF00BF00BF00BFA7
:1011500000BF00BF00BF00BF00BF00BF00BF00BF97
:1011600000BF00BF00BF00BF00BF00BF00BF00BF87
:10117000013B85D1012D7FF49EAE10F0DFFE524B76
:101180005249534A1960534959613021D2F83432D7
:1011900043F00403C2F83432D2F8043243F00403BB
:1011A000C2F804324C4B5D679D674C4BC2F8081285
:1011B000C2F81032D2F80032DB06FBD51020484BC3
:1011C0004349C2F80802C2F81032D1F80032DE06F4
:1011D000FBD51023C1F8083292E6EFF312880823FA
:1011E00083F3118810F0AAFE3023394AC2F808327E
:1011F0003C4BC2F81032D2F80032DC06FBD510238B
:10120000C2F80832384BC2F81032314BD3F8002202
:10121000D006FBD5102201203024C3F80822334920
:10122000294A1160D3F8341241F40061C3F8341232
:10123000D3F8041241F00401C3F80412D3F83412B5
:1012400041F01001C3F83412D3F8041241F0040144
:10125000C3F804122049486788672549C3F8084243
:10126000D16724495162244991611C49C3F8101285
:1012700002F19803C2F88C30154AD2F80032D90630
:10128000FBD51023C2F80832154BC2F81032104AB1
:10129000D2F80032DB06FBD51023C2F8083276B153
:1012A000002400E00134FFF773FCA3B2002BF9D156
:1012B000B0470028F6D188F311883D7021E6FFF78A
:1012C00067FCFFF765FCFAE7F00700104012020028
:1012D00000C00820718B000000C002400005FE0025
:1012E000000101000005F30000012000D8120200F7
:1012F00021850000958A0000C963000070B540F2A6
:10130000E73405460E460DE000BF00BF00BF00BF3A
:1013100000BF00BF00BF00BF00BF00BF00BF00BFD5
:10132000013C11D000212846FFF7BCF80306EBD49E
:10133000321100212846FEF7D3FF06F00F020021EC
:10134000BDE87040FEF7CCBF33462046024A034951
:101350000FF08EF8ECE700BF48130200B000020067
:1013600003782DE9F041052B044633D8D0E9027605
:10137000D4E906EC01225B0103F1005303F51823C5
:101380004168D3F8008002FA01F141EA0801D0E98E
:101390000450196002FA07F702FA06F602FA05F598
:1013A00002FA00F002FA0EF102FA0CF2D3F800C0D1
:1013B00047EA0C071F601F683E431E601E683543E6
:1013C0001D601D682843186018680143196019687A
:1013D0000A431A60002103222046FEF781FF41F2F2
:1013E000040100BF00BF00BF00BF00BF00BF00BFBF
:1013F00000BF00BF00BF00BF00BF00BF00BF00BFF5
:1014000000BF00BF00BF00BF00BF00BF00BF00BFE4
:1014100000BF00BF00BF00BF00BF00BF00BF00BFD4
:1014200000BF00BF00BF00BF00BF00BF00BF00BFC4
:1014300000BF00BF00BF00BF00BF00BF00BF00BFB4
:1014400000BF00BF00BF00BF00BF00BF00BF00BFA4
:1014500000BF00BF00BF00BF00BF00BF00BF00BF94
:1014600000BF00BF00BF00BF00BF00BF00BF00BF84
:1014700000BF00BF00BF00BF00BF00BF00BF00BF74
:1014800000BF00BF00BF00BF00BF00BF00BF00BF64
:1014900000BF00BF00BF00BF00BF00BF00BF00BF54
:1014A00000BF00BF00BF00BF00BF00BF00BF00BF44
:1014B00000BF00BF00BF00BF00BF00BF00BF00BF34
:1014C00000BF00BF00BF00BF00BF00BF00BF00BF24
:1014D00000BF013985D103222046FEF701FF6421B8
:1014E00000BF00BF00BF00BF00BF00BF00BF00BF04
:1014F00000BF00BF00BF00BF00BF00BF00BF00BFF4
:1015000000BF00BF00BF00BF00BF00BF00BF00BFE3
:1015100000BF00BF00BF00BF00BF00BF00BF00BFD3
:1015200000BF00BF00BF00BF00BF00BF00BF00BFC3
:1015300000BF00BF00BF00BF00BF00BF00BF00BFB3
:1015400000BF00BF00BF00BF00BF00BF00BF00BFA3
:1015500000BF00BF00BF00BF00BF00BF00BF00BF93
:1015600000BF00BF00BF00BF00BF00BF00BF00BF83
:1015700000BF00BF00BF00BF00BF00BF00BF00BF73
:1015800000BF00BF00BF00BF00BF00BF00BF00BF63
:1015900000BF00BF00BF00BF00BF00BF00BF00BF53
:1015A00000BF00BF00BF00BF00BF00BF00BF00BF43
:1015B00000BF00BF00BF00BF00BF00BF00BF00BF33
:1015C00000BF00BF00BF00BF00BF00BF00BF00BF23
:1015D000013985D103222046FEF782FE252100BF76
:1015E00000BF00BF00BF00BF00BF00BF00BF00BF03
:1015F00000BF00BF00BF00BF00BF00BF00BF00BFF3
:1016000000BF00BF00BF00BF00BF00BF00BF00BFE2
:1016100000BF00BF00BF00BF00BF00BF00BF00BFD2
:1016200000BF00BF00BF00BF00BF00BF00BF00BFC2
:1016300000BF00BF00BF00BF00BF00BF00BF00BFB2
:1016400000BF00BF00BF00BF00BF00BF00BF00BFA2
:1016500000BF00BF00BF00BF00BF00BF00BF00BF92
:1016600000BF00BF00BF00BF00BF00BF00BF00BF82
:1016700000BF00BF00BF00BF00BF00BF00BF00BF72
:1016800000BF00BF00BF00BF00BF00BF00BF00BF62
:1016900000BF00BF00BF00BF00BF00BF00BF00BF52
:1016A00000BF00BF00BF00BF00BF00BF00BF00BF42
:1016B00000BF00BF00BF00BF00BF00BF00BF00BF32
:1016C00000BF00BF00BF00BF00BF00BF00BF0139A7
:1016D00085D102222046FEF703FE252300BF00BF6E
:1016E00000BF00BF00BF00BF00BF00BF00BF00BF02
:1016F00000BF00BF00BF00BF00BF00BF00BF00BFF2
:1017000000BF00BF00BF00BF00BF00BF00BF00BFE1
:1017100000BF00BF00BF00BF00BF00BF00BF00BFD1
:1017200000BF00BF00BF00BF00BF00BF00BF00BFC1
:1017300000BF00BF00BF00BF00BF00BF00BF00BFB1
:1017400000BF00BF00BF00BF00BF00BF00BF00BFA1
:1017500000BF00BF00BF00BF00BF00BF00BF00BF91
:1017600000BF00BF00BF00BF00BF00BF00BF00BF81
:1017700000BF00BF00BF00BF00BF00BF00BF00BF71
:1017800000BF00BF00BF00BF00BF00BF00BF00BF61
:1017900000BF00BF00BF00BF00BF00BF00BF00BF51
:1017A00000BF00BF00BF00BF00BF00BF00BF00BF41
:1017B00000BF00BF00BF00BF00BF00BF00BF00BF31
:1017C00000BF00BF00BF00BF00BF00BF013B85D10D
:1017D000236A204603F00101C9009B0748BF41F07E
:1017E000040141F02001FFF789FD20460821FFF7A1
:1017F00085FD20460121FFF781FD2046BDE8F0412F
:1018000006217BE5012179E5022177E501F003015D
:1018100041F0040172E500BF01F0070141F0080149
:101820006CE500BF01F00C0141F0100166E500BF5E
:10183000C9B241F0800161E570B540F2E734054678
:101840000E460DE000BF00BF00BF00BF00BF00BFDD
:1018500000BF00BF00BF00BF00BF00BF013C11D0F0
:1018600000212846FEF71EFE0306EBD432110121AB
:101870002846FEF735FD06F00F020121BDE8704055
:10188000FEF72EBD33462046024A03490EF0F0FD16
:10189000ECE700BF50130200B000020038B50C4660
:1018A000097839B105462846FFF7C6FF14F8011F2D
:1018B0000029F8D138BD00BF2123274AF0B4C2F86F
:1018C000A031D2F8A0315C06FBD501230925AA245A
:1018D00055202149C2F80C31C2F88450C2F880303A
:1018E000C2F88C40C2F88C00D1F888305805FBD57E
:1018F00023250124AA205522174BC1F8A450C1F872
:10190000A040C1F8AC00C1F8AC20D3F8A820520523
:10191000FBD5012240F201274FF4807540F2011CF3
:1019200045F23A0400200D4EC3F804C1C3F8087113
:10193000C3F80021C3F8A821C3F8C460C3F8C85194
:10194000D3F8B021064942F00302C3F8B0211C606D
:101950008860F0BC704700BF00C00F400E84F003E9
:1019600000ED00E0002070471846704700207047E7
:10197000002070474FF4005300205360704700BFB1
:1019800001207047FEE700BF4FF0FF30704700BFF7
:101990004FF0FF30704700BF054B064AD3F89C005C
:1019A000002808BF10460144C3F89C10704700BFD0
:1019B000F0070010A89D001041F26F702DE9F04F64
:1019C000D24C85B0B4F96E19B4F81A21B4F81C31B0
:1019D00001FB02F2B4F8D61001EB2241B4F98A29D6
:1019E00002FB03F301EB234181F31001814240F339
:1019F0008B816E25C648A1F5BB53103B05FB030048
:101A0000C44AA2FB0020400B94F8AE2094F8C550C5
:101A1000032A0CBFB4F9D8290022032D08BFB4F85B
:101A2000DC59B4F8C83008BF521902F30F05B4F8F6
:101A3000CE20A5F50045ADB205FB03F305FB02F290
:101A4000002606F30F06B4F81051A6F50046B6B20C
:101A500006FB05F5120C2D0C00FB02F21B0C00FB23
:101A600003F305FB00F0AC4E121282F31002C2F336
:101A70000B12A6F80023001280F31000C0F3072217
:101A8000FF2A08BF4FF4FF754FEA232383F31003A7
:101A9000C3F30B1318BF551C43F4805318BFEDB2AA
:101AA000A6F8023381F310039C4918BF6D0001EBC7
:101AB000420229440025A846C3F34B1343F4804354
:101AC000A6F81833B2F89031B1F89021C0B2D21A0A
:101AD00000FB02F203EB1223C3F30B13DFF840B257
:101AE000A6F81033DBF840300BB158469847EFF3B7
:101AF0001282102383F311889BF80D919BF80C310F
:101B000099453CBF9BF80E118944A9EB03095FFA84
:101B100089F982F31188B9F1000F00F0BE804FF40B
:101B20008A72002602FB084721E000230121584663
:101B30008BF847100093FEF715FB9BF80C318BF8E0
:101B40004750EFF31281102282F311889BF80E2187
:101B50000133B3FBF2F002FB1033DBB28BF80C3134
:101B600081F311880136B2B2914540F296809BF81C
:101B70000C219BF80E01DBF81011B2FBF0FC00FB0E
:101B80001C228A5C9BF84750F72ACED8110617D53D
:101B9000042D04D001238BF84420ABF8483002F028
:101BA000F003D02B06D04FD8B02B47D03FD9C02B55
:101BB00040F07E8402238BF847309BF80C31C0E75D
:101BC000002DBED0BBF848305649A1FB031A4FEA9E
:101BD0005A0A0AEB4A0AA3EB0A0A1FFA8AFA0133E5
:101BE00099B2BAF1010F07EB0A0383F8402AABF868
:101BF000481016D0BAF1020F16D19BF8463058465D
:101C000000939BF845309BF84420FEF7ABFA9BF815
:101C10004730042B08D00123ABF848309BF80C3137
:101C20008FE7022D00F08C849BF80C3189E702F0DD
:101C3000E002802A02D0A02B40F03A8403238BF8E4
:101C400047309BF80C317CE7E02BF7D0F02B40F0CD
:101C50002F84A2F1F103052B00F21C8101A151F8A0
:101C600023F000BFB51B00003D1C0000B51B0000A9
:101C7000951E0000951E00007D1C0000002501211E
:101C80002B460095F62258468BF84710FEF76AFA65
:101C90009BF80C318BF8475053E70BF58A7BB8F172
:101CA000000F02D14FF001081CE794F8A21045463E
:101CB000042994F8AE3094F8C5203BD0042B00F0F2
:101CC000E480042A00F02784DFF85C80174B184E6C
:101CD00098F800905F6F56F8F43CB9F1000F40F0AF
:101CE000138194F8B120002A00F0EB83790100F110
:101CF0003A845A0100F149867B405B0140F108813A
:101D0000012384F8753F03E14C207DE6F0070010C5
:101D1000E2FF1D001F85EB5100000020CC110200E6
:101D2000EC110010ABAAAAAAF0170010008009203D
:101D3000E8180010042B18BF0023B4F8F41900F0C1
:101D4000A680042A00F0EA8303F30F07B4F8DC202E
:101D50000F44B2F5004F87F31007B4F9F609BFB28C
:101D600053D094F8733FDA0740F18C8494F92C2F08
:101D7000002A40F0FD834FF0FF319E0708D594F90B
:101D8000386F2EB1D4F8306F964284BF32460121AD
:101D90005E0708D594F9446F2EB1D4F83C6F964293
:101DA00084BF324602211E0708D594F9506F2EB128
:101DB000D4F8486F964284BF32460321DE0640F1D4
:101DC0003D8494F95C6F002E00F03884D4F8546F91
:101DD000964240F233849A0640F1D48594F9683FE4
:101DE000002B00F0CF85D4F8601FB14294BF0421CE
:101DF00005212C2303FB0143B3F8743800FB03F3E4
:101E00001B1407EB430383F31007D4F8F039BB42EC
:101E10003FF45AAF3A4B1FFA87FE03F5966633F844
:101E2000069CB3F85A2933F808ACA2EB09020EFB62
:101E300002F233F8048C33F802CCB3F85809B3F843
:101E40005C1909EB1249B3F85E29A1EB0801A2EB7A
:101E50000C02A0EB0A000EFB00F00EFB01F10EFBE2
:101E600002F20AEB104008EB11480CEB124CA3F8FD
:101E7000080EA3F80A9EA3F80C8EA3F80ECE083322
:101E8000B342CCD1C4F8F0791EE7B4F8F419B4F930
:101E9000D83956E7F02A27D0F72A40F009834FF4C3
:101EA0008A70BBF84810174B00FB0840A3FB015396
:101EB0005B0803EB4303CB1A9BB2034483F8402A2D
:101EC0009BF84630013189B2ABF8481000939BF87B
:101ED000453058469BF84420FEF744F900238BF820
:101EE00047309BF80C312CE604238BF84730012354
:101EF0008BF84420ABF848309BF80C3121E600BF4A
:101F0000F8820010ABAAAAAA7B405A0100F1A7836D
:101F100094F92C3F94F8732746F8F47C002B40F09A
:101F2000B8821AB384F86F37C4F84C3784F8733723
:101F3000C4F86637C4F86A37C4F8483784F8673697
:101F4000C4F8443684F86B36C4F85E36C4F862369A
:101F5000C4F8403684F87738C4F8543884F87B38AD
:101F6000C4F86E38C4F87238C4F8503894F9383F61
:101F700094F89F27002B40F080821AB384F89B3797
:101F8000C4F8783784F89F37C4F89237C4F8963786
:101F9000C4F8743784F89336C4F8703684F89736EA
:101FA000C4F88A36C4F88E36C4F86C3684F8A33880
:101FB000C4F8803884F8A738C4F89A38C4F89E3832
:101FC000C4F87C3894F9443F94F8CB27002B40F0B8
:101FD00048821AB384F8C737C4F8A43784F8CB37DB
:101FE000C4F8BE37C4F8C237C4F8A03784F8BF3687
:101FF000C4F89C3684F8C336C4F8B636C4F8BA368A
:10200000C4F8983684F8CF38C4F8AC3884F8D3389C
:10201000C4F8C638C4F8CA38C4F8A83894F9503F90
:1020200094F8F727002B40F010821AB384F8F337A6
:10203000C4F8D03784F8F737C4F8EA37C4F8EE3775
:10204000C4F8CC3784F8EB36C4F8C83684F8EF36D9
:10205000C4F8E236C4F8E636C4F8C43684F8FB386F
:10206000C4F8D83884F8FF38C4F8F238C4F8F63821
:10207000C4F8D43894F95C3F94F82328002B40F03E
:10208000D8811AB384F81F38C4F8FC3784F8233891
:10209000C4F81638C4F81A38C4F8F83784F8173773
:1020A000C4F8F43684F81B37C4F80E37C4F8123776
:1020B000C4F8F03684F82739C4F8043984F82B3989
:1020C000C4F81E39C4F82239C4F8003994F9683FBD
:1020D00094F84F28002B40F0A0811AB384F84B38B5
:1020E000C4F8283884F84F38C4F84238C4F8463861
:1020F000C4F8243884F84337C4F8203784F84737C5
:10210000C4F83A37C4F83E37C4F81C3784F853395A
:10211000C4F8303984F85739C4F84A39C4F84E390C
:10212000C4F82C3916F98B2C94F8F839002A00F0F1
:102130007081002B00F09D80013B84F8F8394FF648
:10214000FF7336F87E2C9A4200F0938036F8803C7C
:1021500001339BB29A4200F2E5814FF0000916F874
:102160007C3C327B26F8809C13437DD0CF4F3B785C
:10217000022B40F0478197F88120002A00F042812D
:10218000B7F9823009EB091A06EBCA0A534413F86F
:102190007BBC4FEA0911BBF17E0F3AD0B7F984300E
:1021A000002B2BDB5344CDF80CB013F87B0C8B4683
:1021B0001AE0002397F887001A460844C0B219466F
:1021C00007F096FDB7F9843097F88120013393FB2F
:1021D000F2F102FB1133A7F88430534413F87B0C5F
:1021E00013F97B3C002B06DA00F07F0303F10C01AE
:1021F0007E3B012BDDD85946DDF80CB0BBF17F0FDB
:1022000007D0B7F88230A7F8843096F9943087F871
:102210008730494406EBC10A10E0B7F98230013338
:1022200093FBF2F102FB1133A7F88230534413F908
:102230007B1C13F87BBC002980F2E4800BF07F0349
:1022400003F10C017E3B012BE7D996F894000023A3
:1022500008444FF400420121C0B207F049FDB7F92C
:10226000823097F88120DAE798F80000002840F0E3
:10227000878194F9E039002B00F0BC80B4F8B429D0
:10228000B4F89019B4F8DE398A4240F24E81521AFD
:1022900092B29A4294BF8918C918A4F89019B4F858
:1022A000C029B4F89C198A4200F28B82C0F0618385
:1022B000B4F8CC29B4F8A8198A4200F27982C0F0A7
:1022C0004F83B4F8B629B4F892198A4200F26382B7
:1022D000C0F03D83B4F8C229B4F89E199142C0F011
:1022E000518200F22B83B4F8CE29B4F8AA198A429D
:1022F00000F23F82C0F01983B4F8B829B4F89419F9
:102300009142C0F02D8200F20783B4F8C429B4F8DA
:10231000A0199142C0F01B8200F2F582B4F8D029D6
:10232000B4F8AC199142C0F0098200F2E382B4F82B
:10233000BA29B4F896199142C0F0CF8100F2D18247
:10234000B4F8C629B4F8A2199142C0F0BD8100F2D8
:10235000BF82B4F8D229B4F8AE199142C0F0AB8173
:1023600000F2AD82B4F8BC29B4F898199142C0F0DB
:10237000998100F29B82B4F8C829B4F8A41991425B
:10238000C0F0BD8100F28982B4F8D429B4F8B01944
:102390009142C0F0AB8100F27782B4F8BE29B4F864
:1023A0009A198A4240F2BF81521A92B29A4294BF5D
:1023B0008918C918A4F89A19B4F8CA29B4F8A61942
:1023C0008A4240F2A581521A92B29A4294BF891869
:1023D000C918A4F8A619B4F8D629B4F8B2198A42D3
:1023E00040F25581521A92B29A4294BF8918C91884
:1023F000A4F8B219D6F898300133C6F8983005B071
:10240000BDE8F08F8837B9F1000F7FF42DAFA946F2
:10241000ADE6002B3FF493AE8EE6002A7FF482AE49
:102420004FF6FF7384F8682F84F86A2FA4F8663F8C
:1024300078E6002A7FF44AAE4FF6FF7384F85C2FEB
:1024400084F85E2FA4F85A3F40E6002A7FF412AECB
:102450004FF6FF7384F8502F84F8522FA4F84E3FA4
:1024600008E6002A7FF4DAAD4FF6FF7384F8442FB4
:1024700084F8462FA4F8423FD0E5002A7FF4A2ADAD
:102480004FF6FF7384F8382F84F83A2FA4F8363FBC
:1024900098E5002A7FF46AAD4FF6FF7384F82C2F7D
:1024A00084F82E2FA4F82A3F60E500BF6C180010B6
:1024B00000229BF80C318BF84720ABF84820FFF73F
:1024C00040BB7B4059017FF523AD7B017FF518AC04
:1024D0004FF0000ADFF8D0B284F875AFABF60429EC
:1024E000039594F8733F43FA0AF313F0010F0AF1CE
:1024F000010A07D09BF9093323B19BF90A53002D38
:1025000000F06881BAF1060F0BF10C0B09F12C09F0
:10251000E7D1039DFCE40023B4F8F419B4F8DC29F6
:10252000134411E426F8803CA3E6BFF4B8AE8A1A3F
:1025300092B29A4294BF891AC91AA4F89019AEE6C9
:10254000002300939BF8453058469BF84420FDF744
:1025500009FE9BF84730042B18BFABF848A09BF846
:102560000C31FFF7EEBA7B4058017FF5D1ACAFE7F5
:10257000D4F8242FB2FA82F149094942FFF7FDBB92
:102580008A4F3B4607F1800102E08B423FF471AE77
:1025900013F8012BFF2AF8D094F8FC3FFF2B0DD045
:1025A00003F07F00002394F8FE2F194610440C30EE
:1025B000C0B21A4607F09CFB98F80000022800F011
:1025C0002E82032800F01A8201287FF452AEB4F95B
:1025D000F83FB4F9FA1F01335A4202F07F0203F0C8
:1025E0007F0358BF5342E21892F8780FC3F17F027D
:1025F000FF281BB2EFD09142EDD01946A4F8F83F66
:10260000631894F8FD0F93F8783F0C3003F07F03C4
:1026100018444FF4004200230121C0B207F068FBC8
:10262000B4F9F83F94F8FD1FE21892F8782F84F877
:10263000FE1F84F8FC2FA4F8FA3F1AE69B0609D582
:1026400094F9683F33B1D4F8603F934202D9052131
:10265000FFF7CFBB4E1C3FF4D8ABFFF7CABB07F068
:102660008063002B0CBF4FF0010A4FF0000A04D02A
:1026700094F9FF3F002B40F0958188F8009084F892
:10268000FFAF45E400224FF0FF31FFF776BBBFF408
:10269000B1AE8A1A92B29A4294BF891AC91AA4F8A2
:1026A000B219A7E6521A92B29A4294BF8918C91871
:1026B000A4F898195FE6521A92B29A4294BF891808
:1026C000C918A4F8AE194DE6521A92B29A4294BFB4
:1026D0008918C918A4F8A2193BE6521A92B29A4274
:1026E00094BF8918C918A4F8961929E6521A92B20B
:1026F0009A4294BF8918C918A4F8B0194DE6521A25
:1027000092B29A4294BF8918C918A4F8A4193BE65A
:10271000BFF461AE8A1A92B29A4294BF891AC91A5A
:10272000A4F8A61957E6BFF447AE8A1A92B29A42A5
:1027300094BF891AC91AA4F89A193DE6521A92B29E
:102740009A4294BF8918C918A4F8AC19EFE5521A37
:1027500092B29A4294BF8918C918A4F8A019DDE56D
:10276000521A92B29A4294BF8918C918A4F89419BF
:10277000CBE5521A92B29A4294BF8918C918A4F8AC
:10278000AA19B9E5521A92B29A4294BF8918C91887
:10279000A4F89E19A7E5521A92B29A4294BF8918DA
:1027A000C918A4F8921995E51414001068170010C0
:1027B000521A92B29A4294BF8918C918A4F8A8195B
:1027C0007FE5521A92B29A4294BF8918C918A4F8A8
:1027D0009C196DE5284606F009FF07F033F8B9F8B3
:1027E0005406B9F846C60004B0FBFCF0B9F844142E
:1027F000B9F836E4B9F84C35C9F83456A9F850564A
:1028000089F85756C9F82454A9F8405489F8475410
:10281000C9F82C55A9F8485589F84F558BF8095334
:102820000904B9F83E55B1FBFEF11B04B3FBF5F307
:10283000A9F84E0680B20CFB00F0A9F83E14000C7B
:1028400089B2A9F852060EFB01F099B205FB01F11D
:10285000090CA9F84A150421A9F84635030CA9F872
:102860004234D9F8303489F85B16C9F82034D9F8E5
:10287000383589F84B14C9F82835D9F8403689F825
:102880005315C9F830363DE68A1A92B29A4294BF7F
:10289000891AC91AA4F8B0197FE58A1A92B29A4225
:1028A00094BF891AC91AA4F8A4196DE58A1A92B2BC
:1028B0009A4294BF891AC91AA4F898195BE58A1A32
:1028C00092B29A4294BF891AC91AA4F8AE1949E57E
:1028D0008A1A92B29A4294BF891AC91AA4F8A21904
:1028E00037E58A1A92B29A4294BF891AC91AA4F893
:1028F000961925E58A1A92B29A4294BF891AC91A82
:10290000A4F8AC1913E58A1A92B29A4294BF891AB4
:10291000C91AA4F8A01901E58A1A92B29A4294BF82
:10292000891AC91AA4F89419EFE48A1A92B29A4241
:1029300094BF891AC91AA4F8AA19DDE48A1A92B2B6
:102940009A4294BF891AC91AA4F89E19CBE48A1A2C
:1029500092B29A4294BF891AC91AA4F89219B9E49A
:102960008A1A92B29A4294BF891AC91AA4F8A8196D
:10297000A7E48A1A92B29A4294BF891AC91AA4F893
:102980009C1995E40421FFF734BA09F0D7F9D4F87B
:102990006C0F38F8902CA8F6D663C4F82A019A80F8
:1029A000FFF7B6BAA8F1880E70464FF0FF0CA8F1F9
:1029B0008903A8F1090113F9012F002AB8BF83F890
:1029C00000C08B42F7D10EF1800210F8013BFF2BC3
:1029D0007FF453AE9042F8D194F8FC3FFF2B3FF4C4
:1029E0004CAE03F07F00002394F8FE2F19461044EC
:1029F0000C301A46C0B207F07BF93EE6B4F9F83F56
:102A000001335A4202F07F0203F07F0358BF534262
:102A1000E21892F8782F1BB2FF2AF1D0EDE50025DD
:102A2000224B7F3713F8012F691CFF2A18BFCDB244
:102A3000BB42F7D1012D2ED80023B4F9F82F002581
:102A4000002AB7BF002211461146A4F8F82F0DE066
:102A50000125424202F07F0258BF5742E21992F824
:102A6000780F3AB2FF2818BF5FFA8CF304EB020C20
:102A70009CF878EF501CBEF1FF0F00F07F0703F1C8
:102A8000FF3CE5D0002BE3D1002D3FF4B9AD11465A
:102A9000A4F8F82FB4E510F05FFF013D90FBF5F3CB
:102AA00003FB15030133DBB2C7E700BF6717001054
:102AB000FEF76EB8002300BF00BF00BF00BF00BF1D
:102AC00000BF00BF00BF00BF00BF00BF00BF00BF0E
:102AD00000BF00BF00BF00BF00BF00BF00BF00BFFE
:102AE00000BF00BF00BF00BF00BF00BF00BF00BFEE
:102AF00000BF00BF00BF00BF00BF00BF00BF00BFDE
:102B000000BF00BF00BF00BF00BF00BF00BF00BFCD
:102B100000BF00BF00BF00BF00BF00BF00BF00BFBD
:102B200000BF00BF00BF00BF00BF00BF00BF00BFAD
:102B300000BF00BF00BF00BF00BF00BF00BF00BF9D
:102B400000BF00BF00BF00BF00BF00BF00BF00BF8D
:102B500000BF00BF00BF00BF00BF00BF00BF00BF7D
:102B600000BF00BF00BF00BF00BF00BF00BF00BF6D
:102B700000BF00BF00BF00BF00BF00BF00BF00BF5D
:102B800000BF00BF00BF00BF00BF00BF00BF00BF4D
:102B900000BF00BF00BF00BF00BF00BF00BF00BF3D
:102BA00000BF00BF00BF0133984284D1704700BF0F
:102BB00070B5C02040250F2600213C4C3C4BE56100
:102BC00000BF00BF00BF00BF00BF00BFDA68D20770
:102BD000FCD59E60DA685207FCD59A68DA68D2079D
:102BE000FCD59860DA685207FCD59A68DA68D20793
:102BF000FCD59960DA685207FCD59A68D2B200BF5A
:102C000000BF00BF00BF00BF00BF12F0010CA561F4
:102C1000D5D112F0040326D112F0080000D170BD06
:102C2000184624490DF024FCE56100BF00BF00BF39
:102C300000BF00BF00BF1E49CB68DA07FCD5FF23E9
:102C40001B4A8B60D3685B07FCD5936800BF00BF4D
:102C500000BF00BF00BF00BF4022144B9A61FFF7C6
:102C6000A7FF082070BD604613490DF001FCE56127
:102C700000BF00BF00BF00BF00BF00BF0C49CB6852
:102C8000D807FCD5FF230A4A8B60D3685907FCD5C7
:102C9000936800BF00BF00BF00BF00BF00BF40225D
:102CA000024B9A61FFF784FF042070BD0080092069
:102CB00000000340F0000200CC0002002DE9F041CA
:102CC00040254C4C1646E5610D461C4600BF00BF32
:102CD00000BF00BF00BF00BF474AD368DF07FCD575
:102CE00013239360444AD3685907FCD59368424A3A
:102CF000C10AC70ED368DB07FCD597603E4AD3688C
:102D00005F07FCD593683C4AC00CD368DB07FCD551
:102D1000C0B29060384AD3685F07FCD59368364AE2
:102D2000D368D807FCD5C9B29160334AD368590734
:102D3000FCD5936800BF00BF00BF00BF00BF00BF4D
:102D40004FF040082B4FC7F81880FFF731FFC7F846
:102D50001C8000BF00BF00BF00BF00BF00BF264AED
:102D6000D068C307FCD50321234B9160D86847077F
:102D7000FCD5F0009B68204900F0F800CA68D6072F
:102D8000FCD51D4B8860DA685207FCD59B681A4950
:102D9000CA68D307FCD50022174B8A60DA68570748
:102DA000FCD59B681449CA68D607FCD50022124B93
:102DB0008A60DA685007FCD50026691E89B29B68D4
:102DC0000D4A601E0C44D168C907FCD59660D168D5
:102DD0004B07FCD5936800F8013FA042F3D100BF38
:102DE00000BF00BF00BF00BF00BF4022014B9A617F
:102DF000BDE8F08100800920000003402DE9F04F7C
:102E0000402607240021674D674B2A6867483243F4
:102E10002A60DA69AE6122F0070242F00202DA614A
:102E20001A6A634D22F0070242F002021A625A6ADD
:102E30008FB022F0070242F002025A62D0F8C4209A
:102E400042F48062C0F8C4205A4A14606E6851602F
:102E50009A69594C22F00702B4EB560F9A617CD361
:102E600002224026534BD2B218684E4CC0B21860B2
:102E7000186840EA012119601A615A6842F002029A
:102E80005A60E66100BF00BF00BF00BF00BF00BFC7
:102E9000DA68D007FCD5FF21464A9960D368590704
:102EA000FCD5936800BF00BF00BF00BF00BF00BFDC
:102EB00040263C4CA661FFF77BFEE66100BF00BFE9
:102EC00000BF00BF00BF00BF3A49CB68DB07FCD59D
:102ED0009F23384A8B60D3685F07FCD593683549D8
:102EE000CB68DE07FCD50023324A8B60D3685C07D1
:102EF000FCD593682F49CB68D807FCD500232D4A11
:102F00008B60D3685907FCD596682A4BF6B2DC680B
:102F100014F00104FBD0002226499A60CB685A07BE
:102F2000FCD58F6800BF00BF00BF00BF00BF00BF5F
:102F30004FF04009DFF86C80FFB23B46324600207C
:102F40001E49C8F818900DF093FA0B2E01D1122FDC
:102F500036D020460FB0BDE8F08FB4EB960F1DD2EF
:102F600002210A4601FB0223B6FBF3F3A34201F15F
:102F700001007FF676AFB0F5807F0DD100210232DF
:102F800001FB0223B6FBF3F3A34201F101007FF63C
:102F900068AFB0F5807FF1D00146E3E7022201215E
:102FA0005FE700BF0080092000C0024000C00F4062
:102FB00000000010000003408096980018010200F5
:102FC000C8F81C9000BF00BF00BF00BF00BF00BF1B
:102FD000AB49CB68DB07FCD51F23A94A8B60D368BC
:102FE0005F07FCD59368A649CB68DE07FCD5A02314
:102FF000A34A8B60D3685C07FCD59368A049CB6873
:10300000D807FCD500239E4A8B60D3685907FCD5AE
:10301000936800BF00BF00BF00BF00BF00BF4FF4F8
:10302000001440260020AA689649974B0827A3FB66
:103030000253A1FB02129549D20B9B0C013A8E61FF
:10304000C4F898009249C4F8942003EB8302C3EBC0
:10305000C300C2EBC202A1FB0252C3EBC000A1FB42
:103060000050C3EB0313A1FB033193098009013323
:103070008A091B04411C013243EA01231343C4F8AB
:10308000903002A8FDF7A2FE06AE4FF0A05E4FF40E
:103090007A634FF03E0C202231464FF08060C4F836
:1030A000E8EF0AADC4F88430C4F88070D4F88C30EE
:1030B000013201F8013B92B2D4F8E03F5B01FBD54D
:1030C000402AC4F8E80F79D18B1B102B69D1029AE2
:1030D000069B9A4276D04FF000096E4948460DF0A3
:1030E000C7F94FF400144FF0805A4D46DFF8A8811D
:1030F0000AAF4FF0FF0B04E02A4641460DF0B8F945
:10310000354601226E04304611460DF107038DF855
:1031100007B08DF828B0FFF7D1FD012206F5006059
:103120003B461146FFF7CAFD9DF807009DF8283081
:103130006E1C1840B6B2DFD004224FF0A05309F045
:103140003F01C4F8E83FC4F88410C4F8802002317D
:10315000C4F888504FEA9912D4F8E03F5D01FBD5DE
:1031600093014FF08062C4F8E82FC4F8E8AFC4F8C8
:1031700084300623C4F88030D4F8E03FD800FBD573
:103180003F2988BF002309F102091FFA89F9C4F811
:10319000E8AF88BFC4F88430B9F57A6F24D03546DB
:1031A000A7E700220CF101031FFA83FC4FEA8C13FE
:1031B00003F47C63C4F88430C4F88070A9427FF4BF
:1031C00075AF84E7039A079B9A4284D1049A089BBF
:1031D0009A4280D1059A099B9A427FF47CAF0024E1
:1031E00020460FB0BDE8F08F3846FDF7EFFD4FF4F5
:1031F000001320224FF0A0513E203C464FF0030820
:103200004FF0806E4FF080554FF0060C0026C3F84B
:10321000E81FC3F88420C3F8808014F8011B013232
:1032200092B2C3F88810D3F8E01F4901FBD5E11B27
:103230001029C3F8E8EF09D03F2A07D80EA98C421D
:10324000E9D1002015490DF013F9C8E78101C3F851
:10325000E85FC3F88410C3F880C0D3F8E01FC9004A
:10326000FBD53F2AC3F8E85FE8D9013080B23F2898
:103270000ABF002000220246C3F88460DEE700BFD8
:1032800000000340819F5E1683DE1B4300800920FF
:10329000D34D6210340102005001020068010200A7
:1032A0006D4AD2F8E03FD2F8E41F0B4000F0D38023
:1032B0002DE9F04700252F46684E694896F831C23F
:1032C000D6F834429907C2F8E83F2ED0D2F8181148
:1032D00001F180610431C90009684FEAD1484FEA21
:1032E000515909F008094FEAD15E08F0100848EA80
:1032F00009080EF0040E4EEA080EC1F3C0694FEA49
:10330000915849EA0E0E08F0400848EA0E084FEAC4
:10331000116E0EF0200E090A4EEA080E01F48051DB
:1033200051EA0E0108BF23F0020313F0300F18BF5B
:10333000D2F828111B0724D5D2F81811D2F814316D
:10334000D2F810E199421CD0D2F81811D2F81831F5
:1033500003F180630433DB001B6810EA030E10D115
:1033600001F180630433DB001B68D2F81851C3F30A
:103370000A03991E04EB0108B8F5C06F11D3744617
:103380000125D2F8E03FD2F8E41F0B409AD10DB1ED
:10339000C6F834420FB9BDE8F08786F831C2BDE8FF
:1033A000F08700291DDD05F18065E900D1F800E016
:1033B000DD1E0CEB4C012B4B04EB41210D2D03EBDF
:1033C000410303D90EF102018B422CD125F00104F7
:1033D00002341C44AEEB03015D5A23F8025BA342A6
:1033E000FAD11D4BD3F8183103F180630433DB00AD
:1033F0001B685D000BD4444601251749D1F81831EC
:10340000032B2B4408BF0023C1F81831B9E700246F
:103410000CF1010C5FFA8CFCBCF1010F4FF00107BD
:1034200088BFA446E8E771466D0801354FEA5509A3
:103430000EEB8909A3EB0E0A0C684AF8014004312F
:103440008945F9D1EC0725F00101CAD53EF81140B4
:1034500023F81140C5E7704700400820E818001025
:103460000000901B542B001040F6FE734FF4001226
:1034700010B409214FF0A05440000340C2F8E84FB7
:10348000C2F88430C2F88010D2F88C00D2F8E03F45
:103490005B01FBD54FF0806380B210BCC2F8E83FFF
:1034A000704700BFF8B5457815B103252846F8BD2B
:1034B000044600F13007C1F34E100E03FFF7D4FFAE
:1034C000C6F3100646EA4046394630460CF0D0FCBA
:1034D00004F5036106F500600CF0CAFC4AF65523BA
:1034E000B4F82E229A420FD1D4F86630084A23F05D
:1034F0007F439342DAD0D4F8825025F07F45AD1A4D
:1035000018BF01252846F8BD02252846F8BD00BF92
:1035100046415400F0B5C3B002AD4FF480720021B3
:10352000284610F00DFF00240126A0B2FFF79CFFF3
:10353000C0F3CC03EA5C00F00700013406FA00F0A7
:103540001043B4F5FA6FE854EFD10026FF27344654
:1035500005E00134B4F5006F06F5003623D0C4F35E
:10356000CC03EB5C04F007021341DB07F1D401222A
:10357000304611460DF106038DF806708DF8077080
:10358000FFF79CFB01220DF10703114606F50060D1
:10359000FFF794FB9DF806209DF807301A42D8D01B
:1035A000204643B0F0BD002003490CF061FF01202C
:1035B00002490EF0B5F9FEE798030200B4030200D9
:1035C0002DE9F041C66A8E4204D0037904460D46C7
:1035D0001BB93DB90020BDE8F0814378DBB1012083
:1035E000BDE8F0816378002BF9D1C5F34E10FFF7E9
:1035F0003BFF2E03C6F3100646EA4046304604F170
:1036000030010CF035FC04F5036106F500600CF0A8
:103610002FFCE562DEE700F13008314640460CF051
:1036200073FE0028DBD1D4E907321A44B24220717C
:10363000CFD9E778012FCCD91E44637863B9013F15
:1036400031464046FFB20CF05FFE012FC1D0E36966
:103650001E446378002BF2D0002DBBD0BFE700BF23
:103660002DE9F84307780446022F0D46164608D088
:10367000032F4ED0012F1CD0022001232371BDE85F
:10368000F88343895B08B1FBF3F3016A1944FFF740
:1036900097FF0028F1D163896D00B5FBF3F103FBBF
:1036A0001155C6F30722254485F8306085F831208E
:1036B00051E0438901EB5108B8FBF3F3016A194467
:1036C000FFF77EFF0028D8D1618908F10109B8FB16
:1036D000F1F301FB1388B9FBF1F1236AA04419440B
:1036E000EB073DD598F83030204603F00F0343EA4E
:1036F000061388F830302771FFF762FF0028BCD12D
:103700006289C6F30713B9FBF2F102FB1199A144D8
:103710003BE043899B08B1FBF3F3016A1944FFF7CF
:103720004FFF0028A9D16389AD00B5FBF3F203FB7D
:10373000125505F130022244D37825441B0603F0CC
:1037400070433343C3F3072185F830305170190CAF
:103750001B0E9170D370012323710020BDE8F88304
:1037600088F8306020462771FFF72AFF002884D1AF
:103770006389C6F30326B9FBF3F203FB1299A14454
:1037800099F8303023F00F03334389F83030E2E703
:10379000F8B5C56A04460DB103793BB92378032B0C
:1037A0002BD06078003818BF0120F8BD43780BB1EA
:1037B0000120F8BD00F13007294638460CF0A4FD81
:1037C0000028F5D1E369226A20711A449542E5D2B6
:1037D000E678012EE2D91D446378002BDED1013E4C
:1037E00029463846F6B20CF08FFD012ED6D0E3699B
:1037F0001D446378002BD1D1F1E76379002BD0D041
:10380000002104F130034FF400721846E16210F019
:1038100097FD4AF655220C4903460C48C4F8141289
:103820002063D4E90301C4F81C026078C4F81812BC
:10383000A4F82E2210B100236371B3E71846616922
:103840000CF062FD6078F6E772724161525261419C
:10385000012940F2928083692DE9F0478B420D46A1
:1038600004463DD94FF001082378022B3BD0032BAF
:1038700004D0012B51D00120BDE8F0876389216A73
:103880009B08B5FBF3F320461944FFF799FE002887
:10389000F1D16189AB00B3FBF1F201FB123303F10B
:1038A000300222449678D078234493F8303036049E
:1038B00046EA00661E43537846EA032636F0704611
:1038C00059D0012E0CD0A369AB4209D92778022F19
:1038D00000F09480032F5FD0012F50D0012323717B
:1038E0000220BDE8F0876389216A5B08B5FBF3F32A
:1038F00020461944FFF764FE0028BCD161896B00A3
:10390000B3FBF1F201FB1233234493F8312093F817
:10391000306056EA0226D4D12DE0638905EB5506C6
:10392000B6FBF3F3216A20461944FFF749FE00284D
:10393000A1D16189771CB6FBF1F301FB1366B7FBDC
:10394000F1F1236A26442046194496F83060FFF7C7
:1039500037FE00288FD16189B7FBF1F301FB1377A4
:10396000274497F83030EF0746EA03267FD4C6F3A2
:103970000B06002EA5D10020B3E70220704705EB0F
:103980005509B9FBF1F1236A20461944FFF718FEE7
:10399000002849D02771A4E78908B5FBF1F1236A13
:1039A00020461944FFF70CFE20BB6389AD00B5FB30
:1039B000F3F203FB125505F130032344DA78254472
:1039C00002F0F00285F83000A3F80100DA702369F4
:1039D00084F804805A1C08D0A2690133B2422361E2
:1039E00084F80580C7D935463EE7A369B342C2D9FA
:1039F000354639E701232371BDE8F0874908B5FB57
:103A0000F1F1236A20461944FFF7DAFD0028F1D1CD
:103A100063896D00B5FBF3F203FB1255254485F86D
:103A2000300085F83100D2E7618909F1010AB9FB5C
:103A3000F1F301FB1399BAFBF1F1236AED07194485
:103A4000A14418D489F8300020462771FFF7B8FD4B
:103A50000028CFD16389BAFBF3F203FB12AAA24478
:103A60009AF8300000F0F0008AF83000AFE736092D
:103A70007FF427AF7FE799F83030204603F00F033B
:103A800089F830302771FFF79BFD0028B2D1638998
:103A9000BAFBF3F203FB12AAA244E5E7F8B50378F8
:103AA0000446022B0D4606D0032B49D0012B1AD019
:103AB0004FF0FF30F8BD4389016A5B08B5FBF3F3B3
:103AC0001944FFF77DFD0028F2D163896D00B5FB35
:103AD000F3F203FB1255254495F8313095F8300088
:103AE00040EA0320F8BD438901EB5106B6FBF3F32E
:103AF000016A1944FFF764FD0028D9D16389771C56
:103B0000B6FBF3F2B7FBF3F003FB1266216A26441F
:103B10000144204696F83060FFF752FD0028C7D1D7
:103B20006389B7FBF3F203FB1277274497F8303031
:103B300046EA0320EB074CBF0009C0F30B00F8BDB9
:103B40004389016A9B08B5FBF3F31944FFF738FD7D
:103B50000028ADD16389AD00B5FBF3F203FB12552C
:103B600005F1300323449878D9782C4494F8302018
:103B700000045B7840EA0160104340EA032020F033
:103B80007040F8BD2DE9F04F04464FF0FF0A83B0B6
:103B9000006821694FF6FF795546FFF711FD0028AF
:103BA00030D162691178002949D0E529D37A06D04D
:103BB00013F0080003F03F0645D00F2E7BD0FF2501
:103BC000E38801339EB2002E39D02169002936D016
:103BD000206843895B09B6FBF3F203FB12639BB2D7
:103BE00033B9E768013121617FB90289B24226D930
:103BF00000F1300202EB4313E6806361FFF7E0FC63
:103C00000028CED003B0BDE8F08F90F802C00CF1D0
:103C1000FF3C1CEA020FEBD1012F5FD083699F426A
:103C20005CD23946FFF73AFF0128034656D9421CB9
:103C300000F00E81206882699342C0F0F680042073
:103C400003B0BDE8F08F0F2E35D0002D00F0A4801A
:103C5000A369A4F82090D97AC907B0D41D78117847
:103C60008D42ACD15D7851788D42A8D19D78917804
:103C70008D42A4D1DD78D1788D42A0D11579197902
:103C80008D429CD1557959798D4298D19579997900
:103C90008D4294D1D579D9798D4290D1157A197AFE
:103CA0008D428CD1557A597A8D4288D1927A9B7AFD
:103CB0009A42A7D083E7D4F81CC0E388BCF1000F78
:103CC0003FF47FAF4E060BD592F80DA0238401F090
:103CD000BF05517B514508D0FF2572E7022091E7CF
:103CE000A942F9D1517B5145F6D111784FF0010B22
:103CF00021F0400808F1FF3808EB4800DFF854E1F4
:103D000008EB8008019506E04FF6FF708542E3D18D
:103D10005148864533D01EF8010B15186E78155C96
:103D200045EA0625BBF1000FEED04C4F6120BB46A3
:103D3000002603E03BF8020F013630B18542F9D18D
:103D4000474800EB4606B6F8E457B8F1270FC3D84A
:103D50003CF818B06120002608F1010803E037F8AC
:103D6000020F013630B15845F9D13D4800EB460607
:103D7000B6F8E4B75D45AFD137488645CBD14806A4
:103D8000019D06D5BBF1000F03D03CF81820002A96
:103D9000A2D1013DEDB214E75578CB0143EA5103BE
:103DA0002B44C3F3460141EAC3119378C9B21944C5
:103DB000C1F3460343EAC113D178DBB20B44C3F32A
:103DC000460141EAC3111379C9B21944C1F346034C
:103DD00043EAC1135179DBB20B44C3F3460141EA14
:103DE000C3119379C9B21944C1F3460343EAC1131D
:103DF000D179DBB20B44C3F3460141EAC311137A14
:103E0000C9B21944C1F3460343EAC113517ADBB284
:103E10000B44957AC3F3460141EAC3132B4403F0E4
:103E2000FF0353457FF414AFECE6023AE360023B34
:103E300093423BBF8278816A002103FB02114289D1
:103E400021615209B6FBF2F302FB13639BB2CFE68A
:103E50000120D7E6C0170200CD170200D0170200DC
:103E6000CC1102002DE9F84305460E46F1B9C768AA
:103E70008369002F00F0B8809F4228BF01273C468D
:103E800001349C4221D3012F00F0AC80022B1ED9BB
:103E900002242B78022B00F08A80032B5ED0012BAA
:103EA00019D04FF0FF342046BDE8F88301290ED029
:103EB000836999420BD2FFF7F1FD0128044606D928
:103EC000AB69834204D83746D9E7012CE1D10124FC
:103ED0002046BDE8F8836B8904EB5408B8FBF3F384
:103EE000296A28461944FFF76BFB0028D9D1698954
:103EF00008F10109B8FBF1F301FB1388B9FBF1F1FB
:103F00002B6AA8442846194498F83080FFF758FBDC
:103F10000028C6D16B89E107B9FBF3F203FB1299C4
:103F2000A94499F8303048EA03235FD51B0938D1FA
:103F3000AB69A342CBD96FF0704221462846FFF708
:103F40008FFB002865D1002E55D12B69EC605A1CDF
:103F5000BED00122013B2B616A71B9E76B89296AE6
:103F60009B08B4FBF3F328461944FFF729FB00280C
:103F700097D16A89A300B3FBF2F102FB113303F17D
:103F800030022A442B4493F830109378D0781B04E5
:103F9000527843EA00630B4343EA022333F0704351
:103FA000C6D0012B93D0A7421CD0AB6968E76B89C0
:103FB000296A5B08B4FBF3F328461944FFF700FBBA
:103FC00000287FF46EAF6A896300B3FBF2F102FB55
:103FD00011332B4493F8312093F8303053EA022305
:103FE000DFD1A5E7002473E7012748E7C3F30B03FC
:103FF000002BD6D19CE7012E3FF469AFAB699E42FE
:10400000BFF465AF224631462846FFF729FB00285A
:104010009BD001283FF445AF59E700BF2DE9F04799
:1040200084680646012CC18026D00568AB69A3428E
:1040300022D988461CB36A89AF78520902FB07F778
:10404000BFB28F4268D89C4216D22B78022B00F068
:104050009F80032B78D0012B21D00120BDE8F08771
:104060006C6A7CB16A89AF78520902FB07F7BFB26C
:10407000B94251D3012CE6D10220BDE8F0872A785D
:10408000032AEDD000222B89F2604345F4D96A89D6
:10409000686A5209B8FBF2F399B201444AE06B89AD
:1040A00004EB5409B9FBF3F3296A28461944FFF7D6
:1040B00087FA0028D1D1698909F1010AB9FBF1F326
:1040C00001FB1399BAFBF1F12B6AA9442846194464
:1040D00099F83090FFF774FA0028BED16B89BAFBCB
:1040E000F3F203FB12AAAA449AF8303049EA0329F2
:1040F000E3074CBF4FEA1914C9F30B04012CBBD9D9
:104100003568AB69A342B7D9A8EB07011FFA81F85C
:10411000474598D96A895209023BF460023C9C42A7
:104120003BBFAB78A86A002004FB0300B8FBF2F3A6
:1041300099B2014402FB138330359BB205EB431562
:1041400000203161756198E76B89296A9B08B4FB8F
:10415000F3F328461944FFF733FA00287FF47DAFC4
:104160006B89A400B4FBF3F203FB124404F13003A7
:104170002B442C4494F830209C78D97824045B7824
:1041800044EA0164144344EA032424F07044B5E78C
:104190006B89296A5B08B4FBF3F328461944FFF7DF
:1041A0000FFA00287FF459AF6B896400B4FBF3F277
:1041B00003FB12442C4494F8313094F8304044EA24
:1041C00003249BE72DE9F04FC48883B00134A4B2E7
:1041D000002C4AD002690546002A46D00668738939
:1041E0005B09B4FBF3F003FB10439BB243B1002027
:1041F000303606EB4316EC806E6103B0BDE8F08FFD
:104200000F46E96801322A6161B3B278013A02428D
:10421000EDD101292DD0B36999422AD23046FFF75A
:104220003DFC0128804624D9B0F1FF3F00F08A8090
:104230002E68B36983421ED9A0F1020A023B53459E
:1042400098BF0023C5F80C8082BFB278B36A0AFB1E
:10425000023372892B615209B4FBF2F302FB134360
:104260009BB2C4E73289A242C1D8042003B0BDE8A2
:10427000F08F0220C1E7002FF7D03046E968FFF742
:10428000F1FD804600285FD00128F2D0B0F1FF3F59
:1042900058D02E68F76A17B13379002B58D172893C
:1042A00006F1300012B1002110F04AF82E68A8F192
:1042B000020AB369B278023B9A4547D2B76A0AFB51
:1042C0000277F762002A6BD04FF000094FF0010B24
:1042D00086F804B04FB37278002A33D106F1300368
:1042E0003946184601930CF00FF858BBD6E907126F
:1042F0000A44BA42307115D9F278012A12D90F4412
:104300007178009271B9394601980BF0FDFF009A5F
:10431000013AD2B2012A05D0F16900920F447178B6
:104320000029F0D02E68F76AB27809F101095FFA26
:1043300089F901379145F762CAD3A7EB0907B36939
:10434000F7627BE7012058E7072056E70027B8E728
:104350007378002BF6D106F1300A394650460BF03F
:10436000D3FF0028EED1D6E9072313449F423071D2
:1043700006D296F80390B9F1010F01D973780BB109
:104380002E688CE7F36909F1FF391F44504639461E
:104390005FFA89F90BF0B8FFB9F1010FEED1EFE741
:1043A0009146CAE701692DE9F8430546002900F066
:1043B000C480FF273E460068FFF702F980460028C8
:1043C00040F0BD806A691378002B00F0B680E52BC1
:1043D000D17A07D02E2B05D00C0701F03F002ED547
:1043E0000F282FD0EC88FF260134A4B2002C00F057
:1043F000A4802969002900F0A080286843895B090E
:10440000B4FBF3F203FB12439BB2002B40F09C8001
:10441000D5F80CC001312961BCF1000F40F09F803C
:104420000289A24240F2898000F1300202EB43137C
:10443000EC806B610029BFD14046BDE8F8830F28AE
:1044400040F05381580640F18680E988577B03F09D
:10445000BF032984517BB942C4D11178EE6901F0C0
:104460003F01013901EB410001EB80012729B2F83E
:104470000140B7D826F81140B2F803C0481C002C00
:1044800040F0A0804FF6FF718C45ABD1B2F805E04B
:104490004FF6FF718E45A5D1B2F807C04FF6FF71F8
:1044A0008C459FD1B2F809E04FF6FF718E4599D146
:1044B000B2F80EC04FF6FF718C4593D1B2F8109050
:1044C0004FF6FF7189458DD1B2F812E04FF6FF71BA
:1044D0008E4587D1B2F814C04FF6FF718C4581D15B
:1044E000B2F816E04FF6FF718E457FF47BAFB2F85D
:1044F00018904FF6FF7189457FF474AFB2F81CC075
:104500004FF6FF718C457FF46DAFB2F81EE04FF6A9
:10451000FF718E457FF466AF1278510605D52828C5
:104520003FF460AF002226F81020EC88013B0134F4
:10453000A4B2DEB2002C7FF45CAF4FF0040800237D
:104540002B614046BDE8F88300F1300202EB4313D3
:10455000EC806B6130E79E427FF444AF7AE790F8DD
:1045600002E00EF1FF3E1EEA020F7FF45DAFBCF1E8
:10457000010F22D083699C451FD26146FFF78EFA56
:104580000128034619D9421C00F0B48028688269CA
:104590009342D2D2023AEB60023B93423BBF827815
:1045A000816A002103FB0211438929615B09B4FB85
:1045B000F3F203FB12439BB236E700234FF00208ED
:1045C0002B61BEE728283FF40DAF26F810C0440049
:1045D000B2F805E0881CBCF1000F3FF459AF282861
:1045E0003FF400AF3444A4F802E0B2F807C0C81C9E
:1045F000BEF1000F3FF452AF28283FF4F3AEA4F809
:1046000004C0B2F809E0081DBCF1000F3FF44CAF44
:1046100028283FF4E7AEA4F806E0B2F80EC0481D23
:10462000BEF1000F3FF446AF28283FF4DBAEA4F8FC
:1046300008C0B2F81090881DBCF1000F3FF440AFE5
:1046400028283FF4CFAEA4F80A90B2F812E0C81DB3
:10465000B9F1000F3FF43AAF28283FF4C3AEA4F8F5
:104660000CE0B2F814C001F10800BEF1000F3FF4F5
:1046700033AF28283FF4B6AEA4F80EC0B2F816E067
:1046800001F10900BCF1000F3FF42CAF28283FF4E2
:10469000A9AEA4F810E0B2F8189001F10A00BEF13A
:1046A000000F3FF426AF28283FF49CAEA4F81290E8
:1046B000B2F81CC001F10B00B9F1000F3FF420AFBC
:1046C00028283FF48FAEA4F814C0B2F81EE001F120
:1046D0000C00BCF1000F3FF41AAF28283FF482AE63
:1046E000A4F816E001F10D0016E736B14FF6FF739E
:1046F0002B84A1E64FF0010821E75178D80140EA68
:1047000053030B44C3F3460141EAC3119378C9B282
:104710001944C1F3460343EAC113D178DBB20B4419
:10472000C3F3460141EAC3111379C9B21944C1F375
:10473000460343EAC1135179DBB20B44C3F346018C
:1047400041EAC3119379C9B21944C1F3460343EA5C
:10475000C113D179DBB20B44C3F3460141EAC31163
:10476000137AC9B21944C1F3460343EAC113517A1B
:10477000DBB20B44917AC3F3460242EAC3130B4403
:1047800003F0FF03BB42B1D156E600BF2DE9F04F65
:10479000D0E9064B89B0A26882466168206805AB03
:1047A00007C39DF81F30DA07019340F1C58000234D
:1047B000012581468846621EBDF81C709DF81E606A
:1047C000E3720092CAF81C30052DC4F80090C4F8BA
:1047D00004802781A67240F2318159462846BBF8F1
:1047E0000020C30343EA5003134431F8022F98B268
:1047F000002AF6D1034600F00F0202F1300EBEF19E
:10480000390F88BF02F1370E0F2B8DF813E0C0F37C
:104810000F1040F2198100F00F0101F13002392A26
:1048200088BF01F137020F288DF81220C3F30F2142
:1048300040F2128101F00F0000F13002392A88BFE6
:1048400000F137020F298DF81120C3F30F3340F226
:104850000981DBB203F13002D2B2392A84BF373387
:10486000DAB27E234FF0030C8DF810208DF80F3054
:104870000022009902E0624500F0EC8011F8010F7F
:104880001346202802F10102F5D10CF120026A44FE
:1048900012F8141C062BE15412F8131C04EB03024B
:1048A00051700CF1020203F1020112D0082A23D147
:1048B0002022052B625403F103000AD0431C082B6D
:1048C000C0F108024FF0200188BF012220440FF000
:1048D00037FD00215046FFF7A1FB30BB5046FFF7E4
:1048E00051F910BB0135ADB2642D7FF46DAF0721D6
:1048F000084609B0BDE8F08F20326A4412F8142C43
:10490000052B62540CF1030203F10301E1D0082AE4
:1049100070D12022042B625403F10400CED1002177
:104920005046FFF77BFB0028D8D004280146DFD192
:10493000019BE372CAF81CB0019B9B0700F19880B1
:10494000012400215046FFF769FB01460028CFD122
:104950000646054608E0B3B1054601215046FFF77B
:1049600031FC002840F09880DAF81010DAF80000E6
:10497000FEF726FE6A1C002840F08E80DAF814301C
:104980001B78E52BE7D10DB9BAF8066095B2AC42B9
:10499000E3D1012C40F08580DAF81010DAF800003D
:1049A000FEF70EFE01460028A2D1DAF814302022CC
:1049B000009018460FF0C4FC0346DAF8182000995E
:1049C000501C181A022840F296811068186050682E
:1049D0005860107A1872507A58720120927A9A723E
:1049E000DAF81820D27A02F018021A73DAF80030D6
:1049F00018717DE720326A4412F8142C042B62549B
:104A000003F104023FF465AFBCF1030F07D020218E
:104A1000032BA15403F105007FF450AF59E7032B9A
:104A200004F802E003F105023FF453AF2021022B0A
:104A3000A15403F106007FF441AF4AE705F1300EBF
:104A40005FFA8EFE8DF813E07E234FF0060C8DF892
:104A500012300DE7634618E77E234FF0050C8DF802
:104A6000113005E77E234FF0040C8DF81030FFE67F
:104A7000BBF80030002B3FF463AF002301339BB23F
:104A80003BF81320002AF9D1A34A03F11904A2FB31
:104A90000424C4F38F0454E70146084609B0BDE876
:104AA000F08F31465046FFF7B9FA014600287FF4EF
:104AB0001FAFDAF81830013C19781FFA84F8CA01E0
:104AC00042EA510259780F260A44C2F3460141EAEC
:104AD000C2119A78C9B21144C1F3460242EAC11226
:104AE000D978D2B20A44C2F3460141EAC2111A7916
:104AF000C9B21144C1F3460242EAC1125979D2B295
:104B00000A44C2F3460141EAC2119A79C9B211447A
:104B1000C1F3460242EAC112D979D2B20A44C2F3C1
:104B2000460141EAC2111A7AC9B21144C1F34602E0
:104B300042EAC112597AD2B20A449B7AC2F34605BC
:104B400045EAC2151D4405F0FF052B464FF6FD77DB
:104B500045464FF6FF749846DAF81010DAF8000070
:104B6000FEF72EFD014600287FF4C2AE5FFA85FEF7
:104B7000DAF814300EF1FF32DAF81CC002EB420111
:104B8000588302EB810283F80D80A3F80B603CF898
:104B90001210481E80B25970B8424FEA1121997024
:104BA0004FEA420124D9A3F80340A3F80540A3F833
:104BB0000740A3F80940DC811C825C829C82DC8275
:104BC0001C839C83DC834EF0400E012283F800E0BE
:104BD000DAF80030002150461A71FFF7F3FA014667
:104BE00000287FF485AE013DADB2002DB4D1D3E6EF
:104BF00001323CF81200520000F1FF39D870000A6F
:104C000018711FFA89F0B842CFD86244508800F179
:104C1000FF395871000A98711FFA89F0B842C6D856
:104C2000908800F1FF39D871000A18721FFA89F0D4
:104C3000B842BED8D08800F1FF395872000A987285
:104C40001FFA89F0B842B6D8108900F1FF3998737D
:104C5000000AD8731FFA89F0B842ADD8508900F124
:104C6000FF391874000A58741FFA89F0B842A4D8A2
:104C7000908900F1FF399874000AD8741FFA89F0FE
:104C8000B8429BD8D08900F1FF391875000A5875D1
:104C90001FFA89F0B84292D8108A00F1FF3998754E
:104CA000000AD8751FFA89F0B84289D8508A00F1F5
:104CB000FF391876000A58761FFA89F0B84280D872
:104CC000908A00F1FF391877000A58771FFA89F0A7
:104CD000B8423FF677AFD28A501E9A77120ADA7737
:104CE00082B2BA423FF66FAF8C44BCF81A20002A59
:104CF0007FF46BAF67E71078187050785870907831
:104D00009870D078D870107918715079587190795E
:104D10009871D079D8715CE64FECC44E2DE9F04F14
:104D20000B788A462F2B044683B02FD05C2B2DD0D6
:104D30000025A5609AF800301F2B2FD9B04D53469F
:104D400019781E462F299E4603F10103F8D05C29ED
:104D5000F6D01F290A46E06914D9A0F1020C2F2AC7
:104D6000E0464FF0010335D05C2A33D0292B09D01F
:104D70007F2A1BD82221A34F02E017F8011FE9B1B7
:104D80009142FAD1062003B0BDE8F08F00250AF168
:104D9000010AA5609AF800301F2BCFD8294620467B
:104DA000FFF73CF9656103B0BDE8F08F05EB410109
:104DB000B1F8C428002AE5D07F2ADBD928F8022FD1
:104DC0001EF8012F5F1C1F2A114640F2EF802F2A88
:104DD0003B46C9D106EB030A013BD3D0002600EBCA
:104DE000430131F8022D202A01D02E2A02D1013BA5
:104DF000F7D1C7E74FF02037002142F220084FF0EB
:104E0000200EA26920F81310A2F8088017605760DE
:104E100082F80AE000E001313CF8022F202AFAD0A3
:104E20002E2AF8D009B146F0030600EB430701E053
:104E3000013B04D037F802CDBCF12E0FF8D1D4F8E5
:104E400018E00131F446002A00F0EC8000274FF012
:104E50000808B946CDF804A0202A53D02E2A5AD0EB
:104E6000C8456ED8B8F10B0F5AD08B4200F096802F
:104E700046F003068B4280F091809EF80030F446A5
:104E8000E52BDDF804A004D105238EF80030D4F81A
:104E900018C0B8F1080F05BFBB00DFB207F00C0364
:104EA00003F00C030C2B76D007F00307032F72D00E
:104EB000B20707D4012F08BF46F01006042B08BF25
:104EC00046F00806002120468CF80B60FFF7A6F894
:104ED000002854D12046FEF755FEA369DB7A00284E
:104EE0004FD159073FF54FAF6369DA7AD2064ED5F5
:104EF00021685A8B0978032904BF9B8A42EA03423E
:104F0000A2601CE70A4646F00306511C30F8122046
:104F1000002AA1D1B1E78B42F4D1B8F10B0FA9D18E
:104F20009EF80020F446E52ADDF804A046F00306CA
:104F300007F00C03B6D105228EF80020D4F818C073
:104F4000B0E78B42E9D07F2A34D84FF02B0CE246F1
:104F5000944652469445DFF8B0B005D01BF8012FB7
:104F6000002A42D09445F9D15F2246F003060EF89C
:104F70000920D4F818E00A4609F10109C5E7A36938
:104F8000DB7A04287FF4FFAE5C073FF5FCAE05201A
:104F900003B0BDE8F08F46F0020693E7BF001A4663
:104FA0004FF00B084FF00809FFB2AEE706EB070A17
:104FB000042614E74FF0000CDFF850A004E00CF1D9
:104FC000010CBCF1800F38D03AF802BB9345F6D102
:104FD0000CF18002DFF828C092B2624492F8442AB1
:104FE00046F00206002ABFD0AFE76246ACF1410CA2
:104FF000BCF1190F0CD847F00207D2B2B7E700BFD7
:10500000CC110200D0030200DC030200901B02005E
:10501000A2F1610CBCF1190F9CBF203A47F00107C7
:10502000D2B2A4E79EF80030E52B7FF44BAF052306
:105030008EF80030D4F818C044E746F0020693E733
:105040002DE9F843046815462378303B092B03D833
:1050500062783A2A00F09D8000230B608A4ED6F8D1
:105060006C41002C00F0A7800C602378002B40F0EE
:10507000888000232380FDF7C1FE10F0010740F077
:10508000978015B1430700F19980617800297DD19F
:105090004FF4805320466381FEF704FA012800F0A4
:1050A0008180032872D000287FD16189B4F83B3019
:1050B0008B427AD1B4F84620002A00F0818094F81F
:1050C0004030E261581E0128E3706ED894F83D002C
:1050D000A070002869D0451E054266D1B4F841E0B1
:1050E0004D09BEFBF5FC05FB1CE5ADB2A4F808E0DC
:1050F000002D5AD1B4F8435005B9256DB4F83E805F
:10510000B8F1000F51D002FB03F3C4449C44654541
:105110004BD3A5EB0C058542B5FBF0F945D308EB65
:10512000070540F6F578C14507EB0C0009F1020CC4
:105130004FD94FF6F578C145A0625AD8C4F818C0C7
:105140002562BEF1000F30D002202B444FEA4C0CF8
:1051500063624B1E6344B3FBF1F39A4225D30023F1
:105160004FF0FF32C4E903320022B6F83832207023
:1051700001339BB2A6F83832E380E262227100204C
:1051800005E06378002B7FF474AFF8E70120BDE8F9
:10519000F8830022023404600A60002B3FF45EAF03
:1051A0000B20F4E794F8F23163B90D20BDE8F883E1
:1051B0000320BDE8F8830C20BDE8F8830A20E6E769
:1051C000626D7CE7D4F8F67120463946FEF76AF93D
:1051D00067E7A062C4F818C02562BEF1000FE4D0F2
:1051E0000CEB4C000CF0010C0CEB500C2B44012090
:1051F000AEE72562C4F818C0BEF1000FD5D14B1E32
:1052000003EB8C03B3FBF1F3E16D93426162CCD805
:105210004FF0FF31B4F8603062783B44C4E90413C6
:10522000C4F80CE084F805E00AB103209CE7C3F35E
:105230004E101D03FEF718F9C5F3100545EA404569
:10524000284604F130010AF013FE04F5036105F568
:1052500000600AF00DFE4AF65523B4F82E229A4259
:10526000E3D10A4B226B9A42DFD103F1FF53D4F80A
:10527000142203F5005320339A4204BFD4E9862355
:10528000C4E90332D1E700BFE8180010525261416F
:105290002DE9F04300230446A5B00191164601A86C
:1052A00006A9236002F01E02FFF7CAFE054618B1E8
:1052B000284625B0BDE8F08303AB0C9301990FABF2
:1052C00006A80D93FFF72AFD0B9F06F01C0300288C
:1052D00036D1002F6ED0FA7A002B39D012F0110F90
:1052E0005BD13207069B3ED50022334BFA72C7F8DA
:1052F0000E30069BFA611A78B7F81A80032A08BFA5
:10530000BA8A4FF0010108BF48EA024800227A83B6
:10531000BA821971B8F1000F23D018464146D3F86C
:105320002C900093FEF794FA009B60B908F1FF32CD
:1053300049461846DA60FEF743F920B9009B10E0B1
:105340000BB104282DD00546284625B0BDE8F083D2
:10535000D30624D4B00701D5D1071ED43207069B4B
:1053600001D546F02006DA6AA671C4E90727197844
:105370007A8B032908BFB98A284608BF42EA01424E
:1053800022610022F9692360DB88C4E90221A3803D
:10539000A261626225B0BDE8F083072588E7042595
:1053A00086E706A8FFF7F2F946F008060028CAD1FA
:1053B0000B9F99E706257BE700009A3C2DE9F04F0B
:1053C000ADF5885D81B017AC0346A64A8A462046F3
:1053D00028210FF0E9FD00230A220EA90AA80A9449
:1053E0003693FFF72DFE20B10DF5885D01B0BDE8C5
:1053F000F08F0BAB0A990DF1840B0EA8CDE9143B8D
:10540000FFF78CFC139C00283FD1002CECD0E37AF2
:1054100013F0110FE8D1944B0E9DC4F80E30002309
:10542000E372E3612B78668B032B08BFA38A4FF0EE
:10543000010208BF46EA034600236383A3822A7160
:10544000002E40F000822A238DF8DE30EB6A3E9475
:105450003D932878638B032800F0C0813A930023A2
:10546000E988E26936953992ADF8DC1038933C93BF
:105470003F9308B1697889B136AF38460CF050FED9
:105480000DF5885D01B0BDE8F08F0428ACD10EA801
:10549000FFF77CF9139C0028BDD0A5E712F5007F2B
:1054A00080F0EA814FF4007836AFCDF800A06A8929
:1054B000B1FBF2F302FB1310002840F00F81AA7831
:1054C00002F1FF3909EA030919F0FF090ED1002999
:1054D00040F031813A98002800F0AF81012800F0B7
:1054E000C481451C00F0C181369D3B909DF8DE00D3
:1054F000440600F10F813B9BAA69023B023A9342AA
:1055000080F0DA80A978AA6A01FB0323002B00F05F
:10551000D3806A8903EB0904424500F2D280B8FBCC
:10552000F2F609EB060399426B7838BFA1EB090646
:10553000002B40F0C18016F0FF0300F04B81009A71
:10554000CDE9056802EB03330993C2EB0433CDE9DF
:105550000334DFF818A10192039A019B9E18730C83
:1055600018460793FDF780FFC6F3100646EA40464B
:105570004504FDF7CFFF40223D4B4FEA4048DA613A
:10558000089000BF00BF00BF00BF00BF00BFDAF837
:105590000C30D907FBD50623CAF80830DAF80C30EE
:1055A0005A07FBD5DAF8083000BF00BF00BF00BFC4
:1055B00000BF00BF40222E4B9A61DA6100BF00BFDE
:1055C00000BF00BF00BF00BFDAF80C30DB07FBD51F
:1055D000D823CAF80830DAF80C305C07FBD5DAF8C3
:1055E00008304FEAD8224FEAD861DAF80C30D807F1
:1055F000FBD5CAF80810DAF80C305B07FBD5DAF8EF
:1056000008304FEAD841DAF80C30DC07FBD5C9B2D4
:10561000CAF80810DAF80C305807FBD5DAF8083069
:10562000DAF80C30D907FBD5D2B2CAF80820DAF87C
:105630000C305B07FBD5DAF8083000BF00BF00BFB5
:1056400000BF00BF00BF4022094B9A61FDF7B0FACE
:10565000044678BBA946029705F50035A8EB090872
:1056600011E000BFE403020000009A3C0000034088
:105670000080092048460AF037FD09F50067C0B9E7
:10568000AF42B94677D03019814509F5006708EB7C
:105690000901EFD8B842EDD2B4F5805FEAD2019BA0
:1056A000084619190AF07CFC04F50064A4B200282D
:1056B000E6D0029F9DF8DE0060F07F008DF8DE00EE
:1056C000DBE63C9B38999C4203D0399B8B4200F22D
:1056D0009980B1FBF2F002FB10103C94121A424583
:1056E00028BF42462830164638441AB1009910F0B7
:1056F00083F938999DF8DE3043F040038DF8DE30B1
:10570000009B31443344B8EB06083891009327D00E
:10571000369DCCE66B783C99002BCDD140A80AF0A1
:10572000F3FD0028C6D19DF8DE00369D00F0BF00D5
:105730008DF8DE00DFE63F9800285ED0B3FBF2F381
:105740004268043022B90BE09B1A50F8082F3AB196
:105750009A42F9D94068184400287FF4BFAE3899BE
:10576000399B8B429DF8DE3038BF399143F02003DE
:105770008DF8DE3081E6089B5A46C3F30E03ADF880
:105780008430019B029F03F58054079B01945800CD
:10579000590900F03E000AF07FFD099B9C427FF40E
:1057A000DBAE3C9BDDE90446369A1B1B9E42DDF8CE
:1057B000188052890ED9009902FB031122B140A82A
:1057C00010F01AF9369B5A899DF8DE3023F0400319
:1057D0008DF8DE3002FB06F6389991E70021A28AA7
:1057E000369543EA02433A93E269EB883992ADF881
:1057F000DC3038913C913F913CE628463B99FEF7DE
:1058000031FBA9E76B78002B7FF456AFC4F34E1041
:10581000FDF72AFE2503C5F3100545EA4045284655
:1058200040A90AF025FB0DF5106105F500600AF0AE
:105830001FFB369B38995A894BE728464946FEF7A5
:1058400011FB3A9088E731462846EF6AFEF700F8E8
:1058500000287FF4C9AD013E39462846EE60FDF7C9
:10586000AFFE00283FF4EFADBEE59DF8DE3063F0FB
:105870007F038DF8DE3000E62A2336AF78E700BFDD
:105880002DE9F041B6B017AC034628213B4A20462B
:105890000FF08AFB012205A901A80194FFF7D0FBB4
:1058A00010B136B0BDE8F08102AA21AB019905A87C
:1058B000CDE90B23FFF732FA0028F2D10A9B002B27
:1058C000EFD0DA7AD107ECD405995D8B09780329FA
:1058D00049D0D3062CD44FF6FF73BDF81A60BDF83B
:1058E000341005A8994208BF3146FEF797FB0028FF
:1058F000D7D14FF0E508012704E005A8FEF762FCC8
:105900000028CED1059C09992046FDF759FE014695
:105910000028C6D10A9B83F80080BDF81A30277191
:10592000B342EAD3059C15BB2046FDF731FFB8E72B
:10593000012DB6D90DF1140C0EACBCE80F000FC44C
:10594000BCE80F000FC4DCF8003002210EA810954F
:105950002360FEF763FB0028A3D10EA8FEF722FD0B
:1059600004289ED1B7E79B8A45EA0345B1E729465B
:105970002046FDF76DFF002893D1D5E7E403020030
:1059800010B5ACB00DAC03462821104A20460FF0EC
:105990000BFB0022684604A90094FFF751FB10B1ED
:1059A00000202CB010BD17AB01AA009904A8CDE9C6
:1059B0000A23FFF7B3F9099B0028F1D1002BEFD0A0
:1059C000DB7ADB06ECD40120EBE700BFE403020046
:1059D0002DE9F04F994690F9063090F806A0002B7B
:1059E00085B0C0F2B0801AF0010A00F03281D0E92F
:1059F00002E6A6EB0E06964228BF16460446002E87
:105A000000F04D81884677462068B0F80AC0B7FBA1
:105A1000FCF30CFB1372002A56D18278551E1D40F0
:105A200015F0FF057CD063698269023B023A93421C
:105A300080F085808178826A01FB0323002B7ED071
:105A4000B0F80AC02B44B44540F28380A1698B4270
:105A500034D0A279477812F0400F04F128050BD01A
:105A600001935FB928460AF04FFC019BA27928B93F
:105A700002F0BF022068A271417831B142F0800289
:105A8000A271504605B0BDE8F08FC3F34E100193EC
:105A9000FDF7EAFC019B29461D03C5F3100545EA05
:105AA000404528460AF0E4F905F5006004F62801AF
:105AB0000AF0DEF92268019BB2F80AC0A768A36168
:105AC000B7FBFCF20CFB1272ACEB0203B34228BF33
:105AD000334602F128012144581E002B00F0BF80FC
