:1000000000800010CD000000390100003B0100001D
:100010003D0100003F010000410100000000000020
:10002000000000000000000000000000430100008C
:10003000450100000000000047010000D9620000F7
:100040004B0100004B0100004B0100004B01000080
:100050004B0100004B0100004B0100009DC500005A
:100060004B0100004B0100004B0100004B01000060
:100070004B0100004B0100004B0100004B01000050
:100080004B0100004B0100004B0100004B01000040
:100090004B0100004B0100004B0100004B01000030
:1000A0004B0100004B010000A17000004B0100005B
:1000B0004B0100004B0100004B0100004B01000010
:1000C0004B0100004B0100004B0100001149124A96
:1000D000124B9A4205D008681060043104329A42EB
:1000E000F9D300200E490F4A914204D0914202D226
:1000F00008600431FAD30C480C49884206D00268E3
:10010000043003B4FE46974603BCF6E70848804730
:1001100008480047F01E020000000010C807001049
:10012000C807001048630010D41E0200D41E02004D
:10013000450C00009D8F0000FEE7FEE7FEE7FEE7AE
:10014000FEE7FEE7FEE7FEE7FEE7FEE7034A137D74
:100150009B06FCD5C0B21070704700BF00C00040C5
:10016000002300BF00BF00BF00BF00BF00BF00BF33
:1001700000BF00BF00BF00BF00BF00BF00BF00BF87
:1001800000BF00BF00BF00BF00BF00BF00BF00BF77
:1001900000BF00BF00BF00BF00BF00BF00BF00BF67
:1001A00000BF00BF00BF00BF00BF00BF00BF00BF57
:1001B00000BF00BF00BF00BF00BF00BF00BF00BF47
:1001C00000BF00BF00BF00BF00BF00BF00BF00BF37
:1001D00000BF00BF00BF00BF00BF00BF00BF00BF27
:1001E00000BF00BF00BF00BF00BF00BF00BF00BF17
:1001F00000BF00BF00BF00BF00BF00BF00BF00BF07
:1002000000BF00BF00BF00BF00BF00BF00BF00BFF6
:1002100000BF00BF00BF00BF00BF00BF00BF00BFE6
:1002200000BF00BF00BF00BF00BF00BF00BF00BFD6
:1002300000BF00BF00BF00BF00BF00BF00BF00BFC6
:1002400000BF00BF00BF00BF00BF00BF00BF00BFB6
:1002500000BF0133984284D1704700BF4FF0030CB8
:10026000084B2038D3F8AC210CFA00FC22EA0C022F
:10027000C3F8AC21D3F8AC2181401143C3F8AC11D1
:10028000704700BF00C00F404FF0010CF0B444684D
:1002900003780CFA04F4002900F0B080042B40F23B
:1002A000CE8000BF00BF00BF00BF00BF00BF00BFC7
:1002B00000BF00BF00BF00BF00BF00BF00BF00BF46
:1002C00000BF00BF00BF00BF00BF00BF00BF00BF36
:1002D00000BF00BF00BF00BF00BF00BF00BF00BF26
:1002E00000BF00BF00BF00BF00BF00BF00BF00BF16
:1002F00000BF00BF00BF00BF00BF00BF00BF00BF06
:1003000000BF00BF00BF00BF00BF00BF00BF00BFF5
:1003100000BF00BF00BF00BF00BF0378042B23D87D
:10032000D0E904750121C4685B0103F1005301FAAF
:1003300004F403F51C2301FA05F5B940D70702F0D0
:1003400002069C6168D59961002E68D001248169FC
:1003500056079D6104FA01F468D501219C61C469C6
:10036000A140140769D5996100BF00BF00BF00BF5D
:1003700000BF00BF00BF00BF00BF00BF00BF00BF85
:1003800000BF00BF00BF00BF00BF00BF00BF00BF75
:1003900000BF00BF00BF00BF00BF00BF00BF00BF65
:1003A00000BF00BF00BF00BF00BF00BF00BF00BF55
:1003B00000BF00BF00BF00BF00BF00BF00BF00BF45
:1003C00000BF00BF00BF00BF00BF00BF00BF00BF35
:1003D00000BF00BF00BF00BF00BF00BF00BF00BF25
:1003E0000378042B08D80122C1685B0103F1005394
:1003F00003F51C238A40DA61F0BC7047042B3FF6FA
:1004000050AF5B0103F1005303F51C23DC610121B4
:100410008468A140D96144E7D961002E96D10124B6
:100420008169DD61550704FA01F496D40121DC618C
:10043000C469120701FA04F195D4D96194E75B010C
:1004400003F1005303F51C239C61E0E702780346A7
:10045000042A2DE9F0412DD8D3E90557D3E901E865
:100460000120520102F1005202F51C22D3F810C003
:10047000146800FA0CFC24EA0C04DE69146000FA2B
:1004800005FC156800FA07F725EA0C0515601568E4
:1004900000FA06F625EA07051560156800FA08F463
:1004A00025EA060500FA0EF01560002940F0858166
:1004B000D061946100BF00BF00BF00BF00BF00BF9C
:1004C00000BF00BF00BF00BF00BF00BF00BF00BF34
:1004D00000BF00BF00BF00BF00BF00BF00BF00BF24
:1004E00000BF00BF00BF00BF00BF00BF00BF00BF14
:1004F00000BF00BF00BF00BF00BF00BF00BF00BF04
:1005000000BF00BF00BF00BF00BF00BF00BF00BFF3
:1005100000BF00BF00BF00BF00BF00BF00BF00BFE3
:1005200000BF00BF00BF00BF00BF00BF1A78042A91
:1005300008D80121D868520102F1005202F51C22AC
:100540008140916100BF00BF00BF00BF00BF00BF7E
:1005500000BF00BF00BF00BF00BF00BF00BF00BFA3
:1005600000BF00BF00BF00BF00BF00BF00BF00BF93
:1005700000BF00BF00BF00BF00BF00BF00BF00BF83
:1005800000BF00BF00BF00BF00BF00BF00BF00BF73
:1005900000BF00BF00BF00BF00BF00BF00BF00BF63
:1005A00000BF00BF00BF00BF00BF00BF00BF00BF53
:1005B00000BF00BF00BF00BF00BF00BF1978042903
:1005C00000F2F9804A0102F1005202F51C2256693C
:1005D0000120D3E906755C69D3F810C000FA04F273
:1005E0003240224100FA0CF4344044FA0CF4520137
:1005F00042EA041200FA07F434403C4142EA841211
:1006000000FA05F434402C41042942EAC41207D808
:10061000DC68490101F1005101F51C21A040C861CD
:1006200000BF00BF00BF00BF00BF00BF00BF00BFD2
:1006300000BF00BF00BF00BF00BF00BF00BF00BFC2
:1006400000BF00BF00BF00BF00BF00BF00BF00BFB2
:1006500000BF00BF00BF00BF00BF00BF00BF00BFA2
:1006600000BF00BF00BF00BF00BF00BF00BF00BF92
:1006700000BF00BF00BF00BF00BF00BF00BF00BF82
:1006800000BF00BF00BF00BF00BF00BF00BF00BF72
:1006900000BF00BF00BF00BF1978042908D801209F
:1006A000DC68490101F1005101F51C21A04088617D
:1006B00000BF00BF00BF00BF00BF00BF00BF00BF42
:1006C00000BF00BF00BF00BF00BF00BF00BF00BF32
:1006D00000BF00BF00BF00BF00BF00BF00BF00BF22
:1006E00000BF00BF00BF00BF00BF00BF00BF00BF12
:1006F00000BF00BF00BF00BF00BF00BF00BF00BF02
:1007000000BF00BF00BF00BF00BF00BF00BF00BFF1
:1007100000BF00BF00BF00BF00BF00BF00BF00BFE1
:1007200000BF00BF00BF00BF1978042941D84801AD
:1007300000F1005000F51C2044694FF0010ED3E990
:1007400005871E69DD690EFA06FC0CEA04003041DB
:1007500010430EFA08F202EA040646FA08F640EAE6
:1007600046000EFA07F606EA040848FA07F740EAD8
:1007700087000EFA05F73C402C41042940EAC400EA
:1007800015D8DC684B0103F1005303F51C230EFA66
:1007900004F4DC6119684CEA0101196019680A4324
:1007A0001A601A6816431E601A6817431F60BDE876
:1007B000F0810024C1E700260AE7906179E600BFD6
:1007C0000B4B1F281A680B4B8ABF2038D3F8A8316F
:1007D000D3F8AC31C34003F00303013B022B8EBFBF
:1007E0000420054951F82300B2FBF0F0704700BF28
:1007F0000000001000C00F40E0CA01004FF0030CE1
:100800000F294FEA400088BF01304FEA800000F115
:10081000804000F5303088BF1039036849008A40B5
:100820000CFA01F123EA0103036003681A43026032
:10083000704700BF03280BD8DFE800F00806040269
:100840002E20BDE72C20BBE70420B9E70220B7E744
:1008500000207047054B184490F80C31027B1B04B4
:1008600090F80C0243EA022318437047E0CA0100E3
:1008700070B540F2E73405460E460DE000BF00BFFC
:1008800000BF00BF00BF00BF00BF00BF00BF00BF70
:1008900000BF00BF013C10D000212846FFF7D6FD65
:1008A0000306EBD4321100212846FFF7EDFC06F0D9
:1008B0000F020021BDE87040E6E433462046024ABC
:1008C00002490CF01BFAEDE7ECCD01003CBB010046
:1008D0000121CDE70221CBE701F0030141F0040142
:1008E000C6E700BF01F0070141F00801C0E700BF03
:1008F00001F00C0141F01001BAE700BFC9B241F0AC
:100900008001B5E770B540F2E73405460E460DE0CC
:1009100000BF00BF00BF00BF00BF00BF00BF00BFDF
:1009200000BF00BF00BF00BF013C10D0002128461F
:10093000FFF78CFD0306EBD4321101212846FFF7A7
:10094000A3FC06F00F020121BDE870409CE4334691
:100950002046024A02490CF0D1F9EDE7F4CD01003E
:100960003CBB010038B50C46097839B1054628462C
:10097000FFF7C8FF14F8011F0029F8D138BD00BFE8
:1009800003782DE9F041042B054633D8D0E90276EF
:10099000D5E906EC01225B0103F1005303F51C23AA
:1009A0004168D3F8008002FA01F141EA0801D0E978
:1009B0000440196002FA07F702FA06F602FA04F494
:1009C00002FA00F002FA0EF102FA0CF2D3F800C0BB
:1009D00047EA0C071F601F683E431E601E683443D1
:1009E0001C601C682043186018680143196019686E
:1009F0000A431A60002103222846FFF745FC41F212
:100A0000040100BF00BF00BF00BF00BF00BF00BFA8
:100A100000BF00BF00BF00BF00BF00BF00BF00BFDE
:100A200000BF00BF00BF00BF00BF00BF00BF00BFCE
:100A300000BF00BF00BF00BF00BF00BF00BF00BFBE
:100A400000BF00BF00BF00BF00BF00BF00BF00BFAE
:100A500000BF00BF00BF00BF00BF00BF00BF00BF9E
:100A600000BF00BF00BF00BF00BF00BF00BF00BF8E
:100A700000BF00BF00BF00BF00BF00BF00BF00BF7E
:100A800000BF00BF00BF00BF00BF00BF00BF00BF6E
:100A900000BF00BF00BF00BF00BF00BF00BF00BF5E
:100AA00000BF00BF00BF00BF00BF00BF00BF00BF4E
:100AB00000BF00BF00BF00BF00BF00BF00BF00BF3E
:100AC00000BF00BF00BF00BF00BF00BF00BF00BF2E
:100AD00000BF00BF00BF00BF00BF00BF00BF00BF1E
:100AE00000BF00BF00BF00BF00BF00BF00BF00BF0E
:100AF00000BF013985D103222846FFF7C5FB6424D6
:100B000000BF00BF00BF00BF00BF00BF00BF00BFED
:100B100000BF00BF00BF00BF00BF00BF00BF00BFDD
:100B200000BF00BF00BF00BF00BF00BF00BF00BFCD
:100B300000BF00BF00BF00BF00BF00BF00BF00BFBD
:100B400000BF00BF00BF00BF00BF00BF00BF00BFAD
:100B500000BF00BF00BF00BF00BF00BF00BF00BF9D
:100B600000BF00BF00BF00BF00BF00BF00BF00BF8D
:100B700000BF00BF00BF00BF00BF00BF00BF00BF7D
:100B800000BF00BF00BF00BF00BF00BF00BF00BF6D
:100B900000BF00BF00BF00BF00BF00BF00BF00BF5D
:100BA00000BF00BF00BF00BF00BF00BF00BF00BF4D
:100BB00000BF00BF00BF00BF00BF00BF00BF00BF3D
:100BC00000BF00BF00BF00BF00BF00BF00BF00BF2D
:100BD00000BF00BF00BF00BF00BF00BF00BF00BF1D
:100BE00000BF00BF00BF00BF00BF00BF00BF00BF0D
:100BF000013C85D1214628460322FFF745FB0CF036
:100C000001F8022221462846FFF73EFB0BF0FAFFCF
:100C10002B6A284603F00101C9009B0748BF41F039
:100C2000040141F02001FFF723FE28460821FFF7C9
:100C30001FFE28460121FFF71BFE2846BDE8F041B4
:100C4000062115E62023394A30B4C2F8A031D2F883
:100C5000A031980660D402255424344B0120C3F8F7
:100C60000451AA21C3F8A84155224FF480550E24FF
:100C7000C3F8AC51C3F80C01C3F88440C3F88C101E
:100C8000C3F88C20C3F88000C3F88C10C3F88C2004
:100C9000D3F888205201FBD50324AA205521234AEA
:100CA000C3F88040C3F88C00C3F88C10D2F88830A9
:100CB00013F0407FFAD0AA205523002501241B49B8
:100CC000C2F8A450C2F8AC00C2F8AC30C2F8A040E0
:100CD000C2F8AC00C2F8AC30D1F8A8305B05FBD547
:100CE0000324AA205523114AC1F8A040C1F8AC0042
:100CF000C1F8AC30D2F8A83013F4407FFAD000230A
:100D000045F23A000A4C0B49C2F8C440C2F8C83157
:100D100030BC10608B607047D2F8A03159069AD46D
:100D2000D2F8A0315906F7D595E700BF00C00F40B3
:100D3000DE87280400ED00E00EB42DE9F0474FF007
:100D40000008064687B00FAB53F8045BB94F029317
:100D50002C78252C10D0002C00F052810A2C03D1C5
:100D60000D2057F826309847204657F82630013591
:100D700098472C78252CEED16C7804F0EF03202BCB
:100D800000F0308100229146AB1C04F0DF014C29B9
:100D900000F0B280A4F143011D4635293BD8DFE8BD
:100DA00011F0360043003A003A003A003A0043009E
:100DB0003A003A003A003A003A003A003A003A0063
:100DC0003A0090003A008A003A003A0045013A00A1
:100DD0003A003A003A003A003A003A003A003A0043
:100DE0003A00360043003A003A003A003A00430025
:100DF0003A003A003A003A003A003A003A003A0023
:100E00003A0090003A008A003A003A004501029BFD
:100E10001A1D1C7802920A2C00F0F780BA46204670
:100E20005AF82630984793E7029B1C68191D002C3E
:100E30000291C0F2F18020460A218DF817800DF151
:100E4000170400E07046B0FBF1FE01FB1E0C5FFAD8
:100E50008CFC0CF13003DBB2392B84BF0CF1370C66
:100E60005FFA8CF302F1FF3A04F8013D0AB15FFA30
:100E70008AF28842E6D2002A00F0DA80534263F018
:100E8000FF031C44494620460FF036F9B9F1000F24
:100E90003FF45EAFB9F10A0F03D10D2057F82630A9
:100EA0009847484657F82630984714F8019FB9F1FB
:100EB000000FEFD14CE70A21029B181D0290186821
:100EC000BBE7029BD3F80090043399F800400293EB
:100ED000002C3FF43DAFDFF85CA10A2C03D10D20BC
:100EE0005AF82630984720465AF82630984719F87D
:100EF000014F002CF1D12BE71D4615F8014BA4F151
:100F00004303352B87D801A151F823F00F0E0000C1
:100F1000290E0000170E0000170E0000170E00002B
:100F2000170E0000290E0000170E0000170E00001B
:100F3000170E0000170E0000170E0000170E00001D
:100F4000170E0000170E0000170E0000C30E000061
:100F5000170E0000B70E0000170E0000170E00005D
:100F60002D100000170E0000170E0000170E0000D5
:100F7000170E0000170E0000170E0000170E0000DD
:100F8000170E0000170E0000170E00000F0E0000D5
:100F9000290E0000170E0000170E0000170E0000AB
:100FA000170E0000290E0000170E0000170E00009B
:100FB000170E0000170E0000170E0000170E00009D
:100FC000170E0000170E0000170E0000C30E0000E1
:100FD000170E0000B70E0000170E0000170E0000DD
:100FE0002D100000AB78A146A3F13002D2B2092A3D
:100FF00003D91C460022EB1CC7E6EC782B1DC4E687
:1010000007B0BDE8F04703B07047DFF828A00D2017
:101010005AF82630984702E7DFF818A02D205AF832
:101020002630019264429847019A04E7102143E771
:1010300099462FE7C80700100020704718467047F0
:1010400000207047002070474FF400530020536089
:10105000704700BF01207047FEE700BF4FF0FF3030
:10106000704700BF4FF0FF30704700BF044B054A88
:101070001869002808BF104601441961704700BF75
:10108000C80700104863001010B5FF238E463221B8
:10109000314C324A61619360D368D906FCD4FF2198
:1010A00093682E4A9160D368DB06FCD49368DBB268
:1010B000FF2B04D06369002BF4D1184610BD2749DB
:1010C000C2F808E0CB68DB06FCD4BEF1FD0F8B68EC
:1010D00001D1012010BD0B68204A43F00F030B60C3
:1010E00000F50071D3689C07FCD530F8023B5BBA71
:1010F0009BB288429360F5D1184AD368DB06FCD4D2
:10110000D3685C0704D5154B9A68DA685007FBD49E
:10111000FF21124A136823F00F0343F00703136003
:101120009160D368D906FCD4FF230C499068936082
:10113000CB68DA06FCD4FF23084A88688B60D36842
:10114000DB06FCD4936803F01F03A3F10500B0FA9B
:1011500080F0400910BD00BFC80700100000034028
:10116000F8B5030604460D4671D44FF0400C322703
:10117000FF26404B40491A7C02F0BF021A74C3F8A4
:1011800018C0187C3D4A40EA0C001874187C00F026
:10119000BF001874C3F81CC0187C40EA0C00187417
:1011A0004F619660D368DF06FCD4FF209368334A12
:1011B0009060D368DE06FCD49368DBB2FF2B04D0CA
:1011C0004B69002BF4D1FF20F8BD2C499460CB680B
:1011D000D806FCD42B0E294A88688B60D368D906C0
:1011E000FCD4C5F30743254990689360CB68DB06C0
:1011F000FCD4C5F30723214A88688B60D368DF06D7
:10120000FCD4EDB21D4993689560CB68DE06FCD432
:10121000402C8B6824D0482C14BF01238723174A05
:101220009360D368DD06FCD44C2C93681AD00A2155
:10123000FF24124A9460D368D806FCD49368D8B2CD
:101240001B06C1D54B1E13F0FF01F3D1F8BD0021E1
:101250007720FFF785FF0128B6D804F07F0484E7E4
:101260009523DCE7FF2305499360CB68DC06FCD4BB
:101270008B68DCE700C00920C807001000000340AD
:1012800043780BB1032070472A4B5B68DB07F9D426
:1012900070B5294D04462B7E51201E0758BF4902C8
:1012A000FFF75EFF58B301204026FF25234B244A59
:1012B000197C01F0BF0119749E61197C31431974C6
:1012C0009560D368DB06FCD49368A0B94AF6552331
:1012D000B4F82E229A4210D1D4F86630194A23F07D
:1012E0007F43934206D0D4F8820020F07F40801ADA
:1012F00018BF012070BD032070BD022070BD0A23FD
:10130000FF210F4AEB619160D368D806FCD4936843
:10131000DBB2FF2B03D1EB69002BF4D1C3E7FE2B2B
:10132000C1D104F130000BF00FFCB0FA80F040099D
:10133000BAE700BF00000010C807001000C0092075
:1013400000000340464154002DE9F04FC66A83B0C7
:101350008E4204D0037904460D4623B955B90020C6
:1013600003B0BDE8F08F4378002B2CD0012003B0F0
:10137000BDE8F08F6378002BF8D1614B5B68DB0729
:10138000F4D4604E5120337E1F074CBF29466902BA
:10139000FFF7E6FE00285BD001204021FF265A4BD4
:1013A0001A7C02F0BF021A749961197C574A41F005
:1013B000400119749660D368DB06FCD4936800285A
:1013C000D4D1E562CBE7DFF838B1DBF80430DA07D7
:1013D000CCD4DBF804305B07C8D44A4B582093F8D0
:1013E000188018F0080814BF31467102FFF7B8FEE4
:1013F00004F13003019300283AD001214FF0400C52
:10140000FF27414B414A187C00F0BF001874C3F815
:1014100018C0187C40EA0C0018749760D368DF0687
:10142000FCD493680029A1D1D4E907321A44B2420E
:10143000217193D994F80390B9F1010F8ED9DFF897
:10144000C8A0324F1E446378D3B1002D87D08DE7FA
:101450000A23FF212D4AF3619160D368D806FCD49A
:101460009368DBB2FF2B40D1F369002BF4D193E7F3
:10147000FE211846FFF708FEB0FA80F14909BDE7E2
:10148000DBF80430D8071FD4DBF8043059071BD42D
:10149000B8F1000F22D171025820FFF761FEF8B1B8
:1014A0004020FF219AF8103003F0BF038AF8103073
:1014B000CAF818009AF8103003438AF81030B9605F
:1014C000FB68DA06FCD4BB6809F1FF325FFA82F9E7
:1014D000B9F1010F3FF442AFE369B3E73146DBE70F
:1014E000FE210198FFF7D0FDDAE7FE2B7FF454AF21
:1014F00004F130000BF028FBB0FA80F040094CE713
:1015000000000010C807001000C0092000000340C0
:101510002DE9F84307780446022F0D46164608D0F9
:10152000032F3FD0012F16D0022001232371BDE8E5
:10153000F883016A01EB1521FFF706FF0028F4D1BB
:101540006D0005F4FF752544C6F3072385F8306068
:1015500085F8313042E0016A05EB550801EB58216E
:10156000FFF7F2FE0028E0D1216A08F10109EB073C
:10157000C8F3080801EB5921A04434D598F830305D
:10158000204603F00F0343EA061388F83030277132
:10159000FFF7DAFE0028C8D1C9F30809C6F307131C
:1015A000A14432E0016A01EBD511FFF7CDFE00281E
:1015B000BBD1AD0005F4FE7505F130022244D378AD
:1015C00025441B0603F070433343C3F3072185F81A
:1015D00030305170190C1B0E9170D37001232371A0
:1015E0000020BDE8F88388F8306020462771FFF7B7
:1015F000ABFE002899D1C9F30809A14499F830300D
:10160000C6F3032623F00F03334389F83030E5E7B0
:10161000F8B503780646022B0C4606D0032B3AD0C9
:10162000012B14D04FF0FF30F8BD016A01EB1421FB
:10163000FFF78AFE0028F5D1640004F4FF743444F7
:1016400094F8313094F8300040EA0320F8BD016A84
:1016500004EB540701EB5721FFF776FE0028E1D198
:10166000316AC7F3080301373344304601EB572191
:1016700093F83050FFF768FE0028D3D1C7F308076E
:10168000374497F8303045EA0320E3074CBF0009A0
:10169000C0F30B00F8BD016A01EBD411FFF754FE53
:1016A0000028BFD1A40004F4FE7404F130013144D9
:1016B0008B78CD78321992F83020180440EA056012
:1016C0004B78104340EA032020F07040F8BD00BF83
:1016D00001297BD983692DE9F0478B420D460446E9
:1016E00036D94FF001082378022B34D0032B04D0D5
:1016F000012B44D00120BDE8F087216A204601EB90
:10170000D511FFF721FE0028F4D1AB0003F4FE73DE
:1017100003F1300222449678D178234493F8303094
:10172000360446EA01661E43537846EA032636F03D
:10173000704649D0012E0BD0A369AB4208D9277857
:10174000022F7ED0032F4FD0012F41D001232371D0
:101750000220BDE8F087216A204601EB1521FFF742
:10176000F3FD0028C6D16B0003F4FF73234493F804
:10177000312093F8306056EA0226DBD124E0216A5A
:1017800005EB5506204601EB5621FFF7DDFD00284D
:10179000B0D1216AC6F3080301362344204601EB89
:1017A000562193F83070FFF7CFFD0028A2D1C6F381
:1017B0000806264496F8303047EA0326EF076DD432
:1017C000C6F30B06002EB5D10020C2E702207047F9
:1017D000216A05EB5509204601EB5921FFF7B4FDBD
:1017E00000283FD02771B4E7216A204601EBD511CC
:1017F000FFF7AAFD08BBAD0005F4FE7505F1300347
:101800002344DA78254402F0F00285F83000A3F88A
:101810000100DA70236984F804805A1C08D0A26998
:101820000133B242236184F80580CDD935465AE7A9
:10183000A369B342C8D9354655E701232371BDE8F2
:10184000F087216A204601EB1521FFF77DFD002876
:10185000F3D16D0005F4FF75254485F8300085F857
:101860003100D7E7216A09F1010AED07C9F3080938
:1018700001EB5A21A14415D489F830002046277184
:10188000FFF762FD0028D8D1CAF3080AA2449AF8EB
:10189000300000F0F0008AF83000BBE736097FF432
:1018A00049AF91E799F83030204603F00F0389F8EB
:1018B00030302771FFF748FD0028BED1CAF3080A6F
:1018C000A244E8E72DE9F84305460E46F1B9C7689A
:1018D0008369002F00F0AE809F4228BF01273C465D
:1018E00001349C4221D3012F00F0A280022B1ED98B
:1018F00002242B78022B00F08680032B60D0012B72
:1019000019D04FF0FF342046BDE8F88301290ED0EE
:10191000836999420BD2FFF77BFE0128044606D962
:10192000AB69834204D83746D9E7012CE1D10124C1
:101930002046BDE8F883296A04EB5409284601EBE8
:101940005921FFF701FD0028DBD1296AC9F30803FB
:1019500009F101092B44284601EB592193F8308005
:10196000FFF7F2FC0028CCD1C9F30809A94499F883
:101970003030E10748EA03235ED51B093DD1AB694E
:10198000A342BED96FF0704221462846FFF7C0FD42
:101990000028B6D15EB1012EB3D0AB699E42B0D261
:1019A000224631462846FFF7B3FD0028A9D12B690E
:1019B000EC605A1CBCD00122013B2B616A71B7E775
:1019C000296A284601EBD411FFF7BEFC002898D104
:1019D000A30003F4FE7303F130022A442B4493F86E
:1019E00030109378D0781B04527843EA00630B439D
:1019F00043EA022333F07043C1D0012B97D0A742B2
:101A000016D0AB696CE7296A284601EB1421FFF771
:101A10009BFC00287FF475AF630003F4FF732B4435
:101A200093F8312093F8303053EA0223E5D1A6E74A
:101A300000247DE7012752E7C3F30B03002BDCD121
:101A40009DE700BF2DE9F04784680546012CC18061
:101A500028D0D0F80080D8F81830A34222D90E46FA
:101A60001CB398F80220B1EB021F4FEA02175FD3B4
:101A7000A34217D998F80030022B00F08F80032B77
:101A80006ED0012B20D00120BDE8F087D8F824408B
:101A90007CB198F80220B1EB021F4FEA021747D33E
:101AA000012CE5D10220BDE8F08798F80020032A38
:101AB000ECD00022B8F80830EA60B342F2D9D8F886
:101AC000243003EB161341E0D8F8201004EB54093E
:101AD000404601EB5921FFF737FC0028D3D1D8F855
:101AE0002010C9F3080309F101094344404601EB02
:101AF000592193F830A0FFF727FC0028C3D1C9F380
:101B00000809C14499F830304AEA032AE3074CBF78
:101B10004FEA1A14CAF30B04012CC3D9D5F800807C
:101B2000D8F81830A342BDD9F11B8EB2BE429FD265
:101B3000023BEC60023C9C422FBF0023D8F82830C7
:101B400098F8022004FB023303EB161308F1300867
:101B500006F00F0108EB41110020C5E90431A2E7AE
:101B6000D8F82010404601EBD411FFF7EDFB002818
:101B700089D1A40004F4FE7404F1300343444444C6
:101B800094F830209C78D97824045B7844EA016486
:101B9000144344EA032424F07044BDE7D8F820102D
:101BA000404601EB1421FFF7CFFB00287FF46BAF19
:101BB000640004F4FF74444494F8313094F83040E5
:101BC00044EA0324A8E700BF2DE9F84FC488013494
:101BD000A4B2002C3BD003690546002B37D014F08B
:101BE0000F07006807D0303000EB47170020EC806B
:101BF0006F61BDE8F88F0E46E96801332B6119B3B8
:101C00008378013B13EA1418EDD1012922D08369AE
:101C100099421FD2FFF7FCFC012881461AD9B0F186
:101C2000FF3F56D0286883694B4515D9A9F10206B4
:101C3000023BB342C5F80C9003D98278836A06FB55
:101C40000238C5F81080CEE70389A342CBD8042020
:101C5000BDE8F88F0220CCE7002EF8D0E968FFF746
:101C600031FE8146002836D00128F3D0B0F1FF3F85
:101C70002FD000212868FFF767FB834648BB286800
:101C80004FF40072594630300EF036FA2868A9F148
:101C9000020683698278023B9E422EBF5B46836ABE
:101CA00006FB0233C362C2B14FF0010A06E02868A6
:101CB000C36A827801335A45C3620FD9002180F884
:101CC00004A0FFF741FB0BF1010B5FFA8BFB00282F
:101CD000EDD001208DE707208BE79346A3EB0B03A4
:101CE000C3628369A4E700BF2DE9F84FC56A0446C3
:101CF00015B10379002B42D12378032B00F0B38078
:101D00006278002A3DD18A4F7B68DC0739D44020B5
:101D10003225FF24874B88491A7C02F0BF021A74CF
:101D2000D861187C854A40F0400018744D61946079
:101D3000D368D806FCD4FF249368804B9C60D86895
:101D400010F01000FBD19A68D2B2FF2A03D04A6982
:101D5000002AF3D101204021FF24764B1A7C02F0A7
:101D6000BF021A749961197C744A41F040011974D8
:101D70009460D368DB06FCD49368BDE8F88F4378A1
:101D800013B10120BDE8F88F694F7B68DA07F8D4FA
:101D90007B685B07F5D4684B582093F8188004F1F2
:101DA000300918F0080814BF29466902FFF7D8F96E
:101DB000002800F0A48001214FF0400CFF265D4B6D
:101DC0005E4A187C00F0BF001874C3F818C0187C75
:101DD00040EA0C0018749660D368DE06FCD4936861
:101DE0000029CED1D4E907321A449542217183D219
:101DF00094F803B0BBF1010F7FF67EAFDFF834A19A
:101E00004E4E1D446378002B7FF476AF7B68D80775
:101E10001FD47B6859071CD4B8F1000F77D1690231
:101E20005820FFF79DF9002873D04021FF229AF82F
:101E3000103003F0BF038AF81030CAF818109AF86F
:101E400010300B438AF81030B260F368DA06FCD425
:101E5000B3680BF1FF3B5FFA8BFBBBF1010F3FF463
:101E60004BAFE369CDE76379002B3FF449AF002521
:101E700004F130064FF4007229463046E5620EF058
:101E80003BF94AF655222E4B2169236303F1FF5398
:101E900003F500532033C4F81432E368C4F8181271
:101EA000C4F81C326378A4F82E220BB1657168E780
:101EB0001F4F7A6812F0010230D17B685B0734D47F
:101EC0001D4B61691B7E58201D0758BF4902FFF753
:101ED00047F928B34025FF20164B18491A7C02F019
:101EE000BF021A749D611A7C2A431A748860CB68F9
:101EF00013F01003FBD189686278637101E7FE215A
:101F00004846FFF7C1F8B0FA80F1490954E729467D
:101F100086E7FE214846FFF7B7F886E76371F3E6E8
:101F2000FE213046FFF7B0F8D4E76271ECE600BF5F
:101F30000000001000C00920C80700100000034086
:101F4000525261412DE9F04F0669044685B0002EDA
:101F500000F04E81FF2399460568DFF8B0B2019387
:101F6000EF6AB74234D02B79697805F13002002B43
:101F700061D1002940F0B180DBF80430D80700F1CE
:101F8000AC80A34F51203B7E029219074CBF3146D3
:101F90007102FFF7E5F8029A002800F0A7810120FE
:101FA0004FF0400CFF279B4B9B4A197C01F0BF016F
:101FB0001974C3F818C0197C41EA0C0119749760B0
:101FC000D368DF06FCD49368002840F08680EE6278
:101FD00062691378002B00F00B81E52BD17A07D0D2
:101FE0002E2B05D00D0701F03F007CD50F287DD0AA
:101FF000E7884FF0FF090137BFB2002F00F0F880EB
:102000002669002E00F0F48017F00F02256840F0DA
:10201000F180E16801362661002940F0FF802B89BC
:10202000BB4240F2E58005F13003E7806361002E9A
:1020300096D1002054E000294FD1DBF80430D807B6
:102040004BD4DBF80430590747D4714B58201B7E22
:10205000039213F0080314BF394679020293FFF785
:102060007FF8039A002800F0FC8001204FF0400820
:102070004FF0FF0E674B684993F810C00CF0BF0C8F
:1020800083F810C0C3F8188093F810C04CEA080C0D
:1020900083F810C0C1F808E0CB68DB06FCD48B687D
:1020A000D8B92871D5E9070303449F426978BFF482
:1020B00060AF95F803A0BAF1010F7FF65AAF039411
:1020C0001446DFF854810744002900F0D580BAF1A6
:1020D000020F2246039C7FF44CAF012000232361B2
:1020E00005B0BDE8F08F0F2840F08981590640F116
:1020F0008880507BE188019003F0BF092184537BE5
:1021000001998B427FF474AF1378E56903F03F03C4
:10211000013B03EB430103EB8103272BB2F80100E2
:102120003FF766AF25F81300B2F80370591C00287A
:1021300040F0ED804FF6FF739F427FF459AFB2F845
:1021400005604FF6FF739E427FF452AFB2F80770FE
:102150004FF6FF739F427FF44BAFB2F809604FF622
:10216000FF739E427FF444AFD7894FF6FF739F42BF
:102170007FF43EAF168A4FF6FF739E427FF438AF6E
:10218000578A4FF6FF739F427FF432AF968A4FF61D
:10219000FF739E427FF42CAFD78A4FF6FF739F42A6
:1021A0007FF426AFB2F818C04FF6FF739C457FF45A
:1021B0001FAF968B4FF6FF739E427FF419AFD78BFC
:1021C0004FF6FF739F427FF413AF13785A0605D57D
:1021D00028293FF40DAF002325F81130E78809F1D5
:1021E000FF390137BFB25FFA89F9002F7FF408AFDA
:1021F000042073E705F1300303EB4213E7806361CA
:10220000AEE64B457FF4F4AE79E700BF0000001066
:10221000C807001000C0092000000340AB78013B54
:1022200013EA17137FF4FFAE012923D0AB6999425B
:1022300020D22846FFF7ECF901281BD9431C3FF4B4
:102240004CAF2568AB699842D2D2023BE0600238BD
:10225000984280F03181AB78AE6A00FB036626615C
:10226000E1E61046FE21FEF70FFFB0FA80F0039A78
:102270004009FBE6022031E7DBF80400C0071ED46A
:10228000DBF8040042071AD4029A12BB58207902E4
:10229000FEF766FF8B4B18B34022197C01F0BF019B
:1022A00019749A61197C1143FF221974C8F8082027
:1022B000D8F80C20D306FBD4D8F8081069780AF1B6
:1022C000FF3A5FFA8AFABAF1010F00F09F80E869DD
:1022D000F9E639465820FEF743FF7A4B0028DBD158
:1022E000FE212046FEF7D0FE764BD5E70A23FF20DD
:1022F0007549FB618860CB68DB06FCD48B68DBB278
:10230000FF2B40F08680FB69002BF3D147E628299C
:102310003FF46EAE25F811704800B2F80560991CC4
:10232000002F3FF40EAF28293FF462AE28444680C8
:10233000B2F80770D91C002E3FF40AAF28293FF4E9
:1023400057AE8780B2F80960191D002F3FF407AF20
:1023500028293FF44DAEC680D789591D002E3FF481
:1023600004AF28293FF444AE0781168A991D002F37
:102370003FF401AF28293FF43BAE4681578AD91D6F
:10238000002E3FF4FEAE28293FF432AE8781968AB4
:1023900003F10801002F3FF4FAAE28293FF428AEDC
:1023A000C681D78A03F10901002E3FF4F6AE282931
:1023B0003FF41EAE0782B2F818C003F10A01002FE5
:1023C0003FF4F2AE28293FF413AEA0F812C0968B6A
:1023D00003F10B01BCF1000F3FF4ECAE28293FF4F0
:1023E00007AE8682D78B03F10C01002E3FF4E8AED6
:1023F00028293FF4FDADC78203F10D01E5E6B9F1EF
:10240000000F10D04FF6FF73238412E62246039C80
:10241000AFE5FE2B7FF4C3AD10460AF095FBB0FA92
:1024200080F04009BCE5D90141EA530153780B44DF
:10243000C3F3460141EAC3119378C9B21944C1F309
:10244000460343EAC113D178DBB20B44C3F3460120
:1024500041EAC3111379C9B21944C1F3460343EAEF
:10246000C1135179DBB20B44C3F3460141EAC311F6
:102470009379C9B21944C1F3460343EAC113D17930
:10248000DBB20B44C3F3460141EAC311137AC9B26C
:102490001944C1F3460343EAC113517ADBB20B443A
:1024A000917AC3F3460242EAC3130B44019A03F044
:1024B000FF039342A6D1BCE500233035C4E90435BF
:1024C000E780B6E500C00920000003402DE9F04F89
:1024D000FF250446A94685B0DFF864A206680769AF
:1024E0000095F56ABD4205D03379002B30D1002F1D
:1024F00040F02E8162691178002900F09180E52971
:10250000D37A08D003F03F0013F0080300F08C806A
:102510000F2800F0FF804FF0FF09E38801339DB2E0
:10252000002D7DD02769002F7AD015F00F0826687E
:1025300007D1E16801372761002958D13389AB42BF
:102540006ED906F1300303EB4813E5806361C8E7F9
:102550007378002B47D1DAF80430D80743D4DAF87F
:10256000043059073FD4774B582093F818B01BF02C
:10257000080314BF294669020193FEF7F1FD06F135
:1025800030030393002800F0DF8101214FF0400E5B
:102590004FF0FF0C6C4A6D4B107C00F0BF001074C4
:1025A000C2F818E0107C40EA0E001074C3F808C0AE
:1025B000DA68D206FCD49B68A9B93171D6E9071351
:1025C0000B449D4293D2F278012A90D9029414468A
:1025D000DFF874B1DFF874810D44717800296AD096
:1025E000029C002F86D0012005B0BDE8F08FB378A3
:1025F000013B13EA1513A4D1012900F09E80B369B1
:10260000994280F09A803046FFF702F8012840F2A4
:102610009480431CE7D02668B3699842C0F09E813D
:10262000042005B0BDE8F08F0F2873D0B9F1000F7A
:1026300000F02D814FF6FF70A1692084C87AC00791
:102640003FF569AF1578087885427FF464AF557817
:10265000487885427FF45FAF9578887885427FF42B
:102660005AAFD578C87885427FF455AF0D79107987
:1026700085427FF450AF4D79507985427FF44BAF5E
:102680008D79907985427FF446AFCD79D0798542B6
:102690007FF441AF157A087A85427FF43CAF557AD2
:1026A000487A85427FF437AF907A8A7A90427FF4F5
:1026B00032AF184698E7DAF80410C80723D4DAF8DE
:1026C000041049071FD4019B002B6ED158206902CA
:1026D000FEF746FD00286ED04023FF209BF8101027
:1026E00001F0BF018BF81010CBF818309BF81010D8
:1026F00019438BF81010C8F80800D8F80C30DA0627
:10270000FBD4D8F80810621ED4B2012C00F024814A
:10271000F16961E7E769E388002F3FF4FFAE4E06F9
:102720004ED501F0BF09517B238400910098517B65
:1027300081424BD04FF0FF09F0E6022054E700BF82
:1027400000000010C807001000C00920000003406E
:102750007378002B7FF447AFDAF80430DB073FF5DE
:1027600042AF8A4B51201B7E1D074CBF3946790270
:10277000FEF7F6FC002800F0D58001214022FF2062
:10278000834D2B7C03F0BF032B74AA612B7C814A01
:1027900043F040032B749060D368DB06FCD493684D
:1027A00000297FF420AFF762A4E629465820FEF7FF
:1027B000D7FC002890D1FE210398FEF765FC8BE73B
:1027C0004945B7D1517B00988142B3D11178DFF8E8
:1027D000C8C101F0BF0E0EF1FF3E0EEB4E00CDF86A
:1027E00004904FF0010B91460EEB800E0CF10D089A
:1027F00005E04FF6FF7295429CD1C44536D01CF8D7
:10280000012B09EB0200407819F8025045EA002537
:10281000BBF1000FEDD0614A61209346002603E032
:102820003BF8020F013630B18542F9D15C4800EB2C
:102830004606B6F81055BEF1270F3FF77BAF37F8C5
:102840001EB0612000260EF1010E03E032F8020FE7
:10285000013630B15845F9D1514A02EB4606B6F877
:1028600010B55D457FF466AFC445C8D14D06DDF8AF
:10287000049007D5BBF1000F04D037F81E20002AC2
:102880007FF458AF09F1FF395FFA89F946E65578C8
:10289000C80140EA51012944C1F3460040EAC11091
:1028A0009178C0B20844C0F3460141EAC011D07823
:1028B000C9B20144C1F3460040EAC1101179C0B267
:1028C0000844C0F3460141EAC0115079C9B201443D
:1028D000C1F3460040EAC1109179C0B20844C0F388
:1028E000460141EAC011D079C9B20144C1F34600A2
:1028F00040EAC110117AC0B20844C0F3460141EA6F
:10290000C011507AC9B20144C1F34600957A40EA39
:10291000C1112944009801F0FF0181427FF48AAE81
:10292000184661E60A23FF21184AD361194A9160CB
:10293000D368D806FCD49368DBB2FF2B1AD1134BB3
:10294000DB69002BF3D118E7FE211846FEF79CFB4C
:10295000B0FA80F1490919E6029CC8E5023BE06043
:10296000023898422FBF0027B378B76A00FB03777D
:102970002761E6E5FE2B7FF400AF06F130000AF098
:10298000E3F8B0FA80F14909F8E600BFC807001083
:1029900000C009200000034000CE010010CE01005D
:1029A000E0CA01002DE9F04FD0E9064A8FB0A268D5
:1029B0008146616820680BAB07C39DF83730DA07A2
:1029C000079340F1D8800023834688460125020EF4
:1029D0000192C0F307420692C0F307220592C2B2E9
:1029E0000492C1F307220392BDF83470CAB29DF875
:1029F0003660E3720292C9F81C30052DC4F800B0AD
:102A0000C4F804802781A67240F23A8150462B46D2
:102A1000BAF800204FEAC33C4CEA530C944430F817
:102A2000022F1FFA8CF3002AF4D103F00F0101F1F9
:102A30003002392A88BF01F137020F2B8DF82B2085
:102A4000C3F30F1E40F221810EF00F0000F13001A0
:102A5000392988BF00F13701BEF10F0F8DF82A1018
:102A6000C3F30F2040F2328100F00F0E0EF130015F
:102A7000392988BF0EF137010F288DF82910C3F3CB
:102A80000F3C40F236815FFA8CFC0CF13001C9B288
:102A90003929049B84BF0CF1370C5FFA8CF1202B91
:102AA0008DF8281000F0AB82059B202B00F0A4824B
:102AB000069B0320202B08BF022100D003214FF0EA
:102AC0007E0C00F1380304F801C00DEB030C1CF878
:102AD00013EC062904EB010C8CF801E000F1020C68
:102AE00001F1020E0FD0BCF1080F1FD120220529E1
:102AF00004F80E2001F1030005D0C0F108022021E6
:102B000020440DF0F9FA00214846FEF79BFF58BB20
:102B10004846FFF7DBFC38BB6B1C9DB2642D7FF48D
:102B20006CAF072108460FB0BDE8F08F0CF13803F9
:102B30000DEB030C1CF814CC052904F80EC000F1B1
:102B4000030C01F1030EDED0BCF1080F71D120227D
:102B5000042904F80E2001F10400CED100214846DA
:102B6000FEF770FF0028D3D004280146DAD1079B76
:102B7000E372C9F81CA0079B9B0700F1CD800124DC
:102B800000214846FEF75EFF01460028CAD10646EE
:102B9000054608E0B3B1054601214846FFF714F8A1
:102BA000002840F0CD80D9F81010D9F80000FEF7C9
:102BB000CBFB6A1C002840F0C380D9F814301B7886
:102BC000E52BE7D10DB9B9F8066095B2AC42E3D177
:102BD000012C40F0C480D9F81010D9F80000FEF79D
:102BE000B3FB014600289DD1D9F814302022019072
:102BF00018460DF081FA0346D9F818200199501CA7
:102C0000181A022840F2D88110681860506858607D
:102C1000107A1872507A58720120927A9A72D9F802
:102C20001820D27A02F018021A73D9F800301871FD
:102C300078E70CF138030DEB030C1CF814CC0429D5
:102C400004F80EC001F1040C3FF45DAF032808D076
:102C50002022032904F80C2001F105007FF44DAF78
:102C600051E7032904F80C2001F105023FF44BAFB2
:102C700020200229A05401F106007FF43EAF42E774
:102C800005F13002D2B28DF82B207E21049B8DF805
:102C90002A10202B00F08D81059B202B00F0A081B5
:102CA000069B202B18BF062100F09781019B202B4B
:102CB0004BD004294BD0029B202B4AD006294BD164
:102CC000039B0846202B08BF0521F8E67E21049BC4
:102CD0008DF82910202B00F08C81059B202B00F013
:102CE0008281069B202B18BF0521DFD10520022100
:102CF000E5E67E21049B8DF82810202B00F07681DC
:102D0000059B202B00F07E81069B202B18BF042101
:102D1000CCD104200221D2E6BAF80030002B3FF4D7
:102D20002EAF002301339BB23AF81320002AF9D1C9
:102D3000B64A03F11904A2FB0424C4F38F041FE76D
:102D4000014608460FB0BDE8F08F0846B6E60846D3
:102D5000B5E608460421B2E605210846AFE631464D
:102D60004846FEF76FFE014600287FF4DBAED9F837
:102D70001830013C19781FFA84F8CA0142EA51025E
:102D800059780F260A44C2F3460141EAC2119A78E3
:102D9000C9B21144C1F3460242EAC112D978D2B293
:102DA0000A44C2F3460141EAC2111A79C9B2114478
:102DB000C1F3460242EAC1125979D2B20A44C2F3BF
:102DC000460141EAC2119A79C9B21144C1F34602DF
:102DD00042EAC112D979D2B20A44C2F3460141EAA9
:102DE000C2111A7AC9B21144C1F3460242EAC112B1
:102DF000597AD2B20A449B7AC2F3460545EAC21513
:102E00001D4405F0FF052B464FF6FD7745464FF66E
:102E1000FF749846D9F81010D9F80000FEF794FA1C
:102E2000014600287FF47EAE5FFA85FED9F81430A3
:102E30000EF1FF32D9F81CC002EB4201588302EBBD
:102E4000810283F80D80A3F80B603CF81210481E35
:102E500080B25970B8424FEA112199704FEA42018D
:102E600024D9A3F80340A3F80540A3F80740A3F82A
:102E70000940DC811C825C829C82DC821C839C83F6
:102E8000DC834EF0400E012283F800E0D9F80030D8
:102E9000002148461A71FEF797FE014600287FF48C
:102EA00041AE013DADB2002DB4D194E601323CF803
:102EB0001200520000F1FF3AD870000A18711FFA90
:102EC0008AF0B842CFD86244508800F1FF3A587176
:102ED000000A98711FFA8AF0B842C6D8908800F1AB
:102EE000FF3AD871000A18721FFA8AF0B842BED8A9
:102EF000D08800F1FF3A5872000A98721FFA8AF0DF
:102F0000B842B6D8108900F1FF3A9873000AD87316
:102F10001FFA8AF0B842ADD8508900F1FF3A187410
:102F2000000A58741FFA8AF0B842A4D8908900F1B8
:102F3000FF3A9874000AD8741FFA8AF0B8429BD8F6
:102F4000D08900F1FF3A1875000A58751FFA8AF007
:102F5000B84292D8108A00F1FF3A9875000AD875E5
:102F60001FFA8AF0B84289D8508A00F1FF3A1876E1
:102F7000000A58761FFA8AF0B84280D8908A00F189
:102F8000FF3A1877000A58771FFA8AF0B8423FF6DE
:102F900077AFD28A501E9A77120ADA7782B2BA4293
:102FA0003FF66FAF8C44BCF81A20002A7FF46BAF59
:102FB00067E70620002182E5107818705078587075
:102FC00090789870D078D8701079187150795871BD
:102FD00090799871D079D8711AE6062002216EE5B1
:102FE000062001216BE50520012168E50420002170
:102FF00065E50520002162E5032001215FE503204E
:1030000000215CE50420012159E500BF4FECC44ECE
:103010002DE9F04F0B788A462F2B044683B025D03C
:103020005C2B23D00025A5609AF800601F2E25D9BF
:10303000B14D1F2E3246E06914D9871E2F2AD6467D
:10304000BC464FF0010335D05C2A33D0292B09D080
:103050007F2A1BD82221A94E02E016F8011FE9B1F0
:103060009142FAD1062003B0BDE8F08F00250AF1A5
:10307000010AA5609AF800601F2ED9D8294620467B
:10308000FEF7E0FC656103B0BDE8F08F05EB460696
:10309000B6F8F025002AE5D07F2ADBD92CF8022FDC
:1030A0001EF8012F591C1F2A164640F2EC802F2AC9
:1030B0000B46C9D19A44013BD4D0002600EB430112
:1030C00031F8022D202A01D02E2A02D1013BF7D15E
:1030D000C8E74FF0203C002142F220084FF0200EBC
:1030E000A26920F81310A2F80880C2F800C0C2F844
:1030F00004C082F80AE000E0013137F8022F202AEC
:10310000FAD02E2AF8D009B146F0030600EB4307A7
:1031100001E0013B04D037F802CDBCF12E0FF8D10D
:10312000D4F818C001316746002A00F0D7804FF06C
:10313000000B4FF0080ED846CDF804A0202A51D03D
:103140002E2A58D0C6456BDCBEF10B0F58D09942E1
:1031500000F08F8046F00306994240F38A809CF885
:1031600000306746E52BDDF804A003D105238CF879
:103170000030A769BEF1080F05BF4FEA8B035FFA65
:1031800083FB0BF00C0303F00C030C2B6ED00BF045
:103190000302032A6AD0B10707D4012A08BF46F008
:1031A0001006042B08BF46F0080600212046FE72D8
:1031B000FEF748FC00284DD12046FFF787F9A369A8
:1031C000DB7A002848D159073FF54DAF6369DA7AB9
:1031D000D20647D59A8A5B8B43EA0243A3609AF8EA
:1031E000006026E70A4646F00306511C30F812201C
:1031F000002AA3D1B3E79942F4D1BEF10B0FABD1B2
:103200009CF800206746E52ADDF804A046F0030696
:103210000BF00C03B9D105228CF80020A769B4E7A4
:103220009942EAD07F2A31D82B27BA42DFF8D090D2
:1032300005D019F8017F002F3FD0BA42F9D15F22A3
:1032400046F003060CF80820D4F818C00A4608F126
:103250000108CAE7A369DB7A04287FF404AF5C079E
:103260003FF501AF052003B0BDE8F08F46F0020640
:103270009BE74FEA8B0B1A464FF00B0E4FF00808F6
:103280005FFA8BFBB1E704268A4417E70027DFF8D3
:1032900074A002E00137802F2AD03AF8029B4A45F9
:1032A000F8D107F18002144F92B23A4492F8702795
:1032B00046F00206002AC2D0B6E7A2F14107192F54
:1032C00003D84BF0020BD2B2BCE7A2F16107192F71
:1032D0009CBF203A4BF0010BD2B2B3E79CF8003010
:1032E000E52B7FF462AF05238CF80030A7695CE71B
:1032F00046F00206A3E700BFE0CA010058BB010088
:1033000064BB0100D0D101002DE9F04F0F4690F9C8
:10331000061098460029837985B0C0F2D08013F05A
:10332000010B00F07881D0E902156D1A954228BF93
:103330001546002D00F0F881C1F30804CDF804B063
:103340000646C346002C40F09C803468A278013ABF
:1033500002EA512212F0FF0800F09D807069A26914
:103360000238023A904280F0A680A178A26A01FB5E
:103370000022002A00F09F80B5F5007F02EB080ACA
:10338000C0F0A38008EB5522914260784FEA55299E
:10339000C0F0F780002840F0FA805FFA89F2AB496C
:1033A0004968C80700F1F380DFF8A482029298F818
:1033B000181009074CBF51464FEA4A21012A00F074
:1033C0009A815220FDF7CCFE029A18BB58463B4624
:1033D000B346FF213E462F46154602469D4C0A2025
:1033E000C8F81C00A160E068C006FCD4A068C0B2A8
:1033F000FF2840F03381D8F81C000028F2D15E4647
:1034000093462A4600214C2002923D461F46FDF776
:10341000A7FE029A4FF0400E4FF0FF0C8E498D48E8
:103420000C7C04F0BF040C74C1F818E00C7C44EA76
:103430000E040C74C0F808C0C368D906FCD48168B7
:10344000B179002A40F0B7814A0605D5B269A2EBEE
:103450000A024A45C0F06B814FEA4929B268B5EBD0
:1034600009054A44B260DBF800204F444A44CBF8D7
:10347000002000F05981B168C1F30804002C3FF42A
:1034800064AFC4F50079A94528BFA946283434445F
:1034900009F1FF3030E0002941D1306901280AD913
:1034A000441C00F06A8134687061A2690238023AF3
:1034B0009042FFF45AAFB37963F07F03B3714FF0DA
:1034C000020B584605B0BDE8F08FB279B1695306DA
:1034D000084600F19580824564D1B268C6F818A00C
:1034E000C2F30802C2F50079A94528BFA94602F136
:1034F0002804344409F1FF30052804F1010202D9FF
:10350000B91A022915D801300444791E00E00132AD
:1035100012F8013C944201F8013FF8D19EE771692D
:103520000129C8D9A2699142C5D22046FEF770F898
:10353000B4E73A46214600F1010828F0030EBE44E4
:1035400051F8043B42F8043B7245F9D128F00302DC
:1035500018F0030FA0EB020004EB020C07EB0201D2
:103560003FF47CAFA45CBC5400283FF477AF9CF8D8
:10357000012001284A703FF471AF9CF802208A7044
:103580006CE720B9A1EB080111F0FF0249D13246E6
:10359000B379DDF804B043F080039371584605B069
:1035A000BDE8F08F617871BB28494968C8072AD403
:1035B000DFF89C80512098F8182011074CBF514625
:1035C0004FEA4A21FDF7CCFD68B301984FF0400E59
:1035D0004FF0FF0C204A1F49147C04F0BF04147400
:1035E000C2F818E0147C44EA0E041474C1F808C050
:1035F000CB68DB06FCD48A6800283FF46EAFC6E7D0
:103600006078002841D013463246DDF804B043F01C
:1036100080039371C2E74FF0070B584605B0BDE831
:10362000F08F8946BBE60A22FF200A49C8F81C2011
:103630008860CB68DA06FCD48A68D2B2FF2A40F0F0
:103640009180D8F81C30002BF2D1BEE700000010AA
:10365000C80700100000034000C00920FE287FF4C6
:10366000CEAE3046CDE9023209F06EFADDE9023223
:1036700000283FF4C4AE013D15F0FF054FF0FF01F7
:1036800006F500767FF4ABAEB9E64D48D0F804C03D
:103690001CF0010FB7D140684007B4D4494A582004
:1036A000127E120758BF4902FDF75AFD002850D07C
:1036B00001984FF040084FF0FF0E434A434992F8FB
:1036C00010C00CF0BF0C82F810C0C2F8188092F83D
:1036D00010C04CEA080C82F810C0C1F808E0CB68B2
:1036E000DB06FCD48A68B27900288CD102F0BF02D4
:1036F000B069B271EFE65120FDF732FD029A002861
:103700007FF488AE0A21FF243048C8F81C1084607A
:10371000C368DB06FCD48168C9B2FF2941D1D8F85F
:103720001C30002BF3D175E64FF0000BC9E607EB18
:10373000422206F12901511A022926D906F128014F
:1037400002F5007451F8043B42F8043BA242F9D15F
:1037500082E6FE2106F12800FDF796FCB0FA80F023
:103760004009A6E7FE2A7FF430AF06F1280009F0F1
:10377000EBF9B0FA80F0400928E73246B379DDF87A
:1037800004B043F08003937108E7013A06F1280181
:1037900006F50A7011F8013B884202F8013FF9D1A1
:1037A0005AE6FE297FF436AE384609F0CDF9B0FA74
:1037B00080F252092EE632460B46DDF804B026E7C9
:1037C00000000010C807001000C0092000000340DE
:1037D000012219232DE9F043A04C85B084F8202064
:1037E000E361E669002EFCD14FF0400C9C4F32465D
:1037F0003B7C304603F0BF033B74C7F818C097F812
:1038000010C033464CF0400C87F810C0D7F800C009
:1038100006214CF0400CC7F800C000960BF02AFFC0
:10382000334630460222072100960BF023FF334631
:1038300030460222082100960BF01CFF334602227C
:103840000921304600960BF015FF0721854B864D68
:10385000D3F8C420DFF814C242F48062C3F8C42055
:10386000834A11605660D3F8A8312E68C3F3015320
:10387000013B022B8EBF04277E4A52F82370B6FB11
:10388000F7F7BCEB570FC0F0608100210222784BA4
:1038900074481F68D2B2FFB21F601F6847EA012157
:1038A00019601A61D0F8A82122F44012C0F8A821AA
:1038B000D0F8A82142F40012C0F8A8215A6842F0BA
:1038C00002025A60DA68D206FCD4DB685F0707D5CB
:1038D0006949674A8B680393039BD3685807F9D4F7
:1038E000604BDFF898C1D3F8A831C3F30153013B13
:1038F000022B8EBF04275F4A52F82370B6FBF7F7FE
:10390000BCEB570FC0F00081002002224FF0400CAA
:103910005749534B0F68D2B2FFB20F600F68DFF800
:1039200044E147EA002008600A611A7C02F0BF0205
:103930001A74C3F818C01A7C42EA0C021A74DEF832
:10394000A831DFF838C1C3F30153013B022B8EBF0E
:103950000422484A52F82320B6FBF2F2BCEB520F85
:103960005BD3002002210A274FF0FF0C404AC9B266
:103970001368DBB21360136843EA0023136011611C
:10398000C2F808C0D368D906FCD47B1E13F0FF0729
:103990009168F5D139464020FDF7E2FB01288046C9
:1039A00000F01F814020FF212D4B27761A7C02F06A
:1039B000BF021A7498611A7C02431A742C4A9160EF
:1039C000D368DB06FCD493686B68002F5AD0254A75
:1039D00023F001036B60D2F8A831C3F30153013B1C
:1039E000022B8EBF0424234A52F82340B6FBF4F482
:1039F000234EB6EB540FC0F0CF80002102221C4BA7
:103A0000D2B21868C0B21860186840EA0121196083
:103A10001A61686805B0BDE8F083BCEB920F80F0D6
:103A2000DD800220014600FB0113B2FBF3F3634586
:103A300000F1010797D9B7F5807F0CD10020023142
:103A400000FB0113B2FBF3F3634500F101078AD9D0
:103A5000B7F5807FF2D03846E5E700BFC807001011
:103A600000C0092000C00F400000001040420F00BD
:103A700000000340E0CA010000800840801A0600F0
:103A800040787D01DE0740F1F7800026A64AA7496D
:103A90005368304603F00D035360D1F8C430A44A94
:103AA0001A40A44BC1F8C4201A68072122F44052DE
:103AB0001A601A681A601A6C22F440521A641A6C5E
:103AC00042F440521A649A6E22F040029A663246DC
:103AD000032300960BF0CEFD324630460323082127
:103AE00000960BF0C7FD30460323324609210096AD
:103AF0000BF0C0FD6B6884F8206043F001036B603D
:103B0000686805B0BDE8F083BCEB970F41D2022096
:103B1000024600FB0223B7FBF3F3634500F101010A
:103B20007FF6F4AEB1F5807F0DD10020023200FBAC
:103B30000223B7FBF3F3634500F101017FF6E6AE24
:103B4000B1F5807FF1D00846E3E7BCEB970F1DD2BB
:103B500002210A4601FB0223B7FBF3F3634501F19F
:103B600001007FF694AEB0F5807F0DD100210232C6
:103B700001FB0223B7FBF3F3634501F101007FF67C
:103B800086AEB0F5807FF1D00146E3E70121022245
:103B90007DE602220120B9E6B6EB940F80F09F800B
:103BA00002210A4601FB0223B4FBF3F3B34201F105
:103BB00001007FF624AFB0F5807F0DD100210232E5
:103BC00001FB0223B4FBF3F3B34201F101007FF6E2
:103BD00016AFB0F5807FF1D00146E3E70120022166
:103BE000C1E664234FF4D5714820E361FDF7B8FACC
:103BF000012877D10DF108094946FF204A4A0DF105
:103C00000C089060D368DB06FCD4936801F8013B94
:103C10004145F6D19DF80A30012B7FF4C3AE9DF8E3
:103C20000B30AA2B7FF4BEAE05E04FF08041E920B7
:103C3000FDF796FA10B1E369002BF6D1E369002B8A
:103C40003FF4B0AE00217A20FDF78AFA00287FF415
:103C5000A9AEFF22344B9A60D968C906FCD4996892
:103C600009F8011BC145F6D19DF8083013F0400F4B
:103C70000CBF04270C2795E640203227FF262E4B49
:103C8000197C01F0BF011974D861187C264940F0F5
:103C90004000187467619660CB68D806FCD4FF209A
:103CA0008B68214A9060D368D906FCD49368DBB254
:103CB000FF2B02D06369002BF4D14026FF201E4B5E
:103CC000194A197C01F0BF0119749E61197C3143B6
:103CD00019749060D368DB06FCD49368D5E60222A1
:103CE00001218CE63946E920FDF73AFA012896BF12
:103CF0004FF002084FF041094FF0E90904E00021BC
:103D00004846FDF72DFA10B1E369002BF7D1E369BE
:103D1000002B3FF447AE4FF400715020FDF720FA1E
:103D2000002808BF47463DE60000034000C00F40A2
:103D3000DEF3EFEF00C0024000C009202DE9F84398
:103D4000046815462378303B092B03D862783A2A59
:103D500000F0A580974E746A0C60002C00F0A980DA
:103D60002378002B7CD1DFF8508200232380D8F801
:103D700004309F0740F18A80D8F8040010F0010752
:103D800040F08A8015B1450700F19080002120465F
:103D9000FDF776FA012873D0032800F08D80002803
:103DA00071D1B4F83B30B3F5007F6CD1B4F8461054
:103DB00001B9616D94F84020E161531E012BE2705E
:103DC00061D894F83D30A370002B5CD0581E184287
:103DD00059D1B4F841502807258154D1B4F8430093
:103DE00000B9206DB4F83EE0BEF1000F4BD001FBEE
:103DF00002F20EEB151C9444604544D3A0EB0C007A
:103E00009842B0FBF3F93ED30EEB070040F6F57E87
:103E1000F14507EB0C0309F1020C56D94FF6F57E7C
:103E2000F145A3626BD8C4F818C020625DB34FEAB5
:103E30004C0303F2FF130244B1EB532F626222D30F
:103E40004FF0FF3200230221C4E903320022338DF8
:103E5000217001339BB23385E380E26222710DE071
:103E60006378DFF85481002B7FF47FAFD8F80430FB
:103E7000DA073FF57AAF0DB15B0717D4002003E0F6
:103E800094F8F231D3B90D20BDE8F883FFF7A0FC18
:103E900010F001073FF476AF0320BDE8F883023449
:103EA0000460002B3FF456AF0B20EDE70A20BDE87D
:103EB000F8830C20BDE8F8830120E5E7D4F8F6711B
:103EC00020463946FDF7DCF966E7A362C4F818C05E
:103ED0002062002DD7D00CF00103104403F2FF1331
:103EE0000CEB4C0203EB5203B1EB532F6062CAD3CD
:103EF0004FF0FF3200230121C4E90332A6E720621C
:103F0000C4F818C0002DBED14FEA8C03E26D03F255
:103F1000FF13B1EB532F6262B5D34FF0FF32B4F809
:103F2000601063783944E5606571616122612BBB83
:103F3000D8F80430D80721D4337E51201A0758BF4F
:103F40004902FDF70DF968B301214020FF251B4B05
:103F50001A7C02F0BF021A749861187C184A40F06B
:103F6000400018749560D368DB06FCD4936829B9C7
:103F70004AF65523B4F82E229A4201D0032165E770
:103F8000104B226B9A42F9D103F1FF53D4F814225B
:103F900003F5005320339A42F0D1D4E98623C4E9D3
:103FA0000332EBE704F1300008F010FEB0FA80F1C4
:103FB0004909CAE7C80700100000001000C0092026
:103FC00000000340525261412DE9F04FADF53B7DB9
:103FD00011AC03468B4A0D46204628210CF0C0FE4A
:103FE00000230A2208A904A830930494FFF7A6FE30
:103FF00005AB0E931BAB0F9330B1042800F0FA8091
:104000000DF53B7DBDE8F08F049908A8FFF700F897
:104010000D9E0028F1D1002EF2D0F37A13F0110F8B
:10402000EED100220120784BB18AC6F80E30738B96
:10403000089C53EA0143F272F283B282C6F81A2056
:10404000207140F0E781E36A2A21CDE93736002369
:10405000B08A728B329342EA00423492E088F2696D
:1040600036933993237830943392ADF8C4008DF8A9
:10407000C610002BC4D06378002BC1D1DFF88CB1FF
:10408000DBF8046016F0010640F0D28012F5007FE4
:1040900080F07E814FF40078C6F30807002F40F0CF
:1040A0004081309CA378013B03EA562313F0FF03C1
:1040B0000DD1002E40F052813498002800F0F1819B
:1040C000012800F04982421C00F0468235909DF89C
:1040D000C69019F0400F40F06081359AA169023A0C
:1040E00002398A4280F09A80A078A16A00FB02120D
:1040F000002A00F09380B8F5007F02EB030AC0F0BD
:10410000078103EB5822904261784FEA5827C0F0AC
:10411000BE81002940F08280FBB2DBF80420D0078A
:104120007CD4DBF80420510778D4394A117E0192FF
:104130000A074CBF52464FEA4A22012B00F0328256
:1041400011F0060F40F01582114659200293FDF739
:1041500007F8029B00282ED1029403951C4602E02A
:1041600011F0FF0408D02846FC21FCF78DFF05F56F
:104170000075611E0028F3D1322201992346DDE942
:1041800002454A61FF2223498A60CA68D006FCD4EE
:10419000FF208A68DDF804C01E498860CA68D2061C
:1041A000FCD48A68D2B2FF2A00F0F481DCF8142033
:1041B000002AF2D101234FF0400E4FF0FF0C164AB7
:1041C0001449107C00F0BF001074C2F818E0107C95
:1041D00040EA0E001074C1F808C0CA68D206FCD4C8
:1041E0008A68DBB93699A1EB0A01B942C0F06A814D
:1041F0007C02ABE008A8FEF7D5FB0D9E00283FF43B
:1042000010AFFDE66CBB010000009A3C00000010FE
:10421000C80700100000034000C0092069F07F09B2
:104220008DF8C6902378BDF8C400002B3FF4E8AEAB
:10423000E38883427FF4E4AE6378002B7FF4E0AE42
:10424000DBF80430DA073FF5DBAE9DF8C650AB066D
:104250007FF5D6AE6F062ED5DBF804303699DE0733
:104260003FF5CEAEDBF8043058073FF5C9AEB64B8C
:1042700058201B7E1A0758BF4902FCF771FF00281F
:1042800000F0808101214026FF20B04B1A7C02F013
:10429000BF021A749E611A7C32431A74AC4A906051
:1042A000D368DB06FCD4936800297FF4A9AE25F01F
:1042B00040038DF8C63020463799FDF745F80028B1
:1042C0007FF49EAE0126389BDA7A42F02002DA7241
:1042D000DDE93325290C1975090A5975C5F3072736
:1042E0009C4965F3070067F30F20C3F8161062F3CB
:1042F0001740C2F3072161F31F60110C120EC3F8BF
:104300001A009977DA7720462671FDF7EDFC77E6FB
:10431000369B9A4503D0339BB34200F2CA80CDF856
:10432000D8A0C7F50074444528BF444630AB07F118
:104330002800621E1844294601320DF039FA9DF812
:10434000C630329E43F040038DF8C6302644B8EBA9
:104350000408329625447FF49FAE08E02046359944
:104360000193FDF7AFFA019B00287FF4A9AE339BC0
:10437000309CB3429DF8C63080F03481BDF8C40053
:10438000339643F020038DF8C630002C3FF438AE4E
:104390002378002B7FF44CAF32E662783699002AFE
:1043A0007FF43CAFDBF80420D0073FF537AFDBF8F4
:1043B000042052073FF532AF634A0193127E100783
:1043C00058BF49025820FCF7CBFE019B002800F0A3
:1043D000B1804FF0010C4FF0400A4FF0FF0E5B4AE6
:1043E0005B49107C00F0BF001074C2F818A0107C6C
:1043F00040EA0A001074C1F808E0CA68D206FCD48A
:104400008A68BCF1000F7FF409AF09F0BF098DF88D
:10441000C69062E6012BE16A3FF4F2ADA2699342D5
:10442000BFF4EEAD984699468A4641462046FDF7D0
:10443000EFF8074600B301283FF4E2AD411C3FF41A
:10444000DFADA36943457FF6DBAD41460022204640
:10445000FDF75EF800287FF4D3AD23695A1C0133C1
:1044600007D00121A3692261BB42617104D9B8461A
:10447000DBE7A3699F42FAD309F1FF335146204697
:10448000E360FCF761FF00283FF4DDADB8E50029EB
:104490007FF4C4AEC01A10F0FF033FF4BFAE07466E
:1044A0003BE6314620460193FDF70CFA019B349020
:1044B0005AE76378ABB169F07F09BDF8C4008DF8A5
:1044C000C69062E74FF4007205EB41213AA80DF067
:1044D0006FF99DF8C630329E23F040038DF8C63048
:1044E00086E6DBF80430DF07E5D4174B5120019353
:1044F0001B7E1E074CBF51464FEA4A21FCF730FE97
:1045000000285ED001204026FF24104B104A197C61
:1045100001F0BF0119749E61197C314319749460D4
:10452000D368D906FCD49368002869D1329FC7F3B9
:104530000807F4E6FE213AA8FCF7A6FDB0FA80FCD5
:10454000019B4FEA5C1C46E7C807001000C0092029
:104550000000034000009A3C9DF8C630BDF8C4003E
:1045600063F07F038DF8C6302378002B7FF460AEB4
:1045700046E5D720F9B2CDE90232FCF7F1FDDDE9DD
:104580000232E1E5FE213AA8FCF77EFDB0FA80F1A7
:10459000490978E6FD228A601B49CA68D006FCD426
:1045A0008A6808E611465820FCF7DAFD00287FF4F7
:1045B00001AEFE212846FCF767FDB0FA80F35B09E7
:1045C000F9E50A23FF2101980F4AC3619160D3687E
:1045D000DC06FCD49368DBB2FF2B08D1C369002B47
:1045E000F4D18FE7BDF8C40043F02003CBE6FE2BE7
:1045F00088D13AA808F0A8FAB0FA80F0400982E71A
:104600009DF8C690309C56E70000034070B50C46FC
:10461000ADF5367D0DAD03462821294A28460CF01C
:104620009FFB4FF40072002120460BF065FD002235
:10463000684604A900952C92FFF780FB17AE01ABEA
:104640000B960A9310B10DF5367D70BD009904A844
:10465000FEF7DEFC09990028F5D10029F3D0CB7ACA
:1046600013F01003EFD10120049A8DF8B600D06A40
:10467000349133908D8A488BC96940EA05402F9167
:10468000D1882E932C923090329335931793ADF8B6
:10469000B41013780BB153782BB12CA809F058FF44
:1046A0000DF5367D70BD074B5B68DB07F5D43346EF
:1046B0004FF4007221462CA8FEF726FEEDE700BF5E
:1046C0006CBB0100000000102DE9F041B6B017AC42
:1046D00003462821394A20460CF042FB012205A955
:1046E00001A80194FFF72AFB10B136B0BDE8F081B4
:1046F00002AA21AB019905A8CDE90B23FEF788FC9E
:104700000028F2D10A9B002BEFD0DA7AD107ECD443
:10471000998A5D8BD30645EA01452CD44FF6FF7389
:10472000BDF81A60BDF8341005A8994208BF31469B
:10473000FDF788F90028D8D14FF0E508012704E0FB
:1047400005A8FDF741FA0028CFD1059C099920461C
:10475000FCF7FAFD01460028C7D10A9B83F80080C8
:10476000BDF81A302771B342EAD3059CF5B920464B
:10477000FDF7BAFAB9E7012DB7D90DF1140C0EAC5B
:10478000BCE80F000FC4BCE80F000FC4DCF8003019
:1047900002210EA810952360FDF754F90028A4D13A
:1047A0000EA8FDF7CFFB04289FD1B7E72946204686
:1047B000FCF78EFF002898D1D9E700BF6CBB010041
:1047C00010B5ACB00DAC03462821154A20460CF0BC
:1047D000C7FA0022684604A90094FFF7AFFA01AABD
:1047E00017ABCDE90A2310B100202CB010BD009901
:1047F00004A8FEF70DFC099B0028F5D1002BF3D08F
:10480000DB7ADB06F0D4049B1A780AB15B7813B12B
:1048100001202CB010BD034B01205B68E5E700BF11
:104820006CBB0100000000102DE9F043ADF2245DE7
:104830000346604A0F4605A828210CF091FA002291
:1048400005AB1FA902A80293BE92FFF777FA0FAD3E
:1048500034ACCDE9255428B1002528460DF2245D5D
:10486000BDE8F08302991FA8FEF7D2FB249E002822
:10487000F2D1002EF0D096F80B8018F01008EBD192
:104880004FF001091F9AC696D16A8DF8FE92C59124
:10489000B08A718BBE9241EA0041D288C291F1691F
:1048A0003B46C191ADF8FC222821424A05A8CDF82B
:1048B0000083CDF81083CDF81C830CF051FA05ABC2
:1048C00042462946C4F8008001A80193FFF736FA52
:1048D00002ABAB611FABEB610028BDD1284601994B
:1048E000FEF796FB6B690028B6D1002BB4D0DE7AB8
:1048F00016F01006B0D12A682F4FD16A84F80690BE
:10490000C4E90713988A598B41EA00412161DB69A8
:10491000A661C4E90263D38866622260A38017E0BF
:10492000236801963BB11A782AB1A188DA889142AE
:1049300001D15B782BB3402229461FA80CF092FAD4
:10494000002834D1029B402B25D1019B402B22D142
:10495000BE9B0296002BE3D01A78002AE0D0BDF867
:10496000FC12DA889142DBD15B78002BD8D17B68CE
:10497000DA07D5D4402202AB1FA9BEA8FEF7C4FCBB
:10498000CEE77B68DB07D6D440222946204601AB20
:10499000FEF7BAFCCFE70125BEA809F0D9FD2046F5
:1049A00009F0D6FD28460DF2245DBDE8F083002510
:1049B000F2E700BF6CBB0100000000100146008B55
:1049C00070B5000AFBF746FF91F9296020FA06F559
:1049D000488B000AFBF73EFF20FA06F4888B000A9A
:1049E000FBF738FF91F92A30F040B5FBF3F2B4FB46
:1049F000F3F6B0FBF3F3C01A91F82B30AA1AA41BFC
:104A0000120124010001013B8A60CC600861032B84
:104A100026D8DFE803F0020D191DCB8BCC8A04FBEE
:104A200003F0DB439BB26343000C08841B0C1AE0C9
:104A30008B8AC88A00FB03F2DB439BB24343120C10
:104A40000A841B0C22460EE00022CB8A0A840AE06C
:104A50000023CA8A0B84CB8B534302461B0C02E013
:104A600000231A460B844B840A6070BD002290F824
:104A70002B3002600133DBB2032B426080F82B3015
:104A800004D0052B1BD0022B07D0704790F928309B
:104A9000C28AC3B9038442847047828AC18AD343DD
:104AA0009BB201FB02F201FB03F3D0F80CC0120C25
:104AB0001B0C8184C0F800C002844384704780F8D6
:104AC0002B2082847047B0F814C000B56FEA0C0345
:104AD0004FF0010E02FB0CF19BB202FB03F3090C39
:104AE000018481681B0CA0F81EC0016080F82BE0D7
:104AF00043845DF804FB70B49DF81460BDF80C406D
:104B00000F2EBDF8105019D1058B868A8D4218BF23
:104B10000183418B14BF012500259142818B03D075
:104B20009E42428302D102E09E4203D08382A14290
:104B300002D109E0A14206D0848305E0C38AAB42DA
:104B400004D0C58200E00DB170BC37E770BC70477F
:104B50002DE9F843002605460F46674C14F8013C42
:104B6000032B2ED1FC2D00F08D80FD2D2FD0FE2D9E
:104B700051D0DFF8888198F8D23D002F68D05A1CB8
:104B800088F8D22D94F880C098F8D12D62447F2AFD
:104B900017DCA5F10C00C0B2002B40F08D8094F81A
:104BA00085304FEA061E013384F885300EEB06038C
:104BB00008EBC30363440CF1010C84F880C083F854
:104BC000C10C88340EB90126C8E7BDE8F88394F813
:104BD0008530002BF5D0013BDFF8208184F885304B
:104BE00098F8D13D002B5CD106EB06104FF0FF0C7E
:104BF00008EBC00007E084F8803091F8C13C81F8F0
:104C0000C1CC1906DDD594F88020531EDBB2C11843
:104C1000002AF0D1D5E7394B94F8802093F8D11DC4
:104C200088187F28CDDC94F88500013084F8850051
:104C300093F8D20D002858D17F2106EB061003EB24
:104C4000C0031344013283F8C11C84F88020B8E704
:104C50005BBB06EB061394F88020DB002848013389
:104C600013447E2198F8D12D18440BF045FA002208
:104C700094F8803098F8D11D0B4484F8803088F87F
:104C8000D12D9EE70023DFF874C084F8803084F8CB
:104C900085308022FF2120468CF8D13D0BF02CFA84
:104CA0008FE7013B88F8D13D8BE7013BDBB288F809
:104CB000D23D002B85D1CCE70CF1FF3306EB061972
:104CC0005BB208EBC9094FEA061E03E0120610D5D5
:104CD000002B0EDB09EB030292F8C12C013B02F022
:104CE0007F0188425BB2F1D16BE7013183F8D11DBE
:104CF00067E740F0800059E789140010C8070010EA
:104D00008814001006210022FF2070B40C4B0D4CBB
:104D100093F8BB5C03F65C4314F8016B354204D096
:104D20001A769A76D87598751A61013911F0FF01D3
:104D300003F10C03F0D170BC102203480BF0DCB976
:104D4000C807001004E20100241400102DE9F04708
:104D50006A4C6B4D04F514694F4605F10608A4F53D
:104D6000477696F8BB2C15F8013B1A4205D097F907
:104D7000193013B197F91B3083B9454504F12C0460
:104D800007F10C07EDD10023C6F85C3CC9E90133FB
:104D9000C9F80C3086F8BD3CBDE8F08796F85D1C7C
:104DA00096F85C3C0B4396F85E1C0B4396F85F1C30
:104DB0000B4396F8601C0B4396F8611C0B4396F866
:104DC000621C0B4396F8631C0B4396F8641C0B4360
:104DD00096F8651C0B4396F8661C0B4396F8671C07
:104DE0000B4396F8681C0B4396F8691C0B4396F826
:104DF0006A1C0B4396F86B1C0B4314BF0120002068
:104E000012F0010118BF96F9741C12F0020F04D0C1
:104E100096F880CC41EA0C0149B212F0040F04D09C
:104E200096F88CCC41EA0C0149B212F0080F04D07C
:104E300096F898CC41EA0C0149B212F0100F04D058
:104E400096F8A4CC41EA0C0149B2920603D596F833
:104E5000B02C0A4351B219B94FF0FF32C6F8E42919
:104E6000002B40D1274B83F8640006F081FEB4F894
:104E70004414B4F84C35B4F836A4B4F83EE509044B
:104E80001B04B1FBFAF1B3FBFEF300204FF0040C5E
:104E9000D4F83024A4F84635C4F82024D4F83825B2
:104EA0009BB2C4F828258AB20AFB02F20EFB03F378
:104EB000120C1B0CA4F83E14A4F84224C4F82404D9
:104EC000A4F84A3584F84BC484F853C5A4F84004C8
:104ED00084F84704C4F82C05A4F8480584F84F0565
:104EE000A7F8190049E7074B93F96420002ABAD1C3
:104EF000D6F8E02FC6F8E429B5E700BFE40A0010B1
:104F000004E20100C01800102DE9F04FDFF84082E4
:104F100095B0904C079300F00703434493F82C5648
:104F200004EBD003914694F9BCAC93F85C2C0029B7
:104F300000F0AF80154383F85C5CD4F8E03F059344
:104F4000BAF1000F40F0DF8294F8BB3C13F0010B84
:104F50000ED094F9745CD4F86C2C002D00F0C8824B
:104F6000059DAA4204D294F8732C824200F04C8131
:104F70004FF0FF3215469E0703F0020710D594F953
:104F800080CCD4F8786CBCF1000F00F0B782DDF86B
:104F900014C0B44504D994F87F6C864200F0A7850C
:104FA00013F0040F03F0040610D094F98CECD4F83D
:104FB00084CCBEF1000F00F0AE82DDF814E0E645CF
:104FC00004D994F88BCC844500F0978503F0080C45
:104FD00013F0080FCDF818C010D094F998ECD4F85D
:104FE00090CCBEF1000F00F0A582DDF814E0E6459C
:104FF00004D994F897CC844500F07C8503F0100C1C
:1050000013F0100FCDF820C013D0D4F89CCC94F935
:10501000A4ECCDF828C0BEF1000F00F09182E64666
:10502000DDF814C0F44504D994F8A3CC844500F00D
:105030009B8403F0200C9B06CDF824C00AD594F97C
:10504000B03CD4F8A8CC002B00F00484059B634549
:1050500000F28E826A1C40F0D880BBF1000F00F095
:105060008E8294F8723C04EBD30292F85C2C3AB135
:1050700003F00703434493F82C361A4240F07F8232
:10508000D4F86CCC4FF0FF35BCF1FF3F18BF0025C2
:1050900076E222EA050294F8BBEC83F85C2CBAF1C4
:1050A000000F1ED12C4D2D4F814605F1060807F546
:1050B000146601E094F8BBEC15F8013B13EA0E0FFF
:1050C00006D096F918301BB1B37D4B4500F04683EE
:1050D000A84507F12C0706F10C06EBD115B0BDE889
:1050E000F08F94F9743C0EF00106059394F8723C2D
:1050F0000EF002070C9394F9803C0EF0040B06931B
:1051000094F87E3C0EF008090D9394F98C3C0EF057
:10511000100A089394F88A3CCDF848E00E9394F96D
:10512000983C94F8BA5C099394F8963C13900F93CA
:1051300094F9A43C0A9394F8A23C109394F9B03CDF
:105140000B9394F8AE3C11930EF020039E460DE0B5
:10515000D8DB0100C807001004E20100E40A0010D7
:1051600001318BB2802B09B200F07183022D12BF86
:105170000B46C1F17F031BB2C3F3C402224492F871
:105180005C2C5FFA83FC002AEAD00CF00700404454
:1051900090F82C060242E3D026B1059A12B10C9A7F
:1051A0009A42DDD027B1069A12B10D9A9A42D7D011
:1051B000BBF1000F04D0089A12B10E9A9A42CFD0D8
:1051C000B9F1000F04D0099A12B10F9A9A42C7D0D0
:1051D000BAF1000F04D00A9A12B1109A9A42BFD0C5
:1051E000BEF1000F03D00B9A002A40F05081D4F892
:1051F000E03F60464FF0010AB4F8BE9C0593002DD5
:1052000040F05581A4F8BE9C0025CDF820A0824630
:10521000DFF810B3ABF6971306931BF8013FFF2B93
:105220003FF45CAF40F20116012103EB0A0205EBEB
:105230004503BD4F9B0003F1180023443E5283F801
:10524000732C059A83F8761CC3F86C2C079AA3F884
:10525000709C83F8772C83F872AC94F85C2C94F8EB
:105260005D3C94F8BB1C134394F85E2C134394F8F4
:105270005F2C134394F8602C134394F8612C134370
:1052800094F8622C134394F8632C134394F8642C21
:10529000134394F8652C134394F8662C134394F845
:1052A000672C134394F8682C134394F8692C134328
:1052B00094F86A2C134394F86B2C134314BF012009
:1052C000002011F0010218BF94F9742C8F0703D548
:1052D00094F8806C324352B24E0703D594F88C6C2C
:1052E000324352B20F0703D594F8986C324352B24E
:1052F000CE0603D594F8A46C324352B2890603D586
:1053000094F8B01C0A4352B21AB94FF0FF32C4F8F5
:10531000E429002B40F0C080844B83F8640006F041
:1053200027FC089B1BB194F85A3E002B46D02C2337
:10533000002103FB0543C3F84017C3F84818B3F82E
:105340006017B3F852770904B1FBF7F10122D3F8E3
:10535000440783F86727C3F83C07D3F84C0883F861
:105360006327C3F8440888B2014683F86F2883F89E
:105370006B28B3F86828B3F85A681204B2FBF6F247
:1053800007FB01F1090CA3F85C1791B20A46A3F8D8
:105390005A07C043A3F86218C94306FB02F280B261
:1053A000120CA3F8642807FB00F2120CA3F85E2786
:1053B0008AB206FB02F2120CA3F866282C26002300
:1053C00010275B4A05FB06F6B2F84CC0069909FBAC
:1053D0000CF2CCEB1242013A92B206F5846008441A
:1053E000019219461A4600930297FFF784FB0023A7
:1053F0004F4A0093029706F5A560B2F84A600699F5
:1054000009FB06F2C6EB1242013A92B2084401923D
:1054100019461A46EDB2FFF76EFB6B1CDBB2062B8A
:1054200094F8BB2C3FF45AAE08EB030191F82C160C
:105430000A4240F00682AB1CDBB2062B3FF44EAEB4
:1054400008EB030191F82C160A4240F0FA81EB1C9C
:10545000DBB2062B3FF442AE08EB030191F82C16A9
:105460000A4240F0EE812B1DDBB2062B3FF436AE34
:1054700008EB030191F82C160A4240F0E281002D5E
:105480007FF42CAE93067FF529AE0525DAE1119A5B
:105490009A427FF4ACAE63E6244B93F96420002A71
:1054A0007FF43BAFD4F8E02FC4F8E42935E70023BC
:1054B00008E0012D3FF412AE4FF0010A0133802BBA
:1054C0003FF4A0AEC3F3C40283422244F6D092F864
:1054D0005C1CDAB202F0070242440029EED092F8D6
:1054E0002C261142EAD08342E3DB022DE4D1F5E51C
:1054F000571C4FF0FF3518BF00253CE5B24284BF72
:1055000032460D464CE594F8BA5C4FF0000A002D87
:105510003FF478AECBE762457FF658AD6246022590
:1055200054E500BF7B14001024140010C0180010B4
:10553000C817001062457FF661AD624603255DE540
:1055400062457FF676AD03F0200213F02003099246
:1055500000F0098294F9B03CD4F8A85C002B00F06C
:105560001483059BAB4202D8F24604254DE6042580
:1055700094F8AF3C83427FF46DAD052545E6AC461B
:1055800007F0FF030A939FB194F87E3C04EBD3022B
:1055900092F85C2C32B103F00703434493F82C36A5
:1055A0001A4205D1D4F8783C63453CBF9C460D4671
:1055B00006F0FF079EB194F88A3C04EBD30292F800
:1055C0005C2C32B103F00703434493F82C361A42A3
:1055D00005D1D4F8843C634501D29C460225069B44
:1055E00003F0FF020B929BB194F8963C04EBD302BC
:1055F00092F85C2C32B103F00703434493F82C3645
:105600001A4205D1D4F8903C634501D29C4603254B
:10561000089A02F0FF030693002A00F0208194F814
:10562000A23C04EBD30292F85C2C3AB103F00703DE
:10563000434493F82C361A4240F01181D4F89C3C34
:10564000634580F00C81099A02F0FF0E002A00F0F9
:10565000B0829C46042594F8AE3C04EBD30292F849
:105660005C2C3AB103F00703434493F82C361A42FA
:1056700040F0FB80D4F8A83C634580F0F680052517
:10568000D4F85C2CD4F8603C1343D4F8642C1A434F
:10569000D4F8683C1A4342F30723134342F307410B
:1056A0000B4343EA22635BB21A1E18BF0122BBF10F
:1056B000000F40F0158159460A9E1EB194F8806C87
:1056C0000E4371B21FB194F88C6C0E4371B20B9EF5
:1056D0001EB194F8986C314349B2069E1EB194F8FD
:1056E000A46C314349B2BEF1000F03D094F8B06C02
:1056F000314349B219B94FF0FF31C4F8E419002B16
:1057000040F0FE81C24B83F86420069006F030FA28
:105710002C23002205FB03F3BE4903F5876603F53E
:10572000A8670E4423443944C3F8402783F863270D
:10573000C3F8482883F86B2883F867270698C6F8CB
:105740000620C6F80A20C3F83C2783F86F28C1F862
:105750000620C1F80A20C3F8442856E50023B37692
:1057600094F9BD2C002A7FF4B3AC727694F85D1CDA
:1057700094F85C3C0B4394F85E1C0B4394F85F1C5C
:105780000B4394F8601C0B4394F8611C0B4394F892
:10579000621C0B4394F8631C0B4394F8641C0B438A
:1057A00094F8651C0B4394F8661C0B4394F8671C33
:1057B0000B4394F8681C0B4394F8691C0B4394F852
:1057C0006A1C0B4394F86B1C0B4314BF012100218E
:1057D0001EF0010F18BF94F9742C1EF0020F03D0B5
:1057E00094F8800C024352B21EF0040F03D094F8D8
:1057F0008C0C024352B21EF0080F03D094F8980CA0
:10580000024352B21EF0100F03D094F8A40C0243CE
:1058100052B21EF0200F03D094F8B00C024352B2E3
:105820001AB94FF0FF32C4F8E429002B5BD0784B53
:1058300093F96420002A57D1D4F8E02FC4F8E42962
:1058400052E05DB2744B5B457FF4E7AC46E4DDE9C2
:1058500012E027E49445BFF4FDAB9A468DE6099B20
:1058600003F0FF0E002B7FF4F6AE6B1C7FF408AF45
:1058700094F8BA3CBBF1000F00F0B481012B00F0AA
:10588000CD80022B00F08D80002B6FD00A9A002A69
:1058900000F00B81002B72D002464FF0FF36002F34
:1058A00000F03C81012B00F0CD80002B00F07781CF
:1058B000069929B1012B00F0FB80002B00F0E3805A
:1058C000BEF1000F08D0012B00F0FA80022B00F08F
:1058D0009880002B00F0DF806B1C3FF4FFABCFE61D
:1058E00094F9741CE8E64A4B83F8641006F040F91A
:1058F000B7F84424B7F84C35B7F836A4B7F83EE506
:1059000012041B04B2FBFAF2B3FBFEF300204FF0CB
:10591000040CA7F83E24A7F8463592B29BB20AFBC6
:1059200002F20EFB03F3D7F83014120CC7F8201460
:10593000D7F838151B0CC7F82815A7F84224C7F864
:105940002404A7F84A3587F84BC487F853C5A7F84D
:10595000400487F84704C7F82C05A7F8480587F8DE
:105960004F05FFF7B5BB9A4604254EE4D4F86C2CDE
:10597000561C40F02D810A9A002A00F052814FF007
:10598000FF32D4F8786C9642C0F006818446164601
:105990006246002F00F0C280012B53D0022B14D09E
:1059A00083E794F873CC60457BD90A9A002A00F00B
:1059B0002C81002594F87F2C624580F0FC80002F1C
:1059C00000F0A9800D464FF0FF3694F88B1C9142F1
:1059D00080F0A4800B9A002A00F0C3800A460225BA
:1059E00094F8971C914280F0BE80069B1BB194F8FE
:1059F000A33C99426AD8BEF1000F00F0FE800A462F
:105A0000032594F8AF3C9342FFF439AE64E700BF3E
:105A1000C0180010E40A00108114001094F873CC30
:105A2000604580F0D9800A9A002A00F0F4800025B1
:105A300094F87F2C624540F2BE80002F6BD00D465B
:105A40004FF0FF3694F88B1C914267D90B9A002ACD
:105A500000F087800A46022594F8971C914240F294
:105A60008280069B002B3BD094F8A33C994237D20E
:105A7000BEF1000F00F09D8094F8AF5C9D4294BF92
:105A800004250525FCE5D4F89C3CB34259D3BEF16E
:105A9000000F3FF421AFD4F8A83CB342FFF4EFADC0
:105AA0001AE70A9A002A40F0A68002462E4670E7BE
:105AB00094F8A33C9342DBD8BEF1000F3FF40CAF47
:105AC00094F8AF3C93423FF6DAAD05E7BEF1000F24
:105AD0006FD094F8AF5C9D422CBF04250525CFE51F
